:100000000C94A1040C94C9040C94C9040C94C90464
:100010000C94C9040C94C9040C94C9040C94C9042C
:100020000C94C9040C94C9040C94C9040C94C9041C
:100030000C94C9040C94C9040C94C9040C94C9040C
:100040000C94C9040C94C9040C94C9040C94C904FC
:100050000C94C9040C94C9040C94C9040C94C904EC
:100060000C94C9040C94C904810D850D8A0D8F0D63
:10007000940D990D9E0DA30DA90DAF0DB50DBB0DE2
:100080009D0FA00FA30FA60FA90FAC0FAF0FB20FBC
:10009000B80FB50F0E2216221E2226222E2236223D
:1000A0003E2235263D2645264D2655265D266D26C3
:1000B000652675267D2685268D2695269D26A526D0
:1000C000AD26B5262A274B275B27632753273527DD
:1000D00040276B276F287B287528812887288D2843
:1000E000932899289F28A5280AD7233C0AD7A33C00
:1000F0008FC2F53C0AD7233DCDCC4C3D8FC2753D18
:10010000295C8F3D0AD7A33DEC51B83DCDCCCC3D09
:100110008FC2F53D9A99193ECDCC4C3E9A99993EA5
:100120000000003F0000403F0000803F0000C03F53
:100130000000004000004040C0C0E0A0A0A090909F
:10014000909088888884848484828282828181FFDE
:10015000C0C0E0E0A0A090909090888888848484BB
:1001600084828282828181FFC0C0E0E0E0A0909022
:10017000909088888884848484828282828181FFAE
:10018000C0C0E0E0E0E0F0909090888888848484AB
:1001900084828282828181FFC0C0E0E0E0E0F0F0F2
:1001A000909088888884848484828282828181FF7E
:1001B000C0C0E0E0E0E0F0F0F090888888848484BB
:1001C00084828282828181FFC0C0E0E0E0E0F0F0C2
:1001D000F0F088888884848484828282828181FF8E
:1001E000C0C0E0E0E0E0F0F0F0F0F88888848484BB
:1001F00084828282828181FFC0C0E0E0E0E0F0F092
:10020000F0F0F8F88884848484828282828181FF7D
:10021000C0C0E0E0E0E0F0F0F0F0F8F8F8848484AA
:1002200084828282828181FFC0C0E0E0E0E0F0F061
:10023000F0F0F8F8F8FC848484828282828181FF65
:10024000C0C0E0E0E0E0F0F0F0F0F8F8F8FCFC848A
:1002500084828282828181FFC0C0E0E0E0E0F0F031
:10026000F0F0F8F8F8FCFCFC84828282828181FF45
:10027000C0C0E0E0E0E0F0F0F0F0F8F8F8FCFCFCE2
:10028000FC828282828181FFC0C0E0E0E0E0F0F089
:10029000F0F0F8F8F8FCFCFCFCFE8282828181FF21
:1002A000C0C0E0E0E0E0F0F0F0F0F8F8F8FCFCFCB2
:1002B000FCFEFE82828181FFC0C0E0E0E0E0F0F061
:1002C000F0F0F8F8F8FCFCFCFCFEFEFE828181FFF9
:1002D000C0C0E0E0E0E0F0F0F0F0F8F8F8FCFCFC82
:1002E000FCFEFEFEFE8181FFC0C0E0E0E0E0F0F039
:1002F000F0F0F8F8F8FCFCFCFCFEFEFEFEFF81FFCF
:10030000C0C0E0E0E0E0F0F0F0F0F8F8F8FCFCFC51
:10031000FCFEFEFEFEFFFFFF0000000000000000EC
:10032000005F0000000000070007000000147F14B9
:100330007F140000242A7F2A1200004C2C106864CD
:10034000000036495522500000000503000000005F
:10035000001C22410000000041221C000000140883
:100360003E0814000008083E080800000000503055
:10037000000000101010101000000060600000006D
:1003800000201008040200003E5149453E000000D4
:10039000427F400000004261514946000021414532
:1003A0004B3100001814127F1000002745454539D5
:1003B00000003C4A49493000000171090503000072
:1003C00036494949360000064949291E00000036D1
:1003D00036000000000056360000000008142241DC
:1003E000000000141414141400000041221408002A
:1003F0000002015109060000324979413E00007EA9
:100400001111117E00007F4949493600003E4141EB
:10041000412200007F4141221C00007F494949419F
:1004200000007F0909090100003E4149497A0000A6
:100430007F0808087F000000417F41000000204045
:10044000413F0100007F0814224100007F404040EE
:100450004000007F020C027F00007F0408107F0034
:10046000003E4141413E00007F0909090600003E6F
:100470004151215E00007F09192946000046494983
:100480004931000001017F010100003F4040403F31
:1004900000001F2040201F00003F4038403F000068
:1004A0006314081463000007087008070000615116
:1004B0004945430000007F4141000000020408104C
:1004C0002000000041417F000000040201020400FE
:1004D00000404040404000000001020400000020B5
:1004E0005454547800007F48444438000038444451
:1004F00044200000384444487F00003854545418C5
:100500000000087E09010200000C5252523E000019
:100510007F08040478000000447D40000000204073
:10052000443D0000007F10284400000000417F404F
:100530000000007C0418047800007C0804047800A3
:1005400000384444443800007C14141408000008A7
:100550001414187C00007C0804040800004854545B
:1005600054200000043F44402000003C4040207CD8
:1005700000001C2040201C00003C4030403C00009B
:10058000442810284400000C5050503C00004464A3
:10059000544C4400000008364100000000007F0079
:1005A00000000000413608000000080408100800A0
:1005B00000FFFFFFFFFF00000000E0F0F8F800F888
:1005C000F8F0E00000000000FFFFFFFF00FFFFFF6A
:1005D000FF0000000000070F1F1F001F1F0F070074
:1005E00000000000E010080800080810E00000000B
:1005F0000000FF00000000000000FF0000000000FD
:100600000708101000101008070000004080E010DC
:10061000080800080810E08040000000FF4224188D
:1006200000182442FF00000002010708101000100B
:100630001008070102000000605048440044485080
:10064000600000000000060A12220022120A0600C2
:10065000000000006070787C007C78706000000012
:100660000000060E1E3E003E1E0E06000000183C56
:100670007EE70000000000E77E3C1800000020300C
:10068000381C001C3830200000000000AAAAAAAACA
:1006900000AAAAAAAAAA0000000000000003000005
:1006A000183C7EE7000000E77E3C180000000000D8
:1006B000E7E7420042E7E7000000000000081838C2
:1006C0007000703818080000004080E0F0F8F80072
:1006D000F8F8F0E080400000007EBDDBE700E7DBDB
:1006E000BD7E0000000201070F1F1F001F1F0F0724
:1006F00001020000EEEE00005A005A0000EEEE008B
:10070000000000E090482800284890E00000000029
:1007100000FF88442200224488FF000000000007F8
:1007200008141200121408070000000000E030183E
:100730008800881830E00000000000FF22118800C7
:10074000881122FF0000000000070A11180018118C
:100750000A070000000000E010884800488810E008
:100760000000000000FF11884400448811FF0000D1
:100770000000000709181400141809070000007C85
:100780001211127C00007F4949493100007F49491C
:10079000493600007F010101010000603F213F60F8
:1007A00000007F49494941000077087F0877000031
:1007B000224149493600007F1008047F00007E1066
:1007C00009047E00007F081422410000403E010120
:1007D0007F00007F020C027F00007F0808087F0076
:1007E000003E4141413E00007F0101017F00007F4A
:1007F0000909090600003E41414122000001017F34
:1008000001010000074848483F00000E117F110E0B
:100810000000631408146300003F20203F600000C4
:10082000070808087F00007F407E407F00003F20CF
:100830003F207F0000017F48483000007F483000A3
:100840007F0000007F4848300000224149493E00B7
:10085000007F083E413E0000462919097F00002024
:100860005454547800003C4A4A4A3100007C5454A5
:10087000280000007C04040C000000603C243C6064
:100880000000385454541800006C107C106C0000A8
:10089000004454542800007C2010087C00007C2177
:1008A00012097C00007C1028440000004038040439
:1008B0007C00007C0810087C00007C1010107C007C
:1008C00000384444443800007C0404047C00007C6C
:1008D0001414140800003844444400000004047C4C
:1008E000040400000C5050503C000008147C140814
:1008F0000000442810284400003C20203C600000F8
:100900000C1010107C00007C407C407C00003C20DF
:100910003C207C0000047C50502000007C502000D3
:100920007C0000007C5050200000284454543800C3
:10093000007C103844380000485434147C00000017
:100940002B1E11241FBECFEFD8E0DEBFCDBF13E0BA
:10095000A0E0B1E0E8E2F1E602C005900D92A03B14
:10096000B107D9F727E0A0EBB3E001C01D92AC3985
:10097000B207E1F714E0C1EAD4E004C02197FE0118
:100980000E943F30C03AD107C9F70E94001E0C9464
:1009900092300C94000084569F4FFC011082089501
:1009A0000F931F93CF93DF93EC01CB01FE01EA5627
:1009B000FF4F10823196108220E130E03A83298384
:1009C00008E00F8311E018830E94A4141B8782E0C3
:1009D0008C8796E6998775E07A87988794E6998B55
:1009E0001A8A1F8724E0288B9E879BA336E03CA3AE
:1009F00019A32AA398A319A78AA71FA238A745E677
:100A00004EA33D8F9E8F8B8F43E04C8F9A8F1F8A12
:100A1000988F8D8B4E8B9C8B2FA748AB7DA752E771
:100A20005EA75CA797E69DAB0EAB1BAA1CAB0AABFF
:100A30009AAF2BAF18AE89AF2FAB9FAFFE01E05C32
:100A4000FF4F6CE060831DAF4EAF6CAF3496908368
:100A50003196908333978083319640833297908389
:100A600038961083319648E6408333972083319639
:100A700070833297408338961083319649E64083DD
:100A80003397208331963083329740833896108392
:100A900031964AE6408333977083319627E020836E
:100AA0003297408338961083319690833397308302
:100AB00031962083329790833896108231963BE6A8
:100AC000308333970083319629E020833297308337
:100AD0003896108231964CE64083339700833196E6
:100AE0003AE03083329740833896108231964DE653
:100AF00040833397208331962BE0208332974083C5
:100B000038961082319690833397308331962083C4
:100B1000329790833896808331969EE69083339700
:100B2000608331962DE020833297908338968083BE
:100B300031963FE630833397608331969EE0908311
:100B40003297308338968083319630E730833397FD
:100B5000208331962FE0208332973083389680832C
:100B6000319631E7308333979083319690E19083CB
:100B70003297308338968083319650833397208321
:100B800031969083CE57DF4F5883DF91CF911F91DD
:100B90000F9108958F929F92AF92BF92EF92FF9222
:100BA0000F931F93CF93DF93EC01CB017A0164E69F
:100BB00070E00E9408298C018530910519F4188293
:100BC0001F826FC2069719F418821F826AC20F3FF4
:100BD0008FEF180729F41B821C821D821E8261C2BE
:100BE0008F818C3C61F40115110509F05CC281E034
:100BF00088839CE09F83C856DF4F888352C20115CB
:100C0000110539F418821F82C856DF4F81E08883AE
:100C100048C20130110531F00230110531F48F5F07
:100C20008F835DC081508F835AC0883C09F057C0C4
:100C30000330110521F00430110551F150C0570166
:100C4000EAECAE0EB11C2AE037ED43E25CE36B81C7
:100C50007C818D819E810E94EE2D9B01AC01F5016E
:100C600060817181828193810E94ED2DF501608305
:100C70007183828393838CEE91E5A8EBBDE38B8334
:100C80009C83AD83BE838F81893C09F015C233C03C
:100C90005701FAECAF0EB11C2AE037ED43E25CE3FA
:100CA0006B817C818D819E810E94EE2DF5012081DA
:100CB0003181428153810E94EE2DF5016083718361
:100CC000828393838CEE91E5A8EBBDE38B839C83B9
:100CD000AD83BE838F81893C09F0F3C135C08F811C
:100CE000893C09F058C00330110529F00430110582
:100CF00009F051C029C05701FEECAF0EB11C20E035
:100D000030E040E85FE36B817C818D819E810E94B1
:100D1000EE2D9B01AC01F50160817181828193818F
:100D20000E94ED2DF501608371838283938380E0BF
:100D300090E0A0E1B1E48B839C83AD83BE838F817F
:100D40008B3C09F084C033C05701FEECAF0EB11CE0
:100D500020E030E040E85FE36B817C818D819E8103
:100D60000E94EE2DF50120813181428153810E9444
:100D7000EE2DF501608371838283938380E090E0A0
:100D8000A0E1B1E48B839C83AD83BE838F818B3CD8
:100D900009F05DC035C08F818B3C09F058C003302D
:100DA000110529F00430110509F051C029C057017F
:100DB000F2EDAF0EB11C20E030E040E85FE36B8164
:100DC0007C818D819E810E94EE2D9B01AC01F501FD
:100DD00060817181828193810E94ED2DF501608394
:100DE00071838283938380E090E0A0E1B1E48B8300
:100DF0009C83AD83BE838F818A3C09F080C033C061
:100E00005701F2EDAF0EB11C20E030E040E85FE3A7
:100E10006B817C818D819E810E94EE2DF501208168
:100E20003181428153810E94EE2DF50160837183EF
:100E30008283938380E090E0A0E1B1E48B839C8384
:100E4000AD83BE838F818A3C09F059C033C08F8146
:100E50008A3C09F054C00330110529F00430110513
:100E600009F04DC027C087010A521F4F2AE037ED15
:100E700043E25CE36B817C818D819E810E94EE2D3B
:100E80009B01AC01F80160817181828193810E9494
:100E9000ED2DF80160837183828393838CEE91E55D
:100EA000A8EBBDE38B839C83AD83BE838F818C3C99
:100EB00080F534C087010A521F4F2AE037ED43E224
:100EC0005CE36B817C818D819E810E94EE2DF80117
:100ED00020813181428153810E94EE2DF80160838F
:100EE0007183828393838CEE91E5A8EBBDE38B83C2
:100EF0009C83AD83BE838F818C3C80F00DC08F813D
:100F00008C3C60F00330110521F00430110531F400
:100F100003C081508F8302C08F5F8F838F81893C94
:100F200018F488EC8F8304C08D3C10F08DEC8F8317
:100F3000F701E653FF4F80809180A280B38020E0CC
:100F400030E0A901C501B4010E945A2E181664F0C0
:100F50008AE097EDA3E2BCE3F701E653FF4F8083FD
:100F60009183A283B38315C020E030E040E450E4D5
:100F7000C501B4010E94B92F88235CF080E090E0A5
:100F8000A0E4B0E4F701E653FF4F80839183A2838E
:100F9000B383F701E253FF4F80809180A280B3803A
:100FA00020E030E0A901C501B4010E945A2E1816B4
:100FB00044F0F701E253FF4F108211821282138234
:100FC00015C020E030EC49E754E4C501B4010E94AB
:100FD000B92F88235CF080E090ECA9E7B4E4F70136
:100FE000E253FF4F80839183A283B383F701EE52D4
:100FF000FF4F80809180A280B38020E030E0A90183
:10100000C501B4010E945A2E181644F0F701EE52A1
:10101000FF4F108211821282138215C020E030EC43
:1010200049E754E4C501B4010E94B92F88235CF05C
:1010300080E090ECA9E7B4E4F701EE52FF4F808323
:101040009183A283B383F701EA52FF4F808091809E
:10105000A280B38020E030E0A901C501B4010E9464
:101060005A2E181644F0F701EA52FF4F10821182EF
:101070001282138215C020E030E040E05FE3C5013A
:10108000B4010E94B92F88235CF0F701EA52FF4FA8
:1010900080E090E0A0E0BFE380839183A283B383EC
:1010A00015C080E013C00130110509F4BBCD02303A
:1010B000110509F4B4CD13CE8F818B3C09F0C7CE56
:1010C00076CE8F818B3C09F0C2CE9ACEDF91CF9144
:1010D0001F910F91FF90EF90BF90AF909F908F90D6
:1010E0000895CF92DF92EF92FF920F931F93CF93C9
:1010F000DF93EC01CB018A0164E670E00E940829CD
:101100008530910519F418821F8251C186309105EE
:1011100019F418821F824BC18F3F2FEF920729F4D9
:101120001B821C821D821E8242C12F81243D59F4E4
:10113000009709F03EC181E088839DE09F83C856F7
:10114000DF4F888334C1009739F418821F82C85654
:10115000DF4F81E088832BC18130910531F08230EF
:10116000910531F42F5F2F839FC021502F839CC0A6
:101170003EE2320F323008F097C08330910529F0FB
:101180008430910509F44BC08FC0223DE9F4780109
:101190008AEDE80EF11C2AE037ED43E25CE36B8157
:1011A0007C818D819E810E94EE2D9B01AC01F70117
:1011B00060817181828193810E94ED2DF7016083AE
:1011C0007183828393831CC07801FEEDEF0EF11CC6
:1011D0002AE037ED43E25CE36B817C818D819E8167
:1011E0000E94EE2D9B01AC01F7016081718182812B
:1011F00093810E94ED2DF701608371838283938335
:101200008CEE91E5A8EBBDE38B839C83AD83BE831D
:101210002F818CE2820F823008F056C050C0223DF0
:10122000D9F47801FAEDEF0EF11C2AE037ED43E234
:101230005CE36B817C818D819E810E94EE2DF701A4
:1012400020813181428153810E94EE2DF70160831C
:101250007183828393831AC07801FEEDEF0EF11C37
:101260002AE037ED43E25CE36B817C818D819E81D6
:101270000E94EE2DF70120813181428153810E942D
:10128000EE2DF70160837183828393838CEE91E569
:10129000A8EBBDE38B839C83AD83BE832F818CE25F
:1012A000820F823088F40EC02F813CE2320F323040
:1012B00058F48330910519F0049731F403C021509C
:1012C0002F8302C02F5F2F838F81833D18F482ED1F
:1012D0008F8304C0853D10F085ED8F8320E030E0E2
:1012E000A901F801E652FF4F6081718182819381EB
:1012F0000E945A2E18163CF0F801E652FF4F108259
:1013000011821282138220E030E040EA50E4F801BA
:10131000E252FF4F60817181828193810E94B92FD7
:1013200088235CF080E090E0A0EAB0E4F801E252AB
:10133000FF4F80839183A283B3838F81823D19F015
:10134000833DD9F033C0F801E252FF4FC080D18015
:10135000E280F380A70196013497608171818281D8
:1013600093810E94B92F88230CF1F801E652FF4FB8
:10137000C082D182E282F38219C0F801E652FF4FA7
:10138000C080D180E280F380A7019601349660810D
:101390007181828193810E945A2E18163CF0F801C7
:1013A000E252FF4FC082D182E282F3820BC080E022
:1013B00009C08130910509F4D8CE8230910509F435
:1013C000D1CE72CFDF91CF911F910F91FF90EF900F
:1013D000DF90CF9008958F929F92AF92BF92EF923D
:1013E000FF920F931F93CF93DF93EC01CB017A0110
:1013F00064E670E00E9408298C018530910519F49B
:1014000018821F824CC1069719F418821F8247C1A7
:101410000F3F8FEF180729F41B821C821D821E824A
:101420003EC18F818F3D61F40115110509F039C16D
:1014300081E088839EE09F83C856DF4F88832FC159
:101440000115110539F418821F82C856DF4F81E05B
:10145000888325C10130110531F00230110531F4C6
:101460008F5F8F831CC081508F8319C08E3DB9F46C
:101470000330110521F00430110549F010C0C701F7
:101480000E945B148F818C3D09F014C114C0C70108
:101490000E945B148F818C3D09F011C135C08F8192
:1014A0008C3D09F058C00330110529F004301105B6
:1014B00009F051C029C05701E2EEAE0EB11C20E088
:1014C00030E040E85FE36B817C818D819E810E94EA
:1014D000EE2D9B01AC01F5016081718182819381C8
:1014E0000E94ED2DF501608371838283938380E0F8
:1014F00090E0A0E1B1E48B839C83AD83BE838F81B8
:101500008D3D09F080C033C05701F2EEAF0EB11C23
:1015100020E030E040E85FE36B817C818D819E813B
:101520000E94EE2DF50120813181428153810E947C
:10153000EE2DF501608371838283938380E090E0D8
:10154000A0E1B1E48B839C83AD83BE838F818D3D0D
:1015500009F059C033C08F818D3D09F054C003306C
:10156000110529F00430110509F04DC027C087018D
:101570000A511F4F2AE037ED43E25CE36B817C8127
:101580008D819E810E94EE2D9B01AC01F80160814E
:101590007181828193810E94ED2DF80160837183B6
:1015A000828393838CEE91E5A8EBBDE38B839C83D0
:1015B000AD83BE838F818F3DA8F12FC087010A5173
:1015C0001F4F2AE037ED43E25CE36B817C818D8124
:1015D0009E810E94EE2DF80120813181428153814C
:1015E0000E94EE2DF80160837183828393838CEED9
:1015F00091E5A8EBBDE38B839C83AD83BE838F8194
:101600008F3D70F40FC08F818F3D60F00330110566
:1016100021F00430110531F403C081508F8302C0E2
:101620008F5F8F838F818D3D18F48CED8F8304C085
:10163000803E10F080EE8F83F701EE51FF4F8080E7
:101640009180A280B38020E030E040EA50E4C50100
:10165000B4010E945A2E181664F0F701EE51FF4FA4
:1016600080E090E0A0EAB0E480839183A283B3831A
:1016700015C020E030EC49E754E4C501B4010E94F4
:10168000B92F88235CF0F701EE51FF4F80E090EC1A
:10169000A9E7B4E480839183A283B38315C080E07B
:1016A00013C00130110509F4DECE0230110509F432
:1016B000D7CEF5CE8F818D3D09F0A5CF58CF8F8144
:1016C0008D3D09F0A0CF7ACFDF91CF911F910F917F
:1016D000FF90EF90BF90AF909F908F9008950F93E1
:1016E0001F93CF93DF93EC01CB018A0164E670E096
:1016F0000E9408298530910519F418821F8273C051
:101700008630910519F418821F826DC08F3F2FEF2C
:10171000920709F468C0009739F42F81263E79F4C6
:10172000C8010E9463145FC08430910509F061C054
:101730002F81263E01F5C8010E94631454C02F81F9
:101740002B3E09F052C081E088838FE08F834BC02D
:1017500018821F82C856DF4F81E0888344C08130E1
:10176000910531F08230910531F42F5F2F8330C025
:1017700021502F8315C08430910531F48F818B3E29
:1017800029F58CEE8F832FC08330910531F48F8142
:101790008C3EB9F48BEE8F8326C08130910531F4F5
:1017A0008F818C3EA9F48BEE8F831DC08330910511
:1017B00041F08430910551F0892B51F487E0888302
:1017C00007C081E088838FE08F830DC087E0888326
:1017D0008F81873E18F486EE8F8304C08C3E10F014
:1017E0008CEE8F8310C080E00EC02C3E09F0B7CF86
:1017F000AFCF2F818130910509F4BACF82309105A6
:1018000009F4B3CFC1CFDF91CF911F910F9108950C
:10181000CF93DF93EC01CB0164E670E00E940829CE
:101820009C01255031092230310528F0019619F02C
:1018300086E0888301C080E0DF91CF9108950F9307
:101840001F93CF93DF93EC01CB018A0164E670E034
:101850000E9408298530910519F418821F827DC0E5
:101860008630910519F418821F8277C08F3F2FEFC1
:10187000920709F472C02F81213F51F4009761F55E
:1018800081E088839CE09F83C856DF4F888365C0D2
:10189000009739F418821F82C856DF4F81E0888391
:1018A0005CC0203FC9F48330910521F0843091055C
:1018B00051F012C0F801E251FF4F808181508083C6
:1018C0000E949F1921C0F801E251FF4F80818F5F74
:1018D00080830E949F190FC08130910531F08230C2
:1018E000910531F42F5F2F831DC021502F8314C029
:1018F0008430910531F48F81813FA1F482EF8F8391
:101900002CC08330910531F48F81823F59F481EFEF
:101910008F8323C0019731F48F81823F19F481EFC7
:101920008F831BC08F81813F18F480EF8F8304C0A9
:10193000823F10F082EF8F83F801E251FF4F8081E8
:10194000873B18F486EB808307C0893C28F0F801B8
:10195000E251FF4F89EC808301C080E0DF91CF919D
:101960001F910F9108950F931F93CF93DF93EC0175
:101970008B018F81823069F018F4813031F019C009
:10198000833061F0843081F014C0CB010E940B2DB4
:1019900010C0CB01C2960E940B2D0BC0CB018C59FD
:1019A0009F4F0E940B2D05C0CB018A569F4F0E946E
:1019B0000B2DFE01E456FF4F808181110DC0C8013F
:1019C0000E94E810882341F088E08883C656DF4FE4
:1019D00081E090E099838883DF91CF911F910F91EF
:1019E0000895FC01EA56FF4F21E02083FC01278186
:1019F000253041F0263061F0243079F4E756FF4F6E
:101A000010820BC021E0FC01E756FF4F208305C088
:101A100022E0FC01E756FF4F208328E0FC012083F1
:101A2000E656FF4F118210820895DC011196ED9168
:101A3000FC911297EE0FFF1FEE0FFF1FE851FF4FB3
:101A400065917591859194910895FC01DC01A956E9
:101A5000BF4F81E08C938781893039F08A3059F00B
:101A6000883071F412961C920BC081E0DF01A756FA
:101A7000BF4F8C9305C082E0DF01A756BF4F8C9308
:101A800082E08083178208950F931F93CF93DF9393
:101A9000EC018B01CA010E94EB1364E670E0C801FF
:101AA0000E9408298530910521F418821F8280E068
:101AB0006CC08630910521F418821F8280E065C0D9
:101AC0008F3F2FEF920709F45FC02F8130E0A9010B
:101AD000440F551F440F551F240F351F2C0F3D1F5A
:101AE000F901E80FF91F22A9822F90E0FC01E756C7
:101AF000F109EC30F10508F044C0EC5CFF4F0C94A8
:101B00003F3018821F8281E040C0CE010E94F10C5C
:101B100081E03BC0CE010E94F10C81E036C0CE01D5
:101B20000E94F10C81E031C0CE010E94250D81E0C0
:101B30002CC0CE010E94250D81E027C0CE010E945D
:101B4000250D81E022C083E0888388EC8F8381E0CB
:101B50001CC084E0888382ED8F8381E016C085E01D
:101B600088838CED8F8381E010C086E0888386EEC9
:101B70008F8381E00AC089E0888380EF8F8381E0D2
:101B800004C02F8381E001C080E0DF91CF911F91DD
:101B90000F910895CF93DF93EC01CB0164E670E0E1
:101BA0000E940829019611F480E005C01882C456ED
:101BB000DF4F81E08883DF91CF9108950F931F93CA
:101BC000CF93DF938C01CB01EA0164E670E00E94C1
:101BD0000829019611F480E008C0C451DF4F188233
:101BE00086E0F801808386EE8783DF91CF911F9195
:101BF0000F910895FC01E656FF4F2081318122307C
:101C0000310529F13CF42115310581F021303105F0
:101C1000D9F00895203941E0340749F12139E1E054
:101C20003E07A1F123303105E9F514C0FFEF2DE3A4
:101C300039E4F15020403040E1F700C0000021E0DD
:101C4000FC012083278308950E94CA0D08950E94F5
:101C5000DE0D0895FFEF2DE339E4F15020403040D0
:101C6000E1F700C00000FC01108217820895FFEF29
:101C70002DE339E4F15020403040E1F700C000008E
:101C800024E0FC01208322ED27830895FFEF2DE35C
:101C900039E4F15020403040E1F700C00000FC0181
:101CA000108217820895EF92FF920F931F93CF93A4
:101CB000DF93FB01E651FF4F2081222359F028E0FA
:101CC000FC012083E656FF4F21E931E03183208378
:101CD00080E035C08A017B01EC01FC01E456FF4F36
:101CE000808181110EC0CB010E94E810882349F049
:101CF00088E0888381E090E0FE01E656FF4F918303
:101D00008083C7010E944D14C7010E94D014811125
:101D100008C088E08883C656DF4F83E090E099834F
:101D200088830530110521F00630110529F007C020
:101D3000C7010E94BE1503C0C7010E941615DF919E
:101D4000CF911F910F91FF90EF900895EF92FF9226
:101D50000F931F93CF93DF93EC017B018A01CA019C
:101D60000E94EB1364E670E0C7010E940829AC01F1
:101D70000597029730F4B801CE010E94530E80E01F
:101D800039C04F3F8FEF5807A1F19F81292F30E0D5
:101D9000C901880F991F280F391F220F331F2C0FDD
:101DA0003D1FF901E40FF51F80858536A1F018F479
:101DB000843631F01BC08636A9F0823739F016C060
:101DC000B801CE010E94B30C81E014C0C8010E948A
:101DD000A41481E00FC082E08883C8010E94BC1077
:101DE00081E008C081E088831F8204C08F8381E086
:101DF00001C080E0DF91CF911F910F91FF90EF9094
:101E00000895CF92DF92EF92FF920F931F93CF939B
:101E1000DF93EC016B018A01CA010E94EB13F80108
:101E2000E651FF4F8081882349F088E08883C656B9
:101E3000DF4F81E991E09983888367C064E670E0B1
:101E4000C6010E9408297C010597029730F4A7017A
:101E5000B801CE010E94530E58C08FEFE816F80665
:101E600009F453C0C8010E94D014811109C088E050
:101E7000888383E090E0FE01E656FF4F91838083E4
:101E800082E0E816F104E9F03CF4E114F10469F0B1
:101E9000EA94EF2861F02AC083E0E816F104D9F053
:101EA00084E0E816F104E9F021C018821FC0CE01D9
:101EB0000E94150DAB01BC019601C8010E949C183F
:101EC00015C0CE010E94150DAB01BC019601C801E1
:101ED0000E94D1180BC089819A8101979A838983C6
:101EE00005C089819A8101969A83898389819A8123
:101EF000181619061CF01A82198206C0439724F09E
:101F000083E190E09A83898301C080E0DF91CF91E3
:101F10001F910F91FF90EF90DF90CF9008950F9356
:101F20001F93DC01EC910E2F10E00A30110510F523
:101F3000F801E05CFF4F0C943F300E94A60E1AC0DF
:101F40000E94440D17C00E94010F14C00E94CA05D0
:101F500011C00E9471080EC00E94EB090BC00E94C4
:101F60006F0B08C00E94080C05C00E941F0C02C025
:101F70000E94FA0D1F910F9108950895FC0160834E
:101F80004183528384EF91E0968385836334A1F08B
:101F9000643411F1623479F524B181E090E002C03B
:101FA000880F991F4A95E2F7982F9095922394B93C
:101FB00095B1892B85B9089527B181E090E002C0E1
:101FC000880F991F4A95E2F7982F9095922397B919
:101FD00098B1892B88B908952AB181E090E002C0B8
:101FE000880F991F4A95E2F7982F909592239AB9F6
:101FF0009BB1892B8BB90895FC01772374F1808103
:10200000833479F08434B9F0823409F06AC083B142
:1020100090E0018002C0959587950A94E2F781705F
:1020200013C086B190E0018002C0959587950A940F
:10203000E2F7817009C089B190E0018002C09595F6
:1020400087950A94E2F78170882309F44EC080E2F4
:1020500093E09683858380E00895148213828581BE
:1020600096811816190634F036C0258136818217FC
:1020700093078CF58081833471F08434B1F082341D
:1020800091F523B130E0018002C0359527950A947F
:10209000E2F7217013C026B130E0018002C035950F
:1020A00027950A94E2F7217009C029B130E0018038
:1020B00002C0359527950A94E2F721708FE99FE0D9
:1020C0000197F1F700C00000838194810196948309
:1020D0008383222351F284E690E09683858381E016
:1020E000089580E0089580E0089514821382B7CFA8
:1020F000CF93DF93EC010E94DB2ACE01C2960E94AF
:10210000DB2ACE018C599F4F0E94DB2ACE018A56D2
:102110009F4F0E94DB2ACE0188539F4F0E94E329E4
:10212000DF91CF910895CF93DF93EC0161E070E0F0
:102130000E94EE2A62E070E0CE01C2960E94EE2A72
:1021400063E070E0CE018C599F4F0E94EE2A64E05C
:1021500070E0CE018A569F4F0E94EE2ACE0188532E
:102160009F4F0E94E429C45FDE4F81E090E0998395
:102170008883DF91CF910895CF93DF93EC010E9484
:10218000192BCE01C2960E94192BCE018C599F4F5C
:102190000E94192BCE018A569F4F0E94192BDF9166
:1021A000CF910895CF93DF93EC010E94B22CCE0122
:1021B000C2960E94B22CCE018C599F4F0E94B22C25
:1021C000CE018A569F4F0E94B22CDF91CF91089585
:1021D000CF93DF93EC010E94722D811112C0CE01CA
:1021E000C2960E94722D81110CC0CE018C599F4F56
:1021F0000E94722D811105C0CE018A569F4F0E9408
:10220000722DDF91CF910895CF93DF93FC01DC0114
:10221000A252BF4F8D919D910D90BC91A02D8683B0
:102220009783A087B18780AF91AFA2AFB3AFEF0123
:10223000C659DF4F88839983AA83BB83E29688833C
:102240009983AA83BB83DF01A652BF4F8D919D91D5
:102250000D90BC91A02D82879387A487B58784AF0A
:1022600095AFA6AFB7AFAE9788839983AA83BB8398
:10227000E056FF4F80839183A283B383DF91CF9198
:102280000895CF93DF93EC010E94802CCE01C2967B
:102290000E94802CCE018C599F4F0E94802CCE0131
:1022A0008A569F4F0E94802CDF91CF910895CF9343
:1022B000DF93FC01ED50FF4FDC0197962D913C918F
:1022C000989731832083AB50BF4FEC01C75ADF4F43
:1022D0002881398111963C932E931296E29628819B
:1022E000398111963C932E931296E296288139817A
:1022F0002D933C93DF01AC0145505F4F619171918B
:102300001616170624F0E417F507C1F727C0611564
:10231000710539F12D913D911216130624F42617FB
:1023200037070CF4B901A417B507A1F7633371059A
:1023300014F062E370E0EC01072E000C880B990B9F
:102340000E94092FC653DF4F288139814A815B8162
:102350000E94BE2F0E94D12ECB0105C080E090E0EC
:1023600002C080E090E0DF91CF910895CF92DF929C
:10237000EF92FF920F931F93CF93DF93CDB7DEB70A
:102380008B859C858230910571F01CF4019739F0A2
:102390001DC08330910571F00497A1F017C0CC24C3
:1023A000C394D12C13C0CC24C3940F2EFBE0DF2E9A
:1023B000F02D0CC06894CC24C2F80F2EFBE0DF2E69
:1023C000F02D04C06894CC24C2F8D12CCE010B9619
:1023D0000E94DF2A8B019C016894EE24E1F8F12C25
:1023E00041E06C2D8D2D0E94EE1B0E94D919DF91CA
:1023F000CF911F910F91FF90EF90DF90CF900895B4
:102400002F923F924F925F926F927F928F929F9204
:10241000AF92BF92CF92DF92EF92FF920F931F93F2
:10242000CF93DF93EC018C010A521F4FF8014081DA
:102430005181628173810E943D2BFE01E450FF4F68
:1024400080838DB79EB7C2970FB6F8949EBF0FBE1C
:102450008DBFADB7BEB7119682E3FE0101900D921C
:102460008A95E1F7CE010E94B6113E0192E3690E12
:10247000711CEDB7FEB7F2960FB6F894FEBF0FBE13
:10248000EDBFF8014081518162817381C3010E94D7
:102490003D2BFE01E350FF4F80838DB79EB7C2975F
:1024A0000FB6F8949EBF0FBE8DBFADB7BEB71196E5
:1024B00082E3F30101900D928A95E1F7CE010E942B
:1024C000B6114E0194E6890E911CEDB7FEB7F29657
:1024D0000FB6F894FEBF0FBEEDBFF80140815181E9
:1024E00062817381C4010E943D2BFE01E250FF4FC7
:1024F00080838DB79EB7C2970FB6F8949EBF0FBE6C
:102500008DBFADB7BEB7119682E3F40101900D9275
:102510008A95E1F7CE010E94B6112E0196E9490E87
:10252000511CEDB7FEB7F2960FB6F894FEBF0FBE82
:10253000EDBFF8014081518162817381C2010E9427
:102540003D2BFE01E150FF4F80838DB79EB7C297B0
:102550000FB6F8949EBF0FBE8DBFADB7BEB7119634
:1025600082E3F20101900D928A95E1F7CE010E947B
:10257000B611EDB7FEB7F2960FB6F894FEBF0FBED8
:10258000EDBFCE010E9457114F970CF494C0FE018D
:10259000E150FF4FA080B12C3197C080D12C3197F2
:1025A000E080F12C1E01FCEF2F0E311CF1010081A7
:1025B00010E0BE97208131814281538164E170E057
:1025C000CE0188539F4F0E94EC29F101808188231E
:1025D00051F0CE010E943D2CFE01EE5FFE4F90E0D7
:1025E0009183808307C081E090E0FE01EE5FFE4FA3
:1025F00091838083FE01E350FF4F8081882351F057
:10260000C3010E943D2CFE01EC5FFE4F90E09183E0
:10261000808307C081E090E0FE01EC5FFE4F918374
:102620008083FE01E250FF4F8081882351F0C40176
:102630000E943D2CFE01EA5FFE4F90E09183808373
:1026400007C081E090E0FE01EA5FFE4F9183808346
:10265000FE01E150FF4F8081882351F0C2010E94AA
:102660003D2CFE01E85FFE4F90E09183808307C020
:1026700081E090E0FE01E85FFE4F91838083FE01E0
:10268000EE5FFE4F80819181892B79F032968081B7
:102690009181892B51F0329680819181892B29F08B
:1026A000329680819181892B41F4C451DF4F81E0C2
:1026B000888380E003C081E001C081E0DF91CF9199
:1026C0001F910F91FF90EF90DF90CF90BF90AF9050
:1026D0009F908F907F906F905F904F903F902F9042
:1026E00008950F931F93CF93DF93EC018C010A5150
:1026F0001F4FF80140815181628173810E94BE2C7D
:10270000F8014081518162817381CE01C2960E949D
:10271000BE2CF8014081518162817381CE018C59B8
:102720009F4F0E94BE2CF8014081518162817381CC
:10273000CE018A569F4F0E94BE2CFE01EC5AFF4FDD
:102740009AA18081892BF2969081892B21F4F296AF
:102750008081882391F0FE01E651FF4F8081811135
:102760001CC0359680819181019691838083329639
:10277000118210820B97C4F426C0FE01E651FF4F70
:102780008081882351F035961182108232968081A3
:1027900091810196918380830CC0FE01E151FF4F2E
:1027A000808191810B972CF081E0FE01E651FF4F73
:1027B0008083FE01EF50FF4F808191818536910526
:1027C00014F037971082C651DF4F8881DF91CF9187
:1027D0001F910F910895CF93DF93EC010E94711325
:1027E000FE01E551FF4F8081882309F453C03197E2
:1027F0008081882309F44EC038976081718182817D
:1028000093810E94D12ECE010E94642C882329F04E
:1028100081E0FE01E451FF4F8083FE01EE51FF4F46
:1028200060817181828193810E94D12ECE01C296F6
:102830000E94642C882329F081E0FE01E451FF4FBF
:102840008083FE01EE51FF4F60817181828193810F
:102850000E94D12ECE018C599F4F0E94642C882358
:1028600029F081E0FE01E451FF4F8083FE01EE512B
:10287000FF4F60817181828193810E94D12ECE01B0
:102880008A569F4F0E94642C882321F0C451DF4F49
:1028900081E08883DF91CF910895FC0116A215A2F3
:1028A000E95AFF4F11821082F29611821082F2963D
:1028B000118210820895FC01E551FF4F808191E063
:1028C000982790830895FC0110A214A213A2EE5A37
:1028D000FF4F1082339611821082BF96108233967A
:1028E00011821082BF961082339611821082089551
:1028F000FC0120A1211102C021E0278FFC01EE5A2A
:10290000FF4F2081211103C021E031972083FC017A
:10291000EC57FF4F2081211103C021E03197208324
:10292000FC01EA54FF4F2081211103C0319721E0BF
:1029300020830895FC01178EEF5AFF4F1082F29604
:102940001082F29610820895CF93DF93EC010E94DB
:10295000772D8823F9F0CE01C2960E94772D882327
:10296000C9F0CE018C599F4F0E94772D882391F09A
:10297000CE018A569F4F0E94772D882359F01F8ED3
:10298000FE01EF5AFF4F1082F2961082CB54DF4FB8
:10299000188203C0CE010E947814DF91CF91089570
:1029A000FC01878D81110DC0DF01AF5ABF4F8C91A3
:1029B000811107C0D2968C91811103C0EB54FF4F57
:1029C00080810895CF93DF93EC010E947D2DCE018D
:1029D000C2960E947D2DCE018C599F4F0E947D2D65
:1029E000CE018A569F4F0E947D2D8A8981110EC08B
:1029F000FE01EC5BFF4F8081811108C0F29680815F
:102A0000811104C0F2968081882369F01A8AFE0140
:102A1000EC5BFF4F1082F2961082F2961082C35147
:102A2000DF4F81E08883DF91CF910895AF92BF920D
:102A3000CF92DF92EF92FF920F931F93CF93DF938A
:102A4000EC018F8D882331F082E0FE01E450FF4FCE
:102A5000808304C0FE01E450FF4F1082FE01EF5A54
:102A6000FF4F8081882329F082E0E455FF4F808367
:102A700004C0FE01E350FF4F1082FE01ED57FF4FEF
:102A80008081882329F082E0E558FF4F808304C0CD
:102A9000FE01E250FF4F1082FE01EB54FF4F808198
:102AA000882329F082E0E65BFF4F808304C0FE01AB
:102AB000E150FF4F1082CE010E94E21481111CC030
:102AC000FE01E150FF4FE080F12C3197008110E0D2
:102AD0003197A080B12C3197C080D12CBA976081FA
:102AE0007181828193810E94D12E9501A601CE0130
:102AF00088539F4F0E94772ACE010E94D210DF9107
:102B0000CF911F910F91FF90EF90DF90CF90BF90EA
:102B1000AF900895CF93DF93EC010E94B52DCE01C5
:102B2000C2960E94B52DCE018C599F4F0E94B52DA3
:102B3000CE018A569F4F0E94B52D8A8981110EC001
:102B4000FE01EC5BFF4F8081811108C0F29680810D
:102B5000811104C0F2968081882369F01A8AFE01EF
:102B6000EC5BFF4F1082F2961082F2961082C351F6
:102B7000DF4F81E08883DF91CF910895AF92BF92BC
:102B8000CF92DF92EF92FF920F931F93CF93DF9339
:102B9000EC018F8D882331F081E0FE01E450FF4F7E
:102BA000808304C0FE01E450FF4F1082FE01EF5A03
:102BB000FF4F8081882329F081E0E455FF4F808317
:102BC00004C0FE01E350FF4F1082FE01ED57FF4F9E
:102BD0008081882329F081E0E558FF4F808304C07D
:102BE000FE01E250FF4F1082FE01EB54FF4F808147
:102BF000882329F081E0E65BFF4F808304C0FE015B
:102C0000E150FF4F1082CE010E948A1581111CC035
:102C1000FE01E150FF4FE080F12C3197008110E080
:102C20003197A080B12C3197C080D12CBA976081A8
:102C30007181828193810E94D12E9501A601CE01DE
:102C400088539F4F0E94772ACE010E94D210DF91B5
:102C5000CF911F910F91FF90EF90DF90CF90BF9099
:102C6000AF900895CB0164E170E00E942B3006978D
:102C7000ECF062E086E00E943F1A86E90E945A1A50
:102C800062E087E00E943F1A87E90E945A1A63E0D7
:102C900086E00E943F1A88E90E945A1A63E087E0A2
:102CA0000E943F1A89E90E945A1A089562E086E05C
:102CB0000E943F1A82E90E945A1A62E087E00E944D
:102CC0003F1A83E90E945A1A63E086E00E943F1A85
:102CD00084E90E945A1A63E087E00E943F1A85E95E
:102CE0000E945A1A08952F923F924F925F926F92CC
:102CF0007F928F929F92AF92BF92CF92DF92EF928C
:102D0000FF920F931F93CF93DF93CDB7DEB76A97F0
:102D10000FB6F894DEBF0FBECDBF9A8F898F7C8B24
:102D20006B8B0E944111E98DFA8DE65FFE4F81E0C9
:102D300090E0918380836AE070E08B899C890E9497
:102D4000082998878F83898D9A8D0E940012882385
:102D500009F4D9C1812C912C298D3A8D265F3E4FE3
:102D60003A872987898D9A8DC2969A838983E98DBE
:102D7000FA8DEC59FF4FFC83EB83298D3A8D2A564F
:102D80003F4F3E832D83298C3A8C36ED230E311C28
:102D9000898D9A8D84509F4F9C878B87E98DFA8D02
:102DA000E350FF4FFE87ED87298D3A8D22503F4F2C
:102DB000388B2F87898D9A8D81509F4F9A8B898B65
:102DC000E98DFA8DE253FF4FFE8BED8B298D3A8D05
:102DD00028533F4F388F2F8BE985FA858081918169
:102DE000181619060CF027C1F4EF8F16F1E09F06B4
:102DF00009F428C12F8138852F3F3F4F09F083C147
:102E00006AE070E08B899C890E94082998878F83EB
:102E1000898D9A8D0E942B2B89819A810E942B2B60
:102E20008B819C810E942B2B8D819E810E942B2B5C
:102E3000B401898D9A8D0E943216F1014081518131
:102E400062817381898D9A8D0E943D2BEB85FC8573
:102E500080832DB73EB7225331090FB6F8943EBF99
:102E60000FBE2DBFADB7BEB7119682E3E98DFA8DC7
:102E700001900D928A95E1F7898D9A8D0E94B61185
:102E80000FB6F894DEBF0FBECDBFF1014081518176
:102E90006281738189819A810E943D2BED85FE8537
:102EA00080832DB73EB7225331090FB6F8943EBF49
:102EB0000FBE2DBFADB7BEB7119682E3E981FA818F
:102EC00001900D928A95E1F7898D9A8D0E94B61135
:102ED0000FB6F894DEBF0FBECDBFF1014081518126
:102EE000628173818B819C810E943D2BEF85F889E3
:102EF00080832DB73EB7225331090FB6F8943EBFF9
:102F00000FBE2DBFADB7BEB7119682E3EB81FC813A
:102F100001900D928A95E1F7898D9A8D0E94B611E4
:102F20000FB6F894DEBF0FBECDBFF10140815181D5
:102F3000628173818D819E810E943D2BE989FA898E
:102F400080832DB73EB7225331090FB6F8943EBFA8
:102F50000FBE2DBFADB7BEB7119682E3ED81FE81E6
:102F600001900D928A95E1F7898D9A8D0E94B61194
:102F7000EB85FC85008110E0ED85FE85E080F12C7D
:102F8000EF85F889C080D12CE989FA89A080B12C1D
:102F9000C8018E0D9F1D8C0D9D1D8A0D9B1DE98501
:102FA000FA8591838083ED89FE894080518062801B
:102FB00073800FB6F894DEBF0FBECDBF898D9A8D9A
:102FC0000E945711A3019201BC018F89988D0E9424
:102FD000EC29898D9A8D0E94062C89819A810E9404
:102FE000062C8B819C810E94062C8D819E810E94E3
:102FF000062C3FEF831A930A84E68816910451F059
:1030000098EC8916910431F0ECE28E16E1E09E0610
:1030100009F0E2CE898D9A8D0E94392C89819A819E
:103020000E94392C8B819C810E94392C8D819E813C
:103030000E94392CD1CE34EF831631E093060CF484
:1030400062C000C0E98DFA8DE450FF4F8081882373
:1030500059F081E0E98DFA8D80A322E030E034A3BD
:1030600023A3E451FF4F8083E98DFA8DE350FF4F96
:103070008081882399F081E0E98DFA8DEE5AFF4F27
:10308000808322E030E0E98DFA8DEB5AFF4F3183E7
:103090002083E98DFA8DE451FF4F8083E98DFA8D0D
:1030A000E250FF4F8081882399F081E0E98DFA8D0D
:1030B000EC57FF4F808322E030E0E98DFA8DE9572D
:1030C000FF4F31832083E98DFA8DE451FF4F8083D8
:1030D000E98DFA8DE150FF4F80818823A1F0E98DC1
:1030E000FA8DEA54FF4F81E08083E98DFA8DE75431
:1030F000FF4F22E030E031832083298D3A8D245127
:103100003F4FF90180836A960FB6F894DEBF0FBE79
:10311000CDBFDF91CF911F910F91FF90EF90DF9086
:10312000CF90BF90AF909F908F907F906F905F9067
:103130004F903F902F900895CF92DF92EF92FF92A1
:103140000F931F93CF93DF93EC016A017B018901F9
:103150000E94112DB701A601CE01C2960E94112D29
:10316000B701A601CE018C599F4F0E94112DB701C6
:10317000A601CE018A569F4F0E94112DB801CE01A3
:103180000E947316CE010E948A15CE010E94D210B1
:10319000DF91CF911F910F91FF90EF90DF90CF9033
:1031A0000895CF92DF92EF92FF920F931F93CF93E8
:1031B000DF93EC016A017B0189010E94412DB70177
:1031C000A601CE01C2960E94412DB701A601CE01F3
:1031D0008C599F4F0E94412DB701A601CE018A56FE
:1031E0009F4F0E94412DB801CE010E947316CE015F
:1031F0000E94E214CE010E94D210DF91CF911F9164
:103200000F91FF90EF90DF90CF9008952A98613052
:1032100011F4299A01C029988EBD0DB407FEFDCF87
:103220002A9A0895CF92DF92EF92FF920F931F9305
:10323000CF93DF936B017C01EA01CA0101972097CC
:1032400081F061E070E09B01220F331F660F771F52
:10325000660F771F660F771F620F731F019798F72E
:1032600002C061E070E0072E000C880B990B0E94F1
:10327000092FA70196010E94BE2F0E94D12EAB01FB
:10328000BC01CA0199231CF021E030E002C02FEFFD
:103290003FEF249FC001259F900D349F900D112476
:1032A0000FEB13E00F2EFAE0EF2EF12CF02D0F2E86
:1032B000FEE2DF2EF02D02C08F01EA01F801B70116
:1032C0000E942B30805D8293862F972FAE01415054
:1032D000510919F4F8013297D082009769F7141652
:1032E0001506D4F4BE0162507109DF0140E3219755
:1032F000CE1BDF0B4E93CD018C0F9D1F18161906A8
:10330000CCF3CB01992314F480E090E08095909564
:10331000E80FF91F8EE2829380818E3211F480E3F0
:103320008293332314F48DE28293CF01DF91CF9106
:103330001F910F91FF90EF90DF90CF900895CF9362
:10334000C82F2C9A84B18E6384B92C982C9A80E56E
:103350008CBD2A9A60E081E20E94061960E08C2F01
:103360000E94061960E086E00E94061960E083E191
:103370000E94061960E080E20E94061960E08CE07D
:103380000E940619CF91089588EF91E0E6ECF3E0F2
:10339000DF019C011D9221503040E1F71092C503DE
:1033A0001092C40387EF91E09093C3038093C2030C
:1033B0000895EF92FF920F931F93CF93DF93809125
:1033C000C4039091C50399232CF41092C503109265
:1033D000C40309C0883F914034F087EF91E0909397
:1033E000C5038093C4038091C2039091C3039923C2
:1033F0002CF41092C3031092C20309C0883F91407D
:1034000034F087EF91E09093C3038093C203C0919F
:10341000C403D091C503CE0164E570E00E942B3057
:10342000162F60E080680E94061960E0812F80649A
:103430000E940619E090C203F090C303EC16FD064B
:103440006CF08E010A531C4F61E0F80181918F01ED
:103450000E9406192196EC16FD06B4F787EF91E05D
:103460009093C5038093C4031092C3031092C203C8
:10347000DF91CF911F910F91FF90EF9008958E30C3
:10348000A8F46630A8F490E09C01220F331F820F4D
:10349000931F880F991F24E5629F800D911D1124B1
:1034A0009093C1038093C00380E0089581E0089564
:1034B00081E008952091C0033091C103805297E0CC
:1034C000899FF0011124E85EFC4FD901AA53BC4F3B
:1034D000A90144535C4F84918D933196A417B5078D
:1034E000D1F72A5F3F4F3093C1032093C0038091EF
:1034F000C2039091C3038217930724F43093C3034C
:103500002093C20380E008954091C0035091C1030D
:1035100090E0FC01EE0FFF1FE80FF91FEE0FFF1FF9
:10352000EE0FFF1FEE0FFF1FE85CFE4FDA01AA53FC
:10353000BC4F9A0122523C4F84918D933196A21731
:10354000B307D1F7485E5F4F5093C1034093C00368
:1035500080E008950F931F93CF93DF934091C003B2
:103560005091C1032091C4033091C5034217530702
:1035700024F45093C5034093C403E0EEE60FE03A11
:1035800008F4A0C0603C08F49CC0E1EEE60F9AC0CD
:103590008491880F8D933196A217B307C9F74B5FBB
:1035A0005F4F5093C1034093C00365C0823009F060
:1035B00062C0CA01845591092091C4033091C503AA
:1035C000821793070CF08EC09093C5038093C403B9
:1035D00089C02491220F822F8270982F990F890F12
:1035E000982F990F822F8470382F330F830F880FF5
:1035F000880F892B022F0870019F002D1124082BA2
:1036000030E035952795359527953595279535954E
:103610002795822F8270382F330F830F880F322F18
:103620003170932F990F390F832B922F9470392F6C
:10363000330F930F990F990F892B922F9870919FA9
:10364000902D1124282F292B088309832C93119660
:103650002C931197319622961296A617B70709F068
:10366000B8CFCA010B9668EF71E00E942B3090939F
:10367000C1038093C0038091C0039091C103209146
:10368000C2033091C3032817390724F49093C3036E
:103690008093C203FC01EA53FC4F1082873F21E074
:1036A000920731F41092C1031092C00382E02DC042
:1036B00001969093C1038093C00380E026C081E00F
:1036C00024C0EFE5813009F071CF87E0E89FF00179
:1036D0001124E85EFC4FDA01AA53BC4F9A0125532E
:1036E0003C4F56CF99235CF327E0E29FF001112471
:1036F000E85EFC4FEA01CE58DC4FDA01AA53BC4F1A
:10370000BA0160537C4F18E164CFDF91CF911F91D4
:103710000F9108950F931F93CF93DF93D42F8901B7
:103720000E943F1AF8016081662379F0C0E08D2F76
:103730000E94AA1A813041F0CF5FF801EC0FF11D11
:1037400060816111F4CF01C061E0862FDF91CF91DC
:103750001F910F910895FF920F931F93CF93DF93C3
:10376000F42E89010E943F1AF8016081662391F0CE
:10377000C0E06E3221F08F2D0E94AA1AD82FD130CE
:1037800041F0CF5FF801EC0FF11D60816111F1CFC5
:1037900001C061E0862FDF91CF911F910F91FF90C3
:1037A0000895DF92EF92FF920F931F93CF93DF93D1
:1037B000C82FD62FD42EA701C901B8010E94121913
:1037C0009C014D2D6D2F8C2F0E948A1BDF91CF9174
:1037D0001F910F91FF90EF90DF900895DF92EF928D
:1037E000FF920F931F93CF93DF93C82FD62FD42E22
:1037F000A701C901B8010E9412199C014D2D6D2F1E
:103800008C2F0E94AB1BDF91CF911F910F91FF90E6
:10381000EF90DF9008958DE596E00E94D3288EE822
:1038200096E00E9493106EE876E08EEB95E00E94A1
:10383000D0048EE590E00E945930813009F44EC0EA
:1038400040E050E060E07FE38AE590E00E94753060
:1038500040E050E068E472E486E590E00E94753054
:1038600040E050E060E271E482E590E00E94753053
:1038700040E050E0BA018EE490E00E9475304DECDB
:103880005CEC6CEC7DE386E490E00E9475304DECDE
:103890005CEC6CE970E482E490E00E94753040E0FA
:1038A00050E068E472E48CE390E00E94753061E0DF
:1038B00080E490E00E9467304FE852EC65EF7CE3D3
:1038C0008AE490E00E9475306FEB81E490E00E9402
:1038D000673061E08EE590E00E9467308AE590E015
:1038E0000E946130609358077093590780935A077C
:1038F00090935B0786E590E00E94613060935C07DF
:1039000070935D0780935E0790935F0782E590E078
:103910000E94613060936007709361078093620733
:10392000909363078EE490E00E9461306093640797
:103930007093650780936607909367078AE490E029
:103940000E946130609374077093750780937607C7
:103950009093770786E490E00E9461306093680757
:103960007093690780936A0790936B0782E490E0F5
:103970000E94613060936C0770936D0780936E07AF
:1039800090936F0781E490E00E94593080937C0708
:103990008EE896E00E9404118CE390E00E94613072
:1039A0006093700770937107809372079093730709
:1039B00080E490E00E94593091E0811101C090E0D4
:1039C0009093790780917C070E949F19089588231E
:1039D00009F470C0409158075091590760915A07F7
:1039E00070915B078AE590E00E94753040915C071A
:1039F00050915D0760915E0770915F0786E590E0EA
:103A00000E94753040916007509161076091620794
:103A10007091630782E590E00E94753040916407E1
:103A20005091650760916607709167078EE490E09A
:103A30000E947530409168075091690760916A074C
:103A400070916B0786E490E00E94753040916C079E
:103A500050916D0760916E0770916F0782E490E05E
:103A60000E94753060917C0781E490E00E9467308D
:103A70008EE896E00E940411409170075091710702
:103A800060917207709173078CE390E00E9475302B
:103A90004091740750917507609176077091770790
:103AA0008AE490E00E9475306091790780E490E0AC
:103AB0000E94673008950F931F93CF93DF93209157
:103AC0005406222399F1EC018EE896E00E94DF2A49
:103AD000AB01BC0184E18C9F80018D9F100D1124EE
:103AE000C8018C5F9F4F0E94753080EC96E00E9469
:103AF000DF2AAB01BC01C801885F9F4F0E9475306F
:103B000082EF96E00E94DF2AAB01BC01C801845F0E
:103B10009F4F0E94753084E297E00E94DF2AAB013C
:103B2000BC01C801805F9F4F0E94753010925406FF
:103B3000DF91CF911F910F9108950F931F93CF9312
:103B4000DF9320915506222309F453C0EC018EE83F
:103B500096E00E9478144EE856E06EEB75E08BE537
:103B600096E00E94382884E18C9F80018D9F100D83
:103B70001124C8018C5F9F4F0E9461306093A90699
:103B80007093AA068093AB069093AC06C801885F39
:103B90009F4F0E9461306093DB067093DC06809338
:103BA000DD069093DE06C801845F9F4F0E9461305E
:103BB00060930D0770930E0780930F079093100783
:103BC000C801805F9F4F0E94613060933F077093F0
:103BD000400780934107909342076DE576E08EE8B9
:103BE00096E00E9473168EE896E00E949A14109256
:103BF000BE0510925506DF91CF911F910F91089548
:103C00000E940B1C07E516E0C6E5D6E04EE856E03C
:103C10006DE576E08EEB95E00E948F0F4EE856E062
:103C20006EEB75E08BE596E00E943828F801808104
:103C300090E00E945B1DF801808190E00E949D1D34
:103C400088810E94E71C18828FE39CE90197F1F7B5
:103C500000C00000DBCF8EE896E00E9478108DE572
:103C600096E00E94B3288BE596E00E943C1E8EEB06
:103C700095E00E94CB0408950895FB01878184306C
:103C800020F520E031E041E060E085E00E948A1B01
:103C900025E031E041E061E082E00E948A1B20E102
:103CA00031E041E062E082E00E948A1B2AE131E0DB
:103CB00041E063E082E00E948A1B24E231E041E0BF
:103CC00064E082E00E948A1B0895883020F520E19C
:103CD00031E041E060E083E00E948A1B20E331E0B4
:103CE00041E061E082E00E948A1B29E331E041E08B
:103CF00062E082E00E948A1B25E431E041E063E05B
:103D000082E00E948A1B24E231E041E064E082E02C
:103D10000E948A1B08958C3020F525E031E041E0B7
:103D200060E083E00E948A1B20E331E041E061E033
:103D300082E00E948A1B22E531E041E062E082E0FD
:103D40000E948A1B25E431E041E063E082E00E94AA
:103D50008A1B24E231E041E064E082E00E948A1B99
:103D600008952AE131E041E060E083E00E948A1B8F
:103D70002EE531E041E061E082E00E948A1B29E605
:103D800031E041E062E082E00E948A1B25E731E0F9
:103D900041E063E082E00E948A1B20E831E041E0DC
:103DA00064E082E00E948A1B27E831E041E065E0A0
:103DB00082E00E948A1B0895CF92DF92EF92FF92D9
:103DC0000F931F93CF93DF936B01EA012EE531E050
:103DD00041E060E082E00E948A1B2FE831E041E090
:103DE00061E080E00E948A1B27E931E041E062E067
:103DF00080E00E948A1B2FE931E041E063E080E02F
:103E00000E948A1B28EA31E041E064E080E00E94E1
:103E10008A1B65E083E00E943F1A8EE90E945A1ACD
:103E20008FE90E945A1A65E088E00E943F1A8DEAE5
:103E30000E945A1A8EEA0E945A1AFE01E653FF4F58
:103E400000811181228133816894EE24E1F8F12C04
:103E500041E061E089E00E94D11BFE01E253FF4F87
:103E600020E030E048EC52E46081718182819381EE
:103E70000E945F2E8B019C0141E062E08AE00E947B
:103E8000EE1BFE01EA52FF4F008111812281338136
:103E900041E063E089E00E94D11BCE52DF4F20E079
:103EA00030E048EC52E4688179818A819B810E94EC
:103EB0005F2E8B019C0141E064E08AE00E94EE1BD2
:103EC000F60187818A3C61F128F4883C59F0893CED
:103ED000C1F053C08C3C09F441C088F18D3C09F419
:103EE00045C04BC061E088E00E943F1A8AE90E9409
:103EF0005A1A61E08DE00E943F1A8BE90E945A1A1B
:103F00003CC062E088E00E943F1A8AE90E945A1A87
:103F100062E08DE00E943F1A8BE90E945A1A2DC080
:103F200063E088E00E943F1A8AE90E945A1A63E01F
:103F30008DE00E943F1A8BE90E945A1A1EC064E06D
:103F400088E00E943F1A8AE90E945A1A64E08DE0D4
:103F50000E943F1A8BE90E945A1A0FC065E082E066
:103F60000E943F1A82EA0E945A1A07C065E087E061
:103F70000E943F1A82EA0E945A1ADF91CF911F9144
:103F80000F91FF90EF90DF90CF900895CF92DF9246
:103F9000EF92FF920F931F93CF93DF936B01EA0190
:103FA00029E631E041E060E082E00E948A1B2CEAD1
:103FB00031E041E062E082E00E948A1BFE01E652AD
:103FC000FF4F00811181228133816894EE24E1F852
:103FD000F12C41E062E088E00E94D11B20EB31E04F
:103FE00041E063E082E00E948A1BC252DF4F0881F9
:103FF00019812A813B8141E063E088E00E94D11B66
:10400000F6018781833DC1F018F4823D31F032C062
:10401000843D09F1853D39F12DC062E087E00E94C1
:104020003F1A8AE90E945A1A62E08CE00E943F1A05
:1040300082EA0E945A1A1EC063E087E00E943F1A7B
:104040008AE90E945A1A63E08CE00E943F1A82EAD1
:104050000E945A1A0FC065E082E00E943F1A82EA6D
:104060000E945A1A07C065E088E00E943F1A82EA5F
:104070000E945A1A65E083E00E943F1A8EE90E946E
:104080005A1A8FE90E945A1A65E089E00E943F1A85
:104090008DEA0E945A1A8EEA0E945A1ADF91CF9135
:1040A0001F910F91FF90EF90DF90CF900895CF92E6
:1040B000DF92EF92FF920F931F93CF93DF936B01E9
:1040C000EA0125E731E041E060E082E00E948A1BDE
:1040D00024EB31E041E061E080E00E948A1B21ECAA
:1040E00031E041E062E080E00E948A1B27EC31E091
:1040F00041E063E080E00E948A1B2DEC31E041E06A
:1041000064E080E00E948A1BFE01EE51FF4F20E038
:1041100030E048EC52E460817181828193810E9499
:104120005F2E8B019C016894EE24E1F8F12C41E0B4
:1041300062E08AE00E94EE1BFE01EA51FF4F00811F
:1041400011812281338141E063E089E00E94D11B2B
:10415000C551DF4F8881813041F026ED31E041E0EB
:1041600064E08AE00E948A1B07C02AED31E041E04A
:1041700064E08AE00E948A1BF60187818E3D59F037
:1041800028F48C3DF9F08D3D71F03AC08F3D49F136
:10419000803E79F135C064E089E00E943F1A82EAEE
:1041A0000E945A1A2DC063E088E00E943F1A8AE9F3
:1041B0000E945A1A63E08DE00E943F1A8BE90E9428
:1041C0005A1A1EC062E088E00E943F1A8AE90E94E3
:1041D0005A1A62E08DE00E943F1A8BE90E945A1A37
:1041E0000FC065E082E00E943F1A82EA0E945A1ADC
:1041F00007C065E088E00E943F1A82EA0E945A1ACE
:1042000065E083E00E943F1A8EE90E945A1A8FE906
:104210000E945A1A65E089E00E943F1A8DEA0E94C6
:104220005A1A8EEA0E945A1ADF91CF911F910F916C
:10423000FF90EF90DF90CF900895CF92DF92EF92B2
:10424000FF920F931F93CF93DF936B01EA012EED43
:1042500031E041E060E082E00E948A1B2BEE31E019
:1042600041E061E082E00E948A1B24EF31E041E0FE
:1042700062E082E00E948A1B2DEF31E041E063E0C2
:1042800082E00E948A1B26E032E041E064E082E0A6
:104290000E948A1B65E083E00E943F1A8EE90E941B
:1042A0005A1A8FE90E945A1A65E089E00E943F1A63
:1042B0008DEA0E945A1A8EEA0E945A1A2FE032E0C2
:1042C00041E061E08BE00E948A1B2FE032E041E098
:1042D00062E08BE00E948A1B2FE032E041E063E065
:1042E0008BE00E948A1B2FE032E041E064E08BE02B
:1042F0000E948A1B8BA19CA118161906C4F422E106
:1043000032E041E061E08BE00E948A1B6BA17CA15E
:10431000072E000C880B990B0E94092F8B019C0122
:10432000E12CF12C41E061E08CE00E94D11BFE0108
:10433000EB5AFF4F8081918118161906DCF422E1B7
:1043400032E041E062E08BE00E948A1BFE01EB5A02
:10435000FF4F60817181072E000C880B990B0E9422
:10436000092F8B019C01E12CF12C41E062E08CE0F3
:104370000E94D11BFE01E957FF4F808191811816E1
:104380001906DCF422E132E041E063E08BE00E94B8
:104390008A1BFE01E957FF4F60817181072E000CD7
:1043A000880B990B0E94092F8B019C01E12CF12CA9
:1043B00041E063E08CE00E94D11BFE01E754FF4F17
:1043C0008081918118161906D4F422E132E041E08F
:1043D00064E08BE00E948A1BC754DF4F68817981BB
:1043E000072E000C880B990B0E94092F8B019C0152
:1043F000E12CF12C41E064E08CE00E94D11BD6015D
:104400001796EC918E2F90E0FC01E65EF109E73003
:10441000F105D8F5E65BFF4F0C943F3060E080E09B
:104420000E943F1A8BE90E945A1A2FC061E080E077
:104430000E943F1A8BE90E945A1A27C062E080E06E
:104440000E943F1A8BE90E945A1A1FC063E080E065
:104450000E943F1A8BE90E945A1A17C064E080E05C
:104460000E943F1A8BE90E945A1A0FC065E082E051
:104470000E943F1A82EA0E945A1A07C065E088E04B
:104480000E943F1A82EA0E945A1ADF91CF911F912F
:104490000F91FF90EF90DF90CF900895CF92DF9231
:1044A000EF92FF920F931F93CF93DF93CDB7DEB7B9
:1044B000CEA4DFA4C114D10441F424E132E041E0F0
:1044C00062E081E00E948A1B39C02FE132E041E0C6
:1044D00061E081E00E948A1BB6010D2C000C880B64
:1044E000990B0E94092F8B019C01E12CF12C41E0DA
:1044F00061E089E00E94D11B82E0C816D10479F006
:1045000083E0C816D10499F0CA94CD28B9F428E202
:1045100032E041E062E080E00E948A1B0FC02CE59F
:1045200032E041E062E080E00E948A1B07C025E89B
:1045300032E041E062E080E00E948A1BDF91CF918F
:104540001F910F91FF90EF90DF90CF9008950F9300
:104550001F93CF93DF938C01EA01FB018781883E93
:1045600079F118F4873E41F09BC0893E09F44DC0B3
:104570008A3E09F470C094C023EB32E041E060E071
:1045800083E00E948A1B8DB79EB7C2970FB6F8943E
:104590009EBF0FBE8DBFADB7BEB7119682E3FE01C1
:1045A00001900D928A95E1F7C8010E944E22EDB765
:1045B000FEB7F2960FB6F894FEBF0FBEEDBF70C007
:1045C0002CEB32E041E060E083E00E948A1B8DB773
:1045D0009EB7C2970FB6F8949EBF0FBE8DBFADB702
:1045E000BEB7119682E3FE01F29601900D928A9574
:1045F000E1F7C8010E944E22EDB7FEB7F2960FB662
:10460000F894FEBF0FBEEDBF4BC025EC32E041E099
:1046100060E083E00E948A1BFE01EC59FF4F8DB7DA
:104620009EB7C2970FB6F8949EBF0FBE8DBFADB7B1
:10463000BEB7119682E301900D928A95E1F7C80109
:104640000E944E22EDB7FEB7F2960FB6F894FEBF69
:104650000FBEEDBF25C02EEC32E041E060E083E00C
:104660000E948A1BFE01EA56FF4F8DB79EB7C29784
:104670000FB6F8949EBF0FBE8DBFADB7BEB71196F3
:1046800082E301900D928A95E1F7C8010E944E22C3
:10469000EDB7FEB7F2960FB6F894FEBF0FBEEDBFB2
:1046A000DF91CF911F910F9108950F931F93CF9397
:1046B000DF938B01EA0127E831E041E060E083E02D
:1046C0000E948A1B27ED32E041E061E080E00E9419
:1046D0008A1B65E083E00E943F1A8EE90E945A1A05
:1046E0008FE90E945A1A65E089E00E943F1A8DEA1C
:1046F0000E945A1A8EEA0E945A1A63E085E00E94CC
:104700003F1AC251DF4F8881865B0E94841AF801EC
:104710008781813F99F0823FC9F0803FF1F463E0E7
:1047200083E00E943F1A8AE90E945A1A63E08AE0F5
:104730000E943F1A8BE90E945A1A0FC065E082E07E
:104740000E943F1A82EA0E945A1A07C065E088E078
:104750000E943F1A82EA0E945A1ADF91CF911F915C
:104760000F91089560E086E00E943F1A8EE90E9452
:104770005A1A60E087E00E943F1A8FE90E945A1A95
:104780000895FB018081823051F065E086E00E944F
:104790003F1A83EA0E945A1A84EA0E945A1A08951C
:1047A000AF92BF92CF92DF92EF92FF920F931F933F
:1047B000CF93DF93CDB7DEB72C970FB6F894DEBF5B
:1047C0000FBECDBF298D3A8D22303105A9F024F4DA
:1047D0002130310541F032C023303105C9F0243099
:1047E000310519F12BC0CC24C394A12C00E00F2E6D
:1047F000F3E0DF2EF02D22C0CC24C3940F2EFBE07B
:10480000AF2EF02D00E00F2EF9E0DF2EF02D16C0B8
:104810006894CC24C2F80F2EFBE0AF2EF02D03E0FD
:104820000F2EF9E0DF2EF02D09C06894CC24C2F8D9
:10483000A12C03E00F2EF3E0DF2EF02D2C962FADF0
:104840002C97222309F47FC0FC01208131812F5F46
:104850003F4F318320832D32F1E03F073CF0FC01D4
:104860001182108289AD811104C01FC089AD8823D7
:10487000C9F08CE890E09A8389838DE890E09C836E
:104880008B838EE890E09E838D838FE890E09887FD
:104890008F8380E990E09A87898781E990E09C87FF
:1048A0008B87ECC024363105CCF48FEA90E09A83F4
:1048B000898380EB90E09C838B8381EB90E09E83E7
:1048C0008D8382EB90E098878F8383EB90E09A87CB
:1048D000898784EB90E09C878B87D0C0283C31058A
:1048E000CCF485EB90E09A83898386EB90E09C83FF
:1048F0008B8387EB90E09E838D8388EB90E0988795
:104900008F8389EB90E09A8789878AEB90E09C8778
:104910008B87B4C08BEB90E09A8389838CEB90E01B
:104920009C838B838DEB90E09E838D838EEB90E058
:1049300098878F838FEB90E09A87898780EC90E04F
:104940009C878B879BC089AD8823A9F188AD88237C
:10495000C9F087EA90E09A83898388EA90E09C8393
:104960008B8389EA90E09E838D838AEA90E0988722
:104970008F838BEA90E09A8789878CEA90E09C8706
:104980008B877CC08CE890E09A8389838DE890E0E7
:104990009C838B838EE890E09E838D838FE890E0EC
:1049A00098878F8380E990E09A87898781E990E0F2
:1049B0009C878B8763C088AD8823C9F080E890E02E
:1049C0009A83898381E890E09C838B8382E890E0DE
:1049D0009E838D8383E890E098878F8384E890E0BE
:1049E0009A87898785E890E09C878B8747C086E80F
:1049F00090E09A83898387E890E09C838B8388E8A2
:104A000090E09E838D8389E890E098878F838AE881
:104A100090E09A8789878BE890E09C878B872EC0EF
:104A2000612F8D2D0E943F1AF70180810E945A1A32
:104A3000612F8B2D0E943F1AF70182810E945A1A22
:104A40001F5FF4E0EF0EF11C1013EACFCE01499680
:104A50000E94DF2A8B019C016894EE24E1F8F12C7E
:104A600041E06C2D8A2D0E94EE1B61E06C0D8A2DB9
:104A70000E943F1A80EA0E945A1A09C0102FCE01E4
:104A800001967C010D5FBB24B394BD0CC9CF2C965D
:104A90000FB6F894DEBF0FBECDBFDF91CF911F914F
:104AA0000F91FF90EF90DF90CF90BF90AF9008955F
:104AB000EF92FF920F931F93CF93DF938C017B01B3
:104AC0008AEEE80EF11CF70180818F938DB79EB7B7
:104AD000C2970FB6F8949EBF0FBE8DBFADB7BEB7DD
:104AE000119682E3FB0101900D928A95E1F7C801CE
:104AF0000E94D023EDB7FEB7F3960FB6F894FEBF31
:104B00000FBEEDBFF70180818F938DB79EB7C2971F
:104B10000FB6F8949EBF0FBE8DBFADB7BEB711964E
:104B200082E3E85BF10901900D928A95E1F7C801F3
:104B30000E94D023EDB7FEB7F3960FB6F894FEBFF0
:104B40000FBEEDBFF70180818F93E658F1098DB755
:104B50009EB7C2970FB6F8949EBF0FBE8DBFADB77C
:104B6000BEB7119682E301900D928A95E1F7C801D4
:104B70000E94D023EDB7FEB7F3960FB6F894FEBFB0
:104B80000FBEEDBFF70180818F93E455F1098DB71A
:104B90009EB7C2970FB6F8949EBF0FBE8DBFADB73C
:104BA000BEB7119682E301900D928A95E1F7C80194
:104BB0000E94D023EDB7FEB7F3960FB6F894FEBF70
:104BC0000FBEEDBFDF91CF911F910F91FF90EF903E
:104BD0000895FB0180818230E9F462E086E00E9462
:104BE0003F1A86E90E945A1A62E087E00E943F1A43
:104BF00087E90E945A1A63E086E00E943F1A88E91A
:104C00000E945A1A63E087E00E943F1A89E90E94D5
:104C10005A1A089562E086E00E943F1A82E90E94D3
:104C20005A1A62E087E00E943F1A83E90E945A1AEA
:104C300063E086E00E943F1A84E90E945A1A63E00A
:104C400087E00E943F1A85E90E945A1A0895DB0105
:104C50001796EC918E2F90E08131910508F08CC071
:104C6000FC01EF5AFF4F0C943F3061E080E00E945E
:104C70003F1A8BE90E945A1A089562E080E00E9470
:104C80003F1A8BE90E945A1A089563E080E00E945F
:104C90003F1A8BE90E945A1A089564E080E00E944E
:104CA0003F1A8BE90E945A1A089561E080E00E9441
:104CB0003F1A8BE90E945A1A089562E080E00E9430
:104CC0003F1A8BE90E945A1A089564E080E00E941E
:104CD0003F1A8BE90E945A1A089563E080E00E940F
:104CE0003F1A8BE90E945A1A089561E080E00E9401
:104CF0003F1A8BE90E945A1A089562E080E00E94F0
:104D00003F1A8BE90E945A1A089563E080E00E94DE
:104D10003F1A8BE90E945A1A089564E080E00E94CD
:104D20003F1A8BE90E945A1A089561E080E00E94C0
:104D30003F1A8BE90E945A1A089562E080E00E94AF
:104D40003F1A8BE90E945A1A089563E080E00E949E
:104D50003F1A8BE90E945A1A089564E080E00E948D
:104D60003F1A8BE90E945A1A089565E080E00E947C
:104D70003F1A8BE90E945A1A08950F931F93CF93FD
:104D8000DF93EC018B010E943D1EB801CE010E9411
:104D90002726DF91CF911F910F910895EF92FF92F7
:104DA0000F931F93CF93DF93FB018081823011F02B
:104DB00080E016C0EB01CB010E94150D8B019C0118
:104DC0006894EE24E1F8F12C41E061E085E00E9476
:104DD000D11B64E085E00E943F1A89810E94841AF9
:104DE000DF91CF911F910F91FF90EF90089561E0B7
:104DF00085E00E943F1A8AE90E945A1A64E085E021
:104E00000E943F1A8AE90E945A1A61E088E00E94D3
:104E10003F1A8BE90E945A1A64E088E00E943F1A08
:104E20008BE90E945A1A08959C01DB019C919230F3
:104E300011F480E00895DB011796EC914E2F50E0BD
:104E40004830510508F049C0C901FA01EE59FF4F39
:104E50000C943F3061E086E00E943F1A8CE90E948A
:104E60005A1A8DE90E945A1A38C061E086E00E9401
:104E70003F1A85EA0E945A1A86EA0E945A1A2DC0E1
:104E800064E086E00E943F1A85EA0E945A1A86EA88
:104E90000E945A1A22C061E085E00E943F1A8AE906
:104EA0000E945A1A1AC064E085E00E943F1A8AE9FB
:104EB0000E945A1A12C061E088E00E943F1A8BE9F2
:104EC0000E945A1A0AC064E088E00E943F1A8BE9E7
:104ED0000E945A1A02C00E94F7260895EF92FF928C
:104EE0000F931F93CF93DF93EC018B017A010E9404
:104EF000B223B801CE010E94C123B701CE010E94A6
:104F00005825B801CE010E94E925B801CE010E94C2
:104F10001427B801CE010E94CE26DF91CF911F91B8
:104F20000F91FF90EF90089525EE32E041E062E0AE
:104F300082E00E948A1B089522EF32E041E060E0A7
:104F400083E00E948A1B2BEF32E041E061E081E0C8
:104F50000E948A1B20E333E041E065E081E00E948B
:104F60008A1B08952BE333E041E060E084E00E9477
:104F70008A1B22E433E041E061E080E00E948A1B6A
:104F80002FE433E041E062E080E00E948A1B2EE5DE
:104F900033E041E063E080E00E948A1B25E633E0D5
:104FA00041E065E082E00E948A1B089520E733E03B
:104FB00041E062E083E00E948A1B29E733E041E0A0
:104FC00063E083E00E948A1B089523E833E041E018
:104FD00062E083E00E948A1B2EE833E041E063E058
:104FE00082E00E948A1B08952AE933E041E061E0F3
:104FF00082E00E948A1B25EA33E041E062E082E021
:105000000E948A1B29EA32E041E063E082E00E94CC
:105010008A1B0895FB01E656FF4F20813181223023
:105020003105D1F03CF42115310581F021303105F5
:1050300081F00895203941E03407A1F0213941E0A1
:10504000340799F02330310591F409C00E94942768
:1050500008950E949C2708950E94B22708950E94F7
:10506000D62708950E94E52708950E94F427089501
:10507000EF92FF920F931F93CF93DF937C01EB018D
:105080008A01FA01E451FF4F8081882351F0108298
:1050900088E0888382E090E0FB01E656FF4F918331
:1050A0008083F801E351FF4F8081882351F0108203
:1050B00088E0888380E991E0FE01E656FF4F918306
:1050C00080830E94C419E8818E2F90E08A30910578
:1050D00008F040C0FC01E659FF4F0C943F30A80196
:1050E000BE01C7010E946E2735C0A801BE01C701DD
:1050F0000E946E272FC0A801BE01C7010E94BD26D5
:1051000029C0A801BE01C7010E94DC1E23C0A8015E
:10511000BE01C7010E94C61F1DC0A801BE01C70174
:105120000E94572017C0A801BE01C7010E941D217F
:1051300011C0A801BE01C7010E94A7220BC0A8018F
:10514000BE01C7010E940A2805C0A801BE01C7010F
:105150000E9455230E94D919DF91CF911F910F9181
:10516000FF90EF900895CF93DF93EC010E94BD0F65
:10517000CE0107960E94BD0FCE010E960E94BD0F74
:10518000CE0145960E94BD0FCE014C960E94BD0FE8
:10519000CE0183960E94BD0FCE018A960E94BD0F5C
:1051A000DF91CF910895CF93DF93EC0140E050E081
:1051B00064E40E94BE0F41E050E064E4CE01079633
:1051C0000E94BE0F42E050E064E4CE010E960E94C1
:1051D000BE0F43E050E064E4CE0145960E94BE0F4E
:1051E00044E050E064E4CE014C960E94BE0F45E0DE
:1051F00050E064E4CE0183960E94BE0F46E050E08A
:1052000064E4CE018A960E94BE0FDF91CF9108958B
:105210000F931F93CF93DF93EC018B010E960E94A7
:10522000FC0F81112CC0B801CE0145960E94FC0FE5
:10523000811128C0B801CE014C960E94FC0F81114B
:1052400024C0B801CE018A960E94FC0F811120C0B3
:10525000B801CE0183960E94FC0F81111CC0B801D9
:10526000CE010E94FC0F811119C0B801CE01079632
:105270000E94FC0F811115C08FEF9FEF14C080E0DA
:1052800090E011C081E090E00EC082E090E00BC0A1
:1052900084E090E008C083E090E005C085E090E005
:1052A00002C086E090E0DF91CF911F910F910895A9
:1052B0000895ECE7F0E0808181648083EAE7F0E024
:1052C00080818F6880830895FC01ACE7B0E08C9109
:1052D0008E7F8C938C918D7F8C938C918B7F8C9314
:1052E0008C91877F8C936330710551F06430710528
:1052F00069F06230710579F48C9181608C930BC0F8
:10530000ACE7B0E08C9182608C9305C0ACE7B0E074
:105310008C9183608C93AAE7B0E08C9180648C932D
:10532000108281E040E09C91282F392F307194FF4A
:10533000242F20833323B9F3609178007091790092
:1053400080E090E00E94072F2BE43CE340EA5BE31F
:105350000E94BE2F08958093BB0084E88093BC0018
:10536000ECEBF0E080818823ECF79091B900987F16
:10537000983129F081E0983219F480E0089580E0B6
:105380000895CF9394EA9093BC00ECEBF0E0908109
:105390009923ECF79091B900987F983011F09031F3
:1053A00061F4C62F0E94AB29813039F08C2F0E9406
:1053B000AB2994E99093BC0004C084E98093BC00BD
:1053C00081E0CF910895089587E28093B80060E06E
:1053D0008EE70E94C1290895AF92BF92CF92DF92CB
:1053E000EF92FF920F931F93CF93DF93EC0116166A
:1053F00017060CF071C091E00130110509F090E042
:105400000230110509F4926081E0E816F10411F40C
:10541000946005C082E0E816F10409F4986081E028
:10542000C816D10411F4906105C082E0C816D104F9
:1054300009F4906269017A018B0181E0A816B10438
:1054400019F4692F606406C082E0A816B104E9F57A
:10545000692F60688EE70E94C129198218828FE93E
:105460009FE00197F1F700C00000888199810196C3
:10547000998388838017910794F360E08EE70E94F8
:10548000C1291982188220E030E0A901C701B601C4
:105490000E94B92F181604F58FE99FE00197F1F7E4
:1054A00000C00000688179816F5F7F4F79836883D6
:1054B000072E000C880B990B0E94092FA70196015B
:1054C0000E945A2E882344F307C0692F8EE70E945A
:1054D000C12919821882C3CFDF91CF911F910F91FB
:1054E000FF90EF90DF90CF90BF90AF900895EF9234
:1054F000FF920F931F93CF93DF93F90116161706B0
:105500000CF052C031E04130510509F030E042303A
:10551000510509F43260E130F10511F4346003C043
:10552000329709F438600130110511F4306104C07C
:105530000230110509F430628B01EC0121E0E21622
:10554000F10419F4632F606406C082E0E816F104E8
:1055500021F5632F60688EE70E94C12919821882A5
:105560008FE99FE00197F1F700C0000028813981A1
:105570002F5F3F4F39832883201731078CF360E07A
:105580008EE70E94C1299FEF20E782E091502040E2
:105590008040E1F700C0000007C0632F8EE70E9443
:1055A000C12919821882DCCFDF91CF911F910F9111
:1055B000FF90EF9008958B960E9458290895CF93FD
:1055C000DF93EC01688179818B960E9464296A835C
:1055D0007B838C839D83DF91CF9108950F931F93DD
:1055E000CF93DF93EC018B018B960E94592919838D
:1055F000088380E090E0A0EAB0E48E839F83A887D0
:10560000B9878AE097EDA3E2BCE38A879B87AC87E2
:10561000BD87CE010E94DF2A6B8B7C8B8D8B9E8B8E
:105620001EA21DA21CA21BA2DF91CF911F910F9160
:105630000895CF93DF93EC010E94DF2A8A819B813A
:10564000AC81BD818B8F9C8FAD8FBE8F1AA619A6A2
:10565000DF91CF910895FC01878D882361F080A1AF
:10566000811109C082819381A481B5818687978742
:10567000A08BB18B089580E008954F925F926F9256
:105680007F928F929F92AF92BF92CF92DF92EF92D2
:10569000FF920F931F93CF93DF93FC01278D22235B
:1056A00009F498C020A1211198C06A017B01EC0186
:1056B0000E94DF2A4B015C016A837B838C839D837C
:1056C00020E030E0A9016B8D7C8D8D8D9E8D0E9438
:1056D0005A2E811108C08AE097EDA3E2BCE38B8FBC
:1056E0009C8FAD8FBE8F20E030E046E953E46B8D98
:1056F0007C8D8D8D9E8D0E94BE2F2B013C0120E064
:1057000030E046E953E4C501B4010E94BE2F9B017D
:10571000AC01C301B2010E94ED2D6CA77DA78EA73D
:105720009FA70E94D12E4B015C0178A76FA379AB94
:1057300068AB19A2072E000C880B990B0E94092F49
:105740002B013C0120E030E046E953E4C701B601FB
:105750000E94BE2F6B017C019B01AC0160E070E0F8
:10576000CB010E94ED2D9B01AC01C301B2010E944F
:105770005A2E88237CF491948194910898A68FA244
:1057800089A59AA5881699065CF598A78FA382E04B
:1057900090E02BC020E030E0A901C701B6010E94D3
:1057A000EE2D9B01AC01C301B2010E94B92F181666
:1057B00054F489A59AA588169906ACF498A78FA3E6
:1057C00081E090E012C018A61FA281E089A380E0CA
:1057D00090E00BC080E090E008C080E090E005C061
:1057E00082E090E002C081E090E0DF91CF911F91D4
:1057F0000F91FF90EF90DF90CF90BF90AF909F9070
:105800008F907F906F905F904F900895CF92DF922E
:10581000EF92FF920F931F93CF93FC01C78DCC2380
:10582000F9F020A1211119C031A1311118C08C014A
:10583000C684D784E088F1880E94DF2A9B01AC01EE
:10584000C701B6010E945A2E81110AC0F80181A534
:1058500092A5019692A781A703C0C0E001C0C22F04
:105860008C2FCF911F910F91FF90EF90DF90CF90F1
:105870000895FC0112A611A60895CF93DF93EC01C1
:105880008A819B81AC81BD818F8B988FA98FBA8FC4
:10589000CE010E94DF2A6A837B838C839D832F89BC
:1058A000388D498D5A8D0E945A2E811108C081E091
:1058B00088A381E090E09CA38BA380E002C018A2A3
:1058C00081E0DF91CF910895FC0182A1811114C084
:1058D00080A1811111C025A136A12F5F3F4F36A3B2
:1058E00025A3621773075CF481E080A383E090E056
:1058F00094A383A381E0089516A215A280E00895E1
:10590000CF92DF92EF92FF92CF93DF93EC01CE80A4
:10591000DF80E884F984A70196016B8D7C8D8D8DE5
:105920009E8D0E94B92F882324F0CB8EDC8EED8EC5
:10593000FE8ECA84DB84EC84FD84A70196016B8D06
:105940007C8D8D8D9E8D0E945A2E181624F0CB8E44
:10595000DC8EED8EFE8EDF91CF91FF90EF90DF9089
:10596000CF900895CF93DF93EC010E94DF2A6B8BD9
:105970007C8B8D8B9E8BDF91CF9108954F925F92A0
:105980006F927F928F929F92AF92BF92CF92DF924F
:10599000EF92FF92CF93DF93EC012A013B010E942B
:1059A000DF2A4B015C01CB88DC88ED88FE88A301EF
:1059B00092010E94ED2DA70196010E94B92F1816A1
:1059C00074F0A3019201C501B4010E94EE2D9B0168
:1059D000AC01C701B6010E94B92F18165CF48A8188
:1059E0009B81AC81BD818B8B9C8BAD8BBE8B81E011
:1059F0008AA302C01AA280E0DF91CF91FF90EF90BE
:105A0000DF90CF90BF90AF909F908F907F906F90DE
:105A10005F904F900895FC01878D91E09827978FB4
:105A20000895CF92DF92EF92FF921F93CF93DF936F
:105A3000EC011F8D1123E1F0CB01BA012B8D3C8DC0
:105A40004D8D5E8D0E94EE2D6B8F7C8F8D8F9E8F86
:105A5000CE80DF80E884F984A70196010E94B92FE7
:105A6000181634F4CB8EDC8EED8EFE8E81E08A8BA0
:105A7000812FDF91CF911F91FF90EF90DF90CF901A
:105A80000895CF92DF92EF92FF921F93CF93DF930F
:105A9000FC01178D1123E9F09A01AB01EC01638D34
:105AA000748D858D968D0E94ED2D6B8F7C8F8D8FE3
:105AB0009E8FCA84DB84EC84FD84A70196010E943A
:105AC0005A2E882334F4CB8EDC8EED8EFE8E81E050
:105AD0008A8B812FDF91CF911F91FF90EF90DF9004
