:100000000C9434040C945C040C945C040C945C0418
:100010000C945C040C945C040C945C040C945C04E0
:100020000C945C040C945C040C945C040C945C04D0
:100030000C945C040C945C040C945C040C945C04C0
:100040000C945C040C945C040C945C040C945C04B0
:100050000C945C040C945C040C945C040C945C04A0
:100060000C945C040C945C04BE0AC40AC90ACE0A4F
:10007000D30AD80ADD0AE20AEC0AF60A000B350BAD
:10008000380B3B0B3E0B410B440B470B4A0B4D0B04
:100090003F1D471D4F1D571D5F1D671D771D6F1DA0
:1000A0007F1D871D8F1D971D9F1DA71DAF1DB71D90
:1000B000BF1D401E601E701E781E681E4B1E801ED7
:1000C000CC1ED41ED01ED81EDC1EE01EE41EE81E70
:1000D000EC1E0AD7233C0AD7A33C8FC2F53C0AD7B3
:1000E000233DCDCC4C3D8FC2753D295C8F3D0AD759
:1000F000A33DEC51B83DCDCCCC3D8FC2F53D9A9996
:10010000193ECDCC4C3E9A99993E0000003F00002C
:10011000403F0000803F0000C03F00000040000062
:100120004040C0C0E0A0A0A09090909088888884B3
:10013000848484828282828181FFC0C0E0E0A0A0AA
:10014000909090908888888484848482828282813E
:1001500081FFC0C0E0E0E0A0909090908888888403
:10016000848484828282828181FFC0C0E0E0E0E0FA
:10017000F0909090888888848484848282828281AE
:1001800081FFC0C0E0E0E0E0F0F0909088888884D3
:10019000848484828282828181FFC0C0E0E0E0E0CA
:1001A000F0F0F090888888848484848282828281BE
:1001B00081FFC0C0E0E0E0E0F0F0F0F088888884E3
:1001C000848484828282828181FFC0C0E0E0E0E09A
:1001D000F0F0F0F0F88888848484848282828281BE
:1001E00081FFC0C0E0E0E0E0F0F0F0F0F8F88884D3
:1001F000848484828282828181FFC0C0E0E0E0E06A
:10020000F0F0F0F0F8F8F8848484848282828281AD
:1002100081FFC0C0E0E0E0E0F0F0F0F0F8F8F8FCBA
:10022000848484828282828181FFC0C0E0E0E0E039
:10023000F0F0F0F0F8F8F8FCFC848482828282818D
:1002400081FFC0C0E0E0E0E0F0F0F0F0F8F8F8FC8A
:10025000FCFC84828282828181FFC0C0E0E0E0E019
:10026000F0F0F0F0F8F8F8FCFCFCFC82828282816D
:1002700081FFC0C0E0E0E0E0F0F0F0F0F8F8F8FC5A
:10028000FCFCFCFE8282828181FFC0C0E0E0E0E0F5
:10029000F0F0F0F0F8F8F8FCFCFCFCFEFE82828145
:1002A00081FFC0C0E0E0E0E0F0F0F0F0F8F8F8FC2A
:1002B000FCFCFCFEFEFE828181FFC0C0E0E0E0E0CD
:1002C000F0F0F0F0F8F8F8FCFCFCFCFEFEFEFE811D
:1002D00081FFC0C0E0E0E0E0F0F0F0F0F8F8F8FCFA
:1002E000FCFCFCFEFEFEFEFF81FFC0C0E0E0E0E0A3
:1002F000F0F0F0F0F8F8F8FCFCFCFCFEFEFEFEFF6F
:10030000FFFF0000000000000000005F0000000090
:1003100000070007000000147F147F140000242A47
:100320007F2A1200004C2C106864000036495522C8
:1003300050000000050300000000001C22410000E6
:10034000000041221C00000014083E0814000008B0
:10035000083E080800000000503000000010101097
:10036000101000000060600000000020100804026F
:1003700000003E5149453E000000427F4000000021
:10038000426151494600002141454B31000018149B
:10039000127F100000274545453900003C4A494975
:1003A0003000000171090503000036494949360053
:1003B00000064949291E00000036360000000000F2
:1003C00056360000000008142241000000141414E6
:1003D0001414000000412214080000020151090613
:1003E0000000324979413E00007E1111117E00006B
:1003F0007F4949493600003E4141412200007F418A
:1004000041221C00007F4949494100007F09090938
:100410000100003E4149497A00007F0808087F003A
:100420000000417F410000002040413F0100007F6B
:100430000814224100007F4040404000007F020C31
:10044000027F00007F0408107F00003E4141413ED2
:1004500000007F0909090600003E4151215E0000AD
:100460007F09192946000046494949310000010128
:100470007F010100003F4040403F00001F2040201E
:100480001F00003F4038403F000063140814630021
:10049000000708700807000061514945430000004B
:1004A0007F4141000000020408102000000041418B
:1004B0007F00000004020102040000404040404070
:1004C0000000000102040000002054545478000091
:1004D0007F484444380000384444442000003844F5
:1004E00044487F000038545454180000087E090125
:1004F0000200000C5252523E00007F0804047800B3
:100500000000447D400000002040443D0000007F8A
:1005100010284400000000417F400000007C0418C7
:10052000047800007C08040478000038444444380F
:1005300000007C141414080000081414187C000037
:100540007C08040408000048545454200000043F70
:1005500044402000003C4040207C00001C20402003
:100560001C00003C4030403C00004428102844005F
:10057000000C5050503C00004464544C44000000B7
:1005800008364100000000007F00000000004136F6
:100590000800000008040810080000FFFFFFFFFF2C
:1005A00000000000E0F0F8F800F8F8F0E0000000CB
:1005B0000000FFFFFFFF00FFFFFFFF000000000043
:1005C000070F1F1F001F1F0F070000000000E01093
:1005D000080800080810E00000000000FF0000000C
:1005E00000000000FF0000000000070810100010CD
:1005F0001008070000004080E010080800080810FC
:10060000E08040000000FF42241800182442FF0050
:100610000000020107081010001010080701020076
:100620000000605048440044485060000000000052
:10063000060A12220022120A060000000000607062
:10064000787C007C7870600000000000060E1E3E82
:10065000003E1E0E06000000183C7EE70000000071
:1006600000E77E3C180000002030381C001C3830A9
:100670002000000000002A2A2A2A002A2A2A2A2AE0
:1006800000000000000000030000183C7EE70000AE
:1006900000E77E3C180000000000183C7E007E3C15
:1006A00018000000007C1211127C00007F494949AB
:1006B0003100007F4949493600007F0101010100F6
:1006C00000603F213F6000007F49494941000077B9
:1006D000087F08770000224149493600007F100852
:1006E000047F00007E1009047E00007F0814224170
:1006F0000000403E01017F00007F020C027F0000ED
:100700007F0808087F00003E4141413E00007F0114
:1007100001017F00007F0909090600003E414141B7
:1007200022000001017F01010000074848483F0006
:10073000000E117F110E0000631408146300003FC7
:1007400020203F600000070808087F00007F407EEF
:10075000407F00003F203F207F0000017F4848305D
:1007600000007F4830007F0000007F4848300000D4
:10077000224149493E00007F083E413E0000462993
:1007800019097F0000205454547800003C4A4A4A1A
:100790003100007C5454280000007C04040C00004C
:1007A00000603C243C600000385454541800006C35
:1007B000107C106C0000004454542800007C201071
:1007C000087C00007C2112097C00007C1028440079
:1007D0000000403804047C00007C0810087C000005
:1007E0007C1010107C0000384444443800007C0425
:1007F00004047C00007C14141408000038444444B1
:1008000000000004047C040400000C5050503C0024
:100810000008147C14080000442810284400003C00
:1008200020203C6000000C1010107C00007C407CFC
:10083000407C00003C203C207C0000047C50502088
:1008400000007C5020007C0000007C505020000004
:10085000284454543800007C103844380000485470
:1008600034147C0000002D1711241FBECFEFD8E0F8
:10087000DEBFCDBF12E0A0E0B1E0E2EBF9E402C0E0
:1008800005900D92A83AB107D9F728E0A8EAB2E09E
:1008900001C01D92A639B207E1F714E0C4E3D4E029
:1008A00004C02197FE010E948424C333D107C9F7F5
:1008B0000E940A170C94D7240C9400000895CF923C
:1008C000DF92EF92FF920F931F93CF93DF93EC0190
:1008D000CB018A0164E670E00E94411F8F3F2FEF39
:1008E000920729F41C821D821E821F82AFC02885B8
:1008F00039852231310581F4009709F0AEC081E0DD
:1009000090E0998388838CE090E099878887C65629
:10091000DF4F81E088839AC08230910509F453C08B
:1009200024F4019709F454C057C08330910519F09D
:10093000049731F151C078018EEAE80EF11C2AE0EB
:1009400037ED43E25CE36C817D818E819F810E9463
:1009500033229B01AC01F701608171818281938117
:100960000E943222F70160837183828393838CEE2D
:1009700091E5A8EBBDE38C839D83AE83BF832CC040
:100980007801FEEAEF0EF11C2AE037ED43E25CE36A
:100990006C817D818E819F810E943322F7012081AD
:1009A0003181428153810E943322F7016083718338
:1009B000828393838CEE91E5A8EBBDE38C839D83CA
:1009C000AE83BF8309C02F5F3F4F3987288704C09C
:1009D0002150310939872887888599854297C4F540
:1009E00081E190E099878887F801E255FF4FC08048
:1009F000D180E280F38020E030E0A901C701B60198
:100A00000E949F22181664F0F801E255FF4F8AE019
:100A100097EDA3E2BCE380839183A283B38315C0E7
:100A200020E030E040E450E4C701B6010E94FE231C
:100A300088235CF0F801E255FF4F80E090E0A0E4ED
:100A4000B0E480839183A283B38318C080E016C092
:100A500082E190E099878887C7CF8230910509F4B9
:100A6000B2CF24F4019709F4B3CFF2CF83309105CC
:100A700009F461CF049709F483CFEACFDF91CF91D6
:100A80001F910F91FF90EF90DF90CF900895CF923C
:100A9000DF92EF92FF920F931F93CF93DF93EC01BE
:100AA000CB018A0164E670E00E94411F8F3F2FEF67
:100AB000920729F41C821D821E821F8230C1288564
:100AC00039852531310581F4009709F02AC181E08B
:100AD00090E0998388838DE090E099878887C65657
:100AE000DF4F81E088831BC18230910509F492C0F9
:100AF00024F4019709F493C096C08330910521F046
:100B0000049709F446C08FC023313105E9F4780118
:100B100082EBE80EF11C2AE037ED43E25CE36C81E6
:100B20007D818E819F810E9433229B01AC01F70160
:100B300060817181828193810E943222F7016083FA
:100B40007183828393831CC07801F6EBEF0EF11C56
:100B50002AE037ED43E25CE36C817D818E819F81E9
:100B60000E9433229B01AC01F70160817181828177
:100B700093810E943222F701608371838283938381
:100B80008CEE91E5A8EBBDE38C839D83AE83BF83A0
:100B90004AC023313105D9F47801F2EBEF0EF11C94
:100BA0002AE037ED43E25CE36C817D818E819F8199
:100BB0000E943322F70120813181428153810E94BA
:100BC0003322F70160837183828393831AC0780193
:100BD000F6EBEF0EF11C2AE037ED43E25CE36C81AB
:100BE0007D818E819F810E943322F7012081318196
:100BF000428153810E943322F70160837183828393
:100C000093838CEE91E5A8EBBDE38C839D83AE834B
:100C1000BF8309C02F5F3F4F3987288704C0215009
:100C20003109398728878885998544972CF483E191
:100C300090E09987888708C088859985459724F032
:100C400085E190E09987888720E030E0A901F801EC
:100C5000EE54FF4F60817181828193810E949F22B7
:100C600018163CF0F801EE54FF4F108211821282E8
:100C7000138220E030E040EA50E4F801EA54FF4FEC
:100C800060817181828193810E94FE2388235CF0C0
:100C900080E090E0A0EAB0E4F801EA54FF4F8083DE
:100CA0009183A283B383888599858331910519F057
:100CB0004497D9F033C0F801EA54FF4FC080D18087
:100CC000E280F380A701960134976081718182816F
:100CD00093810E94FE2388230CF1F801EE54FF4F0C
:100CE000C082D182E282F38219C0F801EE54FF4F34
:100CF000C080D180E280F380A701960134966081A4
:100D00007181828193810E949F2218163CF0F80124
:100D1000EA54FF4FC082D182E282F38213C080E0A6
:100D200011C08230910509F475CF24F4019709F4BC
:100D300076CF82CF8330910509F4E6CE049709F48B
:100D400028CF7ACFDF91CF911F910F91FF90EF9035
:100D5000DF90CF900895CF92DF92EF92FF920F93A2
:100D60001F93CF93DF93EC01CB018A0164E670E01F
:100D70000E94411F8F3F2FEF920729F41C821D8292
:100D80001E821F82E5C08130910551F082309105AD
:100D900069F4288539852F5F3F4F3987288706C03A
:100DA0002885398521503109398728872885398553
:100DB000273131052CF426E130E03987288718C027
:100DC000283131052CF028E130E03987288769C0C7
:100DD000288539852731310559F4009749F4C80130
:100DE0000E94AF1188859985489709F07EC063C03D
:100DF000288539852631310509F053C083309105A6
:100E000021F08430910531F14CC078018AEBE80E75
:100E1000F11C20E030E040E85FE36C817D818E8151
:100E20009F810E9433229B01AC01F7016081718197
:100E3000828193810E943222F701608371838283D1
:100E4000938380E090E0A0E1B1E48C839D83AE8346
:100E5000BF834BC07801FAEBEF0EF11C20E030E0CD
:100E600040E85FE36C817D818E819F810E94332207
:100E7000F70120813181428153810E943322F701A1
:100E8000608371838283938380E090E0A0E1B1E48A
:100E90008C839D83AE83BF8388859985489729F588
:100EA00017C02885398528313105F9F4009719F0E4
:100EB0000497D9F40DC081E090E0998388838EE097
:100EC00090E099878887C656DF4F81E0888340C0CD
:100ED00081E090E0998388838EE090E0998788870D
:100EE000C656DF4F81E0888333C0F801E654FF4FD8
:100EF000C080D180E280F38020E030E040EA50E41E
:100F0000C701B6010E949F22181664F0F801E6544A
:100F1000FF4F80E090E0A0EAB0E480839183A28359
:100F2000B38315C020E030EC49E754E4C701B601B3
:100F30000E94FE2388235CF0F801E654FF4F80E016
:100F400090ECA9E7B4E480839183A283B38301C0CA
:100F500080E0DF91CF911F910F91FF90EF90DF9094
:100F6000CF9008950F931F93CF93DF93EC01CB01A4
:100F70008A0164E670E00E94411F8F3F2FEF9207C5
:100F800009F487C0009741F4888599854D97C9F485
:100F9000C8010E94B7117DC08430910549F488854D
:100FA00099854D97D9F48EE190E09987888771C033
:100FB00082309105C1F4888599854D9709F04DC01F
:100FC00068C0888599854E97A9F581E090E099835E
:100FD00088838FE090E0998788875BC088859985B2
:100FE0004E97B1F556C08330910549F488859985AF
:100FF0004E9729F58DE190E0998788874AC0813026
:10100000910549F4888599854E9769F58CE190E0C2
:10101000998788873EC082309105F9F02CF40097BB
:1010200049F0019701F124C08330910541F0049704
:10103000F9F40EC087E090E09983888319C081E0BD
:1010400090E0998388838FE090E09987888721C01A
:1010500087E090E0998388830BC088859985019605
:101060009987888705C0888599850197998788879A
:10107000888599858A3191052CF489E190E09987DA
:10108000888706C04E9724F08EE190E09987888784
:1010900001C080E0DF91CF911F910F910895CF9310
:1010A000DF93EC01CB0164E670E00E94411F0196E2
:1010B00011F480E004C086E090E099838883DF919A
:1010C000CF910895CF93DF93FC01DC01A856BF4F69
:1010D0001C9211961C9289E090E093838283118682
:1010E00010861182108221E0258792E0968786E69D
:1010F000838755E054878287238B148A218B34E0C1
:10110000328B84E6808B35A356A323A334A382A31A
:1011100033A743E044A711A6A6E0A2A765E660A70F
:10112000578F40A3958F468F848F118E928F978B08
:10113000408F868B31AB42AB57A7A0AB82E786A727
:1011400087E687AB30AF15AA26AB34AB84AF78E027
:1011500075AF12AE93AF71AFEF01CF5BDF4F8883F6
:1011600021966CE0688327AF2297488366AF269666
:101170008883219688832397988321964883229792
:10118000888328961882219648E6488323973883D7
:10119000219658832297488328961882219649E6FB
:1011A0004883239738832196A883229748832896DB
:1011B000188221964AE6488323975883219637E080
:1011C000388322974883289618822196888323970C
:1011D000A883DF01A75ABF4F3C9312978C931896B0
:1011E0002C9311964BE64C9313977C93119639E010
:1011F0003C9312974C9318962C9311965CE65C9353
:1012000013977C9311964AE04C9312975C9318962F
:101210002C9311965DE65C9313973C9311963BE0FB
:101220003C9312975C9318962C9311968C9313977A
:101230004C9311963C9312978C9318969C9311960D
:101240002EE62C9313976C9311963DE03C931297E6
:101250002C9318969C9311964FE64C9313976C938E
:1012600011962EE02C9312974C9318969C931196FE
:1012700040E74C9313973C9311963FE03C931297B1
:101280004C9318969C93119641E74C9313972C938B
:10129000119620E12C9312974C9318969C931196DB
:1012A0008C9313973C9311962C93EC57FF4F8083AC
:1012B000DF91CF910895FC01808591858230910561
:1012C00071F01CF4019739F008958330910561F0B5
:1012D000049781F00895CB010E94CF210895CB019E
:1012E0008B960E94CF210895CB018A5A9F4F0E946E
:1012F000CF210895CB018F579F4F0E94CF21089592
:10130000EF92FF920F931F93CF93DF93EC017B013A
:101310008A01CA010E94421164E670E0C7010E947E
:10132000411F8F3F2FEF9207D1F128853985A90101
:10133000440F551F240F351F220F331F2C0F3D1F45
:10134000F901E80FF91F82858536A1F018F484367B
:1013500031F020C08636B9F0823739F01BC0B801B1
:10136000CE010E945B0981E01BC0C8010E94E1110F
:1013700081E016C082E090E099838883C8010E94D2
:10138000260C81E00DC081E090E099838883198666
:10139000188606C090E09987888781E001C080E0C8
:1013A000DF91CF911F910F91FF90EF900895FC0175
:1013B000E856FF4F21E02083FC0120853185253050
:1013C000310559F02630310581F024303105A1F482
:1013D000E556FF4F118210820FC021E030E0FC0182
:1013E000E556FF4F3183208307C022E030E0FC0147
:1013F000E556FF4F3183208328E030E0FC01318344
:1014000020830895DC011296ED91FC911397EE0F65
:10141000FF1FEE0FFF1FEE52FF4F659175918591F3
:10142000949108950F931F93CF93DF93EC01CB0119
:101430008A0164E670E00E94411F8F3F2FEF920700
:1014400011F480E03DC082309105C1F02CF400978A
:1014500049F0019751F026C083309105C1F00497FF
:10146000E1F020C0198218821DC0CE010E94020A3C
:10147000AB01BC01C8010E94F01014C0CE010E9453
:10148000020AAB01BC01C8010E9419110BC08A817C
:101490009B8101979B838A8305C08A819B810196EA
:1014A0009B838A838A819B81181619061CF01B82F4
:1014B0001A8206C0439724F083E190E09B838A83DD
:1014C000DF91CF911F910F910895FC01DC01A75688
:1014D000BF4F81E08C93808591858930910549F0DB
:1014E0008A30910571F0089799F412961D921C921A
:1014F0000FC081E090E0DF01A556BF4F8D939C9314
:1015000007C082E090E0DF01A556BF4F8D939C930A
:1015100082E090E0918380831186108608950F9376
:101520001F93CF93DF93EC018B01CA010E944211FC
:1015300064E670E0C8010E94411F8F3F2FEF9207C1
:1015400009F46EC028853985A901440F551F440F41
:10155000551F240F351F2C0F3D1FF901E80FF91FF0
:1015600024A9822F90E0FC01E756F109EB30F10548
:1015700008F050C0EC5CFF4F0C9484241982188250
:101580001986188681E04DC0CE010E94D70981E0FE
:1015900048C0CE010E94D70981E043C0CE010E941D
:1015A000D70981E03EC0CE010E94650A81E039C0C2
:1015B000CE010E94650A81E034C0CE010E94650A16
:1015C00081E02FC083E090E09983888381E190E0FF
:1015D0009987888781E025C084E090E0998388839B
:1015E00083E190E09987888781E01BC085E090E0E7
:1015F0009983888386E190E09987888781E011C08C
:1016000086E090E0998388838DE190E099878887D0
:1016100081E007C0822F90E09987888781E001C030
:1016200080E0DF91CF911F910F910895CF93DF93C9
:10163000EC01CB0164E670E00E94411F019611F4B9
:1016400080E006C081E090E099838883198618863F
:10165000DF91CF910895DC01ED91FC91E930F10526
:10166000F0F4E15CFF4F0C9484240E9480090895FB
:101670000E948F0A08950E94120A08950E945F0432
:1016800008950E94470508950E94AB0608950E94A0
:10169000B20708950E944F0808950E94160B0895FE
:1016A0000895FC0160834183528384EF91E0968327
:1016B00085836334A1F0643411F1623479F524B187
:1016C00081E090E002C0880F991F4A95E2F7982FB9
:1016D0009095922394B995B1892B85B9089527B136
:1016E00081E090E002C0880F991F4A95E2F7982F99
:1016F0009095922397B998B1892B88B908952AB10A
:1017000081E090E002C0880F991F4A95E2F7982F78
:10171000909592239AB99BB1892B8BB90895FC01BE
:10172000772374F18081833479F08434B9F0823482
:1017300009F06AC083B190E0018002C09595879559
:101740000A94E2F7817013C086B190E0018002C074
:10175000959587950A94E2F7817009C089B190E068
:10176000018002C0959587950A94E2F781708823DD
:1017700009F44EC084EF91E09683858380E008955C
:1017800014821382858196811816190634F036C0AA
:1017900025813681821793078CF58081833471F01F
:1017A0008434B1F0823491F523B130E0018002C07D
:1017B000359527950A94E2F7217013C026B130E0E1
:1017C000018002C0359527950A94E2F7217009C07F
:1017D00029B130E0018002C0359527950A94E2F7DF
:1017E000217089EF90E00197F1F700C0000083813C
:1017F0009481019694838383222351F284E690E0BE
:101800009683858381E0089580E0089580E00895BF
:1018100014821382B7CFCF93DF93EC010E946F2025
:10182000CE018B960E946F20CE018A5A9F4F0E9454
:101830006F20CE018F579F4F0E946F20CE0184559D
:101840009F4F0E940820DF91CF910895CF93DF939F
:10185000EC010E94AD20CE018B960E94AD20CE01FE
:101860008A5A9F4F0E94AD20CE018F579F4F0E94F2
:10187000AD20DF91CF910895CF93DF93FC01DC0180
:10188000AA54BF4F8D919D910D90BC91A02D868340
:101890009783A087B18781AB92ABA3ABB4ABEF01C9
:1018A000C45ADF4F88839983AA83BB83AB9688830E
:1018B0009983AA83BB83DF01AE54BF4F8D919D9165
:1018C0000D90BC91A02D82879387A487B58785ABA7
:1018D00096ABA7ABB0AFA79788839983AA83BB8346
:1018E000E557FF4F80839183A283B383DF91CF912C
:1018F0000895CF93DF93EC010E947421CE018B9663
:101900000E947421CE018A5A9F4F0E947421CE01F9
:101910008F579F4F0E947421DF91CF9108954F926E
:101920005F926F927F928F929F92AF92BF92CF926F
:10193000DF92EF92FF920F931F93CF93DF93EC010F
:101940000E9473204E018BE2880E911CC4010E94FC
:1019500073205E0196E5A90EB11CC5010E9473209B
:101960006E01E1E8CE0ED11CC6010E9473203E013B
:10197000FCEA6F0E711CEE24E394F12C01E010E000
:1019800021E030E041E050E06AE070E0C3010E94F5
:101990000E20CE010E9437212E019EEC490E511CD3
:1019A00090E0F20191838083C4010E943721FE01FF
:1019B000E053FF4F90E091838083C5010E9437215F
:1019C000FE01EE52FF4F90E091838083C6010E949A
:1019D0003721FE01EC52FF4F90E0918380836894A1
:1019E000EE24E1F8F12C02E010E022E030E042E0E9
:1019F00050E06AE070E0C3010E940E20F201808195
:101A00009181892B99F0329680819181892B81F087
:101A1000329680819181892B69F0CC52DF4F81E031
:101A200028813981232B39F480E005C080E003C090
:101A300080E001C080E0DF91CF911F910F91FF9076
:101A4000EF90DF90CF90BF90AF909F908F907F905E
:101A50006F905F904F9008950F931F93CF93DF93F4
:101A6000EC018BE2FB01DE0101900D928A95E1F71A
:101A70008BE2FA01DE019B9601900D928A95E1F7C7
:101A8000DE01AA5ABF4F8BE2F90101900D928A95AF
:101A9000E1F7DE01AF57BF4F8BE2F80101900D92E5
:101AA0008A95E1F7CE0184559F4F0E940920FE01DF
:101AB000E852FF4F81E090E091838083CE010E9445
:101AC0008F0CDF91CF911F910F910895CF93DF93EA
:101AD000FC01E154FF4FDC0192962D913C919397CC
:101AE00031832083AF53BF4FEC01C35BDF4F2881AD
:101AF000398111963C932E931296AB9628813981A9
:101B000011963C932E931296AB96288139812D9392
:101B10003C93DF01AC0149535F4F619171911616FF
:101B2000170624F0E417F507C1F727C06115710502
:101B300039F12D913D911216130624F4261737071B
:101B40000CF4B901A417B507A1F76333710514F0BC
:101B500062E370E0EC01072E000C880B990B0E94E9
:101B60004E23C255DF4F288139814A815B810E9413
:101B700003240E941623CB0105C080E090E002C040
:101B800080E090E0DF91CF910895CF92DF92EF92C5
:101B9000FF920F931F93CF93DF93CDB7DEB78B8563
:101BA0009C858230910571F01CF4019739F01DC0BD
:101BB0008330910571F00497A1F017C0CC24C39431
:101BC000D12C13C0CC24C3940F2EFBE0DF2EF02DBC
:101BD0000CC06894CC24C2F80F2EFBE0DF2EF02D51
:101BE00004C06894CC24C2F8D12CCE010B960E947C
:101BF00073208B019C016894EE24E1F8F12C41E004
:101C00006C2D8D2D0E94E1140E94D712DF91CF918F
:101C10001F910F91FF90EF90DF90CF9008954F921A
:101C20005F926F927F928F929F92AF92BF92CF926C
:101C3000DF92EF92FF920F931F93CF93DF93EC010C
:101C40000E94BD206E0198ECC90ED11CF601808364
:101C50008DB79EB78B970FB6F8949EBF0FBE8DBF02
:101C6000ADB7BEB711968BE2FE0101900D928A9539
:101C7000E1F7CE010E94C50D5E019BE2A90EB11CE9
:101C8000EDB7FEB7BB960FB6F894FEBF0FBEEDBF23
:101C9000C5010E94BD204E01F9EC8F0E911CF4018C
:101CA00080838DB79EB78B970FB6F8949EBF0FBEFB
:101CB0008DBFADB7BEB711968BE2F50101900D92C5
:101CC0008A95E1F7CE010E94C50D3E0196E5690EA9
:101CD000711CEDB7FEB7BB960FB6F894FEBF0FBEF2
:101CE000EDBFC3010E94BD208E0106531F4FF801B6
:101CF00080838DB79EB78B970FB6F8949EBF0FBEAB
:101D00008DBFADB7BEB711968BE2F30101900D9276
:101D10008A95E1F7CE010E94C50D2E0191E8490E8A
:101D2000511CEDB7FEB7BB960FB6F894FEBF0FBEC1
:101D3000EDBFC2010E94BD207E01FBECEF0EF11C45
:101D4000F70180838DB79EB78B970FB6F8949EBF2F
:101D50000FBE8DBFADB7BEB711968BE2F2010190F9
:101D60000D928A95E1F7CE010E94C50DEDB7FEB741
:101D7000BB960FB6F894FEBF0FBEEDBFF701E08033
:101D8000F12CF801008110E0F401208130E0F6012F
:101D9000408150E06AE070E0CE0184559F4F0E9480
:101DA0000E20F6018081882351F0CE010E94372158
:101DB000FE01E253FF4F90E09183808307C081E0F2
:101DC00090E0FE01E253FF4F91838083FE01E753D1
:101DD000FF4F8081882351F0C5010E943721FE0109
:101DE000E053FF4F90E09183808307C081E090E053
:101DF000FE01E053FF4F91838083FE01E653FF4FC6
:101E00008081882351F0C3010E943721FE01EE52E8
:101E1000FF4F90E09183808307C081E090E0FE0156
:101E2000EE52FF4F91838083FE01E553FF4F808187
:101E3000882351F0C2010E943721FE01EC52FF4F6E
:101E400090E09183808307C081E090E0FE01EC5236
:101E5000FF4F91838083FE01E253FF4F8081918188
:101E6000892B99F0329680819181892B81F032966D
:101E700080819181892B69F0CC52DF4F81E02881EC
:101E80003981232B39F480E005C080E003C080E075
:101E900001C080E0DF91CF911F910F91FF90EF90F3
:101EA000DF90CF90BF90AF909F908F907F906F907A
:101EB0005F904F9008952F923F924F925F926F9252
:101EC0007F928F929F92AF92BF92CF92DF92EF92CA
:101ED000FF920F931F93CF93DF93CDB7DEB72E976B
:101EE0000FB6F894DEBF0FBECDBF9E878D870E94D0
:101EF000790CED85FE85EA52FF4F81E090E09183F9
:101F000080838D859E850E940F0E882309F44FC122
:101F1000ED85FE85EA52FF4F8081918118161906E2
:101F20000CF045C1812C912C6D847E8488EC680E68
:101F3000711CED85FE85BB96FA83E9834D845E8432
:101F4000F9EC4F0E511C8D859E858A5A9F4F9C83BC
:101F50008B832D843E849AEC290E311CED85FE8501
:101F6000EF57FF4FFE83ED838D859E8585539F4FF1
:101F700098878F83ED85FE85EA52FF4FFA87E987C0
:101F80008D859E8584559F4F9C878B8705C0F8EC77
:101F90008F16910409F4B9C08D859E850E94BD20DD
:101FA000F30180838DB79EB78B970FB6F8949EBFD1
:101FB0000FBE8DBFADB7BEB711968BE2ED85FE8526
:101FC00001900D928A95E1F78D859E850E94C50D41
:101FD0000FB6F894DEBF0FBECDBF89819A810E94F3
:101FE000BD20F20180838DB79EB78B970FB6F89412
:101FF0009EBF0FBE8DBFADB7BEB711968BE2E98114
:10200000FA8101900D928A95E1F78D859E850E9457
:10201000C50D0FB6F894DEBF0FBECDBF8B819C817E
:102020000E94BD20F10180838DB79EB78B970FB6BC
:10203000F8949EBF0FBE8DBFADB7BEB711968BE2B1
:10204000EB81FC8101900D928A95E1F78D859E854B
:102050000E94C50D0FB6F894DEBF0FBECDBF8D81B7
:102060009E810E94BD20EF81F88580838DB79EB749
:102070008B970FB6F8949EBF0FBE8DBFADB7BEB79E
:1020800011968BE2ED81FE8101900D928A95E1F728
:102090008D859E850E94C50DF301A080B12CF201B3
:1020A000C080D12CF101008110E0EF81F885E08043
:1020B000F12CC5018C0D9D1D800F911F8E0D9F1D54
:1020C000E985FA85918380830FB6F894DEBF0FBE51
:1020D000CDBF8D859E850E94660D9601A501BC0130
:1020E0008B859C850E940E209FEF891A990AE985AD
:1020F000FA8580819181181619060CF448CF94E670
:10210000891691040CF453C000C0ED85FE85E85398
:10211000FF4F8081882341F081E0ED85FE85838F2C
:1021200082E090E0978F868FED85FE85E753FF4F25
:102130008081882371F081E0ED85FE85EA5BFF4FA9
:10214000808382E090E0ED85FE85E75BFF4F918321
:102150008083ED85FE85E653FF4F8081882371F0F3
:1021600081E0ED85FE85EF58FF4F808382E090E0AF
:10217000ED85FE85EC58FF4F91838083ED85FE85CC
:10218000E553FF4F8081882391F0ED85FE85E4566D
:10219000FF4F81E080838D859E8581569F4F9A8376
:1021A000898382E090E0E981FA81918380832E9691
:1021B0000FB6F894DEBF0FBECDBFDF91CF911F9158
:1021C0000F91FF90EF90DF90CF90BF90AF909F90D6
:1021D0008F907F906F905F904F903F902F900895D9
:1021E000CF92DF92EF92FF92CF93DF93EC016A01DF
:1021F0007B010E94D521B701A601CE018B960E94DA
:10220000D521B701A601CE018A5A9F4F0E94D52140
:10221000B701A601CE018F579F4F0E94D521CE0155
:102220000E945B0FDF91CF91FF90EF90DF90CF90F6
:102230000895CF92DF92EF92FF92CF93DF93EC015C
:102240006A017B010E940322B701A601CE018B9691
:102250000E940322B701A601CE018A5A9F4F0E9415
:102260000322B701A601CE018F579F4F0E94032280
:10227000CE010E945B0FDF91CF91FF90EF90DF9036
:10228000CF900895AF92BF92CF92DF92EF92FF92DC
:102290000F931F93CF93DF93FC01E254FF4F2081F4
:1022A000222309F451C0EC010E94A6216E018BE2A9
:1022B000C80ED11CC6010E94A6217E01E6E5EE0EE5
:1022C000F11CC7010E94A6218E010F571F4FC801A4
:1022D0000E94A621FE01E85BFF4F9D8D8081892B26
:1022E000BB969081892B21F4BB968081882361F174
:1022F0005E01FAEBAF0EB11CF50160817181828144
:1023000093810E941623CE010E945E21F501608117
:102310007181828193810E941623C6010E945E21F1
:10232000F50160817181828193810E941623C7012A
:102330000E945E21F50160817181828193810E94FA
:102340001623C8010E945E21DF91CF911F910F914A
:10235000FF90EF90DF90CF90BF90AF900895FC0179
:10236000E254FF4F808191E0982790830895FC010B
:10237000138E178E168EEA5BFF4F108233961182F2
:102380001082B8961082339611821082B89610820D
:10239000339611821082089521E0FC01228FEB5BBD
:1023A000FF4F2083BB962083BB9620830895FC01BA
:1023B000128EEB5BFF4F1082BB961082BB96108291
:1023C0000895FC01228D2223B9F0EB5BFF4F2081A1
:1023D000222391F0BB962081222371F0BB962081AD
:1023E000222351F0FC01128EEB5BFF4F1082BB9653
:1023F0001082BB961082089521E0FC01228FEB5BD6
:10240000FF4F2083BB962083BB96208308952A9894
:10241000613011F4299A01C029988EBD0DB407FED0
:10242000FDCF2A9A0895CF92DF92EF92FF920F93F9
:102430001F93CF93DF936B017C01EA01CA010197DF
:10244000209781F061E070E09B01220F331F660F3F
:10245000771F660F771F660F771F620F731F019735
:1024600098F702C061E070E0072E000C880B990B12
:102470000E944E23A70196010E9403240E94162366
:10248000AB01BC01CA0199231CF021E030E002C07D
:102490002FEF3FEF249FC001259F900D349F900D9B
:1024A000112407EB12E00F2EFAE0EF2EF12CF02DA5
:1024B0000F2EFEE2DF2EF02D02C08F01EA01F8019F
:1024C000B7010E947024805D8293862F972FAE0102
:1024D0004150510919F4F8013297D082009769F7F9
:1024E00014161506D4F4BE0162507109DF0140E3F1
:1024F0002197CE1BDF0B4E93CD018C0F9D1F18161D
:102500001906CCF3CB01992314F480E090E0809578
:102510009095E80FF91F8EE2829380818E3211F43C
:1025200080E38293332314F48DE28293CF01DF9111
:10253000CF911F910F91FF90EF90DF90CF90089572
:102540002C9A84B18E6384B92C982C9A80E58CBD2A
:102550002A9A60E081E20E94071260E088EC0E9403
:10256000071260E086E00E94071260E083E10E94AB
:10257000071260E080E20E94071260E08CE00E9497
:102580000712089588EF91E0EEEBF2E0DF019C0185
:102590001D9221503040E1F71092BD021092BC0212
:1025A00087EF91E09093BB028093BA020895EF9277
:1025B000FF920F931F93CF93DF938091BC02909172
:1025C000BD0299232CF41092BD021092BC0209C0E6
:1025D000883F914034F087EF91E09093BD02809363
:1025E000BC028091BA029091BB0299232CF4109204
:1025F000BB021092BA0209C0883F914034F087EFC5
:1026000091E09093BB028093BA02C091BC02D0913A
:10261000BD02CE0164E570E00E947024162F60E0D8
:1026200080680E94071260E0812F80640E94071278
:10263000E090BA02F090BB02EC16FD066CF08E0141
:1026400002541D4F61E0F80181918F010E94071231
:102650002196EC16FD06B4F787EF91E09093BD024A
:102660008093BC021092BB021092BA02DF91CF910C
:102670001F910F91FF90EF9008958E30A8F466306F
:10268000A8F490E09C01220F331F820F931F880F44
:10269000991F24E5629F800D911D11249093B9022A
:1026A0008093B80280E0089581E0089581E0089564
:1026B0004091B8025091B902805297E0899FF00191
:1026C0001124EE5FFC4FDA01A254BD4F9A012C5346
:1026D0003D4F84918D933196A217B307D1F74A5F8E
:1026E0005F4F5093B9024093B80280E00895409143
:1026F000B8025091B90290E0FC01EE0FFF1FE80F05
:10270000F91FEE0FFF1FEE0FFF1FEE0FFF1FEE5D15
:10271000FE4FDA01A254BD4F9A012A523D4F8491D7
:102720008D933196A217B307D1F7485E5F4F509350
:10273000B9024093B80280E008950F931F93CF939E
:10274000DF934091B8025091B9022091BC023091C0
:10275000BD024217530724F45093BD024093BC02BC
:10276000E0EEE60FE03A08F4A0C0603C08F49CC03C
:10277000E5ECE60F9AC08491880F8D933196A217ED
:10278000B307C9F74B5F5F4F5093B9024093B8024C
:1027900065C0823009F062C0CA0184559109209158
:1027A000BC023091BD02821793070CF08EC090934B
:1027B000BD028093BC0289C02491220F822F8270B7
:1027C000982F990F890F982F990F822F8470382F87
:1027D000330F830F880F880F892B022F0870019FFA
:1027E000002D1124082B30E0359527953595279538
:1027F0003595279535952795822F8270382F330F81
:10280000830F880F322F3170932F990F390F832B3D
:10281000922F9470392F330F930F990F990F892BA3
:10282000922F9870919F902D1124282F292B088387
:1028300009832C9311962C93119731962296129618
:10284000A617B70709F0B8CFCA010B9668EF71E079
:102850000E9470249093B9028093B8028091B802CC
:102860009091B9022091BA023091BB022817390722
:1028700024F49093BB028093BA02FC01E254FD4F12
:102880001082873F21E0920731F41092B902109232
:10289000B80282E02DC001969093B9028093B802ED
:1028A00080E026C081E024C0EFE5813009F071CFDF
:1028B00087E0E89FF0011124EE5FFC4FDA01A2549B
:1028C000BD4F9A012D533D4F56CF99235CF327E01E
:1028D000E29FF0011124EE5FFC4FEA01C659DD4F83
:1028E000DA01A254BD4FBA0168537D4F18E164CF9D
:1028F000DF91CF911F910F9108950F931F93CF9365
:10290000DF93D42F89010E943D13F8016081662373
:1029100079F0C0E08D2F0E949D13813041F0CF5F90
:10292000F801EC0FF11D60816111F4CF01C061E08D
:10293000862FDF91CF911F910F910895FF920F93F2
:102940001F93CF93DF93F42E89010E943D13F8016A
:102950006081662391F0C0E06E3221F08F2D0E94DD
:102960009D13D82FD13041F0CF5FF801EC0FF11D4E
:1029700060816111F1CF01C061E0862FDF91CF91BD
:102980001F910F91FF900895DF92EF92FF920F93A6
:102990001F93CF93DF93C82FD62FD42EA701C90141
:1029A000B8010E9413129C014D2D6D2F8C2F0E9497
:1029B0007D14DF91CF911F910F91FF90EF90DF90E9
:1029C0000895DF92EF92FF920F931F93CF93DF93BF
:1029D000C82FD62FD42EA701C901B8010E94131207
:1029E0009C014D2D6D2F8C2F0E949E14DF91CF9155
:1029F0001F910F91FF90EF90DF900895CF92DF929B
:102A0000EF92FF920F931F9342E050E064E48FE84F
:102A100098E00E94510B43E050E064E488E898E0BD
:102A20000E94510B44E050E064E481E898E00E9489
:102A3000510B45E050E064E48AE798E00E94510BB6
:102A400046E050E064E483E798E00E94510B0F2ECB
:102A5000F3E7EF2EF8E0FF2EF02D0AE718E021E86B
:102A600038E048E858E06FE878E08AEC96E00E94A9
:102A70000C1F0E94A01261E070E088E498E00E94C0
:102A8000822062E070E08DE198E00E94822063E0A5
:102A900070E082EF97E00E94822064E070E087ECB3
:102AA00097E00E94822007EC17E022EF37E04DE12B
:102AB00058E068E478E08DEE96E00E942C0D86EBFD
:102AC00094E00E9462084DEE56E066EB74E083E508
:102AD00095E00E94AE1E89E490E00E94A6246B015E
:102AE0007C0120E030E0A9010E94FE23181694F03A
:102AF00020E030E040E450E4C701B6010E949F228C
:102B0000882344F040E050E060E87FE389E490E00F
:102B10000E94BA2489E490E00E94A62460939B0757
:102B200070939C0780939D0790939E0785E490E0A7
:102B30000E94A6246B017C0120E030E0A9010E94E4
:102B4000FE2388238CF420E030E040EA50E4C70103
:102B5000B6010E949F2218163CF440E050E0BA01F2
:102B600085E490E00E94BA2485E490E00E94A624C7
:102B700060939F077093A0078093A1079093A2078B
:102B800081E490E00E94A6246B017C0120E030E00B
:102B9000A9010E94FE23882394F420E030E040EA5B
:102BA00050E4C701B6010E949F22181644F440E089
:102BB00050E060EA70E481E490E00E94BA2481E48D
:102BC00090E00E94A6246093A3077093A4078093CB
:102BD000A5079093A6078DEE96E00E943C0C8CE32F
:102BE00090E00E94A6246B017C0120E030E0A90166
:102BF0000E94FE238823BCF420E030EC49E754E433
:102C0000C701B6010E949F2218166CF440E050E004
:102C100068E472E48CE390E00E94BA2461E080E40E
:102C200090E00E94AC248CE390E00E94A624609384
:102C3000A7077093A8078093A9079093AA0780E439
:102C400090E00E949E2491E0811101C090E0909359
:102C5000AB071F910F91FF90EF90DF90CF900895F9
:102C60008823D1F140919B0750919C0760919D076B
:102C700070919E0789E490E00E94BA2440919F07DA
:102C80005091A0076091A1077091A20785E490E0A0
:102C90000E94BA244091A3075091A4076091A50710
:102CA0007091A60781E490E00E94BA248DEE96E030
:102CB0000E943C0C4091A7075091A8076091A9077A
:102CC0007091AA078CE390E00E94BA246091AB0750
:102CD00080E490E00E94AC2408950F931F93CF935B
:102CE000DF9320914E05222399F1EC018DEE96E0C1
:102CF0000E947320AB01BC0184E18C9F80018D9FF9
:102D0000100D1124C8018C5F9F4F0E94BA2488E1E6
:102D100097E00E947320AB01BC01C801885F9F4F00
:102D20000E94BA2483E497E00E947320AB01BC01A7
:102D3000C801845F9F4F0E94BA248EE697E00E94EC
:102D40007320AB01BC01C801805F9F4F0E94BA2471
:102D500010924E05DF91CF911F910F9108950F931F
:102D60001F93CF93DF9320914F05222309F44BC08B
:102D7000EC018DEE96E00E94CC1184E18C9F8001E5
:102D80008D9F100D1124C8018C5F9F4F0E94A624B7
:102D900060930307709304078093050790930607D9
:102DA000C801885F9F4F0E94A62460932E077093EE
:102DB0002F078093300790933107C801845F9F4F9E
:102DC0000E94A6246093590770935A0780935B076B
:102DD00090935C07C801805F9F4F0E94A624609378
:102DE00084077093850780938607909387078DEEFD
:102DF00096E00E945B0F1092B7041092B6048DEE1D
:102E000096E00E94D71110924F05DF91CF911F914C
:102E10000F9108950E94FE14C1E5D5E000E515E08C
:102E20004DEE56E06AEC76E086EB94E00E942B0BC8
:102E30004DEE56E066EB74E083E595E00E94AE1E31
:102E4000888199810E946D16888199810E94AF16B0
:102E5000F80180810E943016E3CF8FE898E00E944D
:102E6000500B88E898E00E94500B81E898E00E949F
:102E7000500B8AE798E00E94500B83E798E00E948D
:102E8000500B88E498E00E946F208DE198E00E944A
:102E90006F2082EF97E00E946F2087EC97E00E94FE
:102EA0006F208DEE96E00E940B0C8AEC96E00E945B
:102EB000F41E83E595E00E94621786EB94E00E9481
:102EC0005E040895CF93DF93EC010E945E04CE016F
:102ED00083569F4F0E940B0CDF91CF910895EF9284
:102EE000FF920F931F93CF93DF93EC0120E031E02B
:102EF00041E060E082E00E947D14FE01E55BFE4F50
:102F000000811181228133816894EE24E1F8F12C53
:102F100041E062E085E00E94C4142BE031E041E032
:102F200064E083E00E947D14888599858131910554
:102F300019F0429781F016C062E084E00E943D13D0
:102F40008AE90E94581362E089E00E943D138BE9F0
:102F50000E94581307C064E081E00E943D138BE992
:102F60000E945813DF91CF911F910F91FF90EF9026
:102F70000895EF92FF920F931F93CF93DF93EC018D
:102F800025E131E041E060E082E00E947D1421E231
:102F900031E041E062E082E00E947D14FE01E15BED
:102FA000FE4F00811181228133816894EE24E1F883
:102FB000F12C41E062E088E00E94C41425E231E097
:102FC00041E063E082E00E947D14FE01ED5AFE4F75
:102FD000008111812281338141E063E088E00E9419
:102FE000C4148885998584319105A1F085319105B6
:102FF00001F1439729F562E087E00E943D138AE9D9
:103000000E94581362E08CE00E943D1382EA0E9405
:10301000581316C063E087E00E943D138AE90E94BE
:10302000581363E08CE00E943D1382EA0E9458131B
:1030300007C065E081E00E943D138BE90E945813B0
:103040002BE031E041E065E083E00E947D14DF91F8
:10305000CF911F910F91FF90EF900895EF92FF9203
:103060000F931F93CF93DF93EC0129E231E041E00E
:1030700060E082E00E947D1425E331E041E061E000
:1030800080E00E947D1422E431E041E062E080E0D3
:103090000E947D14FE01E95AFE4F20E030E048EC2A
:1030A00052E460817181828193810E94A4228B010C
:1030B0009C016894EE24E1F8F12C41E062E08AE0A2
:1030C0000E94E1142BE431E041E063E080E00E94E3
:1030D0007D14FE01E55AFE4F8081813041F024E5E8
:1030E00031E041E063E08AE00E947D1407C028E5FA
:1030F00031E041E063E08AE00E947D148885998593
:103100008731910531F088319105D1F04697F9F476
:1031100008C063E089E00E943D1382EA0E945813D0
:1031200016C062E089E00E943D138AE90E945813AC
:1031300062E08DE00E943D138BE90E94581307C0A6
:1031400065E081E00E943D138BE90E9458132BE05B
:1031500031E041E065E083E00E947D14DF91CF9192
:103160001F910F91FF90EF900895EF92FF920F93B0
:103170001F93CF93DF93EC012CE531E041E060E059
:1031800084E00E947D1423E631E041E061E082E0CA
:103190000E947D142CE631E041E062E082E00E9472
:1031A0007D1425E731E041E063E082E00E947D1478
:1031B0002EE731E041E064E082E00E947D1427E8E0
:1031C00031E041E065E082E00E947D142DE831E0CD
:1031D00041E065E089E00E947D1423E931E041E0AF
:1031E00061E08BE00E947D1423E931E041E062E080
:1031F0008BE00E947D1423E931E041E063E08BE045
:103200000E947D1423E931E041E064E08BE00E94FC
:103210007D14FE01E554FF4F808191811816190637
:10322000DCF426E931E041E061E08BE00E947D14AE
:10323000FE01E554FF4F60817181072E000C880B61
:10324000990B0E944E238B019C01E12CF12C41E053
:1032500061E08CE00E94C414FE01EA51FF4F8081BE
:10326000918118161906DCF426E931E041E062E0AC
:103270008BE00E947D14FE01EA51FF4F6081718155
:10328000072E000C880B990B0E944E238B019C018A
:10329000E12CF12C41E062E08CE00E94C414FE01BC
:1032A000EF5EFE4F8081918118161906DCF426E945
:1032B00031E041E063E08BE00E947D14FE01EF5EAF
:1032C000FE4F60817181072E000C880B990B0E94C4
:1032D0004E238B019C01E12CF12C41E063E08CE05A
:1032E0000E94C414FE01E45CFE4F80819181181697
:1032F0001906DCF426E931E041E064E08BE00E944D
:103300007D14FE01E45CFE4F60817181072E000C8C
:10331000880B990B0E944E238B019C01E12CF12C10
:1033200041E064E08CE00E94C414888599858B316B
:103330009105F1F034F48931910551F04A9781F00B
:1033400036C08D31910521F1DCF04E9749F12FC047
:1033500061E080E00E943D138BE90E94581327C072
:1033600062E080E00E943D138BE90E9458131FC069
:1033700063E080E00E943D138BE90E94581317C060
:1033800064E080E00E943D138BE90E9458130FC057
:1033900065E080E00E943D138BE90E94581307C04E
:1033A00065E087E00E943D138BE90E945813DF918E
:1033B000CF911F910F91FF90EF900895CF92DF92E0
:1033C000EF92FF920F931F93CF93DF93CDB7DEB7AA
:1033D000C9A4DAA4C114D10441F428E931E041E0E0
:1033E00062E081E00E947D1439C023EA31E041E0CF
:1033F00061E081E00E947D14B6010D2C000C880B69
:10340000990B0E944E238B019C01E12CF12C41E091
:1034100061E089E00E94C41482E0C816D10479F00A
:1034200083E0C816D10499F0CA94CD28B9F42CEAE7
:1034300031E041E062E080E00E947D140FC020EEA8
:1034400031E041E062E080E00E947D1407C029E0A5
:1034500032E041E062E080E00E947D14DF91CF9194
:103460001F910F91FF90EF90DF90CF900895CF9331
:10347000DF93EC01888599858A31910591F11CF4DF
:10348000499749F09FC08B31910509F450C04C9782
:1034900009F473C097C027E332E041E060E083E0C5
:1034A0000E947D14FE01E356FF4F8DB79EB78B97A8
:1034B0000FB6F8949EBF0FBE8DBFADB7BEB71196C5
:1034C0008BE201900D928A95E1F7CE010E94DE1900
:1034D0008DB79EB78B960FB6F8949EBF0FBE8DBF6B
:1034E00071C020E432E041E060E083E00E947D149E
:1034F000FE01E853FF4F8DB79EB78B970FB6F89438
:103500009EBF0FBE8DBFADB7BEB711968BE20190C7
:103510000D928A95E1F7CE010E94DE198DB79EB714
:103520008B960FB6F8949EBF0FBE8DBF4BC029E49B
:1035300032E041E060E083E00E947D14FE01ED5046
:10354000FF4F8DB79EB78B970FB6F8949EBF0FBEF7
:103550008DBFADB7BEB711968BE201900D928A95E3
:10356000E1F7CE010E94DE198DB79EB78B960FB69C
:10357000F8949EBF0FBE8DBF25C022E532E041E02A
:1035800060E083E00E947D14FE01E25EFE4F8DB795
:103590009EB78B970FB6F8949EBF0FBE8DBFADB789
:1035A000BEB711968BE201900D928A95E1F7CE019C
:1035B0000E94DE198DB79EB78B960FB6F8949EBF0A
:1035C0000FBE8DBFDF91CF910895FC01808591855D
:1035D0008430910524F52BE532E041E060E085E0A0
:1035E0000E947D142BE031E041E061E082E00E9426
:1035F0007D1420E632E041E062E082E00E947D142A
:103600002BE632E041E063E082E00E947D142DE889
:1036100031E041E064E082E00E947D14089588304A
:10362000910524F52BE031E041E060E083E00E9469
:103630007D1425E732E041E061E082E00E947D14E4
:103640002EE732E041E062E082E00E947D142AE849
:1036500032E041E063E082E00E947D142DE831E039
:1036600041E064E082E00E947D1408950C9724F507
:1036700020E632E041E060E083E00E947D1425E72F
:1036800032E041E061E082E00E947D142EE732E00A
:1036900041E062E082E00E947D142AE832E041E0ED
:1036A00063E082E00E947D142DE831E041E064E0B7
:1036B00082E00E947D1408952BE632E041E060E054
:1036C00083E00E947D1420E031E041E061E082E08F
:1036D0000E947D1425E131E041E062E082E00E9439
:1036E0007D1429E231E041E063E082E00E947D1434
:1036F0002CE531E041E064E082E00E947D142DE899
:1037000031E041E065E082E00E947D14089560E0D0
:1037100086E00E943D138EE90E94581360E087E026
:103720000E943D138FE90E9458130895AF92BF92F3
:10373000CF92DF92EF92FF920F931F93CF93DF937D
:10374000CDB7DEB72C970FB6F894DEBF0FBECDBF56
:10375000898D9A8D8230910599F01CF4019739F08A
:1037600031C083309105C1F0049719F12BC0CC24EE
:10377000C394A12C00E00F2EF3E0DF2EF02D22C029
:10378000CC24C3940F2EFBE0AF2EF02D00E00F2EC3
:10379000F9E0DF2EF02D16C06894CC24C2F80F2E6D
:1037A000FBE0AF2EF02D03E00F2EF9E0DF2EF02D21
:1037B00009C06894CC24C2F8A12C03E00F2EF3E0DA
:1037C000DF2EF02D8CA98823C9F08CE890E09A8335
:1037D00089838DE890E09C838B838EE890E09E83C4
:1037E0008D838FE890E098878F8380E990E09A87B7
:1037F000898781E990E09C878B8763C08BA98823A8
:10380000C9F080E890E09A83898381E890E09C8306
:103810008B8382E890E09E838D8383E890E0988795
:103820008F8384E890E09A87898785E890E09C8779
:103830008B8747C086E890E09A83898387E890E089
:103840009C838B8388E890E09E838D8389E890E059
:1038500098878F838AE890E09A8789878BE890E041
:103860009C878B872EC0612F8D2D0E943D13F70101
:1038700080810E945813612F8B2D0E943D13F70108
:1038800082810E9458131F5FF4E0EF0EF11C1013A9
:10389000EACFCE0149960E9473208B019C01689467
:1038A000EE24E1F8F12C41E06C2D8A2D0E94E11408
:1038B00061E06C0D8A2D0E943D1380EA0E9458132E
:1038C00009C0102FCE0101967C010D5FBB24B3947B
:1038D000BD0CC9CF2C960FB6F894DEBF0FBECDBF7E
:1038E000DF91CF911F910F91FF90EF90DF90CF90DC
:1038F000BF90AF900895CF93DF93EC01FC01E356A6
:10390000FF4F8DB79EB78B970FB6F8949EBF0FBE33
:103910008DBFADB7BEB711968BE201900D928A951F
:10392000E1F7CE010E94961B8DB79EB78B960FB61E
:10393000F8949EBF0FBE8DBFFE01E853FF4F8B97DB
:103940000FB6F8949EBF0FBE8DBFADB7BEB7119630
:103950008BE201900D928A95E1F7CE010E94961BB1
:103960008DB79EB78B960FB6F8949EBF0FBE8DBFD6
:10397000FE01ED50FF4F8B970FB6F8949EBF0FBE20
:103980008DBFADB7BEB711968BE201900D928A95AF
:10399000E1F7CE010E94961B8DB79EB78B960FB6AE
:1039A000F8949EBF0FBE8DBFFE01E25EFE4F8B9767
:1039B0000FB6F8949EBF0FBE8DBFADB7BEB71196C0
:1039C0008BE201900D928A95E1F7CE010E94961B41
:1039D0008DB79EB78B960FB6F8949EBF0FBE8DBF66
:1039E000DF91CF910895FC01808191810297E9F4E4
:1039F00062E086E00E943D1386E90E94581362E06F
:103A000087E00E943D1387E90E94581363E086E037
:103A10000E943D1388E90E94581363E087E00E94EA
:103A20003D1389E90E945813089562E086E00E94E0
:103A30003D1382E90E94581362E087E00E943D1323
:103A400083E90E94581363E086E00E943D1384E9F5
:103A50000E94581363E087E00E943D1385E90E94AD
:103A600058130895DC011896ED91FC911997E131F6
:103A7000F10508F08BC0E85BFF4F0C94842461E0F3
:103A800080E00E943D138BE90E945813089562E084
:103A900080E00E943D138BE90E945813089563E073
:103AA00080E00E943D138BE90E945813089564E062
:103AB00080E00E943D138BE90E945813089561E055
:103AC00080E00E943D138BE90E945813089562E044
:103AD00080E00E943D138BE90E945813089564E032
:103AE00080E00E943D138BE90E945813089563E023
:103AF00080E00E943D138BE90E945813089561E015
:103B000080E00E943D138BE90E945813089562E003
:103B100080E00E943D138BE90E945813089563E0F2
:103B200080E00E943D138BE90E945813089564E0E1
:103B300080E00E943D138BE90E945813089561E0D4
:103B400080E00E943D138BE90E945813089562E0C3
:103B500080E00E943D138BE90E945813089563E0B2
:103B600080E00E943D138BE90E945813089564E0A1
:103B700080E00E943D138BE90E945813089565E090
:103B800080E00E943D138BE90E9458130895CF9363
:103B9000DF93EC010E94E51ACE010E94321DDF91F5
:103BA000CF910895EF92FF920F931F93CF93DF93DE
:103BB000FC01208131812230310511F080E015C0F7
:103BC000EC010E94020A8B019C016894EE24E1F84A
:103BD000F12C41E061E085E00E94C41464E085E0DE
:103BE0000E943D138A810E947713DF91CF911F912C
:103BF0000F91FF90EF90089561E085E00E943D13E2
:103C00008AE90E94581364E085E00E943D138AE926
:103C10000E94581361E088E00E943D138BE90E94E6
:103C2000581364E088E00E943D138BE90E9458130A
:103C30000895FC01208131812230310511F480E0AA
:103C40000895DC010084F185E02DE230F10509F4EE
:103C500047C034F43097A1F0E130F10589F108C094
:103C6000E430F105A9F10CF443C0E530F10599F019
:103C7000E730F10508F047C0E75AFF4F0C94842461
:103C800061E086E00E943D138CE90E9458138DE9A3
:103C90000E94581338C064E086E00E943D138CE90E
:103CA0000E9458138DE90E94581365E086E00E9437
:103CB0003D1383EA0E94581384EA0E94581323C0DC
:103CC00061E085E00E943D138AE90E9458131BC001
:103CD00064E085E00E943D138AE90E94581313C0F6
:103CE00061E088E00E943D138BE90E9458130BC0ED
:103CF00064E088E00E943D138BE90E94581303C0E2
:103D0000CD010E94FC1D0895CF93DF93EC010E942A
:103D1000871BCE010E947B1CCE010E94F31CCE01AA
:103D20000E94191ECE010E94D21DDF91CF910895ED
:103D300027E932E041E062E082E00E947D1464E025
:103D400084E00E943D138BE90E94581324EA32E07C
:103D500041E064E086E00E947D140895CF93DF93F4
:103D6000EC018DE9FB01DE0101900D928A95E1F7EE
:103D7000DE01A356BF4F8AEDFA0101900D928A959C
:103D8000E1F70E94C212E881F981E930F10538F5C6
:103D9000E05AFF4F0C948424CE010E94841E1FC061
:103DA000CE010E94841E1BC0CE010E94C71D17C0F9
:103DB000CE010E946F1713C0CE010E94B9170FC029
:103DC000CE010E942E180BC0CE010E94B51807C06C
:103DD000CE010E94371A03C0CE010E94981E0E9495
:103DE000D712DF91CF910895CF93DF93EC010E941A
:103DF000500BCE0107960E94500BCE010E960E94EA
:103E0000500BCE0145960E94500BCE014C960E945D
:103E1000500BDF91CF910895EF92FF920F931F9374
:103E2000CF93DF93E90137E0FB01DC0101900D92B4
:103E30003A95E1F737E0FA01DC01179601900D920F
:103E40003A95E1F737E0FE01DC011E9601900D92F4
:103E50003A95E1F727E0F701DC015C9601900D92BD
:103E60002A95E1F727E0F801DC01559601900D92C3
:103E70002A95E1F7DF91CF911F910F91FF90EF907D
:103E800008950F931F93CF93DF93EC018B010E9452
:103E90008F0B81111FC0B801CE0107960E948F0BB6
:103EA00081111BC0B801CE010E960E948F0B8111AB
:103EB00017C0B801CE014C960E948F0B811113C020
:103EC000B801CE0145960E948F0B81110FC08FEF74
:103ED0009FEF0EC080E090E00BC081E090E008C052
:103EE00082E090E005C084E090E002C083E090E0D2
:103EF000DF91CF911F910F9108950895ECE7F0E0C5
:103F0000808181648083EAE7F0E080818F6880832C
:103F10000895FC01ACE7B0E08C918E7F8C938C917E
:103F20008D7F8C938C918B7F8C938C91877F8C93DE
:103F30006330710551F06430710569F062307105CC
:103F400079F48C9181608C930BC0ACE7B0E08C91DC
:103F500082608C9305C0ACE7B0E08C9183608C9359
:103F6000AAE7B0E08C9180648C93108281E040E0FD
:103F70009C91282F392F307194FF242F20833323D5
:103F8000B9F3609178007091790080E090E00E9430
:103F90004C232BE43CE340EA5BE30E9403240895B6
:103FA0008093BB0084E88093BC00ECEBF0E0808160
:103FB0008823ECF79091B900987F983129F081E03F
:103FC000983219F480E0089580E00895CF9394EA40
:103FD0009093BC00ECEBF0E090819923ECF790918A
:103FE000B900987F983011F0903161F4C62F0E948B
:103FF000D01F813039F08C2F0E94D01F94E990930C
:10400000BC0004C084E98093BC0081E0CF91089596
:10401000089560E08EE40E94E61F0895EF92FF92FB
:104020000F931F93CF93DF93F901161617060CF029
:104030004FC031E04130510509F030E042305105C8
:1040400009F43260E130F10511F4346003C03297B5
:1040500009F438600130110511F4306104C00230F8
:10406000110509F430628B01EC0181E0E816F104DE
:1040700019F4632F606406C092E0E916F10409F5B3
:10408000632F60688EE40E94E61F1982188289EF10
:1040900090E00197F1F700C00000288139812F5F7F
:1040A0003F4F39832883201731078CF360E08EE47B
:1040B0000E94E61F83ED90E30197F1F700C0000036
:1040C00007C0632F8EE40E94E61F19821882DFCF9B
:1040D000DF91CF911F910F91FF90EF9008958496FB
:1040E0000E947D1F0895CF93DF93EC016881798151
:1040F00084960E94891F6A837B838C839D83DF91D2
:10410000CF9108950F931F93CF93DF93EC018B0111
:1041100084960E947E1F1983088380E090E0A0EAC5
:10412000B0E48E839F83A887B9878AE097EDA3E2E6
:10413000BCE38A879B87AC87BD87CE010E94732032
:104140006E877F87888B998B19A218A21F8E1E8E6F
:10415000DF91CF911F910F910895CF93DF93EC01E1
:104160000E9473208A819B81AC81BD818E8B9F8B45
:10417000A88FB98FDF91CF9108958F929F92AF92C0
:10418000BF92CF92DF92EF92FF92CF93DF93FC0129
:10419000228D222309F458C0238D211158C0EC012F
:1041A0000E9473206B017C016A837B838C839D83D7
:1041B00020E030E0A9016E897F89888D998D0E9469
:1041C0009F22811108C08AE097EDA3E2BCE38E8BA9
:1041D0009F8BA88FB98F20E030E046E953E46E89C9
:1041E0007F89888D998D0E9403244B015C0120E01A
:1041F00030E046E953E4C701B6010E9403249B0165
:10420000AC01C501B4010E9432226DA37EA38FA32D
:1042100098A70E9416237BA36AA37AA769A71C8E7E
:10422000772344F47195619571097BA36AA382E0B9
:1042300090E012C0161617066CF01BA21AA281E0BD
:104240008C8F80E090E008C080E090E005C080E0C6
:1042500090E002C081E090E0DF91CF91FF90EF907D
:10426000DF90CF90BF90AF909F908F900895CF93A5
:10427000DF93EC018A819B81AC81BD818A8B9B8B12
:10428000AC8BBD8BCE010E9473206A837B838C83B1
:104290009D832A893B894C895D890E949F228111D7
:1042A00008C081E08B8F81E090E09F8F8E8F80E04F
:1042B00002C01B8E81E0DF91CF910895FC01858DB6
:1042C00081110FC080A191A1019691A380A36817CD
:1042D00079074CF481E0838F83E090E0978F868F9D
:1042E000089511A210A20895CF92DF92EF92FF924B
:1042F000CF93DF93EC01CE80DF80E884F984A701BF
:1043000096016E897F89888D998D0E94FE2388236E
:1043100024F0CE8ADF8AE88EF98ECA84DB84EC84AE
:10432000FD84A70196016E897F89888D998D0E94F1
:104330009F22181624F0CE8ADF8AE88EF98EDF914C
:10434000CF91FF90EF90DF90CF900895CF92DF92C2
:10435000EF92FF92CF93DF93EC01CE84DF84E88865
:10436000F9880E9473209B01AC01C701B6010E942D
:104370009F22882359F08A819B81AC81BD818E87E1
:104380009F87A88BB98B81E08D8F02C01D8E80E046
:10439000DF91CF91FF90EF90DF90CF900895FC01D7
:1043A000828D91E09827928F0895CF92DF92EF92BD
:1043B000FF921F93CF93DF93EC011A8D1123D1F05D
:1043C000CB01BA012E893F89488D598D0E94332235
:1043D0006E8B7F8B888F998FCE80DF80E884F98405
:1043E000A70196010E94FE23181624F4CE8ADF8AC4
:1043F000E88EF98E812FDF91CF911F91FF90EF9082
:10440000DF90CF900895CF92DF92EF92FF921F93AB
:10441000CF93DF93FC01128D1123D9F09A01AB01E8
:10442000EC0166897789808D918D0E9432226E8B96
:104430007F8B888F998FCA84DB84EC84FD84A701ED
:1044400096010E949F22882324F4CE8ADF8AE88E78
:10445000F98E812FDF91CF911F91FF90EF90DF9028
:10446000CF9008955058BB27AA270E944A220C9447
:10447000C4230E94B62338F00E94BD2320F039F4F3
:104480009F3F19F426F40C94B3230EF4E095E7FB58
:104490000C94AD23E92F0E94D52358F3BA17620775
:1044A00073078407950720F079F4A6F50C94F72399
:1044B0000EF4E0950B2EBA2FA02D0B01B90190013F
:1044C0000C01CA01A0011124FF27591B99F0593F83
:1044D00050F4503E68F11A16F040A22F232F342FCB
:1044E0004427585FF3CF469537952795A795F04019
:1044F0005395C9F77EF41F16BA0B620B730B840B2E
:10450000BAF09150A1F0FF0FBB1F661F771F881FE5
:10451000C2F70EC0BA0F621F731F841F48F487953D
:1045200077956795B795F7959E3F08F0B0CF93952F
:10453000880F08F09927EE0F9795879508950E94A8
:10454000892308F481E008950E94B8220C94C423C2
:104550000E94BD2358F00E94B62340F029F45F3F2B
:1045600029F00C94AD2351110C94F8230C94B3232F
:104570000E94D52368F39923B1F3552391F3951B3A
:10458000550BBB27AA2762177307840738F09F5F74
:104590005F4F220F331F441FAA1FA9F335D00E2EE1
:1045A0003AF0E0E832D091505040E695001CCAF74E
:1045B0002BD0FE2F29D0660F771F881FBB1F261711
:1045C00037074807AB07B0E809F0BB0B802DBF01E8
:1045D000FF2793585F4F3AF09E3F510578F00C94B7
:1045E000AD230C94F8235F3FE4F3983ED4F3869513
:1045F00077956795B795F7959F5FC9F7880F911DD8
:104600009695879597F90895E1E0660F771F881FC3
:10461000BB1F621773078407BA0720F0621B730B76
:10462000840BBA0BEE1F88F7E09508950E941D23B6
:104630006894B1110C94F82308950E94DD2388F04A
:104640009F5798F0B92F9927B751B0F0E1F0660F56
:10465000771F881F991F1AF0BA95C9F714C0B13097
:1046600091F00E94F723B1E008950C94F723672F8F
:10467000782F8827B85F39F0B93FCCF386957795C6
:104680006795B395D9F73EF49095809570956195AF
:104690007F4F8F4F9F4F0895E89409C097FB3EF4DA
:1046A00090958095709561957F4F8F4F9F4F99237F
:1046B000A9F0F92F96E9BB279395F69587957795FD
:1046C0006795B795F111F8CFFAF4BB0F11F460FFBD
:1046D0001BC06F5F7F4F8F4F9F4F16C0882311F015
:1046E00096E911C0772321F09EE8872F762F05C029
:1046F000662371F096E8862F70E060E02AF09A95C4
:10470000660F771F881FDAF7880F9695879597F9B8
:104710000895990F0008550FAA0BE0E8FEEF161652
:104720001706E807F907C0F012161306E407F507A5
:1047300098F0621B730B840B950B39F40A2661F019
:10474000232B242B252B21F408950A2609F4A140BC
:10475000A6958FEF811D811D089597F99F6780E8C9
:1047600070E060E008959FEF80EC089500240A94C3
:104770001616170618060906089500240A9412163C
:104780001306140605060895092E0394000C11F46F
:10479000882352F0BB0F40F4BF2B11F460FF04C01C
:1047A0006F5F7F4F8F4F9F4F089557FD9058440F75
:1047B000551F59F05F3F71F04795880F97FB991F80
:1047C00061F09F3F79F0879508951216130614063D
:1047D000551FF2CF4695F1DF08C0161617061806CA
:1047E000991FF1CF86957105610508940895E894A5
:1047F000BB2766277727CB0197F908950E94892365
:1048000008F48FEF08950E9416240C94C4230E948C
:10481000B62338F00E94BD2320F0952311F00C94AC
:10482000AD230C94B32311240C94F8230E94D523B8
:1048300070F3959FC1F3950F50E0551F629FF001F3
:10484000729FBB27F00DB11D639FAA27F00DB11D0C
:10485000AA1F649F6627B00DA11D661F829F222795
:10486000B00DA11D621F739FB00DA11D621F839F1C
:10487000A00D611D221F749F3327A00D611D231FF2
:10488000849F600D211D822F762F6A2F11249F5740
:1048900050409AF0F1F088234AF0EE0FFF1FBB1F43
:1048A000661F771F881F91505040A9F79E3F510502
:1048B00080F00C94AD230C94F8235F3FE4F3983E12
:1048C000D4F3869577956795B795F795E7959F5FAC
:1048D000C1F7FE2B880F911D9695879597F908953E
:1048E00097FB072E16F4009407D077FD09D00E949D
:1048F0008A2407FC05D03EF4909581959F4F08953A
:10490000709561957F4F0895EE0FFF1F0590F4910C
:10491000E02D0994AA1BBB1B51E107C0AA1FBB1FB6
:10492000A617B70710F0A61BB70B881F991F5A953B
:10493000A9F780959095BC01CD010895F999FECF16
:1049400092BD81BDF89A992780B50895A6E1B0E09F
:1049500044E050E00C94C924262FF999FECF1FBAE9
:1049600092BD81BD20BD0FB6F894FA9AF99A0FBE98
:1049700001960895242F0E94AD24252F0E94AD2476
:104980000C94C2240E94AC24272F0C94AD24DC018B
:10499000CB01FC01F999FECF06C0F2BDE1BDF89A4A
:1049A000319600B40D9241505040B8F70895F894F4
:0249B000FFCF37
:1049B200CAE0EBE8E1F0EEE2EAE000D1EEF5F0E089
:1049C200EDE8F2FC00CEE3F0E0EDE8F7E5EDE8FF1C
:1049D200006D696E006D617800C4E8E0E3EDEEF110
:1049E200F2E8EAE000C4EBE8F2E5EBFCEDEEF1F20E
:1049F200FC00EFF0EEF6E5F1F1E000C2EAEBFEF7C3
:104A0200E8F2FC00EEF2EA00E2EAEB00CEF8E8E1BE
:104A1200EAE800312ED1F2EEE9EAE000322ED1F2DC
:104A2200EEE9EAE000332ED1F2EEE9EAE000342EBC
:104A3200D1F2EEE9EAE000D1E1F0EEF100C2FBF5DD
:104A4200EEE4002D2D004500CEF8E8E1EEEA20ED7F
:104A5200E5F200CEF8E8E1EAE020C500EDE5F2205B
:104A6200EEF2E2E5F2E020F1F2EEE9EAE820EFF020
:104A7200E820EFEEEFFBF2EAE520E8E7ECE5EDE80F
:104A8200F2FC20E5E520EFEEEBEEE6E5EDE8E500F1
:104A9200EDE5E2EEE7E6ECEEE6EDEE20E2FBF1F22A
:104AA200E0E2E8F2FC20E7E0E4E0EDEDEEE520EF05
:104AB200EEEBEEE6E5EDE8E500E7E0E2E8F1E0ED59
:104AC200E8E520E4E0F2F7E8EAE020EFEEEBEEE6DC
:104AD200E5EDE8FF20E2EE20E2F0E5ECFF20E4E283
:104AE200E8E6E5EDE8FF003120D1F2EEE9EAE00088
:104AF2003220D1F2EEE9EAE0003320D1F2EEE9EA27
:104B0200E0003420D1F2EEE9EAE000CCC5CDDE00CF
:104B1200D3F1F2E0EDEEE2E8F2FC00CDE0F1F2F0EA
:104B2200EEE9EAE800CFE0F0EAEEE2EAE000CDE802
:104B3200E6EDE5E520EFEEE72E00C2E5F0F5EDFF4C
:104B4200FF20EFEEE72E00D1EEF5F0E0EDE5EDEE21
:084B52002E2E2E00CEEA000019
:00000001FF
