S0120000436172537570706F72742E73726563FF
S11300000C9451040C9479040C9479040C947904A0
S11300100C9479040C9479040C9479040C94790468
S11300200C9479040C9479040C9479040C94790458
S11300300C9479040C9479040C9479040C94790448
S11300400C9479040C9479040C9479040C94790438
S11300500C9479040C9479040C9479040C94790428
S11300600C9479040C947904020A060A0B0A100A07
S1130070150A1A0A1F0A240A2A0A300A360AD90B50
S1130080DC0BDF0BE20BE50BE80BEB0BEE0BF10BE0
S1130090A91EB11EB91EC11EC91ED11EE11ED91E44
S11300A0E91EF11EF91E011F091F111F191F211F2F
S11300B0291F9E1FBF1FCF1FD71FC71FA91FB41FF4
S11300C0DF1F8E209A209420A020A620AC20B220EE
S11300D0B820BE200AD7233C0AD7A33C8FC2F53CE4
S11300E00AD7233DCDCC4C3D8FC2753D295C8F3D55
S11300F00AD7A33DEC51B83DCDCCCC3D8FC2F53DE4
S11301009A99193ECDCC4C3E9A99993E0000003FF5
S11301100000403F0000803F0000C03F000000405E
S113012000004040C0C0E0A0A0A0909090908888BB
S11301308884848484828282828181FFC0C0E0E0DA
S1130140A0A09090909088888884848484828282FD
S1130150828181FFC0C0E0E0E0A090909090888808
S11301608884848484828282828181FFC0C0E0E0AA
S1130170E0E0F090909088888884848484828282ED
S1130180828181FFC0C0E0E0E0E0F0F090908888D8
S11301908884848484828282828181FFC0C0E0E07A
S11301A0E0E0F0F0F09088888884848484828282FD
S11301B0828181FFC0C0E0E0E0E0F0F0F0F08888E8
S11301C08884848484828282828181FFC0C0E0E04A
S11301D0E0E0F0F0F0F0F8888884848484828282FD
S11301E0828181FFC0C0E0E0E0E0F0F0F0F0F8F8D8
S11301F08884848484828282828181FFC0C0E0E01A
S1130200E0E0F0F0F0F0F8F8F884848484828282EC
S1130210828181FFC0C0E0E0E0E0F0F0F0F0F8F8A7
S1130220F8FC848484828282828181FFC0C0E0E001
S1130230E0E0F0F0F0F0F8F8F8FCFC8484828282CC
S1130240828181FFC0C0E0E0E0E0F0F0F0F0F8F877
S1130250F8FCFCFC84828282828181FFC0C0E0E0E1
S1130260E0E0F0F0F0F0F8F8F8FCFCFCFC828282AC
S1130270828181FFC0C0E0E0E0E0F0F0F0F0F8F847
S1130280F8FCFCFCFCFE8282828181FFC0C0E0E0BD
S1130290E0E0F0F0F0F0F8F8F8FCFCFCFCFEFE8284
S11302A0828181FFC0C0E0E0E0E0F0F0F0F0F8F817
S11302B0F8FCFCFCFCFEFEFE828181FFC0C0E0E095
S11302C0E0E0F0F0F0F0F8F8F8FCFCFCFCFEFEFED8
S11302D0FE8181FFC0C0E0E0E0E0F0F0F0F0F8F86B
S11302E0F8FCFCFCFCFEFEFEFEFF81FFC0C0E0E06B
S11302F0E0E0F0F0F0F0F8F8F8FCFCFCFCFEFEFEA8
S1130300FEFFFFFF0000000000000000005F00008F
S1130310000000070007000000147F147F14000091
S1130320242A7F2A1200004C2C10686400003649ED
S1130330552250000000050300000000001C22416B
S11303400000000041221C00000014083E081400B4
S11303500008083E080800000000503000000010AB
S11303601010101000000060600000000020100851
S1130370040200003E5149453E000000427F400017
S11303800000426151494600002141454B310000C3
S11303901814127F100000274545453900003C4AD7
S11303A049493000000171090503000036494949F3
S11303B0360000064949291E0000003636000000B8
S11303C0000056360000000008142241000000140A
S11303D014141414000000412214080000020151F6
S11303E009060000324979413E00007E1111117E58
S11303F000007F4949493600003E41414122000046
S11304007F4141221C00007F4949494100007F0986
S113041009090100003E4149497A00007F080808A3
S11304207F000000417F410000002040413F010067
S1130430007F0814224100007F4040404000007FBC
S1130440020C027F00007F0408107F00003E41413F
S1130450413E00007F0909090600003E4151215E2A
S113046000007F0919294600004649494931000026
S113047001017F010100003F4040403F00001F2078
S113048040201F00003F4038403F00006314081420
S113049063000007087008070000615149454300E4
S11304A000007F4141000000020408102000000009
S11304B041417F000000040201020400004040406A
S11304C0404000000001020400000020545454780D
S11304D000007F484444380000384444442000006D
S11304E0384444487F000038545454180000087EAF
S11304F009010200000C5252523E00007F0804041D
S113050078000000447D400000002040443D00008D
S1130510007F10284400000000417F400000007C60
S11305200418047800007C0804047800003844446B
S1130530443800007C141414080000081414187CB7
S113054000007C08040408000048545454200000AF
S1130550043F44402000003C4040207C00001C201C
S113056040201C00003C4030403C0000442810283F
S11305704400000C5050503C00004464544C44006F
S1130580000008364100000000007F000000000069
S113059041360800000008040810080000FFFFFFAF
S11305A0FFFF00000000E0F0F8F800F8F8F0E000C9
S11305B000000000FFFFFFFF00FFFFFFFF0000003F
S11305C00000070F1F1F001F1F0F0700000000007F
S11305D0E010080800080810E00000000000FF0018
S11305E0000000000000FF000000000007081010D9
S11305F000101008070000004080E0100808000800
S11306000810E08040000000FF4224180018244233
S1130610FF00000002010708101000101008070175
S1130620020000006050484400444850600000004C
S11306300000060A12220022120A0600000000002E
S11306406070787C007C7870600000000000060E0A
S11306501E3E003E1E0E06000000183C7EE7000011
S1130660000000E77E3C180000002030381C001C0D
S113067038302000000000002A2A2A2A002A2A2AC8
S11306802A2A00000000000000030000183C7EE756
S1130690000000E77E3C180000000000E7E742008D
S11306A042E7E700000000000008183870007038C6
S11306B018080000004080E0F0F8F800F8F8F0E0D6
S11306C080400000007EBDDBE700E7DBBD7E00006C
S11306D0000201070F1F1F001F1F0F070102007CEC
S11306E01211127C00007F4949493100007F4949B9
S11306F0493600007F010101010000603F213F6095
S113070000007F49494941000077087F08770000CD
S1130710224149493600007F1008047F00007E1002
S113072009047E00007F081422410000403E0101BC
S11307307F00007F020C027F00007F0808087F0012
S1130740003E4141413E00007F0101017F00007FE6
S11307500909090600003E41414122000001017FD0
S113076001010000074848483F00000E117F110EA8
S11307700000631408146300003F20203F60000061
S1130780070808087F00007F407E407F00003F206C
S11307903F207F0000017F48483000007F48300040
S11307A07F0000007F4848300000224149493E0054
S11307B0007F083E413E0000462919097F000020C1
S11307C05454547800003C4A4A4A3100007C545442
S11307D0280000007C04040C000000603C243C6001
S11307E00000385454541800006C107C106C000045
S11307F0004454542800007C2010087C00007C2114
S113080012097C00007C10284400000040380404D5
S11308107C00007C0810087C00007C1010107C0018
S113082000384444443800007C0404047C00007C08
S11308301414140800003844444400000004047CE8
S1130840040400000C5050503C000008147C1408B0
S11308500000442810284400003C20203C60000094
S11308600C1010107C00007C407C407C00003C207C
S11308703C207C0000047C50502000007C50200070
S11308807C0000007C505020000028445454380060
S1130890007C103844380000485434147C000000B4
S11308A09B1811241FBECFEFD8E0DEBFCDBF13E0ED
S11308B0A0E0B1E0EEE7FEE402C005900D92A234A0
S11308C0B107D9F726E0A2E4B3E001C01D92AA3F24
S11308D0B207E1F714E0C1E5D4E004C02197FE01BA
S11308E00E94EA26C035D107C9F70E9478180C94F3
S11308F03D270C94000084569F4FFC0110820895FC
S1130900CF92DF92EF92FF920F931F93CF93DF93D7
S1130910EC01CB018A0164E670E00E9421219C0174
S1130920255031092230310508F4AAC08F3F2FEF3A
S1130930920729F41B821C821D821E82A1C02F8172
S1130940223159F4009709F0A0C081E088839CE02B
S11309509F83C856DF4F888393C08230910509F482
S113096053C024F4019709F452C053C08330910555
S113097019F0049731F14DC078018EEAE80EF11CAC
S11309802AE037ED43E25CE36B817C818D819E81BB
S11309900E9499249B01AC01F701608171818281DD
S11309A093810E949824F7016083718382839383E7
S11309B08CEE91E5A8EBBDE38B839C83AD83BE8372
S11309C028C07801FEEAEF0EF11C2AE037ED43E27D
S11309D05CE36B817C818D819E810E949924F70167
S11309E020813181428153810E949924F7016083DF
S11309F07183828393838CEE91E5A8EBBDE38B83B3
S1130A009C83AD83BE8305C02F5F2F8302C021501A
S1130A102F838F818231B0F581E18F83F801E25514
S1130A20FF4FC080D180E280F38020E030E0A90154
S1130A30C701B6010E940525181664F0F801E255B5
S1130A40FF4F8AE097EDA3E2BCE380839183A28306
S1130A50B38315C020E030E040E450E4C701B601A0
S1130A600E94642688235CF0F801E255FF4F80E081
S1130A7090E0A0E4B0E480839183A283B38316C0A2
S1130A8080E014C082E18F83C9CF8230910509F4DC
S1130A90BBCF24F4019709F4BACFF4CF8330910586
S1130AA009F46ACF049709F48CCFECCFDF91CF918E
S1130AB01F910F91FF90EF90DF90CF900895CF9208
S1130AC0DF92EF92FF920F931F93CF93DF93EC018A
S1130AD0CB018A0164E670E00E9421219C0125502B
S1130AE031092230310508F424C18F3F2FEF9207DA
S1130AF029F41B821C821D821E821BC12F81253179
S1130B0059F4009709F017C181E088839DE09F8321
S1130B10C856DF4F88830DC18230910509F490C017
S1130B2024F4019709F48FC090C08330910521F01B
S1130B30049709F445C089C02331E9F4780182EBB4
S1130B40E80EF11C2AE037ED43E25CE36B817C8123
S1130B508D819E810E9499249B01AC01F7016081E3
S1130B607181828193810E949824F701608371834B
S1130B70828393831CC07801F6EBEF0EF11C2AE00C
S1130B8037ED43E25CE36B817C818D819E810E9421
S1130B9099249B01AC01F701608171818281938169
S1130BA00E949824F70160837183828393838CEE7F
S1130BB091E5A8EBBDE38B839C83AD83BE8345C0E5
S1130BC02331D9F47801F2EBEF0EF11C2AE037ED72
S1130BD043E25CE36B817C818D819E810E94992438
S1130BE0F70120813181428153810E949924F701C8
S1130BF060837183828393831AC07801F6EBEF0ECE
S1130C00F11C2AE037ED43E25CE36B817C818D814A
S1130C109E810E949924F701208131814281538170
S1130C200E949924F70160837183828393838CEEFD
S1130C3091E5A8EBBDE38B839C83AD83BE8305C0A4
S1130C402F5F2F8302C021502F838F81843118F4AA
S1130C5083E18F8305C08F81853110F085E18F8317
S1130C6020E030E0A901F801EE54FF4F608171816A
S1130C70828193810E94052518163CF0F801EE54F8
S1130C80FF4F108211821282138220E030E040EA8A
S1130C9050E4F801EA54FF4F6081718182819381AD
S1130CA00E94642688235CF080E090E0A0EAB0E42F
S1130CB0F801EA54FF4F80839183A283B3838F8129
S1130CC0833119F08431D9F033C0F801EA54FF4F6D
S1130CD0C080D180E280F380A701960134976081BF
S1130CE07181828193810E94642688230CF1F8012A
S1130CF0EE54FF4FC082D182E282F38219C0F80120
S1130D00EE54FF4FC080D180E280F380A7019601AA
S1130D10349660817181828193810E940525181621
S1130D203CF0F801EA54FF4FC082D182E282F382A0
S1130D3013C080E011C08230910509F481CF24F4FE
S1130D40019709F480CF87CF8330910509F4F4CE5D
S1130D50049709F435CF7FCFDF91CF911F910F9185
S1130D60FF90EF90DF90CF900895CF92DF92EF92B3
S1130D70FF920F931F93CF93DF93EC01CB018A0172
S1130D8064E670E00E9421219C0125503109223043
S1130D90310508F4CFC08F3F2FEF920729F41B824F
S1130DA01C821D821E82C6C08130910539F08230BA
S1130DB0910539F42F812F5F2F8303C02F81215098
S1130DC02F832F81273118F426E12F8312C0283175
S1130DD018F028E12F8363C02F81273151F4009745
S1130DE041F4C8010E944F138F81883109F06FC00C
S1130DF05EC02F81263109F052C08330910521F065
S1130E008430910531F14BC078018AEBE80EF11C76
S1130E1020E030E040E85FE36B817C818D819E813E
S1130E200E9499249B01AC01F70160817181828148
S1130E3093810E949824F701608371838283938352
S1130E4080E090E0A0E1B1E48B839C83AD83BE831A
S1130E503EC07801FAEBEF0EF11C20E030E040E8F0
S1130E605FE36B817C818D819E810E949924F701CF
S1130E7020813181428153810E949924F70160834A
S1130E8071838283938380E090E0A0E1B1E48B835B
S1130E909C83AD83BE838F818831C9F410C02F81B8
S1130EA02831A9F4009719F0049789F408C081E067
S1130EB088839EE09F83C856DF4F88833BC081E0D0
S1130EC088839EE09F83C856DF4F888333C0F80130
S1130ED0E654FF4FC080D180E280F38020E030E010
S1130EE040EA50E4C701B6010E940525181664F0D3
S1130EF0F801E654FF4F80E090E0A0EAB0E480837C
S1130F009183A283B38315C020E030EC49E754E415
S1130F10C701B6010E94642688235CF0F801E654F8
S1130F20FF4F80E090ECA9E7B4E480839183A2832F
S1130F30B38301C080E0DF91CF911F910F91FF90A7
S1130F40EF90DF90CF9008950F931F93CF93DF938B
S1130F50EC01CB018A0164E670E00E9421219C012E
S1130F60255031092230310508F468C08F3F2FEF36
S1130F70920709F463C0009739F48F818D31A1F48D
S1130F80C8010E9457135AC08430910531F48F81EF
S1130F908D3191F48EE18F8351C08230910581F4BB
S1130FA08F818D31C9F54AC08F818E3151F581E031
S1130FB088838FE08F8342C08F818E3151F53EC08C
S1130FC08330910531F48F818E31F1F48DE18F837B
S1130FD035C08130910531F48F818E3109F58CE172
S1130FE08F832CC082309105B9F02CF4009749F01E
S1130FF00197B1F018C08330910531F0049799F44A
S113100008C087E088830FC081E088838FE08F83E6
S113101015C087E0888307C08F818F5F8F8303C0EB
S11310208F8181508F838F818A3118F489E18F8376
S113103004C08E3110F08EE18F8301C080E0DF9117
S1131040CF911F910F910895CF93DF93EC01CB01C2
S113105064E670E00E9421219C0125503109223070
S1131060310528F0019619F086E0888301C080E0FC
S1131070DF91CF9108950F931F93CF93DF93EC01EA
S1131080CB01FE01EA56FF4F10823196108220E117
S113109030E03A83298308E00F8311E018830E942B
S11310A08E131B8792E09C8786E6898765E06A87B2
S11310B08887198B1A8A1F8724E0288B84E68E87F9
S11310C02BA346E04CA319A32AA388A319A79AA784
S11310D01FA248A735E63EA34D8F33E03E8F9B8F7A
S11310E03C8F8A8F1F8A988F9D8B3E8B8C8B2FA76A
S11310F038AB6DA782E78EA78CA787E68DAB0EABC6
S11311001BAA1CAB0AAB8AAF2BAF18AE99AF2FAB9F
S11311108FAFFE01E05CFF4F5CE050831DAF3EAF3C
S11311205CAF349680833196808333979083319675
S113113030833297808338961083319638E6308333
S113114033972083319660833297308338961083A7
S1131150319639E630833397208331964083329732
S113116030833896108331963AE630833397608320
S1131170319627E020833297308338961083319656
S113118080833397408331962083329780833896C7
S1131190108231963BE6308333970083319629E001
S11311A02083329730833896108231964CE6408300
S11311B03397008331963AE03083329740833896F0
S11311C0108231964DE640833397208331962BE08D
S11311D020833297408338961082319680833397E8
S11311E0308331962083329780833896908331966A
S11311F02EE620833397508331963DE03083329737
S113120020833896908331964FE6408333975083FA
S113121031962EE02083329740833896908331961E
S113122040E740833397308331963FE030833297F1
S1131230408338969083319641E7408333972083E7
S1131240319620E1208332974083389690833196FB
S113125080833397308331962083CE57DF4F888342
S1131260DF91CF911F910F9108950F931F93CF9307
S1131270DF93EC018B018F81823069F018F48130A7
S113128031F019C0833061F0843081F014C0CB0197
S11312900E942A2410C0CB018B960E942A240BC0E2
S11312A0CB018A5A9F4F0E942A2405C0CB018F5735
S11312B09F4F0E942A24FE01E456FF4F8081811132
S11312C00DC0C8010E94940D882341F088E08883F2
S11312D0C656DF4F81E090E099838883DF91CF91F8
S11312E01F910F910895FC01EA56FF4F21E02083DE
S11312F0FC012781253041F0263061F0243079F457
S1131300E756FF4F10820BC021E0FC01E756FF4F68
S1131310208305C022E0FC01E756FF4F208328E02C
S1131320FC012083E656FF4F118210820895DC01F0
S11313301196ED91FC911297EE0FFF1FEE0FFF1F18
S1131340EC52FF4F65917591859194910895FC013C
S1131350DC01A956BF4F81E08C938781893039F035
S11313608A3059F0883071F412961C920BC081E0D7
S1131370DF01A756BF4F8C9305C082E0DF01A7565B
S1131380BF4F8C9382E08083178208950F931F933D
S1131390CF93DF93EC018B01CA010E94B81264E67B
S11313A070E0C8010E9421218530910521F4188242
S11313B01F8280E065C08630910521F418821F8267
S11313C080E05EC08F3F2FEF920709F458C02F8151
S11313D030E0A901440F551F440F551F240F351F3A
S11313E02C0F3D1FF901E80FF91F22A9822F90E06D
S11313F0FC01E756F109EB30F105F0F5EC5CFF4F29
S11314000C94EA2618821F8281E03AC0CE010E9421
S1131410730981E035C0CE010E94730981E030C0B8
S1131420CE010E94730981E02BC0CE010E94A7095E
S113143081E026C0CE010E94A70981E021C0CE012F
S11314400E94A70981E01CC083E0888381E18F8327
S113145081E016C084E0888383E18F8381E010C03B
S113146085E0888386E18F8381E00AC086E08883F3
S11314708DE18F8381E004C02F8381E001C080E08F
S1131480DF91CF911F910F910895CF93DF93EC01DA
S1131490CB0164E670E00E942121019611F480E002
S11314A005C01882C456DF4F81E08883DF91CF9155
S11314B008950F931F93CF93DF938C01CB01EA011F
S11314C064E670E00E942121019611F480E006C0D8
S11314D0C154DF4F1882F80110821782DF91CF9137
S11314E01F910F910895FC01E656FF4F2081318131
S11314F021303105C9F01CF4232B41F0089522302A
S11315003105A9F023303105A9F008952FE33DE01A
S113151043E0215030404040E1F700C0000021E0AA
S1131520FC012083278308950E94450A08950E94A0
S1131530590A0895FFE32DE033E0F1502040304094
S1131540E1F700C00000FC01108217820895EF92B9
S1131550FF920F931F93CF93DF93EC018B017A01DA
S1131560FC01E456FF4F808181110EC0CB010E9423
S1131570940D882349F088E0888381E090E0FE019F
S1131580E656FF4F91838083C8010E944113C8012E
S11315900E94BA13811108C088E08883C656DF4FC1
S11315A083E090E09983888385E0E816F10429F0CC
S11315B086E0E816F10429F007C0C8010E94E80C8F
S11315C003C0C8010E943E0DDF91CF911F910F917E
S11315D0FF90EF900895EF92FF920F931F93CF9394
S11315E0DF93EC017B018A01CA010E94B81264E610
S11315F070E0C7010E942121AC010597029730F4E5
S1131600B801CE010E94A70A80E039C04F3F8FEF96
S11316105807A1F19F81292F30E0C901880F991F34
S1131620280F391F220F331F2C0F3D1FF901E40F20
S1131630F51F80858536A1F018F4843631F01BC07F
S11316408636A9F0823739F016C0B801CE010E945F
S1131650350981E014C0C8010E948E1381E00FC0D7
S113166082E08883C8010E94D20C81E008C081E036
S113167088831F8204C08F8381E001C080E0DF91F2
S1131680CF911F910F91FF90EF900895EF92FF92E9
S11316900F931F93CF93DF938C01CB017A0164E600
S11316A070E00E942121EC010597029730F4AE010D
S11316B0B701C8010E94A70A55C0CF3F8FEFD807D2
S11316C009F450C0C7010E94BA13811109C088E00F
S11316D0F801808383E090E0E656FF4F9183808396
S11316E0C230D105C1F02CF4209749F0219751F074
S11316F028C0C330D105C1F02497E9F022C0F80115
S113170010821FC0C8010E949709AB01BC01C70128
S11317100E94661216C0C8010E949709AB01BC0161
S1131720C7010E948F120DC0F80181819281019737
S11317309283818306C0F80181819281019692830C
S11317408183F80181819281181619061CF0128296
S1131750118207C043972CF083E190E0F801928353
S1131760818301C080E0DF91CF911F910F91FF90A1
S1131770EF9008950F931F93FA01E154FF4F2081D6
S1131780222359F028E0DC012C9322E030E0FC0114
S1131790E656FF4F3183208324C0DC01EC910E2FE9
S11317A010E009301105F8F4F801E15CFF4F0C94E6
S11317B0EA260E94EB0A17C00E94C60914C00E94C0
S11317C0460B11C00E9480040EC00E945F050BC02E
S11317D00E94B50608C00E94A40705C00E94240800
S11317E002C00E94730A1F910F91089521E0FC0129
S11317F0208328E0278308950895FC0160834183B2
S1131800528384EF91E0968385836334A1F064343A
S113181011F1623479F524B181E090E002C0880FBF
S1131820991F4A95E2F7982F9095922394B995B110
S1131830892B85B9089527B181E090E002C0880F13
S1131840991F4A95E2F7982F9095922397B998B1EA
S1131850892B88B908952AB181E090E002C0880FED
S1131860991F4A95E2F7982F909592239AB99BB1C4
S1131870892B8BB90895FC01772374F1808183341B
S113188079F08434B9F0823409F06AC083B190E00D
S1131890018002C0959587950A94E2F7817013C080
S11318A086B190E0018002C0959587950A94E2F78D
S11318B0817009C089B190E0018002C09595879537
S11318C00A94E2F78170882309F44EC084EF91E012
S11318D09683858380E0089514821382858196819E
S11318E01816190634F036C02581368182179307FD
S11318F08CF58081833471F08434B1F0823491F5B5
S113190023B130E0018002C0359527950A94E2F7AF
S1131910217013C026B130E0018002C035952795AF
S11319200A94E2F7217009C029B130E0018002C0B5
S1131930359527950A94E2F7217089EF90E0019795
S1131940F1F700C00000838194810196948383831E
S1131950222351F284E690E09683858381E0089502
S113196080E0089580E0089514821382B7CFCF9366
S1131970DF93EC010E94C422CE018B960E94C42204
S1131980CE018A5A9F4F0E94C422CE018F579F4F87
S11319900E94C422CE0184559F4F0E94FC21DF91F6
S11319A0CF910895CF93DF93EC010E940223CE01DF
S11319B08B960E940223CE018A5A9F4F0E940223D3
S11319C0CE018F579F4F0E940223DF91CF9108953C
S11319D0EF92FF920F931F93FC01228D222329F093
S11319E021E0E753FF4F208304C0FC01E753FF4F7E
S11319F01082FC01EB5BFF4F2081222329F021E0C0
S1131A00EB57FF4F208304C0FC01E653FF4F1082C5
S1131A10FC01E059FF4F2081222329F021E0E55AFF
S1131A20FF4F208304C0FC01E553FF4F1082FC01EB
S1131A30E556FF4F2081222321F021E0F1962083F7
S1131A4004C0FC01E453FF4F1082FC01E453FF4F38
S1131A50E080F12C3197008110E03197208130E053
S1131A603197408150E06AE070E084559F4F0E94B6
S1131A7063221F910F91FF90EF900895EF92FF92D0
S1131A800F931F93FC01228D222329F022E0E753B8
S1131A90FF4F208304C0FC01E753FF4F1082FC0179
S1131AA0EB5BFF4F2081222329F022E0EB57FF4F0D
S1131AB0208304C0FC01E653FF4F1082FC01E0596F
S1131AC0FF4F2081222329F022E0E55AFF4F208393
S1131AD004C0FC01E553FF4F1082FC01E556FF4FA3
S1131AE02081222321F022E0F196208304C0FC010E
S1131AF0E453FF4F1082FC01E453FF4FE080F12CCC
S1131B003197008110E03197208130E03197408196
S1131B1050E06AE070E084559F4F0E9463221F9159
S1131B200F91FF90EF900895CF93DF93EC010E9403
S1131B308D24811112C0CE018B960E948D248111B7
S1131B400CC0CE018A5A9F4F0E948D24811105C07A
S1131B50CE018F579F4F0E948D24DF91CF9108951E
S1131B60CF93DF93FC01DC01AA54BF4F8D919D916B
S1131B700D90BC91A02D86839783A087B18781ABFC
S1131B8092ABA3ABB4ABEF01C45ADF4F8883998304
S1131B90AA83BB83AB9688839983AA83BB83DF0123
S1131BA0AE54BF4F8D919D910D90BC91A02D828715
S1131BB09387A487B58785AB96ABA7ABB0AFA79740
S1131BC088839983AA83BB83E557FF4F80839183DE
S1131BD0A283B383DF91CF910895CF93DF93EC0178
S1131BE00E94CF23CE018B960E94CF23CE018A5A26
S1131BF09F4F0E94CF23CE018F579F4F0E94CF2328
S1131C00DF91CF9108954F925F926F927F928F925E
S1131C109F92AF92BF92CF92DF92EF92FF920F9377
S1131C201F93CF93DF93EC010E94C8224E018BE2F5
S1131C30880E911CC4010E94C8225E0196E5A90E7B
S1131C40B11CC5010E94C8226E01E1E8CE0ED11C70
S1131C50C6010E94C8223E01FCEA6F0E711CEE24EC
S1131C60E394F12C01E010E021E030E041E050E0A9
S1131C706AE070E0C3010E940222CE010E948C231C
S1131C802E019FEC490E511C90E0F2019183808358
S1131C90C4010E948C23FE01EF52FF4F90E0918318
S1131CA08083C5010E948C23FE01ED52FF4F90E01A
S1131CB091838083C6010E948C23FE01EB52FF4F67
S1131CC090E0918380836894EE24E1F8F12C02E0A3
S1131CD010E022E030E042E050E06AE070E0C3014E
S1131CE00E940222F20180819181892B79F032963F
S1131CF080819181892B51F0329680819181892B49
S1131D0029F0329680819181892B31F4C154DF4FBF
S1131D1081E0888380E001C081E0DF91CF911F9151
S1131D200F91FF90EF90DF90CF90BF90AF909F9076
S1131D308F907F906F905F904F900895CF93DF9333
S1131D40EC0161E070E00E94D72262E070E0CE0115
S1131D508B960E94D72263E070E0CE018A5A9F4F8F
S1131D600E94D72264E070E0CE018F579F4F0E94FB
S1131D70D722CE0184559F4F0E94FD21FE01E752D8
S1131D80FF4F81E090E091838083CE010E94030E97
S1131D90DF91CF910895CF93DF93FC01E054FF4F7F
S1131DA0DC0192962D913C91939731832083AE531D
S1131DB0BF4FEC01C35BDF4F2881398111963C93FF
S1131DC02E931296AB962881398111963C932E93CB
S1131DD01296AB96288139812D933C93DF01AC0197
S1131DE048535F4F619171911616170624F0E4175A
S1131DF0F507C1F727C06115710539F12D913D91A2
S1131E001216130624F4261737070CF4B901A41785
S1131E10B507A1F76333710514F062E370E0EC01D8
S1131E20072E000C880B990B0E94B425C255DF4F76
S1131E30288139814A815B810E9469260E947C2520
S1131E40CB0105C080E090E002C080E090E0DF912B
S1131E50CF910895CF92DF92EF92FF920F931F9349
S1131E60CF93DF93CDB7DEB78B859C858230910508
S1131E7071F01CF4019739F01DC08330910571F0A5
S1131E800497A1F017C0CC24C394D12C13C0CC2444
S1131E90C3940F2EFBE0DF2EF02D0CC06894CC24ED
S1131EA0C2F80F2EFBE0DF2EF02D04C06894CC2482
S1131EB0C2F8D12CCE010B960E94C8228B019C0142
S1131EC06894EE24E1F8F12C41E06C2D8D2D0E94F4
S1131ED0A6160E949C14DF91CF911F910F91FF9041
S1131EE0EF90DF90CF9008954F925F926F927F9220
S1131EF08F929F92AF92BF92CF92DF92EF92FF9216
S1131F000F931F93CF93DF93EC010E9412236E0172
S1131F1099ECC90ED11CF60180838DB79EB78B97BF
S1131F200FB6F8949EBF0FBE8DBFADB7BEB7119666
S1131F308BE2FE0101900D928A95E1F7CE010E9499
S1131F402A0F5E019BE2A90EB11CEDB7FEB7BB964A
S1131F500FB6F894FEBF0FBEEDBFC5010E94122359
S1131F604E01FAEC8F0E911CF40180838DB79EB75D
S1131F708B970FB6F8949EBF0FBE8DBFADB7BEB79B
S1131F8011968BE2F50101900D928A95E1F7CE014D
S1131F900E942A0F3E0196E5690E711CEDB7FEB74B
S1131FA0BB960FB6F894FEBF0FBEEDBFC3010E94EF
S1131FB012238E0105531F4FF80180838DB79EB7FE
S1131FC08B970FB6F8949EBF0FBE8DBFADB7BEB74B
S1131FD011968BE2F30101900D928A95E1F7CE01FF
S1131FE00E942A0F2E0191E8490E511CEDB7FEB74D
S1131FF0BB960FB6F894FEBF0FBEEDBFC2010E94A0
S113200012237E01FCECEF0EF11CF70180838DB7E7
S11320109EB78B970FB6F8949EBF0FBE8DBFADB71A
S1132020BEB711968BE2F20101900D928A95E1F709
S1132030CE010E942A0FEDB7FEB7BB960FB6F894F7
S1132040FEBF0FBEEDBFF701E080F12CF801008167
S113205010E0F401208130E0F601408150E06AE0B4
S113206070E0CE0184559F4F0E940222F6018081C8
S1132070882351F0CE010E948C23FE01E153FF4FCF
S113208090E09183808307C081E090E0FE01E153FA
S1132090FF4F91838083FE01E653FF4F80818823A5
S11320A051F0C5010E948C23FE01EF52FF4F90E0D6
S11320B09183808307C081E090E0FE01EF52FF4FDF
S11320C091838083FE01E553FF4F8081882351F083
S11320D0C3010E948C23FE01ED52FF4F90E09183D7
S11320E0808307C081E090E0FE01ED52FF4F9183B1
S11320F08083FE01E453FF4F8081882351F0C201A5
S11321000E948C23FE01EB52FF4F90E09183808369
S113211007C081E090E0FE01EB52FF4F9183808382
S1132120FE01E153FF4F80819181892B79F0329632
S113213080819181892B51F0329680819181892B04
S113214029F0329680819181892B31F4C154DF4F7B
S113215081E0888380E001C081E0DF91CF911F910D
S11321600F91FF90EF90DF90CF90BF90AF909F9032
S11321708F907F906F905F904F9008952F923F9231
S11321804F925F926F927F928F929F92AF92BF9283
S1132190CF92DF92EF92FF920F931F93CF93DF932F
S11321A0CDB7DEB72E970FB6F894DEBF0FBECDBF06
S11321B09E878D870E94ED0DED85FE85E952FF4FC8
S11321C081E090E0918380838D859E850E94740FC9
S11321D0882309F462C1ED85FE85E952FF4F8081B1
S11321E09181181619060CF058C1812C912C6D841C
S11321F07E8429EC620E711C8D859E858B969A8354
S113220089834D845E849AEC490E511CED85FE85CC
S1132210EA5AFF4FFC83EB832D843E84FBEC2F0EA4
S1132220311C2D853E852F573F4F3E832D838D8551
S11322309E8584539F4F98878F83ED85FE85E95251
S1132240FF4FFA87E9872D853E8524553F4F3C870C
S11322502B8705C098EC8916910409F4BDC08D85BF
S11322609E850E941223F30180832DB73EB72B5223
S113227031090FB6F8943EBF0FBE2DBFADB7BEB740
S113228011968BE2ED85FE8501900D928A95E1F71A
S11322908D859E850E942A0F0FB6F894DEBF0FBE6F
S11322A0CDBF89819A810E941223F20180832DB7C8
S11322B03EB72B5231090FB6F8943EBF0FBE2DBF67
S11322C0ADB7BEB711968BE2E981FA8101900D9208
S11322D08A95E1F78D859E850E942A0F0FB6F894A2
S11322E0DEBF0FBECDBF8B819C810E941223F10102
S11322F080832DB73EB72B5231090FB6F8943EBFF9
S11323000FBE2DBFADB7BEB711968BE2EB81FC813A
S113231001900D928A95E1F78D859E850E942A0F82
S11323200FB6F894DEBF0FBECDBF8D819E810E9493
S11323301223EF81F88580832DB73EB72B523109E4
S11323400FB6F8943EBF0FBE2DBFADB7BEB7119602
S11323508BE2ED81FE8101900D928A95E1F78D85E6
S11323609E850E942A0FF301A080B12CF201C08047
S1132370D12CF101008110E0EF81F885E080F12C8F
S1132380C5018C0D9D1D800F911F8E0D9F1DE9852C
S1132390FA85918380830FB6F894DEBF0FBECDBF5C
S11323A08D859E850E94CB0E9601A501BC018B856F
S11323B09C850E9402223FEF831A930AE985FA85DD
S11323C080819181181619060CF444CF34E68316E3
S11323D091040CF462C000C0ED85FE85E753FF4F05
S11323E08081882359F081E0ED85FE85838F22E08A
S11323F030E0378F268FE154FF4F8083ED85FE85D3
S1132400E653FF4F8081882399F081E0ED85FE85B6
S1132410EA5BFF4F808322E030E0ED85FE85E75BD9
S1132420FF4F31832083ED85FE85E154FF4F808388
S1132430ED85FE85E553FF4F8081882399F081E087
S1132440ED85FE85EF58FF4F808322E030E0ED8577
S1132450FE85EC58FF4F31832083ED85FE85E154E2
S1132460FF4F8083ED85FE85E453FF4F80818823F1
S1132470A1F0ED85FE85E456FF4F81E08083ED8574
S1132480FE85E156FF4F22E030E0318320832D8525
S11324903E8521543F4FF90180832E960FB6F89460
S11324A0DEBF0FBECDBFDF91CF911F910F91FF9083
S11324B0EF90DF90CF90BF90AF909F908F907F90E0
S11324C06F905F904F903F902F900895CF92DF923E
S11324D0EF92FF92CF93DF93EC016A017B010E949C
S11324E03024B701A601CE018B960E943024B70197
S11324F0A601CE018A5A9F4F0E943024B701A6013B
S1132500CE018F579F4F0E943024CE010E94BE10EF
S1132510DF91CF91FF90EF90DF90CF900895CF920D
S1132520DF92EF92FF92CF93DF93EC016A017B017C
S11325300E945E24B701A601CE018B960E945E2400
S1132540B701A601CE018A5A9F4F0E945E24B701AB
S1132550A601CE018F579F4F0E945E24CE010E9498
S1132560BE10DF91CF91FF90EF90DF90CF90089550
S1132570CF92DF92EF92FF920F931F93CF93DF934B
S1132580FC01E254FF4F2081222309F471C0EC01C5
S11325900E9401246E018BE2C80ED11CC6010E9468
S11325A001247E0186E5E80EF11CC7010E94012486
S11325B08E010F571F4FC8010E940124FE01E85BE2
S11325C0FF4F9D8D8081892BBB969081892B29F4A7
S11325D0BB968081882309F44BC0FE01E654FF4F6B
S11325E060817181828193810E947C25CE010E9449
S11325F0B323882329F081E0FE01E154FF4F808357
S1132600FE01E654FF4F60817181828193810E94B3
S11326107C25C6010E94B323882329F081E0FE01B2
S1132620E154FF4F8083FE01E654FF4F60817181C6
S1132630828193810E947C25C7010E94B323882351
S113264029F081E0FE01E154FF4F8083FE01E6544E
S1132650FF4F60817181828193810E947C25C80132
S11326600E94B323882321F0C154DF4F81E0888383
S1132670DF91CF911F910F91FF90EF90DF90CF905A
S11326800895FC0111A210A2E55BFF4F1182108294
S1132690BB9611821082BB96118210820895FC01B0
S11326A0E254FF4F808191E0982790830895FC01C4
S11326B0138E178E168EEA5BFF4F108233961182AB
S11326C01082B8961082339611821082B8961082C6
S11326D03396118210820895FC01238D211102C0CA
S11326E021E0228FFC01EA5BFF4F2081211103C00E
S11326F021E031972083FC01EF58FF4F2081211105
S113270003C021E031972083FC01E456FF4F208170
S1132710211103C0319721E020830895CF93DF93E3
S1132720EC010E9492248823F9F0CE018B960E943A
S113273092248823C9F0CE018A5A9F4F0E94922482
S1132740882391F0CE018F579F4F0E9492248823B3
S113275059F01A8EFE01EB5BFF4F1082BB9610827C
S1132760C556DF4F188203C0CE010E946C13DF915F
S1132770CF910895FC01828D81110DC0DF01AB5B07
S1132780BF4F8C91811107C09B968C91811103C01E
S1132790E556FF4F808108952A98613011F4299AF3
S11327A001C029988EBD0DB407FEFDCF2A9A089565
S11327B0CF92DF92EF92FF920F931F93CF93DF9309
S11327C06B017C01EA01CA010197209781F061E065
S11327D070E09B01220F331F660F771F660F771F70
S11327E0660F771F620F731F019798F702C061E0AD
S11327F070E0072E000C880B990B0E94B425A701EA
S113280096010E9469260E947C25AB01BC01CA0185
S113281099231CF021E030E002C02FEF3FEF249F0A
S1132820C001259F900D349F900D112401E513E004
S11328300F2EFAE0EF2EF12CF02D0F2EFEE2DF2EFC
S1132840F02D02C08F01EA01F801B7010E94D626DB
S1132850805D8293862F972FAE014150510919F460
S1132860F8013297D082009769F714161506D4F44C
S1132870BE0162507109DF0140E32197CE1BDF0BDB
S11328804E93CD018C0F9D1F18161906CCF3CB0166
S1132890992314F480E090E080959095E80FF91F57
S11328A08EE2829380818E3211F480E3829333230B
S11328B014F48DE28293CF01DF91CF911F910F9198
S11328C0FF90EF90DF90CF9008952C9A84B18E639F
S11328D084B92C982C9A80E58CBD2A9A60E081E218
S11328E00E94CC1360E088EC0E94CC1360E086E088
S11328F00E94CC1360E083E10E94CC1360E080E28C
S11329000E94CC1360E08CE00E94CC13089588EF01
S113291091E0E8E5F3E0DF019C011D922150304095
S1132920E1F7109257031092560387EF91E09093CA
S11329305503809354030895EF92FF920F931F93CE
S1132940CF93DF93809156039091570399232CF4EE
S1132950109257031092560309C0883F914034F0F7
S113296087EF91E09093570380935603809154032B
S11329709091550399232CF410925503109254030B
S113298009C0883F914034F087EF91E0909355035C
S113299080935403C0915603D0915703CE0164E54C
S11329A070E00E94D626162F60E080680E94CC1347
S11329B060E0812F80640E94CC13E0905403F09077
S11329C05503EC16FD066CF08E01085A1C4F61E0AD
S11329D0F80181918F010E94CC132196EC16FD061B
S11329E0B4F787EF91E090935703809356031092C6
S11329F0550310925403DF91CF911F910F91FF90D3
S1132A00EF9008958E30A8F46630A8F490E09C010D
S1132A10220F331F820F931F880F991F24E5629F93
S1132A20800D911D1124909353038093520380E0F1
S1132A30089581E0089581E00895409152035091F2
S1132A405303805297E0899FF0011124EC5FFC4FFF
S1132A50DA01A85ABC4F9A01225A3C4F84918D93B3
S1132A603196A217B307D1F74A5F5F4F50935303D0
S1132A704093520380E008954091520350915303D0
S1132A8090E0FC01EE0FFF1FE80FF91FEE0FFF1F90
S1132A90EE0FFF1FEE0FFF1FEC5DFE4FDA01A85A89
S1132AA0BC4F9A0120593C4F84918D933196A217C3
S1132AB0B307D1F7485E5F4F5093530340935203DB
S1132AC080E008950F931F93CF93DF9340915203B7
S1132AD050915303209156033091570342175307E3
S1132AE024F45093570340935603E0EEE60FE03A84
S1132AF008F4A0C0603C08F49CC0EDECE60F9AC05A
S1132B008491880F8D933196A217B307C9F74B5F51
S1132B105F4F509353034093520365C0823009F0D2
S1132B2062C0CA018455910920915603309157031C
S1132B30821793070CF08EC090935703809356032B
S1132B4089C02491220F822F8270982F990F890FA8
S1132B50982F990F822F8470382F330F830F880F8B
S1132B60880F892B022F0870019F002D1124082B38
S1132B7030E03595279535952795359527953595E5
S1132B802795822F8270382F330F830F880F322FAF
S1132B903170932F990F390F832B922F9470392F03
S1132BA0330F930F990F990F892B922F9870919F40
S1132BB0902D1124282F292B088309832C931196F7
S1132BC02C931197319622961296A617B70709F0FF
S1132BD0B8CFCA010B9668EF71E00E94D626909395
S1132BE05303809352038091520390915303209195
S1132BF05403309155032817390724F4909355034F
S1132C0080935403FC01E85AFC4F1082873F21E073
S1132C10920731F4109253031092520382E02DC0B4
S1132C200196909353038093520380E026C081E081
S1132C3024C0EFE5813009F071CF87E0E89FF0010F
S1132C401124EC5FFC4FDA01A85ABC4F9A01235AB5
S1132C503C4F56CF99235CF327E0E29FF001112407
S1132C60EC5FFC4FEA01CC5FDC4FDA01A85ABC4FA1
S1132C70BA016E597C4F18E164CFDF91CF911F9157
S1132C800F9108950F931F93CF93DF93D42F89014E
S1132C900E940215F8016081662379F0C0E08D2F4F
S1132CA00E946215813041F0CF5FF801EC0FF11DF5
S1132CB060816111F4CF01C061E0862FDF91CF9173
S1132CC01F910F910895FF920F931F93CF93DF935A
S1132CD0F42E89010E940215F8016081662391F0A7
S1132CE0C0E06E3221F08F2D0E946215D82FD130B2
S1132CF041F0CF5FF801EC0FF11D60816111F1CF5C
S1132D0001C061E0862FDF91CF911F910F91FF9059
S1132D100895DF92EF92FF920F931F93CF93DF9367
S1132D20C82FD62FD42EA701C901B8010E94D813E9
S1132D309C014D2D6D2F8C2F0E944216DF91CF9157
S1132D401F910F91FF90EF90DF900895DF92EF9223
S1132D50FF920F931F93CF93DF93C82FD62FD42EB8
S1132D60A701C901B8010E94D8139C014D2D6D2FF4
S1132D708C2F0E946316DF91CF911F910F91FF90CA
S1132D80EF90DF900895CF92DF92EF92FF920E942E
S1132D9065148EEE95E00E94EC208FE196E00E948F
S1132DA09E0E6FE176E080E595E00E943B0889E4A1
S1132DB090E00E940C276B017C0120E030E0A90127
S1132DC00E946426181694F020E030E040E450E4B9
S1132DD0C701B6010E940525882344F040E050E075
S1132DE060E87FE389E490E00E94202789E490E092
S1132DF00E940C276093CD067093CE068093CF0675
S1132E009093D00685E490E00E940C276B017C012E
S1132E1020E030E0A9010E94642688238CF420E09D
S1132E2030E040EA50E4C701B6010E9405251816B7
S1132E303CF440E050E0BA0185E490E00E94202791
S1132E4085E490E00E940C276093D1067093D2062B
S1132E508093D3069093D40681E490E00E940C27DB
S1132E606B017C0120E030E0A9010E9464268823E4
S1132E7094F420E030E040EA50E4C701B6010E9437
S1132E800525181644F440E050E060EA70E481E45B
S1132E9090E00E94202781E490E00E940C27609338
S1132EA0D5067093D6068093D7069093D8068FE103
S1132EB096E00E94B00D8CE390E00E940C276B0119
S1132EC07C0120E030E0A9010E9464268823BCF440
S1132ED020E030EC49E754E4C701B6010E9405251F
S1132EE018166CF440E050E068E472E48CE390E07F
S1132EF00E94202761E080E490E00E9412278CE386
S1132F0090E00E940C276093D9067093DA068093B0
S1132F10DB069093DC0680E490E00E94042791E0B5
S1132F20811101C090E09093DD06FF90EF90DF9057
S1132F30CF9008958823D1F14091CD065091CE06CB
S1132F406091CF067091D00689E490E00E9420271A
S1132F504091D1065091D2066091D3067091D40667
S1132F6085E490E00E9420274091D5065091D60632
S1132F706091D7067091D80681E490E00E942027E2
S1132F808FE196E00E94B00D4091D9065091DA0687
S1132F906091DB067091DC068CE390E00E942027B0
S1132FA06091DD0680E490E00E94122708950F935B
S1132FB01F93CF93DF932091E605222399F1EC012F
S1132FC08FE196E00E94C822AB01BC0184E18C9F92
S1132FD080018D9F100D1124C8018C5F9F4F0E94AA
S1132FE020278AE496E00E94C822AB01BC01C801F4
S1132FF0885F9F4F0E94202785E796E00E94C822A1
S1133000AB01BC01C801845F9F4F0E94202780EA66
S113301096E00E94C822AB01BC01C801805F9F4FAB
S11330200E9420271092E605DF91CF911F910F9106
S113303008950F931F93CF93DF932091E7052223E5
S113304009F44FC0EC018FE196E00E946C134FE14C
S113305056E060E575E08DEE95E00E94782084E10D
S11330608C9F80018D9F100D1124C8018C5F9F4F90
S11330700E940C27609335067093360680933706BA
S113308090933806C801885F9F4F0E940C27609375
S11330906006709361068093620690936306C8018C
S11330A0845F9F4F0E940C2760938B0670938C065D
S11330B080938D0690938E06C801805F9F4F0E9477
S11330C00C276093B6067093B7068093B806909366
S11330D0B9068FE196E00E94BE1080E595E00E945B
S11330E0F60B1092E705DF91CF911F910F91089590
S11330F00E94C316C9EED5E008EE15E04FE156E094
S11331006EEE75E080E595E00E94BA0B4FE156E063
S113311060E575E08DEE95E00E947820888190E06E
S11331200E94D717888190E00E941918F8018081C5
S11331300E949A17E3CF8FE196E00E94B70C8EEEBF
S113314095E00E94CC208DEE95E00E94AC1880E5BD
S113315095E00E947B0408950895CF92DF92EF9248
S1133160FF920F931F93CF93DF936B01EA0120E04B
S113317031E041E060E082E00E944216C255DF4F38
S1133180088119812A813B816894EE24E1F8F12CAD
S113319041E062E085E00E9489162BE031E041E0E5
S11331A064E083E00E944216F6018781813119F0C0
S11331B0823181F016C062E084E00E9402158AE93F
S11331C00E941D1562E089E00E9402158BE90E94AD
S11331D01D1507C064E081E00E9402158BE90E947E
S11331E01D15DF91CF911F910F91FF90EF90DF900C
S11331F0CF900895CF92DF92EF92FF920F931F9397
S1133200CF93DF936B01EA0121E131E041E060E01B
S113321082E00E9442162DE131E041E062E082E06A
S11332200E944216FE01EE54FF4F0081118122815B
S113323033816894EE24E1F8F12C41E062E088E007
S11332400E94891621E231E041E063E082E00E94BD
S11332504216CA54DF4F088119812A813B8141E01B
S113326063E088E00E948916F6018781843199F031
S1133270853101F1833129F562E087E00E9402156E
S11332808AE90E941D1562E08CE00E94021582EA20
S11332900E941D1516C063E087E00E9402158AE9AA
S11332A00E941D1563E08CE00E94021582EA0E94D0
S11332B01D1507C065E081E00E9402158BE90E949C
S11332C01D152BE031E041E065E083E00E944216E9
S11332D0DF91CF911F910F91FF90EF90DF90CF90EE
S11332E00895CF92DF92EF92FF920F931F93CF93A3
S11332F0DF936B01EA0125E231E041E060E082E026
S11333000E94421621E331E041E061E080E00E9446
S113331042162EE331E041E062E080E00E94421672
S1133320FE01E654FF4F20E030E048EC52E46081B7
S11333307181828193810E940A258B019C0168948A
S1133340EE24E1F8F12C41E062E08AE00E94A61646
S113335027E431E041E063E080E00E944216C25479
S1133360DF4F8881813041F020E531E041E063E0C6
S11333708AE00E94421607C024E531E041E063E0A0
S11333808AE00E944216F6018781873129F088314C
S1133390D1F08631F9F408C063E089E00E94021597
S11333A082EA0E941D1516C062E089E00E9402159F
S11333B08AE90E941D1562E08DE00E9402158BE9E6
S11333C00E941D1507C065E081E00E9402158BE98B
S11333D00E941D152BE031E041E065E083E00E948E
S11333E04216DF91CF911F910F91FF90EF90DF90E4
S11333F0CF900895CF92DF92EF92FF920F931F9395
S1133400CF93DF936B01EA0128E531E041E060E00E
S113341084E00E9442162FE531E041E061E082E061
S11334200E94421628E631E041E062E082E00E9418
S1133430421621E731E041E063E082E00E94421657
S11334402AE731E041E064E082E00E94421623E88A
S113345031E041E065E082E00E9442162BE031E079
S113346041E065E089E00E94421629E831E041E04C
S113347061E08BE00E94421629E831E041E062E01D
S11334808BE00E94421629E831E041E063E08BE0E2
S11334900E94421629E831E041E064E08BE00E949A
S11334A042168E8D9F8D18161906C4F42CE831E04F
S11334B041E061E08BE00E9442166E8D7F8D072E05
S11334C0000C880B990B0E94B4258B019C01E12C04
S11334D0F12C41E061E08CE00E948916FE01E75B7B
S11334E0FF4F8081918118161906DCF42CE831E035
S11334F041E062E08BE00E944216FE01E75BFF4F71
S113350060817181072E000C880B990B0E94B425F1
S11335108B019C01E12CF12C41E062E08CE00E94E3
S11335208916FE01EC58FF4F808191811816190607
S1133530DCF42CE831E041E063E08BE00E944216C9
S1133540FE01EC58FF4F60817181072E000C880B3F
S1133550990B0E94B4258B019C01E12CF12C41E0D4
S113356063E08CE00E948916FE01E156FF4F8081E2
S1133570918118161906D4F42CE831E041E064E096
S11335808BE00E944216C156DF4F68817981072E75
S1133590000C880B990B0E94B4258B019C01E12C33
S11335A0F12C41E064E08CE00E948916F6018781E9
S11335B08B31E1F028F4893149F08A3179F035C052
S11335C08D3121F1D8F08E3149F12FC061E080E0D6
S11335D00E9402158BE90E941D1527C062E080E05D
S11335E00E9402158BE90E941D151FC063E080E054
S11335F00E9402158BE90E941D1517C064E080E04B
S11336000E9402158BE90E941D150FC065E080E041
S11336100E9402158BE90E941D1507C065E087E032
S11336200E9402158BE90E941D15DF91CF911F9115
S11336300F91FF90EF90DF90CF900895CF92DF929B
S1133640EF92FF920F931F93CF93DF93CDB7DEB723
S1133650C9A4DAA4C114D10441F42EE831E041E054
S113366062E081E00E94421639C029E931E041E07C
S113367061E081E00E944216B6010D2C000C880B1B
S1133680990B0E94B4258B019C01E12CF12C41E0A3
S113369061E089E00E94891682E0C816D10479F0BD
S11336A083E0C816D10499F0CA94CD28B9F422EA6B
S11336B031E041E062E080E00E9442160FC026ED56
S11336C031E041E062E080E00E94421607C02FEF43
S11336D031E041E062E080E00E944216DF91CF9148
S11336E01F910F91FF90EF90DF90CF9008950F936B
S11336F01F93CF93DF938C01EA01FB0187818A3109
S113370079F118F4893141F09BC08B3109F44DC033
S11337108C3109F470C094C02DE232E041E060E0E5
S113372083E00E9442168DB79EB78B970FB6F8942C
S11337309EBF0FBE8DBFADB7BEB711968BE2FE0123
S113374001900D928A95E1F7C8010E941E1BEDB706
S1133750FEB7BB960FB6F894FEBF0FBEEDBF70C0A8
S113376026E332E041E060E083E00E9442168DB738
S11337709EB78B970FB6F8949EBF0FBE8DBFADB7A3
S1133780BEB711968BE2FE01BB9601900D928A950D
S1133790E1F7C8010E941E1BEDB7FEB7BB960FB63A
S11337A0F894FEBF0FBEEDBF4BC02FE332E041E003
S11337B060E083E00E944216FE01EA5AFF4F8DB793
S11337C09EB78B970FB6F8949EBF0FBE8DBFADB753
S11337D0BEB711968BE201900D928A95E1F7C8016C
S11337E00E941E1BEDB7FEB7BB960FB6F894FEBF42
S11337F00FBEEDBF25C028E432E041E060E083E085
S11338000E944216FE01EF57FF4F8DB79EB78B976C
S11338100FB6F8949EBF0FBE8DBFADB7BEB711965D
S11338208BE201900D928A95E1F7C8010E941E1B5C
S1133830EDB7FEB7BB960FB6F894FEBF0FBEEDBF53
S1133840DF91CF911F910F910895FB0187818430FF
S113385020F521E532E041E060E085E00E94421677
S113386026E532E041E061E082E00E94421621E672
S113387032E041E062E082E00E9442162BE632E050
S113388041E063E082E00E9442162BE031E041E037
S113389064E082E00E9442160895883020F521E613
S11338A032E041E060E083E00E94421625E732E026
S11338B041E061E082E00E9442162EE732E041E0FE
S11338C062E082E00E9442162AE832E041E063E0CE
S11338D082E00E9442162BE031E041E064E082E0A5
S11338E00E94421608958C3020F526E532E041E02E
S11338F060E083E00E94421625E732E041E061E0A7
S113390082E00E94421627E932E041E062E082E070
S11339100E9442162AE832E041E063E082E00E941D
S113392042162BE031E041E064E082E00E9442165E
S113393008952BE632E041E060E083E00E94421605
S113394020E031E041E061E082E00E94421621E1A2
S113395031E041E062E082E00E94421625E231E07B
S113396041E063E082E00E94421628E531E041E054
S113397064E082E00E9442162BE031E041E065E021
S113398082E00E944216089560E086E00E940215DB
S11339908EE90E941D1560E087E00E9402158FE900
S11339A00E941D150895FB018081823051F065E06D
S11339B086E00E94021583EA0E941D1584EA0E9493
S11339C01D150895AF92BF92CF92DF92EF92FF92AE
S11339D00F931F93CF93DF93CDB7DEB72C970FB61A
S11339E0F894DEBF0FBECDBF898D9A8D82309105CC
S11339F099F01CF4019739F031C083309105C1F07E
S1133A00049719F12BC0CC24C394A12C00E00F2EF1
S1133A10F3E0DF2EF02D22C0CC24C3940F2EFBE064
S1133A20AF2EF02D00E00F2EF9E0DF2EF02D16C0A2
S1133A306894CC24C2F80F2EFBE0AF2EF02D03E0E7
S1133A400F2EF9E0DF2EF02D09C06894CC24C2F8C3
S1133A50A12C03E00F2EF3E0DF2EF02D8CA9882398
S1133A60A9F18BA98823C9F087EA90E09A83898316
S1133A7088EA90E09C838B8389EA90E09E838D831F
S1133A808AEA90E098878F838BEA90E09A87898707
S1133A908CEA90E09C878B877CC08CE890E09A83CA
S1133AA089838DE890E09C838B838EE890E09E83ED
S1133AB08D838FE890E098878F8380E990E09A87E0
S1133AC0898781E990E09C878B8763C08BA98823D1
S1133AD0C9F080E890E09A83898381E890E09C8330
S1133AE08B8382E890E09E838D8383E890E09887BF
S1133AF08F8384E890E09A87898785E890E09C87A3
S1133B008B8747C086E890E09A83898387E890E0B2
S1133B109C838B8388E890E09E838D8389E890E082
S1133B2098878F838AE890E09A8789878BE890E06A
S1133B309C878B872EC0612F8D2D0E940215F70163
S1133B4080810E941D15612F8B2D0E940215F701A3
S1133B5082810E941D151F5FF4E0EF0EF11C10130B
S1133B60EACFCE0149960E94C8228B019C01689439
S1133B70EE24E1F8F12C41E06C2D8A2D0E94A6166A
S1133B8061E06C0D8A2D0E94021580EA0E941D15C9
S1133B9009C0102FCE0101967C010D5FBB24B394A4
S1133BA0BD0CC9CF2C960FB6F894DEBF0FBECDBFA7
S1133BB0DF91CF911F910F91FF90EF90DF90CF9005
S1133BC0BF90AF9008950F931F93CF93DF938C0111
S1133BD0EB018DB79EB78B970FB6F8949EBF0FBEBF
S1133BE08DBFADB7BEB711968BE2FB0101900D926C
S1133BF08A95E1F7C8010E94E21C8DB79EB78B96A7
S1133C000FB6F8949EBF0FBE8DBF8B970FB6F89476
S1133C109EBF0FBE8DBFADB7BEB711968BE2FE013E
S1133C20BB9601900D928A95E1F7C8010E94E21CAF
S1133C308DB79EB78B960FB6F8949EBF0FBE8DBFFF
S1133C40FE01EA5AFF4F8B970FB6F8949EBF0FBE42
S1133C508DBFADB7BEB711968BE201900D928A95D8
S1133C60E1F7C8010E94E21C8DB79EB78B960FB690
S1133C70F8949EBF0FBE8DBFFE01EF57FF4F8B9789
S1133C800FB6F8949EBF0FBE8DBFADB7BEB71196E9
S1133C908BE201900D928A95E1F7C8010E94E21C23
S1133CA08DB79EB78B960FB6F8949EBF0FBE8DBF8F
S1133CB0DF91CF911F910F910895FB018081823094
S1133CC0E9F462E086E00E94021586E90E941D156F
S1133CD062E087E00E94021587E90E941D1563E0F7
S1133CE086E00E94021588E90E941D1563E087E0C2
S1133CF00E94021589E90E941D15089562E086E07C
S1133D000E94021582E90E941D1562E087E00E946C
S1133D10021583E90E941D1563E086E00E940215E6
S1133D2084E90E941D1563E087E00E94021585E97D
S1133D300E941D150895DB011796EC918E2F90E0DB
S1133D408131910508F08CC0FC01E85BFF4F0C94B5
S1133D50EA2661E080E00E9402158BE90E941D15AD
S1133D60089562E080E00E9402158BE90E941D150F
S1133D70089563E080E00E9402158BE90E941D15FE
S1133D80089564E080E00E9402158BE90E941D15ED
S1133D90089561E080E00E9402158BE90E941D15E0
S1133DA0089562E080E00E9402158BE90E941D15CF
S1133DB0089564E080E00E9402158BE90E941D15BD
S1133DC0089563E080E00E9402158BE90E941D15AE
S1133DD0089561E080E00E9402158BE90E941D15A0
S1133DE0089562E080E00E9402158BE90E941D158F
S1133DF0089563E080E00E9402158BE90E941D157E
S1133E00089564E080E00E9402158BE90E941D156C
S1133E10089561E080E00E9402158BE90E941D155F
S1133E20089562E080E00E9402158BE90E941D154E
S1133E30089563E080E00E9402158BE90E941D153D
S1133E40089564E080E00E9402158BE90E941D152C
S1133E50089565E080E00E9402158BE90E941D151B
S1133E6008950F931F93CF93DF93EC018B010E946E
S1133E70251CB801CE010E949B1EDF91CF911F919A
S1133E800F910895EF92FF920F931F93CF93DF93B7
S1133E90FB018081823011F080E016C0EB01CB0180
S1133EA00E9497098B019C016894EE24E1F8F12C9F
S1133EB041E061E085E00E94891664E085E00E94AB
S1133EC0021589810E943C15DF91CF911F910F91BA
S1133ED0FF90EF90089561E085E00E9402158AE961
S1133EE00E941D1564E085E00E9402158AE90E9483
S1133EF01D1561E088E00E9402158BE90E941D15E2
S1133F0064E088E00E9402158BE90E941D15089563
S1133F109C01DB019C91923011F480E00895DB0157
S1133F201796EC914E2F50E04830510508F049C0E7
S1133F30C901FA01E75AFF4F0C94EA2661E086E0D2
S1133F400E9402158CE90E941D158DE90E941D1521
S1133F5038C061E086E00E94021585EA0E941D15C2
S1133F6086EA0E941D152DC064E086E00E940215B9
S1133F7085EA0E941D1586EA0E941D1522C061E093
S1133F8085E00E9402158AE90E941D151AC064E0AA
S1133F9085E00E9402158AE90E941D1512C061E0A5
S1133FA088E00E9402158BE90E941D150AC064E096
S1133FB088E00E9402158BE90E941D1502C00E9430
S1133FC06B1F0895EF92FF920F931F93CF93DF938C
S1133FD0EC018B017A010E94C41CB801CE010E943D
S1133FE0D31CB701CE010E94E31DB801CE010E948B
S1133FF05D1EB801CE010E94881FB801CE010E9447
S1134000421FDF91CF911F910F91FF90EF90089580
S113401023EA32E041E062E082E00E944216089521
S113402020EB32E041E060E083E00E94421629EB9D
S113403032E041E061E081E00E9442162EEE32E07F
S113404041E065E081E00E944216089529EF32E0E4
S113405041E060E084E00E94421620E033E041E069
S113406061E080E00E9442162DE033E041E062E02E
S113407080E00E9442162CE133E041E063E080E0FE
S11340800E94421623E233E041E065E082E00E94B0
S1134090421608952EE233E041E062E083E00E949C
S11340A0421627E333E041E063E083E00E944216D6
S11340B00895FB01E656FF4F2081318121303105FF
S11340C071F01CF4232B41F008952230310551F096
S11340D02330310551F008950E94082008950E946C
S11340E0102008950E94262008950E944A200895D1
S11340F0EF92FF920F931F93CF93DF938C01EB0109
S11341007A010E948714E8818E2F90E0893091050E
S1134110D0F5FC01EF59FF4F0C94EA26A701BE012C
S1134120C8010E94E21F2FC0A701BE01C8010E945E
S1134130E21F29C0A701BE01C8010E94311F23C08C
S1134140A701BE01C8010E94AD181DC0A701BE0190
S1134150C8010E94FA1817C0A701BE01C8010E9435
S1134160711911C0A701BE01C8010E94FA190BC040
S1134170A701BE01C8010E94771B05C0A701BE01AB
S1134180C8010E9459200E949C14DF91CF911F9175
S11341900F91FF90EF900895CF93DF93EC010E946D
S11341A0FC0BCE0107960E94FC0BCE010E960E94DA
S11341B0FC0BCE0145960E94FC0BCE014C960E944E
S11341C0FC0BCE0183960E94FC0BCE018A960E94C2
S11341D0FC0BDF91CF910895CF93DF93EC0140E086
S11341E050E064E40E94FD0B41E050E064E4CE0141
S11341F007960E94FD0B42E050E064E4CE010E9667
S11342000E94FD0B43E050E064E4CE0145960E9419
S1134210FD0B44E050E064E4CE014C960E94FD0B9B
S113422045E050E064E4CE0183960E94FD0B46E035
S113423050E064E4CE018A960E94FD0BDF91CF9199
S113424008950F931F93CF93DF93EC018B010E9688
S11342500E943B0C81112CC0B801CE0145960E94EE
S11342603B0C811128C0B801CE014C960E943B0C36
S1134270811124C0B801CE018A960E943B0C8111A1
S113428020C0B801CE0183960E943B0C81111CC052
S1134290B801CE010E943B0C811119C0B801CE01B6
S11342A007960E943B0C811115C08FEF9FEF14C03D
S11342B080E090E011C081E090E00EC082E090E0E8
S11342C00BC084E090E008C083E090E005C085E086
S11342D090E002C086E090E0DF91CF911F910F91B2
S11342E008950895ECE7F0E0808181648083EAE733
S11342F0F0E080818F6880830895FC01ACE7B0E032
S11343008C918E7F8C938C918D7F8C938C918B7FF1
S11343108C938C91877F8C936330710551F064305A
S1134320710569F06230710579F48C9181608C9328
S11343300BC0ACE7B0E08C9182608C9305C0ACE715
S1134340B0E08C9183608C93AAE7B0E08C91806498
S11343508C93108281E040E09C91282F392F30719A
S113436094FF242F20833323B9F360917800709154
S1134370790080E090E00E94B2252BE43CE340EA1F
S11343805BE30E94692608958093BB0084E88093D0
S1134390BC00ECEBF0E080818823ECF79091B9004D
S11343A0987F983129F081E0983219F480E00895DB
S11343B080E00895CF9394EA9093BC00ECEBF0E096
S11343C090819923ECF79091B900987F983011F07F
S11343D0903161F4C62F0E94C421813039F08C2FB2
S11343E00E94C42194E99093BC0004C084E98093A2
S11343F0BC0081E0CF910895089560E08EE40E94AE
S1134400DA210895EF92FF920F931F93CF93DF93D6
S1134410F901161617060CF04FC031E04130510572
S113442009F030E04230510509F43260E130F10521
S113443011F4346003C0329709F438600130110577
S113444011F4306104C00230110509F430628B01AB
S1134450EC0181E0E816F10419F4632F606406C0EE
S113446092E0E916F10409F5632F60688EE40E9476
S1134470DA211982188289EF90E00197F1F700C0E0
S11344800000288139812F5F3F4F3983288320170B
S113449031078CF360E08EE40E94DA2183ED90E32F
S11344A00197F1F700C0000007C0632F8EE40E945B
S11344B0DA2119821882DFCFDF91CF911F910F91FA
S11344C0FF90EF900895EF92FF920F931F93CF9375
S11344D0DF93F901161617060CF04FC031E0413096
S11344E0510509F030E04230510509F43260E13001
S11344F0F10511F4346003C0329709F438600130D7
S1134500110511F4306104C00230110509F4306260
S11345108B01EC0181E0E816F10419F4632F606467
S113452006C092E0E916F10409F5632F60688EE491
S11345300E94DA211982188289EF90E00197F1F73D
S113454000C00000288139812F5F3F4F39832883C1
S1134550201731078CF360E08EE40E94DA2189EFA2
S113456090E00197F1F700C0000007C0632F8EE4CC
S11345700E94DA2119821882DFCFDF91CF911F9137
S11345800F91FF90EF90089584960E9471210895F1
S1134590CF93DF93EC016881798184960E947D2119
S11345A06A837B838C839D83DF91CF9108950F93DE
S11345B01F93CF93DF93EC018B0184960E947221A9
S11345C01983088380E090E0A0EAB0E48E839F839F
S11345D0A887B9878AE097EDA3E2BCE38A879B8723
S11345E0AC87BD87CE010E94C8226E877F87888BE7
S11345F0998B19A218A21F8E1E8EDF91CF911F9145
S11346000F910895CF93DF93EC010E94C8228A8111
S11346109B81AC81BD818E8B9F8BA88FB98FDF91DD
S1134620CF9108958F929F92AF92BF92CF92DF92D3
S1134630EF92FF92CF93DF93FC01228D222309F4A2
S113464058C0238D211158C0EC010E94C8226B016F
S11346507C016A837B838C839D8320E030E0A90105
S11346606E897F89888D998D0E940525811108C0E6
S11346708AE097EDA3E2BCE38E8B9F8BA88FB98F62
S113468020E030E046E953E46E897F89888D998D76
S11346900E9469264B015C0120E030E046E953E4C6
S11346A0C701B6010E9469269B01AC01C501B40192
S11346B00E9498246DA37EA38FA398A70E947C25B3
S11346C07BA36AA37AA769A71C8E772344F4719508
S11346D0619571097BA36AA382E090E012C016166B
S11346E017066CF01BA21AA281E08C8F80E090E088
S11346F008C080E090E005C080E090E002C081E066
S113470090E0DF91CF91FF90EF90DF90CF90BF903A
S1134710AF909F908F900895CF93DF93EC018A819F
S11347209B81AC81BD818A8B9B8BAC8BBD8BCE0175
S11347300E94C8226A837B838C839D832A893B8958
S11347404C895D890E940525811108C081E08B8F09
S113475081E090E09F8F8E8F80E002C01B8E81E00D
S1134760DF91CF910895FC01858D811114C0838D53
S1134770811111C020A131A12F5F3F4F31A320A38C
S1134780621773075CF481E0838F83E090E0978F76
S1134790868F81E0089511A210A280E00895CF923F
S11347A0DF92EF92FF92CF93DF93EC01CE80DF8014
S11347B0E884F984A70196016E897F89888D998D93
S11347C00E946426882324F0CE8ADF8AE88EF98E3C
S11347D0CA84DB84EC84FD84A70196016E897F89F9
S11347E0888D998D0E940525181624F0CE8ADF8ABB
S11347F0E88EF98EDF91CF91FF90EF90DF90CF900C
S11348000895CF92DF92EF92FF92CF93DF93EC0162
S1134810CE84DF84E888F9880E94C8229B01AC0119
S1134820C701B6010E940525882359F08A819B811E
S1134830AC81BD818E879F87A88BB98B81E08D8FDA
S113484002C01D8E80E0DF91CF91FF90EF90DF904A
S1134850CF900895FC01828D91E09827928F08955E
S1134860CF92DF92EF92FF921F93CF93DF93EC01ED
S11348701A8D1123D1F0CB01BA012E893F89488DBD
S1134880598D0E9499246E8B7F8B888F998FCE804F
S1134890DF80E884F984A70196010E946426181633
S11348A024F4CE8ADF8AE88EF98E812FDF91CF91AE
S11348B01F91FF90EF90DF90CF900895CF92DF92F9
S11348C0EF92FF921F93CF93DF93FC01128D11237C
S11348D0D9F09A01AB01EC0166897789808D918DBD
S11348E00E9498246E8B7F8B888F998FCA84DB8477
S11348F0EC84FD84A70196010E940525882324F4F5
S1134900CE8ADF8AE88EF98E812FDF91CF911F91B5
S1134910FF90EF90DF90CF900895FC01828D81117C
S1134920838D0895FC01838D811101C0828D0895CA
S11349305058BB27AA270E94B0240C942A260E9410
S11349401C2638F00E94232620F039F49F3F19F4E6
S113495026F40C9419260EF4E095E7FB0C94132628
S1134960E92F0E943B2658F3BA176207730784079E
S1134970950720F079F4A6F50C945D260EF4E095E5
S11349800B2EBA2FA02D0B01B90190010C01CA0105
S1134990A0011124FF27591B99F0593F50F4503EB0
S11349A068F11A16F040A22F232F342F4427585FA2
S11349B0F3CF469537952795A795F0405395C9F7BA
S11349C07EF41F16BA0B620B730B840BBAF0915072
S11349D0A1F0FF0FBB1F661F771F881FC2F70EC011
S11349E0BA0F621F731F841F48F4879577956795E4
S11349F0B795F7959E3F08F0B0CF9395880F08F0D0
S1134A009927EE0F9795879508950E94EF2508F44E
S1134A1081E008950E941E250C942A260E942326D4
S1134A2058F00E941C2640F029F45F3F29F00C94B2
S1134A30132651110C945E260C9419260E943B26D1
S1134A4068F39923B1F3552391F3951B550BBB27B9
S1134A50AA2762177307840738F09F5F5F4F220FFE
S1134A60331F441FAA1FA9F335D00E2E3AF0E0E8F5
S1134A7032D091505040E695001CCAF72BD0FE2F3F
S1134A8029D0660F771F881FBB1F261737074807D3
S1134A90AB07B0E809F0BB0B802DBF01FF2793588B
S1134AA05F4F3AF09E3F510578F00C9413260C9416
S1134AB05E265F3FE4F3983ED4F386957795679539
S1134AC0B795F7959F5FC9F7880F911D96958795C0
S1134AD097F90895E1E0660F771F881FBB1F6217DF
S1134AE073078407BA0720F0621B730B840BBA0B9D
S1134AF0EE1F88F7E09508950E9483256894B1110C
S1134B000C945E2608950E94432688F09F5798F0DF
S1134B10B92F9927B751B0F0E1F0660F771F881FBE
S1134B20991F1AF0BA95C9F714C0B13091F00E94D8
S1134B305D26B1E008950C945D26672F782F8827B1
S1134B40B85F39F0B93FCCF3869577956795B395FF
S1134B50D9F73EF490958095709561957F4F8F4F6E
S1134B609F4F0895E89409C097FB3EF49095809573
S1134B70709561957F4F8F4F9F4F9923A9F0F92F1F
S1134B8096E9BB279395F695879577956795B7959D
S1134B90F111F8CFFAF4BB0F11F460FF1BC06F5F83
S1134BA07F4F8F4F9F4F16C0882311F096E911C095
S1134BB0772321F09EE8872F762F05C0662371F0B6
S1134BC096E8862F70E060E02AF09A95660F771FCA
S1134BD0881FDAF7880F9695879597F90895990FA6
S1134BE00008550FAA0BE0E8FEEF16161706E807B3
S1134BF0F907C0F012161306E407F50798F0621BD4
S1134C00730B840B950B39F40A2661F0232B242BA8
S1134C10252B21F408950A2609F4A140A6958FEFC7
S1134C20811D811D089597F99F6780E870E060E019
S1134C3008959FEF80EC089500240A941616170631
S1134C4018060906089500240A9412161306140679
S1134C5005060895092E0394000C11F4882352F0DC
S1134C60BB0F40F4BF2B11F460FF04C06F5F7F4F94
S1134C708F4F9F4F089557FD9058440F551F59F07B
S1134C805F3F71F04795880F97FB991F61F09F3F35
S1134C9079F087950895121613061406551FF2CF5E
S1134CA04695F1DF08C0161617061806991FF1CFAE
S1134CB086957105610508940895E894BB276627D5
S1134CC07727CB0197F908950E94EF2508F48FEF19
S1134CD008950E947C260C942A260E941C2638F0F3
S1134CE00E94232620F0952311F00C9413260C9493
S1134CF0192611240C945E260E943B2670F3959F7E
S1134D00C1F3950F50E0551F629FF001729FBB27BE
S1134D10F00DB11D639FAA27F00DB11DAA1F649F5A
S1134D206627B00DA11D661F829F2227B00DA11D0D
S1134D30621F739FB00DA11D621F839FA00D611D93
S1134D40221F749F3327A00D611D231F849F600DB4
S1134D50211D822F762F6A2F11249F5750409AF0DD
S1134D60F1F088234AF0EE0FFF1FBB1F661F771F69
S1134D70881F91505040A9F79E3F510580F00C9434
S1134D8013260C945E265F3FE4F3983ED4F3869595
S1134D9077956795B795F795E7959F5FC1F7FE2BD4
S1134DA0880F911D9695879597F9089597FB072E7F
S1134DB016F4009407D077FD09D00E94F02607FC72
S1134DC005D03EF4909581959F4F08957095619517
S1134DD07F4F0895EE0FFF1F0590F491E02D099485
S1134DE0AA1BBB1B51E107C0AA1FBB1FA617B7070D
S1134DF010F0A61BB70B881F991F5A95A9F7809529
S1134E009095BC01CD010895F999FECF92BD81BD65
S1134E10F89A992780B50895A6E1B0E044E050E0FF
S1134E200C942F27262FF999FECF1FBA92BD81BD6E
S1134E3020BD0FB6F894FA9AF99A0FBE0196089518
S1134E40242F0E941327252F0E9413270C94282710
S1134E500E941227272F0C941327DC01CB01FC019D
S1134E60F999FECF06C0F2BDE1BDF89A319600B4BF
S1114E700D9241505040B8F70895F894FFCFCA
S1134E7ECAE0EBE8E1F0EEE2EAE000C2FBF5EEE4B4
S1134E8E00CEE3F0E0EDE8F7E5EDE8FF006D696EC6
S1134E9E006D617800C4E8E0E3EDEEF1F2E8EAE0DB
S1134EAE00C4EBE8F2E5EBFCEDEEF1F2FC00EFF002
S1134EBEEEF6E5F1F1E000C2EAEBFEF7E8F2FC00F3
S1134ECEEEF2EA00E2EAEB00CEF8E8E1EAE80031BD
S1134EDE2ED1F2EEE9EAE000322ED1F2EEE9EAE06A
S1134EEE00332ED1F2EEE9EAE000342ED1F2EEE9EF
S1134EFEEAE000D1E1F0EEF1002D2D004500CEF8F0
S1134F0EE8E1EEEA20EDE5F200CEF8E8E1EAE02091
S1134F1EC500EDE5F220EEF2E2E5F2E020F1F2EE6C
S1134F2EE9EAE820EFF0E820EFEEEFFBF2EAE52005
S1134F3EE8E7ECE5EDE8F2FC20E5E520EFEEEBEE3C
S1134F4EE6E5EDE8E500EDE5E2EEE7E6ECEEE6EDAE
S1134F5EEE20E2FBF1F2E0E2E8F2FC20E7E0E4E02E
S1134F6EEDEDEEE520EFEEEBEEE6E5EDE8E500E740
S1134F7EE0E2E8F1E0EDE8E520E4E0F2F7E8EAE06B
S1134F8E20EFEEEBEEE6E5EDE8FF20E2EE20E2F0B8
S1134F9EE5ECFF20E4E2E8E6E5EDE8FF003120D1A0
S1134FAEF2EEE9EAE0003220D1F2EEE9EAE0003373
S1134FBE20D1F2EEE9EAE0003420D1F2EEE9EAE0A3
S1134FCE00CCC5CDDE00D3F1F2E0EDEEE2E8F2FC6A
S1134FDE00D1EEF5F0E0EDE8F2FC00CDE0F1F2F0F8
S1134FEEEEE9EAE800CFE0F0EAEEE2EAE000CDE82E
S1134FFEE6EDFFFF20EFEEE72E00C2E5F0F5EDFF44
S113500EFF20EFEEE72E00CDE8E6EDE5E520EFEE2E
S113501EE72E00D1EEF5F0E0EDE5EDEE2E2E2E00AE
S113502EC2EDE8ECE0EDE8E500D1F2EEE9EAE028C5
S113503EE82920EDE5F1EFF0E0E2EDFB2E20C2EEE3
S113504EE7ECEEE6EDE020EDE520E0E4E5EAE2E073
S113505EF2EDE0FF20F0E5E0EAF6E8FF2E00CDE009
S113506EE6ECE8F2E520CEEA00CEF8E8E1EAE0006C
S113507EC8EDF4EEF0ECE0F6E8FF20E200ECE5ED2E
S113508EFE20EDE0F1F2F0EEE9EAE800EEF8E8E1F8
S113509EEAE800EDE0E6ECE8F2E520CECA00C2FB59
S11350AEE1E5F0E8F2E500F1F2EEE9EAF328E829A9
S10550BE0000EC
S9030000FC
