:100000000C940C040C9434040C9434040C943404B8
:100010000C9434040C9434040C9434040C94340480
:100020000C9434040C9434040C9434040C94340470
:100030000C9434040C9434040C9434040C94340460
:100040000C9434040C9434040C9434040C94340450
:100050000C9434040C9434040C9434040C94340440
:100060000C9434040C943404A705AD05B205B7050F
:10007000BC05C105C605CB05D505DF05F916011779
:100080000917111719172117311729173917411790
:1000900049175117591761176917711779170AD737
:1000A000233C0AD7A33C8FC2F53C0AD7233DCDCCD5
:1000B0004C3D8FC2753D295C8F3D0AD7A33DEC5165
:1000C000B83DCDCCCC3D8FC2F53D9A99193ECDCCF3
:1000D0004C3E9A99993E0000003F0000403F0000CE
:1000E000803F0000C03F0000004000004040C0C012
:1000F000E0A0A0A0909090908888888484848482D6
:100100008282828181FFC0C0E0E0A0A090909090A8
:1001100088888884848484828282828181FFC0C0AE
:10012000E0E0E0A090909090888888848484848225
:100130008282828181FFC0C0E0E0E0E0F090909098
:1001400088888884848484828282828181FFC0C07E
:10015000E0E0E0E0F0F090908888888484848482F5
:100160008282828181FFC0C0E0E0E0E0F0F0F090A8
:1001700088888884848484828282828181FFC0C04E
:10018000E0E0E0E0F0F0F0F0888888848484848205
:100190008282828181FFC0C0E0E0E0E0F0F0F0F018
:1001A000F8888884848484828282828181FFC0C0AE
:1001B000E0E0E0E0F0F0F0F0F8F8888484848482F5
:1001C0008282828181FFC0C0E0E0E0E0F0F0F0F0E8
:1001D000F8F8F884848484828282828181FFC0C09E
:1001E000E0E0E0E0F0F0F0F0F8F8F8FC84848482DD
:1001F0008282828181FFC0C0E0E0E0E0F0F0F0F0B8
:10020000F8F8F8FCFC8484828282828181FFC0C07D
:10021000E0E0E0E0F0F0F0F0F8F8F8FCFCFC8482BC
:100220008282828181FFC0C0E0E0E0E0F0F0F0F087
:10023000F8F8F8FCFCFCFC828282828181FFC0C05D
:10024000E0E0E0E0F0F0F0F0F8F8F8FCFCFCFCFE98
:100250008282828181FFC0C0E0E0E0E0F0F0F0F057
:10026000F8F8F8FCFCFCFCFEFE82828181FFC0C035
:10027000E0E0E0E0F0F0F0F0F8F8F8FCFCFCFCFE68
:10028000FEFE828181FFC0C0E0E0E0E0F0F0F0F02F
:10029000F8F8F8FCFCFCFCFEFEFEFE8181FFC0C00D
:1002A000E0E0E0E0F0F0F0F0F8F8F8FCFCFCFCFE38
:1002B000FEFEFEFF81FFC0C0E0E0E0E0F0F0F0F005
:1002C000F8F8F8FCFCFCFCFEFEFEFEFFFFFF000061
:1002D000000000000000005F0000000000070007B1
:1002E000000000147F147F140000242A7F2A1200CB
:1002F000004C2C1068640000364955225000000064
:10030000050300000000001C224100000000412203
:100310001C00000014083E0814000008083E0808ED
:1003200000000000503000000010101010100000FD
:1003300000606000000000201008040200003E5130
:1003400049453E000000427F4000000042615149A3
:100350004600002141454B3100001814127F100067
:1003600000274545453900003C4A49493000000115
:10037000710905030000364949493600000649491C
:10038000291E00000036360000000000563600002E
:10039000000008142241000000141414141400007A
:1003A00000412214080000020151090600003249F0
:1003B00079413E00007E1111117E00007F494949BC
:1003C0003600003E4141412200007F4141221C0095
:1003D000007F4949494100007F0909090100003EA9
:1003E0004149497A00007F0808087F000000417FEA
:1003F000410000002040413F0100007F08142241DD
:1004000000007F4040404000007F020C027F00005F
:100410007F0408107F00003E4141413E00007F09FB
:1004200009090600003E4151215E00007F0919299B
:100430004600004649494931000001017F010100A1
:10044000003F4040403F00001F2040201F00003F71
:100450004038403F00006314081463000007087030
:100460000807000061514945430000007F414100F9
:100470000000020408102000000041417F0000003D
:10048000040201020400004040404040000000011E
:100490000204000000205454547800007F48444473
:1004A00038000038444444200000384444487F0069
:1004B0000038545454180000087E09010200000C52
:1004C0005252523E00007F08040478000000447D30
:1004D000400000002040443D0000007F1028440000
:1004E000000000417F400000007C041804780000F8
:1004F0007C080404780000384444443800007C142C
:100500001414080000081414187C00007C0804046B
:1005100008000048545454200000043F4440200088
:10052000003C4040207C00001C2040201C00003C7F
:100530004030403C0000442810284400000C50503B
:10054000503C00004464544C440000000836410014
:10055000000000007F00000000004136080000009D
:1005600008040810080000FFFFFFFFFF0000000064
:10057000E0F0F8F800F8F8F0E00000000000FFFFFD
:10058000FFFF00FFFFFFFF0000000000070F1F1F1D
:10059000001F1F0F070000000000E01008080008FF
:1005A0000810E00000000000FF0000000000000054
:1005B000FF000000000007081010001010080700DE
:1005C00000004080E010080800080810E0804000AB
:1005D0000000FF42241800182442FF00000002011E
:1005E00007081010001010080701020000006050FA
:1005F000484400444850600000000000060A1222EF
:100600000022120A0600000000006070787C007C66
:100610007870600000000000060E1E3E003E1E0EB8
:1006200006000000183C7EE70000000000E77E3C6A
:10063000180000002030381C001C3830200000005A
:1006400000002A2A2A2A002A2A2A2A2A0000000030
:1006500000000003007C1211127C00007F49494910
:100660003100007F4949493600007F010101010046
:1006700000603F213F6000007F4949494100007709
:10068000087F08770000224149493600007F1008A2
:10069000047F00007E1009047E00007F08142241C0
:1006A0000000403E01017F00007F020C027F00003D
:1006B0007F0808087F00003E4141413E00007F0165
:1006C00001017F00007F0909090600003E41414108
:1006D00022000001017F01010000074848483F0057
:1006E000000E117F110E0000631408146300003F18
:1006F00020203F600000070808087F00007F407E40
:10070000407F00003F203F207F0000017F484830AD
:1007100000007F4830007F0000007F484830000024
:10072000224149493E00007F083E413E00004629E3
:1007300019097F0000205454547800003C4A4A4A6A
:100740003100007C5454280000007C04040C00009C
:1007500000603C243C600000385454541800006C85
:10076000107C106C0000004454542800007C2010C1
:10077000087C00007C2112097C00007C10284400C9
:100780000000403804047C00007C0810087C000055
:100790007C1010107C0000384444443800007C0475
:1007A00004047C00007C1414140800003844444401
:1007B00000000004047C040400000C5050503C0075
:1007C0000008147C14080000442810284400003C51
:1007D00020203C6000000C1010107C00007C407C4D
:1007E000407C00003C203C207C0000047C505020D9
:1007F00000007C5020007C0000007C505020000055
:10080000284454543800007C1038443800004854C0
:1008100034147C0000000F1511241FBECFEFD8E068
:10082000DEBFCDBF11E0A0E0B1E0E4EEFEE302C028
:1008300005900D92AE39B107D9F727E0AEE9B1E0E6
:1008400001C01D92A436B207E1F714E0CCE0D4E079
:1008500004C02197FE010E941D1FCB30D107C9F7AC
:100860000E94EC140C94701F0C9400000895CF9318
:10087000DF93FC01DC01AE56BF4F1C9211961C9217
:1008800089E090E093838283118610861182108222
:1008900021E0258782E0868796E6938745E04487B6
:1008A0009287238B148A218B34E0328B94E6908BD1
:1008B00035A346A323A334A392A333A753E054A79D
:1008C00011A642A765E660A7478F50A3858F568F74
:1008D000948F118E828F878B508F968B97E691AB7A
:1008E00032AB17A620AB36A796AB78E077AB14AA4D
:1008F00085AB73AB93AF6CE064AF21AF52AF60AF29
:10090000A355B1099C9311969C9386AF57AF95AFB1
:1009100014961C92119658E65C9313973C9311968B
:100920004C9312975C9318961C92EF01C55BDF4FB6
:10093000A9E6A88323973883219656E05883229707
:10094000A883DF01A15BBF4F1C922996AAE6A8836A
:1009500023974883219637E038832297A883DF01C5
:10096000AC5ABF4F1C9211969C9313975C931196AF
:100970003C9312979C9318962C9311964BE64C93AC
:1009800013977C93119639E03C9312974C931896E9
:100990002C9311965CE65C9313977C9311964AE036
:1009A0004C9312975C9318962C9311965DE65C938A
:1009B00013973C9311963BE03C9312975C931896E7
:1009C0002C9311969C9313974C9311963C931297EA
:1009D0009C9318968C9311969EE69C9313976C9318
:1009E00011962DE02C9312979C9318968C93119648
:1009F0009FE69C9313976C9311963EE03C9312975D
:100A00009C9318968C93119630E73C9313972C93F4
:100A100011969FE09C9312973C9318968C93119695
:100A20009C9313972C93119620E12C9312979C93EF
:100A300018968C9311968C9313979C9311962C93E4
:100A4000E258FF4F8083DF91CF910895FC01DC01D4
:100A5000AE56BF4F81E08C9380859185853091059E
:100A600049F08630910571F0049799F413961D9220
:100A70001C920FC081E090E0DF01AB56BF4F8D9319
:100A80009C9307C082E090E0DF01AB56BF4F8D938F
:100A90009C9311821082118610860895FC01DC015E
:100AA000AD56BF4F81E08C9380859185893091054B
:100AB00049F08A30910571F0089799F412961D92C9
:100AC0001C920FC081E090E0DF01AB56BF4F8D93C9
:100AD0009C9307C082E090E0DF01AB56BF4F8D933F
:100AE0009C9382E090E09183808311861086089524
:100AF0000F931F93CF93DF93EC018B01CA010E94E8
:100B0000810F64E670E0C8010E94691A8F3F2FEFE1
:100B1000920709F464C028853985A901440F551F3F
:100B2000440F551F240F351F2C0F3D1FF901E80FEF
:100B3000F91F26A5822F90E0FC01E756F109EA3063
:100B4000F10508F046C0EC5CFF4F0C941D1F1982A4
:100B500018821986188681E043C0CE010E942605BE
:100B600081E03EC0CE010E94260581E039C0CE0161
:100B70000E94260581E034C0CE010E944E0581E02E
:100B80002FC0CE010E944E0581E02AC0CE010E94F6
:100B90004E0581E025C083E090E0998388838CE056
:100BA00090E09987888781E01BC084E090E099837A
:100BB000888382E190E09987888781E011C085E091
:100BC00090E09983888384E190E09987888781E029
:100BD00007C0822F90E09987888781E001C080E07C
:100BE000DF91CF911F910F910895FC018085918530
:100BF0008230910571F01CF4019739F0089583302B
:100C0000910561F0049781F00895CB010E94DA1CF0
:100C10000895CB0189960E94DA1C0895CB018E5A63
:100C20009F4F0E94DA1C0895CB0185589F4F0E9468
:100C3000DA1C0895EF92FF920F931F93CF93DF93E7
:100C4000EC017B018A01CA010E94810F64E670E019
:100C5000C7010E94691A8F3F2FEF920781F1288503
:100C60003985A901440F551F240F351F220F331F4B
:100C70002C0F3D1FF901E80FF91F8285853651F0D1
:100C8000863689F08436B1F4B801CE010E94F505AC
:100C900081E016C082E090E099838883C8010E94B9
:100CA000940A81E00DC081E090E0998388831986E1
:100CB000188606C090E09987888781E001C080E0AF
:100CC000DF91CF911F910F91FF90EF900895CF92F8
:100CD000DF92EF92FF920F931F93CF93DF938C01DC
:100CE000CB01EA0164E670E00E94691A8F3F2FEFA2
:100CF000920739F4F801148215821682178280E077
:100D00008CC08330910579F08430910599F1892B5D
:100D100009F054C081E090E0F80191838083EC56A3
:100D2000FF4F80834BC07E01F6EAEF0EF11C2AE0F4
:100D300037ED43E25CE3F801648175818681978138
:100D40000E943E1D9B01AC01F7016081718182818F
:100D500093810E943D1DF701608371838283938399
:100D60008DEC9CECACECBDE3F80184839583A68309
:100D7000B78324C07E01F6EAEF0EF11C2AE037EDBE
:100D800043E25CE3F80164817581868197810E946A
:100D90003E1DF70120813181428153810E943E1D19
:100DA000F70160837183828393838DEC9CECACECC0
:100DB000BDE3F80184839583A683B783FE01EA55DA
:100DC000FF4FC080D180E280F38020E030E0A901B5
:100DD000C701B6010E94AA1D18165CF0CA55DF4F64
:100DE0008AE097EDA3E2BCE388839983AA83BB835F
:100DF00014C020E030E040E450E4C701B6010E9496
:100E0000971E882354F0CA55DF4F80E090E0A0E49D
:100E1000B0E488839983AA83BB83DF91CF911F912C
:100E20000F91FF90EF90DF90CF900895CF92DF92D7
:100E3000EF92FF920F931F93CF93DF938C01CB011F
:100E4000EA0164E670E00E94691A8F3F2FEF920773
:100E500039F4F801148215821682178280E024C1C9
:100E60008230910509F4ACC034F4009759F0019731
:100E700009F4ACC0B0C08330910591F0049709F437
:100E800059C0A9C081E090E0F801918380838DE092
:100E900090E09187808781E0EC56FF4F80839BC074
:100EA000F801808591854297F1F47E01FAEAEF0E10
:100EB000F11C2AE037ED43E25CE3F80164817581BF
:100EC000868197810E943E1D9B01AC01F7016081E4
:100ED0007181828193810E943D1DF701608371833E
:100EE000828393831DC07E01FEEAEF0EF11C2AE08F
:100EF00037ED43E25CE3F801648175818681978177
:100F00000E943E1D9B01AC01F701608171818281CD
:100F100093810E943D1DF7016083718382839383D7
:100F20008CEE91E5A8EBBDE3F80184839583A6835D
:100F3000B78351C0F801808591854297E1F47E0125
:100F4000FAEAEF0EF11C2AE037ED43E25CE3F80128
:100F500064817581868197810E943E1DF701208101
:100F60003181428153810E943E1DF701608371836C
:100F7000828393831BC07E01FEEAEF0EF11C2AE000
:100F800037ED43E25CE3F8016481758186819781E6
:100F90000E943E1DF70120813181428153810E94D0
:100FA0003E1DF70160837183828393838CEE91E50C
:100FB000A8EBBDE3F80184839583A683B7830BC0B8
:100FC00083E190E0F8019187808705C082E190E09D
:100FD000F8019187808720E030E0A901FE01E65505
:100FE000FF4F60817181828193810E94AA1D181632
:100FF0003CF0FE01E655FF4F1082118212821382EF
:1010000020E030E040EA50E4FE01E255FF4F60810D
:101010007181828193810E94971E88235CF080E019
:1010200090E0A0EAB0E4FE01E255FF4F8083918397
:10103000A283B383F801808591858231910519F0EF
:101040004397D1F031C0FE01E255FF4FC080D180FF
:10105000E280F380A70196013497608171818281DB
:1010600093810E94971E8823FCF0C655DF4FC882EB
:10107000D982EA82FB8218C0FE01E655FF4FC0808C
:10108000D180E280F380A70196013496608171815E
:10109000828193810E94AA1D181634F0C255DF4F39
:1010A000C882D982EA82FB82DF91CF911F910F9192
:1010B000FF90EF90DF90CF9008958F929F92AF9224
:1010C000BF92EF92FF920F931F93CF93DF938C0108
:1010D000CB01EA0164E670E00E94691A8F3F2FEFAE
:1010E000920739F4F801148215821682178280E083
:1010F000AFC081309105C9F08230910581F0009731
:10110000D1F481E090E0F801918380838EE090E05B
:1011100091878087EC56FF4F81E0808383C085E113
:1011200090E0F801918780877DC084E190E0F8012C
:101130009187808777C0F80120853185243131057A
:1011400071F48330910519F0049729F06BC0CE013A
:101150000E94DE0F67C0CE010E94DE0F63C08330A5
:10116000910519F0049781F15DC07E01F2EBEF0E5D
:10117000F11CF70160817181072E000C880B990B1F
:101180000E94E71D4B015C0120E030E040E85FE396
:10119000F80164817581868197810E943E1D9B01C3
:1011A000AC01C501B4010E943D1D0E94AF1DF701B5
:1011B0007183608380E090E0A0E1B1E4F801848372
:1011C0009583A683B7832EC020E030E040E85FE33C
:1011D000F80164817581868197810E943E1D4B01D3
:1011E0005C017E01F2EBEF0EF11CF7016081718171
:1011F000072E000C880B990B0E94E71D9B01AC0188
:10120000C501B4010E943E1D0E94AF1DF70171830C
:10121000608380E090E0A0E1B1E4F80184839583ED
:10122000A683B783FE01EE54FF4F80819181863003
:1012300091052CF485E090E09183808309C0873E7E
:10124000934034F0CE54DF4F87EE93E09983888348
:10125000DF91CF911F910F91FF90EF90BF90AF90D2
:101260009F908F900895DC011296ED91FC91139759
:10127000EE0FFF1FEE0FFF1FE256FF4F65917591B6
:101280008591949108950F931F93CF93DF93EC0171
:10129000CB018A0164E670E00E94691A8F3F2FEF4C
:1012A000920711F480E03DC082309105C1F02CF42A
:1012B000009749F0019751F026C083309105C1F0A5
:1012C0000497E1F020C0198218821DC0CE010E944F
:1012D0003309AB01BC01C8010E942F0F14C0CE011D
:1012E0000E943309AB01BC01C8010E94580F0BC01A
:1012F0008A819B8101979B838A8305C08A819B8118
:1013000001969B838A838A819B81181619061CF09B
:101310001B821A8206C0439724F083E190E09B83EE
:101320008A83DF91CF911F910F910895FC01208155
:10133000318122303105B1F03CF42115310561F0E5
:101340002130310561F008952430310589F06CF0C9
:101350002530310581F008950E941A0608950E94F3
:10136000780508950E94430908950E94670608952C
:101370000E94160708950E945D0808950895FC01D3
:1013800060834183528388EE93E096838583633440
:10139000A1F0643411F1623479F524B181E090E078
:1013A00002C0880F991F4A95E2F7982F90959223D3
:1013B00094B995B1892B85B9089527B181E090E062
:1013C00002C0880F991F4A95E2F7982F90959223B3
:1013D00097B998B1892B88B908952AB181E090E036
:1013E00002C0880F991F4A95E2F7982F9095922393
:1013F0009AB99BB1892B8BB90895FC01772374F1BD
:101400008081833479F08434B9F0823409F06AC081
:1014100083B190E0018002C0959587950A94E2F728
:10142000817013C086B190E0018002C095958795C8
:101430000A94E2F7817009C089B190E0018002C08E
:10144000959587950A94E2F78170882309F44EC038
:1014500088EE93E09683858380E00895148213825A
:10146000858196811816190634F036C0258136819B
:10147000821793078CF58081833471F08434B1F046
:10148000823491F523B130E0018002C03595279573
:101490000A94E2F7217013C026B130E0018002C047
:1014A000359527950A94E2F7217009C029B130E0FB
:1014B000018002C0359527950A94E2F7217089EFE3
:1014C00090E00197F1F700C00000838194810196BC
:1014D00094838383222351F284E690E0968385836C
:1014E00081E0089580E0089580E0089514821382D9
:1014F000B7CFCF93DF93EC010E94971BCE01899663
:101500000E94971BCE018E5A9F4F0E94971BCE01BF
:1015100085589F4F0E94971BCE018C559F4F0E946C
:10152000301BDF91CF910895CF93DF93EC010E94A0
:10153000D31BCE0189960E94D31BCE018E5A9F4F9A
:101540000E94D31BCE0185589F4F0E94D31BDF9171
:10155000CF910895CF93DF93FC01DC01A255BF4FDB
:101560008D919D910D90BC91A02D86839783A0872E
:10157000B18787A790ABA1ABB2ABEF01C85ADF4FE1
:1015800088839983AA83BB83A99688839983AA8336
:10159000BB83DF01A655BF4F8D919D910D90BC91EE
:1015A000A02D82879387A487B58783AB94ABA5AB27
:1015B000B6ABA59788839983AA83BB83EB57FF4F6C
:1015C00080839183A283B383DF91CF910895CF93DA
:1015D000DF93EC010E947F1CCE0189960E947F1C44
:1015E000CE018E5A9F4F0E947F1CCE0185589F4F7F
:1015F0000E947F1CDF91CF9108954F925F926F926E
:101600007F928F929F92AF92BF92CF92DF92EF9292
:10161000FF920F931F93CF93DF93EC010E949B1BCC
:101620004E0189E2880E911CC4010E949B1B5E0141
:1016300092E5A90EB11CC5010E949B1B6E01EBE750
:10164000CE0ED11CC6010E949B1B3E01F4EA6F0E18
:10165000711CEE24E394F12C01E010E021E030E075
:1016600041E050E06AE070E0C3010E94361BCE0109
:101670000E944A1C2E0194EC490E511C90E0F2018C
:1016800091838083C4010E944A1CFE01EA53FF4FEC
:1016900090E091838083C5010E944A1CFE01E853BB
:1016A000FF4F90E091838083C6010E944A1CFE0197
:1016B000E653FF4F90E0918380836894EE24E1F835
:1016C000F12C02E010E022E030E042E050E06AE07D
:1016D00070E0C3010E94361BF20180819181892B49
:1016E00099F0329680819181892B81F032968081A8
:1016F0009181892B69F0C653DF4F81E028813981C0
:10170000232B39F480E005C080E003C080E001C0F5
:1017100080E0DF91CF911F910F91FF90EF90DF90CC
:10172000CF90BF90AF909F908F907F906F905F9081
:101730004F9008950F931F93CF93DF93EC0189E2AD
:10174000FB01DE0101900D928A95E1F789E2FA0131
:10175000DE01999601900D928A95E1F7DE01AE5A6D
:10176000BF4F89E2F90101900D928A95E1F7DE0100
:10177000A558BF4F89E2F80101900D928A95E1F7D3
:10178000CE018C559F4F0E94311BFE01E253FF4F4B
:1017900081E090E091838083CE010E94FD0ADF9179
:1017A000CF911F910F910895CF93DF93FC01EB54DC
:1017B000FF4FDC0190962D913C91919731832083CE
:1017C000A954BF4FEC01C75BDF4F288139811196C7
:1017D0003C932E931296A9962881398111963C93B9
:1017E0002E931296A996288139812D933C93DF017F
:1017F00083549F4F219131911216130624F0E8175C
:10180000F907C1F716C021153105B1F04D915D9171
:101810001416150624F4421753070CF49A01A8175E
:10182000B907A1F7C9012333310544F082E390E001
:1018300005C080E090E002C080E090E0DF91CF91B1
:101840000895CF92DF92EF92FF920F931F93CF9361
:10185000DF93CDB7DEB78B859C858230910571F023
:101860001CF4019739F01DC08330910571F0049785
:10187000A1F017C0CC24C394D12C13C0CC24C394A2
:101880000F2EFBE0DF2EF02D0CC06894CC24C2F8A4
:101890000F2EFBE0DF2EF02D04C06894CC24C2F89C
:1018A000D12CCE010B960E949B1B8B019C0168944E
:1018B000EE24E1F8F12C41E06C2D8D2D0E94C01238
:1018C0000E94B610DF91CF911F910F91FF90EF9082
:1018D000DF90CF9008954F925F926F927F928F9298
:1018E0009F92AF92BF92CF92DF92EF92FF920F93AF
:1018F0001F93CF93DF93EC010E94E31B6E019EEBDD
:10190000C90ED11CF60180838DB79EB789970FB69B
:10191000F8949EBF0FBE8DBFADB7BEB7119689E2DA
:10192000FE0101900D928A95E1F7CE010E94210CF3
:101930005E0199E2A90EB11CEDB7FEB7B9960FB6DC
:10194000F894FEBF0FBEEDBFC5010E94E31B4E0120
:10195000FFEB8F0E911CF40180838DB79EB78997A2
:101960000FB6F8949EBF0FBE8DBFADB7BEB7119630
:1019700089E2F50101900D928A95E1F7CE010E946E
:10198000210C3E0192E5690E711CEDB7FEB7B996C8
:101990000FB6F894FEBF0FBEEDBFC3010E94E31B5C
:1019A0008E0100541F4FF80180838DB79EB7899731
:1019B0000FB6F8949EBF0FBE8DBFADB7BEB71196E0
:1019C00089E2F30101900D928A95E1F7CE010E9420
:1019D000210C2E019BE7490E511CEDB7FEB7B996BD
:1019E0000FB6F894FEBF0FBEEDBFC2010E94E31B0D
:1019F0007E01F1ECEF0EF11CF70180838DB79EB7ED
:101A000089970FB6F8949EBF0FBE8DBFADB7BEB716
:101A1000119689E2F20101900D928A95E1F7CE01CB
:101A20000E94210CEDB7FEB7B9960FB6F894FEBF31
:101A30000FBEEDBFF701E080F12CF801008110E04E
:101A4000F401208130E0F601408150E06AE070E06E
:101A5000CE018C559F4F0E94361BF6018081882352
:101A600051F0CE010E944A1CFE01EC53FF4F90E062
:101A70009183808307C081E090E0FE01EC53FF4F2B
:101A800091838083FE01E154FF4F8081882351F0D0
:101A9000C5010E944A1CFE01EA53FF4F90E091836A
:101AA000808307C081E090E0FE01EA53FF4F9183FD
:101AB0008083FE01E054FF4F8081882351F0C301F1
:101AC0000E944A1CFE01E853FF4F90E091838083FF
:101AD00007C081E090E0FE01E853FF4F91838083CF
:101AE000FE01EF53FF4F8081882351F0C2010E9415
:101AF0004A1CFE01E653FF4F90E09183808307C0AC
:101B000081E090E0FE01E653FF4F91838083FE0168
:101B1000EC53FF4F80819181892B99F0329680811F
:101B20009181892B81F0329680819181892B69F096
:101B3000C653DF4F81E028813981232B39F480E0BF
:101B400005C080E003C080E001C080E0DF91CF915C
:101B50001F910F91FF90EF90DF90CF90BF90AF90CB
:101B60009F908F907F906F905F904F9008952F92ED
:101B70003F924F925F926F927F928F929F92AF921D
:101B8000BF92CF92DF92EF92FF920F931F93CF936A
:101B9000DF93CDB7DEB72E970FB6F894DEBF0FBE3A
:101BA000CDBF9E878D870E94E70AED85FE85E453B1
:101BB000FF4F81E090E0918380838D859E850E9418
:101BC0006B0C882309F432C1ED85FE85E453FF4F89
:101BD00080819181181619060CF028C1812C912C56
:101BE0006D847E848EEB680E711CED85FE85B99642
:101BF000FA83E9834D845E84FFEB4F0E511C8D8583
:101C00009E858E5A9F4F9C838B832D843E8490ECBF
:101C1000290E311CED85FE85E558FF4FFE83ED83CF
:101C20008D859E858F539F4F98878F83ED85FE8589
:101C3000E453FF4FFA87E9878D859E858C559F4F2A
:101C40009C878B8705C0F4E68F16910409F4B8C011
:101C50008D859E850E94E31BF30180838DB79EB71F
:101C600089970FB6F8949EBF0FBE8DBFADB7BEB7B4
:101C7000119689E2ED85FE8501900D928A95E1F736
:101C80008D859E850E94210C0FB6F894DEBF0FBE95
:101C9000CDBF89819A810E94E31BF20180838DB7B9
:101CA0009EB789970FB6F8949EBF0FBE8DBFADB794
:101CB000BEB7119689E2E981FA8101900D928A9569
:101CC000E1F78D859E850E94210C0FB6F894DEBF4A
:101CD0000FBECDBF8B819C810E94E31BF1018083ED
:101CE0008DB79EB789970FB6F8949EBF0FBE8DBF74
:101CF000ADB7BEB7119689E2EB81FC8101900D92E0
:101D00008A95E1F78D859E850E94210C0FB6F89487
:101D1000DEBF0FBECDBF8D819E810E94E31BEF8190
:101D2000F88580838DB79EB789970FB6F8949EBFCC
:101D30000FBE8DBFADB7BEB7119689E2ED81FE81B2
:101D400001900D928A95E1F78D859E850E94210C68
:101D5000F301A080B12CF201C080D12CF1010081EF
:101D600010E0EF81F885E080F12CC5018C0D9D1D00
:101D7000800F911F8E0D9F1DE985FA8591838083C9
:101D80000FB6F894DEBF0FBECDBF8D859E850E9435
:101D9000D40B9601A501BC018B859C850E94361B46
:101DA0009FEF891A990AE985FA8580819181181631
:101DB00019060CF448CF94E689169104BCF100C0D2
:101DC000ED85FE85E254FF4F8081882321F081E07C
:101DD000ED85FE85838FED85FE85E154FF4F808183
:101DE000882331F081E0ED85FE85EC5BFF4F808339
:101DF000ED85FE85E054FF4F8081882331F081E03E
:101E0000ED85FE85E359FF4F8083ED85FE85EF5319
:101E1000FF4F8081882351F08D859E858A569F4F84
:101E20009A83898381E0E981FA8180832E960FB6B7
:101E3000F894DEBF0FBECDBFDF91CF911F910F9100
:101E4000FF90EF90DF90CF90BF90AF909F908F90DA
:101E50007F906F905F904F903F902F900895CF921A
:101E6000DF92EF92FF92CF93DF93EC016A017B0147
:101E70000E94E01CB701A601CE0189960E94E01CD9
:101E8000B701A601CE018E5A9F4F0E94E01CB701F8
:101E9000A601CE0185589F4F0E94E01CCE010E94F2
:101EA000B70DDF91CF91FF90EF90DF90CF90089525
:101EB000CF92DF92EF92FF92CF93DF93EC016A0112
:101EC0007B010E940E1DB701A601CE0189960E94DA
:101ED0000E1DB701A601CE018E5A9F4F0E940E1D06
:101EE000B701A601CE0185589F4F0E940E1DCE015D
:101EF0000E94B70DDF91CF91FF90EF90DF90CF90D0
:101F00000895AF92BF92CF92DF92EF92FF920F931C
:101F10001F93CF93DF93FC01EC54FF4F20812223CA
:101F200009F441C0EC010E94B11C6E0189E2C80EA7
:101F3000D11CC6010E94B11C7E01E2E5EE0EF11C2F
:101F4000C7010E94B11C8E0105581F4FC8010E9495
:101F5000B11CFE01EA5BFF4F9D8D8081892BB996F4
:101F60009081892B21F4B99680818823E1F05E016C
:101F7000F2EBAF0EB11CF50160817181CE010E94C0
:101F80006D1CF50160817181C6010E946D1CF50117
:101F900060817181C7010E946D1CF50160817181B2
:101FA000C8010E946D1CDF91CF911F910F91FF908E
:101FB000EF90DF90CF90BF90AF900895FC01EC546C
:101FC000FF4F808191E09827908308952A9861308F
:101FD00011F4299A01C029988EBD0DB407FEFDCFDA
:101FE0002A9A0895CF92DF92EF92FF920F931F9358
:101FF000CF93DF936B017C01EA01CA01019720971F
:1020000081F061E070E09B01220F331F660F771FA4
:10201000660F771F660F771F620F731F019798F780
:1020200002C061E070E0072E000C880B990B0E9443
:10203000E71DA70196010E949C1E0E94AF1DAB01E7
:10204000BC01CA0199231CF021E030E002C02FEF4F
:102050003FEF249FC001259F900D349F900D1124C8
:102060000DEA11E00F2EFAE0EF2EF12CF02D0F2EDD
:10207000FEE2DF2EF02D02C08F01EA01F801B70168
:102080000E94091F805D8293862F972FAE014150D9
:10209000510919F4F8013297D082009769F71416A4
:1020A0001506D4F4BE0162507109DF0140E32197A7
:1020B000CE1BDF0B4E93CD018C0F9D1F18161906FA
:1020C000CCF3CB01992314F480E090E080959095B7
:1020D000E80FF91F8EE2829380818E3211F480E343
:1020E0008293332314F48DE28293CF01DF91CF9159
:1020F0001F910F91FF90EF90DF90CF9008952C9A51
:1021000084B18E6384B92C982C9A80E58CBD2A9A70
:1021100060E081E20E94E60F60E088EC0E94E60F3A
:1021200060E086E00E94E60F60E083E10E94E60F37
:1021300060E080E20E94E60F60E08CE00E94E60F23
:10214000089588EF91E0E4EBF1E0DF019C011D923E
:1021500021503040E1F71092B3011092B20187EFA5
:1021600091E09093B1018093B0010895EF92FF92B6
:102170000F931F93CF93DF938091B2019091B3019E
:1021800099232CF41092B3011092B20109C0883F38
:10219000914034F087EF91E09093B3018093B201C6
:1021A0008091B0019091B10199232CF41092B1016A
:1021B0001092B00109C0883F914034F087EF91E060
:1021C0009093B1018093B001C091B201D091B3015D
:1021D000CE0164E570E00E94091F162F60E0806860
:1021E0000E94E60F60E0812F80640E94E60FE0907D
:1021F000B001F090B101EC16FD066CF08E010C54AC
:102200001E4F61E0F80181918F010E94E60F219637
:10221000EC16FD06B4F787EF91E09093B30180933D
:10222000B2011092B1011092B001DF91CF911F91D4
:102230000F91FF90EF9008958E30A8F46630A8F4C7
:1022400090E09C01220F331F820F931F880F991F6C
:1022500024E5629F800D911D11249093AF0180931E
:10226000AE0180E0089581E0089581E008954091F5
:10227000AE015091AF01805297E0899FF001112487
:10228000E253FD4FDA01AC54BE4F9A0126543E4F43
:1022900084918D933196A217B307D1F74A5F5F4FB0
:1022A0005093AF014093AE0180E008954091AE019C
:1022B0005091AF0190E0FC01EE0FFF1FE80FF91FF6
:1022C000EE0FFF1FEE0FFF1FEE0FFF1FE251FF4F3C
:1022D000DA01AC54BE4F9A0124533E4F84918D9342
:1022E0003196A217B307D1F7485E5F4F5093AF0105
:1022F0004093AE0180E008950F931F93CF93DF9337
:102300004091AE015091AF012091B2013091B301E3
:102310004217530724F45093B3014093B201E0EE07
:10232000E60FE03A08F4A0C0603C08F49CC0E1EC81
:10233000E60F9AC08491880F8D933196A217B30748
:10234000C9F74B5F5F4F5093AF014093AE0165C03B
:10235000823009F062C0CA01845591092091B2010E
:102360003091B301821793070CF08EC09093B301A4
:102370008093B20189C02491220F822F8270982FFE
:10238000990F890F982F990F822F8470382F330F50
:10239000830F880F880F892B022F0870019F002D53
:1023A0001124082B30E035952795359527953595DF
:1023B000279535952795822F8270382F330F830FFD
:1023C000880F322F3170932F990F390F832B922F53
:1023D0009470392F330F930F990F990F892B922FE8
:1023E0009870919F902D1124282F292B0883098301
:1023F0002C9311962C931197319622961296A6172C
:10240000B70709F0B8CFCA010B9668EF71E00E94D8
:10241000091F9093AF018093AE018091AE0190911E
:10242000AF012091B0013091B1012817390724F490
:102430009093B1018093B001FC01EC54FE4F1082E7
:10244000873F21E0920731F41092AF011092AE0164
:1024500082E02DC001969093AF018093AE0180E0A1
:1024600026C081E024C0EFE5813009F071CF87E01C
:10247000E89FF0011124E253FD4FDA01AC54BE4F46
:102480009A0127543E4F56CF99235CF327E0E29FF1
:10249000F0011124E253FD4FEA01C05ADE4FDA0188
:1024A000AC54BE4FBA0162547E4F18E164CFDF9145
:1024B000CF911F910F9108950F931F93CF93DF93A7
:1024C000D42F89010E941C11F8016081662379F0E4
:1024D000C0E08D2F0E947C11813041F0CF5FF80168
:1024E000EC0FF11D60816111F4CF01C061E0862F16
:1024F000DF91CF911F910F910895FF920F931F933A
:10250000CF93DF93F42E89010E941C11F8016081A2
:10251000662391F0C0E06E3221F08F2D0E947C1175
:10252000D82FD13041F0CF5FF801EC0FF11D608161
:102530006111F1CF01C061E0862FDF91CF911F9132
:102540000F91FF900895DF92EF92FF920F931F93E8
:10255000CF93DF93C82FD62FD42EA701C901B8017E
:102560000E94F20F9C014D2D6D2F8C2F0E945C124A
:10257000DF91CF911F910F91FF90EF90DF90089521
:10258000DF92EF92FF920F931F93CF93DF93C82FA9
:10259000D62FD42EA701C901B8010E94F20F9C01C9
:1025A0004D2D6D2F8C2F0E947D12DF91CF911F91A9
:1025B0000F91FF90EF90DF900895CF92DF92EF920E
:1025C000FF920F931F9342E050E064E48DE597E0A3
:1025D0000E94BF0943E050E064E486E597E00E9472
:1025E000BF0944E050E064E48FE497E00E94BF0933
:1025F00045E050E064E488E497E00E94BF0946E0CB
:1026000050E064E481E497E00E94BF090F2EF1E4FA
:10261000EF2EF7E0FF2EF02D08E417E02FE437E06F
:1026200046E557E06DE577E08AEA95E00E94341AC6
:102630000E947F1061E070E088E197E00E94AA1B91
:1026400062E070E08FEE96E00E94AA1B63E070E00B
:1026500086EC96E00E94AA1B64E070E08DE996E0AB
:102660000E94AA1B0DE916E026EC36E04FEE56E07C
:1026700068E177E08DEC95E00E949A0B8CEA93E09C
:102680000E9437044DEC55E06CEA73E083E494E07B
:102690000E94D91989E490E00E943F1F6B017C01E0
:1026A00020E030E0A9010E94971E181694F020E067
:1026B00030E040E450E4C701B6010E94AA1D88231F
:1026C00044F040E050E060E87FE389E490E00E945D
:1026D000531F89E490E00E943F1F6093730670933C
:1026E0007406809375069093760685E490E00E94C8
:1026F0003F1F6B017C0120E030E0A9010E94971E82
:1027000088238CF420E030E040EA50E4C701B601B1
:102710000E94AA1D18163CF440E050E0BA0185E47E
:1027200090E00E94531F85E490E00E943F1F609359
:102730007706709378068093790690937A0681E401
:1027400090E00E943F1F6B017C0120E030E0A90176
:102750000E94971E882394F420E030E040EA50E481
:10276000C701B6010E94AA1D181644F440E050E0CB
:1027700060EA70E481E490E00E94531F81E490E0FD
:102780000E943F1F60937B0670937C0680937D06BA
:1027900090937E068DEC95E00E94AA0A8CE390E06F
:1027A0000E943F1F6B017C0120E030E0A9010E94E4
:1027B000971E8823BCF420E030EC49E754E4C701BD
:1027C000B6010E94AA1D18166CF440E050E068E4BF
:1027D00072E48CE390E00E94531F61E080E490E09B
:1027E0000E94451F8CE390E00E943F1F0E94AF1D96
:1027F0007093800660937F0680E490E00E94371F0C
:1028000091E0811101C090E0909381061F910F919A
:10281000FF90EF90DF90CF9008958823F1F14091E1
:10282000730650917406609175067091760689E47E
:1028300090E00E94531F4091770650917806609176
:10284000790670917A0685E490E00E94531F4091CA
:102850007B0650917C0660917D0670917E0681E436
:1028600090E00E94531F8DEC95E00E94AA0A6091AF
:102870007F0670918006072E000C880B990B0E9432
:10288000E71DAB01BC018CE390E00E94531F6091F7
:10289000810680E490E00E94451F08950F931F93E6
:1028A000CF93DF9320913E04222399F1EC018DEC2C
:1028B00095E00E949B1BAB01BC0184E18C9F8001D1
:1028C0008D9F100D1124C8018C5F9F4F0E94531FD4
:1028D00086EF95E00E949B1BAB01BC01C801885F9D
:1028E0009F4F0E94531F8FE196E00E949B1BAB01FC
:1028F000BC01C801845F9F4F0E94531F88E496E08B
:102900000E949B1BAB01BC01C801805F9F4F0E94CE
:10291000531F10923E04DF91CF911F910F910895A4
:102920000F931F93CF93DF9320913F04222309F449
:102930004CC00DEC15E021E0F801228F2093100629
:10294000209339062093620624E1289FE001299F05
:10295000D00D1124CE018C5F9F4F0E943F1FF801C4
:10296000668B778B808F918FCE01885F9F4F0E94FF
:102970003F1F60930C0670930D0680930E06909394
:102980000F06CE01845F9F4F0E943F1F6093350664
:10299000709336068093370690933806CE01805F99
:1029A0009F4F0E943F1F60935E0670935F06809367
:1029B000600690936106A8016CEA73E083E494E0FA
:1029C0000E94D919C8010E94B70D10923F04DF91EF
:1029D000CF911F910F9108950E94DD12C1E4D4E0C0
:1029E00000E414E04DEC55E06AEA75E08CEA93E00F
:1029F0000E9496094DEC55E06CEA73E083E494E0A4
:102A00000E94D919888199810E944E1488819981E8
:102A10000E949014F80180810E940D14E3CF8DE58F
:102A200097E00E94BE0986E597E00E94BE098FE408
:102A300097E00E94BE0988E497E00E94BE0981E405
:102A400097E00E94BE0988E197E00E94971B8FEEF5
:102A500096E00E94971B86EC96E00E94971B8DE9FA
:102A600096E00E94971B8DEC95E00E94790A8AEA15
:102A700095E00E941C1A83E494E00E9444158CEABD
:102A800093E00E9436040895CF93DF93EC010E94F7
:102A90003604CE0189569F4F0E94790ADF91CF916B
:102AA0000895EF92FF920F931F93CF93DF93EC0162
:102AB00020E031E041E060E082E00E945C122CE026
:102AC00031E041E062E082E00E945C1225E131E009
:102AD00041E064E082E00E945C12FE01E75BFE4F91
:102AE00060817181072E000C880B990B0E94E71DF5
:102AF0008B019C01E12CF12C41E064E08BE00E9411
:102B0000A312FE01E55BFE4F8081813041F02EE192
:102B100031E041E062E08BE00E945C1207C022E2FB
:102B200031E041E062E08BE00E945C12888599858B
:102B30008431910519F0459749F00FC062E080E0BB
:102B40000E941C118BE90E94371107C064E080E0ED
:102B50000E941C118BE90E943711DF91CF911F91C8
:102B60000F91FF90EF900895EF92FF920F931F93B4
:102B7000CF93DF93EC0126E231E041E060E082E0B8
:102B80000E945C1222E331E041E062E082E00E94B8
:102B90005C12FE01EF5BFE4F0081118122813381C7
:102BA0006894EE24E1F8F12C41E062E088E00E94B4
:102BB000A31226E331E041E064E082E00E945C126F
:102BC000FE01EB5BFE4F008111812281338141E0E8
:102BD00064E088E00E94A31288859985823191057E
:102BE00019F0439781F01DC062E086E00E941C113D
:102BF0008AE90E94371162E08DE00E941C118BE986
:102C00000E9437110EC064E086E00E941C118AE920
:102C10000E94371164E08DE00E941C118BE90E9434
:102C20003711DF91CF911F910F91FF90EF90089591
:102C3000EF92FF920F931F93CF93DF93EC012AE360
:102C400031E041E060E082E00E945C1263E083E0FA
:102C50000E941C118AE90E943711C35CDE4F088173
:102C600019812A813B816894EE24E1F8F12C41E03E
:102C700063E085E00E94A31263E08AE00E941C11D9
:102C80008BE90E943711DF91CF911F910F91FF9037
:102C9000EF900895FC01808591858430910524F59D
:102CA00025E431E041E060E085E00E945C122AE426
:102CB00031E041E061E082E00E945C1224E531E015
:102CC00041E062E082E00E945C122FE531E041E0E9
:102CD00063E082E00E945C1229E631E041E064E0BA
:102CE00082E00E945C1208958830910524F52AE460
:102CF00031E041E060E083E00E945C122FE631E0C9
:102D000041E061E082E00E945C1228E731E041E0AE
:102D100062E082E00E945C1224E831E041E063E07E
:102D200082E00E945C1229E631E041E064E082E04A
:102D30000E945C1208950C9724F524E531E041E0EF
:102D400060E083E00E945C122FE631E041E061E048
:102D500082E00E945C1228E731E041E062E082E01C
:102D60000E945C1224E831E041E063E082E00E94CE
:102D70005C1229E631E041E064E082E00E945C12EE
:102D800008952FE531E041E060E083E00E945C12AD
:102D90002AE331E041E061E082E00E945C1226E239
:102DA00031E041E062E082E00E945C1220E031E02C
:102DB00041E063E082E00E945C1221E931E041E001
:102DC00064E082E00E945C1229E631E041E065E0C7
:102DD00082E00E945C120895DC011896ED91FC914E
:102DE0001997E131F10508F08BC0E25CFF4F0C94BC
:102DF0001D1F61E080E00E941C118BE90E943711C9
:102E0000089562E080E00E941C118BE90E94371156
:102E1000089563E080E00E941C118BE90E94371145
:102E2000089564E080E00E941C118BE90E94371134
:102E3000089561E080E00E941C118BE90E94371127
:102E4000089562E080E00E941C118BE90E94371116
:102E5000089564E080E00E941C118BE90E94371104
:102E6000089563E080E00E941C118BE90E943711F5
:102E7000089561E080E00E941C118BE90E943711E7
:102E8000089562E080E00E941C118BE90E943711D6
:102E9000089563E080E00E941C118BE90E943711C5
:102EA000089564E080E00E941C118BE90E943711B4
:102EB000089561E080E00E941C118BE90E943711A7
:102EC000089562E080E00E941C118BE90E94371196
:102ED000089563E080E00E941C118BE90E94371185
:102EE000089564E080E00E941C118BE90E94371174
:102EF000089565E080E00E941C118BE90E94371163
:102F00000895CF93DF93EC010E944A16CE010E94F0
:102F1000EC16DF91CF91089560E086E00E941C11CD
:102F20008EE90E94371160E087E00E941C118FE952
:102F30000E9437110895AF92BF92CF92DF92EF9225
:102F4000FF920F931F93CF93DF93CDB7DEB72C97EC
:102F50000FB6F894DEBF0FBECDBF898D9A8D82303B
:102F6000910599F01CF4019739F031C08330910537
:102F7000C1F0049719F12BC0CC24C394A12C00E01C
:102F80000F2EF3E0DF2EF02D22C0CC24C3940F2EA1
:102F9000FBE0AF2EF02D00E00F2EF9E0DF2EF02D3C
:102FA00016C06894CC24C2F80F2EFBE0AF2EF02D93
:102FB00003E00F2EF9E0DF2EF02D09C06894CC2439
:102FC000C2F8A12C03E00F2EF3E0DF2EF02D8CA928
:102FD0008823C9F08CE890E09A8389838DE890E09B
:102FE0009C838B838EE890E09E838D838FE890E0B6
:102FF00098878F8380E990E09A87898781E990E0BC
:103000009C878B8763C08BA98823C9F080E890E0F8
:103010009A83898381E890E09C838B8382E890E0A7
:103020009E838D8383E890E098878F8384E890E087
:103030009A87898785E890E09C878B8747C086E8D8
:1030400090E09A83898387E890E09C838B8388E86B
:1030500090E09E838D8389E890E098878F838AE84B
:1030600090E09A8789878BE890E09C878B872EC0B9
:10307000612F8D2D0E941C11F70180810E94371154
:10308000612F8B2D0E941C11F70182810E94371144
:103090001F5FF4E0EF0EF11C1013EACFCE0149964A
:1030A0000E949B1B8B019C016894EE24E1F8F12C9B
:1030B00041E06C2D8A2D0E94C01261E06C0D8A2DBA
:1030C0000E941C1180EA0E94371109C0102FCE0106
:1030D00001967C010D5FBB24B394BD0CC9CF2C9627
:1030E0000FB6F894DEBF0FBECDBFDF91CF911F9119
:1030F0000F91FF90EF90DF90CF90BF90AF90089529
:10310000CF93DF93EC01FC01E956FF4F8DB79EB7DB
:1031100089970FB6F8949EBF0FBE8DBFADB7BEB7EF
:10312000119689E201900D928A95E1F7CE010E94F5
:103130009B178DB79EB789960FB6F8949EBF0FBEAA
:103140008DBFFE01E054FF4F89970FB6F8949EBFE4
:103150000FBE8DBFADB7BEB7119689E201900D923B
:103160008A95E1F7CE010E949B178DB79EB789968D
:103170000FB6F8949EBF0FBE8DBFFE01E751FF4F03
:1031800089970FB6F8949EBF0FBE8DBFADB7BEB77F
:10319000119689E201900D928A95E1F7CE010E9485
:1031A0009B178DB79EB789960FB6F8949EBF0FBE3A
:1031B0008DBFFE01EE5EFE4F89970FB6F8949EBF5D
:1031C0000FBE8DBFADB7BEB7119689E201900D92CB
:1031D0008A95E1F7CE010E949B178DB79EB789961D
:1031E0000FB6F8949EBF0FBE8DBFDF91CF910895AB
:1031F000FC01808191810297E9F462E086E00E94FF
:103200001C1186E90E94371162E087E00E941C11C0
:1032100087E90E94371163E086E00E941C1188E96B
:103220000E94371163E087E00E941C1189E90E9427
:103230003711089562E086E00E941C1182E90E9425
:10324000371162E087E00E941C1183E90E94371168
:1032500063E086E00E941C1184E90E94371163E05C
:1032600087E00E941C1185E90E9437110895FC0136
:10327000208131812230310511F480E00895FC0174
:10328000808591858230910509F445C034F400971A
:10329000E1F08130910579F108C08430910599F110
:1032A0000CF441C085309105D9F08230910599F137
:1032B0002CF4009751F00197E9F51DC08430910579
:1032C00011F18CF10597B1F50BC061E086E00E9429
:1032D0001C118CE90E9437118DE90E9437112AC018
:1032E00064E086E00E941C118CE90E9437118DE990
:1032F0000E9437111FC061E085E00E941C118AE91D
:103300000E94371117C064E085E00E941C118AE911
:103310000E9437110FC061E088E00E941C118BE908
:103320000E94371107C064E088E00E941C118BE9FD
:103330000E9437110895EF92FF920F931F93CF933E
:10334000DF93FC01208131812230310511F080E0D2
:1033500015C0EC010E9433098B019C016894EE2496
:10336000E1F8F12C41E061E085E00E94A31264E005
:1033700085E00E941C118A810E945611DF91CF9135
:103380001F910F91FF90EF900895CF93DF93EC0181
:103390000E948C17CE010E948018CE010E94F8185E
:1033A000CE010E943719CE010E949B19DF91CF9167
:1033B0000895CF93DF93EC0187E9FB01DE010190D3
:1033C0000D928A95E1F7DE01A956BF4F80EDFA0113
:1033D00001900D928A95E1F70E94A1108881998150
:1033E0008230910589F02CF4009751F0019781F01B
:1033F0001EC084309105A1F07CF00597A9F017C09C
:10340000CE010E94C51913C0CE010E94C5190FC07C
:10341000CE010E9481170BC0CE010E94181607C072
:10342000CE010E94B41503C0CE010E9451150E9426
:10343000B610DF91CF910895CF93DF93EC010E94F6
:10344000BE09CE0107960E94BE09CE010E960E94CB
:10345000BE09CE0145960E94BE09CE014C960E943F
:10346000BE09DF91CF910895EF92FF920F931F93C2
:10347000CF93DF93E90137E0FB01DC0101900D926E
:103480003A95E1F737E0FA01DC01179601900D92C9
:103490003A95E1F737E0FE01DC011E9601900D92AE
:1034A0003A95E1F727E0F701DC015C9601900D9277
:1034B0002A95E1F727E0F801DC01559601900D927D
:1034C0002A95E1F7DF91CF911F910F91FF90EF9037
:1034D00008950F931F93CF93DF93EC018B010E940C
:1034E000FD0981111FC0B801CE0107960E94FD0998
:1034F00081111BC0B801CE010E960E94FD098111F9
:1035000017C0B801CE014C960E94FD09811113C06D
:10351000B801CE0145960E94FD0981110FC08FEFC1
:103520009FEF0EC080E090E00BC081E090E008C00B
:1035300082E090E005C084E090E002C083E090E08B
:10354000DF91CF911F910F9108950895ECE7F0E07E
:10355000808181648083EAE7F0E080818F688083E6
:103560000895FC01ACE7B0E08C918E7F8C938C9138
:103570008D7F8C938C918B7F8C938C91877F8C9398
:103580006330710551F06430710569F06230710586
:1035900079F48C9181608C930BC0ACE7B0E08C9196
:1035A00082608C9305C0ACE7B0E08C9183608C9313
:1035B000AAE7B0E08C9180648C93108281E040E0B7
:1035C0009C91282F392F307194FF242F208333238F
:1035D000B9F3609178007091790080E090E00E94EA
:1035E000E51D2BE43CE340EA5BE30E949C1E08954A
:1035F0008093BB0084E88093BC00ECEBF0E080811A
:103600008823ECF79091B900987F983129F081E0F8
:10361000983219F480E0089580E00895CF9394EAF9
:103620009093BC00ECEBF0E090819923ECF7909143
:10363000B900987F983011F0903161F4C62F0E9444
:10364000F81A813039F08C2F0E94F81A94E990937F
:10365000BC0004C084E98093BC0081E0CF91089550
:10366000089560E08EE40E940E1B0895EF92FF9291
:103670000F931F93CF93DF93F901161617060CF0E3
:103680004FC031E04130510509F030E04230510582
:1036900009F43260E130F10511F4346003C032976F
:1036A00009F438600130110511F4306104C00230B2
:1036B000110509F430628B01EC0181E0E816F10498
:1036C00019F4632F606406C092E0E916F10409F56D
:1036D000632F60688EE40E940E1B1982188289EFA6
:1036E00090E00197F1F700C00000288139812F5F39
:1036F0003F4F39832883201731078CF360E08EE435
:103700000E940E1B83ED90E30197F1F700C00000CB
:1037100007C0632F8EE40E940E1B19821882DFCF30
:10372000DF91CF911F910F91FF90EF9008958296B6
:103730000E94A51A0895CF93DF93EC0168817981E7
:1037400082960E94B11A6A837B838C839D83DF916A
:10375000CF9108950F931F93CF93DF93EC018B01CB
:1037600082960E94A61A1983088380E090E0A0EA5E
:10377000B0E48E839F83A887B9878AE097EDA3E2A0
:10378000BCE38A879B87AC87BD87CE010E949B1BC9
:103790006E877F87888B998B1F8E1E8EDF91CF91CE
:1037A0001F910F910895CF93DF93EC010E949B1B13
:1037B0008A819B81AC81BD818E8B9F8BA88FB98FB5
:1037C000DF91CF9108958F929F92AF92BF92CF9247
:1037D000DF92EF92FF92CF93DF93FC01228D2223A1
:1037E00009F445C0238D211145C0EC010E949B1BAB
:1037F0006B017C016A837B838C839D8320E030E0B6
:1038000046E953E46E897F89888D998D0E949C1EBC
:103810004B015C0120E030E046E953E4C701B6010A
:103820000E949C1E9B01AC01C501B4010E943D1D7C
:103830006BA37CA38DA39EA30E94AF1D79A368A355
:1038400078A76FA31C8E772344F471956195710955
:1038500079A368A382E090E012C0161617066CF0F8
:1038600019A218A281E08C8F80E090E008C080E06F
:1038700090E005C080E090E002C081E090E0DF9140
:10388000CF91FF90EF90DF90CF90BF90AF909F903F
:103890008F900895CF93DF93EC018A819B81AC8157
:1038A000BD818A8B9B8BAC8BBD8BCE010E949B1BF9
:1038B0006A837B838C839D832A893B894C895D89BC
:1038C0000E94AA1D811104C081E08B8F80E002C09C
:1038D0001B8E81E0DF91CF910895FC01858D8111D0
:1038E0000BC0868D978D0196978F868F6817790705
:1038F0002CF481E0838F0895178E168E0895CF9251
:10390000DF92EF92FF92CF93DF93EC01CE80DF80C6
:10391000E884F984A70196016E897F89888D998D45
:103920000E94971E882324F0CE8ADF8AE88EF98EC3
:10393000CA84DB84EC84FD84A70196016E897F89AB
:10394000888D998D0E94AA1D181624F0CE8ADF8AD0
:10395000E88EF98EDF91CF91FF90EF90DF90CF90BE
:103960000895CF92DF92EF92FF92CF93DF93EC0115
:10397000CE84DF84E888F9880E949B1B9B01AC0100
:10398000C701B6010E94AA1D882359F08A819B8134
:10399000AC81BD818E879F87A88BB98B81E08D8F8D
:1039A00002C01D8E80E0DF91CF91FF90EF90DF90FD
:1039B000CF900895FC01828D91E09827928F089511
:1039C000CF92DF92EF92FF921F93CF93DF93EC01A0
:1039D0001A8D1123D1F0CB01BA012E893F89488D70
:1039E000598D0E943E1D6E8B7F8B888F998FCE8064
:1039F000DF80E884F984A70196010E94971E1816BB
:103A000024F4CE8ADF8AE88EF98E812FDF91CF9160
:103A10001F91FF90EF90DF90CF900895CF92DF92AB
:103A2000EF92FF921F93CF93DF93FC01128D11232E
:103A3000D9F09A01AB01EC0166897789808D918D6F
:103A40000E943D1D6E8B7F8B888F998FCA84DB848B
:103A5000EC84FD84A70196010E94AA1D882324F40A
:103A6000CE8ADF8AE88EF98E812FDF91CF911F9168
:103A7000FF90EF90DF90CF9008955058BB27AA2772
:103A80000E94551D0C945D1E0E944F1E38F00E942E
:103A9000561E20F039F49F3F19F426F40C944C1E66
:103AA0000EF4E095E7FB0C94461EE92F0E946E1E73
:103AB00058F3BA17620773078407950720F079F463
:103AC000A6F50C94901E0EF4E0950B2EBA2FA02DA7
:103AD0000B01B90190010C01CA01A0011124FF27BB
:103AE000591B99F0593F50F4503E68F11A16F040B6
:103AF000A22F232F342F4427585FF3CF46953795B5
:103B00002795A795F0405395C9F77EF41F16BA0B79
:103B1000620B730B840BBAF09150A1F0FF0FBB1F27
:103B2000661F771F881FC2F70EC0BA0F621F731F70
:103B3000841F48F4879577956795B795F7959E3FCD
:103B400008F0B0CF9395880F08F09927EE0F97955E
:103B5000879508950E94221E08F481E008950E942E
:103B6000B61D6894B1110C94911E08950E94761EA2
:103B700088F09F5798F0B92F9927B751B0F0E1F02E
:103B8000660F771F881F991F1AF0BA95C9F714C0DE
:103B9000B13091F00E94901EB1E008950C94901EF7
:103BA000672F782F8827B85F39F0B93FCCF3869517
:103BB00077956795B395D9F73EF490958095709574
:103BC00061957F4F8F4F9F4F0895E89409C097FBF1
:103BD0003EF490958095709561957F4F8F4F9F4FE4
:103BE0009923A9F0F92F96E9BB279395F695879528
:103BF00077956795B795F111F8CFFAF4BB0F11F4EB
:103C000060FF1BC06F5F7F4F8F4F9F4F16C0882391
:103C100011F096E911C0772321F09EE8872F762FC7
:103C200005C0662371F096E8862F70E060E02AF008
:103C30009A95660F771F881FDAF7880F96958795F4
:103C400097F90895990F0008550FAA0BE0E8FEEFC9
:103C500016161706E807F907C0F012161306E40750
:103C6000F50798F0621B730B840B950B39F40A2649
:103C700061F0232B242B252B21F408950A2609F427
:103C8000A140A6958FEF811D811D089597F99F672B
:103C900080E870E060E008959FEF80EC08950024D4
:103CA0000A941616170618060906089500240A94A1
:103CB00012161306140605060895092E0394000C27
:103CC00011F4882352F0BB0F40F4BF2B11F460FFB6
:103CD00004C06F5F7F4F8F4F9F4F089557FD9058DF
:103CE000440F551F59F05F3F71F04795880F97FBC0
:103CF000991F61F09F3F79F087950895121613067A
:103D00001406551FF2CF4695F1DF08C016161706A8
:103D10001806991FF1CF86957105610508940895DD
:103D2000E894BB2766277727CB0197F908950E946F
:103D3000221E08F48FEF08950E94AF1E0C945D1EA2
:103D40000E944F1E38F00E94561E20F0952311F05D
:103D50000C94461E0C944C1E11240C94911E0E942F
:103D60006E1E70F3959FC1F3950F50E0551F629F33
:103D7000F001729FBB27F00DB11D639FAA27F00DC4
:103D8000B11DAA1F649F6627B00DA11D661F829FEB
:103D90002227B00DA11D621F739FB00DA11D621FD0
:103DA000839FA00D611D221F749F3327A00D611DED
:103DB000231F849F600D211D822F762F6A2F1124CF
:103DC0009F5750409AF0F1F088234AF0EE0FFF1F02
:103DD000BB1F661F771F881F91505040A9F79E3F59
:103DE000510580F00C94461E0C94911E5F3FE4F345
:103DF000983ED4F3869577956795B795F795E795AF
:103E00009F5FC1F7FE2B880F911D9695879597F9B7
:103E1000089597FB072E16F4009407D077FD09D07C
:103E20000E94231F07FC05D03EF4909581959F4F7B
:103E30000895709561957F4F0895EE0FFF1F0590CF
:103E4000F491E02D0994AA1BBB1B51E107C0AA1FE6
:103E5000BB1FA617B70710F0A61BB70B881F991F2B
:103E60005A95A9F780959095BC01CD010895F999CF
:103E7000FECF92BD81BDF89A992780B50895A6E13D
:103E8000B0E044E050E00C94621F262FF999FECF79
:103E90001FBA92BD81BD20BD0FB6F894FA9AF99A67
:103EA0000FBE01960895242F0E94461F252F0E94C1
:103EB000461F0C945B1F0E94451F272F0C94461F22
:103EC000DC01CB01FC01F999FECF06C0F2BDE1BDDA
:103ED000F89A319600B40D9241505040B8F70895C9
:043EE000F894FFCF84
:103EE400C4E8E0E3EDEEF1F2E8EAE000E2EAEB2F09
:103EF400EEF2EAEB00E4EBE8F2E52DF2FC00E2FB83
:103F0400EA00E2EAEB00CEE3F0E0EDE8F7E5EDE805
:103F1400FF006D696E006D617800CAE0EBE8E1F0C6
:103F2400EEE2EAE000CCC5CDDE00D1EEF5F0E0ED46
:103F3400E8F2FC00D3F1F2E0EDEEE2E8F2FC00CDB1
:103F4400E0F1F2F0EEE9EAE800C2FBF5EEE400CFBE
:103F5400E0F0EAEEE2EAE000CDE8E6EDE5E520EFA8
:103F6400EEE72E00C2E5F0F5EDFFFF20EFEEE72EC1
:0E3F740000D1E1F0EEF120EEF8E8E1EEEA0017
:00000001FF
