S0120000436172537570706F72742E73726563FF
S11300000C945F040C9487040C9487040C94870468
S11300100C9487040C9487040C9487040C94870430
S11300200C9487040C9487040C9487040C94870420
S11300300C9487040C9487040C9487040C94870410
S11300400C9487040C9487040C9487040C94870400
S11300500C9487040C9487040C9487040C948704F0
S11300600C9487040C9487043C0C400C450C4A0CFB
S11300704F0C540C590C5E0C640C6A0C700C1E0E64
S1130080210E240E270E2A0E2D0E300E330E360EA0
S1130090B120B920C120C920D120D920E120DD23FD
S11300A0E523ED23F523FD23052415240D241D2428
S11300B025242D2435243D2445244D2455245D2414
S11300C0D224F32403250B25FB24DD24E824132563
S11300D0F8250426FE250A26102616261C26222686
S11300E028260AD7233C0AD7A33C8FC2F53C0AD75B
S11300F0233DCDCC4C3D8FC2753D295C8F3D0AD745
S1130100A33DEC51B83DCDCCCC3D8FC2F53D9A9981
S1130110193ECDCC4C3E9A99993E0000003F000018
S1130120403F0000803F0000C03F0000004000004E
S11301304040C0C0E0A0A0A090909090888888849F
S1130140848484828282828181FFC0C0E0E0A0A096
S1130150909090908888888484848482828282812A
S113016081FFC0C0E0E0E0A09090909088888884EF
S1130170848484828282828181FFC0C0E0E0E0E0E6
S1130180F09090908888888484848482828282819A
S113019081FFC0C0E0E0E0E0F0F0909088888884BF
S11301A0848484828282828181FFC0C0E0E0E0E0B6
S11301B0F0F0F090888888848484848282828281AA
S11301C081FFC0C0E0E0E0E0F0F0F0F088888884CF
S11301D0848484828282828181FFC0C0E0E0E0E086
S11301E0F0F0F0F0F88888848484848282828281AA
S11301F081FFC0C0E0E0E0E0F0F0F0F0F8F88884BF
S1130200848484828282828181FFC0C0E0E0E0E055
S1130210F0F0F0F0F8F8F884848484828282828199
S113022081FFC0C0E0E0E0E0F0F0F0F0F8F8F8FCA6
S1130230848484828282828181FFC0C0E0E0E0E025
S1130240F0F0F0F0F8F8F8FCFC8484828282828179
S113025081FFC0C0E0E0E0E0F0F0F0F0F8F8F8FC76
S1130260FCFC84828282828181FFC0C0E0E0E0E005
S1130270F0F0F0F0F8F8F8FCFCFCFC828282828159
S113028081FFC0C0E0E0E0E0F0F0F0F0F8F8F8FC46
S1130290FCFCFCFE8282828181FFC0C0E0E0E0E0E1
S11302A0F0F0F0F0F8F8F8FCFCFCFCFEFE82828131
S11302B081FFC0C0E0E0E0E0F0F0F0F0F8F8F8FC16
S11302C0FCFCFCFEFEFE828181FFC0C0E0E0E0E0B9
S11302D0F0F0F0F0F8F8F8FCFCFCFCFEFEFEFE8109
S11302E081FFC0C0E0E0E0E0F0F0F0F0F8F8F8FCE6
S11302F0FCFCFCFEFEFEFEFF81FFC0C0E0E0E0E08F
S1130300F0F0F0F0F8F8F8FCFCFCFCFEFEFEFEFF5A
S1130310FFFF0000000000000000005F000000007C
S113032000070007000000147F147F140000242A33
S11303307F2A1200004C2C106864000036495522B4
S113034050000000050300000000001C22410000D2
S1130350000041221C00000014083E08140000089C
S1130360083E080800000000503000000010101083
S1130370101000000060600000000020100804025B
S113038000003E5149453E000000427F400000000D
S1130390426151494600002141454B310000181487
S11303A0127F100000274545453900003C4A494961
S11303B0300000017109050300003649494936003F
S11303C000064949291E00000036360000000000DE
S11303D056360000000008142241000000141414D2
S11303E014140000004122140800000201510906FF
S11303F00000324979413E00007E1111117E000057
S11304007F4949493600003E4141412200007F4175
S113041041221C00007F4949494100007F09090924
S11304200100003E4149497A00007F0808087F0026
S11304300000417F410000002040413F0100007F57
S11304400814224100007F4040404000007F020C1D
S1130450027F00007F0408107F00003E4141413EBE
S113046000007F0909090600003E4151215E000099
S11304707F09192946000046494949310000010114
S11304807F010100003F4040403F00001F2040200A
S11304901F00003F4038403F00006314081463000D
S11304A00007087008070000615149454300000037
S11304B07F41410000000204081020000000414177
S11304C07F0000000402010204000040404040405C
S11304D0000000010204000000205454547800007D
S11304E07F484444380000384444442000003844E1
S11304F044487F000038545454180000087E090111
S11305000200000C5252523E00007F08040478009E
S11305100000447D400000002040443D0000007F76
S113052010284400000000417F400000007C0418B3
S1130530047800007C0804047800003844444438FB
S113054000007C141414080000081414187C000023
S11305507C08040408000048545454200000043F5C
S113056044402000003C4040207C00001C204020EF
S11305701C00003C4030403C00004428102844004B
S1130580000C5050503C00004464544C44000000A3
S113059008364100000000007F00000000004136E2
S11305A00800000008040810080000FFFFFFFFFF18
S11305B000000000E0F0F8F800F8F8F0E0000000B7
S11305C00000FFFFFFFF00FFFFFFFF00000000002F
S11305D0070F1F1F001F1F0F070000000000E0107F
S11305E0080800080810E00000000000FF000000F8
S11305F000000000FF0000000000070810100010B9
S11306001008070000004080E010080800080810E7
S1130610E08040000000FF42241800182442FF003C
S11306200000020107081010001010080701020062
S1130630000060504844004448506000000000003E
S1130640060A12220022120A06000000000060704E
S1130650787C007C7870600000000000060E1E3E6E
S1130660003E1E0E06000000183C7EE7000000005D
S113067000E77E3C180000002030381C001C383095
S1130680200000000000AAAAAAAA00AAAAAAAAAA4C
S113069000000000000000030000183C7EE700009A
S11306A000E77E3C180000000000E7E7420042E754
S11306B0E7000000000000081838700070381808BF
S11306C00000004080E0F0F8F800F8F8F0E0804026
S11306D00000007EBDDBE700E7DBBD7E000000021A
S11306E001070F1F1F001F1F0F0701020000EEEE7E
S11306F000005A005A0000EEEE00007C1211127C39
S113070000007F4949493100007F494949360000CA
S11307107F010101010000603F213F6000007F492B
S1130720494941000077087F087700002241494980
S11307303600007F1008047F00007E1009047E004C
S1130740007F081422410000403E01017F00007F29
S1130750020C027F00007F0808087F00003E414130
S1130760413E00007F0101017F00007F0909090665
S113077000003E41414122000001017F01010000CF
S1130780074848483F00000E117F110E0000631413
S113079008146300003F20203F6000000708080899
S11307A07F00007F407E407F00003F203F207F008D
S11307B000017F48483000007F4830007F0000007F
S11307C07F4848300000224149493E00007F083EEE
S11307D0413E0000462919097F00002054545478F2
S11307E000003C4A4A4A3100007C5454280000006E
S11307F07C04040C000000603C243C60000038547D
S113080054541800006C107C106C000000445454C4
S11308102800007C2010087C00007C2112097C0048
S1130820007C102844000000403804047C00007C54
S11308300810087C00007C1010107C000038444430
S1130840443800007C0404047C00007C1414140864
S113085000003844444400000004047C0404000004
S11308600C5050503C000008147C1408000044282C
S113087010284400003C20203C6000000C101010A4
S11308807C00007C407C407C00003C203C207C00C0
S113089000047C50502000007C5020007C000000AC
S11308A07C5050200000284454543800007C1038F8
S11308B044380000485434147C000000F21C112415
S11308C01FBECFEFD8E0DEBFCDBF13E0A0E0B1E0A4
S11308D0ECEBFBE502C005900D92AA38B107D9F7FD
S11308E027E0AAE8B3E001C01D92AB36B207E1F7F6
S11308F014E0CFE5D4E004C02197FE010E94892DC5
S1130900CE35D107C9F70E94CF1C0C94DC2D0C9472
S1130910000084569F4FFC01108208950F931F938B
S1130920CF93DF93EC01CB01FE01EA56FF4F108217
S11309303196108220E130E03A83298308E00F8366
S113094011E018830E949A131B8792E09C8786E625
S1130950898765E06A878887198B1A8A1F8724E04C
S1130960288B84E68E872BA346E04CA319A32AA3E5
S113097088A319A79AA71FA248A735E63EA34D8FBF
S113098033E03E8F9B8F3C8F8A8F1F8A988F9D8B7D
S11309903E8B8C8B2FA738AB6DA782E78EA78CA7D5
S11309A087E68DAB0EAB1BAA1CAB0AAB8AAF2BAF91
S11309B018AE99AF2FAB8FAFFE01E05CFF4F5CE048
S11309C050831DAF3EAF5CAF3496808331968083F5
S11309D0339790833196308332978083389610838F
S11309E0319638E63083339720833196608332978B
S11309F0308338961083319639E6308333972083D9
S1130A0031964083329730833896108331963AE694
S1130A10308333976083319627E020833297308385
S1130A2038961083319680833397408331962083A0
S1130A30329780833896108231963BE63083339721
S1130A400083319629E020833297308338961082D0
S1130A5031964CE640833397008331963AE03083F5
S1130A60329740833896108231964DE6408333970F
S1130A70208331962BE0208332974083389610826E
S1130A8031968083339730833196208332978083E5
S1130A903896908331962EE620833397508331968F
S1130AA03DE03083329720833896908331964FE629
S1130AB040833397508331962EE0208332974083CE
S1130AC038969083319640E740833397308331964C
S1130AD03FE030833297408338969083319641E7E4
S1130AE0408333972083319620E1208332974083DB
S1130AF03896908331968083339730833196208360
S1130B00CE57DF4F8883DF91CF911F910F910895C6
S1130B108F929F92AF92BF92EF92FF920F931F9387
S1130B20CF93DF93EC01CB017A0164E670E00E947D
S1130B308B268C018530910519F418821F8272C2AC
S1130B40069719F418821F826DC20F3F8FEF1807A2
S1130B5029F41B821C821D821E8264C28F818C3CFC
S1130B6061F40115110509F068C281E088839CE0F5
S1130B709F83C856DF4F888355C28D3C59F40115B5
S1130B80110509F051C218821F82C856DF4F81E057
S1130B90888348C20130110531F00230110531F467
S1130BA08F5F8F835DC081508F835AC0883C09F06A
S1130BB057C00330110521F00430110551F150C024
S1130BC05701EAECAE0EB11C2AE037ED43E25CE3D8
S1130BD06B817C818D819E810E94382B9B01AC01AD
S1130BE0F50160817181828193810E94372BF50127
S1130BF060837183828393838CEE91E5A8EBBDE3DC
S1130C008B839C83AD83BE838F81893C09F023C28F
S1130C1033C05701FAECAF0EB11C2AE037ED43E2C2
S1130C205CE36B817C818D819E810E94382BF50170
S1130C3020813181428153810E94382BF5016083E8
S1130C407183828393838CEE91E5A8EBBDE38B8360
S1130C509C83AD83BE838F81893C09F0F7C135C085
S1130C608F81893C09F058C00330110529F0043004
S1130C70110509F051C029C05701FEECAF0EB11C9B
S1130C8020E030E040E85FE36B817C818D819E81D0
S1130C900E94382B9B01AC01F50160817181828136
S1130CA093810E94372BF501608371838283938340
S1130CB080E090E0A0E1B1E48B839C83AD83BE83AC
S1130CC08F818A3C09F084C033C05701FEECAF0E1B
S1130CD0B11C20E030E040E85FE36B817C818D81D2
S1130CE09E810E94382BF5012081318142815381FC
S1130CF00E94382BF501608371838283938380E0A3
S1130D0090E0A0E1B1E48B839C83AD83BE838F81AB
S1130D108A3C09F05DC035C08F818A3C09F058C017
S1130D200330110529F00430110509F051C029C020
S1130D305701F2EDAF0EB11C20E030E040E85FE374
S1130D406B817C818D819E810E94382B9B01AC013B
S1130D50F50160817181828193810E94372BF501B5
S1130D60608371838283938380E090E0A0E1B1E4A7
S1130D708B839C83AD83BE838F818B3C09F080C0C1
S1130D8033C05701F2EDAF0EB11C20E030E040E873
S1130D905FE36B817C818D819E810E94382BF501FC
S1130DA020813181428153810E94382BF501608377
S1130DB071838283938380E090E0A0E1B1E48B832C
S1130DC09C83AD83BE838F818B3C09F059C033C0B3
S1130DD08F818B3C09F054C00330110529F0043095
S1130DE0110509F04DC027C087010A521F4F2AE0A0
S1130DF037ED43E25CE36B817C818D819E810E94AF
S1130E00382B9B01AC01F80160817181828193814F
S1130E100E94372BF80160837183828393838CEE65
S1130E2091E5A8EBBDE38B839C83AD83BE838F8167
S1130E308C3CA8F12FC087010A521F4F2AE037EDDE
S1130E4043E25CE36B817C818D819E810E94382B1F
S1130E50F80120813181428153810E94382BF801AD
S1130E6060837183828393838CEE91E5A8EBBDE369
S1130E708B839C83AD83BE838F818C3C80F00DC0BB
S1130E808F818C3C60F00330110521F00430110592
S1130E9031F403C081508F8302C08F5F8F838F81B1
S1130EA0893C18F488EC8F8304C08D3C10F08DECE1
S1130EB08F83F701E653FF4F80809180A280B38037
S1130EC020E030E0A901C501B4010E94A42B18164A
S1130ED064F08AE097EDA3E2BCE3F701E653FF4F29
S1130EE080839183A283B38315C020E030E040E483
S1130EF050E4C501B4010E94032D88235CF080E016
S1130F0090E0A0E4B0E4F701E653FF4F80839183BF
S1130F10A283B383F701E253FF4F80809180A280C4
S1130F20B38020E030E0A901C501B4010E94A42BE4
S1130F30181644F0F701E253FF4F10821182128217
S1130F40138215C020E030EC49E754E4C501B40134
S1130F500E94032D88235CF080E090ECA9E7B4E4C0
S1130F60F701E253FF4F80839183A283B383F70198
S1130F70EE52FF4F80809180A280B38020E030E069
S1130F80A901C501B4010E94A42B181644F0F7016D
S1130F90EE52FF4F108211821282138215C020E09C
S1130FA030EC49E754E4C501B4010E94032D8823C1
S1130FB05CF080E090ECA9E7B4E4F701EE52FF4F57
S1130FC080839183A283B383F701EA52FF4F808029
S1130FD09180A280B38020E030E0A901C501B40172
S1130FE00E94A42B181644F0F701EA52FF4F108216
S1130FF011821282138215C020E030E040E05FE3EA
S1131000C501B4010E94032D88235CF0F701EA5264
S1131010FF4F80E090E0A0E0BFE380839183A28350
S1131020B3831EC080E01CC00130110509F4BBCDA0
S11310300230110509F014CEB3CD0130110509F4C5
S1131040B2CD0230110509F4ABCD0ACE8F818A3CB2
S113105009F0BECE96CE8F818A3C09F0B9CE68CE17
S1131060DF91CF911F910F91FF90EF90BF90AF90C0
S11310709F908F900895CF92DF92EF92FF920F93FB
S11310801F93CF93DF93EC01CB018A0164E670E0F8
S11310900E948B268530910519F418821F8254C151
S11310A08630910519F418821F824EC18F3F2FEFAD
S11310B0920729F41B821C821D821E8245C12F8146
S11310C0243D59F4009709F04AC181E088839DE0EA
S11310D09F83C856DF4F888337C1253D51F400975D
S11310E009F034C118821F82C856DF4F81E088831B
S11310F02BC18130910531F08230910531F42F5F9D
S11311002F839FC021502F839CC03EE2320F323088
S113111008F097C08330910529F08430910509F4D3
S11311204BC08FC0223DE9F478018AEDE80EF11C32
S11311302AE037ED43E25CE36B817C818D819E8103
S11311400E94382B9B01AC01F7016081718182817F
S113115093810E94372BF701608371838283938389
S11311601CC07801FEEDEF0EF11C2AE037ED43E2DE
S11311705CE36B817C818D819E810E94382B9B0175
S1131180AC01F70160817181828193810E94372BC8
S1131190F70160837183828393838CEE91E5A8EBDE
S11311A0BDE38B839C83AD83BE832F818CE2820F4E
S11311B0823008F056C050C0223DD9F47801FAEDCF
S11311C0EF0EF11C2AE037ED43E25CE36B817C8196
S11311D08D819E810E94382BF701208131814281CB
S11311E053810E94382BF701608371838283938338
S11311F01AC07801FEEDEF0EF11C2AE037ED43E250
S11312005CE36B817C818D819E810E94382BF70188
S113121020813181428153810E94382BF701608300
S11312207183828393838CEE91E5A8EBBDE38B837A
S11312309C83AD83BE832F818CE2820F823088F43D
S11312400EC02F813CE2320F323058F483309105C6
S113125019F0049731F403C021502F8302C02F5F8B
S11312602F838F81833D18F482ED8F8304C0853DE5
S113127010F085ED8F8320E030E0A901F801E652FB
S1131280FF4F60817181828193810E94A42B181683
S11312903CF0F801E652FF4F108211821282138251
S11312A020E030E040EA50E4F801E252FF4F608170
S11312B07181828193810E94032D88235CF080E0F8
S11312C090E0A0EAB0E4F801E252FF4F80839183FA
S11312D0A283B3838F81823D19F0833DD9F033C05B
S11312E0F801E252FF4FC080D180E280F380A70171
S11312F09601349760817181828193810E94032DCC
S113130088230CF1F801E652FF4FC082D182E282B9
S1131310F38219C0F801E652FF4FC080D180E28009
S1131320F380A70196013496608171818281938153
S11313300E94A42B18163CF0F801E252FF4FC08221
S1131340D182E282F38214C080E012C08130910520
S113135009F4D8CE8230910509F073CFD0CE813014
S1131360910509F4CFCE8230910509F4C8CE69CF36
S1131370DF91CF911F910F91FF90EF90DF90CF906D
S11313800895CF92DF92EF92FF920F931F93CF9322
S1131390DF93EC01CB018A0164E670E00E948B26A6
S11313A08530910519F418821F82E1C086309105B9
S11313B019F418821F82DBC08F3F2FEF920729F4A4
S11313C01B821C821D821E82D2C02F812E3D59F4A5
S11313D0009709F0D7C081E088839EE09F83C856B8
S11313E0DF4F8883C4C02F3D51F4009709F0C1C07A
S11313F018821F82C856DF4F81E08883B8C08130CD
S1131400910531F08230910531F42F5F2F830BC0A9
S113141021502F8308C02D3D31F4009721F4C801D9
S11314200E94511367C02F812C3D09F055C08330B1
S1131430910521F08430910549F14EC0780182EE86
S1131440E80EF11C20E030E040E85FE36B817C8132
S11314508D819E810E94382B9B01AC01F701608134
S11314607181828193810E94372BF701608371839C
S11314708283938380E090E0A0E1B1E48B839C833A
S1131480AD83BE832F812E3DA8F12FC07801F2EEEB
S1131490EF0EF11C20E030E040E85FE36B817C81DB
S11314A08D819E810E94382BF701208131814281F8
S11314B053810E94382BF701608371838283938365
S11314C080E090E0A0E1B1E48B839C83AD83BE8394
S11314D02F812E3D78F00CC02F812E3D58F08330A3
S11314E0910519F0049731F403C021502F8302C0F1
S11314F02F5F2F838F818D3D18F48CED8F8304C073
S11315008F3D10F08FED8F83F801EE51FF4FC080B7
S1131510D180E280F38020E030E040EA50E4C7016B
S1131520B6010E94A42B181664F0F801EE51FF4F87
S113153080E090E0A0EAB0E480839183A283B38347
S113154015C020E030EC49E754E4C701B6010E941D
S1131550032D88235CF0F801EE51FF4F80E090ECFE
S1131560A9E7B4E480839183A283B38314C080E0A9
S113157012C08130910509F44BCF8230910509F0F6
S113158052CF43CF8130910509F442CF8230910587
S113159009F43BCF48CFDF91CF911F910F91FF907A
S11315A0EF90DF90CF9008950F931F93CF93DF9325
S11315B0EC01CB018A0164E670E00E948B26853041
S11315C0910519F418821F8269C08630910519F4B7
S11315D018821F8263C08F3F2FEF920709F45EC009
S11315E0009779F42F81263E21F4C8010E945913F3
S11315F055C02B3E09F054C081E088838FE08F836F
S11316004DC02F818130910571F08230910541F0F8
S11316100DC018821F82C856DF4F81E088833EC008
S11316202F5F2F8330C021502F8315C08430910544
S113163031F48F818B3E29F58CEE8F832FC083305C
S1131640910531F48F818C3EB9F48BEE8F8326C0E3
S11316508130910531F48F818C3EA9F48BEE8F8318
S11316601DC08330910541F08430910551F0892BE0
S113167051F487E0888307C081E088838FE08F83FB
S11316800DC087E088838F81873E18F486EE8F83B0
S113169004C08C3E10F08CEE8F8305C080E003C044
S11316A02C3E21F6B6CFDF91CF911F910F91089573
S11316B0CF93DF93EC01CB0164E670E00E948B26AC
S11316C09C01255031092230310528F0019619F08A
S11316D086E0888301C080E0DF91CF9108950F9365
S11316E01F93CF93DF93EC018B018F81823069F0DC
S11316F018F4813031F019C0833061F0843081F006
S113170014C0CB010E94552A10C0CB01C2960E947E
S1131710552A0BC0CB018C599F4F0E94552A05C0F6
S1131720CB018A569F4F0E94552AFE01E456FF4F73
S1131730808181110DC0C8010E94270F882341F0C8
S113174088E08883C656DF4F81E090E099838883E0
S1131750DF91CF911F910F910895FC01EA56FF4F3D
S113176021E02083FC012781253041F0263061F0FF
S1131770243079F4E756FF4F10820BC021E0FC01BE
S1131780E756FF4F208305C022E0FC01E756FF4FD8
S1131790208328E0FC012083E656FF4F118210824B
S11317A00895DC011196ED91FC911297EE0FFF1F45
S11317B0EE0FFF1FEE51FF4F659175918591949146
S11317C00895FC01DC01A956BF4F81E08C93878109
S11317D0893039F08A3059F0883071F412961C92AD
S11317E00BC081E0DF01A756BF4F8C9305C082E098
S11317F0DF01A756BF4F8C9382E080831782089540
S11318000F931F93CF93DF93EC018B01CA010E94C6
S1131810BA1264E670E0C8010E948B2685309105F7
S113182021F418821F8280E065C08630910521F47E
S113183018821F8280E05EC08F3F2FEF920709F469
S113184058C02F8130E0A901440F551F440F551F84
S1131850240F351F2C0F3D1FF901E80FF91F22A992
S1131860822F90E0FC01E756F109EB30F105F0F529
S1131870EC5CFF4F0C94892D18821F8281E03AC0E2
S1131880CE010E94AD0B81E035C0CE010E94AD0BAC
S113189081E030C0CE010E94AD0B81E02BC0CE01AF
S11318A00E94E10B81E026C0CE010E94E10B81E0A1
S11318B021C0CE010E94E10B81E01CC083E088833B
S11318C088EC8F8381E016C084E0888382ED8F8367
S11318D081E010C085E088838CED8F8381E00AC0AD
S11318E086E0888386EE8F8381E004C02F8381E0C5
S11318F001C080E0DF91CF911F910F910895CF93A4
S1131900DF93EC01CB0164E670E00E948B26019624
S113191011F480E005C01882C456DF4F81E088834B
S1131920DF91CF9108950F931F93CF93DF938C0191
S1131930CB01EA0164E670E00E948B26019611F463
S113194080E008C0C951DF4F188286E0F801808327
S113195086EE8783DF91CF911F910F910895FC014B
S1131960E656FF4F208131812230310501F13CF4EC
S11319702115310559F021303105B1F00895233096
S11319803105C1F02039314011F10895EFEFFDE345
S113199029E4E150F0402040E1F700C0000021E0DC
S11319A0FC012083278308950E947F0C08950E94E0
S11319B0930C0895FFEF2DE339E4F15020403040BB
S11319C0E1F700C00000FC01108217820895FFEFC8
S11319D02DE339E4F15020403040E1F700C000002D
S11319E024E0FC01208322ED27830895EF92FF92E7
S11319F00F931F93CF93DF93EC018B017A01FC01CA
S1131A00E456FF4F808181110EC0CB010E94270F45
S1131A10882349F088E0888381E090E0FE01E6565F
S1131A20FF4F91838083C8010E944313C8010E9421
S1131A30C613811108C088E08883C656DF4F83E04F
S1131A4090E09983888385E0E816F10429F086E024
S1131A50E816F10429F007C0C8010E94B11403C0BC
S1131A60C8010E940C14DF91CF911F910F91FF9038
S1131A70EF900895EF92FF920F931F93CF93DF930C
S1131A80EC017B018A01CA010E94BA1264E670E08B
S1131A90C7010E948B26AC010597029730F4B80168
S1131AA0CE010E94F60C80E039C04F3F8FEF5807FB
S1131AB0A1F19F81292F30E0C901880F991F280FB8
S1131AC0391F220F331F2C0F3D1FF901E40FF51F9F
S1131AD080858536A1F018F4843631F01BC0863633
S1131AE0A9F0823739F016C0B801CE010E946F0BFD
S1131AF081E014C0C8010E949A1381E00FC082E003
S1131B008883C8010E94110F81E008C081E08883A6
S1131B101F8204C08F8381E001C080E0DF91CF91F8
S1131B201F910F91FF90EF900895CF92DF92EF9263
S1131B30FF920F931F93CF93DF938C017B016A0174
S1131B4064E670E0C7010E948B26EC0105970297BA
S1131B5030F4AE01B601C8010E94F60C57C0CF3F65
S1131B608FEFD80709F452C0C6010E94C613811131
S1131B7009C088E0F801808383E090E0E656FF4FD7
S1131B8091838083C230D105C9F02CF4209749F0A9
S1131B90219751F02AC0C330D105D1F02497F9F030
S1131BA024C0F801108221C0C8010E94D10BAB01EE
S1131BB0BC019701C6010E948A1717C0C8010E9480
S1131BC0D10BAB01BC019701C6010E94BC170DC02B
S1131BD0F8018181928101979283818306C0F80183
S1131BE081819281019692838183F801818192811E
S1131BF0181619061CF01282118207C043972CF0A4
S1131C0083E190E0F8019283818301C080E0DF9159
S1131C10CF911F910F91FF90EF90DF90CF90089597
S1131C200F931F93DC01EC910E2F10E00930110586
S1131C30F8F4F801E15CFF4F0C94892D0E943A0DF1
S1131C4017C00E94000C14C00E94950D11C00E9480
S1131C5088050EC00E943B080BC00E94C10908C041
S1131C600E94D40A05C00E94580B02C00E94AF0C07
S1131C701F910F9108950895FC016083418352835D
S1131C8084EF91E0968385836334A1F0643411F189
S1131C90623479F524B181E090E002C0880F991F85
S1131CA04A95E2F7982F9095922394B995B1892B90
S1131CB085B9089527B181E090E002C0880F991F8B
S1131CC04A95E2F7982F9095922397B998B1892B6A
S1131CD088B908952AB181E090E002C0880F991F65
S1131CE04A95E2F7982F909592239AB99BB1892B44
S1131CF08BB90895FC01772374F18081833479F0E2
S1131D008434B9F0823409F06AC083B190E0018070
S1131D1002C0959587950A94E2F7817013C086B145
S1131D2090E0018002C0959587950A94E2F781704E
S1131D3009C089B190E0018002C0959587950A9405
S1131D40E2F78170882309F44EC080E293E0968321
S1131D50858380E008951482138285819681181604
S1131D60190634F036C025813681821793078CF525
S1131D708081833471F08434B1F0823491F523B1DD
S1131D8030E0018002C0359527950A94E2F721706E
S1131D9013C026B130E0018002C0359527950A941E
S1131DA0E2F7217009C029B130E0018002C0359505
S1131DB027950A94E2F721708FE99FE00197F1F7E4
S1131DC000C000008381948101969483838322233D
S1131DD051F284E690E09683858381E0089580E063
S1131DE0089580E0089514821382B7CFCF93DF93D0
S1131DF0EC010E945528CE01C2960E945528CE01BE
S1131E008C599F4F0E945528CE018A569F4F0E949D
S1131E105528CE0188539F4F0E946627DF91CF91AA
S1131E200895CF93DF93EC010E949328CE01C296CC
S1131E300E949328CE018C599F4F0E949328CE0173
S1131E408A569F4F0E949328DF91CF910895CF9394
S1131E50DF93EC010E94BC2A811112C0CE01C2960C
S1131E600E94BC2A81110CC0CE018C599F4F0E9444
S1131E70BC2A811105C0CE018A569F4F0E94BC2AFC
S1131E80DF91CF910895CF93DF93FC01DC01A2523F
S1131E90BF4F8D919D910D90BC91A02D868397830A
S1131EA0A087B18780AF91AFA2AFB3AFEF01C6599E
S1131EB0DF4F88839983AA83BB83E29688839983BF
S1131EC0AA83BB83DF01A652BF4F8D919D910D90D4
S1131ED0BC91A02D82879387A487B58784AF95AFE3
S1131EE0A6AFB7AFAE9788839983AA83BB83E05626
S1131EF0FF4F80839183A283B383DF91CF910895B1
S1131F00CF93DF93EC010E94FA29CE01C2960E947E
S1131F10FA29CE018C599F4F0E94FA29CE018A5684
S1131F209F4F0E94FA29DF91CF9108952F923F92FB
S1131F304F925F926F927F928F929F92AF92BF92D5
S1131F40CF92DF92EF92FF920F931F93CF93DF9381
S1131F5000D000D000D0CDB7DEB79E838D830E9421
S1131F6059286D807E8082E3680E711CC3010E9433
S1131F705928ED81FE81EC59FF4FFA83E983CF01A3
S1131F800E9459284D805E80F6E94F0E511CC20113
S1131F900E9459288D819E8188539F4F9C838B83F7
S1131FA02D803E809EEC290E311CF101208131816F
S1131FB042815381AA24A394B12CCC24C394D12C60
S1131FC0EE24E394F12C01E010E06AE070E08B81F0
S1131FD09C810E946F278D819E810E94B7298D80EC
S1131FE09E80F8EF8F0E911C90E0F4019183808322
S1131FF0C3010E94B729ED81FE81E650FF4F90E0B6
S11320009183808389819A810E94B729ED81FE8121
S1132010E450FF4F90E091838083C2010E94B7296E
S1132020ED81FE81E250FF4F90E091838083F101C6
S113203020813181428153816894AA24A1F8B12C72
S11320406894CC24C1F8D12C6894EE24E1F8F12CE6
S113205002E010E06AE070E08B819C810E946F27AF
S1132060F40180819181892BC1F0ED81FE81E650DC
S1132070FF4F80819181892B81F0ED81FE81E450B5
S1132080FF4F80819181892B41F0ED81FE81E250E7
S1132090FF4F80819181892B61F48D819E818951CB
S11320A09F4F9A83898381E0E981FA81808380E06C
S11320B001C081E026960FB6F894DEBF0FBECDBFF7
S11320C0DF91CF911F910F91FF90EF90DF90CF9010
S11320D0BF90AF909F908F907F906F905F904F9044
S11320E03F902F900895CF93DF93EC0161E070E06F
S11320F00E94682862E070E0CE01C2960E946828BF
S113210063E070E0CE018C599F4F0E94682864E020
S113211070E0CE018A569F4F0E946828CE018853F2
S11321209F4F0E946727FE01EE5FFE4F81E090E023
S113213091838083CE010E94960FDF91CF91089501
S1132140CF93DF93FC01E751FF4FDC0197962D916C
S11321503C91989731832083A551BF4FEC01C75A16
S1132160DF4F2881398111963C932E931296E29683
S11321702881398111963C932E931296E2962881F8
S113218039812D933C93DF01AC014F505F4F619136
S113219071911616170624F0E417F507C1F727C046
S11321A06115710539F12D913D911216130624F430
S11321B0261737070CF4B901A417B507A1F7633341
S11321C0710514F062E370E0EC01072E000C880B3B
S11321D0990B0E94532CC653DF4F288139814A81C1
S11321E05B810E94082D0E941B2CCB0105C080E05E
S11321F090E002C080E090E0DF91CF910895CF920B
S1132200DF92EF92FF920F931F93CF93DF93CDB79B
S1132210DEB78B859C858230910571F01CF40197A3
S113222039F01DC08330910571F00497A1F017C0F7
S1132230CC24C394D12C13C0CC24C3940F2EFBE024
S1132240DF2EF02D0CC06894CC24C2F80F2EFBE0D6
S1132250DF2EF02D04C06894CC24C2F8D12CCE011A
S11322600B960E9459288B019C016894EE24E1F896
S1132270F12C41E06C2D8D2D0E94D31A0E94BE18C2
S1132280DF91CF911F910F91FF90EF90DF90CF904E
S113229008952F923F924F925F926F927F928F9206
S11322A09F92AF92BF92CF92DF92EF92FF920F93E1
S11322B01F93CF93DF93EC018C010A521F4FF80157
S11322C040815181628173810E94B728FE01EE50E2
S11322D0FF4F80838DB79EB7C2970FB6F8949EBF09
S11322E00FBE8DBFADB7BEB7119682E3FE0101905C
S11322F00D928A95E1F7CE010E94FF103E0192E310
S1132300690E711CEDB7FEB7F2960FB6F894FEBFD6
S11323100FBEEDBFF8014081518162817381C30119
S11323200E94B728FE01ED50FF4F80838DB79EB702
S1132330C2970FB6F8949EBF0FBE8DBFADB7BEB7A0
S1132340119682E3F30101900D928A95E1F7CE0193
S11323500E94FF104E0194E6890E911CEDB7FEB762
S1132360F2960FB6F894FEBF0FBEEDBFF8014081A0
S1132370518162817381C4010E94B728FE01EC502F
S1132380FF4F80838DB79EB7C2970FB6F8949EBF58
S11323900FBE8DBFADB7BEB7119682E3F4010190B5
S11323A00D928A95E1F7CE010E94FF102E0196E965
S11323B0490E511CEDB7FEB7F2960FB6F894FEBF66
S11323C00FBEEDBFF8014081518162817381C2016A
S11323D00E94B728FE01EB50FF4F80838DB79EB754
S11323E0C2970FB6F8949EBF0FBE8DBFADB7BEB7F0
S11323F0119682E3F20101900D928A95E1F7CE01E4
S11324000E94FF10EDB7FEB7F2960FB6F894FEBF28
S11324100FBEEDBFCE010E94A0104F970CF494C0E4
S1132420FE01EB50FF4FA080B12C3197C080D12C1E
S11324303197E080F12C1E01F2EF2F0E311CF101D7
S1132440008110E0B497208131814281538164E19D
S113245070E0CE0188539F4F0E946F27F101808165
S1132460882351F0CE010E94B729FE01E850FF4FA6
S113247090E09183808307C081E090E0FE01E85002
S1132480FF4F91838083FE01ED50FF4F80818823AD
S113249051F0C3010E94B729FE01E650FF4F90E0BE
S11324A09183808307C081E090E0FE01E650FF4FF6
S11324B091838083FE01EC50FF4F8081882351F08B
S11324C0C4010E94B729FE01E450FF4F90E09183BC
S11324D0808307C081E090E0FE01E450FF4F9183C8
S11324E08083FE01EB50FF4F8081882351F0C201AD
S11324F00E94B729FE01E250FF4F90E09183808350
S113250007C081E090E0FE01E250FF4F9183808399
S1132510FE01E850FF4F80819181892B79F032963A
S113252080819181892B51F0329680819181892B10
S113253029F0329680819181892B41F4C951DF4F72
S113254081E0888380E003C081E001C081E0DF9105
S1132550CF911F910F91FF90EF90DF90CF90BF909C
S1132560AF909F908F907F906F905F904F903F902F
S11325702F900895CF92DF92EF92FF920F931F93C3
S1132580CF93DF93FC01EA51FF4F2081222309F40A
S113259071C0EC010E942C2A6E0182E3C80ED11C8A
S11325A0C6010E942C2A7E0184E6E80EF11CC701B4
S11325B00E942C2A8E010A561F4FC8010E942C2A01
S11325C0FE01EC5AFF4F9AA18081892BF2969081EB
S11325D0892B29F4F2968081882309F44BC0FE01EB
S11325E0EE51FF4F60817181828193810E941B2C87
S11325F0CE010E94DE29882329F081E0FE01E95101
S1132600FF4F8083FE01EE51FF4F60817181828113
S113261093810E941B2CC6010E94DE29882329F085
S113262081E0FE01E951FF4F8083FE01EE51FF4F2F
S113263060817181828193810E941B2CC7010E9459
S1132640DE29882329F081E0FE01E951FF4F8083D0
S1132650FE01EE51FF4F60817181828193810E945E
S11326601B2CC8010E94DE29882321F0C951DF4FA9
S113267081E08883DF91CF911F910F91FF90EF90BC
S1132680DF90CF900895FC0116A215A2E95AFF4FDE
S113269011821082F29611821082F29611821082B7
S11326A00895FC01EA51FF4F808191E098279083BF
S11326B00895FC0110A214A213A2EE5AFF4F108237
S11326C0339611821082BF96108233961182108243
S11326D0BF9610823396118210820895FC0120A1C6
S11326E0211102C021E0278FFC01EE5AFF4F208107
S11326F0211103C021E031972083FC01EC57FF4FE7
S11327002081211103C021E031972083FC01EA5488
S1132710FF4F2081211103C0319721E020830895C8
S1132720FC01178EEF5AFF4F1082F2961082F29638
S113273010820895CF93DF93EC010E94C12A88236D
S1132740F9F0CE01C2960E94C12A8823C9F0CE01B5
S11327508C599F4F0E94C12A882391F0CE018A563A
S11327609F4F0E94C12A882359F01F8EFE01EF5A01
S1132770FF4F1082F2961082CB54DF4F188203C0B1
S1132780CE010E946E13DF91CF910895FC01878DD5
S113279081110DC0DF01AF5ABF4F8C91811107C069
S11327A0D2968C91811103C0EB54FF4F8081089520
S11327B0CF93DF93EC010E94C72ACE01C2960E94F8
S11327C0C72ACE018C599F4F0E94C72ACE018A5630
S11327D09F4F0E94C72A8A8981110EC0FE01EC5BBB
S11327E0FF4F8081811108C0F2968081811104C05D
S11327F0F2968081882369F01A8AFE01EC5BFF4F10
S11328001082F2961082F2961082C851DF4F81E056
S11328108883DF91CF910895AF92BF92CF92DF92D8
S1132820EF92FF920F931F93CF93DF93EC018F8D61
S1132830882331F082E0FE01EE50FF4F808304C014
S1132840FE01EE50FF4F1082FE01EF5AFF4F8081D0
S1132850882329F082E0EE55FF4F808304C0FE01F7
S1132860ED50FF4F1082FE01ED57FF4F808188230A
S113287029F082E0EF58FF4F808304C0FE01EC5042
S1132880FF4F1082FE01EB54FF4F8081882329F013
S113289082E0E05CFF4F808304C0FE01EB50FF4FF9
S11328A01082CE010E94D81381111CC0FE01EB508E
S11328B0FF4FE080F12C3197008110E03197A08028
S11328C0B12C3197C080D12CB09760817181828105
S11328D093810E941B2C9501A601CE0188539F4F22
S11328E00E94FA27DF91CF911F910F91FF90EF90F3
S11328F0DF90CF90BF90AF900895CF93DF93EC011A
S11329000E94FF2ACE01C2960E94FF2ACE018C5952
S11329109F4F0E94FF2ACE018A569F4F0E94FF2A92
S11329208A8981110EC0FE01EC5BFF4F8081811109
S113293008C0F2968081811104C0F29680818823B8
S113294069F01A8AFE01EC5BFF4F1082F296108246
S1132950F2961082C851DF4F81E08883DF91CF91D6
S11329600895AF92BF92CF92DF92EF92FF920F93AE
S11329701F93CF93DF93EC018F8D882331F081E097
S1132980FE01EE50FF4F808304C0FE01EE50FF4F66
S11329901082FE01EF5AFF4F8081882329F081E0E5
S11329A0EE55FF4F808304C0FE01ED50FF4F1082AF
S11329B0FE01ED57FF4F8081882329F081E0EF5815
S11329C0FF4F808304C0FE01EC50FF4F1082FE01D4
S11329D0EB54FF4F8081882329F081E0E05CFF4FB6
S11329E0808304C0FE01EB50FF4F1082CE010E9491
S11329F07D1481111CC0FE01EB50FF4FE080F12CCF
S1132A003197008110E03197A080B12C3197C080BC
S1132A10D12CB09760817181828193810E941B2C9B
S1132A209501A601CE0188539F4F0E94FA27DF919A
S1132A30CF911F910F91FF90EF90DF90CF90BF90B7
S1132A40AF900895CB0164E170E00E94752D069764
S1132A50ECF062E086E00E94241986E90E943F19A6
S1132A6062E087E00E94241987E90E943F1963E02D
S1132A7086E00E94241988E90E943F1963E087E0F8
S1132A800E94241989E90E943F19089562E086E0B2
S1132A900E94241982E90E943F1962E087E00E94A3
S1132AA0241983E90E943F1963E086E00E942419F7
S1132AB084E90E943F1963E087E00E94241985E9B4
S1132AC00E943F1908952F923F924F925F926F9206
S1132AD07F928F929F92AF92BF92CF92DF92EF92AA
S1132AE0FF920F931F93CF93DF93CDB7DEB76A970F
S1132AF00FB6F894DEBF0FBECDBF9A8F898F7C8B43
S1132B006B8B0E94800FE98DFA8DF39581E090E044
S1132B10918380836AE070E08B899C890E948B2674
S1132B2098878F83898D9A8D0E944911882309F48F
S1132B30D8C1812C912C298D3A8D33953A872987D8
S1132B40898D9A8DC2969A838983E98DFA8DEC5981
S1132B50FF4FFC83EB83298D3A8D2A563F4F3E83EA
S1132B602D83298C3A8C36ED230E311C898D9A8D58
S1132B708E509F4F9C878B87E98DFA8DED50FF4FC8
S1132B80FE87ED87298D3A8D2C503F4F388B2F8748
S1132B90898D9A8D8B509F4F9A8B898BE98DFA8DF5
S1132BA0E253FF4FFE8BED8B298D3A8D28533F4F17
S1132BB0388F2F8BE985FA85808191811816190643
S1132BC00CF027C1F4EF8F16F1E09F0609F428C139
S1132BD02F8138852F3F3F4F09F083C16AE070E0B1
S1132BE08B899C890E948B2698878F83898D9A8DE7
S1132BF00E94A52889819A810E94A5288B819C81A5
S1132C000E94A5288D819E810E94A528B401898DEA
S1132C109A8D0E942215F101408151816281738154
S1132C20898D9A8D0E94B728EB85FC8580832DB70A
S1132C303EB7225331090FB6F8943EBF0FBE2DBFE5
S1132C40ADB7BEB7119682E3E98DFA8D01900D926E
S1132C508A95E1F7898D9A8D0E94FF100FB6F8943A
S1132C60DEBF0FBECDBFF10140815181628173810E
S1132C7089819A810E94B728ED85FE8580832DB7CE
S1132C803EB7225331090FB6F8943EBF0FBE2DBF95
S1132C90ADB7BEB7119682E3E981FA8101900D9236
S1132CA08A95E1F7898D9A8D0E94FF100FB6F894EA
S1132CB0DEBF0FBECDBFF1014081518162817381BE
S1132CC08B819C810E94B728EF85F88980832DB77A
S1132CD03EB7225331090FB6F8943EBF0FBE2DBF45
S1132CE0ADB7BEB7119682E3EB81FC8101900D92E2
S1132CF08A95E1F7898D9A8D0E94FF100FB6F8949A
S1132D00DEBF0FBECDBFF10140815181628173816D
S1132D108D819E810E94B728E989FA8980832DB725
S1132D203EB7225331090FB6F8943EBF0FBE2DBFF4
S1132D30ADB7BEB7119682E3ED81FE8101900D928D
S1132D408A95E1F7898D9A8D0E94FF10EB85FC85A9
S1132D50008110E0ED85FE85E080F12CEF85F88997
S1132D60C080D12CE989FA89A080B12CC8018E0DCC
S1132D709F1D8C0D9D1D8A0D9B1DE985FA859183F0
S1132D808083ED89FE8940805180628073800FB614
S1132D90F894DEBF0FBECDBF898D9A8D0E94A0101E
S1132DA0A3019201BC018F89988D0E946F27898DA0
S1132DB09A8D0E94802989819A810E9480298B8121
S1132DC09C810E9480298D819E810E9480293FEFF1
S1132DD0831A930A84E68816910451F098EC8916B4
S1132DE0910431F0ECE28E16E1E09E0609F0E2CEA9
S1132DF0898D9A8D0E94B32989819A810E94B32971
S1132E008B819C810E94B3298D819E810E94B3296C
S1132E10D1CE34EF831631E093060CF462C000C0C7
S1132E20E98DFA8DEE50FF4F8081882359F081E0BF
S1132E30E98DFA8D80A322E030E034A323A3E95185
S1132E40FF4F8083E98DFA8DED50FF4F80818823F9
S1132E5099F081E0E98DFA8DEE5AFF4F808322E0EC
S1132E6030E0E98DFA8DEB5AFF4F31832083E98DF1
S1132E70FA8DE951FF4F8083E98DFA8DEC50FF4FB5
S1132E808081882399F081E0E98DFA8DEC57FF4F1A
S1132E90808322E030E0E98DFA8DE957FF4F3183DA
S1132EA02083E98DFA8DE951FF4F8083E98DFA8DF6
S1132EB0EB50FF4F80818823A1F0E98DFA8DEA540D
S1132EC0FF4F81E08083E98DFA8DE754FF4F22E0C4
S1132ED030E031832083298D3A8D29513F4FF90108
S1132EE080836A960FB6F894DEBF0FBECDBFDF9124
S1132EF0CF911F910F91FF90EF90DF90CF90BF90F3
S1132F00AF909F908F907F906F905F904F903F9085
S1132F102F900895CF92DF92EF92FF920F931F9319
S1132F20CF93DF93EC016A017B0189010E945B2A44
S1132F30B701A601CE01C2960E945B2AB701A60181
S1132F40CE018C599F4F0E945B2AB701A601CE0186
S1132F508A569F4F0E945B2AB801CE010E946315D6
S1132F60CE010E947D14DF91CF911F910F91FF90AC
S1132F70EF90DF90CF900895CF92DF92EF92FF927F
S1132F800F931F93CF93DF93EC016A017B018901B7
S1132F900E948B2AB701A601CE01C2960E948B2AF9
S1132FA0B701A601CE018C599F4F0E948B2AB7010D
S1132FB0A601CE018A569F4F0E948B2AB801CE01EA
S1132FC00E946315CE010E94D813DF91CF911F9107
S1132FD00F91FF90EF90DF90CF9008952A98613081
S1132FE011F4299A01C029988EBD0DB407FEFDCFB6
S1132FF02A9A0895CF92DF92EF92FF920F931F9334
S1133000CF93DF936B017C01EA01CA0101972097FA
S113301081F061E070E09B01220F331F660F771F80
S1133020660F771F660F771F620F731F019798F75C
S113303002C061E070E0072E000C880B990B0E941F
S1133040532CA70196010E94082D0E941B2CAB0152
S1133050BC01CA0199231CF021E030E002C02FEF2B
S11330603FEF249FC001259F900D349F900D1124A4
S113307009E913E00F2EFAE0EF2EF12CF02D0F2EBC
S1133080FEE2DF2EF02D02C08F01EA01F801B70144
S11330900E94752D805D8293862F972FAE0141503B
S11330A0510919F4F8013297D082009769F7141680
S11330B01506D4F4BE0162507109DF0140E3219783
S11330C0CE1BDF0B4E93CD018C0F9D1F18161906D6
S11330D0CCF3CB01992314F480E090E08095909593
S11330E0E80FF91F8EE2829380818E3211F480E31F
S11330F08293332314F48DE28293CF01DF91CF9135
S11331001F910F91FF90EF90DF90CF9008952C9A2C
S113311084B18E6384B92C982C9A80E58CBD2A9A4C
S113312060E081E20E94EE1760E08FEB0E94EE17F0
S113313060E086E00E94EE1760E083E10E94EE17F3
S113314060E080E20E94EE1760E08CE00E94EE17DF
S1133150089588EF91E0E0EAF3E0DF019C011D921D
S113316021503040E1F710929F0310929E0387EFA5
S113317091E090939D0380939C030895EF92FF92B6
S11331800F931F93CF93DF9380919E0390919F039E
S113319099232CF410929F0310929E0309C0883F38
S11331A0914034F087EF91E090939F0380939E03C6
S11331B080919C0390919D0399232CF410929D037C
S11331C010929C0309C0883F914034F087EF91E04E
S11331D090939D0380939C03C0919E03D0919F0381
S11331E0CE0164E570E00E94752D162F60E08068C2
S11331F00E94EE1760E0812F80640E94EE17E09039
S11332009C03F0909D03EC16FD066CF08E010056B5
S11332101C4F61E0F80181918F010E94EE17219605
S1133220EC16FD06B4F787EF91E090939F0380932B
S11332309E0310929D0310929C03DF91CF911F91E6
S11332400F91FF90EF9008958E30A8F46630A8F4A3
S113325090E09C01220F331F820F931F880F991F48
S113326024E5629F800D911D112490939B0380930C
S11332709A0380E0089581E0089581E00895209103
S11332809A0330919B03805297E0899FF0011124A7
S1133290EE5EFC4FD901A056BC4FA9014A555C4FC4
S11332A084918D933196A417B507D1F72A5F3F4FC8
S11332B030939B0320939A0380919C0390919D03E8
S11332C08217930724F430939D0320939C0380E09A
S11332D0089540919A0350919B0390E0FC01EE0FF6
S11332E0FF1FE80FF91FEE0FFF1FEE0FFF1FEE0F7A
S11332F0FF1FEE5CFE4FDA01A056BC4F9A01285422
S11333003C4F84918D933196A217B307D1F7485E51
S11333105F4F50939B0340939A0380E008950F936B
S11333201F93CF93DF9340919A0350919B03209175
S11333309E0330919F034217530724F450939F0335
S113334040939E03E0EEE60FE03A08F4A0C0603C30
S113335008F49CC0EFECE60F9AC08491880F8D931B
S11333603196A217B307C9F74B5F5F4F50939B0386
S113337040939A0365C0823009F062C0CA01845543
S1133380910920919E0330919F03821793070CF0BB
S11333908EC090939F0380939E0389C02491220F33
S11333A0822F8270982F990F890F982F990F822F4F
S11333B08470382F330F830F880F880F892B022FC7
S11333C00870019F002D1124082B30E035952795B6
S11333D0359527953595279535952795822F8270B4
S11333E0382F330F830F880F322F3170932F990F9B
S11333F0390F832B922F9470392F330F930F990F1A
S1133400990F892B922F9870919F902D1124282F1A
S1133410292B088309832C9311962C9311973196A9
S113342022961296A617B70709F0B8CFCA010B96D1
S113343068EF71E00E94752D90939B0380939A032B
S113344080919A0390919B0320919C0330919D035A
S11334502817390724F490939D0380939C03FC015F
S1133460E056FC4F1082873F21E0920731F410921E
S11334709B0310929A0382E02DC0019690939B03C4
S113348080939A0380E026C081E024C0EFE5813078
S113349009F071CF87E0E89FF0011124EE5EFC4F44
S11334A0DA01A056BC4F9A012B553C4F56CF9923B5
S11334B05CF327E0E29FF0011124EE5EFC4FEA0189
S11334C0C45BDC4FDA01A056BC4FBA0166557C4F91
S11334D018E164CFDF91CF911F910F9108950F935D
S11334E01F93CF93DF93D42F89010E942419F801ED
S11334F06081662379F0C0E08D2F0E948F1981309E
S113350041F0CF5FF801EC0FF11D60816111F4CF40
S113351001C061E0862FDF91CF911F910F91089533
S1133520FF920F931F93CF93DF93F42E89010E9490
S11335302419F8016081662391F0C0E06E3221F015
S11335408F2D0E948F19D82FD13041F0CF5FF80111
S1133550EC0FF11D60816111F1CF01C061E0862F94
S1133560DF91CF911F910F91FF900895DF92EF9219
S1133570FF920F931F93CF93DF93C82FD62FD42E90
S1133580A701C901B8010E94FA179C014D2D6D2FA6
S11335908C2F0E946F1ADF91CF911F910F91FF9092
S11335A0EF90DF900895DF92EF92FF920F931F93B5
S11335B0CF93DF93C82FD62FD42EA701C901B8010A
S11335C00E94FA179C014D2D6D2F8C2F0E94901A8A
S11335D0DF91CF911F910F91FF90EF90DF900895AD
S11335E0CF92DF92EF92FF920E94871886E396E0D3
S11335F00E94562687E696E00E94731067E676E0FE
S113360088E995E00E948E0489E590E00E94A32D4C
S1133610813099F140E050E060E87FE385E590E097
S11336200E94BF2D40E050E068EC72E481E590E038
S11336300E94BF2D40E050E060E271E48DE490E030
S11336400E94BF2D40E050E0BA0189E490E00E945E
S1133650BF2D40E050E0BA0185E490E00E94BF2D08
S113366040E050E060EA70E481E490E00E94BF2D05
S113367061E089E590E00E94B12D85E590E00E942B
S1133680AB2D609331077093320780933307909387
S1133690340781E590E00E94AB2D60933507709369
S11336A0360780933707909338078DE490E00E94A3
S11336B0AB2D6093390770933A0780933B0790933F
S11336C03C0789E490E00E94AB2D60933D07709322
S11336D03E0780933F079093400785E490E00E9463
S11336E0AB2D6093410770934207809343079093F7
S11336F0440781E490E00E94AB2D609345077093EA
S11337004607809347079093480787E696E00E9410
S1133710430F8CE390E00E94AB2D6B017C0120E011
S113372030E0A9010E94032D8823BCF420E030EC92
S113373049E754E4C701B6010E94A42B18166CF49F
S113374040E050E068E472E48CE390E00E94BF2D16
S113375061E080E490E00E94B12D8CE390E00E944F
S1133760AB2D6093490770934A0780934B0790935E
S11337704C0780E490E00E94A32D91E0811101C0E8
S113378090E090934D07FF90EF90DF90CF900895D5
S1133790882309F45EC0409131075091320760914B
S11337A033077091340785E590E00E94BF2D409166
S11337B0350750913607609137077091380781E5D6
S11337C090E00E94BF2D4091390750913A076091D3
S11337D03B0770913C078DE490E00E94BF2D40911F
S11337E03D0750913E0760913F077091400789E47F
S11337F090E00E94BF2D4091410750914207609193
S113380043077091440785E490E00E94BF2D4091E6
S1133810450750914607609147077091480781E436
S113382090E00E94BF2D87E696E00E94430F4091EE
S1133830490750914A0760914B0770914C078CE3FC
S113384090E00E94BF2D60914D0780E490E00E94BB
S1133850B12D08950F931F93CF93DF9320912E06DC
S1133860222399F1EC0187E696E00E945928AB01E6
S1133870BC0184E18C9F80018D9F100D1124C8012F
S11338808C5F9F4F0E94BF2D89E996E00E945928C2
S1133890AB01BC01C801885F9F4F0E94BF2D8BEC18
S11338A096E00E945928AB01BC01C801845F9F4F78
S11338B00E94BF2D8DEF96E00E945928AB01BC01F8
S11338C0C801805F9F4F0E94BF2D10922E06DF918A
S11338D0CF911F910F9108950F931F93CF93DF936F
S11338E020912F06222309F453C0EC0187E696E0C9
S11338F00E946E1347E656E068E975E085E396E0BA
S11339000E94C22584E18C9F80018D9F100D11249B
S1133910C8018C5F9F4F0E94AB2D60938206709309
S113392083068093840690938506C801885F9F4F21
S11339300E94AB2D6093B4067093B5068093B606CF
S11339409093B706C801845F9F4F0E94AB2D60938C
S1133950E6067093E7068093E8069093E906C801AB
S1133960805F9F4F0E94AB2D6093180770931907D7
S113397080931A0790931B0766E376E087E696E048
S11339800E94631587E696E00E94901310929805B2
S113399010922F06DF91CF911F910F9108950E94ED
S11339A0F01AC1E3D6E000E316E047E656E066E32A
S11339B076E088E995E00E94100E47E656E068E953
S11339C075E085E396E00E94C225888190E00E941C
S11339D02A1C888190E00E946C1CF80180810E945E
S11339E0C81BE3CF87E696E00E94F60E86E396E0D6
S11339F00E94362685E396E00E94031D88E995E03F
S1133A000E94890408950895FB018781843020F57C
S1133A1020E031E041E060E085E00E946F1A25E09B
S1133A2031E041E061E082E00E946F1A20E131E080
S1133A3041E062E082E00E946F1A2AE131E041E055
S1133A4063E082E00E946F1A24E231E041E064E026
S1133A5082E00E946F1A0895883020F520E131E059
S1133A6041E060E083E00E946F1A20E331E041E02E
S1133A7061E082E00E946F1A29E331E041E062E0F4
S1133A8082E00E946F1A25E431E041E063E082E0C5
S1133A900E946F1A24E231E041E064E082E00E9477
S1133AA06F1A08958C3020F525E031E041E060E0A4
S1133AB083E00E946F1A20E331E041E061E082E09C
S1133AC00E946F1A22E531E041E062E082E00E9448
S1133AD06F1A25E431E041E063E082E00E946F1A4E
S1133AE024E231E041E064E082E00E946F1A08952C
S1133AF02AE131E041E060E083E00E946F1A2EE5A4
S1133B0031E041E061E082E00E946F1A29E631E091
S1133B1041E062E082E00E946F1A25E731E041E073
S1133B2063E082E00E946F1A21E831E041E064E042
S1133B3082E00E946F1A28E831E041E065E082E00B
S1133B400E946F1A0895CF92DF92EF92FF920F9323
S1133B501F93CF93DF936B01EA012EE531E041E03F
S1133B6060E082E00E946F1A20E931E041E061E008
S1133B7080E00E946F1A28E931E041E062E080E0D1
S1133B800E946F1A20EA31E041E063E080E00E9485
S1133B906F1A24EA31E041E064E080E00E946F1A89
S1133BA065E083E00E9424198EE90E943F198FE9A1
S1133BB00E943F1965E089E00E9424198DEA0E9461
S1133BC03F198EEA0E943F19FE01E653FF4F008120
S1133BD01181228133816894EE24E1F8F12C41E0D3
S1133BE061E089E00E94B61AFE01E253FF4F20E033
S1133BF030E048EC52E460817181828193810E94BB
S1133C00A92B8B019C0141E062E08AE00E94D31A57
S1133C10FE01EE52FF4F20E030E048EC52E46081B8
S1133C207181828193810E94A92B8B019C0141E0C7
S1133C3063E08AE00E94D31ACA52DF4F08811981D7
S1133C402A813B8141E064E089E00E94B61AF601D2
S1133C5087818A3C61F128F4883C59F0893CC1F0A1
S1133C6053C08C3C09F441C088F18D3C09F445C033
S1133C704BC061E088E00E9424198AE90E943F1940
S1133C8061E08DE00E9424198BE90E943F193CC039
S1133C9062E088E00E9424198AE90E943F1962E0E8
S1133CA08DE00E9424198BE90E943F192DC063E026
S1133CB088E00E9424198AE90E943F1963E08DE09C
S1133CC00E9424198BE90E943F191EC064E088E019
S1133CD00E9424198AE90E943F1964E08DE00E9441
S1133CE024198BE90E943F190FC065E082E00E940D
S1133CF0241982EA0E943F1907C065E088E00E9407
S1133D00241982EA0E943F19DF91CF911F910F91EC
S1133D10FF90EF90DF90CF900895CF92DF92EF92D3
S1133D20FF920F931F93CF93DF936B01EA0129E670
S1133D3031E041E060E082E00E946F1A2DEA31E058
S1133D4041E062E082E00E946F1AFE01E652FF4FFA
S1133D5000811181228133816894EE24E1F8F12CF1
S1133D6041E062E088E00E94B61A21EB31E041E0D4
S1133D7063E082E00E946F1AC252DF4F088119810A
S1133D802A813B8141E063E088E00E94B61AF60193
S1133D908781833DC1F018F4823D31F032C0843D07
S1133DA009F1853D39F12DC062E087E00E942419B4
S1133DB08AE90E943F1962E08CE00E94241982EA99
S1133DC00E943F191EC063E087E00E9424198AE91B
S1133DD00E943F1963E08CE00E94241982EA0E9449
S1133DE03F190FC065E082E00E94241982EA0E9414
S1133DF03F1907C065E088E00E94241982EA0E9406
S1133E003F1965E083E00E9424198EE90E943F195E
S1133E108FE90E943F1965E089E00E9424198DEA28
S1133E200E943F198EEA0E943F19DF91CF911F91A2
S1133E300F91FF90EF90DF90CF900895CF92DF9293
S1133E40EF92FF920F931F93CF93DF936B01EA01DD
S1133E5025E731E041E060E082E00E946F1A25EB43
S1133E6031E041E061E080E00E946F1A22EC31E031
S1133E7041E062E080E00E946F1AFE01EE51FF4FC4
S1133E8020E030E048EC52E46081718182819381CA
S1133E900E94A92B8B019C016894EE24E1F8F12C7B
S1133EA041E062E08AE00E94D31A2BEC31E041E069
S1133EB063E080E00E946F1ACA51DF4F888181302D
S1133EC041F024ED31E041E063E08AE00E946F1AA2
S1133ED007C028ED31E041E063E08AE00E946F1AF8
S1133EE0F60187818D3D49F018F48C3D71F02BC0AB
S1133EF08E3DD1F08F3D01F126C063E089E00E9440
S1133F00241982EA0E943F191EC062E089E00E94DF
S1133F1024198AE90E943F1962E08DE00E94241965
S1133F208BE90E943F190FC065E082E00E942419CA
S1133F3082EA0E943F1907C065E088E00E942419C4
S1133F4082EA0E943F1965E083E00E9424198EE909
S1133F500E943F198FE90E943F1965E089E00E94A1
S1133F6024198DEA0E943F198EEA0E943F19DF91BD
S1133F70CF911F910F91FF90EF90DF90CF90089514
S1133F80CF92DF92EF92FF920F931F93CF93DF9321
S1133F906B01EA012CED31E041E060E082E00E9437
S1133FA06F1A29EE31E041E061E082E00E946F1A6D
S1133FB022EF31E041E062E082E00E946F1A2BEFD1
S1133FC031E041E063E082E00E946F1A24E032E0D5
S1133FD041E064E082E00E946F1A65E083E00E94A1
S1133FE024198EE90E943F198FE90E943F1965E068
S1133FF089E00E9424198DEA0E943F198EEA0E94EA
S11340003F192DE032E041E061E08BE00E946F1A3D
S11340102DE032E041E062E08BE00E946F1A2DE077
S113402032E041E063E08BE00E946F1A2DE032E061
S113403041E064E08BE00E946F1A8BA19CA11816EA
S11340401906C4F420E132E041E061E08BE00E9413
S11340506F1A6BA17CA1072E000C880B990B0E9490
S1134060532C8B019C01E12CF12C41E061E08CE0AC
S11340700E94B61AFE01EB5AFF4F808191811816F7
S11340801906DCF420E132E041E062E08BE00E94BA
S11340906F1AFE01EB5AFF4F60817181072E000CED
S11340A0880B990B0E94532C8B019C01E12CF12C61
S11340B041E062E08CE00E94B61AFE01E957FF4F2E
S11340C08081918118161906DCF420E132E041E088
S11340D063E08BE00E946F1AFE01E957FF4F608195
S11340E07181072E000C880B990B0E94532C8B01B5
S11340F09C01E12CF12C41E063E08CE00E94B61AB3
S1134100FE01E754FF4F8081918118161906D4F4FB
S113411020E132E041E064E08BE00E946F1AC75472
S1134120DF4F68817981072E000C880B990B0E9460
S1134130532C8B019C01E12CF12C41E064E08CE0D8
S11341400E94B61AD6011796EC918E2F90E0FC01CE
S1134150E65EF109E730F105D8F5E85BFF4F0C9412
S1134160892D60E080E00E9424198BE90E943F19A8
S11341702FC061E080E00E9424198BE90E943F195E
S113418027C062E080E00E9424198BE90E943F1955
S11341901FC063E080E00E9424198BE90E943F194C
S11341A017C064E080E00E9424198BE90E943F1943
S11341B00FC065E082E00E94241982EA0E943F1940
S11341C007C065E088E00E94241982EA0E943F1932
S11341D0DF91CF911F910F91FF90EF90DF90CF90DF
S11341E00895CF92DF92EF92FF920F931F93CF9394
S11341F0DF93CDB7DEB7CEA4DFA4C114D10441F45C
S113420022E132E041E062E081E00E946F1A39C0AD
S11342102DE132E041E061E081E00E946F1AB601D5
S11342200D2C000C880B990B0E94532C8B019C01C4
S1134230E12CF12C41E061E089E00E94B61A82E0B1
S1134240C816D10479F083E0C816D10499F0CA9451
S1134250CD28B9F426E232E041E062E080E00E9439
S11342606F1A0FC02AE532E041E062E080E00E946C
S11342706F1A07C023E832E041E062E080E00E9468
S11342806F1ADF91CF911F910F91FF90EF90DF9004
S1134290CF9008950F931F93CF93DF938C01EA017E
S11342A0FB018781883E79F118F4873E41F09BC079
S11342B0893E09F44DC08A3E09F470C094C021EBD4
S11342C032E041E060E083E00E946F1A8DB79EB750
S11342D0C2970FB6F8949EBF0FBE8DBFADB7BEB7E1
S11342E0119682E3FE0101900D928A95E1F7C801CF
S11342F00E94F120EDB7FEB7F2960FB6F894FEBF18
S11343000FBEEDBF70C02AEB32E041E060E083E015
S11343100E946F1A8DB79EB7C2970FB6F8949EBFCE
S11343200FBE8DBFADB7BEB7119682E3FE01F29604
S113433001900D928A95E1F7C8010E94F120EDB732
S1134340FEB7F2960FB6F894FEBF0FBEEDBF4BC09A
S113435023EC32E041E060E083E00E946F1AFE014A
S1134360EC59FF4F8DB79EB7C2970FB6F8949EBF16
S11343700FBE8DBFADB7BEB7119682E301900D920B
S11343808A95E1F7C8010E94F120EDB7FEB7F296D5
S11343900FB6F894FEBF0FBEEDBF25C02CEC32E083
S11343A041E060E083E00E946F1AFE01EA56FF4F8D
S11343B08DB79EB7C2970FB6F8949EBF0FBE8DBF40
S11343C0ADB7BEB7119682E301900D928A95E1F7DD
S11343D0C8010E94F120EDB7FEB7F2960FB6F8942B
S11343E0FEBF0FBEEDBFDF91CF911F910F910895D6
S11343F060E086E00E9424198EE90E943F1960E083
S113440087E00E9424198FE90E943F190895FB0157
S11344108081823051F065E086E00E94241983EAAD
S11344200E943F1984EA0E943F190895AF92BF92F7
S1134430CF92DF92EF92FF920F931F93CF93DF936C
S1134440CDB7DEB72C970FB6F894DEBF0FBECDBF45
S1134450898D9A8D8230910599F01CF4019739F079
S113446031C083309105C1F0049719F12BC0CC24DD
S1134470C394A12C00E00F2EF3E0DF2EF02D22C018
S1134480CC24C3940F2EFBE0AF2EF02D00E00F2EB2
S1134490F9E0DF2EF02D16C06894CC24C2F80F2E5C
S11344A0FBE0AF2EF02D03E00F2EF9E0DF2EF02D10
S11344B009C06894CC24C2F8A12C03E00F2EF3E0C9
S11344C0DF2EF02D89AD8823A9F188AD8823C9F0AA
S11344D087EA90E09A83898388EA90E09C838B83BF
S11344E089EA90E09E838D838AEA90E098878F839F
S11344F08BEA90E09A8789878CEA90E09C878B8787
S11345007CC08CE890E09A8389838DE890E09C835A
S11345108B838EE890E09E838D838FE890E098876C
S11345208F8380E990E09A87898781E990E09C876E
S11345308B8763C088AD8823C9F080E890E09A83B4
S1134540898381E890E09C838B8382E890E09E835A
S11345508D8383E890E098878F8384E890E09A873E
S1134560898785E890E09C878B8747C086E890E040
S11345709A83898387E890E09C838B8388E890E022
S11345809E838D8389E890E098878F838AE890E002
S11345909A8789878BE890E09C878B872EC0612F50
S11345A08D2D0E942419F70180810E943F19612FEB
S11345B08B2D0E942419F70182810E943F191F5FED
S11345C0F4E0EF0EF11C1013EACFCE0149960E94DD
S11345D059288B019C016894EE24E1F8F12C41E008
S11345E06C2D8A2D0E94D31A61E06C0D8A2D0E94D5
S11345F0241980EA0E943F1909C0102FCE010196A8
S11346007C010D5FBB24B394BD0CC9CF2C960FB6AF
S1134610F894DEBF0FBECDBFDF91CF911F910F91F4
S1134620FF90EF90DF90CF90BF90AF9008950F93DD
S11346301F93CF93DF938C01EB018DB79EB7C29785
S11346400FB6F8949EBF0FBE8DBFADB7BEB711961F
S113465082E3FB0101900D928A95E1F7C8010E9463
S113466016228DB79EB7C2960FB6F8949EBF0FBEA2
S11346708DBFC2970FB6F8949EBF0FBE8DBFADB766
S1134680BEB7119682E3FE01F29601900D928A95CF
S1134690E1F7C8010E9416228DB79EB7C2960FB6E5
S11346A0F8949EBF0FBE8DBFFE01EC59FF4FC29719
S11346B00FB6F8949EBF0FBE8DBFADB7BEB71196AF
S11346C082E301900D928A95E1F7C8010E941622B7
S11346D08DB79EB7C2960FB6F8949EBF0FBE8DBF1E
S11346E0FE01EA56FF4FC2970FB6F8949EBF0FBE65
S11346F08DBFADB7BEB7119682E301900D928A9536
S1134700E1F7C8010E9416228DB79EB7C2960FB674
S1134710F8949EBF0FBE8DBFDF91CF911F910F9173
S11347200895FB0180818230E9F462E086E00E9412
S1134730241986E90E943F1962E087E00E94241947
S113474087E90E943F1963E086E00E94241988E902
S11347500E943F1963E087E00E94241989E90E94BE
S11347603F19089562E086E00E94241982E90E94BC
S11347703F1962E087E00E94241983E90E943F19EF
S113478063E086E00E94241984E90E943F1963E0F3
S113479087E00E94241985E90E943F190895DB01EE
S11347A01796EC918E2F90E08131910508F08CC022
S11347B0FC01E15BFF4F0C94892D61E080E00E94D5
S11347C024198BE90E943F19089562E080E00E9459
S11347D024198BE90E943F19089563E080E00E9448
S11347E024198BE90E943F19089564E080E00E9437
S11347F024198BE90E943F19089561E080E00E942A
S113480024198BE90E943F19089562E080E00E9418
S113481024198BE90E943F19089564E080E00E9406
S113482024198BE90E943F19089563E080E00E94F7
S113483024198BE90E943F19089561E080E00E94E9
S113484024198BE90E943F19089562E080E00E94D8
S113485024198BE90E943F19089563E080E00E94C7
S113486024198BE90E943F19089564E080E00E94B6
S113487024198BE90E943F19089561E080E00E94A9
S113488024198BE90E943F19089562E080E00E9498
S113489024198BE90E943F19089563E080E00E9487
S11348A024198BE90E943F19089564E080E00E9476
S11348B024198BE90E943F19089565E080E00E9465
S11348C024198BE90E943F1908950F931F93CF93E6
S11348D0DF93EC018B010E94041DB801CE010E94FC
S11348E0CF23DF91CF911F910F910895EF92FF9203
S11348F00F931F93CF93DF93FB018081823011F0DC
S113490080E016C0EB01CB010E94D10B8B019C010E
S11349106894EE24E1F8F12C41E061E085E00E9426
S1134920B61A64E085E00E94241989810E946919FD
S1134930DF91CF911F910F91FF90EF90089561E067
S113494085E00E9424198AE90E943F1964E085E009
S11349500E9424198AE90E943F1961E088E00E94BC
S113496024198BE90E943F1964E088E00E9424190D
S11349708BE90E943F1908959C01DB019C919230C0
S113498011F480E00895DB011796EC914E2F50E06E
S11349904830510508F049C0C901FA01E05AFF4FF7
S11349A00C94892D61E086E00E9424198CE90E9410
S11349B03F198DE90E943F1938C061E086E00E94EA
S11349C0241985EA0E943F1986EA0E943F192DC0E6
S11349D064E086E00E94241985EA0E943F1986EA71
S11349E00E943F1922C061E085E00E9424198AE9EF
S11349F00E943F191AC064E085E00E9424198AE9E4
S1134A000E943F1912C061E088E00E9424198BE9DA
S1134A100E943F190AC064E088E00E9424198BE9CF
S1134A200E943F1902C00E949F240895EF92FF92B2
S1134A300F931F93CF93DF93EC018B017A010E94B4
S1134A40F821B801CE010E940722B701CE010E94CD
S1134A501723B801CE010E949123B801CE010E9410
S1134A60BC24B801CE010E947624DF91CF911F911E
S1134A700F91FF90EF90089525ED32E041E062E060
S1134A8082E00E946F1A089522EE32E041E060E075
S1134A9083E00E946F1A2BEE32E041E061E081E096
S1134AA00E946F1A20E233E041E065E081E00E9459
S1134AB06F1A08952BE233E041E060E084E00E9445
S1134AC06F1A22E333E041E061E080E00E946F1A54
S1134AD02FE333E041E062E080E00E946F1A2EE4AD
S1134AE033E041E063E080E00E946F1A25E533E0A3
S1134AF041E065E082E00E946F1A089520E633E009
S1134B0041E062E083E00E946F1A29E633E041E06D
S1134B1063E083E00E946F1A089523E733E041E0E5
S1134B2062E083E00E946F1A2EE733E041E063E025
S1134B3082E00E946F1A0895FB01E656FF4F208120
S1134B40318122303105A9F03CF42115310559F0A9
S1134B502130310559F008952330310569F02039A9
S1134B60314069F008950E943C2508950E9444252F
S1134B7008950E945A2508950E947E2508950E9452
S1134B808D250895EF92FF920F931F93CF93DF9398
S1134B907C01EB018A01FA01E951FF4F80818823EE
S1134BA051F0108288E0888382E090E0FB01E656B1
S1134BB0FF4F91838083F801E851FF4F8081882360
S1134BC051F0108288E0888380E991E0FE01E65686
S1134BD0FF4F918380830E94A918E8818E2F90E073
S1134BE089309105D0F5FC01E859FF4F0C94892DCB
S1134BF0A801BE01C7010E9416252FC0A801BE014D
S1134C00C7010E94162529C0A801BE01C7010E9440
S1134C10652423C0A801BE01C7010E94A31D1DC0B5
S1134C20A801BE01C7010E948D1E17C0A801BE01C4
S1134C30C7010E941E1F11C0A801BE01C7010E9426
S1134C40C01F0BC0A801BE01C7010E944A2105C0B4
S1134C50A801BE01C7010E949C250E94BE18DF91D5
S1134C60CF911F910F91FF90EF900895CF93DF9311
S1134C70EC010E943B0ECE0107960E943B0ECE0132
S1134C800E960E943B0ECE0145960E943B0ECE012D
S1134C904C960E943B0ECE0183960E943B0ECE01A1
S1134CA08A960E943B0EDF91CF910895CF93DF93B4
S1134CB0EC0140E050E064E40E943C0E41E050E02E
S1134CC064E4CE0107960E943C0E42E050E064E4A6
S1134CD0CE010E960E943C0E43E050E064E4CE0107
S1134CE045960E943C0E44E050E064E4CE014C96AC
S1134CF00E943C0E45E050E064E4CE0183960E949D
S1134D003C0E46E050E064E4CE018A960E943C0EDC
S1134D10DF91CF9108950F931F93CF93DF93EC010D
S1134D208B010E960E947A0E81112CC0B801CE011F
S1134D3045960E947A0E811128C0B801CE014C9686
S1134D400E947A0E811124C0B801CE018A960E9475
S1134D507A0E811120C0B801CE0183960E947A0E8A
S1134D6081111CC0B801CE010E947A0E811119C0B4
S1134D70B801CE0107960E947A0E811115C08FEFFB
S1134D809FEF14C080E090E011C081E090E00EC07D
S1134D9082E090E00BC084E090E008C083E090E003
S1134DA005C085E090E002C086E090E0DF91CF91FD
S1134DB01F910F9108950895ECE7F0E080818164DC
S1134DC08083EAE7F0E080818F6880830895FC01A6
S1134DD0ACE7B0E08C918E7F8C938C918D7F8C931B
S1134DE08C918B7F8C938C91877F8C93633071052E
S1134DF051F06430710569F06230710579F48C9179
S1134E0081608C930BC0ACE7B0E08C9182608C9392
S1134E1005C0ACE7B0E08C9183608C93AAE7B0E066
S1134E208C9180648C93108281E040E09C91282FC7
S1134E30392F307194FF242F20833323B9F36091E9
S1134E4078007091790080E090E00E94512C2BE46E
S1134E503CE340EA5BE30E94082D08958093BB0085
S1134E6084E88093BC00ECEBF0E080818823ECF7CD
S1134E709091B900987F983129F081E0983219F423
S1134E8080E0089580E00895CF9394EA9093BC0065
S1134E90ECEBF0E090819923ECF79091B900987FC6
S1134EA0983011F0903161F4C62F0E942E27813082
S1134EB039F08C2F0E942E2794E99093BC0004C0F3
S1134EC084E98093BC0081E0CF910895089587E23E
S1134ED08093B80060E08EE70E9444270895AF9263
S1134EE0BF92CF92DF92EF92FF920F931F93CF93D3
S1134EF0DF93EC01161617060CF071C091E0013037
S1134F00110509F090E00230110509F4926081E086
S1134F10E816F10411F4946005C082E0E816F10487
S1134F2009F4986081E0C816D10411F4906105C0B9
S1134F3082E0C816D10409F4906269017A018B01F8
S1134F4081E0A816B10419F4692F606406C082E0F8
S1134F50A816B104E9F5692F60688EE70E9444271A
S1134F60198218828FE99FE00197F1F700C00000D1
S1134F70888199810196998388838017910794F396
S1134F8060E08EE70E9444271982188220E030E016
S1134F90A901C701B6010E94032D181604F58FE973
S1134FA09FE00197F1F700C00000688179816F5F8D
S1134FB07F4F79836883072E000C880B990B0E941E
S1134FC0532CA70196010E94A42B882344F307C005
S1134FD0692F8EE70E94442719821882C3CFDF917C
S1134FE0CF911F910F91FF90EF90DF90CF90BF90E2
S1134FF0AF900895EF92FF920F931F93CF93DF9397
S1135000F901161617060CF049C031E0413051057C
S113501009F030E04230510509F43260E130F10525
S113502011F4346003C0329709F43860013011057B
S113503011F4306104C00230110509F430628B01AF
S1135040EC0181E0E816F10419F4632F606406C0F2
S113505092E0E916F104D9F4632F60688EE70E94A8
S11350604427198218828FE99FE00197F1F700C065
S11350700000288139812F5F3F4F3983288320170F
S113508031078CF360E08EE70E94442707C0632F4A
S11350908EE70E94442719821882E5CFDF91CF91D1
S11350A01F910F91FF90EF9008958B960E94DB263D
S11350B00895CF93DF93EC01688179818B960E94E8
S11350C0E7266A837B838C839D83DF91CF91089548
S11350D00F931F93CF93DF93EC018B018B960E9468
S11350E0DC261983088380E090E0A0EAB0E48E8394
S11350F09F83A887B9878AE097EDA3E2BCE38A87F8
S11351009B87AC87BD87CE010E9459286B8B7C8B13
S11351108D8B9E8B1EA21DA21CA21BA2DF91CF9180
S11351201F910F910895CF93DF93EC010E945928AA
S11351308A819B81AC81BD818B8F9C8FAD8FBE8F0B
S11351401AA619A6DF91CF910895FC01878D8823B3
S113515061F080A1811109C082819381A481B5810C
S113516086879787A08BB18B089580E008954F922E
S11351705F926F927F928F929F92AF92BF92CF92E3
S1135180DF92EF92FF920F931F93CF93DF93FC0173
S1135190278D222309F498C020A1211198C06A0107
S11351A07B01EC010E9459284B015C016A837B83DB
S11351B08C839D8320E030E0A9016B8D7C8D8D8DE7
S11351C09E8D0E94A42B811108C08AE097EDA3E272
S11351D0BCE38B8F9C8FAD8FBE8F20E030E046E91F
S11351E053E46B8D7C8D8D8D9E8D0E94082D2B013B
S11351F03C0120E030E046E953E4C501B4010E94DB
S1135200082D9B01AC01C301B2010E94372B6CA78E
S11352107DA78EA79FA70E941B2C4B015C0178A73A
S11352206FA379AB68AB19A2072E000C880B990BFE
S11352300E94532C2B013C0120E030E046E953E46A
S1135240C701B6010E94082D6B017C019B01AC01D2
S113525060E070E0CB010E94372B9B01AC01C301DD
S1135260B2010E94A42B88237CF491948194910828
S113527098A68FA289A59AA5881699065CF598A781
S11352808FA382E090E02BC020E030E0A901C701A9
S1135290B6010E94382B9B01AC01C301B2010E94EC
S11352A0032D181654F489A59AA588169906ACF40A
S11352B098A78FA381E090E012C018A61FA281E0F6
S11352C089A380E090E00BC080E090E008C080E01B
S11352D090E005C082E090E002C081E090E0DF91C0
S11352E0CF911F910F91FF90EF90DF90CF90BF90DF
S11352F0AF909F908F907F906F905F904F900895A4
S1135300CF92DF92EF92FF920F931F93CF93FC0102
S1135310C78DCC23F9F020A1211119C031A131117D
S113532018C08C01C684D784E088F1880E9459286B
S11353309B01AC01C701B6010E94A42B81110AC0D4
S1135340F80181A592A5019692A781A703C0C0E0A8
S113535001C0C22F8C2FCF911F910F91FF90EF901E
S1135360DF90CF900895FC0112A611A60895CF9363
S1135370DF93EC018A819B81AC81BD818F8B988FF7
S1135380A98FBA8FCE010E9459286A837B838C83AC
S11353909D832F89388D498D5A8D0E94A42B8111AC
S11353A008C081E088A381E090E09CA38BA380E007
S11353B002C018A281E0DF91CF910895FC0182A17F
S11353C0811114C080A1811111C025A136A12F5FC4
S11353D03F4F36A325A3621773075CF481E080A3D3
S11353E083E090E094A383A381E0089516A215A21C
S11353F080E00895CF92DF92EF92FF92CF93DF93F4
S1135400EC01CE80DF80E884F984A70196016B8DDE
S11354107C8D8D8D9E8D0E94032D882324F0CB8E50
S1135420DC8EED8EFE8ECA84DB84EC84FD84A701C1
S113543096016B8D7C8D8D8D9E8D0E94A42B1816EC
S113544024F0CB8EDC8EED8EFE8EDF91CF91FF901B
S1135450EF90DF90CF900895CF92DF92EF92FF927A
S1135460CF93DF93EC01CB88DC88ED88FE880E9423
S113547059289B01AC01C701B6010E94A42B8823C3
S113548059F08A819B81AC81BD818B8B9C8BAD8BC8
S1135490BE8B81E08AA302C01AA280E0DF91CF9183
S11354A0FF90EF90DF90CF900895FC01878D91E0FD
S11354B09827978F0895CF92DF92EF92FF921F93D0
S11354C0CF93DF93EC011F8D1123E1F0CB01BA01DF
S11354D02B8D3C8D4D8D5E8D0E94382B6B8F7C8F78
S11354E08D8F9E8FCE80DF80E884F984A70196019A
S11354F00E94032D181634F4CB8EDC8EED8EFE8EB6
S113550081E08A8B812FDF91CF911F91FF90EF90E3
S1135510DF90CF900895CF92DF92EF92FF921F9386
S1135520CF93DF93FC01178D1123E9F09A01AB01AE
S1135530EC01638D748D858D968D0E94372B6B8F56
S11355407C8F8D8F9E8FCA84DB84EC84FD84A701BD
S113555096010E94A42B882334F4CB8EDC8EED8E2E
S1135560FE8E81E08A8B812FDF91CF911F91FF9076
S1135570EF90DF90CF900895FC01878D811180A179
S11355800895FC0180A1811101C0878D0895EF92D7
S1135590FF920F931F93CF93DF93FC0100A101119E
S11355A023C0178D112319F1EC0120E030E048EC01
S11355B052E462817381848195810E94082D0E9446
S11355C01B2C7B0120E030E048EC52E46A857B85AB
S11355D08C859D850E94082D0E941B2C6E157F05CD
S11355E02CF081E08A8B03C010E001C0102F812FC2
S11355F0DF91CF911F910F91FF90EF900895EF925B
S1135600FF920F931F93CF93DF93FC0100A101112D
S113561023C0178D112319F1EC0120E030E048EC90
S113562052E462817381848195810E94082D0E94D5
S11356301B2C7B0120E030E048EC52E46E817F813A
S1135640888599850E94082D0E941B2CE616F70672
S11356502CF081E08A8B03C010E001C0102F812F51
S1135660DF91CF911F910F91FF90EF9008955058C3
S1135670BB27AA270E944F2B0C94C92C0E94BB2C39
S113568038F00E94C22C20F039F49F3F19F426F41C
S11356900C94B82C0EF4E095E7FB0C94B22CE92F93
S11356A00E94DA2C58F3BA17620773078407950728
S11356B020F079F4A6F50C94FC2C0EF4E0950B2E56
S11356C0BA2FA02D0B01B90190010C01CA01A00150
S11356D01124FF27591B99F0593F50F4503E68F1AB
S11356E01A16F040A22F232F342F4427585FF3CFEC
S11356F0469537952795A795F0405395C9F77EF4BD
S11357001F16BA0B620B730B840BBAF09150A1F005
S1135710FF0FBB1F661F771F881FC2F70EC0BA0F8B
S1135720621F731F841F48F4879577956795B79513
S1135730F7959E3F08F0B0CF9395880F08F099270E
S1135740EE0F9795879508950E948E2C08F481E0BA
S113575008950E94BD2B0C94C92C0E94C22C58F0B1
S11357600E94BB2C40F029F45F3F29F00C94B22C2A
S113577051110C94FD2C0C94B82C0E94DA2C68F373
S11357809923B1F3552391F3951B550BBB27AA27F6
S113579062177307840738F09F5F5F4F220F331F30
S11357A0441FAA1FA9F335D00E2E3AF0E0E832D0F8
S11357B091505040E695001CCAF72BD0FE2F29D0FB
S11357C0660F771F881FBB1F261737074807AB07CD
S11357D0B0E809F0BB0B802DBF01FF2793585F4F42
S11357E03AF09E3F510578F00C94B22C0C94FD2CA9
S11357F05F3FE4F3983ED4F3869577956795B79524
S1135800F7959F5FC9F7880F911D9695879597F92E
S11358100895E1E0660F771F881FBB1F62177307A7
S11358208407BA0720F0621B730B840BBA0BEE1FBC
S113583088F7E09508950E94222C6894B1110C9485
S1135840FD2C08950E94E22C88F09F5798F0B92F00
S11358509927B751B0F0E1F0660F771F881F991FA1
S11358601AF0BA95C9F714C0B13091F00E94FC2C1B
S1135870B1E008950C94FC2C672F782F8827B85F2B
S113588039F0B93FCCF3869577956795B395D9F7F9
S11358903EF490958095709561957F4F8F4F9F4F03
S11358A00895E89409C097FB3EF49095809570950F
S11358B061957F4F8F4F9F4F9923A9F0F92F96E958
S11358C0BB279395F695879577956795B795F111CD
S11358D0F8CFFAF4BB0F11F460FF1BC06F5F7F4F6A
S11358E08F4F9F4F16C0882311F096E911C077237C
S11358F021F09EE8872F762F05C0662371F096E885
S1135900862F70E060E02AF09A95660F771F881F53
S1135910DAF7880F9695879597F90895990F0008F7
S1135920550FAA0BE0E8FEEF16161706E807F9076D
S1135930C0F012161306E407F50798F0621B730B08
S1135940840B950B39F40A2661F0232B242B252B89
S113595021F408950A2609F4A140A6958FEF811D2C
S1135960811D089597F99F6780E870E060E00895CD
S11359709FEF80EC089500240A9416161706180663
S11359800906089500240A9412161306140605063F
S11359900895092E0394000C11F4882352F0BB0FD0
S11359A040F4BF2B11F460FF04C06F5F7F4F8F4F33
S11359B09F4F089557FD9058440F551F59F05F3F6E
S11359C071F04795880F97FB991F61F09F3F79F01D
S11359D087950895121613061406551FF2CF46959F
S11359E0F1DF08C0161617061806991FF1CF869521
S11359F07105610508940895E894BB276627772705
S1135A00CB0197F908950E948E2C08F48FEF089526
S1135A100E941B2D0C94C92C0E94BB2C38F00E94B0
S1135A20C22C20F0952311F00C94B22C0C94B82CB9
S1135A3011240C94FD2C0E94DA2C70F3959FC1F371
S1135A40950F50E0551F629FF001729FBB27F00D28
S1135A50B11D639FAA27F00DB11DAA1F649F66277D
S1135A60B00DA11D661F829F2227B00DA11D621FCC
S1135A70739FB00DA11D621F839FA00D611D221F86
S1135A80749F3327A00D611D231F849F600D211D6A
S1135A90822F762F6A2F11249F5750409AF0F1F0ED
S1135AA088234AF0EE0FFF1FBB1F661F771F881F56
S1135AB091505040A9F79E3F510580F00C94B22CB0
S1135AC00C94FD2C5F3FE4F3983ED4F386957795D0
S1135AD06795B795F795E7959F5FC1F7FE2B880FFC
S1135AE0911D9695879597F9089597FB072E16F4BF
S1135AF0009407D077FD09D00E948F2D07FC05D0B4
S1135B003EF4909581959F4F0895709561957F4FD0
S1135B100895EE0FFF1F0590F491E02D0994AA1B40
S1135B20BB1B51E107C0AA1FBB1FA617B70710F084
S1135B30A61BB70B881F991F5A95A9F780959095B6
S1135B40BC01CD010895F999FECF92BD81BDF89AAB
S1135B50992780B50895A6E1B0E044E050E00C94A4
S1135B60CE2D262FF999FECF1FBA92BD81BD20BD3F
S1135B700FB6F894FA9AF99A0FBE01960895242F55
S1135B800E94B22D252F0E94B22D0C94C72D0E9485
S1135B90B12D272F0C94B22DDC01CB01FC01F99916
S1135BA0FECF06C0F2BDE1BDF89A319600B40D9265
S10F5BB041505040B8F70895F894FFCF1E
S1135BBCCCC5CDDE00D3F1F2E0EDEEE2E8F2FC0070
S1135BCCD1EEF5F0E0EDE8F2FC00CDE0F1F2F0EE10
S1135BDCE9EAE800CFE0EDE5EBFC20F3EFF02E0072
S1135BECCFE0F0EAEEE2EAE000CDE8E6EDFFFF20DC
S1135BFCEFEEE72E00C2E5F0F5EDFFFF20EFEEE748
S1135C0C2E00CDE8E6EDE5E520EFEEE72E00CAE048
S1135C1CEBE8E1F0EEE2EAE000CEE3F0E0EDE8F7E9
S1135C2CE5EDE8FF00C4E8E0E3EDEEF1F2E8EAE0CC
S1135C3C00CEF8E8E1EAE800C4E8F1EFEBE5E900AE
S1135C4CCAEEF0F02DE8FF00C8EDE5F02DE8FF00FA
S1135C5CD8E0E300D2EEF7EDEEF1F2FC006D696EE4
S1135C6C006D617800C4EBE8F2E5EBFCEDEEF1F2CB
S1135C7CFC00EFF0EEF6E5F1F1E000C2EAEBFEF722
S1135C8CE8F2FC00EEF2EA00E2EAEB00D1E1F0EE1D
S1135C9CF120EEF8E8E1EEEA00312ED1F2EEE9EA79
S1135CACE000322ED1F2EEE9EAE000332ED1F2EE2E
S1135CBCE9EAE000342ED1F2EEE9EAE0002D2D0001
S1135CCC4500CEF8E8E1EEEA20EDE5F200CEF8E886
S1135CDCE1EAE020C500EDE5F220EEF2E2E5F2E0C7
