S0120000436172537570706F72742E73726563FF
S11300000C9424040C944C040C944C040C944C0454
S11300100C944C040C944C040C944C040C944C041C
S11300200C944C040C944C040C944C040C944C040C
S11300300C944C040C944C040C944C040C944C04FC
S11300400C944C040C944C040C944C040C944C04EC
S11300500C944C040C944C040C944C040C944C04DC
S11300600C944C040C944C04C005C605CB05D00577
S1130070D505DA05DF05E405EE05F8050206FA0AFA
S1130080FD0A000B030B060B090B0C0B0F0B301BAB
S1130090381B401B481B501B581B681B601B701BE4
S11300A0781B801B881B901B981BA01BA81BB01BD4
S11300B02E1E361E321E3A1E3E1E421E461E4A1E6C
S11300C00AD7233C0AD7A33C8FC2F53C0AD7233D69
S11300D0CDCC4C3D8FC2753D295C8F3D0AD7A33DE5
S11300E0EC51B83DCDCCCC3D8FC2F53D9A99193E2B
S11300F0CDCC4C3E9A99993E0000003F0000403F11
S11301000000803F0000C03F00000040000040406D
S1130110C0C0E0A0A0A09090909088888884848437
S113012084828282828181FFC0C0E0E0A0A090909E
S1130130909088888884848484828282828181FFEA
S1130140C0C0E0E0E0A09090909088888884848487
S113015084828282828181FFC0C0E0E0E0E0F0908E
S1130160909088888884848484828282828181FFBA
S1130170C0C0E0E0E0E0F0F0909088888884848457
S113018084828282828181FFC0C0E0E0E0E0F0F0FE
S1130190F09088888884848484828282828181FF2A
S11301A0C0C0E0E0E0E0F0F0F0F088888884848467
S11301B084828282828181FFC0C0E0E0E0E0F0F0CE
S11301C0F0F0F8888884848484828282828181FF2A
S11301D0C0C0E0E0E0E0F0F0F0F0F8F88884848457
S11301E084828282828181FFC0C0E0E0E0E0F0F09E
S11301F0F0F0F8F8F884848484828282828181FF1A
S1130200C0C0E0E0E0E0F0F0F0F0F8F8F8FC84843E
S113021084828282828181FFC0C0E0E0E0E0F0F06D
S1130220F0F0F8F8F8FCFC8484828282828181FFF9
S1130230C0C0E0E0E0E0F0F0F0F0F8F8F8FCFCFC1E
S113024084828282828181FFC0C0E0E0E0E0F0F03D
S1130250F0F0F8F8F8FCFCFCFC828282828181FFD9
S1130260C0C0E0E0E0E0F0F0F0F0F8F8F8FCFCFCEE
S1130270FCFE8282828181FFC0C0E0E0E0E0F0F019
S1130280F0F0F8F8F8FCFCFCFCFEFE82828181FFB1
S1130290C0C0E0E0E0E0F0F0F0F0F8F8F8FCFCFCBE
S11302A0FCFEFEFE828181FFC0C0E0E0E0E0F0F0F1
S11302B0F0F0F8F8F8FCFCFCFCFEFEFEFE8181FF89
S11302C0C0C0E0E0E0E0F0F0F0F0F8F8F8FCFCFC8E
S11302D0FCFEFEFEFEFF81FFC0C0E0E0E0E0F0F0C7
S11302E0F0F0F8F8F8FCFCFCFCFEFEFEFEFFFFFF5D
S11302F00000000000000000005F00000000000794
S11303000007000000147F147F140000242A7F2AB1
S11303101200004C2C10686400003649552250002D
S11303200000050300000000001C22410000000042
S113033041221C00000014083E0814000008083E76
S113034008080000000050300000001010101010C9
S1130350000000606000000000201008040200009B
S11303603E5149453E000000427F4000000042618A
S113037051494600002141454B3100001814127FB9
S1130380100000274545453900003C4A49493000E2
S11303900001710905030000364949493600000689
S11303A04949291E00000036360000000000563678
S11303B00000000008142241000000141414141456
S11303C00000004122140800000201510906000047
S11303D0324979413E00007E1111117E00007F49AF
S11303E049493600003E4141412200007F414122FB
S11303F01C00007F4949494100007F0909090100A7
S1130400003E4149497A00007F0808087F00000047
S1130410417F410000002040413F0100007F08145B
S1130420224100007F4040404000007F020C027FD8
S113043000007F0408107F00003E4141413E00005F
S11304407F0909090600003E4151215E00007F0931
S113045019294600004649494931000001017F013C
S11304600100003F4040403F00001F2040201F008B
S1130470003F4038403F0000631408146300000745
S113048008700807000061514945430000007F419E
S113049041000000020408102000000041417F00D8
S11304A000000402010204000040404040400000FB
S11304B000010204000000205454547800007F48D6
S11304C0444438000038444444200000384444483C
S11304D07F000038545454180000087E09010200BB
S11304E0000C5252523E00007F08040478000000C1
S11304F0447D400000002040443D0000007F10285F
S11305004400000000417F400000007C041804788F
S113051000007C0804047800003844444438000097
S11305207C141414080000081414187C00007C08BF
S1130530040408000048545454200000043F44407C
S11305402000003C4040207C00001C2040201C0077
S1130550003C4030403C0000442810284400000C7B
S11305605050503C00004464544C44000000083691
S11305704100000000007F00000000004136080038
S1130580000008040810080000FFFFFFFFFF000040
S11305900000E0F0F8F800F8F8F0E00000000000D7
S11305A0FFFFFFFF00FFFFFFFF0000000000070F39
S11305B01F1F001F1F0F070000000000E0100808A5
S11305C000080810E00000000000FF000000000028
S11305D00000FF00000000000708101000101008C1
S11305E0070000004080E010080800080810E080C0
S11305F040000000FF42241800182442FF000000BD
S11306000201070810100010100807010200000082
S11306106050484400444850600000000000060A4E
S113062012220022120A0600000000006070787C8A
S1130630007C7870600000000000060E1E3E003E44
S11306401E0E06000000183C7EE70000000000E7D4
S11306507E3C180000002030381C001C383020007C
S1130660000000002A2A2A2A002A2A2A2A2A00000C
S11306700000000000030000183C7EE7000000E7D3
S11306807E3C1800007C1211127C00007F4949490D
S11306903100007F4949493600007F010101010012
S11306A000603F213F6000007F49494941000077D5
S11306B0087F08770000224149493600007F10086E
S11306C0047F00007E1009047E00007F081422418C
S11306D00000403E01017F00007F020C027F000009
S11306E07F0808087F00003E4141413E00007F0131
S11306F001017F00007F0909090600003E414141D4
S113070022000001017F01010000074848483F0022
S1130710000E117F110E0000631408146300003FE3
S113072020203F600000070808087F00007F407E0B
S1130730407F00003F203F207F0000017F48483079
S113074000007F4830007F0000007F4848300000F0
S1130750224149493E00007F083E413E00004629AF
S113076019097F0000205454547800003C4A4A4A36
S11307703100007C5454280000007C04040C000068
S113078000603C243C600000385454541800006C51
S1130790107C106C0000004454542800007C20108D
S11307A0087C00007C2112097C00007C1028440095
S11307B00000403804047C00007C0810087C000021
S11307C07C1010107C0000384444443800007C0441
S11307D004047C00007C14141408000038444444CD
S11307E000000004047C040400000C5050503C0041
S11307F00008147C14080000442810284400003C1D
S113080020203C6000000C1010107C00007C407C18
S1130810407C00003C203C207C0000047C505020A4
S113082000007C5020007C0000007C505020000020
S1130830284454543800007C10384438000048548C
S113084034147C000000C91611241FBECFEFD8E079
S1130850DEBFCDBF12E0A0E0B1E0EEE6F8E402C0F6
S113086005900D92A839B107D9F728E0A8E9B2E0BC
S113087001C01D92AA37B207E1F714E0C4E2D4E044
S113088004C02197FE010E94E223C332D107C9F7B5
S11308900E94A6160C9435240C9400000895CF935E
S11308A0DF93FC01DC01AE56BF4F1C9211961C92E3
S11308B089E090E0938382831186108611821082EE
S11308C021E0258792E0968786E6838745E0448782
S11308D08287238B148A218B34E0328B84E6808BCD
S11308E035A346A323A334A382A333A753E054A779
S11308F011A642A765E660A7478F50A3958F568F30
S1130900848F118E928F978B508F868B87E681AB65
S113091032AB17A620AB36A786AB78E077AB14AA28
S113092095AB73AB83AF6CE064AF21AF52AF60AFF4
S1130930A355B1098C9311968C9396AF57AF85AF9D
S113094014961C92119658E65C9313973C93119657
S11309504C9312975C9318961C92EF01C55BDF4F82
S1130960A9E6A88323973883219656E058832297D3
S1130970A883DF01A15BBF4F1C922996AAE6A88336
S113098023974883219637E038832297A883DF0191
S1130990AC5ABF4F1C9211968C9313975C9311968B
S11309A03C9312978C9318962C9311964BE64C9388
S11309B013977C93119639E03C9312974C931896B5
S11309C02C9311965CE65C9313977C9311964AE002
S11309D04C9312975C9318962C9311965DE65C9356
S11309E013973C9311963BE03C9312975C931896B3
S11309F02C9311968C9313974C9311963C931297C6
S1130A008C9318969C9311962EE62C9313976C93C3
S1130A1011963DE03C9312972C9318969C93119653
S1130A204FE64C9313976C9311962EE02C931297E8
S1130A304C9318969C93119640E74C9313973C93D0
S1130A4011963FE03C9312974C9318969C93119601
S1130A5041E74C9313972C93119620E12C93129712
S1130A604C9318969C9311968C9313973C931196E0
S1130A702C93E258FF4F8083DF91CF910895FC01BE
S1130A80DC01AE56BF4F81E08C9380859185853023
S1130A90910549F08630910571F0049799F4139605
S1130AA01D921C920FC081E090E0DF01AB56BF4F56
S1130AB08D939C9307C082E090E0DF01AB56BF4F5B
S1130AC08D939C9311821082118610860895FC01E7
S1130AD0DC01AD56BF4F81E08C93808591858930D0
S1130AE0910549F08A30910571F0089799F41296AE
S1130AF01D921C920FC081E090E0DF01AB56BF4F06
S1130B008D939C9307C082E090E0DF01AB56BF4F0A
S1130B108D939C9382E090E091838083118610866C
S1130B2008950F931F93CF93DF93EC018B01CA01B8
S1130B300E94041164E670E0C8010E949F1E8F3F6A
S1130B402FEF920709F46EC028853985A901440F57
S1130B50551F440F551F240F351F2C0F3D1FF9013E
S1130B60E80FF91F26A5822F90E0FC01E756F10952
S1130B70EB30F10508F050C0EC5CFF4F0C94E2231D
S1130B80198218821986188681E04DC0CE010E9410
S1130B903F0581E048C0CE010E943F0581E043C08B
S1130BA0CE010E943F0581E03EC0CE010E94670550
S1130BB081E039C0CE010E94670581E034C0CE01D6
S1130BC00E94670581E02FC083E090E099838883C9
S1130BD081E190E09987888781E025C084E090E0F6
S1130BE09983888383E190E09987888781E01BC09B
S1130BF085E090E09983888386E190E099878887EF
S1130C0081E011C086E090E0998388838DE190E0D3
S1130C109987888781E007C0822F90E09987888729
S1130C2081E001C080E0DF91CF911F910F91089581
S1130C30FC01808591858230910571F01CF4019747
S1130C4039F008958330910561F0049781F0089597
S1130C50CB010E942D210895CB018B960E942D215A
S1130C600895CB018A5A9F4F0E942D210895CB01EC
S1130C708F579F4F0E942D210895EF92FF920F935B
S1130C801F93CF93DF93EC017B018A01CA010E9479
S1130C90041164E670E0C7010E949F1E8F3F2FEF8E
S1130CA0920781F128853985A901440F551F240F26
S1130CB0351F220F331F2C0F3D1FF901E80FF91FB9
S1130CC08285853651F0863689F08436B1F4B801D0
S1130CD0CE010E94180681E016C082E090E099835C
S1130CE08883C8010E94E80B81E00DC081E090E098
S1130CF0998388831986188606C090E09987888727
S1130D0081E001C080E0DF91CF911F910F91FF90AE
S1130D10EF900895CF92DF92EF92FF920F931F937B
S1130D20CF93DF93EC01CB018A0164E670E00E946B
S1130D309F1E8F3F2FEF920729F41C821D821E8273
S1130D401F82AFC0288539852231310581F400978F
S1130D5009F0AEC081E090E0998388838CE090E054
S1130D6099878887CC56DF4F81E088839AC0823088
S1130D70910509F453C024F4019709F454C057C0F1
S1130D808330910519F0049731F151C078018EEA4E
S1130D90E80EF11C2AE037ED43E25CE36C817D81CF
S1130DA08E819F810E9491219B01AC01F70160819A
S1130DB07181828193810E949021F7016083718304
S1130DC0828393838CEE91E5A8EBBDE38C839D83B2
S1130DD0AE83BF832CC07801FEEAEF0EF11C2AE03B
S1130DE037ED43E25CE36C817D818E819F810E94BB
S1130DF09121F70120813181428153810E94912107
S1130E00F70160837183828393838CEE91E5A8EB71
S1130E10BDE38C839D83AE83BF8309C02F5F3F4FA7
S1130E203987288704C02150310939872887888564
S1130E3099854297C4F581E190E099878887F80104
S1130E40E255FF4FC080D180E280F38020E030E0A3
S1130E50A901C701B6010E94FD21181664F0F8012A
S1130E60E255FF4F8AE097EDA3E2BCE380839183D0
S1130E70A283B38315C020E030E040E450E4C7010E
S1130E80B6010E945C2388235CF0F801E255FF4F11
S1130E9080E090E0A0E4B0E480839183A283B383F4
S1130EA018C080E016C082E190E099878887C7CF98
S1130EB08230910509F4B2CF24F4019709F4B3CF39
S1130EC0F2CF8330910509F461CF049709F483CFFD
S1130ED0EACFDF91CF911F910F91FF90EF90DF90B8
S1130EE0CF900895CF92DF92EF92FF920F931F93CA
S1130EF0CF93DF93EC01CB018A0164E670E00E949A
S1130F009F1E8F3F2FEF920729F41C821D821E82A1
S1130F101F8230C1288539852531310581F4009738
S1130F2009F02AC181E090E0998388838DE090E004
S1130F3099878887CC56DF4F81E088831BC1823034
S1130F40910509F492C024F4019709F493C096C062
S1130F508330910521F0049709F446C08FC02331F2
S1130F603105E9F4780182EBE80EF11C2AE037ED53
S1130F7043E25CE36C817D818E819F810E9491219B
S1130F809B01AC01F70160817181828193810E9490
S1130F909021F70160837183828393831CC078015D
S1130FA0F6EBEF0EF11C2AE037ED43E25CE36C81D3
S1130FB07D818E819F810E9491219B01AC01F7016B
S1130FC060817181828193810E949021F701608305
S1130FD07183828393838CEE91E5A8EBBDE38C83CC
S1130FE09D83AE83BF834AC023313105D9F4780190
S1130FF0F2EBEF0EF11C2AE037ED43E25CE36C8187
S11310007D818E819F810E949121F7012081318110
S1131010428153810E949121F7016083718382830D
S113102093831AC07801F6EBEF0EF11C2AE037ED3A
S113103043E25CE36C817D818E819F810E949121DA
S1131040F70120813181428153810E949121F7016E
S113105060837183828393838CEE91E5A8EBBDE377
S11310608C839D83AE83BF8309C02F5F3F4F398735
S1131070288704C0215031093987288788859985B4
S113108044972CF483E190E09987888708C0888589
S11310909985459724F085E190E09987888720E039
S11310A030E0A901F801EE54FF4F60817181828123
S11310B093810E94FD2118163CF0F801EE54FF4F75
S11310C0108211821282138220E030E040EA50E460
S11310D0F801EA54FF4F60817181828193810E94FB
S11310E05C2388235CF080E090E0A0EAB0E4F8019F
S11310F0EA54FF4F80839183A283B38388859985C3
S11311008331910519F04497D9F033C0F801EA54BA
S1131110FF4FC080D180E280F380A701960134970D
S113112060817181828193810E945C2388230CF108
S1131130F801EE54FF4FC082D182E282F38219C0DB
S1131140F801EE54FF4FC080D180E280F380A70104
S11311509601349660817181828193810E94FD2180
S113116018163CF0F801EA54FF4FC082D182E282A3
S1131170F38213C080E011C08230910509F475CF69
S113118024F4019709F476CF82CF8330910509F4D2
S1131190E6CE049709F428CF7ACFDF91CF911F913F
S11311A00F91FF90EF90DF90CF900895CF92DF9250
S11311B0EF92FF920F931F93CF93DF93EC01CB0138
S11311C08A0164E670E00E949F1E8F3F2FEF920712
S11311D029F41C821D821E821F82E5C08130910584
S11311E051F08230910569F4288539852F5F3F4F8E
S11311F03987288706C028853985215031093987E0
S1131200288728853985273131052CF426E130E0FB
S11312103987288718C0283131052CF028E130E0BF
S11312203987288769C0288539852731310559F4DC
S1131230009749F4C8010E947111888599854897DF
S113124009F07EC063C0288539852631310509F04F
S113125053C08330910521F08430910531F14CC0A5
S113126078018AEBE80EF11C20E030E040E85FE30F
S11312706C817D818E819F810E9491219B01AC01B3
S1131280F70160817181828193810E949021F7012D
S1131290608371838283938380E090E0A0E1B1E472
S11312A08C839D83AE83BF834BC07801FAEBEF0E32
S11312B0F11C20E030E040E85FE36C817D818E81A9
S11312C09F810E949121F7012081318142815381C4
S11312D00E949121F701608371838283938380E06C
S11312E090E0A0E1B1E48C839D83AE83BF838885C5
S11312F09985489729F517C02885398528313105FE
S1131300F9F4009719F00497D9F40DC081E090E046
S1131310998388838EE090E099878887CC56DF4F45
S113132081E0888340C081E090E0998388838EE0E7
S113133090E099878887CC56DF4F81E0888333C05B
S1131340F801E654FF4FC080D180E280F38020E0B2
S113135030E040EA50E4C701B6010E94FD211816AE
S113136064F0F801E654FF4F80E090E0A0EAB0E4B6
S113137080839183A283B38315C020E030EC49E7D6
S113138054E4C701B6010E945C2388235CF0F80191
S1131390E654FF4F80E090ECA9E7B4E480839183A6
S11313A0A283B38301C080E0DF91CF911F910F919D
S11313B0FF90EF90DF90CF9008950F931F93CF93FA
S11313C0DF93EC01CB018A0164E670E00E949F1E6A
S11313D08F3F2FEF920709F487C0009741F4888567
S11313E099854D97C9F4C8010E9479117DC0843054
S11313F0910549F4888599854D97D9F48EE190E05B
S11314009987888771C082309105C1F48885998550
S11314104D9709F04DC068C0888599854E97A9F508
S113142081E090E0998388838FE090E099878887B2
S11314305BC0888599854E97B1F556C08330910578
S113144049F4888599854E9729F58DE190E099872F
S113145088874AC08130910549F4888599854E97DB
S113146069F58CE190E0998788873EC082309105C8
S1131470F9F02CF4009749F0019701F124C083306E
S1131480910541F00497F9F40EC087E090E0998348
S1131490888319C081E090E0998388838FE090E08D
S11314A09987888721C087E090E0998388830BC05F
S11314B08885998501969987888705C08885998547
S11314C0019799878887888599858A3191052CF4B5
S11314D089E190E09987888706C04E9724F08EE1D1
S11314E090E09987888701C080E0DF91CF911F91B8
S11314F00F910895CF93DF93EC01CB0164E670E084
S11315000E949F1E019611F480E004C086E090E0E2
S113151099838883DF91CF910895DC011296ED9130
S1131520FC911397EE0FFF1FEE0FFF1FE054FF4FC8
S1131530659175918591949108950F931F93CF931D
S1131540DF93EC01CB018A0164E670E00E949F1EE8
S11315508F3F2FEF920711F480E03DC08230910558
S1131560C1F02CF4009749F0019751F026C0833064
S11315709105C1F00497E1F020C0198218821DC0C2
S1131580CE010E948D0AAB01BC01C8010E94B210B9
S113159014C0CE010E948D0AAB01BC01C8010E9497
S11315A0DB100BC08A819B8101979B838A8305C0D2
S11315B08A819B8101969B838A838A819B811816E9
S11315C019061CF01B821A8206C0439724F083E19B
S11315D090E09B838A83DF91CF911F910F910895AF
S11315E0DC01ED91FC91E830F105D8F4E15CFF4FAA
S11315F00C94E2230E943D0608950E9491050895EB
S11316000E949D0A08950E948A0608950E94720706
S113161008950E94D60808950E94DD0908950E9445
S11316207A0A08950895FC0160834183528384EF0C
S113163091E0968385836334A1F0643411F16234BC
S113164079F524B181E090E002C0880F991F4A9592
S1131650E2F7982F9095922394B995B1892B85B987
S1131660089527B181E090E002C0880F991F4A9540
S1131670E2F7982F9095922397B998B1892B88B95E
S113168008952AB181E090E002C0880F991F4A951D
S1131690E2F7982F909592239AB99BB1892B8BB935
S11316A00895FC01772374F18081833479F08434C4
S11316B0B9F0823409F06AC083B190E0018002C0BD
S11316C0959587950A94E2F7817013C086B190E0EE
S11316D0018002C0959587950A94E2F7817009C04C
S11316E089B190E0018002C0959587950A94E2F74C
S11316F08170882309F44EC084EF91E0968385833A
S113170080E0089514821382858196811816190643
S113171034F036C025813681821793078CF5808199
S1131720833471F08434B1F0823491F523B130E024
S1131730018002C0359527950A94E2F7217013C001
S113174026B130E0018002C0359527950A94E2F76E
S1131750217009C029B130E0018002C03595279578
S11317600A94E2F7217089EF90E00197F1F700C045
S1131770000083819481019694838383222351F210
S113178084E690E09683858381E0089580E008955F
S113179080E0089514821382B7CFCF93DF93EC01D6
S11317A00E94CD1FCE018B960E94CD1FCE018A5A76
S11317B09F4F0E94CD1FCE018F579F4F0E94CD1F78
S11317C0CE0184559F4F0E94661FDF91CF910895EB
S11317D0CF93DF93EC010E940B20CE018B960E94E5
S11317E00B20CE018A5A9F4F0E940B20CE018F57A7
S11317F09F4F0E940B20DF91CF910895CF93DF93E9
S1131800FC01DC01AA54BF4F8D919D910D90BC91B8
S1131810A02D86839783A087B18781AB92ABA3ABBE
S1131820B4ABEF01C45ADF4F88839983AA83BB8387
S1131830AB9688839983AA83BB83DF01AE54BF4FE1
S11318408D919D910D90BC91A02D82879387A48743
S1131850B58785AB96ABA7ABB0AFA79788839983C1
S1131860AA83BB83E557FF4F80839183A283B3830D
S1131870DF91CF910895CF93DF93EC010E94D220A2
S1131880CE018B960E94D220CE018A5A9F4F0E948D
S1131890D220CE018F579F4F0E94D220DF91CF914B
S11318A008954F925F926F927F928F929F92AF9220
S11318B0BF92CF92DF92EF92FF920F931F93CF9339
S11318C0DF93EC010E94D11F4E018BE2880E911C24
S11318D0C4010E94D11F5E0196E5A90EB11CC50189
S11318E00E94D11F6E01E1E8CE0ED11CC6010E94F8
S11318F0D11F3E01FCEA6F0E711CEE24E394F12C1F
S113190001E010E021E030E041E050E06AE070E006
S1131910C3010E946C1FCE010E9495202E019EECF3
S1131920490E511C90E0F20191838083C4010E940E
S11319309520FE01E053FF4F90E091838083C50121
S11319400E949520FE01EE52FF4F90E09183808328
S1131950C6010E949520FE01EC52FF4F90E0918356
S113196080836894EE24E1F8F12C02E010E022E098
S113197030E042E050E06AE070E0C3010E946C1F76
S1131980F20180819181892B99F032968081918135
S1131990892B81F0329680819181892B69F0CC5218
S11319A0DF4F81E028813981232B39F480E005C0A1
S11319B080E003C080E001C080E0DF91CF911F91FF
S11319C00F91FF90EF90DF90CF90BF90AF909F90DA
S11319D08F907F906F905F904F9008950F931F9317
S11319E0CF93DF93EC018BE2FB01DE0101900D92BA
S11319F08A95E1F78BE2FA01DE019B9601900D9244
S1131A008A95E1F7DE01AA5ABF4F8BE2F9010190F2
S1131A100D928A95E1F7DE01AF57BF4F8BE2F801D3
S1131A2001900D928A95E1F7CE0184559F4F0E9453
S1131A30671FFE01E852FF4F81E090E091838083AD
S1131A40CE010E94510CDF91CF911F910F91089507
S1131A50CF93DF93FC01E154FF4FDC0192962D916B
S1131A603C91939731832083AF53BF4FEC01C35B09
S1131A70DF4F2881398111963C932E931296AB96B1
S1131A802881398111963C932E931296AB96288126
S1131A9039812D933C93DF01AC0149535F4F619130
S1131AA071911616170624F0E417F507C1F727C03D
S1131AB06115710539F12D913D911216130624F427
S1131AC0261737070CF4B901A417B507A1F7633338
S1131AD0710514F062E370E0EC01072E000C880B32
S1131AE0990B0E94AC22C255DF4F288139814A816B
S1131AF05B810E9461230E947422CB0105C080E0B7
S1131B0090E002C080E090E0DF91CF910895CF9201
S1131B10DF92EF92FF920F931F93CF93DF93CDB792
S1131B20DEB78B859C858230910571F01CF401979A
S1131B3039F01DC08330910571F00497A1F017C0EE
S1131B40CC24C394D12C13C0CC24C3940F2EFBE01B
S1131B50DF2EF02D0CC06894CC24C2F80F2EFBE0CD
S1131B60DF2EF02D04C06894CC24C2F8D12CCE0111
S1131B700B960E94D11F8B019C016894EE24E1F81E
S1131B80F12C41E06C2D8D2D0E947D140E94731266
S1131B90DF91CF911F910F91FF90EF90DF90CF9045
S1131BA008954F925F926F927F928F929F92AF921D
S1131BB0BF92CF92DF92EF92FF920F931F93CF9336
S1131BC0DF93EC010E941B206E0198ECC90ED11C1E
S1131BD0F60180838DB79EB78B970FB6F8949EBF9E
S1131BE00FBE8DBFADB7BEB711968BE2FE0101905B
S1131BF00D928A95E1F7CE010E94870D5E019BE26A
S1131C00A90EB11CEDB7FEB7BB960FB6F894FEBF94
S1131C100FBEEDBFC5010E941B204E01F9EC8F0ED3
S1131C20911CF40180838DB79EB78B970FB6F894FF
S1131C309EBF0FBE8DBFADB7BEB711968BE2F50147
S1131C4001900D928A95E1F7CE010E94870D3E0125
S1131C5096E5690E711CEDB7FEB7BB960FB6F89406
S1131C60FEBF0FBEEDBFC3010E941B208E010653B1
S1131C701F4FF80180838DB79EB78B970FB6F894EA
S1131C809EBF0FBE8DBFADB7BEB711968BE2F301F9
S1131C9001900D928A95E1F7CE010E94870D2E01E5
S1131CA091E8490E511CEDB7FEB7BB960FB6F894F8
S1131CB0FEBF0FBEEDBFC2010E941B207E01FBECE4
S1131CC0EF0EF11CF70180838DB79EB78B970FB68B
S1131CD0F8949EBF0FBE8DBFADB7BEB711968BE211
S1131CE0F20101900D928A95E1F7CE010E94870DD1
S1131CF0EDB7FEB7BB960FB6F894FEBF0FBEEDBFAF
S1131D00F701E080F12CF801008110E0F40120815A
S1131D1030E0F601408150E06AE070E0CE01845585
S1131D209F4F0E946C1FF6018081882351F0CE01E1
S1131D300E949520FE01E253FF4F90E0918380833F
S1131D4007C081E090E0FE01E253FF4F918380835E
S1131D50FE01E753FF4F8081882351F0C5010E94A3
S1131D609520FE01E053FF4F90E09183808307C0EC
S1131D7081E090E0FE01E053FF4F91838083FE01F8
S1131D80E653FF4F8081882351F0C3010E949520C0
S1131D90FE01EE52FF4F90E09183808307C081E003
S1131DA090E0FE01EE52FF4F91838083FE01E553E4
S1131DB0FF4F8081882351F0C2010E949520FE01CB
S1131DC0EC52FF4F90E09183808307C081E090E064
S1131DD0FE01EC52FF4F91838083FE01E253FF4FDB
S1131DE080819181892B99F0329680819181892B10
S1131DF081F0329680819181892B69F0CC52DF4F3A
S1131E0081E028813981232B39F480E005C080E00A
S1131E1003C080E001C080E0DF91CF911F910F915A
S1131E20FF90EF90DF90CF90BF90AF909F908F90F6
S1131E307F906F905F904F9008952F923F924F92B2
S1131E405F926F927F928F929F92AF92BF92CF9246
S1131E50DF92EF92FF920F931F93CF93DF93CDB74F
S1131E60DEB72E970FB6F894DEBF0FBECDBF9E87A8
S1131E708D870E943B0CED85FE85EA52FF4F81E081
S1131E8090E0918380838D859E850E94D10D882367
S1131E9009F44FC1ED85FE85EA52FF4F808191819F
S1131EA0181619060CF045C1812C912C6D847E8482
S1131EB088EC680E711CED85FE85BB96FA83E98378
S1131EC04D845E84F9EC4F0E511C8D859E858A5A93
S1131ED09F4F9C838B832D843E849AEC290E311C66
S1131EE0ED85FE85EF57FF4FFE83ED838D859E853F
S1131EF085539F4F98878F83ED85FE85EA52FF4F68
S1131F00FA87E9878D859E8584559F4F9C878B87AB
S1131F1005C0F8EC8F16910409F4B9C08D859E852F
S1131F200E941B20F30180838DB79EB78B970FB659
S1131F30F8949EBF0FBE8DBFADB7BEB711968BE2AE
S1131F40ED85FE8501900D928A95E1F78D859E853C
S1131F500E94870D0FB6F894DEBF0FBECDBF8981F6
S1131F609A810E941B20F20180838DB79EB78B97C4
S1131F700FB6F8949EBF0FBE8DBFADB7BEB7119616
S1131F808BE2E981FA8101900D928A95E1F78D85C2
S1131F909E850E94870D0FB6F894DEBF0FBECDBF9D
S1131FA08B819C810E941B20F10180838DB79EB799
S1131FB08B970FB6F8949EBF0FBE8DBFADB7BEB75B
S1131FC011968BE2EB81FC8101900D928A95E1F7E9
S1131FD08D859E850E94870D0FB6F894DEBF0FBED7
S1131FE0CDBF8D819E810E941B20EF81F885808367
S1131FF08DB79EB78B970FB6F8949EBF0FBE8DBF5B
S1132000ADB7BEB711968BE2ED81FE8101900D92C2
S11320108A95E1F78D859E850E94870DF301A08046
S1132020B12CF201C080D12CF101008110E0EF81CC
S1132030F885E080F12CC5018C0D9D1D800F911F4A
S11320408E0D9F1DE985FA85918380830FB6F894E0
S1132050DEBF0FBECDBF8D859E850E94280D9601E3
S1132060A501BC018B859C850E946C1F9FEF891A7A
S1132070990AE985FA8580819181181619060CF46C
S113208048CF94E6891691040CF453C000C0ED8542
S1132090FE85E853FF4F8081882341F081E0ED8580
S11320A0FE85838F82E090E0978F868FED85FE8595
S11320B0E753FF4F8081882371F081E0ED85FE8531
S11320C0EA5BFF4F808382E090E0ED85FE85E75B6D
S11320D0FF4F91838083ED85FE85E653FF4F80811A
S11320E0882371F081E0ED85FE85EF58FF4F8083F2
S11320F082E090E0ED85FE85EC58FF4F918380836C
S1132100ED85FE85E553FF4F8081882391F0ED85B1
S1132110FE85E456FF4F81E080838D859E85815640
S11321209F4F9A83898382E090E0E981FA819183C9
S113213080832E960FB6F894DEBF0FBECDBFDF911D
S1132140CF911F910F91FF90EF90DF90CF90BF90B0
S1132150AF909F908F907F906F905F904F903F9043
S11321602F900895CF92DF92EF92FF92CF93DF9357
S1132170EC016A017B010E943321B701A601CE0163
S11321808B960E943321B701A601CE018A5A9F4F34
S11321900E943321B701A601CE018F579F4F0E94A1
S11321A03321CE010E941D0FDF91CF91FF90EF905C
S11321B0DF90CF900895CF92DF92EF92FF92CF936A
S11321C0DF93EC016A017B010E946121B701A60142
S11321D0CE018B960E946121B701A601CE018A5AD5
S11321E09F4F0E946121B701A601CE018F579F4FD7
S11321F00E946121CE010E941D0FDF91CF91FF90BB
S1132200EF90DF90CF900895AF92BF92CF92DF927C
S1132210EF92FF920F931F93CF93DF93FC01E2544D
S1132220FF4F2081222309F451C0EC010E940421B4
S11322306E018BE2C80ED11CC6010E9404217E01EE
S1132240E6E5EE0EF11CC7010E9404218E010F5732
S11322501F4FC8010E940421FE01E85BFF4F9D8DC2
S11322608081892BBB969081892B21F4BB96808138
S1132270882361F15E01FAEBAF0EB11CF5016081B8
S11322807181828193810E947422CE010E94BC20BC
S1132290F50160817181828193810E947422C6015B
S11322A00E94BC20F50160817181828193810E942A
S11322B07422C7010E94BC20F50160817181828172
S11322C093810E947422C8010E94BC20DF91CF91A7
S11322D01F910F91FF90EF90DF90CF90BF90AF9040
S11322E00895FC01E254FF4F808191E09827908388
S11322F00895FC01138E178E168EEA5BFF4F108231
S1132300339611821082B89610823396118210820D
S1132310B8961082339611821082089521E0FC0150
S1132320228FEB5BFF4F2083BB962083BB962083D9
S11323300895FC01128EEB5BFF4F1082BB96108256
S1132340BB96108208952A98613011F4299A01C02D
S113235029988EBD0DB407FEFDCF2A9A0895CF9219
S1132360DF92EF92FF920F931F93CF93DF936B0152
S11323707C01EA01CA010197209781F061E070E0D5
S11323809B01220F331F660F771F660F771F660F9F
S1132390771F620F731F019798F702C061E070E026
S11323A0072E000C880B990B0E94AC22A701960102
S11323B00E9461230E947422AB01BC01CA019923CB
S11323C01CF021E030E002C02FEF3FEF249FC0015A
S11323D0259F900D349F900D112407EA12E00F2ED3
S11323E0FAE0EF2EF12CF02D0F2EFEE2DF2EF02D71
S11323F002C08F01EA01F801B7010E94CE23805D7B
S11324008293862F972FAE014150510919F4F80198
S11324103297D082009769F714161506D4F4BE01DA
S113242062507109DF0140E32197CE1BDF0B4E930D
S1132430CD018C0F9D1F18161906CCF3CB019923DF
S113244014F480E090E080959095E80FF91F8EE2F7
S1132450829380818E3211F480E38293332314F4C7
S11324608DE28293CF01DF91CF911F910F91FF9065
S1132470EF90DF90CF9008952C9A84B18E6384B945
S11324802C982C9A80E58CBD2A9A60E081E20E9407
S1132490A31160E088EC0E94A31160E086E00E9432
S11324A0A31160E083E10E94A31160E080E20E9436
S11324B0A31160E08CE00E94A311089588EF91E0DD
S11324C0EEEAF2E0DF019C011D9221503040E1F779
S11324D01092AD021092AC0287EF91E09093AB02A0
S11324E08093AA020895EF92FF920F931F93CF93C4
S11324F0DF938091AC029091AD0299232CF4109259
S1132500AD021092AC0209C0883F914034F087EFCD
S113251091E09093AD028093AC028091AA029091D5
S1132520AB0299232CF41092AB021092AA0209C0B8
S1132530883F914034F087EF91E09093AB02809311
S1132540AA02C091AC02D091AD02CE0164E570E064
S11325500E94CE23162F60E080680E94A31160E0E1
S1132560812F80640E94A311E090AA02F090AB0234
S1132570EC16FD066CF08E0102551D4F61E0F8016A
S113258081918F010E94A3112196EC16FD06B4F7E8
S113259087EF91E09093AD028093AC021092AB026E
S11325A01092AA02DF91CF911F910F91FF90EF90AB
S11325B008958E30A8F46630A8F490E09C01220FB0
S11325C0331F820F931F880F991F24E5629F800D8C
S11325D0911D11249093A9028093A80280E008958C
S11325E081E0089581E008954091A8025091A902E4
S11325F0805297E0899FF0011124E051FD4FDA01E8
S1132600A255BD4F9A012C543D4F84918D93319620
S1132610A217B307D1F74A5F5F4F5093A9024093C3
S1132620A80280E008954091A8025091A90290E088
S1132630FC01EE0FFF1FE80FF91FEE0FFF1FEE0F57
S1132640FF1FEE0FFF1FE05FFE4FDA01A255BD4FE3
S11326509A012A533D4F84918D933196A217B30763
S1132660D1F7485E5F4F5093A9024093A80280E0DF
S113267008950F931F93CF93DF934091A802509135
S1132680A9022091AC023091AD024217530724F401
S11326905093AD024093AC02E0EEE60FE03A08F44A
S11326A0A0C0603C08F49CC0E3ECE60F9AC084919F
S11326B0880F8D933196A217B307C9F74B5F5F4F0D
S11326C05093A9024093A80265C0823009F062C009
S11326D0CA01845591092091AC023091AD02821750
S11326E093070CF08EC09093AD028093AC0289C026
S11326F02491220F822F8270982F990F890F982F7F
S1132700990F822F8470382F330F830F880F880F0F
S1132710892B022F0870019F002D1124082B30E013
S1132720359527953595279535952795359527958D
S1132730822F8270382F330F830F880F322F31701E
S1132740932F990F390F832B922F9470392F330FB6
S1132750930F990F990F892B922F9870919F902D19
S11327601124282F292B088309832C9311962C9349
S11327701197319622961296A617B70709F0B8CF8B
S1132780CA010B9668EF71E00E94CE239093A902D0
S11327908093A8028091A8029091A9022091AA0294
S11327A03091AB022817390724F49093AB0280933D
S11327B0AA02FC01E255FD4F1082873F21E09207F7
S11327C031F41092A9021092A80282E02DC0019661
S11327D09093A9028093A80280E026C081E024C0DF
S11327E0EFE5813009F071CF87E0E89FF001112413
S11327F0E051FD4FDA01A255BD4F9A012D543D4FD2
S113280056CF99235CF327E0E29FF0011124E051B5
S1132810FD4FEA01C65ADD4FDA01A255BD4FBA0198
S113282068547D4F18E164CFDF91CF911F910F91D0
S113283008950F931F93CF93DF93D42F89010E94A0
S1132840D912F8016081662379F0C0E08D2F0E94CF
S11328503913813041F0CF5FF801EC0FF11D608135
S11328606111F4CF01C061E0862FDF91CF911F91F8
S11328700F910895FF920F931F93CF93DF93F42E3C
S113288089010E94D912F8016081662391F0C0E0A9
S11328906E3221F08F2D0E943913D82FD13041F0A0
S11328A0CF5FF801EC0FF11D60816111F1CF01C020
S11328B061E0862FDF91CF911F910F91FF900895D2
S11328C0DF92EF92FF920F931F93CF93DF93C82F62
S11328D0D62FD42EA701C901B8010E94AF119C01C3
S11328E04D2D6D2F8C2F0E941914DF91CF911F91C4
S11328F00F91FF90EF90DF900895DF92EF92FF9297
S11329000F931F93CF93DF93C82FD62FD42EA701F5
S1132910C901B8010E94AF119C014D2D6D2F8C2F60
S11329200E943A14DF91CF911F910F91FF90EF9085
S1132930DF900895CF92DF92EF92FF920F931F934F
S113294042E050E064E483E798E00E94130B43E024
S113295050E064E48CE698E00E94130B44E050E0FD
S113296064E485E698E00E94130B45E050E064E4DB
S11329708EE598E00E94130B46E050E064E487E59E
S113298098E00E94130B0F2EF7E5EF2EF8E0FF2ED0
S1132990F02D0EE518E025E638E04CE658E063E754
S11329A078E08EEA96E00E946A1E0E943C1261E082
S11329B070E08CE298E00E94E01F62E070E081E049
S11329C098E00E94E01F63E070E086ED97E00E94CB
S11329D0E01F64E070E08BEA97E00E94E01F0BEADE
S11329E017E026ED37E041E058E06CE278E081ED55
S11329F096E00E94EE0C86EA94E00E944F0441EDBA
S1132A0056E066EA74E08DE395E00E94101E89E4C6
S1132A1090E00E9404246B017C0120E030E0A901D5
S1132A200E945C23181694F020E030E040E450E467
S1132A30C701B6010E94FD21882344F040E050E024
S1132A4060E87FE389E490E00E94182489E490E040
S1132A500E94042460937F0770938007809381070A
S1132A609093820785E490E00E9404246B017C012A
S1132A7020E030E0A9010E945C2388238CF420E04C
S1132A8030E040EA50E4C701B6010E94FD21181667
S1132A903CF440E050E0BA0185E490E00E94182440
S1132AA085E490E00E940424609383077093840774
S1132AB0809385079093860781E490E00E94042424
S1132AC06B017C0120E030E0A9010E945C23882393
S1132AD094F420E030E040EA50E4C701B6010E94DB
S1132AE0FD21181644F440E050E060EA70E481E40B
S1132AF090E00E94182481E490E00E9404246093F2
S1132B008707709388078093890790938A0781EDDC
S1132B1096E00E94FE0B8CE390E00E9404246B017B
S1132B207C0120E030E0A9010E945C238823BCF4EE
S1132B3020E030EC49E754E4C701B6010E94FD21CE
S1132B4018166CF440E050E068E472E48CE390E022
S1132B500E94182461E080E490E00E940A248CE33F
S1132B6090E00E94042460938B0770938C078093F9
S1132B708D0790938E0780E490E00E94FC2391E0FF
S1132B80811101C090E090938F071F910F91FF90E6
S1132B90EF90DF90CF9008958823D1F140917F0783
S1132BA050918007609181077091820789E490E0D9
S1132BB00E941824409183075091840760918507EF
S1132BC07091860785E490E00E941824409187075D
S1132BD0509188076091890770918A0781E490E099
S1132BE00E94182481ED96E00E94FE0B40918B0711
S1132BF050918C0760918D0770918E078CE390E063
S1132C000E94182460918F0780E490E00E940A24B7
S1132C1008950F931F93CF93DF93209138052223B8
S1132C2099F1EC0181ED96E00E94D11FAB01BC014A
S1132C3084E18C9F80018D9F100D1124C8018C5F4D
S1132C409F4F0E9418248CEF96E00E94D11FAB0185
S1132C50BC01C801885F9F4F0E94182487E297E057
S1132C600E94D11FAB01BC01C801845F9F4F0E9429
S1132C70182482E597E00E94D11FAB01BC01C80172
S1132C80805F9F4F0E94182410923805DF91CF91E6
S1132C901F910F9108950F931F93CF93DF9320916A
S1132CA03905222309F44BC0EC0181ED96E00E9422
S1132CB08E1184E18C9F80018D9F100D1124C80119
S1132CC08C5F9F4F0E9404246093E7067093E8068C
S1132CD08093E9069093EA06C801885F9F4F0E949B
S1132CE0042460931207709313078093140790933E
S1132CF01507C801845F9F4F0E94042460933D0719
S1132D0070933E0780933F0790934007C801805F0C
S1132D109F4F0E940424609368077093690780930F
S1132D206A0790936B0781ED96E00E941D0F109245
S1132D30A7041092A60481ED96E00E9499111092C6
S1132D403905DF91CF911F910F9108950E949A1434
S1132D50CBE3D5E00AE315E041ED56E06EEA76E018
S1132D6086EA94E00E94F00A41ED56E066EA74E0D7
S1132D708DE395E00E94101E888199810E940916B6
S1132D80888199810E944B16F80180810E94CC159C
S1132D90E3CF83E798E00E94120B8CE698E00E9450
S1132DA0120B85E698E00E94120B8EE598E00E94D3
S1132DB0120B87E598E00E94120B8CE298E00E94C7
S1132DC0CD1F81E098E00E94CD1F86ED97E00E9420
S1132DD0CD1F8BEA97E00E94CD1F81ED96E00E9403
S1132DE0CD0B8EEA96E00E94521E8DE395E00E9480
S1132DF0FE1686EA94E00E944E040895CF93DF9372
S1132E00EC010E944E04CE0189569F4F0E94CD0BC7
S1132E10DF91CF910895EF92FF920F931F93CF9379
S1132E20DF93EC0120E031E041E060E082E00E94C9
S1132E3019142CE031E041E061E080E00E941914B3
S1132E4029E131E041E062E080E00E941914FE01D2
S1132E50EF5AFE4F20E030E048EC52E4608171818B
S1132E60828193810E9402228B019C016894EE244A
S1132E70E1F8F12C41E062E08AE00E947D1422E254
S1132E8031E041E063E080E00E941914FE01EB5A56
S1132E90FE4F8081813041F02BE231E041E063E07C
S1132EA08AE00E94191407C02FE231E041E063E098
S1132EB08AE00E941914888599858731910531F03B
S1132EC088319105D1F04697F9F408C063E089E0B0
S1132ED00E94D91282EA0E94F41216C062E089E0CC
S1132EE00E94D9128AE90E94F41262E08DE00E94E5
S1132EF0D9128BE90E94F41207C065E081E00E94B8
S1132F00D9128BE90E94F41223E331E041E065E039
S1132F1083E00E941914DF91CF911F910F91FF90CC
S1132F20EF900895CF92DF92EF92FF920F931F9349
S1132F30CF93DF93CDB7DEB7C9A4DAA4C114D1040B
S1132F4041F42DE331E041E062E081E00E94191494
S1132F5039C028E431E041E061E081E00E941914C5
S1132F60B6010D2C000C880B990B0E94AC228B012E
S1132F709C01E12CF12C41E061E089E00E946014A5
S1132F8082E0C816D10479F083E0C816D10499F020
S1132F90CA94CD28B9F421E531E041E062E080E053
S1132FA00E9419140FC025E831E041E062E080E09E
S1132FB00E94191407C02EEA31E041E062E080E08B
S1132FC00E941914DF91CF911F910F91FF90EF9000
S1132FD0DF90CF900895CF93DF93EC018885998596
S1132FE08A31910591F11CF4499749F09FC08B31C6
S1132FF0910509F450C04C9709F473C097C02CEDA7
S113300031E041E060E083E00E941914FE01E956DA
S1133010FF4F8DB79EB78B970FB6F8949EBF0FBE28
S11330208DBFADB7BEB711968BE201900D928A9514
S1133030E1F7CE010E9492178DB79EB78B960FB61B
S1133040F8949EBF0FBE8DBF71C025EE31E041E004
S113305060E083E00E941914FE01EE53FF4F8DB728
S11330609EB78B970FB6F8949EBF0FBE8DBFADB7BA
S1133070BEB711968BE201900D928A95E1F7CE01CD
S11330800E9492178DB79EB78B960FB6F8949EBF89
S11330900FBE8DBF4BC02EEE31E041E060E083E017
S11330A00E941914FE01E351FF4F8DB79EB78B9711
S11330B00FB6F8949EBF0FBE8DBFADB7BEB71196C5
S11330C08BE201900D928A95E1F7CE010E9492174E
S11330D08DB79EB78B960FB6F8949EBF0FBE8DBF6B
S11330E025C027EF31E041E060E083E00E9419143D
S11330F0FE01E85EFE4F8DB79EB78B970FB6F8942E
S11331009EBF0FBE8DBFADB7BEB711968BE20190C7
S11331100D928A95E1F7CE010E9492178DB79EB762
S11331208B960FB6F8949EBF0FBE8DBFDF91CF91E3
S11331300895EF92FF920F931F93CF93DF93EC01C7
S113314020E032E041E060E084E00E94191427E0CE
S113315032E041E061E082E00E94191420E132E0B3
S113316041E062E082E00E94191429E132E041E08A
S113317063E082E00E94191422E232E041E064E05C
S113318082E00E9419142BE232E041E065E082E023
S11331900E94191421E332E041E065E089E00E94D5
S11331A0191427E332E041E061E08BE00E94191436
S11331B027E332E041E062E08BE00E94191427E348
S11331C032E041E063E08BE00E94191427E332E02F
S11331D041E064E08BE00E941914FE01EB54FF4FC0
S11331E08081918118161906DCF42AE332E041E06B
S11331F061E08BE00E941914FE01EB54FF4F6081E3
S11332007181072E000C880B990B0E94AC228B0154
S11332109C01E12CF12C41E061E08CE00E946014FF
S1133220FE01E052FF4F8081918118161906DCF4EB
S11332302AE332E041E062E08BE00E941914FE01CF
S1133240E052FF4F60817181072E000C880B990BAF
S11332500E94AC228B019C01E12CF12C41E062E044
S11332608CE00E946014FE01E55FFE4F8081918135
S113327018161906DCF42AE332E041E063E08BE03F
S11332800E941914FE01E55FFE4F60817181072ED3
S1133290000C880B990B0E94AC228B019C01E12C41
S11332A0F12C41E063E08CE00E946014FE01EA5CD2
S11332B0FE4F8081918118161906DCF42AE332E06E
S11332C041E064E08BE00E941914FE01EA5CFE4FC9
S11332D060817181072E000C880B990B0E94AC222F
S11332E08B019C01E12CF12C41E064E08CE00E9414
S11332F06014888599858B319105F1F034F4893116
S1133300910551F04A9781F036C08D31910521F134
S1133310DCF04E9749F12FC061E080E00E94D912A1
S11333208BE90E94F41227C062E080E00E94D91267
S11333308BE90E94F4121FC063E080E00E94D9125E
S11333408BE90E94F41217C064E080E00E94D91255
S11333508BE90E94F4120FC065E080E00E94D9124C
S11333608BE90E94F41207C065E087E00E94D9123D
S11333708BE90E94F412DF91CF911F910F91FF907E
S1133380EF900895EF92FF920F931F93CF93DF93E3
S1133390EC012CE332E041E060E082E00E94191489
S11333A028E432E041E062E082E00E941914FE0168
S11333B0E75BFE4F00811181228133816894EE2402
S11333C0E1F8F12C41E062E088E00E9460142CE412
S11333D032E041E063E082E00E941914FE01E35B05
S11333E0FE4F008111812281338141E063E088E056
S11333F00E9460148885998584319105A1F08531F6
S1133400910501F1439729F562E087E00E94D91202
S11334108AE90E94F41262E08CE00E94D91282EAE6
S11334200E94F41216C063E087E00E94D9128AE970
S11334300E94F41263E08CE00E94D91282EA0E9496
S1133440F41207C065E081E00E94D9128BE90E9462
S1133450F41223E331E041E065E083E00E941914B3
S1133460DF91CF911F910F91FF90EF900895EF920C
S1133470FF920F931F93CF93DF93EC0120E532E08B
S113348041E060E082E00E941914FE01EB5BFE4F14
S113349000811181228133816894EE24E1F8F12CBA
S11334A041E062E085E00E94601423E331E041E002
S11334B064E083E00E94191488859985813191051F
S11334C019F0429781F016C062E084E00E94D9129C
S11334D08AE90E94F41262E089E00E94D9128BE921
S11334E00E94F41207C064E081E00E94D9128BE9C3
S11334F00E94F412DF91CF911F910F91FF90EF90F2
S11335000895FC01808591858430910524F52BE58F
S113351032E041E060E085E00E94191423E331E0E9
S113352041E061E082E00E94191420E632E041E0CB
S113353062E082E00E9419142BE632E041E063E08D
S113354082E00E94191421E332E041E064E082E069
S11335500E94191408958830910524F523E331E07D
S113356041E060E083E00E94191425E732E041E085
S113357061E082E00E9419142EE732E041E062E04B
S113358082E00E9419142AE832E041E063E082E01C
S11335900E94191421E332E041E064E082E00E94D9
S11335A0191408950C9724F520E632E041E060E018
S11335B083E00E94191425E732E041E061E082E0F3
S11335C00E9419142EE732E041E062E082E00E949A
S11335D019142AE832E041E063E082E00E94191401
S11335E021E332E041E064E082E00E94191408958E
S11335F02BE632E041E060E083E00E94191420E50C
S113360032E041E061E082E00E9419142CE332E0F0
S113361041E062E082E00E94191420E031E041E0E0
S113362063E082E00E94191420E032E041E064E0AB
S113363082E00E94191421E332E041E065E082E077
S11336400E9419140895DC011896ED91FC911997C4
S1133650E131F10508F08BC0E95BFF4F0C94E223E4
S113366061E080E00E94D9128BE90E94F41208956F
S113367062E080E00E94D9128BE90E94F41208955E
S113368063E080E00E94D9128BE90E94F41208954D
S113369064E080E00E94D9128BE90E94F41208953C
S11336A061E080E00E94D9128BE90E94F41208952F
S11336B062E080E00E94D9128BE90E94F41208951E
S11336C064E080E00E94D9128BE90E94F41208950C
S11336D063E080E00E94D9128BE90E94F4120895FD
S11336E061E080E00E94D9128BE90E94F4120895EF
S11336F062E080E00E94D9128BE90E94F4120895DE
S113370063E080E00E94D9128BE90E94F4120895CC
S113371064E080E00E94D9128BE90E94F4120895BB
S113372061E080E00E94D9128BE90E94F4120895AE
S113373062E080E00E94D9128BE90E94F41208959D
S113374063E080E00E94D9128BE90E94F41208958C
S113375064E080E00E94D9128BE90E94F41208957B
S113376065E080E00E94D9128BE90E94F41208956A
S1133770CF93DF93EC010E94811ACE010E94231B98
S1133780DF91CF91089560E086E00E94D9128EE91E
S11337900E94F41260E087E00E94D9128FE90E942F
S11337A0F4120895AF92BF92CF92DF92EF92FF92FC
S11337B00F931F93CF93DF93CDB7DEB72C970FB63C
S11337C0F894DEBF0FBECDBF898D9A8D82309105EE
S11337D099F01CF4019739F031C083309105C1F0A0
S11337E0049719F12BC0CC24C394A12C00E00F2E14
S11337F0F3E0DF2EF02D22C0CC24C3940F2EFBE087
S1133800AF2EF02D00E00F2EF9E0DF2EF02D16C0C4
S11338106894CC24C2F80F2EFBE0AF2EF02D03E009
S11338200F2EF9E0DF2EF02D09C06894CC24C2F8E5
S1133830A12C03E00F2EF3E0DF2EF02D8CA98823BA
S1133840C9F08CE890E09A8389838DE890E09C83AA
S11338508B838EE890E09E838D838FE890E0988739
S11338608F8380E990E09A87898781E990E09C873B
S11338708B8763C08BA98823C9F080E890E09A8382
S1133880898381E890E09C838B8382E890E09E8327
S11338908D8383E890E098878F8384E890E09A870B
S11338A0898785E890E09C878B8747C086E890E00D
S11338B09A83898387E890E09C838B8388E890E0EF
S11338C09E838D8389E890E098878F838AE890E0CF
S11338D09A8789878BE890E09C878B872EC0612F1D
S11338E08D2D0E94D912F70180810E94F412612F5C
S11338F08B2D0E94D912F70182810E94F4121F5F5E
S1133900F4E0EF0EF11C1013EACFCE0149960E94A9
S1133910D11F8B019C016894EE24E1F8F12C41E065
S11339206C2D8A2D0E947D1461E06C0D8A2D0E94FD
S1133930D91280EA0E94F41209C0102FCE01019618
S11339407C010D5FBB24B394BD0CC9CF2C960FB67C
S1133950F894DEBF0FBECDBFDF91CF911F910F91C1
S1133960FF90EF90DF90CF90BF90AF900895CF93EA
S1133970DF93EC01FC01E956FF4F8DB79EB78B979F
S11339800FB6F8949EBF0FBE8DBFADB7BEB71196EC
S11339908BE201900D928A95E1F7CE010E94D21B31
S11339A08DB79EB78B960FB6F8949EBF0FBE8DBF92
S11339B0FE01EE53FF4F8B970FB6F8949EBF0FBED8
S11339C08DBFADB7BEB711968BE201900D928A956B
S11339D0E1F7CE010E94D21B8DB79EB78B960FB62E
S11339E0F8949EBF0FBE8DBFFE01E351FF4F8B972E
S11339F00FB6F8949EBF0FBE8DBFADB7BEB711967C
S1133A008BE201900D928A95E1F7CE010E94D21BC0
S1133A108DB79EB78B960FB6F8949EBF0FBE8DBF21
S1133A20FE01E85EFE4F8B970FB6F8949EBF0FBE63
S1133A308DBFADB7BEB711968BE201900D928A95FA
S1133A40E1F7CE010E94D21B8DB79EB78B960FB6BD
S1133A50F8949EBF0FBE8DBFDF91CF910895FC01F6
S1133A60808191810297E9F462E086E00E94D91294
S1133A7086E90E94F41262E087E00E94D91287E985
S1133A800E94F41263E086E00E94D91288E90E9441
S1133A90F41263E087E00E94D91289E90E94F412CB
S1133AA0089562E086E00E94D91282E90E94F4122D
S1133AB062E087E00E94D91283E90E94F41263E075
S1133AC086E00E94D91284E90E94F41263E087E040
S1133AD00E94D91285E90E94F4120895FC01208104
S1133AE031812230310511F480E00895FC01808594
S1133AF091858230910509F445C034F40097E1F0D2
S1133B008130910579F108C08430910599F10CF464
S1133B1041C085309105D9F08230910599F12CF49A
S1133B20009751F00197E9F51DC08430910511F11A
S1133B308CF10597B1F50BC061E086E00E94D912C3
S1133B408CE90E94F4128DE90E94F4122AC064E008
S1133B5086E00E94D9128CE90E94F4128DE90E9439
S1133B60F4121FC061E085E00E94D9128AE90E9424
S1133B70F41217C064E085E00E94D9128AE90E9419
S1133B80F4120FC061E088E00E94D9128BE90E9410
S1133B90F41207C064E088E00E94D9128BE90E9405
S1133BA0F4120895EF92FF920F931F93CF93DF9334
S1133BB0FC01208131812230310511F080E015C0F3
S1133BC0EC010E948D0A8B019C016894EE24E1F8BB
S1133BD0F12C41E061E085E00E94601464E085E03E
S1133BE00E94D9128A810E941313DF91CF911F91F1
S1133BF00F91FF90EF900895CF93DF93EC010E9413
S1133C00C31BCE010E94B71CCE010E942F1DCE0102
S1133C100E946E1DCE010E94D21DDF91CF910895A6
S1133C20CF93DF93EC0187E9FB01DE0101900D9254
S1133C308A95E1F7DE01A956BF4F8AEDFA0101909A
S1133C400D928A95E1F70E945E12E881F981E830CD
S1133C50F10518F5E85AFF4F0C94E223CE010E94B7
S1133C60FC1D1BC0CE010E94FC1D17C0CE010E948A
S1133C70B81B13C0CE010E94371A0FC0CE010E9498
S1133C80C2190BC0CE010E940B1707C0CE010E94BF
S1133C90991803C0CE010E94EB170E947312DF91A2
S1133CA0CF910895CF93DF93EC010E94120BCE01C4
S1133CB007960E94120BCE010E960E94120BCE01A3
S1133CC045960E94120BCE014C960E94120BDF9176
S1133CD0CF910895EF92FF920F931F93CF93DF93A9
S1133CE0E90137E0FB01DC0101900D923A95E1F71F
S1133CF037E0FA01DC01179601900D923A95E1F74D
S1133D0037E0FE01DC011E9601900D923A95E1F731
S1133D1027E0F701DC015C9601900D922A95E1F70A
S1133D2027E0F801DC01559601900D922A95E1F700
S1133D30DF91CF911F910F91FF90EF9008950F9312
S1133D401F93CF93DF93EC018B010E94510B8111E0
S1133D501FC0B801CE0107960E94510B81111BC0F0
S1133D60B801CE010E960E94510B811117C0B80103
S1133D70CE014C960E94510B811113C0B801CE01A3
S1133D8045960E94510B81110FC08FEF9FEF0EC01B
S1133D9080E090E00BC081E090E008C082E090E019
S1133DA005C084E090E002C083E090E0DF91CF9111
S1133DB01F910F9108950895ECE7F0E080818164EC
S1133DC08083EAE7F0E080818F6880830895FC01B6
S1133DD0ACE7B0E08C918E7F8C938C918D7F8C932B
S1133DE08C918B7F8C938C91877F8C93633071053E
S1133DF051F06430710569F06230710579F48C9189
S1133E0081608C930BC0ACE7B0E08C9182608C93A2
S1133E1005C0ACE7B0E08C9183608C93AAE7B0E076
S1133E208C9180648C93108281E040E09C91282FD7
S1133E30392F307194FF242F20833323B9F36091F9
S1133E4078007091790080E090E00E94AA222BE42F
S1133E503CE340EA5BE30E94612308958093BB0046
S1133E6084E88093BC00ECEBF0E080818823ECF7DD
S1133E709091B900987F983129F081E0983219F433
S1133E8080E0089580E00895CF9394EA9093BC0075
S1133E90ECEBF0E090819923ECF79091B900987FD6
S1133EA0983011F0903161F4C62F0E942E1F81309A
S1133EB039F08C2F0E942E1F94E99093BC0004C00B
S1133EC084E98093BC0081E0CF910895089560E077
S1133ED08EE40E94441F0895EF92FF920F931F9364
S1133EE0CF93DF93F901161617060CF04FC031E09B
S1133EF04130510509F030E04230510509F4326097
S1133F00E130F10511F4346003C0329709F43860EC
S1133F100130110511F4306104C00230110509F4B7
S1133F2030628B01EC0181E0E816F10419F4632F8F
S1133F30606406C092E0E916F10409F5632F606835
S1133F408EE40E94441F1982188289EF90E0019741
S1133F50F1F700C00000288139812F5F3F4F39837A
S1133F602883201731078CF360E08EE40E94441FFD
S1133F7083ED90E30197F1F700C0000007C0632FC1
S1133F808EE40E94441F19821882DFCFDF91CF9103
S1133F901F910F91FF90EF90089584960E94DB1E6D
S1133FA00895CF93DF93EC016881798184960E9410
S1133FB0E71E6A837B838C839D83DF91CF91089571
S1133FC00F931F93CF93DF93EC018B0184960E9490
S1133FD0DC1E1983088380E090E0A0EAB0E48E83BD
S1133FE09F83A887B9878AE097EDA3E2BCE38A8719
S1133FF09B87AC87BD87CE010E94D11F6E877F87C8
S1134000888B998B19A218A21F8E1E8EDF91CF91D7
S11340101F910F910895CF93DF93EC010E94D11F5C
S11340208A819B81AC81BD818E8B9F8BA88FB98F38
S1134030DF91CF9108958F929F92AF92BF92CF92CA
S1134040DF92EF92FF92CF93DF93FC01228D222324
S113405009F458C0238D211158C0EC010E94D11FCE
S11340606B017C016A837B838C839D8320E030E039
S1134070A9016E897F89888D998D0E94FD21811106
S113408008C08AE097EDA3E2BCE38E8B9F8BA88FD8
S1134090B98F20E030E046E953E46E897F89888D4A
S11340A0998D0E9461234B015C0120E030E046E9D8
S11340B053E4C701B6010E9461239B01AC01C50111
S11340C0B4010E9490216DA37EA38FA398A70E94A0
S11340D074227BA36AA37AA769A71C8E772344F46E
S11340E07195619571097BA36AA382E090E012C087
S11340F0161617066CF01BA21AA281E08C8F80E0C2
S113410090E008C080E090E005C080E090E002C04C
S113411081E090E0DF91CF91FF90EF90DF90CF901E
S1134120BF90AF909F908F900895CF93DF93EC0151
S11341308A819B81AC81BD818A8B9B8BAC8BBD8B2F
S1134140CE010E94D11F6A837B838C839D832A893D
S11341503B894C895D890E94FD21811108C081E061
S11341608B8F81E090E09F8F8E8F80E002C01B8E4A
S113417081E0DF91CF910895FC01858D81110FC0FD
S113418080A191A1019691A380A3681779074CF4AB
S113419081E0838F83E090E0978F868F089511A24A
S11341A010A20895CF92DF92EF92FF92CF93DF9304
S11341B0EC01CE80DF80E884F984A70196016E8942
S11341C07F89888D998D0E945C23882324F0CE8A70
S11341D0DF8AE88EF98ECA84DB84EC84FD84A7012F
S11341E096016E897F89888D998D0E94FD2118160C
S11341F024F0CE8ADF8AE88EF98EDF91CF91FF908A
S1134200EF90DF90CF900895CF92DF92EF92FF92DC
S1134210CF93DF93EC01CE84DF84E888F9880E9491
S1134220D11F9B01AC01C701B6010E94FD21882367
S113423059F08A819B81AC81BD818E879F87A88B31
S1134240B98B81E08D8F02C01D8E80E0DF91CF910C
S1134250FF90EF90DF90CF900895FC01828D91E064
S11342609827928F0895CF92DF92EF92FF921F9337
S1134270CF93DF93EC011A8D1123D1F0CB01BA0156
S11342802E893F89488D598D0E9491216E8B7F8B99
S1134290888F998FCE80DF80E884F984A701960106
S11342A00E945C23181624F4CE8ADF8AE88EF98EE5
S11342B0812FDF91CF911F91FF90EF90DF90CF90EE
S11342C00895CF92DF92EF92FF921F93CF93DF93E3
S11342D0FC01128D1123D9F09A01AB01EC0166891E
S11342E07789808D918D0E9490216E8B7F8B888F32
S11342F0998FCA84DB84EC84FD84A70196010E9413
S1134300FD21882324F4CE8ADF8AE88EF98E812F5A
S1134310DF91CF911F91FF90EF90DF90CF900895A0
S11343205058BB27AA270E94A8210C9422230E943C
S1134330142338F00E941B2320F039F49F3F19F412
S113434026F40C9411230EF4E095E7FB0C940B2354
S1134350E92F0E94332358F3BA17620773078407BF
S1134360950720F079F4A6F50C9455230EF4E09506
S11343700B2EBA2FA02D0B01B90190010C01CA011B
S1134380A0011124FF27591B99F0593F50F4503EC6
S113439068F11A16F040A22F232F342F4427585FB8
S11343A0F3CF469537952795A795F0405395C9F7D0
S11343B07EF41F16BA0B620B730B840BBAF0915088
S11343C0A1F0FF0FBB1F661F771F881FC2F70EC027
S11343D0BA0F621F731F841F48F4879577956795FA
S11343E0B795F7959E3F08F0B0CF9395880F08F0E6
S11343F09927EE0F9795879508950E94E72208F470
S113440081E008950E9416220C9422230E941B230B
S113441058F00E94142340F029F45F3F29F00C94D3
S11344200B2351110C9456230C9411230E94332313
S113443068F39923B1F3552391F3951B550BBB27CF
S1134440AA2762177307840738F09F5F5F4F220F14
S1134450331F441FAA1FA9F335D00E2E3AF0E0E80B
S113446032D091505040E695001CCAF72BD0FE2F55
S113447029D0660F771F881FBB1F261737074807E9
S1134480AB07B0E809F0BB0B802DBF01FF279358A1
S11344905F4F3AF09E3F510578F00C940B230C9437
S11344A056235F3FE4F3983ED4F38695779567955A
S11344B0B795F7959F5FC9F7880F911D96958795D6
S11344C097F90895E1E0660F771F881FBB1F6217F5
S11344D073078407BA0720F0621B730B840BBA0BB3
S11344E0EE1F88F7E09508950E947B226894B1112D
S11344F00C94562308950E943B2388F09F5798F00C
S1134500B92F9927B751B0F0E1F0660F771F881FD4
S1134510991F1AF0BA95C9F714C0B13091F00E94EE
S11345205523B1E008950C945523672F782F8827DD
S1134530B85F39F0B93FCCF3869577956795B39515
S1134540D9F73EF490958095709561957F4F8F4F84
S11345509F4F0895E89409C097FB3EF49095809589
S1134560709561957F4F8F4F9F4F9923A9F0F92F35
S113457096E9BB279395F695879577956795B795B3
S1134580F111F8CFFAF4BB0F11F460FF1BC06F5F99
S11345907F4F8F4F9F4F16C0882311F096E911C0AB
S11345A0772321F09EE8872F762F05C0662371F0CC
S11345B096E8862F70E060E02AF09A95660F771FE0
S11345C0881FDAF7880F9695879597F90895990FBC
S11345D00008550FAA0BE0E8FEEF16161706E807C9
S11345E0F907C0F012161306E407F50798F0621BEA
S11345F0730B840B950B39F40A2661F0232B242BBF
S1134600252B21F408950A2609F4A140A6958FEFDD
S1134610811D811D089597F99F6780E870E060E02F
S113462008959FEF80EC089500240A941616170647
S113463018060906089500240A941216130614068F
S113464005060895092E0394000C11F4882352F0F2
S1134650BB0F40F4BF2B11F460FF04C06F5F7F4FAA
S11346608F4F9F4F089557FD9058440F551F59F091
S11346705F3F71F04795880F97FB991F61F09F3F4B
S113468079F087950895121613061406551FF2CF74
S11346904695F1DF08C0161617061806991FF1CFC4
S11346A086957105610508940895E894BB276627EB
S11346B07727CB0197F908950E94E72208F48FEF3A
S11346C008950E9474230C9422230E94142338F02A
S11346D00E941B2320F0952311F00C940B230C94BF
S11346E0112311240C9456230E94332370F3959FB5
S11346F0C1F3950F50E0551F629FF001729FBB27D5
S1134700F00DB11D639FAA27F00DB11DAA1F649F70
S11347106627B00DA11D661F829F2227B00DA11D23
S1134720621F739FB00DA11D621F839FA00D611DA9
S1134730221F749F3327A00D611D231F849F600DCA
S1134740211D822F762F6A2F11249F5750409AF0F3
S1134750F1F088234AF0EE0FFF1FBB1F661F771F7F
S1134760881F91505040A9F79E3F510580F00C944A
S11347700B230C9456235F3FE4F3983ED4F38695C1
S113478077956795B795F795E7959F5FC1F7FE2BEA
S1134790880F911D9695879597F9089597FB072E95
S11347A016F4009407D077FD09D00E94E82307FC93
S11347B005D03EF4909581959F4F0895709561952D
S11347C07F4F0895EE0FFF1F0590F491E02D09949B
S11347D0AA1BBB1B51E107C0AA1FBB1FA617B70723
S11347E010F0A61BB70B881F991F5A95A9F780953F
S11347F09095BC01CD010895F999FECF92BD81BD7C
S1134800F89A992780B50895A6E1B0E044E050E015
S11348100C942724262FF999FECF1FBA92BD81BD8F
S113482020BD0FB6F894FA9AF99A0FBE019608952E
S1134830242F0E940B24252F0E940B240C94202447
S11348400E940A24272F0C940B24DC01CB01FC01C9
S1134850F999FECF06C0F2BDE1BDF89A319600B4D5
S11148600D9241505040B8F70895F894FFCFE0
S113486EC4E8E0E3EDEEF1F2E8EAE000C4EBE8F2CE
S113487EE5EBFCEDEEF1F2FC00EFF0EEF6E5F1F116
S113488EE000C2EAEBFEF7E8F2FC00EEF2EA00E228
S113489EEAEB00D1EEF5F0E0EDE8F2FC00CEF8E83C
S11348AEE1EEEA20EDE5F200CEF8E8E1EAE020C51B
S11348BE00EDE5F220EEF2E2E5F2E020F1F2EEE9AF
S11348CEEAE820EFF0E820EFEEEFFBF2EAE520E86D
S11348DEE7ECE5EDE8F2FC20E5E520EFEEEBEEE6A5
S11348EEE5EDE8E500EDE5E2EEE7E6ECEEE6EDEE0D
S11348FE20E2FBF1F2E0E2E8F2FC20E7E0E4E0ED96
S113490EEDEEE520EFEEEBEEE6E5EDE8E500E7E0B3
S113491EE2E8F1E0EDE8E520E4E0F2F7E8EAE02091
S113492EEFEEEBEEE6E5EDE8FF20E2EE20E2F0E559
S113493EECFF20E4E2E8E6E5EDE8FF003120D1F2F9
S113494EEEE9EAE0003220D1F2EEE9EAE0003320AB
S113495ED1F2EEE9EAE0003420D1F2EEE9EAE00029
S113496ECEF8E8E1EAE800312ED1F2EEE9EAE00011
S113497E322ED1F2EEE9EAE000332ED1F2EEE9EA7C
S113498EE000342ED1F2EEE9EAE000D1E1F0EEF1EE
S113499E00C2FBF5EEE4002D2D004500CEE3F0E061
S11349AEEDE8F7E5EDE8FF006D696E006D617800E6
S11349BECAE0EBE8E1F0EEE2EAE000CCC5CDDE00C1
S11349CED3F1F2E0EDEEE2E8F2FC00CDE0F1F2F02C
S11349DEEEE9EAE800CFE0F0EAEEE2EAE000CDE844
S11349EEE6EDE5E520EFEEE72E00C2E5F0F5EDFF8E
S10B49FEFF20EFEEE72E00009C
S9030000FC
