S0120000436172537570706F72742E73726563FF
S11300000C9468030C9485030C9485030C94850369
S11300100C9485030C9485030C9485030C9485033C
S11300200C9485030C9485030C9485030C9485032C
S11300300C9485030C9485030C9485030C9485031C
S11300400C9485030C9485030C9485030C9485030C
S11300500C9485030C9485030C9485030C948503FC
S11300600C9485030C948503C0C0E0A0A0A09090DC
S1130070909088888884848484828282828181FFAB
S1130080C0C0E0E0A0A09090909088888884848488
S113009084828282828181FFC0C0E0E0E0A09090EF
S11300A0909088888884848484828282828181FF7B
S11300B0C0C0E0E0E0E0F090909088888884848478
S11300C084828282828181FFC0C0E0E0E0E0F0F0BF
S11300D0909088888884848484828282828181FF4B
S11300E0C0C0E0E0E0E0F0F0F09088888884848488
S11300F084828282828181FFC0C0E0E0E0E0F0F08F
S1130100F0F088888884848484828282828181FF5A
S1130110C0C0E0E0E0E0F0F0F0F0F8888884848487
S113012084828282828181FFC0C0E0E0E0E0F0F05E
S1130130F0F0F8F88884848484828282828181FF4A
S1130140C0C0E0E0E0E0F0F0F0F0F8F8F884848477
S113015084828282828181FFC0C0E0E0E0E0F0F02E
S1130160F0F0F8F8F8FC848484828282828181FF32
S1130170C0C0E0E0E0E0F0F0F0F0F8F8F8FCFC8457
S113018084828282828181FFC0C0E0E0E0E0F0F0FE
S1130190F0F0F8F8F8FCFCFC84828282828181FF12
S11301A0C0C0E0E0E0E0F0F0F0F0F8F8F8FCFCFCAF
S11301B0FC828282828181FFC0C0E0E0E0E0F0F056
S11301C0F0F0F8F8F8FCFCFCFCFE8282828181FFEE
S11301D0C0C0E0E0E0E0F0F0F0F0F8F8F8FCFCFC7F
S11301E0FCFEFE82828181FFC0C0E0E0E0E0F0F02E
S11301F0F0F0F8F8F8FCFCFCFCFEFEFE828181FFC6
S1130200C0C0E0E0E0E0F0F0F0F0F8F8F8FCFCFC4E
S1130210FCFEFEFEFE8181FFC0C0E0E0E0E0F0F005
S1130220F0F0F8F8F8FCFCFCFCFEFEFEFEFF81FF9B
S1130230C0C0E0E0E0E0F0F0F0F0F8F8F8FCFCFC1E
S1130240FCFEFEFEFEFFFFFF0000000000000000B9
S11302505F000000000700070000147F147F1400F3
S1130260242A7F2A12004C2C106864003649552237
S11302705000000503000000001C22410000004162
S1130280221C000014083E08140008083E08080058
S113029000005030000010101010100000606000CA
S11302A000002010080402003E5149453E0000426F
S11302B07F4000004261514946002141454B3100D5
S11302C01814127F10002745454539003C4A494916
S11302D030000171090503003649494936000649D1
S11302E049291E0000363600000000563600000082
S11302F008142241000014141414140000412214A0
S11303000800020151090600324979413E007E117C
S113031011117E007F49494936003E414141220086
S11303207F4141221C007F49494941007F09090955
S113033001003E4149497A007F0808087F000041D6
S11303407F4100002040413F01007F08142241000A
S11303507F40404040007F020C027F007F04081071
S11303607F003E4141413E007F09090906003E41AC
S113037051215E007F091929460046494949310047
S113038001017F0101003F4040403F001F20402009
S11303901F003F4038403F006314081463000708FF
S11303A070080700615149454300007F4141000046
S11303B00204081020000041417F000004020102F1
S11303C0040040404040400000010204000020546A
S11303D0545478007F48444438003844444420004E
S11303E0384444487F00385454541800087E0901A6
S11303F002000C5252523E007F080404780000446C
S11304007D4000002040443D00007F10284400004F
S113041000417F4000007C04180478007C08040438
S113042078003844444438007C1414140800081438
S113043014187C007C080404080048545454200018
S1130440043F444020003C4040207C001C204020CD
S11304501C003C4030403C004428102844000C5010
S113046050503C004464544C4400000836410000A1
S113047000007F0000000041360800000804081056
S11304800800FFFFFFFFFF000000E0F0F8F8F8F8B5
S1130490F0E000000000FFFFFFFFFFFFFFFF000090
S11304A00000070F1F1F1F1F0F0700000000E010B0
S11304B00808080810E000000000FF000000000029
S11304C000FF0000000007081010101008070000CB
S11304D04080E0100808080810E080400000FF4257
S11304E02418182442FF00000201070810101010FD
S11304F0080701020000605048444448506000006E
S11305000000060A122222120A060000000060708F
S1130510787C7C78706000000000060E1E3E3E1E53
S11305200E060000183C7EE700000000E77E3C1841
S113053000002030381C1C383020000000002A2A1B
S11305402A2A2A2A2A2A2A000000000000037C12F0
S113055011127C007F49494931007F4949493600DD
S11305607F0101010100603F213F60007F4949494B
S1130570410077087F0877002241494936007F10FF
S113058008047F007E1009047E007F0814224100C5
S1130590403E01017F007F020C027F007F080808B3
S11305A07F003E4141413E007F0101017F007F0900
S11305B0090906003E414141220001017F01010079
S11305C0074848483F000E117F110E0063140814B9
S11305D063003F20203F6000070808087F007F4039
S11305E07E407F003F203F207F00017F484830004D
S11305F07F4830007F00007F48483000224149494D
S11306003E007F083E413E00462919097F002054E0
S1130610545478003C4A4A4A31007C54542800001F
S11306207C04040C0000603C243C600038545454A6
S113063018006C107C106C000044545428007C207A
S113064010087C007C2112097C007C1028440000E6
S1130650403804047C007C0810087C007C101010D6
S11306607C003844444438007C0404047C007C143A
S11306701414080038444444000004047C040400B6
S11306800C5050503C0008147C14080044281028D6
S113069044003C20203C60000C1010107C007C4086
S11306A07C407C003C203C207C00047C505020009A
S11306B07C5020007C00007C50502000284454547E
S11306C038007C1038443800485434147C0030100E
S11306D011241FBECFEFD8E0DEBFCDBF24E0A0E0E1
S11306E0B1E001C01D92A03CB207E1F713E0C8E6F7
S11306F0D3E004C02197FE010E949317C736D107A7
S1130700C9F70E94A20F0C9499170C940000089545
S1130710CF93DF93FC01DC01AE5ABF4F89E090E038
S11307208D939C938AE097EDA3E2BCE38283938349
S1130730A483B5838AE097EDA3EABCE38683978319
S1130740A087B1878FE892ECA5EFBCE382879387FB
S1130750A487B5878AE097EDA3E2BDE386879787F0
S1130760A08BB18B8DEC9CECACE4BDE3828B938BC2
S1130770A48BB58B8FE892ECA5E7BDE3868B978BB2
S1130780A08FB18F89E29CE5AFE8BDE3828F938FA0
S1130790A48FB58F8AE097EDA3EABDE3868F978F88
S11307A0A0A3B1A38CEE91E5A8EBBDE382A393A330
S11307B0A4A3B5A38DEC9CECACECBDE386A397A3FA
S11307C0A0A7B1A78FE892ECA5EFBDE382A793A7FA
S11307D0A4A7B5A78AE999E9A9E1BEE386A797A7E3
S11307E0A0ABB1AB8DEC9CECACE4BEE382AB93ABC1
S11307F0A4ABB5AB8AE999E9A9E9BEE386AB97ABAB
S1130800A0AFB1AF80E090E0A0E0BFE382AF93AFD0
S1130810A4AFB5AFDF01DE9640E050E060E47FE3D3
S11308204D935D936D937C931397149640E050E041
S113083060E87FE34D935D936D937C9313971496D7
S113084040E050E060EC7FE34D935D936D937C93C7
S11308501397149640E050E060E070E44D935D938C
S11308606D937C931397149640E050E060E470E439
S11308704D935D936D937C93139716961D921C92E2
S113088011821082EF01C45ADF4FA1E0B0E0B983B6
S1130890A883229642E050E0598348832697198220
S11308A01882229665E070E0798368832497198220
S11308B018826296B983A883229619821882269791
S11308C0B983A883229624E030E0398328832497CF
S11308D08AE090E099838883AA96398328832296B4
S11308E0798368832697B983A883DF01A657BF4F0E
S11308F011963C932E93149711969C938E93529633
S113090011963C932E93129623E030E011963C937B
S11309102E93169711961C921E92129611967C9302
S11309206E931497CBE0D0E01196DC93CE9352975C
S113093011967C936E93129611963C932E93169770
S113094011965C934E93129611963C932E931497A2
S113095011969C938E93169711961C921E92129642
S113096011965C934E93169711965C934E93129640
S11309702D933C93E259FF4F91838083DF91CF9174
S113098008958C5A9F4FFC0180819181823091059A
S113099071F01CF4019739F008958330910561F0EA
S11309A0049779F00895CB010E946A150895CB014C
S11309B04A960E946A150895CB01C4960E946A154E
S11309C00895CB01825B9F4F0E946A1508956F9230
S11309D07F928F929F92AF92BF92CF92DF92EF92CB
S11309E0FF920F931F93CF93DF93CDB7DEB72F976B
S11309F00FB6F894DEBF0FBECDBF3C0189829A8248
S1130A00AB82BC82CD82DE82EF82F88609871A87A8
S1130A102B873C874D875E876F876AE070E0CE0145
S1130A2001960E9477138F3F2FEF9207B1F1F301E4
S1130A30EC5AFF4F0190F081E02D9F01220F331FEC
S1130A40E20FF31FEE0FFF1FE80FF91FBB96EE0F27
S1130A50FF1FE60DF71D808191818A30910521F0F9
S1130A608B30910541F012C068A179A1C3010E94A5
S1130A70C10481E013C082E090E0F301918380839C
S1130A8088A199A10E94390781E008C0F301EC5ABA
S1130A90FF4F9183808381E001C080E02F960FB6E1
S1130AA0F894DEBF0FBECDBFDF91CF911F910F91A0
S1130AB0FF90EF90DF90CF90BF90AF909F908F907A
S1130AC07F906F9008956F927F928F929F92AF92D2
S1130AD0BF92CF92DF92EF92FF920F931F93CF9327
S1130AE0DF93CDB7DEB72F970FB6F894DEBF0FBEF6
S1130AF0CDBF3C0189829A82AB82BC82CD82DE82E8
S1130B00EF82F88609871A872B873C874D875E8793
S1130B106F876AE070E0CE0101960E9477138F3FE1
S1130B202FEF920711F480E062C08230910529F121
S1130B302CF4009749F0019759F045C08330910592
S1130B4089F10497C1F13FC0F301118210823BC0C7
S1130B50F301EE5AFF4F0190F081E02DEE0FFF1FDD
S1130B60EE0FFF1FE60DF71D4281538164817581ED
S1130B7088A199A10E947D0B26C0F301EE5AFF4F74
S1130B800190F081E02DEE0FFF1FEE0FFF1FE60D29
S1130B90F71D428153816481758188A199A10E94C6
S1130BA0A50B11C0F301EE5AFF4F8081918101978B
S1130BB09183808308C0F301EE5AFF4F80819181B5
S1130BC0019691838083F301EE5AFF4F80819181D6
S1130BD0181619061CF01182108209C043973CF0C4
S1130BE0F301EE5AFF4F83E190E0918380832F96C7
S1130BF00FB6F894DEBF0FBECDBFDF91CF911F912A
S1130C000F91FF90EF90DF90CF90BF90AF909F90A7
S1130C108F907F906F9008958F929F92AF92BF9222
S1130C20CF92DF92EF92FF920F931F93CF93DF93B4
S1130C30CDB7DEB72F970FB6F894DEBF0FBECDBF8A
S1130C4089829A82AB82BC82CD82DE82EF82F88670
S1130C5009871A872B873C874D875E876F874E8D60
S1130C605F8DFC01208131812115310521F0223075
S1130C703105B9F02BC05F934F9389809A80AB8084
S1130C80BC80CD80DE80EF80F88409851A852B85B1
S1130C903C854D855E856F850E94E7040F900F901B
S1130CA015C05F934F9389809A80AB80BC80CD80C0
S1130CB0DE80EF80F88409851A852B853C854D8577
S1130CC05E856F850E9463050F900F902F960FB677
S1130CD0F894DEBF0FBECDBFDF91CF911F910F916E
S1130CE0FF90EF90DF90CF90BF90AF909F908F9048
S1130CF00895FC01EE5AFF4F0190F081E02DEE0FB4
S1130D00FF1FEE0FFF1FE80FF91F628173818481BB
S1130D10958108950895FC0160834183528363346F
S1130D20A1F0643411F1623479F524B181E090E0EA
S1130D3002C0880F991F4A95E2F7982F9095922345
S1130D4094B995B1892B85B9089527B181E090E0D4
S1130D5002C0880F991F4A95E2F7982F9095922325
S1130D6097B998B1892B88B908952AB181E090E0A8
S1130D7002C0880F991F4A95E2F7982F9095922305
S1130D809AB99BB1892B8BB90895FC0177233CF167
S1130D908081833479F08434B9F0823409F047C017
S1130DA083B190E0018002C0959587950A94E2F79B
S1130DB0817013C086B190E0018002C0959587953B
S1130DC00A94E2F7817009C089B190E0018002C001
S1130DD0959587950A94E2F7817081112AC08081E4
S1130DE002C0211128C0833471F08434B1F08234FC
S1130DF021F523B130E0018002C0359527950A948E
S1130E00E2F72170EECF26B130E0018002C03595C3
S1130E1027950A94E2F72170E4CF29B130E00180EC
S1130E2002C0359527950A94E2F72170DACF80E065
S1130E30089580E0089581E0089580E00895CF93B7
S1130E40DF93EC010E94A514CE014A960E94A514DA
S1130E50CE01C4960E94A514CE01825B9F4F0E94CE
S1130E60A514CE0188599F4F0E943E14DF91CF9163
S1130E700895CF93DF93EC010E94D014CE014A96DB
S1130E800E94D014CE01C4960E94D014CE01825B7D
S1130E909F4F0E94D014DF91CF9108954F925F929B
S1130EA06F927F928F929F92AF92BF92CF92DF9276
S1130EB0EF92FF920F931F93CF93DF93EC010E9465
S1130EC0C1144E018AE1880E911CC4010E94C11410
S1130ED05E0194E3A90EB11CC5010E94C1146E0108
S1130EE0EEE4CE0ED11CC6010E94C1143E01F8E608
S1130EF06F0E711CEE24E394F12C01E010E021E06C
S1130F0030E041E050E06AE070E0C3010E94441424
S1130F10CE010E9447152E019EE7490E511C90E018
S1130F20F20191838083C4010E944715FE01E058B9
S1130F30FF4F90E091838083C5010E944715FE0115
S1130F40EE57FF4F90E091838083C6010E944715BE
S1130F50FE01EC57FF4F90E0918380836894EE2468
S1130F60E1F8F12C02E010E022E030E042E050E051
S1130F706AE070E0C3010E944414F201808191810F
S1130F80892B99F0329680819181892B81F0329658
S1130F9080819181892B69F0CC57DF4F81E02881D2
S1130FA03981232B39F480E005C080E003C080E060
S1130FB001C080E0DF91CF911F910F91FF90EF90DE
S1130FC0DF90CF90BF90AF909F908F907F906F9065
S1130FD05F904F9008950F931F93CF93DF93CDB7F6
S1130FE0DEB78C018AE1FE013796D80101900D929B
S1130FF08A95E1F78AE1FE01B196D8015A960190EB
S11310000D928A95E1F78AE1FE01FB96D801D49608
S113101001900D928A95E1F7D801A25BBF4F8AE156
S1131020FE01EB5AFF4F01900D928A95E1F7C8013A
S113103088599F4F0E943F14F801E857FF4F81E001
S113104090E091838083C8010E944E07DF91CF9185
S11310501F910F910895CF93DF93FC01E659FF4F41
S1131060DC0151962D913C91529731832083A459F0
S1131070BF4FEC012BA53CA511963C932E931296E1
S1131080CB5BDF4F2881398111963C932E931296C6
S11310906A96288139812D933C93DF018E589F4FA6
S11310A0219131911216130624F0E817F907C1F7BC
S11310B016C021153105B1F04D915D911416150638
S11310C024F4421753070CF49A01A817B907A1F79F
S11310D0C9012333310544F082E390E005C080E088
S11310E090E002C080E090E0DF91CF910895CF922C
S11310F0DF92EF92FF920F931F93CF93DF93CDB7BD
S1131100DEB78B859C858230910571F01CF40197C4
S113111039F01DC08330910571F00497A1F017C018
S1131120CC24C394D12C13C0CC24C3940F2EFBE045
S1131130DF2EF02D0CC06894CC24C2F80F2EFBE0F7
S1131140DF2EF02D04C06894CC24C2F8D12CCE013B
S11311500B960E94C1148B019C016894EE24E1F863
S1131160F12C41E06C2D8D2D0E94B20E0E949D0C3D
S1131170DF91CF911F910F91FF90EF90DF90CF906F
S113118008954F925F926F927F928F929F92AF9247
S1131190BF92CF92DF92EF92FF920F931F93CF9360
S11311A0DF93EC010E94E0146E0124E7C20ED11C0F
S11311B0F601918380838DB79EB74A970FB6F89452
S11311C09EBF0FBE8DBFADB7BEB711968AE1FE01BB
S11311D001900D928A95E1F7CE010E9477085E0195
S11311E09AE1A90EB11CC5010E94E0144E01E6E784
S11311F08E0E911CF401918380838DB79EB74A971C
S11312000FB6F8949EBF0FBE8DBFADB7BEB7119693
S11312108AE1F50101900D928A95E1F7CE010E94D1
S113122077083E0194E3690E711CEDB7FEB7F4969E
S11312300FB6F894FEBF0FBEEDBFC3010E94E014C9
S11312408E0108581F4FF801918380838DB79EB794
S11312504A970FB6F8949EBF0FBE8DBFADB7BEB709
S113126011968AE1F30101900D928A95E1F7CE017E
S11312700E9477082E019EE4490E511CC2010E946F
S1131280E0147E01EAE7EE0EF11CF70191838083FE
S11312908DB79EB74A970FB6F8949EBF0FBE8DBF09
S11312A0ADB7BEB711968AE1F20101900D928A950D
S11312B0E1F7CE010E947708EDB7FEB7F4960FB6BA
S11312C0F894FEBF0FBEEDBFF701E080F180F80196
S11312D000811181F40120813181F6014081518125
S11312E06AE070E0CE0188599F4F0E944414F601D1
S11312F0808191811816190654F4CE010E94471575
S1131300FE01E258FF4F90E09183808307C081E0A3
S113131090E0FE01E258FF4F91838083FE01EA587A
S1131320FF4F808191811816190654F4C5010E945B
S11313304715FE01E058FF4F90E09183808307C07A
S113134081E090E0FE01E058FF4F91838083FE012D
S1131350E858FF4F808191811816190654F4C3018F
S11313600E944715FE01EE57FF4F90E09183808362
S113137007C081E090E0FE01EE57FF4F9183808328
S1131380FE01E658FF4F808191811816190654F426
S1131390C2010E944715FE01EC57FF4F90E0918374
S11313A0808307C081E090E0FE01EC57FF4F9183FA
S11313B08083FE01E258FF4F80819181892B99F04F
S11313C0329680819181892B81F03296808191813E
S11313D0892B69F0CC57DF4F81E028813981232B99
S11313E039F480E005C080E003C080E001C080E003
S11313F0DF91CF911F910F91FF90EF90DF90CF90ED
S1131400BF90AF909F908F907F906F905F904F9020
S113141008952F923F924F925F926F927F928F9294
S11314209F92AF92BF92CF92DF92EF92FF920F936F
S11314301F93CF93DF93CDB7DEB72E970FB6F894F3
S1131440DEBF0FBECDBF9E878D87FC01EA57FF4FDD
S113145081E090E0918380838D859E850E94C10800
S1131460882309F431C1ED85FE85EA57FF4F808159
S11314709181181619060CF027C1812C912C6D84CA
S11314807E8484E7680E711CED85FE857A96FA8366
S1131490E9834D845E84F6E74F0E511C8D859E854D
S11314A0C4969C838B832D843E8498E7290E311C3B
S11314B0ED85FE85E25BFF4FFE83ED838D859E8582
S11314C086589F4F98878F83ED85FE85EA57FF4F97
S11314D0FA87E9878D859E8588599F4F9C878B87DE
S11314E005C0F4E68F16910409F4B2C08D859E857B
S11314F00E94E014F301918380838DB79EB74A97CD
S11315000FB6F8949EBF0FBE8DBFADB7BEB7119690
S11315108AE1ED85FE8501900D928A95E1F78D852E
S11315209E850E94770889819A810E94E014F201C5
S1131530918380838DB79EB74A970FB6F8949EBF68
S11315400FBE8DBFADB7BEB711968AE1E981FA81AE
S113155001900D928A95E1F78D859E850E9477080A
S11315600FB6F894DEBF0FBECDBF8B819C810E9465
S1131570E014F101918380838DB79EB74A970FB62B
S1131580F8949EBF0FBE8DBFADB7BEB711968AE16A
S1131590EB81FC8101900D928A95E1F78D859E8502
S11315A00E9477088D819E810E94E014EF81F88566
S11315B0918380838DB79EB74A970FB6F8949EBFE8
S11315C00FBE8DBFADB7BEB711968AE1ED81FE8126
S11315D001900D928A95E1F78D859E850E9477088A
S11315E0F301A080B180F201C080D180F1010081BB
S11315F01181EF81F885E080F180C5018C0D9D1D7E
S1131600800F911F8E0D9F1DE985FA85918380833C
S11316100FB6F894DEBF0FBECDBF8D859E850E94A8
S11316202B089601A501BC018B859C850E9444145E
S11316309FEF891A990AE985FA85808191811816A4
S113164019060CF44ECF94E689169104ECF100C00F
S1131650ED85FE85EC58FF4F80819181181619069F
S113166024F481E0ED85FE858787ED85FE85EA58C3
S1131670FF4F808191811816190624F481E0ED85CD
S1131680FE8581A7ED85FE85E858FF4F8081918115
S11316901816190634F481E0ED85FE85ED5BFF4FE5
S11316A08083ED85FE85E658FF4F80819181181671
S11316B0190654F48D859E85835A9F4F9A83898396
S11316C081E0E981FA8180832E960FB6F894DEBF1B
S11316D00FBECDBFDF91CF911F910F91FF90EF907F
S11316E0DF90CF90BF90AF909F908F907F906F903E
S11316F05F904F903F902F900895CF92DF92EF929A
S1131700FF92CF93DF93EC016A017B010E94701575
S1131710B701A601CE014A960E947015B701A60131
S1131720CE01C4960E947015B701A601CE01825B5A
S11317309F4F0E947015CE010E94090ADF91CF913C
S1131740FF90EF90DF90CF900895CF92DF92EF92C9
S1131750FF92CF93DF93EC016A017B010E948A150B
S1131760B701A601CE014A960E948A15B701A601C7
S1131770CE01C4960E948A15B701A601CE01825BF0
S11317809F4F0E948A15CE010E94090ADF91CF91D2
S1131790FF90EF90DF90CF9008952A98613011F474
S11317A0299A01C029988EBD0DB407FEFDCF2A9A4F
S11317B00895CF92DF92EF92FF920F931F93CF93EE
S11317C0DF936B017C01EA01CA010197209781F044
S11317D061E070E09B01220F331F660F771F660FD5
S11317E0771F660F771F620F731F019798F702C068
S11317F061E070E0072E000C880B990B0E944E16D6
S1131800A70196010E94FE160E941616AB01BC01A8
S1131810CA0199231CF021E030E002C02FEF3FEF12
S1131820249FC001259F900D349F900D11240FE03B
S113183011E00F2EFAE0EF2EF12CF02D0F2EFEE228
S1131840DF2EF02D02C08F01EA01F801B7010E94DA
S11318506B17805D8293862F972FAE0141505109FB
S113186019F4F8013297D082009769F71416150617
S1131870D4F4BE0162507109DF0140E32197CE1B0D
S1131880DF0B4E93CD018C0F9D1F18161906CCF358
S1131890CB01992314F480E090E080959095E80FB3
S11318A0F91F8EE2829380818E3211F480E3829359
S11318B0332314F48DE28293CF01DF91CF911F91F2
S11318C00F91FF90EF90DF90CF9008952C9A84B100
S11318D08E6384B92C982C9A80E58CBD2A9A60E09A
S11318E081E20E94CD0B60E088EC0E94CD0B60E0A9
S11318F086E00E94CD0B60E083E10E94CD0B60E0A6
S113190080E20E94CD0B60E08CE00E94CD0B089534
S113191088EF91E0E6E1F1E0DF019C011D922150A6
S11319203040E1F7109215011092140187EF91E015
S113193090931301809312010895EF92FF920F93F5
S11319401F93CF93DF9380911401909115019923F4
S11319502CF4109215011092140109C0883F914093
S113196034F087EF91E090931501809314018091F6
S113197012019091130199232CF4109213011092E7
S1131980120109C0883F914034F087EF91E09093B1
S1131990130180931201C0911401D0911501CE015D
S11319A064E570E00E946B17162F60E080680E9467
S11319B0CD0B60E0812F80640E94CD0BE09012017A
S11319C0F0901301EC16FD066CF08E010A5E1E4FBA
S11319D061E0F80181918F010E94CD0B2196EC16F4
S11319E0FD06B4F787EF91E09093150180931401FD
S11319F01092130110921201DF91CF911F910F9158
S1131A00FF90EF9008958E30A8F46630A8F490E02B
S1131A109C01220F331F820F931F880F991F24E507
S1131A20629F800D911D11249093110180931001E8
S1131A3080E0089581E0089581E0089540911001C7
S1131A4050911101805290E0FC01EE0FFF1FE80F4E
S1131A50F91FEE0FFF1FE85BFD4FDA01AA5EBE4FD0
S1131A609A01245E3E4F84918D933196A217B30759
S1131A70D1F74A5F5F4F509311014093100180E00A
S1131A800895409110015091110190E0FC01EE0F76
S1131A90FF1FE80FF91FEE0FFF1FEE0FFF1FEE0FE2
S1131AA0FF1FE859FF4FDA01AA5EBE4F9A01225D7B
S1131AB03E4F84918D933196A217B307D1F7485EB8
S1131AC05F4F509311014093100180E008950F93EC
S1131AD01F93CF93DF9340911001509111012091F6
S1131AE01401309115014217530724F45093150142
S1131AF04093140120EE260F203A08F49EC0603C67
S1131B0008F49AC020EA260F98C08491880F8D9318
S1131B103196A217B307C9F74B5F5F4F509311017A
S1131B204093100163C0823009F060C0CA0184553B
S1131B3091096091140170911501861797070CF0B3
S1131B4090C090931501809314018BC02491220FAF
S1131B50822F8270982F990F890F982F990F822FB7
S1131B608470382F330F830F880F880F892B022F2F
S1131B700870019F002D1124082B30E0359527951E
S1131B80359527953595279535952795822F82701C
S1131B90382F330F830F880F322F3170932F990F03
S1131BA0390F832B922F9470392F330F930F990F82
S1131BB0990F892B2870219F902D1124892B08833C
S1131BC009838C9311968C931197319622961296D1
S1131BD0A617B70709F0BACFCA010B9668EF71E0F0
S1131BE00E946B1790931101809310018091100152
S1131BF09091110120911201309113012817390796
S1131C0024F49093130180931201FC01EA5EFE4FC9
S1131C101082873F21E0920731F410921101109253
S1131C20100182E036C00196909311018093100157
S1131C3080E02FC081E02DC02FE5813009F073CF03
S1131C4030E0F901EE0FFF1FE20FF31FEE0FFF1F4D
S1131C50E85BFD4FDA01AA5EBE4F9A01255E3E4F56
S1131C6054CF99233CF330E0F901EE0FFF1F2E0F00
S1131C703F1F220F331FF901E85BFD4FEA01CE53EA
S1131C80DF4FDA01AA5EBE4FBA01605E7E4F18E1F3
S1131C905DCFDF91CF911F910F9108950F931F9303
S1131CA0CF93DF93D42F89010E94030DF801608143
S1131CB0662379F0C0E08D2F0E94670D813041F0DA
S1131CC0CF5FF801EC0FF11D60816111F4CF01C009
S1131CD061E0862FDF91CF911F910F910895FF92BC
S1131CE00F931F93CF93DF93F42E89010E94030D6A
S1131CF0F8016081662391F0C0E06E3221F08F2DEF
S1131D000E94670DD82FD13041F0CF5FF801EC0F5E
S1131D10F11D60816111F1CF01C061E0862FDF9177
S1131D20CF911F910F91FF900895DF92EF92FF9250
S1131D300F931F93CF93DF93C82FD62FD42EA701D1
S1131D40C901B8010E94D90B9C014D2D6D2F8C2F18
S1131D500E944E0EDF91CF911F910F91FF90EF9053
S1131D60DF900895DF92EF92FF920F931F93CF932A
S1131D70DF93C82FD62FD42EA701C901B8010E9422
S1131D80D90B9C014D2D6D2F8C2F0E946F0EDF916E
S1131D90CF911F910F91FF90EF90DF9008958F9254
S1131DA09F92AF92CF92DF92EF920F931F9342E0F4
S1131DB050E064E48DEB94E00E948B0643E050E035
S1131DC064E48AEB94E00E948B0644E050E064E40F
S1131DD087EB94E00E948B0645E050E064E484EBDA
S1131DE094E00E948B0646E050E064E481EB94E0CA
S1131DF00E948B068090B4049090B504A090B60421
S1131E00C090B704D090B804E090B9040091BA042B
S1131E101091BB042091BC044091BD045091BE04B8
S1131E206091BF048091B3048F938091B2048F9327
S1131E308091B1048F9380EB93E00E944D1340E0B6
S1131E4050E064E48DEA93E00E940A130E94660C59
S1131E5061E070E087E994E00E94A91462E070E018
S1131E608DE794E00E94A91463E070E083E694E0B7
S1131E700E94A91464E070E089E494E00E94A9142B
S1131E808DB79EB74A970FB6F8949EBF0FBE8DBF0D
S1131E90ADB7BEB711968AE1E9E4F4E001900D9282
S1131EA08A95E1F78DB79EB74A970FB6F8949EBF0F
S1131EB00FBE8DBFADB7BEB711968AE1E3E6F4E07D
S1131EC001900D928A95E1F78DB79EB74A970FB6A8
S1131ED0F8949EBF0FBE8DBFADB7BEB711968AE111
S1131EE0EDE7F4E001900D928A95E1F78DB79EB786
S1131EF04A970FB6F8949EBF0FBE8DBFADB7BEB75D
S1131F0011968AE1E7E9F4E001900D928A95E1F7F0
S1131F108FEB93E00E94EB078DB79EB785599F4FD7
S1131F200FB6F8949EBF0FBE8DBF8EE093E00E9463
S1131F3088031F910F91EF90DF90CF90AF909F9007
S1131F408F9008950E94CF0E8DB79EB78A5891093D
S1131F500FB6F8949EBF0FBE8DBFADB7BEB7119636
S1131F608AE8EFEBF3E001900D928A95E1F78DB7E3
S1131F709EB78E5991090FB6F8949EBF0FBE8DBFC0
S1131F80ADB7BEB711968EE9EEE0F3E001900D9285
S1131F908A95E1F78CEA93E00E949D128DB79EB773
S1131FA0885D9E4F0FB6F8949EBF0FBE8DBFCFEBDA
S1131FB0D3E0DF93CF938090B0039090B103A090CF
S1131FC0B203B090B303C090B403D090B503E090D3
S1131FD0B603F090B7030091B8031091B9032091B0
S1131FE0BA033091BB034091BC035091BD0360918F
S1131FF0BE038EE093E00E940C068DB79EB78A580C
S113200091090FB6F8949EBF0FBE8DBFADB7BEB792
S113201011968AE8FE0101900D928A95E1F78DB739
S11320209EB78E5991090FB6F8949EBF0FBE8DBF0F
S1132030ADB7BEB711968EE9EEE0F3E001900D92D4
S11320408A95E1F78CEA93E00E949D128DB79EB7C2
S1132050865D9E4F0FB6F8949EBF0FBE8DBFA9CF6D
S11320608DEB94E00E948A068AEB94E00E948A0633
S113207087EB94E00E948A0684EB94E00E948A062F
S113208081EB94E00E948A0687E994E00E94A514FB
S11320908DE794E00E94A51483E694E00E94A514C1
S11320A089E494E00E94A5148FEB93E00E941F073B
S11320B080EB93E00E9435138DEA93E00E940913AC
S11320C08CEA93E00E9469108EE093E00E948703FB
S11320D00895089560E086E00E94030D8EE90E9451
S11320E01E0D60E087E00E94030D8FE90E941E0D23
S11320F00895AF92BF92CF92DF92EF92FF920F9327
S11321001F93CF93DF93CDB7DEB72C970FB6F89418
S1132110DEBF0FBECDBF898D9A8D8230910599F0B7
S11321201CF4019739F031C083309105C1F0049754
S113213019F12BC0CC24C394A12C00E00F2EF3E0A2
S1132140DF2EF02D22C0CC24C3940F2EFBE0AF2E43
S1132150F02D00E00F2EF9E0DF2EF02D16C068946C
S1132160CC24C2F80F2EFBE0AF2EF02D03E00F2E8F
S1132170F9E0DF2EF02D09C06894CC24C2F8A12C1C
S113218003E00F2EF3E0DF2EF02D88A58823C9F09D
S11321908CE890E09A8389838DE890E09C838B831C
S11321A08EE890E09E838D838FE890E098878F83FC
S11321B080E990E09A87898781E990E09C878B8702
S11321C063C08FA18823C9F080E890E09A83898353
S11321D081E890E09C838B8382E890E09E838D83EA
S11321E083E890E098878F8384E890E09A878987D2
S11321F085E890E09C878B8747C086E890E09A83C7
S1132200898387E890E09C838B8388E890E09E83B1
S11322108D8389E890E098878F838AE890E09A8795
S113222089878BE890E09C878B872EC0612F8D2D4A
S11322300E94030DF70180810E941E0D612F8B2DDA
S11322400E94030DF70182810E941E0D1F5FF4E0BE
S1132250EF0EF11C1013EACFCE0149960E94C1146F
S11322608B019C016894EE24E1F8F12C41E06C2D83
S11322708A2D0E94B20E61E06C0D8A2D0E94030D1E
S113228080EA0E941E0D09C0102FCE0101967C0128
S11322900D5FBB24B394BD0CC9CF2C960FB6F89434
S11322A0DEBF0FBECDBFDF91CF911F910F91FF9085
S11322B0EF90DF90CF90BF90AF9008950F931F934E
S11322C0CF93DF93CDB7DEB78C018DB79EB74A9716
S11322D00FB6F8949EBF0FBE8DBFADB7BEB71196B3
S11322E08AE1FE01379601900D928A95E1F7C801C3
S11322F00E9479108DB79EB74A970FB6F8949EBF87
S11323000FBE8DBFADB7BEB711968AE1FE01B1967F
S113231001900D928A95E1F7C8010E9479108DB75A
S11323209EB7C4960FB6F894DEBF0FBECDBF4A97D2
S11323300FB6F8949EBF0FBE8DBFADB7BEB7119652
S11323408AE1FE01FB9601900D928A95E1F7C8019E
S11323500E9479108DB79EB74A970FB6F8949EBF26
S11323600FBE8DBFADB7BEB711968AE1FE01EB5A21
S1132370FF4F01900D928A95E1F7C8010E947910F0
S11323800FB6F894DEBF0FBECDBFDF91CF911F9182
S11323900F91089562307105E9F462E086E00E94CD
S11323A0030D86E90E941E0D62E087E00E94030D82
S11323B087E90E941E0D63E086E00E94030D88E910
S11323C00E941E0D63E087E00E94030D89E90E94CC
S11323D01E0D089562E086E00E94030D82E90E94CA
S11323E01E0D62E087E00E94030D83E90E941E0D2A
S11323F063E086E00E94030D84E90E941E0D63E001
S113240087E00E94030D85E90E941E0D0895CF9375
S1132410DF93CDB7DEB78D819E81029711F480E002
S11324205CC06B968EAD9FAD6B978230910509F4BD
S113243045C034F40097E1F08130910579F108C08A
S11324408430910599F10CF441C085309105D9F09F
S11324508230910599F12CF4009751F00197E9F538
S11324601DC08430910511F18CF10597B1F50BC0B5
S113247061E086E00E94030D8CE90E941E0D8DE947
S11324800E941E0D2AC064E086E00E94030D8CE9C0
S11324900E941E0D8DE90E941E0D1FC061E085E0A3
S11324A00E94030D8AE90E941E0D17C064E085E0B6
S11324B00E94030D8AE90E941E0D0FC061E088E0AE
S11324C00E94030D8BE90E941E0D07C064E088E0A2
S11324D00E94030D8BE90E941E0DDF91CF91089598
S11324E0EF92FF920F931F93CF93DF93CDB7DEB795
S11324F089859A85029711F080E018C0CE0109966B
S11325000E9479068B019C016894EE24E1F8F12C79
S113251041E061E085E00E94950E64E085E00E9460
S1132520030D6C968FAD6C970E94410DDF91CF9196
S11325301F910F91FF90EF9008950F931F93CF93E6
S1132540DF93CDB7DEB78C010E94880CC8010E94CE
S11325506A108DB79EB78A5891090FB6F8949EBF3A
S11325600FBE8DBFADB7BEB711968AE8FE01EB551D
S1132570FF4F01900D928A95E1F7C8010E945E1108
S11325800FB6F894DEBF0FBECDBF6F817885C8014A
S11325900E94CA118DB79EB78E5991090FB6F8944F
S11325A09EBF0FBE8DBFADB7BEB711968EE9FE01BB
S11325B0379601900D928A95E1F7C8010E9407129F
S11325C08DB79EB782569F4F0FB6F894DEBF0FBEED
S11325D0CDBF8E5991090FB6F8949EBF0FBE8DBF23
S11325E0ADB7BEB711968EE9FE01379601900D92F4
S11325F08A95E1F7C8010E9470120FB6F894DEBF05
S11326000FBECDBF0E949D0CDF91CF911F910F9102
S113261008950895FC01608341835283633479F003
S11326206434C1F0623401F524B181E090E002C069
S1132630880F991F4A95E2F7822B84B9089527B130
S113264081E090E002C0880F991F4A95E2F7822B3F
S113265087B908952AB181E090E002C0880F991FDC
S11326604A95E2F7822B8AB90895CF93DF93EC0160
S11326700E948A06CE0103960E948A06CE0106961F
S11326800E948A06CE0109960E948A06CE010C9603
S11326900E948A06DF91CF9108958F929F92AF9204
S11326A0CF92DF92EF920F931F93CF93DF93CDB727
S11326B0DEB7FC0140835183628303831483258343
S11326C0C682D782E0868D859E85AF85848795876F
S11326D0A68781869286A386DF91CF911F910F9161
S11326E0EF90DF90CF90AF909F908F9008950F93CD
S11326F01F93CF93DF93EC018B010E94C5068111D8
S11327001FC0B801CE0103960E94C50681111BC0EB
S1132710B801CE0106960E94C506811117C0B80102
S1132720CE010C960E94C506811113C0B801CE01DA
S113273009960E94C50681110FC08FEF9FEF0EC04E
S113274080E090E00BC081E090E008C082E090E07F
S113275005C084E090E002C083E090E0DF91CF9177
S11327601F910F9108950895ECE7F0E08081816452
S11327708083EAE7F0E080818F6880830895FC011C
S1132780ACE7B0E08C918E7F8C938C918D7F8C9391
S11327908C918B7F8C938C91877F8C9363307105A4
S11327A051F06430710569F06230710579F48C91EF
S11327B081608C930BC0ACE7B0E08C9182608C9309
S11327C005C0ACE7B0E08C9183608C93AAE7B0E0DD
S11327D08C9180648C93108281E040E09C91282F3E
S11327E0392F307194FF242F20833323B9F3609160
S11327F078007091790080E090E00E944C162BE400
S11328003CE340EA5BE30E94FE1608958093BB001C
S113281084E88093BC00ECEBF0E080818823ECF743
S11328209091B900987F983129F081E0983219F499
S113283080E0089580E00895CF9394EA9093BC00DB
S1132840ECEBF0E090819923ECF79091B900987F3C
S1132850983011F0903161F4C62F0E940614813033
S113286039F08C2F0E94061494E99093BC0004C0A4
S113287084E98093BC0081E0CF910895089560E0DD
S11328808EE40E941C140895EF92FF920F931F93FD
S1132890CF93DF93F901161617060CF04FC031E001
S11328A04130510509F030E04230510509F43260FD
S11328B0E130F10511F4346003C0329709F4386053
S11328C00130110511F4306104C00230110509F41E
S11328D030628B01EC0181E0E816F10419F4632FF6
S11328E0606406C092E0E916F10409F5632F60689C
S11328F08EE40E941C141982188289EF90E00197DB
S1132900F1F700C00000288139812F5F3F4F3983E0
S11329102883201731078CF360E08EE40E941C1496
S113292083ED90E30197F1F700C0000007C0632F27
S11329308EE40E941C1419821882DFCFDF91CF919C
S11329401F910F91FF90EF90089543960E94B31347
S113295008950F931F93CF93DF93EC018B0143965C
S11329600E94B4131983088380E090E0A0E2B0E4ED
S11329708A879B87AC87BD87DF91CF911F910F9189
S11329800895CF93DF93EC016881798143960E9487
S1132990BF136A837B838C839D83DF91CF910895DA
S11329A0CF93DF93EC010E94C1148A819B81AC8197
S11329B0BD818A879B87AC87BD87DF91CF910895BE
S11329C08F929F92AF92BF92CF92DF92EF92FF923B
S11329D0CF93DF93FC012685222309F445C0278584
S11329E0211145C0EC010E94C1146B017C016A8372
S11329F07B838C839D8320E030E046E953E46A8541
S1132A007B858C859D850E94FE164B015C0120E030
S1132A1030E046E953E4C701B6010E94FE169B016B
S1132A20AC01C501B4010E94A4156C8B7D8B8E8B07
S1132A309F8B0E9416167A8B698B798F688F188A00
S1132A40772344F47195619571097A8B698B82E0DF
S1132A5090E012C0161617066CF01A8A198A81E0E3
S1132A60888B80E090E008C080E090E005C080E0C2
S1132A7090E002C081E090E0DF91CF91FF90EF9071
S1132A80DF90CF90BF90AF909F908F900895CF9399
S1132A90DF93EC018A819B81AC81BD818E839F830E
S1132AA0A887B987CE010E94C1146A837B838C8373
S1132AB09D832E813F81488559850E94111681117D
S1132AC004C081E08F8780E002C01F8681E0DF912F
S1132AD0CF910895FC01868591E098279687089503
S1132AE00F931F93CF93FC01C685CC2371F09A01F9
S1132AF0AB018C0162857385848595850E94A5153B
S1132B00F80162877387848795878C2FCF911F91F3
S1132B100F9108950F931F93CF93FC01C685CC2387
S1132B2071F09A01AB018C0162857385848595856A
S1132B300E94A415F80162877387848795878C2F78
S1132B40CF911F910F9108955058BB27AA270E9437
S1132B50BC150C94C4160E94B61638F00E94BD161B
S1132B6020F039F49F3F19F426F40C94B3160EF4B4
S1132B70E095E7FB0C94AD16E92F0E94D51658F3A7
S1132B80BA17620773078407950720F079F4A6F54E
S1132B900C94F7160EF4E0950B2EBA2FA02D0B0112
S1132BA0B90190010C01CA01A0011124FF27591B8E
S1132BB099F0593F50F4503E68F11A16F040A22F94
S1132BC0232F342F4427585FF3CF46953795279505
S1132BD0A795F0405395C9F77EF41F16BA0B620B04
S1132BE0730B840BBAF09150A1F0FF0FBB1F661F4B
S1132BF0771F881FC2F70EC0BA0F621F731F841F8E
S1132C0048F4879577956795B795F7959E3F08F0B3
S1132C10B0CF9395880F08F09927EE0F9795879575
S1132C2008950E94891608F481E008950E941D16F3
S1132C306894B1110C94F81608950E94DD1688F07A
S1132C409F5798F0B92F9927B751B0F0E1F0660F6C
S1132C50771F881F991F1AF0BA95C9F714C0B130AD
S1132C6091F00E94F716B1E008950C94F716672FBF
S1132C70782F8827B85F39F0B93FCCF386957795DC
S1132C806795B395D9F73EF49095809570956195C5
S1132C907F4F8F4F9F4F0895E89409C097FB3EF4F0
S1132CA090958095709561957F4F8F4F9F4F992395
S1132CB0A9F0F92F96E9BB279395F6958795779513
S1132CC06795B795F111F8CFFAF4BB0F11F460FFD3
S1132CD01BC06F5F7F4F8F4F9F4F16C0882311F02B
S1132CE096E911C0772321F09EE8872F762F05C03F
S1132CF0662371F096E8862F70E060E02AF09A95DA
S1132D00660F771F881FDAF7880F9695879597F9CE
S1132D100895990F0008550FAA0BE0E8FEEF161668
S1132D201706E807F907C0F012161306E407F507BB
S1132D3098F0621B730B840B950B39F40A2661F02F
S1132D40232B242B252B21F408950A2609F4A140D2
S1132D50A6958FEF811D811D089597F99F6780E8DF
S1132D6070E060E008959FEF80EC089500240A94D9
S1132D701616170618060906089500240A94121652
S1132D801306140605060895092E0394000C11F485
S1132D90882352F0BB0F40F4BF2B11F460FF04C032
S1132DA06F5F7F4F8F4F9F4F089557FD9058440F8B
S1132DB0551F59F05F3F71F04795880F97FB991F96
S1132DC061F09F3F79F08795089512161306140653
S1132DD0551FF2CF4695F1DF08C0161617061806E0
S1132DE0991FF1CF86957105610508940895E894BB
S1132DF0BB2766277727CB0197F908950E941117FF
S1132E000C94C4160E94B61638F00E94BD1620F029
S1132E10952311F00C94AD160C94B31611240C9454
S1132E20F8160E94D51670F3959FC1F3950F50E0E4
S1132E30551F629FF001729FBB27F00DB11D639F68
S1132E40AA27F00DB11DAA1F649F6627B00DA11D0E
S1132E50661F829F2227B00DA11D621F739FB00DB4
S1132E60A11D621F839FA00D611D221F749F332724
S1132E70A00D611D231F849F600D211D822F762FBD
S1132E806A2F11249F5750409AF0F1F088234AF09A
S1132E90EE0FFF1FBB1F661F771F881F9150504006
S1132EA0A9F79E3F510580F00C94AD160C94F816CA
S1132EB05F3FE4F3983ED4F3869577956795B7958D
S1132EC0F795E7959F5FC1F7FE2B880F911D9695A7
S1132ED0879597F9089597FB072E16F4009407D069
S1132EE077FD09D00E947F1707FC05D03EF490952A
S1132EF081959F4F0895709561957F4F0895AA1B02
S1132F00BB1B51E107C0AA1FBB1FA617B70710F0D0
S1132F10A61BB70B881F991F5A95A9F78095909502
S1132F20BC01CD010895EE0FFF1F0590F491E02D33
S1092F300994F894FFCFA0
S9030000FC
