:100000000C94A1040C94C9040C94C9040C94C90464
:100010000C94C9040C94C9040C94C9040C94C9042C
:100020000C94C9040C94C9040C94C9040C94C9041C
:100030000C94C9040C94C9040C94C9040C94C9040C
:100040000C94C9040C94C9040C94C9040C94C904FC
:100050000C94C9040C94C9040C94C9040C94C904EC
:100060000C94C9040C94C9046C0D700D750D7A0DB7
:100070007F0D840D890D8E0D940D9A0DA00DA60D8A
:10008000540F570F5A0F5D0F600F630F660F690F04
:100090006F0F6C0F3F2247224F2257225F226722A9
:1000A0006F2264266C2674267C2684268C269C2649
:1000B0009426A426AC26B426BC26C426CC26D42658
:1000C000DC26E42659277A278A2792278227642765
:1000D0006F279A2780288C288628922898289E287F
:1000E000A428AA28B028B6280AD7233C0AD7A33CBC
:1000F0008FC2F53C0AD7233DCDCC4C3D8FC2753D18
:10010000295C8F3D0AD7A33DEC51B83DCDCCCC3D09
:100110008FC2F53D9A99193ECDCC4C3E9A99993EA5
:100120000000003F0000403F0000803F0000C03F53
:100130000000004000004040C0C0E0A0A0A090909F
:10014000909088888884848484828282828181FFDE
:10015000C0C0E0E0A0A090909090888888848484BB
:1001600084828282828181FFC0C0E0E0E0A0909022
:10017000909088888884848484828282828181FFAE
:10018000C0C0E0E0E0E0F0909090888888848484AB
:1001900084828282828181FFC0C0E0E0E0E0F0F0F2
:1001A000909088888884848484828282828181FF7E
:1001B000C0C0E0E0E0E0F0F0F090888888848484BB
:1001C00084828282828181FFC0C0E0E0E0E0F0F0C2
:1001D000F0F088888884848484828282828181FF8E
:1001E000C0C0E0E0E0E0F0F0F0F0F88888848484BB
:1001F00084828282828181FFC0C0E0E0E0E0F0F092
:10020000F0F0F8F88884848484828282828181FF7D
:10021000C0C0E0E0E0E0F0F0F0F0F8F8F8848484AA
:1002200084828282828181FFC0C0E0E0E0E0F0F061
:10023000F0F0F8F8F8FC848484828282828181FF65
:10024000C0C0E0E0E0E0F0F0F0F0F8F8F8FCFC848A
:1002500084828282828181FFC0C0E0E0E0E0F0F031
:10026000F0F0F8F8F8FCFCFC84828282828181FF45
:10027000C0C0E0E0E0E0F0F0F0F0F8F8F8FCFCFCE2
:10028000FC828282828181FFC0C0E0E0E0E0F0F089
:10029000F0F0F8F8F8FCFCFCFCFE8282828181FF21
:1002A000C0C0E0E0E0E0F0F0F0F0F8F8F8FCFCFCB2
:1002B000FCFEFE82828181FFC0C0E0E0E0E0F0F061
:1002C000F0F0F8F8F8FCFCFCFCFEFEFE828181FFF9
:1002D000C0C0E0E0E0E0F0F0F0F0F8F8F8FCFCFC82
:1002E000FCFEFEFEFE8181FFC0C0E0E0E0E0F0F039
:1002F000F0F0F8F8F8FCFCFCFCFEFEFEFEFF81FFCF
:10030000C0C0E0E0E0E0F0F0F0F0F8F8F8FCFCFC51
:10031000FCFEFEFEFEFFFFFF0000000000000000EC
:10032000005F0000000000070007000000147F14B9
:100330007F140000242A7F2A1200004C2C106864CD
:10034000000036495522500000000503000000005F
:10035000001C22410000000041221C000000140883
:100360003E0814000008083E080800000000503055
:10037000000000101010101000000060600000006D
:1003800000201008040200003E5149453E000000D4
:10039000427F400000004261514946000021414532
:1003A0004B3100001814127F1000002745454539D5
:1003B00000003C4A49493000000171090503000072
:1003C00036494949360000064949291E00000036D1
:1003D00036000000000056360000000008142241DC
:1003E000000000141414141400000041221408002A
:1003F0000002015109060000324979413E00007EA9
:100400001111117E00007F4949493600003E4141EB
:10041000412200007F4141221C00007F494949419F
:1004200000007F0909090100003E4149497A0000A6
:100430007F0808087F000000417F41000000204045
:10044000413F0100007F0814224100007F404040EE
:100450004000007F020C027F00007F0408107F0034
:10046000003E4141413E00007F0909090600003E6F
:100470004151215E00007F09192946000046494983
:100480004931000001017F010100003F4040403F31
:1004900000001F2040201F00003F4038403F000068
:1004A0006314081463000007087008070000615116
:1004B0004945430000007F4141000000020408104C
:1004C0002000000041417F000000040201020400FE
:1004D00000404040404000000001020400000020B5
:1004E0005454547800007F48444438000038444451
:1004F00044200000384444487F00003854545418C5
:100500000000087E09010200000C5252523E000019
:100510007F08040478000000447D40000000204073
:10052000443D0000007F10284400000000417F404F
:100530000000007C0418047800007C0804047800A3
:1005400000384444443800007C14141408000008A7
:100550001414187C00007C0804040800004854545B
:1005600054200000043F44402000003C4040207CD8
:1005700000001C2040201C00003C4030403C00009B
:10058000442810284400000C5050503C00004464A3
:10059000544C4400000008364100000000007F0079
:1005A00000000000413608000000080408100800A0
:1005B00000FFFFFFFFFF00000000E0F0F8F800F888
:1005C000F8F0E00000000000FFFFFFFF00FFFFFF6A
:1005D000FF0000000000070F1F1F001F1F0F070074
:1005E00000000000E010080800080810E00000000B
:1005F0000000FF00000000000000FF0000000000FD
:100600000708101000101008070000004080E010DC
:10061000080800080810E08040000000FF4224188D
:1006200000182442FF00000002010708101000100B
:100630001008070102000000605048440044485080
:10064000600000000000060A12220022120A0600C2
:10065000000000006070787C007C78706000000012
:100660000000060E1E3E003E1E0E06000000183C56
:100670007EE70000000000E77E3C1800000020300C
:10068000381C001C3830200000000000AAAAAAAACA
:1006900000AAAAAAAAAA0000000000000003000005
:1006A000183C7EE7000000E77E3C180000000000D8
:1006B000E7E7420042E7E7000000000000081838C2
:1006C0007000703818080000004080E0F0F8F80072
:1006D000F8F8F0E080400000007EBDDBE700E7DBDB
:1006E000BD7E0000000201070F1F1F001F1F0F0724
:1006F00001020000EEEE00005A005A0000EEEE008B
:10070000000000E090482800284890E00000000029
:1007100000FF88442200224488FF000000000007F8
:1007200008141200121408070000000000E030183E
:100730008800881830E00000000000FF22118800C7
:10074000881122FF0000000000070A11180018118C
:100750000A070000000000E010884800488810E008
:100760000000000000FF11884400448811FF0000D1
:100770000000000709181400141809070000007C85
:100780001211127C00007F4949493100007F49491C
:10079000493600007F010101010000603F213F60F8
:1007A00000007F49494941000077087F0877000031
:1007B000224149493600007F1008047F00007E1066
:1007C00009047E00007F081422410000403E010120
:1007D0007F00007F020C027F00007F0808087F0076
:1007E000003E4141413E00007F0101017F00007F4A
:1007F0000909090600003E41414122000001017F34
:1008000001010000074848483F00000E117F110E0B
:100810000000631408146300003F20203F600000C4
:10082000070808087F00007F407E407F00003F20CF
:100830003F207F0000017F48483000007F483000A3
:100840007F0000007F4848300000224149493E00B7
:10085000007F083E413E0000462919097F00002024
:100860005454547800003C4A4A4A3100007C5454A5
:10087000280000007C04040C000000603C243C6064
:100880000000385454541800006C107C106C0000A8
:10089000004454542800007C2010087C00007C2177
:1008A00012097C00007C1028440000004038040439
:1008B0007C00007C0810087C00007C1010107C007C
:1008C00000384444443800007C0404047C00007C6C
:1008D0001414140800003844444400000004047C4C
:1008E000040400000C5050503C000008147C140814
:1008F0000000442810284400003C20203C600000F8
:100900000C1010107C00007C407C407C00003C20DF
:100910003C207C0000047C50502000007C502000D3
:100920007C0000007C5050200000284454543800C3
:10093000007C103844380000485434147C00000017
:100940005C1E11241FBECFEFD8E0DEBFCDBF13E089
:10095000A0E0B1E0E0E2F1E602C005900D92AA3914
:10096000B107D9F727E0AAE9B3E001C01D92A23888
:10097000B207E1F714E0C1EAD4E004C02197FE0118
:100980000E943B30C03AD107C9F70E94391E0C942F
:100990008E300C94000084569F4FFC011082089505
:1009A0000F931F93CF93DF93EC01CB01FE01EA5627
:1009B000FF4F10823196108220E130E03A83298384
:1009C00008E00F8311E018830E94E9141B8782E07E
:1009D0008C8796E6998775E07A87988794E6998B55
:1009E0001A8A1F8724E0288B9E879BA336E03CA3AE
:1009F00019A32AA398A319A78AA71FA238A745E677
:100A00004EA33D8F9E8F8B8F43E04C8F9A8F1F8A12
:100A1000988F8D8B4E8B9C8B2FA748AB7DA752E771
:100A20005EA75CA797E69DAB0EAB1BAA1CAB0AABFF
:100A30009AAF2BAF18AE89AF2FAB9FAFFE01E05C32
:100A4000FF4F6CE060831DAF4EAF6CAF3496908368
:100A50003196908333978083319640833297908389
:100A600038961083319648E6408333972083319639
:100A700070833297408338961083319649E64083DD
:100A80003397208331963083329740833896108392
:100A900031964AE6408333977083319627E020836E
:100AA0003297408338961083319690833397308302
:100AB00031962083329790833896108231963BE6A8
:100AC000308333970083319629E020833297308337
:100AD0003896108231964CE64083339700833196E6
:100AE0003AE03083329740833896108231964DE653
:100AF00040833397208331962BE0208332974083C5
:100B000038961082319690833397308331962083C4
:100B1000329790833896808331969EE69083339700
:100B2000608331962DE020833297908338968083BE
:100B300031963FE630833397608331969EE0908311
:100B40003297308338968083319630E730833397FD
:100B5000208331962FE0208332973083389680832C
:100B6000319631E7308333979083319690E19083CB
:100B70003297308338968083319650833397208321
:100B800031969083CE57DF4F5883DF91CF911F91DD
:100B90000F9108958F929F92AF92BF92EF92FF9222
:100BA0000F931F93CF93DF93EC01CB017A0164E69F
:100BB00070E00E9419298C018530910519F4188282
:100BC0001F826FC2069719F418821F826AC20F3FF4
:100BD0008FEF180729F41B821C821D821E8261C2BE
:100BE0008F818C3C61F40115110509F05CC281E034
:100BF00088839CE09F83C856DF4F888352C20115CB
:100C0000110539F418821F82C856DF4F81E08883AE
:100C100048C20130110531F00230110531F48F5F07
:100C20008F835DC081508F835AC0883C09F057C0C4
:100C30000330110521F00430110551F150C0570166
:100C4000EAECAE0EB11C2AE037ED43E25CE36B81C7
:100C50007C818D819E810E94EA2D9B01AC01F50172
:100C600060817181828193810E94E92DF501608309
:100C70007183828393838CEE91E5A8EBBDE38B8334
:100C80009C83AD83BE838F81893C09F015C233C03C
:100C90005701FAECAF0EB11C2AE037ED43E25CE3FA
:100CA0006B817C818D819E810E94EA2DF5012081DE
:100CB0003181428153810E94EA2DF5016083718365
:100CC000828393838CEE91E5A8EBBDE38B839C83B9
:100CD000AD83BE838F81893C09F0F3C135C08F811C
:100CE000893C09F058C00330110529F00430110582
:100CF00009F051C029C05701FEECAF0EB11C20E035
:100D000030E040E85FE36B817C818D819E810E94B1
:100D1000EA2D9B01AC01F501608171818281938193
:100D20000E94E92DF501608371838283938380E0C3
:100D300090E0A0E1B1E48B839C83AD83BE838F817F
:100D40008B3C09F084C033C05701FEECAF0EB11CE0
:100D500020E030E040E85FE36B817C818D819E8103
:100D60000E94EA2DF50120813181428153810E9448
:100D7000EA2DF501608371838283938380E090E0A4
:100D8000A0E1B1E48B839C83AD83BE838F818B3CD8
:100D900009F05DC035C08F818B3C09F058C003302D
:100DA000110529F00430110509F051C029C057017F
:100DB000F2EDAF0EB11C20E030E040E85FE36B8164
:100DC0007C818D819E810E94EA2D9B01AC01F50101
:100DD00060817181828193810E94E92DF501608398
:100DE00071838283938380E090E0A0E1B1E48B8300
:100DF0009C83AD83BE838F818A3C09F080C033C061
:100E00005701F2EDAF0EB11C20E030E040E85FE3A7
:100E10006B817C818D819E810E94EA2DF50120816C
:100E20003181428153810E94EA2DF50160837183F3
:100E30008283938380E090E0A0E1B1E48B839C8384
:100E4000AD83BE838F818A3C09F059C033C08F8146
:100E50008A3C09F054C00330110529F00430110513
:100E600009F04DC027C087010A521F4F2AE037ED15
:100E700043E25CE36B817C818D819E810E94EA2D3F
:100E80009B01AC01F80160817181828193810E9494
:100E9000E92DF80160837183828393838CEE91E561
:100EA000A8EBBDE38B839C83AD83BE838F818C3C99
:100EB00080F534C087010A521F4F2AE037ED43E224
:100EC0005CE36B817C818D819E810E94EA2DF8011B
:100ED00020813181428153810E94EA2DF801608393
:100EE0007183828393838CEE91E5A8EBBDE38B83C2
:100EF0009C83AD83BE838F818C3C80F00DC08F813D
:100F00008C3C60F00330110521F00430110531F400
:100F100003C081508F8302C08F5F8F838F81893C94
:100F200018F488EC8F8304C08D3C10F08DEC8F8317
:100F3000F701E653FF4F80809180A280B38020E0CC
:100F400030E0A901C501B4010E94562E181664F0C4
:100F50008AE097EDA3E2BCE3F701E653FF4F8083FD
:100F60009183A283B38315C020E030E040E450E4D5
:100F7000C501B4010E94B52F88235CF080E090E0A9
:100F8000A0E4B0E4F701E653FF4F80839183A2838E
:100F9000B383F701E253FF4F80809180A280B3803A
:100FA00020E030E0A901C501B4010E94562E1816B8
:100FB00044F0F701E253FF4F108211821282138234
:100FC00015C020E030EC49E754E4C501B4010E94AB
:100FD000B52F88235CF080E090ECA9E7B4E4F7013A
:100FE000E253FF4F80839183A283B383F701EE52D4
:100FF000FF4F80809180A280B38020E030E0A90183
:10100000C501B4010E94562E181644F0F701EE52A5
:10101000FF4F108211821282138215C020E030EC43
:1010200049E754E4C501B4010E94B52F88235CF060
:1010300080E090ECA9E7B4E4F701EE52FF4F808323
:101040009183A283B383F701EA52FF4F808091809E
:10105000A280B38020E030E0A901C501B4010E9464
:10106000562E181644F0F701EA52FF4F10821182F3
:101070001282138215C020E030E040E05FE3C5013A
:10108000B4010E94B52F88235CF0F701EA52FF4FAC
:1010900080E090E0A0E0BFE380839183A283B383EC
:1010A00015C080E013C00130110509F4BBCD02303A
:1010B000110509F4B4CD13CE8F818B3C09F0C7CE56
:1010C00076CE8F818B3C09F0C2CE9ACEDF91CF9144
:1010D0001F910F91FF90EF90BF90AF909F908F90D6
:1010E0000895CF92DF92EF92FF920F931F93CF93C9
:1010F000DF93EC01CB018A0164E670E00E941929BC
:101100008530910519F418821F8251C186309105EE
:1011100019F418821F824BC18F3F2FEF920729F4D9
:101120001B821C821D821E8242C12F81243D59F4E4
:10113000009709F03EC181E088839DE09F83C856F7
:10114000DF4F888334C1009739F418821F82C85654
:10115000DF4F81E088832BC18130910531F08230EF
:10116000910531F42F5F2F839FC021502F839CC0A6
:101170003EE2320F323008F097C08330910529F0FB
:101180008430910509F44BC08FC0223DE9F4780109
:101190008AEDE80EF11C2AE037ED43E25CE36B8157
:1011A0007C818D819E810E94EA2D9B01AC01F7011B
:1011B00060817181828193810E94E92DF7016083B2
:1011C0007183828393831CC07801FEEDEF0EF11CC6
:1011D0002AE037ED43E25CE36B817C818D819E8167
:1011E0000E94EA2D9B01AC01F7016081718182812F
:1011F00093810E94E92DF701608371838283938339
:101200008CEE91E5A8EBBDE38B839C83AD83BE831D
:101210002F818CE2820F823008F056C050C0223DF0
:10122000D9F47801FAEDEF0EF11C2AE037ED43E234
:101230005CE36B817C818D819E810E94EA2DF701A8
:1012400020813181428153810E94EA2DF701608320
:101250007183828393831AC07801FEEDEF0EF11C37
:101260002AE037ED43E25CE36B817C818D819E81D6
:101270000E94EA2DF70120813181428153810E9431
:10128000EA2DF70160837183828393838CEE91E56D
:10129000A8EBBDE38B839C83AD83BE832F818CE25F
:1012A000820F823088F40EC02F813CE2320F323040
:1012B00058F48330910519F0049731F403C021509C
:1012C0002F8302C02F5F2F838F81833D18F482ED1F
:1012D0008F8304C0853D10F085ED8F8320E030E0E2
:1012E000A901F801E652FF4F6081718182819381EB
:1012F0000E94562E18163CF0F801E652FF4F10825D
:1013000011821282138220E030E040EA50E4F801BA
:10131000E252FF4F60817181828193810E94B52FDB
:1013200088235CF080E090E0A0EAB0E4F801E252AB
:10133000FF4F80839183A283B3838F81823D19F015
:10134000833DD9F033C0F801E252FF4FC080D18015
:10135000E280F380A70196013497608171818281D8
:1013600093810E94B52F88230CF1F801E652FF4FBC
:10137000C082D182E282F38219C0F801E652FF4FA7
:10138000C080D180E280F380A7019601349660810D
:101390007181828193810E94562E18163CF0F801CB
:1013A000E252FF4FC082D182E282F3820BC080E022
:1013B00009C08130910509F4D8CE8230910509F435
:1013C000D1CE72CFDF91CF911F910F91FF90EF900F
:1013D000DF90CF9008958F929F92AF92BF92EF923D
:1013E000FF920F931F93CF93DF93EC01CB017A0110
:1013F00064E670E00E9419298C018530910519F48A
:1014000018821F824CC1069719F418821F8247C1A7
:101410000F3F8FEF180729F41B821C821D821E824A
:101420003EC18F818F3D61F40115110509F039C16D
:1014300081E088839EE09F83C856DF4F88832FC159
:101440000115110539F418821F82C856DF4F81E05B
:10145000888325C10130110531F00230110531F4C6
:101460008F5F8F831CC081508F8319C08E3DB9F46C
:101470000330110521F00430110549F010C0C701F7
:101480000E94A0148F818C3D09F014C114C0C701C3
:101490000E94A0148F818C3D09F011C135C08F814D
:1014A0008C3D09F058C00330110529F004301105B6
:1014B00009F051C029C05701E2EEAE0EB11C20E088
:1014C00030E040E85FE36B817C818D819E810E94EA
:1014D000EA2D9B01AC01F5016081718182819381CC
:1014E0000E94E92DF501608371838283938380E0FC
:1014F00090E0A0E1B1E48B839C83AD83BE838F81B8
:101500008D3D09F080C033C05701F2EEAF0EB11C23
:1015100020E030E040E85FE36B817C818D819E813B
:101520000E94EA2DF50120813181428153810E9480
:10153000EA2DF501608371838283938380E090E0DC
:10154000A0E1B1E48B839C83AD83BE838F818D3D0D
:1015500009F059C033C08F818D3D09F054C003306C
:10156000110529F00430110509F04DC027C087018D
:101570000A511F4F2AE037ED43E25CE36B817C8127
:101580008D819E810E94EA2D9B01AC01F801608152
:101590007181828193810E94E92DF80160837183BA
:1015A000828393838CEE91E5A8EBBDE38B839C83D0
:1015B000AD83BE838F818F3DA8F12FC087010A5173
:1015C0001F4F2AE037ED43E25CE36B817C818D8124
:1015D0009E810E94EA2DF801208131814281538150
:1015E0000E94EA2DF80160837183828393838CEEDD
:1015F00091E5A8EBBDE38B839C83AD83BE838F8194
:101600008F3D70F40FC08F818F3D60F00330110566
:1016100021F00430110531F403C081508F8302C0E2
:101620008F5F8F838F818D3D18F48CED8F8304C085
:10163000803E10F080EE8F83F701EE51FF4F8080E7
:101640009180A280B38020E030E040EA50E4C50100
:10165000B4010E94562E181664F0F701EE51FF4FA8
:1016600080E090E0A0EAB0E480839183A283B3831A
:1016700015C020E030EC49E754E4C501B4010E94F4
:10168000B52F88235CF0F701EE51FF4F80E090EC1E
:10169000A9E7B4E480839183A283B38315C080E07B
:1016A00013C00130110509F4DECE0230110509F432
:1016B000D7CEF5CE8F818D3D09F0A5CF58CF8F8144
:1016C0008D3D09F0A0CF7ACFDF91CF911F910F917F
:1016D000FF90EF90BF90AF909F908F9008950F93E1
:1016E0001F93CF93DF93EC01CB018A0164E670E096
:1016F0000E9419298530910519F418821F8269C04A
:101700008630910519F418821F8263C08F3F2FEF36
:10171000920709F45EC0009779F42F81263E21F4E8
:10172000C8010E94A81455C02B3E09F054C081E0A6
:1017300088838FE08F834DC02F818130910571F0B8
:101740008230910541F00DC018821F82C856DF4FCC
:1017500081E088833EC02F5F2F8330C021502F83CC
:1017600015C08430910531F48F818B3E29F58CEEC4
:101770008F832FC08330910531F48F818C3EB9F473
:101780008BEE8F8326C08130910531F48F818C3EA2
:10179000A9F48BEE8F831DC08330910541F0843016
:1017A000910551F0892B51F487E0888307C081E0CF
:1017B00088838FE08F830DC087E088838F81873E89
:1017C00018F486EE8F8304C08C3E10F08CEE8F836D
:1017D00005C080E003C02C3E21F6B6CFDF91CF914B
:1017E0001F910F910895CF93DF93EC01CB0164E635
:1017F00070E00E9419299C012550310922303105E1
:1018000028F0019619F086E0888301C080E0DF911E
:10181000CF9108950F931F93CF93DF93EC01CB01EA
:101820008A0164E670E00E9419298530910519F457
:1018300018821F827DC08630910519F418821F829C
:1018400077C08F3F2FEF920709F472C02F81213F9D
:1018500051F4009761F581E088839CE09F83C8562E
:10186000DF4F888365C0009739F418821F82C856FD
:10187000DF4F81E088835CC0203FC9F4833091054D
:1018800021F08430910551F012C0F801E251FF4F70
:101890008081815080830E94D81921C0F801E251D3
:1018A000FF4F80818F5F80830E94D8190FC08130E5
:1018B000910531F08230910531F42F5F2F831DC0E7
:1018C00021502F8314C08430910531F48F81813FE2
:1018D000A1F482EF8F832CC08330910531F48F8186
:1018E000823F59F481EF8F8323C0019731F48F81B8
:1018F000823F19F481EF8F831BC08F81813F18F4E1
:1019000080EF8F8304C0823F10F082EF8F83F80155
:10191000E251FF4F8081873B18F486EB808307C03C
:10192000893C28F0F801E251FF4F89EC808301C027
:1019300080E0DF91CF911F910F9108950F931F9336
:10194000CF93DF93EC018B018F81823069F018F423
:10195000813031F019C0833061F0843081F014C0DF
:10196000CB010E94072D10C0CB01C2960E94072D0B
:101970000BC0CB018C599F4F0E94072D05C0CB0196
:101980008A569F4F0E94072DFE01E456FF4F80812B
:1019900081110DC0C8010E946010882341F088E0C9
:1019A0008883C656DF4F81E090E099838883DF917A
:1019B000CF911F910F910895FC01EA56FF4F21E04E
:1019C0002083FC012781253041F0263061F024304E
:1019D00079F4E756FF4F10820BC021E0FC01E75677
:1019E000FF4F208305C022E0FC01E756FF4F208314
:1019F00028E0FC012083E656FF4F118210820895F3
:101A0000DC011196ED91FC911297EE0FFF1FEE0F86
:101A1000FF1FE851FF4F659175918591949108954D
:101A2000FC01DC01A956BF4F81E08C93878189308E
:101A300039F08A3059F0883071F412961C920BC03C
:101A400081E0DF01A756BF4F8C9305C082E0DF0124
:101A5000A756BF4F8C9382E08083178208950F931F
:101A60001F93CF93DF93EC018B01CA010E94EF1308
:101A700064E670E0C8010E9419298530910521F4BF
:101A800018821F8280E06CC08630910521F4188294
:101A90001F8280E065C08F3F2FEF920709F45FC07F
:101AA0002F8130E0A901440F551F440F551F240F0B
:101AB000351F2C0F3D1FF901E80FF91F22A9822FB6
:101AC00090E0FC01E756F109EC30F10508F044C064
:101AD000EC5CFF4F0C943B3018821F8281E040C0C9
:101AE000CE010E94DC0C81E03BC0CE010E94DC0CE8
:101AF00081E036C0CE010E94DC0C81E031C0CE0115
:101B00000E94100D81E02CC0CE010E94100D81E0DA
:101B100027C0CE010E94100D81E022C083E088839F
:101B200088EC8F8381E01CC084E0888382ED8F8302
:101B300081E016C085E088838CED8F8381E010C042
:101B400086E0888386EE8F8381E00AC089E08883FF
:101B500080EF8F8381E004C02F8381E001C080E0AB
:101B6000DF91CF911F910F910895CF93DF93EC01F7
:101B7000CB0164E670E00E941929019611F480E01F
:101B800005C01882C456DF4F81E08883DF91CF9172
:101B900008950F931F93CF93DF938C01CB01EA013C
:101BA00064E670E00E941929019611F480E008C0F3
:101BB000C451DF4F188286E0F801808386EE878368
:101BC000DF91CF911F910F910895FC01E656FF4FD1
:101BD000208131812230310501F13CF4211531059C
:101BE00059F021303105B1F0089523303105C1F0AD
:101BF0002039314011F10895EFEFFDE329E4E15080
:101C0000F0402040E1F700C0000021E0FC0120830B
:101C1000278308950E94B50D08950E94C90D089567
:101C2000FFEF2DE339E4F15020403040E1F700C0F0
:101C30000000FC01108217820895FFEF2DE339E4C4
:101C4000F15020403040E1F700C0000024E0FC01EA
:101C5000208322ED27830895EF92FF920F931F9325
:101C6000CF93DF93EC018B017A01FC01E456FF4F27
:101C7000808181110EC0CB010E946010882349F041
:101C800088E0888381E090E0FE01E656FF4F918373
:101C90008083C8010E949214C8010E941515811109
:101CA00008C088E08883C656DF4F83E090E09983C0
:101CB000888385E0E816F10429F086E0E816F1044F
:101CC00029F007C0C8010E94001603C0C8010E9485
:101CD0005B15DF91CF911F910F91FF90EF900895C9
:101CE000EF92FF920F931F93CF93DF93EC017B0151
:101CF0008A01CA010E94EF1364E670E0C7010E94E6
:101D00001929AC010597029730F4B801CE010E9461
:101D10002C0E80E039C04F3F8FEF5807A1F19F8113
:101D2000292F30E0C901880F991F280F391F220F72
:101D3000331F2C0F3D1FF901E40FF51F80858536F9
:101D4000A1F018F4843631F01BC08636A9F0823732
:101D500039F016C0B801CE010E949E0C81E014C07B
:101D6000C8010E94E91481E00FC082E08883C801A5
:101D70000E944A1081E008C081E088831F8204C06D
:101D80008F8381E001C080E0DF91CF911F910F919F
:101D9000FF90EF900895CF92DF92EF92FF920F9312
:101DA0001F93CF93DF938C017B016A0164E670E09F
:101DB000C7010E941929EC010597029730F4AE0182
:101DC000B601C8010E942C0E57C0CF3F8FEFD80735
:101DD00009F452C0C6010E941515811109C088E09E
:101DE000F801808383E090E0E656FF4F9183808383
:101DF000C230D105C9F02CF4209749F0219751F059
:101E00002AC0C330D105D1F02497F9F024C0F801DD
:101E1000108221C0C8010E94000DAB01BC019701D6
:101E2000C6010E94DB1817C0C8010E94000DAB015B
:101E3000BC019701C6010E940D190DC0F8018181F6
:101E4000928101979283818306C0F80181819281FA
:101E5000019692838183F801818192811816190677
:101E60001CF01282118207C043972CF083E190E0AE
:101E7000F8019283818301C080E0DF91CF911F91AF
:101E80000F91FF90EF90DF90CF9008950F931F93E5
:101E9000DC01EC910E2F10E00A30110510F5F8016D
:101EA000E05CFF4F0C943B300E94700E1AC00E9401
:101EB0002F0D17C00E94CB0E14C00E94CA0511C07E
:101EC0000E9471080EC00E94EB090BC00E946F0BAC
:101ED00008C00E94F30B05C00E940A0C02C00E94B9
:101EE000E50D1F910F9108950895FC0160834183D2
:101EF000528384EF91E0968385836334A1F0643448
:101F000011F1623479F524B181E090E002C0880FCC
:101F1000991F4A95E2F7982F9095922394B995B11D
:101F2000892B85B9089527B181E090E002C0880F20
:101F3000991F4A95E2F7982F9095922397B998B1F7
:101F4000892B88B908952AB181E090E002C0880FFA
:101F5000991F4A95E2F7982F909592239AB99BB1D1
:101F6000892B8BB90895FC01772374F18081833428
:101F700079F08434B9F0823409F06AC083B190E01A
:101F8000018002C0959587950A94E2F7817013C08D
:101F900086B190E0018002C0959587950A94E2F79A
:101FA000817009C089B190E0018002C09595879544
:101FB0000A94E2F78170882309F44EC080E293E02E
:101FC0009683858380E008951482138285819681AB
:101FD0001816190634F036C025813681821793070A
:101FE0008CF58081833471F08434B1F0823491F5C2
:101FF00023B130E0018002C0359527950A94E2F7BD
:10200000217013C026B130E0018002C035952795BC
:102010000A94E2F7217009C029B130E0018002C0C2
:10202000359527950A94E2F721708FE99FE0019793
:10203000F1F700C00000838194810196948383832B
:10204000222351F284E690E09683858381E008950F
:1020500080E0089580E0089514821382B7CFCF9373
:10206000DF93EC010E94E32ACE01C2960E94E32A8C
:10207000CE018C599F4F0E94E32ACE018A569F4F72
:102080000E94E32ACE0188539F4F0E94F429DF91DA
:10209000CF910895CF93DF93EC010E94212BCE01C5
:1020A000C2960E94212BCE018C599F4F0E94212B5A
:1020B000CE018A569F4F0E94212BDF91CF91089528
:1020C000CF93DF93EC010E946E2D811112C0CE01DF
:1020D000C2960E946E2D81110CC0CE018C599F4F6B
:1020E0000E946E2D811105C0CE018A569F4F0E941D
:1020F0006E2DDF91CF910895CF93DF93FC01DC012A
:10210000A252BF4F8D919D910D90BC91A02D8683C1
:102110009783A087B18780AF91AFA2AFB3AFEF0134
:10212000C659DF4F88839983AA83BB83E29688834D
:102130009983AA83BB83DF01A652BF4F8D919D91E6
:102140000D90BC91A02D82879387A487B58784AF1B
:1021500095AFA6AFB7AFAE9788839983AA83BB83A9
:10216000E056FF4F80839183A283B383DF91CF91A9
:102170000895CF93DF93EC010E94882CCE01C29684
:102180000E94882CCE018C599F4F0E94882CCE0132
:102190008A569F4F0E94882CDF91CF9108952F92ED
:1021A0003F924F925F926F927F928F929F92AF92E7
:1021B000BF92CF92DF92EF92FF920F931F93CF9334
:1021C000DF9300D000D000D0CDB7DEB79E838D83E3
:1021D0000E94E72A6D807E8082E3680E711CC30135
:1021E0000E94E72AED81FE81EC59FF4FFA83E983D3
:1021F000CF010E94E72A4D805E80F6E94F0E511C08
:10220000C2010E94E72A8D819E8188539F4F9C8343
:102210008B832D803E809EEC290E311CF1012081A4
:10222000318142815381AA24A394B12CCC24C3943C
:10223000D12CEE24E394F12C01E010E06AE070E090
:102240008B819C810E94FD298D819E810E94452C5D
:102250008D809E80FEEF8F0E911C90E0F4019183A3
:102260008083C3010E94452CED81FE81F39590E0AF
:102270009183808389819A810E94452CED81FE8122
:10228000EE5FFE4F90E091838083C2010E94452C57
:10229000ED81FE81EC5FFE4F90E091838083F10140
:1022A00020813181428153816894AA24A1F8B12C04
:1022B0006894CC24C1F8D12C6894EE24E1F8F12C78
:1022C00002E010E06AE070E08B819C810E94FD29B1
:1022D000F40180819181892BB9F0ED81FE81F39524
:1022E00080819181892B81F0ED81FE81EE5FFE4F2F
:1022F00080819181892B41F0ED81FE81EC5FFE4F61
:1023000080819181892B61F48D819E8184519F4FC1
:102310009A83898381E0E981FA81808380E001C02A
:1023200081E026960FB6F894DEBF0FBECDBFDF91D9
:10233000CF911F910F91FF90EF90DF90CF90BF90C2
:10234000AF909F908F907F906F905F904F903F9055
:102350002F900895CF93DF93EC0161E070E00E942D
:10236000F62A62E070E0CE01C2960E94F62A63E08F
:1023700070E0CE018C599F4F0E94F62A64E070E015
:10238000CE018A569F4F0E94F62ACE0188539F4F56
:102390000E94F529FE01E85FFE4F81E090E0918305
:1023A0008083CE010E94CF10DF91CF910895CF930B
:1023B000DF93FC01E151FF4FDC0197962D913C9199
:1023C000989731832083AF50BF4FEC01C75ADF4F3E
:1023D0002881398111963C932E931296E29628819A
:1023E000398111963C932E931296E2962881398179
:1023F0002D933C93DF01AC0149505F4F6191719186
:102400001616170624F0E417F507C1F727C0611563
:10241000710539F12D913D911216130624F42617FA
:1024200037070CF4B901A417B507A1F76333710599
:1024300014F062E370E0EC01072E000C880B990B9E
:102440000E94052FC653DF4F288139814A815B8165
:102450000E94BA2F0E94CD2ECB0105C080E090E0F3
:1024600002C080E090E0DF91CF910895CF92DF929B
:10247000EF92FF920F931F93CF93DF93CDB7DEB709
:102480008B859C858230910571F01CF4019739F0A1
:102490001DC08330910571F00497A1F017C0CC24C2
:1024A000C394D12C13C0CC24C3940F2EFBE0DF2E99
:1024B000F02D0CC06894CC24C2F80F2EFBE0DF2E68
:1024C000F02D04C06894CC24C2F8D12CCE010B9618
:1024D0000E94E72A8B019C016894EE24E1F8F12C1C
:1024E00041E06C2D8D2D0E94271C0E94121ADF9155
:1024F000CF911F910F91FF90EF90DF90CF900895B3
:102500002F923F924F925F926F927F928F929F9203
:10251000AF92BF92CF92DF92EF92FF920F931F93F1
:10252000CF93DF93EC018C010A521F4FF8014081D9
:102530005181628173810E94452BFE01E850FF4F5B
:1025400080838DB79EB7C2970FB6F8949EBF0FBE1B
:102550008DBFADB7BEB7119682E3FE0101900D921B
:102560008A95E1F7CE010E9436123E0192E3690E90
:10257000711CEDB7FEB7F2960FB6F894FEBF0FBE12
:10258000EDBFF8014081518162817381C3010E94D6
:10259000452BFE01E750FF4F80838DB79EB7C29752
:1025A0000FB6F8949EBF0FBE8DBFADB7BEB71196E4
:1025B00082E3F30101900D928A95E1F7CE010E942A
:1025C00036124E0194E6890E911CEDB7FEB7F296D5
:1025D0000FB6F894FEBF0FBEEDBFF80140815181E8
:1025E00062817381C4010E94452BFE01E650FF4FBA
:1025F00080838DB79EB7C2970FB6F8949EBF0FBE6B
:102600008DBFADB7BEB7119682E3F40101900D9274
:102610008A95E1F7CE010E9436122E0196E9490E05
:10262000511CEDB7FEB7F2960FB6F894FEBF0FBE81
:10263000EDBFF8014081518162817381C2010E9426
:10264000452BFE01E550FF4F80838DB79EB7C297A3
:102650000FB6F8949EBF0FBE8DBFADB7BEB7119633
:1026600082E3F20101900D928A95E1F7CE010E947A
:102670003612EDB7FEB7F2960FB6F894FEBF0FBE56
:10268000EDBFCE010E94D7114F970CF492C0FE010E
:10269000E550FF4FA080B12C3197C080D12C3197ED
:1026A000E080F12C1E01F8EF2F0E311CF1010081AA
:1026B00010E0BA97208131814281538164E170E05A
:1026C000CE0188539F4F0E94FD29F101808188230C
:1026D00051F0CE010E94452CFE01E250FF4F90E0E8
:1026E0009183808307C081E090E0FE01E250FF4FBC
:1026F00091838083FE01E750FF4F8081882349F05A
:10270000C3010E94452CFE01F39590E091838083E4
:1027100006C081E090E0FE01F39591838083FE0185
:10272000E650FF4F8081882351F0C4010E94452C60
:10273000FE01EE5FFE4F90E09183808307C081E051
:1027400090E0FE01EE5FFE4F91838083FE01E55035
:10275000FF4F8081882351F0C2010E94452CFE0169
:10276000EC5FFE4F90E09183808307C081E090E0B2
:10277000FE01EC5FFE4F91838083FE01E250FF4F2C
:1027800080819181892B79F0329680819181892B8A
:1027900051F0329680819181892B29F03296808187
:1027A0009181892B41F4C451DF4F81E0888380E01F
:1027B00003C081E001C081E0DF91CF911F910F91B3
:1027C000FF90EF90DF90CF90BF90AF909F908F9051
:1027D0007F906F905F904F903F902F900895AF92B1
:1027E000BF92CF92DF92EF92FF920F931F93CF93FE
:1027F000DF93EC018C010A511F4FF8014081518198
:10280000628173810E94BA2C5E01F2E3AF0EB11CAB
:10281000F8014081518162817381C5010E94BA2C07
:102820006E01F4E6CF0ED11CF80140815181628126
:102830007381C6010E94BA2C7E01F6E9EF0EF11CED
:10284000F8014081518162817381C7010E94BA2CD5
:10285000FE01EC5AFF4F9AA18081892BF29690815C
:10286000892BF2969081892BF29680833196908104
:10287000992309F44CC0882309F449C03997608131
:102880007181828193810E94CD2ECE010E946C2C99
:10289000882329F081E0FE01E451FF4F8083FE018F
:1028A000EE51FF4F60817181828193810E94CD2E14
:1028B000C5010E946C2C882329F081E0FE01E451BF
:1028C000FF4F8083FE01EE51FF4F60817181828155
:1028D00093810E94CD2EC6010E946C2C882329F082
:1028E00081E0FE01E451FF4F8083FE01EE51FF4F76
:1028F00060817181828193810E94CD2EC7010E94E7
:102900006C2C882321F0C451DF4F81E08883DF9154
:10291000CF911F910F91FF90EF90DF90CF90BF90DC
:10292000AF900895FC0116A215A2E95AFF4F11823B
:102930001082F29611821082F2961182108208950E
:10294000FC01E551FF4F808191E098279083089525
:10295000FC0110A214A213A2EE5AFF4F108233966C
:1029600011821082BF961082339611821082BF9618
:1029700010823396118210820895FC0120A121114A
:1029800002C021E0278FFC01EE5AFF4F2081211168
:1029900003C021E031972083FC01EC57FF4F2081D9
:1029A000211103C021E031972083FC01EA54FF4F3D
:1029B0002081211103C0319721E020830895FC017B
:1029C000178EEF5AFF4F1082F2961082F296108205
:1029D0000895CF93DF93EC010E94732D8823F9F0C3
:1029E000CE01C2960E94732D8823C9F0CE018C5966
:1029F0009F4F0E94732D882391F0CE018A569F4FDE
:102A00000E94732D882359F01F8EFE01EF5AFF4F4D
:102A10001082F2961082CB54DF4F188203C0CE0191
:102A20000E94BD14DF91CF910895FC01878D811123
:102A30000DC0DF01AF5ABF4F8C91811107C0D296F4
:102A40008C91811103C0EB54FF4F80810895CF9387
:102A5000DF93EC010E94792DCE01C2960E94792D60
:102A6000CE018C599F4F0E94792DCE018A569F4FDF
:102A70000E94792D8A8981110EC0FE01EC5BFF4F07
:102A80008081811108C0F2968081811104C0F29684
:102A90008081882369F01A8AFE01EC5BFF4F108267
:102AA000F2961082F2961082C351DF4F81E0888344
:102AB000DF91CF910895AF92BF92CF92DF92EF92C4
:102AC000FF920F931F93CF93DF93EC018F8D882399
:102AD00031F082E0FE01E850FF4F808304C0FE0128
:102AE000E850FF4F1082FE01EF5AFF4F808188238C
:102AF00029F082E0E855FF4F808304C0FE01E750D3
:102B0000FF4F1082FE01ED57FF4F8081882329F08F
:102B100082E0E958FF4F808304C0FE01E650FF4F7A
:102B20001082FE01EB54FF4F8081882329F082E060
:102B3000EA5BFF4F808304C0FE01E550FF4F108227
:102B4000CE010E94271581111CC0FE01E550FF4FE8
:102B5000E080F12C3197008110E03197A080B12CFA
:102B60003197C080D12CB697608171818281938129
:102B70000E94CD2E9501A601CE0188539F4F0E9441
:102B8000882ADF91CF911F910F91FF90EF90DF90F6
:102B9000CF90BF90AF900895CF93DF93EC010E9448
:102BA000B12DCE01C2960E94B12DCE018C599F4FFE
:102BB0000E94B12DCE018A569F4F0E94B12D8A8965
:102BC00081110EC0FE01EC5BFF4F8081811108C0B6
:102BD000F2968081811104C0F2968081882369F089
:102BE0001A8AFE01EC5BFF4F1082F2961082F29679
:102BF0001082C351DF4F81E08883DF91CF91089528
:102C0000AF92BF92CF92DF92EF92FF920F931F93FA
:102C1000CF93DF93EC018F8D882331F081E0FE01AB
:102C2000E850FF4F808304C0FE01E850FF4F108240
:102C3000FE01EF5AFF4F8081882329F081E0E8559B
:102C4000FF4F808304C0FE01E750FF4F1082FE015A
:102C5000ED57FF4F8081882329F081E0E958FF4F2D
:102C6000808304C0FE01E650FF4F1082FE01EB544A
:102C7000FF4F8081882329F081E0EA5BFF4F80834A
:102C800004C0FE01E550FF4F1082CE010E94CC151A
:102C900081111CC0FE01E550FF4FE080F12C3197FF
:102CA000008110E03197A080B12C3197C080D12CE9
:102CB000B69760817181828193810E94CD2E9501AA
:102CC000A601CE0188539F4F0E94882ADF91CF91A1
:102CD0001F910F91FF90EF90DF90CF90BF90AF903A
:102CE0000895CB0164E170E00E9427300697ECF074
:102CF00062E086E00E94781A86E90E94931A62E0F8
:102D000087E00E94781A87E90E94931A63E086E0C0
:102D10000E94781A88E90E94931A63E087E00E9473
:102D2000781A89E90E94931A089562E086E00E9469
:102D3000781A82E90E94931A62E087E00E94781A6A
:102D400083E90E94931A63E086E00E94781A84E97E
:102D50000E94931A63E087E00E94781A85E90E9436
:102D6000931A08952F923F924F925F926F927F92A3
:102D70008F929F92AF92BF92CF92DF92EF92FF928B
:102D80000F931F93CF93DF93CDB7DEB76A970FB63C
:102D9000F894DEBF0FBECDBF9A8F898F7C8B6B8B73
:102DA0000E94B910E98DFA8DEA5FFE4F81E090E054
:102DB000918380836AE070E08B899C890E94192945
:102DC00098878F83898D9A8D0E948012882309F4B9
:102DD000D9C1812C912C298D3A8D2A5F3E4F3A879B
:102DE0002987898D9A8DC2969A838983E98DFA8D78
:102DF000EC59FF4FFC83EB83298D3A8D2A563F4FC8
:102E00003E832D83298C3A8C36ED230E311C898D1F
:102E10009A8D88509F4F9C878B87E98DFA8DE7505C
:102E2000FF4FFE87ED87298D3A8D26503F4F388B17
:102E30002F87898D9A8D85509F4F9A8B898BE98D2D
:102E4000FA8DE253FF4FFE8BED8B298D3A8D28537F
:102E50003F4F388F2F8BE985FA8580819181181635
:102E600019060CF027C1F4EF8F16F1E09F0609F464
:102E700028C12F8138852F3F3F4F09F083C16AE079
:102E800070E08B899C890E94192998878F83898D8E
:102E90009A8D0E94332B89819A810E94332B8B81DA
:102EA0009C810E94332B8D819E810E94332BB40123
:102EB000898D9A8D0E947116F10140815181628144
:102EC0007381898D9A8D0E94452BEB85FC858083CB
:102ED0002DB73EB7225331090FB6F8943EBF0FBE4F
:102EE0002DBFADB7BEB7119682E3E98DFA8D019083
:102EF0000D928A95E1F7898D9A8D0E9436120FB650
:102F0000F894DEBF0FBECDBFF101408151816281D7
:102F1000738189819A810E94452BED85FE8580838E
:102F20002DB73EB7225331090FB6F8943EBF0FBEFE
:102F30002DBFADB7BEB7119682E3E981FA8101904A
:102F40000D928A95E1F7898D9A8D0E9436120FB6FF
:102F5000F894DEBF0FBECDBFF10140815181628187
:102F600073818B819C810E94452BEF85F88980833A
:102F70002DB73EB7225331090FB6F8943EBF0FBEAE
:102F80002DBFADB7BEB7119682E3EB81FC810190F6
:102F90000D928A95E1F7898D9A8D0E9436120FB6AF
:102FA000F894DEBF0FBECDBFF10140815181628137
:102FB00073818D819E810E94452BE989FA898083E6
:102FC0002DB73EB7225331090FB6F8943EBF0FBE5E
:102FD0002DBFADB7BEB7119682E3ED81FE810190A2
:102FE0000D928A95E1F7898D9A8D0E943612EB85B4
:102FF000FC85008110E0ED85FE85E080F12CEF85F9
:10300000F889C080D12CE989FA89A080B12CC80147
:103010008E0D9F1D8C0D9D1D8A0D9B1DE985FA85CA
:1030200091838083ED89FE89408051806280738026
:103030000FB6F894DEBF0FBECDBF898D9A8D0E946A
:10304000D711A3019201BC018F89988D0E94FD299F
:10305000898D9A8D0E940E2C89819A810E940E2C56
:103060008B819C810E940E2C8D819E810E940E2C52
:103070003FEF831A930A84E68816910451F098EC86
:103080008916910431F0ECE28E16E1E09E0609F01B
:10309000E2CE898D9A8D0E94412C89819A810E946D
:1030A000412C8B819C810E94412C8D819E810E94AC
:1030B000412CD1CE34EF831631E093060CF462C07C
:1030C00000C0E98DFA8DE850FF4F8081882359F0C8
:1030D00081E0E98DFA8D80A322E030E034A323A3C0
:1030E000E451FF4F8083E98DFA8DE750FF4F8081D7
:1030F000882399F081E0E98DFA8DEE5AFF4F8083A5
:1031000022E030E0E98DFA8DEB5AFF4F31832083C6
:10311000E98DFA8DE451FF4F8083E98DFA8DE650F9
:10312000FF4F8081882399F081E0E98DFA8DEC577B
:10313000FF4F808322E030E0E98DFA8DE957FF4FA1
:1031400031832083E98DFA8DE451FF4F8083E98D2F
:10315000FA8DE550FF4F80818823A1F0E98DFA8D2B
:10316000EA54FF4F81E08083E98DFA8DE754FF4FE9
:1031700022E030E031832083298D3A8D24513F4F66
:10318000F90180836A960FB6F894DEBF0FBECDBFFB
:10319000DF91CF911F910F91FF90EF90DF90CF9033
:1031A000BF90AF909F908F907F906F905F904F9067
:1031B0003F902F900895CF92DF92EF92FF920F935E
:1031C0001F93CF93DF93EC016A017B0189010E9479
:1031D0000D2DB701A601CE01C2960E940D2DB7019B
:1031E000A601CE018C599F4F0E940D2DB701A6015B
:1031F000CE018A569F4F0E940D2DB801CE010E942C
:10320000B216CE010E94CC15DF91CF911F910F9184
:10321000FF90EF90DF90CF900895CF92DF92EF92E2
:10322000FF920F931F93CF93DF93EC016A017B0111
:1032300089010E943D2DB701A601CE01C2960E94D0
:103240003D2DB701A601CE018C599F4F0E943D2D07
:10325000B701A601CE018A569F4F0E943D2DB801AD
:10326000CE010E94B216CE010E942715DF91CF91A8
:103270001F910F91FF90EF90DF90CF9008952A98C3
:10328000613011F4299A01C029988EBD0DB407FE52
:10329000FDCF2A9A0895CF92DF92EF92FF920F937B
:1032A0001F93CF93DF936B017C01EA01CA01019761
:1032B000209781F061E070E09B01220F331F660FC1
:1032C000771F660F771F660F771F620F731F0197B7
:1032D00098F702C061E070E0072E000C880B990B94
:1032E0000E94052FA70196010E94BA2F0E94CD2EA1
:1032F000AB01BC01CA0199231CF021E030E002C0FF
:103300002FEF3FEF249FC001259F900D349F900D1C
:10331000112409EA13E00F2EFAE0EF2EF12CF02D24
:103320000F2EFEE2DF2EF02D02C08F01EA01F80120
:10333000B7010E942730805D8293862F972FAE01C0
:103340004150510919F4F8013297D082009769F77A
:1033500014161506D4F4BE0162507109DF0140E372
:103360002197CE1BDF0B4E93CD018C0F9D1F18169E
:103370001906CCF3CB01992314F480E090E08095FA
:103380009095E80FF91F8EE2829380818E3211F4BE
:1033900080E38293332314F48DE28293CF01DF9193
:1033A000CF911F910F91FF90EF90DF90CF900895F4
:1033B000CF93C82F2C9A84B18E6384B92C982C9A01
:1033C00080E58CBD2A9A60E081E20E943F1960E0AE
:1033D0008C2F0E943F1960E086E00E943F1960E058
:1033E00083E10E943F1960E080E20E943F1960E0A3
:1033F0008CE00E943F19CF91089588EF91E0E0EBB7
:10340000F3E0DF019C011D9221503040E1F7109262
:10341000AF031092AE0387EF91E09093AD038093DA
:10342000AC030895EF92FF920F931F93CF93DF9316
:103430008091AE039091AF0399232CF41092AF03C7
:103440001092AE0309C0883F914034F087EF91E0BD
:103450009093AF038093AE038091AC039091AD0342
:1034600099232CF41092AD031092AC0309C0883F4D
:10347000914034F087EF91E09093AD038093AC03DB
:10348000C091AE03D091AF03CE0164E570E00E941D
:103490002730162F60E080680E943F1960E0812F7E
:1034A00080640E943F19E090AC03F090AD03EC16ED
:1034B000FD066CF08E0100551C4F61E0F801819112
:1034C0008F010E943F192196EC16FD06B4F787EF95
:1034D00091E09093AF038093AE031092AD031092EE
:1034E000AC03DF91CF911F910F91FF90EF90089562
:1034F0008E30A8F46630A8F490E09C01220F331FB0
:10350000820F931F880F991F24E5629F800D911DE4
:1035100011249093AB038093AA0380E0089581E087
:10352000089581E008952091AA033091AB03805261
:1035300097E0899FF0011124E85EFC4FD901A05566
:10354000BC4FA9014A545C4F84918D933196A417C6
:10355000B507D1F72A5F3F4F3093AB032093AA03FF
:103560008091AC039091AD038217930724F43093BC
:10357000AD032093AC0380E008954091AA035091DD
:10358000AB0390E0FC01EE0FFF1FE80FF91FEE0FF9
:10359000FF1FEE0FFF1FEE0FFF1FE85CFE4FDA016B
:1035A000A055BC4F9A0128533C4F84918D9331967E
:1035B000A217B307D1F7485E5F4F5093AB03409318
:1035C000AA0380E008950F931F93CF93DF93409158
:1035D000AA035091AB032091AE033091AF03421781
:1035E000530724F45093AF034093AE03E0EEE60F8D
:1035F000E03A08F4A0C0603C08F49CC0E1EEE60F9D
:103600009AC08491880F8D933196A217B307C9F79A
:103610004B5F5F4F5093AB034093AA0365C082306A
:1036200009F062C0CA01845591092091AE0330911E
:10363000AF03821793070CF08EC09093AF03809373
:10364000AE0389C02491220F822F8270982F990F88
:10365000890F982F990F822F8470382F330F830F83
:10366000880F880F892B022F0870019F002D1124CD
:10367000082B30E035952795359527953595279575
:1036800035952795822F8270382F330F830F880F3F
:10369000322F3170932F990F390F832B922F947003
:1036A000392F330F930F990F990F892B922F987001
:1036B000919F902D1124282F292B088309832C9367
:1036C00011962C931197319622961296A617B7074A
:1036D00009F0B8CFCA010B9668EF71E00E9427305D
:1036E0009093AB038093AA038091AA039091AB03BC
:1036F0002091AC033091AD032817390724F490933F
:10370000AD038093AC03FC01E055FC4F1082873F72
:1037100021E0920731F41092AB031092AA0382E0E9
:103720002DC001969093AB038093AA0380E026C03E
:1037300081E024C0EFE5813009F071CF87E0E89F98
:10374000F0011124E85EFC4FDA01A055BC4F9A014C
:103750002B543C4F56CF99235CF327E0E29FF001B6
:103760001124E85EFC4FEA01C45ADC4FDA01A0558F
:10377000BC4FBA0166547C4F18E164CFDF91CF9102
:103780001F910F9108950F931F93CF93DF93D42F21
:1037900089010E94781AF8016081662379F0C0E0FF
:1037A0008D2F0E94E31A813041F0CF5FF801EC0FBA
:1037B000F11D60816111F4CF01C061E0862FDF91BE
:1037C000CF911F910F910895FF920F931F93CF9365
:1037D000DF93F42E89010E94781AF8016081662334
:1037E00091F0C0E06E3221F08F2D0E94E31AD82FA5
:1037F000D13041F0CF5FF801EC0FF11D6081611114
:10380000F1CF01C061E0862FDF91CF911F910F9121
:10381000FF900895DF92EF92FF920F931F93CF9343
:10382000DF93C82FD62FD42EA701C901B8010E945B
:103830004B199C014D2D6D2F8C2F0E94C31BDF91C6
:10384000CF911F910F91FF90EF90DF900895DF923D
:10385000EF92FF920F931F93CF93DF93C82FD62F32
:10386000D42EA701C901B8010E944B199C014D2D0E
:103870006D2F8C2F0E94E41BDF91CF911F910F9130
:10388000FF90EF90DF90089587E496E00E94E4288F
:1038900088E796E00E94AA1168E776E088EA95E05A
:1038A0000E94D0048EE590E00E945530813009F4EA
:1038B0004EC040E050E060E07FE38AE590E00E9487
:1038C000713040E050E068E472E486E590E00E94E8
:1038D000713040E050E060E271E482E590E00E94E7
:1038E000713040E050E0BA018EE490E00E94713007
:1038F0004DEC5CEC6CEC7DE386E490E00E94713072
:103900004DEC5CEC6CE970E482E490E00E94713074
:1039100040E050E068E472E48CE390E00E94713093
:1039200061E080E490E00E9463304FE852EC65EF84
:103930007CE38AE490E00E9471306FEB81E490E0D8
:103940000E94633061E08EE590E00E9463308AE57A
:1039500090E00E945D30609342077093430780932C
:1039600044079093450786E590E00E945D306093A0
:10397000460770934707809348079093490782E56D
:1039800090E00E945D3060934A0770934B078093EC
:103990004C0790934D078EE490E00E945D30609359
:1039A0004E0770934F0780935007909351078AE416
:1039B00090E00E945D3060935E0770935F07809394
:1039C00060079093610786E490E00E945D30609309
:1039D000520770935307809354079093550782E4DE
:1039E00090E00E945D306093560770935707809374
:1039F00058079093590781E490E00E9455308093D6
:103A0000660788E796E00E947C108CE390E00E94B5
:103A10005D3060935A0770935B0780935C079093C7
:103A20005D0780E490E00E94553091E0811101C073
:103A300090E090936307809166070E94D8190895DB
:103A4000882309F470C04091420750914307609168
:103A50004407709145078AE590E00E9471304091DB
:103A6000460750914707609148077091490786E5DE
:103A700090E00E94713040914A0750914B0760914D
:103A80004C0770914D0782E590E00E9471304091A3
:103A90004E0750914F0760915007709151078EE487
:103AA00090E00E947130409152075091530760910D
:103AB00054077091550786E490E00E947130409160
:103AC000560750915707609158077091590782E443
:103AD00090E00E9471306091660781E490E00E945E
:103AE000633088E796E00E947C1040915A0750911D
:103AF0005B0760915C0770915D078CE390E00E942A
:103B0000713040915E0750915F076091600770913E
:103B100061078AE490E00E9471306091630780E45D
:103B200090E00E94633008950F931F93CF93DF932B
:103B300020913E06222399F1EC0188E796E00E944D
:103B4000E72AAB01BC0184E18C9F80018D9F100DA1
:103B50001124C8018C5F9F4F0E9471308AEA96E061
:103B60000E94E72AAB01BC01C801885F9F4F0E94F9
:103B700071308CED96E00E94E72AAB01BC01C801D0
:103B8000845F9F4F0E9471308EE097E00E94E72A89
:103B9000AB01BC01C801805F9F4F0E947130109241
:103BA0003E06DF91CF911F910F9108950F931F93C0
:103BB000CF93DF9320913F06222309F453C0EC01F9
:103BC00088E796E00E94BD1448E756E068EA75E091
:103BD00085E496E00E94492884E18C9F80018D9FB6
:103BE000100D1124C8018C5F9F4F0E945D306093BF
:103BF0009306709394068093950690939606C80159
:103C0000885F9F4F0E945D306093C5067093C60623
:103C10008093C7069093C806C801845F9F4F0E9497
:103C20005D306093F7067093F8068093F9069093E1
:103C3000FA06C801805F9F4F0E945D30609329079C
:103C400070932A0780932B0790932C0767E476E004
:103C500088E796E00E94B21688E796E00E94DF149B
:103C60001092A80510923F06DF91CF911F910F91FE
:103C700008950E94441CC1E4D6E000E416E048E741
:103C800056E067E476E088EA95E00E94460F48E750
:103C900056E068EA75E085E496E00E94492888814C
:103CA00090E00E94941D888190E00E94D61DF8014A
:103CB00080810E94201DE3CF88E796E00E942F10AC
:103CC00087E496E00E94C42885E496E00E946D1E79
:103CD00088EA95E00E94CB0408950895FB0187814E
:103CE000843020F520E031E041E060E085E00E9492
:103CF000C31B25E031E041E061E082E00E94C31B8C
:103D000020E131E041E062E082E00E94C31B2AE151
:103D100031E041E063E082E00E94C31B24E231E035
:103D200041E064E082E00E94C31B0895883020F5E2
:103D300020E131E041E060E083E00E94C31B20E32A
:103D400031E041E061E082E00E94C31B29E331E001
:103D500041E062E082E00E94C31B25E431E041E0E3
:103D600063E082E00E94C31B24E231E041E064E0B2
:103D700082E00E94C31B08958C3020F525E031E0DD
:103D800041E060E083E00E94C31B20E331E041E0BA
:103D900061E082E00E94C31B22E531E041E062E085
:103DA00082E00E94C31B25E431E041E063E082E051
:103DB0000E94C31B24E231E041E064E082E00E9403
:103DC000C31B08952AE131E041E060E083E00E94F6
:103DD000C31B2EE531E041E061E082E00E94C31B9D
:103DE00029E631E041E062E082E00E94C31B25E762
:103DF00031E041E063E082E00E94C31B20E831E053
:103E000041E064E082E00E94C31B27E831E041E02A
:103E100065E082E00E94C31B0895CF92DF92EF928B
:103E2000FF920F931F93CF93DF936B01EA012EE56F
:103E300031E041E060E082E00E94C31B2FE831E006
:103E400041E061E080E00E94C31B27E931E041E0EE
:103E500062E080E00E94C31B2FE931E041E063E0B3
:103E600080E00E94C31B28EA31E041E064E080E08A
:103E70000E94C31B65E083E00E94781A8EE90E94CD
:103E8000931A8FE90E94931A65E088E00E94781ADD
:103E90008DEA0E94931A8EEA0E94931AFE01E6535D
:103EA000FF4F00811181228133816894EE24E1F873
:103EB000F12C41E061E089E00E940A1CFE01E2531E
:103EC000FF4F20E030E048EC52E460817181828154
:103ED00093810E945B2E8B019C0141E062E08AE0AD
:103EE0000E94271CFE01EA52FF4F008111812281AE
:103EF000338141E063E089E00E940A1CCE52DF4F2B
:103F000020E030E048EC52E4688179818A819B812D
:103F10000E945B2E8B019C0141E064E08AE00E94DC
:103F2000271CF60187818A3C61F128F4883C59F00E
:103F3000893CC1F053C08C3C09F441C088F18D3CF0
:103F400009F445C04BC061E088E00E94781A8AE914
:103F50000E94931A61E08DE00E94781A8BE90E941A
:103F6000931A3CC062E088E00E94781A8AE90E94B5
:103F7000931A62E08DE00E94781A8BE90E94931AEE
:103F80002DC063E088E00E94781A8AE90E94931AA3
:103F900063E08DE00E94781A8BE90E94931A1EC09C
:103FA00064E088E00E94781A8AE90E94931A64E02B
:103FB0008DE00E94781A8BE90E94931A0FC065E089
:103FC00082E00E94781A82EA0E94931A07C065E094
:103FD00087E00E94781A82EA0E94931ADF91CF91BB
:103FE0001F910F91FF90EF90DF90CF900895CF92A7
:103FF000DF92EF92FF920F931F93CF93DF936B01AA
:10400000EA0129E631E041E060E082E00E94C31B62
:104010002CEA31E041E062E082E00E94C31BFE0135
:10402000E652FF4F00811181228133816894EE2492
:10403000E1F8F12C41E062E088E00E940A1C20EBEC
:1040400031E041E063E082E00E94C31BC252DF4FD7
:10405000088119812A813B8141E063E088E00E9468
:104060000A1CF6018781833DC1F018F4823D31F0CE
:1040700032C0843D09F1853D39F12DC062E087E011
:104080000E94781A8AE90E94931A62E08CE00E94EA
:10409000781A82EA0E94931A1EC063E087E00E94A9
:1040A000781A8AE90E94931A63E08CE00E94781AD9
:1040B00082EA0E94931A0FC065E082E00E94781A9B
:1040C00082EA0E94931A07C065E088E00E94781A8D
:1040D00082EA0E94931A65E083E00E94781A8EE9D2
:1040E0000E94931A8FE90E94931A65E089E00E946A
:1040F000781A8DEA0E94931A8EEA0E94931ADF9131
:10410000CF911F910F91FF90EF90DF90CF90089586
:10411000CF92DF92EF92FF920F931F93CF93DF9393
:104120006B01EA0125E731E041E060E082E00E94B6
:10413000C31B24EB31E041E061E080E00E94C31B3F
:1041400021EC31E041E062E080E00E94C31B27ECFB
:1041500031E041E063E080E00E94C31B2DEC31E0E0
:1041600041E064E080E00E94C31BFE01EE51FF4F7E
:1041700020E030E048EC52E46081718182819381DB
:104180000E945B2E8B019C016894EE24E1F8F12CD7
:1041900041E062E08AE00E94271CFE01EA51FF4FE5
:1041A000008111812281338141E063E089E00E9436
:1041B0000A1CC551DF4F8881813041F026ED31E086
:1041C00041E064E08AE00E94C31B07C02AED31E0B1
:1041D00041E064E08AE00E94C31BF60187818E3DC6
:1041E00059F028F48C3DF9F08D3D71F03AC08F3DC7
:1041F00049F1803E79F135C064E089E00E94781A87
:1042000082EA0E94931A2DC063E088E00E94781A27
:104210008AE90E94931A63E08DE00E94781A8BE984
:104220000E94931A1EC062E088E00E94781A8AE910
:104230000E94931A62E08DE00E94781A8BE90E9436
:10424000931A0FC065E082E00E94781A82EA0E9409
:10425000931A07C065E088E00E94781A82EA0E94FB
:10426000931A65E083E00E94781A8EE90E94931AFF
:104270008FE90E94931A65E089E00E94781A8DEA1E
:104280000E94931A8EEA0E94931ADF91CF911F9198
:104290000F91FF90EF90DF90CF900895CF92DF9233
:1042A000EF92FF920F931F93CF93DF936B01EA017D
:1042B0002EED31E041E060E082E00E94C31B2BEE76
:1042C00031E041E061E082E00E94C31B24EF31E075
:1042D00041E062E082E00E94C31B2DEF31E041E04B
:1042E00063E082E00E94C31B26E032E041E064E02C
:1042F00082E00E94C31B65E083E00E94781A8EE989
:104300000E94931A8FE90E94931A65E089E00E9447
:10431000781A8DEA0E94931A8EEA0E94931A2FE06F
:1043200032E041E061E08BE00E94C31B2FE032E00D
:1043300041E062E08BE00E94C31B2FE032E041E0ED
:1043400063E08BE00E94C31B2FE032E041E064E0B9
:104350008BE00E94C31B8BA19CA118161906C4F404
:1043600022E132E041E061E08BE00E94C31B6BA1DF
:104370007CA1072E000C880B990B0E94052F8B0146
:104380009C01E12CF12C41E061E08CE00E940A1CD0
:10439000FE01EB5AFF4F8081918118161906DCF45B
:1043A00022E132E041E062E08BE00E94C31BFE01AB
:1043B000EB5AFF4F60817181072E000C880B990B1F
:1043C0000E94052F8B019C01E12CF12C41E062E061
:1043D0008CE00E940A1CFE01E957FF4F8081918109
:1043E00018161906DCF422E132E041E063E08BE0CC
:1043F0000E94C31BFE01E957FF4F60817181072EA8
:10440000000C880B990B0E94052F8B019C01E12C5D
:10441000F12C41E063E08CE00E940A1CFE01E754AD
:10442000FF4F8081918118161906D4F422E132E001
:1044300041E064E08BE00E94C31BC754DF4F6881FA
:104440007981072E000C880B990B0E94052F8B0198
:104450009C01E12CF12C41E064E08CE00E940A1CFC
:10446000D6011796EC918E2F90E0FC01E65EF109E3
:10447000E730F105D8F5E65BFF4F0C943B3060E088
:1044800080E00E94781A8BE90E94931A2FC061E0A5
:1044900080E00E94781A8BE90E94931A27C062E09C
:1044A00080E00E94781A8BE90E94931A1FC063E093
:1044B00080E00E94781A8BE90E94931A17C064E08A
:1044C00080E00E94781A8BE90E94931A0FC065E081
:1044D00082E00E94781A82EA0E94931A07C065E07F
:1044E00088E00E94781A82EA0E94931ADF91CF91A5
:1044F0001F910F91FF90EF90DF90CF900895CF9292
:10450000DF92EF92FF920F931F93CF93DF93CDB77C
:10451000DEB7CEA4DFA4C114D10441F424E132E01B
:1045200041E062E081E00E94C31B39C02FE132E02C
:1045300041E061E081E00E94C31BB6010D2C000C3C
:10454000880B990B0E94052F8B019C01E12CF12C0B
:1045500041E061E089E00E940A1C82E0C816D104B3
:1045600079F083E0C816D10499F0CA94CD28B9F443
:1045700028E232E041E062E080E00E94C31B0FC00D
:104580002CE532E041E062E080E00E94C31B07C0FE
:1045900025E832E041E062E080E00E94C31BDF9149
:1045A000CF911F910F91FF90EF90DF90CF900895E2
:1045B0000F931F93CF93DF938C01EA01FB01878157
:1045C000883E79F118F4873E41F09BC0893E09F49A
:1045D0004DC08A3E09F470C094C023EB32E041E044
:1045E00060E083E00E94C31B8DB79EB7C2970FB6F1
:1045F000F8949EBF0FBE8DBFADB7BEB7119682E3D4
:10460000FE0101900D928A95E1F7C8010E947F2278
:10461000EDB7FEB7F2960FB6F894FEBF0FBEEDBF32
:1046200070C02CEB32E041E060E083E00E94C31BED
:104630008DB79EB7C2970FB6F8949EBF0FBE8DBFC1
:10464000ADB7BEB7119682E3FE01F29601900D92CE
:104650008A95E1F7C8010E947F22EDB7FEB7F29676
:104660000FB6F894FEBF0FBEEDBF4BC025EC32E095
:1046700041E060E083E00E94C31BFE01EC59FF4F64
:104680008DB79EB7C2970FB6F8949EBF0FBE8DBF71
:10469000ADB7BEB7119682E301900D928A95E1F70E
:1046A000C8010E947F22EDB7FEB7F2960FB6F894CC
:1046B000FEBF0FBEEDBF25C02EEC32E041E060E052
:1046C00083E00E94C31BFE01EA56FF4F8DB79EB7E1
:1046D000C2970FB6F8949EBF0FBE8DBFADB7BEB7E1
:1046E000119682E301900D928A95E1F7C8010E942C
:1046F0007F22EDB7FEB7F2960FB6F894FEBF0FBE5D
:10470000EDBFDF91CF911F910F9108950F931F93EC
:10471000CF93DF938B01EA0127E831E041E060E0CD
:1047200083E00E94C31B27ED32E041E061E080E0BE
:104730000E94C31B65E083E00E94781A8EE90E9404
:10474000931A8FE90E94931A65E089E00E94781A13
:104750008DEA0E94931A8EEA0E94931A63E085E024
:104760000E94781AC251DF4F8881865B0E94BD1A71
:10477000F8018781813F99F0823FC9F0803FF1F4D1
:1047800063E083E00E94781A8AE90E94931A63E04A
:104790008AE00E94781A8BE90E94931A0FC065E0A4
:1047A00082E00E94781A82EA0E94931A07C065E0AC
:1047B00088E00E94781A82EA0E94931ADF91CF91D2
:1047C0001F910F91089560E086E00E94781A8EE9AB
:1047D0000E94931A60E087E00E94781A8FE90E9495
:1047E000931A0895FB018081823051F065E086E0E4
:1047F0000E94781A83EA0E94931A84EA0E94931A0C
:104800000895AF92BF92CF92DF92EF92FF920F93F3
:104810001F93CF93DF93CDB7DEB72C970FB6F894E5
:10482000DEBF0FBECDBF298D3A8D22303105A9F0F4
:1048300024F42130310541F032C023303105C9F074
:104840002430310519F12BC0CC24C394A12C00E0F5
:104850000F2EF3E0DF2EF02D22C0CC24C3940F2EB8
:10486000FBE0AF2EF02D00E00F2EF9E0DF2EF02D53
:1048700016C06894CC24C2F80F2EFBE0AF2EF02DAA
:1048800003E00F2EF9E0DF2EF02D09C06894CC2450
:10489000C2F8A12C03E00F2EF3E0DF2EF02D2C96B2
:1048A0002FAD2C97222309F47DC0FC01208131819A
:1048B0002F5F3F4F318320832F31310534F0118238
:1048C000108289AD811104C01FC089AD8823C9F051
:1048D0008CE890E09A8389838DE890E09C838B83B9
:1048E0008EE890E09E838D838FE890E098878F8399
:1048F00080E990E09A87898781E990E09C878B879F
:10490000ECC02A303105CCF48FEA90E09A83898399
:1049100080EB90E09C838B8381EB90E09E838D8382
:1049200082EB90E098878F8383EB90E09A8789876A
:1049300084EB90E09C878B87D0C024313105CCF488
:1049400085EB90E09A83898386EB90E09C838B8350
:1049500087EB90E09E838D8388EB90E098878F8330
:1049600089EB90E09A8789878AEB90E09C878B8718
:10497000B4C08BEB90E09A8389838CEB90E09C83AE
:104980008B838DEB90E09E838D838EEB90E09887F8
:104990008F838FEB90E09A87898780EC90E09C87EB
:1049A0008B879BC089AD8823A9F188AD8823C9F086
:1049B00087EA90E09A83898388EA90E09C838B83DE
:1049C00089EA90E09E838D838AEA90E098878F83BE
:1049D0008BEA90E09A8789878CEA90E09C878B87A6
:1049E0007CC08CE890E09A8389838DE890E09C837A
:1049F0008B838EE890E09E838D838FE890E098878C
:104A00008F8380E990E09A87898781E990E09C878D
:104A10008B8763C088AD8823C9F080E890E09A83D3
:104A2000898381E890E09C838B8382E890E09E8379
:104A30008D8383E890E098878F8384E890E09A875D
:104A4000898785E890E09C878B8747C086E890E05F
:104A50009A83898387E890E09C838B8388E890E041
:104A60009E838D8389E890E098878F838AE890E021
:104A70009A8789878BE890E09C878B872EC0612F6F
:104A80008D2D0E94781AF70180810E94931A612F60
:104A90008B2D0E94781AF70182810E94931A1F5F62
:104AA000F4E0EF0EF11C1013EACFCE0149960E94FC
:104AB000E72A8B019C016894EE24E1F8F12C41E097
:104AC0006C2D8A2D0E94271C61E06C0D8A2D0E949E
:104AD000781A80EA0E94931A09C0102FCE0101961D
:104AE0007C010D5FBB24B394BD0CC9CF2C960FB6CF
:104AF000F894DEBF0FBECDBFDF91CF911F910F9114
:104B0000FF90EF90DF90CF90BF90AF900895EF921D
:104B1000FF920F931F93CF93DF938C017B018AEE5B
:104B2000E80EF11CF70180818F938DB79EB7C29775
:104B30000FB6F8949EBF0FBE8DBFADB7BEB711962E
:104B400082E3FB0101900D928A95E1F7C8010E9472
:104B50000124EDB7FEB7F3960FB6F894FEBF0FBE73
:104B6000EDBFF70180818F938DB79EB7C2970FB6C7
:104B7000F8949EBF0FBE8DBFADB7BEB7119682E34E
:104B8000E85BF10901900D928A95E1F7C8010E9456
:104B90000124EDB7FEB7F3960FB6F894FEBF0FBE33
:104BA000EDBFF70180818F93E658F1098DB79EB76D
:104BB000C2970FB6F8949EBF0FBE8DBFADB7BEB7FC
:104BC000119682E301900D928A95E1F7C8010E9447
:104BD0000124EDB7FEB7F3960FB6F894FEBF0FBEF3
:104BE000EDBFF70180818F93E455F1098DB79EB732
:104BF000C2970FB6F8949EBF0FBE8DBFADB7BEB7BC
:104C0000119682E301900D928A95E1F7C8010E9406
:104C10000124EDB7FEB7F3960FB6F894FEBF0FBEB2
:104C2000EDBFDF91CF911F910F91FF90EF9008950D
:104C3000FB0180818230E9F462E086E00E94781A0C
:104C400086E90E94931A62E087E00E94781A87E959
:104C50000E94931A63E086E00E94781A88E90E9415
:104C6000931A63E087E00E94781A89E90E94931AF8
:104C7000089562E086E00E94781A82E90E94931A01
:104C800062E087E00E94781A83E90E94931A63E049
:104C900086E00E94781A84E90E94931A63E087E014
:104CA0000E94781A85E90E94931A0895DB011796ED
:104CB000EC918E2F90E08131910508F08CC0FC01C1
:104CC000EF5AFF4F0C943B3061E080E00E94781A6D
:104CD0008BE90E94931A089562E080E00E94781A9E
:104CE0008BE90E94931A089563E080E00E94781A8D
:104CF0008BE90E94931A089564E080E00E94781A7C
:104D00008BE90E94931A089561E080E00E94781A6E
:104D10008BE90E94931A089562E080E00E94781A5D
:104D20008BE90E94931A089564E080E00E94781A4B
:104D30008BE90E94931A089563E080E00E94781A3C
:104D40008BE90E94931A089561E080E00E94781A2E
:104D50008BE90E94931A089562E080E00E94781A1D
:104D60008BE90E94931A089563E080E00E94781A0C
:104D70008BE90E94931A089564E080E00E94781AFB
:104D80008BE90E94931A089561E080E00E94781AEE
:104D90008BE90E94931A089562E080E00E94781ADD
:104DA0008BE90E94931A089563E080E00E94781ACC
:104DB0008BE90E94931A089564E080E00E94781ABB
:104DC0008BE90E94931A089565E080E00E94781AAA
:104DD0008BE90E94931A08950F931F93CF93DF934B
:104DE000EC018B010E946E1EB801CE010E94562676
:104DF000DF91CF911F910F910895EF92FF920F9342
:104E00001F93CF93DF93FB018081823011F080E00C
:104E100016C0EB01CB010E94000D8B019C01689430
:104E2000EE24E1F8F12C41E061E085E00E940A1CEB
:104E300064E085E00E94781A89810E94BD1ADF91A2
:104E4000CF911F910F91FF90EF90089561E085E061
:104E50000E94781A8AE90E94931A64E085E00E9411
:104E6000781A8AE90E94931A61E088E00E94781A11
:104E70008BE90E94931A64E088E00E94781A8BE91B
:104E80000E94931A08959C01DB019C91923011F4C9
:104E900080E00895DB011796EC914E2F50E04830EA
:104EA000510508F049C0C901FA01EE59FF4F0C94B1
:104EB0003B3061E086E00E94781A8CE90E94931AE8
:104EC0008DE90E94931A38C061E086E00E94781A4A
:104ED00085EA0E94931A86EA0E94931A2DC064E024
:104EE00086E00E94781A85EA0E94931A86EA0E9458
:104EF000931A22C061E085E00E94781A8AE90E9434
:104F0000931A1AC064E085E00E94781A8AE90E9428
:104F1000931A12C061E088E00E94781A8BE90E941F
:104F2000931A0AC064E088E00E94781A8BE90E9414
:104F3000931A02C00E9426270895EF92FF920F93C2
:104F40001F93CF93DF93EC018B017A010E94E3233F
:104F5000B801CE010E94F223B701CE010E9487253D
:104F6000B801CE010E941826B801CE010E94432745
:104F7000B801CE010E94FD26DF91CF911F910F91C4
:104F8000FF90EF90089525EE32E041E062E082E08C
:104F90000E94C31B089522EF32E041E060E083E00D
:104FA0000E94C31B2BEF32E041E061E081E00E94F0
:104FB000C31B20E333E041E065E081E00E94C31BB6
:104FC00008952BE333E041E060E084E00E94C31BDE
:104FD00022E433E041E061E080E00E94C31B2FE463
:104FE00033E041E062E080E00E94C31B2EE533E045
:104FF00041E063E080E00E94C31B25E633E041E02E
:1050000065E082E00E94C31B089520E733E041E0A1
:1050100062E083E00E94C31B29E733E041E063E0E4
:1050200083E00E94C31B089523E833E041E062E07F
:1050300083E00E94C31B2EE833E041E063E082E09E
:105040000E94C31B0895FB01E656FF4F208131816A
:1050500022303105A9F03CF42115310559F02130F9
:10506000310559F008952330310569F02039314078
:1050700069F008950E94C32708950E94CB270895E0
:105080000E94E12708950E94052808950E9414288F
:105090000895EF92FF920F931F93CF93DF937C01BC
:1050A000EB018A01FA01E451FF4F8081882351F01E
:1050B000108288E0888382E090E0FB01E656FF4F93
:1050C00091838083F801E351FF4F8081882351F061
:1050D000108288E0888380E991E0FE01E656FF4F68
:1050E000918380830E94FD19E8818E2F90E08A30A1
:1050F000910508F040C0FC01E659FF4F0C943B308D
:10510000A801BE01C7010E949D2735C0A801BE01AC
:10511000C7010E949D272FC0A801BE01C7010E94A0
:10512000EC2629C0A801BE01C7010E940D1F23C0A3
:10513000A801BE01C7010E94F71F1DC0A801BE0142
:10514000C7010E94882017C0A801BE01C7010E94A4
:105150004E2111C0A801BE01C7010E94D8220BC078
:10516000A801BE01C7010E94232805C0A801BE01F5
:10517000C7010E9486230E94121ADF91CF911F91CE
:105180000F91FF90EF900895CF93DF93EC010E9471
:10519000740FCE0107960E94740FCE010E960E94E6
:1051A000740FCE0145960E94740FCE014C960E945A
:1051B000740FCE0183960E94740FCE018A960E94CE
:1051C000740FDF91CF910895CF93DF93EC0140E00E
:1051D00050E064E40E94750F41E050E064E4CE01C9
:1051E00007960E94750F42E050E064E4CE010E96EF
:1051F0000E94750F43E050E064E4CE0145960E94A2
:10520000750F44E050E064E4CE014C960E94750FA7
:1052100045E050E064E4CE0183960E94750F46E0BD
:1052200050E064E4CE018A960E94750FDF91CF9121
:1052300008950F931F93CF93DF93EC018B010E968C
:105240000E94B30F81112CC0B801CE0145960E9477
:10525000B30F811128C0B801CE014C960E94B30F44
:10526000811124C0B801CE018A960E94B30F81112A
:1052700020C0B801CE0183960E94B30F81111CC0DB
:10528000B801CE010E94B30F811119C0B801CE013F
:1052900007960E94B30F811115C08FEF9FEF14C0C6
:1052A00080E090E011C081E090E00EC082E090E0EC
:1052B0000BC084E090E008C083E090E005C085E08A
:1052C00090E002C086E090E0DF91CF911F910F91B6
:1052D00008950895ECE7F0E0808181648083EAE737
:1052E000F0E080818F6880830895FC01ACE7B0E036
:1052F0008C918E7F8C938C918D7F8C938C918B7FF6
:105300008C938C91877F8C936330710551F064305E
:10531000710569F06230710579F48C9181608C932C
:105320000BC0ACE7B0E08C9182608C9305C0ACE719
:10533000B0E08C9183608C93AAE7B0E08C9180649C
:105340008C93108281E040E09C91282F392F30719E
:1053500094FF242F20833323B9F360917800709158
:10536000790080E090E00E94032F2BE43CE340EAC8
:105370005BE30E94BA2F08958093BB0084E880937A
:10538000BC00ECEBF0E080818823ECF79091B90051
:10539000987F983129F081E0983219F480E00895DF
:1053A00080E00895CF9394EA9093BC00ECEBF0E09A
:1053B00090819923ECF79091B900987F983011F083
:1053C000903161F4C62F0E94BC29813039F08C2FB6
:1053D0000E94BC2994E99093BC0004C084E98093A6
:1053E000BC0081E0CF910895089587E28093B800D2
:1053F00060E08EE70E94D2290895AF92BF92CF92CB
:10540000DF92EF92FF920F931F93CF93DF93EC0104
:10541000161617060CF071C091E00130110509F065
:1054200090E00230110509F4926081E0E816F10481
:1054300011F4946005C082E0E816F10409F4986064
:1054400081E0C816D10411F4906105C082E0C8164D
:10545000D10409F4906269017A018B0181E0A816F8
:10546000B10419F4692F606406C082E0A816B10483
:10547000E9F5692F60688EE70E94D22919821882A7
:105480008FE99FE00197F1F700C0000088819981C2
:105490000196998388838017910794F360E08EE7E3
:1054A0000E94D2291982188220E030E0A901C701A8
:1054B000B6010E94B52F181604F58FE99FE00197F9
:1054C000F1F700C00000688179816F5F7F4F7983B9
:1054D0006883072E000C880B990B0E94052FA701EB
:1054E00096010E94562E882344F307C0692F8EE749
:1054F0000E94D22919821882C3CFDF91CF911F91C8
:105500000F91FF90EF90DF90CF90BF90AF900895F4
:10551000EF92FF920F931F93CF93DF93F90116162B
:1055200017060CF049C031E04130510509F030E078
:105530004230510509F43260E130F10511F4346074
:1055400003C0329709F438600130110511F430615D
:1055500004C00230110509F430628B01EC0181E0D6
:10556000E816F10419F4632F606406C092E0E916AE
:10557000F104D9F4632F60688EE70E94D229198262
:1055800018828FE99FE00197F1F700C000002881A1
:1055900039812F5F3F4F39832883201731078CF3E0
:1055A00060E08EE70E94D22907C0632F8EE70E9439
:1055B000D22919821882E5CFDF91CF911F910F91E7
:1055C000FF90EF9008958B960E9469290895CF93DC
:1055D000DF93EC01688179818B960E9475296A833B
:1055E0007B838C839D83DF91CF9108950F931F93CD
:1055F000CF93DF93EC018B018B960E946A2919836C
:10560000088380E090E0A0EAB0E48E839F83A887BF
:10561000B9878AE097EDA3E2BCE38A879B87AC87D2
:10562000BD87CE010E94E72A6B8B7C8B8D8B9E8B76
:105630001EA21DA21CA21BA2DF91CF911F910F9150
:105640000895CF93DF93EC010E94E72A8A819B8122
:10565000AC81BD818B8F9C8FAD8FBE8F1AA619A692
:10566000DF91CF910895FC01878D882361F080A19F
:10567000811109C082819381A481B5818687978732
:10568000A08BB18B089580E008954F925F926F9246
:105690007F928F929F92AF92BF92CF92DF92EF92C2
:1056A000FF920F931F93CF93DF93FC01278D22234B
:1056B00009F498C020A1211198C06A017B01EC0176
:1056C0000E94E72A4B015C016A837B838C839D8364
:1056D00020E030E0A9016B8D7C8D8D8D9E8D0E9428
:1056E000562E811108C08AE097EDA3E2BCE38B8FB0
:1056F0009C8FAD8FBE8F20E030E046E953E46B8D88
:105700007C8D8D8D9E8D0E94BA2F2B013C0120E057
:1057100030E046E953E4C501B4010E94BA2F9B0171
:10572000AC01C301B2010E94E92D6CA77DA78EA731
:105730009FA70E94CD2E4B015C0178A76FA379AB88
:1057400068AB19A2072E000C880B990B0E94052F3D
:105750002B013C0120E030E046E953E4C701B601EB
:105760000E94BA2F6B017C019B01AC0160E070E0EC
:10577000CB010E94E92D9B01AC01C301B2010E9443
:10578000562E88237CF491948194910898A68FA238
:1057900089A59AA5881699065CF598A78FA382E03B
:1057A00090E02BC020E030E0A901C701B6010E94C3
:1057B000EA2D9B01AC01C301B2010E94B52F18165E
:1057C00054F489A59AA588169906ACF498A78FA3D6
:1057D00081E090E012C018A61FA281E089A380E0BA
:1057E00090E00BC080E090E008C080E090E005C051
:1057F00082E090E002C081E090E0DF91CF911F91C4
:105800000F91FF90EF90DF90CF90BF90AF909F905F
:105810008F907F906F905F904F900895CF92DF921E
:10582000EF92FF920F931F93CF93FC01C78DCC2370
:10583000F9F020A1211119C031A1311118C08C013A
:10584000C684D784E088F1880E94E72A9B01AC01D6
:10585000C701B6010E94562E81110AC0F80181A528
:1058600092A5019692A781A703C0C0E001C0C22FF4
:105870008C2FCF911F910F91FF90EF90DF90CF90E1
:105880000895FC0112A611A60895CF93DF93EC01B1
:105890008A819B81AC81BD818F8B988FA98FBA8FB4
:1058A000CE010E94E72A6A837B838C839D832F89A4
:1058B000388D498D5A8D0E94562E811108C081E085
:1058C00088A381E090E09CA38BA380E002C018A293
:1058D00081E0DF91CF910895FC0182A1811114C074
:1058E00080A1811111C025A136A12F5F3F4F36A3A2
:1058F00025A3621773075CF481E080A383E090E046
:1059000094A383A381E0089516A215A280E00895D0
:10591000CF92DF92EF92FF92CF93DF93EC01CE8094
:10592000DF80E884F984A70196016B8D7C8D8D8DD5
:105930009E8D0E94B52F882324F0CB8EDC8EED8EB9
:10594000FE8ECA84DB84EC84FD84A70196016B8DF6
:105950007C8D8D8D9E8D0E94562E181624F0CB8E38
:10596000DC8EED8EFE8EDF91CF91FF90EF90DF9079
:10597000CF9008954F925F926F927F928F929F92F5
:10598000AF92BF92CF92DF92EF92FF92CF93DF93CD
:10599000EC012A013B010E94E72A4B015C01CB8804
:1059A000DC88ED88FE88A30192010E94E92DA70101
:1059B00096010E94B52F181674F0A3019201C5013B
:1059C000B4010E94EA2D9B01AC01C701B6010E94FF
:1059D000B52F18165CF48A819B81AC81BD818B8BBD
:1059E0009C8BAD8BBE8B81E08AA302C01AA280E0A3
:1059F000DF91CF91FF90EF90DF90CF90BF90AF906D
:105A00009F908F907F906F905F904F900895FC01D2
:105A1000878D91E09827978F0895CF92DF92EF922C
:105A2000FF921F93CF93DF93EC011F8D1123E1F0C1
:105A3000CB01BA012B8D3C8D4D8D5E8D0E94EA2DE0
:105A40006B8F7C8F8D8F9E8FCE80DF80E884F98472
:105A5000A70196010E94B52F181634F4CB8EDC8E68
:105A6000ED8EFE8E81E08A8B812FDF91CF911F9189
:105A7000FF90EF90DF90CF900895CF92DF92EF925A
:105A8000FF921F93CF93DF93FC01178D1123E9F051
:105A90009A01AB01EC01638D748D858D968D0E940A
:105AA000E92D6B8F7C8F8D8F9E8FCA84DB84EC8475
:105AB000FD84A70196010E94562E882334F4CB8ED4
:105AC000DC8EED8EFE8E81E08A8B812FDF91CF916F
:105AD0001F91FF90EF90DF90CF900895FC01878D8C
