S0120000436172537570706F72742E73726563FF
S11300000C943C040C9464040C9464040C946404F4
S11300100C9464040C9464040C9464040C946404BC
S11300200C9464040C9464040C9464040C946404AC
S11300300C9464040C9464040C9464040C9464049C
S11300400C9464040C9464040C9464040C9464048C
S11300500C9464040C9464040C9464040C9464047C
S11300600C9464040C9464043A0A3E0A430A480A51
S11300704D0A520A570A5C0A620A680A6E0A9D0A05
S1130080A00AA30AA60AA90AAC0AAF0AB20AB50AC8
S11300901D1C251C2D1C351C3D1C451C551C4D1CB4
S11300A05D1C651C6D1C751C7D1C851C8D1C951CA4
S11300B09D1C121D331D431D4B1D3B1D1D1D281D65
S11300C0531DA81DB41DAE1DBA1DC01DC61DCC1DDB
S11300D0D21DD81D0AD7233C0AD7A33C8FC2F53CB6
S11300E00AD7233DCDCC4C3D8FC2753D295C8F3D55
S11300F00AD7A33DEC51B83DCDCCCC3D8FC2F53DE4
S11301009A99193ECDCC4C3E9A99993E0000003FF5
S11301100000403F0000803F0000C03F000000405E
S113012000004040C0C0E0A0A0A0909090908888BB
S11301308884848484828282828181FFC0C0E0E0DA
S1130140A0A09090909088888884848484828282FD
S1130150828181FFC0C0E0E0E0A090909090888808
S11301608884848484828282828181FFC0C0E0E0AA
S1130170E0E0F090909088888884848484828282ED
S1130180828181FFC0C0E0E0E0E0F0F090908888D8
S11301908884848484828282828181FFC0C0E0E07A
S11301A0E0E0F0F0F09088888884848484828282FD
S11301B0828181FFC0C0E0E0E0E0F0F0F0F08888E8
S11301C08884848484828282828181FFC0C0E0E04A
S11301D0E0E0F0F0F0F0F8888884848484828282FD
S11301E0828181FFC0C0E0E0E0E0F0F0F0F0F8F8D8
S11301F08884848484828282828181FFC0C0E0E01A
S1130200E0E0F0F0F0F0F8F8F884848484828282EC
S1130210828181FFC0C0E0E0E0E0F0F0F0F0F8F8A7
S1130220F8FC848484828282828181FFC0C0E0E001
S1130230E0E0F0F0F0F0F8F8F8FCFC8484828282CC
S1130240828181FFC0C0E0E0E0E0F0F0F0F0F8F877
S1130250F8FCFCFC84828282828181FFC0C0E0E0E1
S1130260E0E0F0F0F0F0F8F8F8FCFCFCFC828282AC
S1130270828181FFC0C0E0E0E0E0F0F0F0F0F8F847
S1130280F8FCFCFCFCFE8282828181FFC0C0E0E0BD
S1130290E0E0F0F0F0F0F8F8F8FCFCFCFCFEFE8284
S11302A0828181FFC0C0E0E0E0E0F0F0F0F0F8F817
S11302B0F8FCFCFCFCFEFEFE828181FFC0C0E0E095
S11302C0E0E0F0F0F0F0F8F8F8FCFCFCFCFEFEFED8
S11302D0FE8181FFC0C0E0E0E0E0F0F0F0F0F8F86B
S11302E0F8FCFCFCFCFEFEFEFEFF81FFC0C0E0E06B
S11302F0E0E0F0F0F0F0F8F8F8FCFCFCFCFEFEFEA8
S1130300FEFFFFFF0000000000000000005F00008F
S1130310000000070007000000147F147F14000091
S1130320242A7F2A1200004C2C10686400003649ED
S1130330552250000000050300000000001C22416B
S11303400000000041221C00000014083E081400B4
S11303500008083E080800000000503000000010AB
S11303601010101000000060600000000020100851
S1130370040200003E5149453E000000427F400017
S11303800000426151494600002141454B310000C3
S11303901814127F100000274545453900003C4AD7
S11303A049493000000171090503000036494949F3
S11303B0360000064949291E0000003636000000B8
S11303C0000056360000000008142241000000140A
S11303D014141414000000412214080000020151F6
S11303E009060000324979413E00007E1111117E58
S11303F000007F4949493600003E41414122000046
S11304007F4141221C00007F4949494100007F0986
S113041009090100003E4149497A00007F080808A3
S11304207F000000417F410000002040413F010067
S1130430007F0814224100007F4040404000007FBC
S1130440020C027F00007F0408107F00003E41413F
S1130450413E00007F0909090600003E4151215E2A
S113046000007F0919294600004649494931000026
S113047001017F010100003F4040403F00001F2078
S113048040201F00003F4038403F00006314081420
S113049063000007087008070000615149454300E4
S11304A000007F4141000000020408102000000009
S11304B041417F000000040201020400004040406A
S11304C0404000000001020400000020545454780D
S11304D000007F484444380000384444442000006D
S11304E0384444487F000038545454180000087EAF
S11304F009010200000C5252523E00007F0804041D
S113050078000000447D400000002040443D00008D
S1130510007F10284400000000417F400000007C60
S11305200418047800007C0804047800003844446B
S1130530443800007C141414080000081414187CB7
S113054000007C08040408000048545454200000AF
S1130550043F44402000003C4040207C00001C201C
S113056040201C00003C4030403C0000442810283F
S11305704400000C5050503C00004464544C44006F
S1130580000008364100000000007F000000000069
S113059041360800000008040810080000FFFFFFAF
S11305A0FFFF00000000E0F0F8F800F8F8F0E000C9
S11305B000000000FFFFFFFF00FFFFFFFF0000003F
S11305C00000070F1F1F001F1F0F0700000000007F
S11305D0E010080800080810E00000000000FF0018
S11305E0000000000000FF000000000007081010D9
S11305F000101008070000004080E0100808000800
S11306000810E08040000000FF4224180018244233
S1130610FF00000002010708101000101008070175
S1130620020000006050484400444850600000004C
S11306300000060A12220022120A0600000000002E
S11306406070787C007C7870600000000000060E0A
S11306501E3E003E1E0E06000000183C7EE7000011
S1130660000000E77E3C180000002030381C001C0D
S113067038302000000000002A2A2A2A002A2A2AC8
S11306802A2A00000000000000030000183C7EE756
S1130690000000E77E3C180000000000E7E742008D
S11306A042E7E700000000000008183870007038C6
S11306B018080000007C1211127C00007F4949498F
S11306C03100007F4949493600007F0101010100E2
S11306D000603F213F6000007F49494941000077A5
S11306E0087F08770000224149493600007F10083E
S11306F0047F00007E1009047E00007F081422415C
S11307000000403E01017F00007F020C027F0000D8
S11307107F0808087F00003E4141413E00007F0100
S113072001017F00007F0909090600003E414141A3
S113073022000001017F01010000074848483F00F2
S1130740000E117F110E0000631408146300003FB3
S113075020203F600000070808087F00007F407EDB
S1130760407F00003F203F207F0000017F48483049
S113077000007F4830007F0000007F4848300000C0
S1130780224149493E00007F083E413E000046297F
S113079019097F0000205454547800003C4A4A4A06
S11307A03100007C5454280000007C04040C000038
S11307B000603C243C600000385454541800006C21
S11307C0107C106C0000004454542800007C20105D
S11307D0087C00007C2112097C00007C1028440065
S11307E00000403804047C00007C0810087C0000F1
S11307F07C1010107C0000384444443800007C0411
S113080004047C00007C141414080000384444449C
S113081000000004047C040400000C5050503C0010
S11308200008147C14080000442810284400003CEC
S113083020203C6000000C1010107C00007C407CE8
S1130840407C00003C203C207C0000047C50502074
S113085000007C5020007C0000007C5050200000F0
S1130860284454543800007C10384438000048545C
S113087034147C0000002B1611241FBECFEFD8E0E7
S1130880DEBFCDBF12E0A0E0B1E0EAE7F7E402C0CA
S113089005900D92A83AB107D9F726E0A8EAB2E08C
S11308A001C01D92AE34B207E1F714E0CCE3D4E00A
S11308B004C02197FE010E946823CB33D107C9F7F6
S11308C00E9408160C94BB230C9400000895CF9248
S11308D0DF92EF92FF920F931F93CF93DF93EC017C
S11308E0CB018A0164E670E00E94251E8F3F2FEF42
S11308F0920729F41B821C821D821E82A1C02F81B3
S1130900223159F4009709F0A0C081E088839CE06B
S11309109F83C856DF4F888393C08230910509F4C2
S113092053C024F4019709F452C053C08330910595
S113093019F0049731F14DC078018EEAE80EF11CEC
S11309402AE037ED43E25CE36B817C818D819E81FB
S11309500E9417219B01AC01F701608171818281A2
S113096093810E941621F7016083718382839383AC
S11309708CEE91E5A8EBBDE38B839C83AD83BE83B2
S113098028C07801FEEAEF0EF11C2AE037ED43E2BD
S11309905CE36B817C818D819E810E941721F7012C
S11309A020813181428153810E941721F7016083A4
S11309B07183828393838CEE91E5A8EBBDE38B83F3
S11309C09C83AD83BE8305C02F5F2F8302C021505B
S11309D02F838F818231B0F581E18F83F801E25555
S11309E0FF4FC080D180E280F38020E030E0A90195
S11309F0C701B6010E948321181664F0F801E2557C
S1130A00FF4F8AE097EDA3E2BCE380839183A28346
S1130A10B38315C020E030E040E450E4C701B601E0
S1130A200E94E22288235CF0F801E255FF4F80E047
S1130A3090E0A0E4B0E480839183A283B38316C0E2
S1130A4080E014C082E18F83C9CF8230910509F41C
S1130A50BBCF24F4019709F4BACFF4CF83309105C6
S1130A6009F46ACF049709F48CCFECCFDF91CF91CE
S1130A701F910F91FF90EF90DF90CF900895CF9248
S1130A80DF92EF92FF920F931F93CF93DF93EC01CA
S1130A90CB018A0164E670E00E94251E8F3F2FEF90
S1130AA0920729F41B821C821D821E821BC12F8186
S1130AB0253159F4009709F017C181E088839DE03E
S1130AC09F83C856DF4F88830DC18230910509F496
S1130AD090C024F4019709F48FC090C0833091052D
S1130AE021F0049709F445C089C02331E9F4780161
S1130AF082EBE80EF11C2AE037ED43E25CE36B8104
S1130B007C818D819E810E9417219B01AC01F7019C
S1130B1060817181828193810E941621F701608333
S1130B207183828393831CC07801F6EBEF0EF11C72
S1130B302AE037ED43E25CE36B817C818D819E8109
S1130B400E9417219B01AC01F701608171818281B0
S1130B5093810E941621F7016083718382839383BA
S1130B608CEE91E5A8EBBDE38B839C83AD83BE83C0
S1130B7045C02331D9F47801F2EBEF0EF11C2AE0E1
S1130B8037ED43E25CE36B817C818D819E810E9421
S1130B901721F70120813181428153810E9417215D
S1130BA0F70160837183828393831AC07801F6EB23
S1130BB0EF0EF11C2AE037ED43E25CE36B817C81AC
S1130BC08D819E810E941721F7012081318142810C
S1130BD053810E941721F701608371838283938379
S1130BE08CEE91E5A8EBBDE38B839C83AD83BE8340
S1130BF005C02F5F2F8302C021502F838F81843142
S1130C0018F483E18F8305C08F81853110F085E16D
S1130C108F8320E030E0A901F801EE54FF4F60819A
S1130C207181828193810E94832118163CF0F8011E
S1130C30EE54FF4F108211821282138220E030E0C2
S1130C4040EA50E4F801EA54FF4F608171818281E7
S1130C5093810E94E22288235CF080E090E0A0EA85
S1130C60B0E4F801EA54FF4F80839183A283B383F5
S1130C708F81833119F08431D9F033C0F801EA54FB
S1130C80FF4FC080D180E280F380A70196013497A2
S1130C9060817181828193810E94E22288230CF118
S1130CA0F801EE54FF4FC082D182E282F38219C070
S1130CB0F801EE54FF4FC080D180E280F380A70199
S1130CC09601349660817181828193810E9483218F
S1130CD018163CF0F801EA54FF4FC082D182E28238
S1130CE0F38213C080E011C08230910509F481CFF2
S1130CF024F4019709F480CF87CF8330910509F458
S1130D00F4CE049709F435CF7FCFDF91CF911F91B3
S1130D100F91FF90EF90DF90CF900895CF92DF92E4
S1130D20EF92FF920F931F93CF93DF93EC01CB01CC
S1130D308A0164E670E00E94251E8F3F2FEF920720
S1130D4029F41B821C821D821E82C6C0813091053B
S1130D5039F08230910539F42F812F5F2F8303C03E
S1130D602F8121502F832F81273118F426E12F83DF
S1130D7012C0283118F028E12F8363C02F81273156
S1130D8051F4009741F4C8010E940C118F818831FD
S1130D9009F06FC05EC02F81263109F052C0833044
S1130DA0910521F08430910531F14BC078018AEB33
S1130DB0E80EF11C20E030E040E85FE36B817C81C9
S1130DC08D819E810E9417219B01AC01F7016081F6
S1130DD07181828193810E941621F701608371835E
S1130DE08283938380E090E0A0E1B1E48B839C83D1
S1130DF0AD83BE833EC07801FAEBEF0EF11C20E018
S1130E0030E040E85FE36B817C818D819E810E94AC
S1130E101721F70120813181428153810E941721DA
S1130E20F701608371838283938380E090E0A0E183
S1130E30B1E48B839C83AD83BE838F818831C9F4F5
S1130E4010C02F812831A9F4009719F0049789F470
S1130E5008C081E088839EE09F83C856DF4F888363
S1130E603BC081E088839EE09F83C856DF4F888320
S1130E7033C0F801E654FF4FC080D180E280F38094
S1130E8020E030E040EA50E4C701B6010E9483212B
S1130E90181664F0F801E654FF4F80E090E0A0EAF1
S1130EA0B0E480839183A283B38315C020E030EC47
S1130EB049E754E4C701B6010E94E22288235CF0AA
S1130EC0F801E654FF4F80E090ECA9E7B4E4808396
S1130ED09183A283B38301C080E0DF91CF911F91FE
S1130EE00F91FF90EF90DF90CF9008950F931F9391
S1130EF0CF93DF93EC01CB018A0164E670E00E949A
S1130F00251E8F3F2FEF920709F463C0009739F431
S1130F108F818D31A1F4C8010E9414115AC084300C
S1130F20910531F48F818D3191F48EE18F8351C01D
S1130F308230910581F48F818D31C9F54AC08F814A
S1130F408E3151F581E088838FE08F8342C08F8199
S1130F508E3151F53EC08330910531F48F818E314D
S1130F60F1F48DE18F8335C08130910531F48F81A7
S1130F708E3109F58CE18F832CC082309105B9F054
S1130F802CF4009749F00197B1F018C08330910513
S1130F9031F0049799F408C087E088830FC081E09A
S1130FA088838FE08F8315C087E0888307C08F8193
S1130FB08F5F8F8303C08F8181508F838F818A31AC
S1130FC018F489E18F8304C08E3110F08EE18F8391
S1130FD001C080E0DF91CF911F910F910895CF93CD
S1130FE0DF93EC01CB0164E670E00E94251E0196BC
S1130FF011F480E002C086E08883DF91CF910895E8
S1131000CF93DF93FC01DC01AA56BF4F1C921196CB
S11310101C9289E090E0928381831782108221E000
S1131020238792E0948786E68187A5E0A28780875C
S1131030218B128A278734E0308B84E6868733A39A
S113104056E054A321A332A380A331A743E042A7CF
S113105017A250A765E666A3558F468F938F448FDA
S1131060828F178A908F958B468B848B37A740ABE2
S1131070A5A782E786A784A787E685AB36AB13AA24
S113108024AB32AB82AF78E073AF10AE91AF77ABE5
S113109087AFEF01C05CDF4F6CE0688325AF46AFDC
S11310A064AF249688832196888323979883219616
S11310B048832297888328961882219648E6488395
S11310C0239738832196A8832297488328961882E9
S11310D0219649E64883239738832196588322979B
S11310E048832896188221964AE648832397A88342
S11310F0DF01AE5ABF4F37E03C9312974C931896DA
S11311001C9211968C9313975C9311963C931297AF
S11311108C9318962C9311964BE64C9313977C93CF
S1131120119639E03C9312974C9318962C93119690
S11311305CE65C9313977C9311964AE04C93129768
S11311405C9318962C9311965DE65C9313973C93ED
S113115011963BE03C9312975C9318962C9311964E
S11311608C9313974C9311963C9312978C931896E7
S11311709C9311962EE62C9313976C9311963DE055
S11311803C9312972C9318969C9311964FE64C938C
S113119013976C9311962EE02C9312974C931896F8
S11311A09C93119640E74C9313973C9311963FE020
S11311B03C9312974C9318969C93119641E74C9349
S11311C013972C93119620E12C9312974C93189615
S11311D09C9311968C9313973C9311962C93EE57F2
S11311E0FF4F8083DF91CF910895FC018781823086
S11311F069F018F4813031F00895833061F084305F
S113120081F00895CB010E94B3200895CB018B9601
S11312100E94B3200895CB018A5A9F4F0E94B320A5
S11312200895CB018F579F4F0E94B3200895EF92EA
S1131230FF920F931F93CF93DF93EC017B018A01FD
S1131240CA010E949F1064E670E0C7010E94251E37
S1131250AC014F3F8FEF5807A1F19F81292F30E058
S1131260C901880F991F280F391F220F331F2C0F14
S11312703D1FF901E40FF51F80858536A1F018F4B0
S1131280843631F01BC08636A9F0823739F016C097
S1131290B801CE010E94F50881E014C0C8010E9483
S11312A03E1181E00FC082E08883C8010E94900B48
S11312B081E008C081E088831F8204C08F8381E0BD
S11312C001C080E0DF91CF911F910F91FF90EF90CB
S11312D00895FC01EA56FF4F21E02083FC01278199
S11312E0253041F0263061F0243079F4E756FF4F81
S11312F010820BC021E0FC01E756FF4F208305C09C
S113130022E0FC01E756FF4F208328E0FC01208304
S11313100895DC011196ED91FC911297EE0FFF1FD9
S1131320EE0FFF1FEC52FF4F6591759185919491DB
S113133008950F931F93CF93DF93EC01CB018A01A0
S113134064E670E00E94251E8F3F2FEF920711F490
S113135080E03CC082309105B9F02CF4009749F04C
S1131360019749F025C083309105B9F00497D9F06D
S11313701FC018821DC0CE010E948909AB01BC01A7
S1131380C8010E944D1014C0CE010E948909AB010E
S1131390BC01C8010E9476100BC089819A81019713
S11313A09A83898305C089819A8101969A83898366
S11313B089819A81181619061CF01A82198206C0AE
S11313C0439724F083E190E09A838983DF91CF915E
S11313D01F910F910895FC01DC01A956BF4F81E0D4
S11313E08C938781893039F08A3059F0883071F4D0
S11313F012961C920BC081E0DF01A756BF4F8C935D
S113140005C082E0DF01A756BF4F8C9382E0808342
S1131410178208950F931F93CF93DF93EC018B01F1
S1131420CA010E949F1064E670E0C8010E94251E54
S1131430AC014F3F8FEF580709F459C09F81292F02
S113144030E0C901880F991F880F991F280F391F91
S11314502C0F3D1FF901E40FF51F22A9822F90E004
S1131460FC01E756F109EB30F105F0F5EC5CFF4FB8
S11314700C94682318821F8281E03AC0CE010E9436
S1131480690981E035C0CE010E94690981E030C05C
S1131490CE010E94690981E02BC0CE010E94EB09B4
S11314A081E026C0CE010E94EB0981E021C0CE017B
S11314B00E94EB0981E01CC083E0888381E18F8373
S11314C081E016C084E0888383E18F8381E010C0CB
S11314D085E0888386E18F8381E00AC086E0888383
S11314E08DE18F8381E004C02F8381E001C080E01F
S11314F0DF91CF911F910F910895CF93DF93EC016A
S1131500CB0164E670E00E94251E019611F480E090
S113151003C081E088831F82DF91CF9108950F93E8
S11315201F93DC01EC910E2F10E009301105F8F443
S1131530F801E15CFF4F0C9468230E94170917C05F
S11315400E940A0A14C00E94990911C00E946704EB
S11315500EC00E943F050BC00E948E0608C00E9468
S1131560760705C00E94EF0702C00E947D0A1F9102
S11315700F9108950895FC0160834183528384EFA1
S113158091E0968385836334A1F0643411F162346D
S113159079F524B181E090E002C0880F991F4A9543
S11315A0E2F7982F9095922394B995B1892B85B938
S11315B0089527B181E090E002C0880F991F4A95F1
S11315C0E2F7982F9095922397B998B1892B88B90F
S11315D008952AB181E090E002C0880F991F4A95CE
S11315E0E2F7982F909592239AB99BB1892B8BB9E6
S11315F00895FC01772374F18081833479F0843475
S1131600B9F0823409F06AC083B190E0018002C06D
S1131610959587950A94E2F7817013C086B190E09E
S1131620018002C0959587950A94E2F7817009C0FC
S113163089B190E0018002C0959587950A94E2F7FC
S11316408170882309F44EC084EF91E096838583EA
S113165080E00895148213828581968118161906F4
S113166034F036C025813681821793078CF580814A
S1131670833471F08434B1F0823491F523B130E0D5
S1131680018002C0359527950A94E2F7217013C0B2
S113169026B130E0018002C0359527950A94E2F71F
S11316A0217009C029B130E0018002C03595279529
S11316B00A94E2F7217089EF90E00197F1F700C0F6
S11316C0000083819481019694838383222351F2C1
S11316D084E690E09683858381E0089580E0089510
S11316E080E0089514821382B7CFCF93DF93EC0187
S11316F00E94531FCE018B960E94531FCE018A5A1B
S11317009F4F0E94531FCE018F579F4F0E94531F1C
S1131710CE0184559F4F0E94EC1EDF91CF91089516
S1131720CF93DF93EC010E94911FCE018B960E9410
S1131730911FCE018A5A9F4F0E94911FCE018F574D
S11317409F4F0E94911FDF91CF910895CF93DF9314
S1131750FC01DC01AA54BF4F8D919D910D90BC9169
S1131760A02D86839783A087B18781AB92ABA3AB6F
S1131770B4ABEF01C45ADF4F88839983AA83BB8338
S1131780AB9688839983AA83BB83DF01AE54BF4F92
S11317908D919D910D90BC91A02D82879387A487F4
S11317A0B58785AB96ABA7ABB0AFA7978883998372
S11317B0AA83BB83E557FF4F80839183A283B383BE
S11317C0DF91CF910895CF93DF93EC010E945820CD
S11317D0CE018B960E945820CE018A5A9F4F0E94B8
S11317E05820CE018F579F4F0E945820DF91CF91F0
S11317F008954F925F926F927F928F929F92AF92D1
S1131800BF92CF92DF92EF92FF920F931F93CF93E9
S1131810DF93EC010E94571F4E018BE2880E911C4E
S1131820C4010E94571F5E0196E5A90EB11CC501B3
S11318300E94571F6E01E1E8CE0ED11CC6010E9422
S1131840571F3E01FCEA6F0E711CEE24E394F12C49
S113185001E010E021E030E041E050E06AE070E0B7
S1131860C3010E94F21ECE010E941B202E019EEC99
S1131870490E511C90E0F20191838083C4010E94BF
S11318801B20FE01E053FF4F90E091838083C5014C
S11318900E941B20FE01EE52FF4F90E09183808353
S11318A0C6010E941B20FE01EC52FF4F90E0918381
S11318B080836894EE24E1F8F12C02E010E022E049
S11318C030E042E050E06AE070E0C3010E94F21EA2
S11318D0F20180819181892B99F0329680819181E6
S11318E0892B81F0329680819181892B69F0CC52C9
S11318F0DF4F81E028813981232B39F480E005C052
S113190080E003C080E001C080E0DF91CF911F91AF
S11319100F91FF90EF90DF90CF90BF90AF909F908A
S11319208F907F906F905F904F900895CF93DF9347
S1131930EC0161E070E00E94661F62E070E0CE019D
S11319408B960E94661F63E070E0CE018A5A9F4F17
S11319500E94661F64E070E0CE018F579F4F0E9483
S1131960661FCE0184559F4F0E94ED1EFE01E85272
S1131970FF4F81E090E091838083CE010E94F90BB8
S1131980DF91CF910895CF93DF93FC01E154FF4F92
S1131990DC0192962D913C91939731832083AF5330
S11319A0BF4FEC01C35BDF4F2881398111963C9313
S11319B02E931296AB962881398111963C932E93DF
S11319C01296AB96288139812D933C93DF01AC01AB
S11319D049535F4F619171911616170624F0E4176D
S11319E0F507C1F727C06115710539F12D913D91B6
S11319F01216130624F4261737070CF4B901A4179A
S1131A00B507A1F76333710514F062E370E0EC01EC
S1131A10072E000C880B990B0E943222C255DF4F0F
S1131A20288139814A815B810E94E7220E94FA2140
S1131A30CB0105C080E090E002C080E090E0DF913F
S1131A40CF910895CF92DF92EF92FF920F931F935D
S1131A50CF93DF93CDB7DEB78B859C85823091051C
S1131A6071F01CF4019739F01DC08330910571F0B9
S1131A700497A1F017C0CC24C394D12C13C0CC2458
S1131A80C3940F2EFBE0DF2EF02D0CC06894CC2401
S1131A90C2F80F2EFBE0DF2EF02D04C06894CC2496
S1131AA0C2F8D12CCE010B960E94571F8B019C01CA
S1131AB06894EE24E1F8F12C41E06C2D8D2D0E9408
S1131AC03E140E943412DF91CF911F910F91FF9029
S1131AD0EF90DF90CF9008954F925F926F927F9234
S1131AE08F929F92AF92BF92CF92DF92EF92FF922A
S1131AF00F931F93CF93DF93EC010E94A11F6E01FC
S1131B0098ECC90ED11CF60180838DB79EB78B97D4
S1131B100FB6F8949EBF0FBE8DBFADB7BEB711967A
S1131B208BE2FE0101900D928A95E1F7CE010E94AD
S1131B30220D5E019BE2A90EB11CEDB7FEB7BB9668
S1131B400FB6F894FEBF0FBEEDBFC5010E94A11FE2
S1131B504E01F9EC8F0E911CF40180838DB79EB772
S1131B608B970FB6F8949EBF0FBE8DBFADB7BEB7AF
S1131B7011968BE2F50101900D928A95E1F7CE0161
S1131B800E94220D3E0196E5690E711CEDB7FEB769
S1131B90BB960FB6F894FEBF0FBEEDBFC3010E9403
S1131BA0A11F8E0106531F4FF80180838DB79EB786
S1131BB08B970FB6F8949EBF0FBE8DBFADB7BEB75F
S1131BC011968BE2F30101900D928A95E1F7CE0113
S1131BD00E94220D2E0191E8490E511CEDB7FEB76B
S1131BE0BB960FB6F894FEBF0FBEEDBFC2010E94B4
S1131BF0A11F7E01FBECEF0EF11CF70180838DB772
S1131C009EB78B970FB6F8949EBF0FBE8DBFADB72E
S1131C10BEB711968BE2F20101900D928A95E1F71D
S1131C20CE010E94220DEDB7FEB7BB960FB6F89415
S1131C30FEBF0FBEEDBFF701E080F12CF80100817B
S1131C4010E0F401208130E0F601408150E06AE0C8
S1131C5070E0CE0184559F4F0E94F21EF6018081F0
S1131C60882351F0CE010E941B20FE01E253FF4F56
S1131C7090E09183808307C081E090E0FE01E2530D
S1131C80FF4F91838083FE01E753FF4F80818823B8
S1131C9051F0C5010E941B20FE01E053FF4F90E06C
S1131CA09183808307C081E090E0FE01E053FF4F01
S1131CB091838083FE01E653FF4F8081882351F096
S1131CC0C3010E941B20FE01EE52FF4F90E091835E
S1131CD0808307C081E090E0FE01EE52FF4F9183C4
S1131CE08083FE01E553FF4F8081882351F0C201B8
S1131CF00E941B20FE01EC52FF4F90E091838083F1
S1131D0007C081E090E0FE01EC52FF4F9183808395
S1131D10FE01E253FF4F80819181892B99F0329625
S1131D2080819181892B81F0329680819181892BE8
S1131D3069F0CC52DF4F81E028813981232B39F4BB
S1131D4080E005C080E003C080E001C080E0DF9156
S1131D50CF911F910F91FF90EF90DF90CF90BF90A4
S1131D60AF909F908F907F906F905F904F90089569
S1131D702F923F924F925F926F927F928F929F9297
S1131D80AF92BF92CF92DF92EF92FF920F931F9385
S1131D90CF93DF93CDB7DEB72E970FB6F894DEBF9F
S1131DA00FBECDBF9E878D870E94E30BED85FE8518
S1131DB0EA52FF4F81E090E0918380838D859E8578
S1131DC00E946C0D882309F44FC1ED85FE85EA520B
S1131DD0FF4F80819181181619060CF045C1812CA2
S1131DE0912C6D847E8488EC680E711CED85FE85D3
S1131DF0BB96FA83E9834D845E84F9EC4F0E511C43
S1131E008D859E858A5A9F4F9C838B832D843E8427
S1131E109AEC290E311CED85FE85EF57FF4FFE83AA
S1131E20ED838D859E8585539F4F98878F83ED85A0
S1131E30FE85EA52FF4FFA87E9878D859E85845592
S1131E409F4F9C878B8705C0F8EC8F16910409F48B
S1131E50B9C08D859E850E94A11FF30180838DB733
S1131E609EB78B970FB6F8949EBF0FBE8DBFADB7CC
S1131E70BEB711968BE2ED85FE8501900D928A9591
S1131E80E1F78D859E850E94220D0FB6F894DEBF82
S1131E900FBECDBF89819A810E94A11FF201808368
S1131EA08DB79EB78B970FB6F8949EBF0FBE8DBFAC
S1131EB0ADB7BEB711968BE2E981FA8101900D921C
S1131EC08A95E1F78D859E850E94220D0FB6F894C0
S1131ED0DEBF0FBECDBF8B819C810E94A11FF1018B
S1131EE080838DB79EB78B970FB6F8949EBF0FBEB5
S1131EF08DBFADB7BEB711968BE2EB81FC8101902B
S1131F000D928A95E1F78D859E850E94220D0FB66C
S1131F10F894DEBF0FBECDBF8D819E810E94A11FAC
S1131F20EF81F88580838DB79EB78B970FB6F894B1
S1131F309EBF0FBE8DBFADB7BEB711968BE2ED81CC
S1131F40FE8101900D928A95E1F78D859E850E9410
S1131F50220DF301A080B12CF201C080D12CF1013B
S1131F60008110E0EF81F885E080F12CC5018C0D33
S1131F709D1D800F911F8E0D9F1DE985FA8591830C
S1131F8080830FB6F894DEBF0FBECDBF8D859E85CE
S1131F900E94C30C9601A501BC018B859C850E94FF
S1131FA0F21E9FEF891A990AE985FA858081918149
S1131FB0181619060CF448CF94E6891691040CF40B
S1131FC053C000C0ED85FE85E853FF4F8081882310
S1131FD041F081E0ED85FE85838F82E090E0978F6C
S1131FE0868FED85FE85E753FF4F8081882371F04E
S1131FF081E0ED85FE85EA5BFF4F808382E090E01F
S1132000ED85FE85E75BFF4F91838083ED85FE853B
S1132010E653FF4F8081882371F081E0ED85FE85D2
S1132020EF58FF4F808382E090E0ED85FE85EC5809
S1132030FF4F91838083ED85FE85E553FF4F8081BB
S1132040882391F0ED85FE85E456FF4F81E080837F
S11320508D859E8581569F4F9A83898382E090E087
S1132060E981FA81918380832E960FB6F894DEBFBE
S11320700FBECDBFDF91CF911F910F91FF90EF90D5
S1132080DF90CF90BF90AF909F908F907F906F9094
S11320905F904F903F902F900895CF92DF92EF92F0
S11320A0FF92CF93DF93EC016A017B010E94B92078
S11320B0B701A601CE018B960E94B920B701A601F3
S11320C0CE018A5A9F4F0E94B920B701A601CE01C2
S11320D08F579F4F0E94B920CE010E94B80EDF9106
S11320E0CF91FF90EF90DF90CF900895CF92DF9241
S11320F0EF92FF92CF93DF93EC016A017B010E9480
S1132100E720B701A601CE018B960E94E720B70114
S1132110A601CE018A5A9F4F0E94E720B701A6016B
S1132120CE018F579F4F0E94E720CE010E94B80E28
S1132130DF91CF91FF90EF90DF90CF900895AF9211
S1132140BF92CF92DF92EF92FF920F931F93CF93A0
S1132150DF93FC01E254FF4F2081222309F451C094
S1132160EC010E948A206E018BE2C80ED11CC601CC
S11321700E948A207E01E6E5EE0EF11CC7010E9452
S11321808A208E010F571F4FC8010E948A20FE012A
S1132190E85BFF4F9D8D8081892BBB969081892BB5
S11321A021F4BB968081882361F15E01FAEBAF0EC6
S11321B0B11CF50160817181828193810E94FA21B1
S11321C0CE010E944220F501608171818281938158
S11321D00E94FA21C6010E944220F50160817181AA
S11321E0828193810E94FA21C7010E944220F50155
S11321F060817181828193810E94FA21C8010E94C9
S11322004220DF91CF911F910F91FF90EF90DF90CB
S1132210CF90BF90AF900895FC01E254FF4F8081AE
S113222091E0982790830895FC01138E178E168EE3
S1132230EA5BFF4F1082339611821082B8961082A7
S1132240339611821082B8961082339611821082CE
S1132250089521E0FC01228FEB5BFF4F2083BB96A6
S11322602083BB9620830895FC01128EEB5BFF4F05
S11322701082BB961082BB9610820895FC01228DB9
S11322802223B9F0EB5BFF4F2081222391F0BB9610
S11322902081222371F0BB962081222351F0FC017E
S11322A0128EEB5BFF4F1082BB961082BB9610829E
S11322B0089521E0FC01228FEB5BFF4F2083BB9646
S11322C02083BB96208308952A98613011F4299ABB
S11322D001C029988EBD0DB407FEFDCF2A9A08953A
S11322E0CF92DF92EF92FF920F931F93CF93DF93DE
S11322F06B017C01EA01CA010197209781F061E03A
S113230070E09B01220F331F660F771F660F771F44
S1132310660F771F620F731F019798F702C061E081
S113232070E0072E000C880B990B0E943222A70143
S113233096010E94E7220E94FA21AB01BC01CA0166
S113234099231CF021E030E002C02FEF3FEF249FDF
S1132350C001259F900D349F900D112407EB12E0CE
S11323600F2EFAE0EF2EF12CF02D0F2EFEE2DF2ED1
S1132370F02D02C08F01EA01F801B7010E94542335
S1132380805D8293862F972FAE014150510919F435
S1132390F8013297D082009769F714161506D4F421
S11323A0BE0162507109DF0140E32197CE1BDF0BB0
S11323B04E93CD018C0F9D1F18161906CCF3CB013B
S11323C0992314F480E090E080959095E80FF91F2C
S11323D08EE2829380818E3211F480E382933323E0
S11323E014F48DE28293CF01DF91CF911F910F916D
S11323F0FF90EF90DF90CF9008952C9A84B18E6374
S113240084B92C982C9A80E58CBD2A9A60E081E2EC
S11324100E94641160E088EC0E94641160E086E030
S11324200E94641160E083E10E94641160E080E234
S11324300E94641160E08CE00E946411089588EFAA
S113244091E0EEEBF2E0DF019C011D92215030405F
S1132450E1F71092BD021092BC0287EF91E09093D5
S1132460BB028093BA020895EF92FF920F931F93D9
S1132470CF93DF938091BC029091BD0299232CF4F9
S11324801092BD021092BC0209C0883F914034F002
S113249087EF91E09093BD028093BC028091BA02D1
S11324A09091BB0299232CF41092BB021092BA02B1
S11324B009C0883F914034F087EF91E09093BB02CC
S11324C08093BA02C091BC02D091BD02CE0164E5F2
S11324D070E00E945423162F60E080680E9464110B
S11324E060E0812F80640E946411E090BA02F09051
S11324F0BB02EC16FD066CF08E0102541D4F61E028
S1132500F80181918F010E9464112196EC16FD0659
S1132510B4F787EF91E09093BD028093BC021092D0
S1132520BB021092BA02DF91CF911F910F91FF90DD
S1132530EF9008958E30A8F46630A8F490E09C01E2
S1132540220F331F820F931F880F991F24E5629F68
S1132550800D911D11249093B9028093B80280E0FC
S1132560089581E0089581E008954091B802509162
S1132570B902805297E0899FF0011124EC5FFC4F6F
S1132580DA01A254BD4F9A012C533D4F84918D938F
S11325903196A217B307D1F74A5F5F4F5093B90240
S11325A04093B80280E008954091B8025091B90276
S11325B090E0FC01EE0FFF1FE80FF91FEE0FFF1F65
S11325C0EE0FFF1FEE0FFF1FEC5DFE4FDA01A2546A
S11325D0BD4F9A012A523D4F84918D933196A21793
S11325E0B307D1F7485E5F4F5093B9024093B802E6
S11325F080E008950F931F93CF93DF934091B80227
S11326005091B9022091BC023091BD024217530788
S113261024F45093BD024093BC02E0EEE60FE03A8E
S113262008F4A0C0603C08F49CC0E7ECE60F9AC034
S11326308491880F8D933196A217B307C9F74B5F26
S11326405F4F5093B9024093B80265C0823009F0DD
S113265062C0CA01845591092091BC023091BD0227
S1132660821793070CF08EC09093BD028093BC0236
S113267089C02491220F822F8270982F990F890F7D
S1132680982F990F822F8470382F330F830F880F60
S1132690880F892B022F0870019F002D1124082B0D
S11326A030E03595279535952795359527953595BA
S11326B02795822F8270382F330F830F880F322F84
S11326C03170932F990F390F832B922F9470392FD8
S11326D0330F930F990F990F892B922F9870919F15
S11326E0902D1124282F292B088309832C931196CC
S11326F02C931197319622961296A617B70709F0D4
S1132700B8CFCA010B9668EF71E00E9454239093EE
S1132710B9028093B8028091B8029091B9022091D5
S1132720BA023091BB022817390724F49093BB02F4
S11327308093BA02FC01E254FD4F1082873F21E0EE
S1132740920731F41092B9021092B80282E02DC0BF
S113275001969093B9028093B80280E026C081E08C
S113276024C0EFE5813009F071CF87E0E89FF001E4
S11327701124EC5FFC4FDA01A254BD4F9A012D5392
S11327803D4F56CF99235CF327E0E29FF0011124DB
S1132790EC5FFC4FEA01C659DD4FDA01A254BD4F8C
S11327A0BA0168537D4F18E164CFDF91CF911F9137
S11327B00F9108950F931F93CF93DF93D42F890123
S11327C00E949A12F8016081662379F0C0E08D2F8F
S11327D00E94FA12813041F0CF5FF801EC0FF11D35
S11327E060816111F4CF01C061E0862FDF91CF9148
S11327F01F910F910895FF920F931F93CF93DF932F
S1132800F42E89010E949A12F8016081662391F0E6
S1132810C0E06E3221F08F2D0E94FA12D82FD130F1
S113282041F0CF5FF801EC0FF11D60816111F1CF30
S113283001C061E0862FDF91CF911F910F91FF902E
S11328400895DF92EF92FF920F931F93CF93DF933C
S1132850C82FD62FD42EA701C901B8010E94701128
S11328609C014D2D6D2F8C2F0E94DA13DF91CF9197
S11328701F910F91FF90EF90DF900895DF92EF92F8
S1132880FF920F931F93CF93DF93C82FD62FD42E8D
S1132890A701C901B8010E9470119C014D2D6D2F33
S11328A08C2F0E94FB13DF91CF911F910F91FF900A
S11328B0EF90DF900895CF92DF92EF92FF920E9403
S11328C0FD1181E595E00E94FE1D84E795E00E94DC
S11328D0960C86EB94E00E94000889E490E00E9444
S11328E08A236B017C0120E030E0A9010E94E222EE
S11328F0181694F020E030E040E450E4C701B6013B
S11329000E948321882344F040E050E060E87FE3A4
S113291089E490E00E949E2389E490E00E948A2347
S113292060932206709323068093240690932506D1
S113293085E490E00E948A236B017C0120E030E072
S1132940A9010E94E22288238CF420E030E040EACE
S113295050E4C701B6010E94832118163CF440E0FC
S113296050E0BA0185E490E00E949E2385E490E063
S11329700E948A2360932606709327068093280674
S11329809093290681E490E00E948A236B017C01E4
S113299020E030E0A9010E94E222882394F420E0A0
S11329A030E040EA50E4C701B6010E9483211816C2
S11329B044F440E050E060EA70E481E490E00E9476
S11329C09E2381E490E00E948A2360932A067093F8
S11329D02B0680932C0690932D0684E795E00E94A5
S11329E0A60B8CE390E00E948A236B017C0120E01B
S11329F030E0A9010E94E2228823BCF420E030ECFC
S1132A0049E754E4C701B6010E94832118166CF407
S1132A1040E050E068E472E48CE390E00E949E237E
S1132A2061E080E490E00E9490238CE390E00E94B7
S1132A308A2360932E0670932F068093300690931A
S1132A40310680E490E00E94822391E0811101C06C
S1132A5090E090933206FF90EF90DF90CF9008952E
S1132A608823D1F1409122065091230660912406D7
S1132A707091250689E490E00E949E2340912606E9
S1132A8050912706609128067091290685E490E00C
S1132A900E949E2340912A0650912B0660912C0699
S1132AA070912D0681E490E00E949E2384E795E0D6
S1132AB00E94A60B40912E0650912F06609130067D
S1132AC0709131068CE390E00E949E23609132065F
S1132AD080E490E00E94902308950F931F93CF9376
S1132AE0DF9320914C05222399F1EC0184E795E0D2
S1132AF00E94571FAB01BC0184E18C9F80018D9F14
S1132B00100D1124C8018C5F9F4F0E949E238FE9F2
S1132B1095E00E94571FAB01BC01C801885F9F4F1D
S1132B200E949E238AEC95E00E94571FAB01BC01D2
S1132B30C801845F9F4F0E949E2385EF95E00E9409
S1132B40571FAB01BC01C801805F9F4F0E949E23A9
S1132B5010924C05DF91CF911F910F9108950F931F
S1132B601F93CF93DF9320914D05222309F449C08D
S1132B70EC0184E795E00E94291184E18C9F800197
S1132B808D9F100D1124C8018C5F9F4F0E948A23D2
S1132B9060938A0570938B0580938C0590938D05C3
S1132BA0C801885F9F4F0E948A236093B505709384
S1132BB0B6058093B7059093B805C801845F9F4F0D
S1132BC00E948A236093E0057093E1058093E205F7
S1132BD09093E305C801805F9F4F0E948A2360930E
S1132BE00B0670930C0680930D0690930E0684E7F3
S1132BF095E00E94B80E1092B60484E795E00E9416
S1132C00341110924D05DF91CF911F910F910895CA
S1132C100E945B14CFE4D5E00EE415E044E755E0F0
S1132C2061E575E086EB94E00E948F0A44E755E085
S1132C3066EB74E080E595E00E94921D888190E047
S1132C400E946D15888190E00E94AF15F801808183
S1132C500E943015E3CF84E795E00E94750B81E56F
S1132C6095E00E94E61D80E595E00E943C1686EB07
S1132C7094E00E94660408950895CF92DF92EF9243
S1132C80FF920F931F93CF93DF936B01EA0120E030
S1132C9031E041E060E082E00E94DA13C255DF4F88
S1132CA0088119812A813B816894EE24E1F8F12C92
S1132CB041E062E085E00E9421142BE031E041E034
S1132CC064E083E00E94DA13F6018781813119F010
S1132CD0823181F016C062E084E00E949A128AE98F
S1132CE00E94B51262E089E00E949A128BE90E9468
S1132CF0B51207C064E081E00E949A128BE90E9439
S1132D00B512DF91CF911F910F91FF90EF90DF905B
S1132D10CF900895CF92DF92EF92FF920F931F937B
S1132D20CF93DF936B01EA0125E131E041E060E0FC
S1132D3082E00E94DA1321E231E041E062E082E0C5
S1132D400E94DA13FE01EE54FF4F008111812281AB
S1132D5033816894EE24E1F8F12C41E062E088E0EC
S1132D600E94211425E231E041E063E082E00E9408
S1132D70DA13CA54DF4F088119812A813B8141E06B
S1132D8063E088E00E942114F6018781843199F080
S1132D90853101F1833129F562E087E00E949A12BE
S1132DA08AE90E94B51262E08CE00E949A1282EADB
S1132DB00E94B51216C063E087E00E949A128AE965
S1132DC00E94B51263E08CE00E949A1282EA0E948B
S1132DD0B51207C065E081E00E949A128BE90E9457
S1132DE0B5122BE031E041E065E083E00E94DA13A4
S1132DF0DF91CF911F910F91FF90EF90DF90CF90D3
S1132E000895CF92DF92EF92FF920F931F93CF9387
S1132E10DF936B01EA0129E231E041E060E082E006
S1132E200E94DA1325E331E041E061E080E00E9492
S1132E30DA1322E431E041E062E080E00E94DA1338
S1132E40FE01E654FF4F20E030E048EC52E460819C
S1132E507181828193810E9488218B019C016894F5
S1132E60EE24E1F8F12C41E062E08AE00E943E1495
S1132E702BE431E041E063E080E00E94DA13C254C5
S1132E80DF4F8881813041F024E531E041E063E0A7
S1132E908AE00E94DA1307C028E531E041E063E0EC
S1132EA08AE00E94DA13F6018781873129F088319C
S1132EB0D1F08631F9F408C063E089E00E949A12E7
S1132EC082EA0E94B51216C062E089E00E949A125A
S1132ED08AE90E94B51262E08DE00E949A128BE9A1
S1132EE00E94B51207C065E081E00E949A128BE946
S1132EF00E94B5122BE031E041E065E083E00E94DE
S1132F00DA13DF91CF911F910F91FF90EF90DF9033
S1132F10CF900895CF92DF92EF92FF920F931F9379
S1132F20CF93DF936B01EA012CE531E041E060E0EF
S1132F3084E00E94DA1323E631E041E061E082E0BC
S1132F400E94DA132CE631E041E062E082E00E9464
S1132F50DA1325E731E041E063E082E00E94DA130E
S1132F602EE731E041E064E082E00E94DA1327E8D2
S1132F7031E041E065E082E00E94DA132DE831E0BF
S1132F8041E065E089E00E94DA1323E931E041E0A1
S1132F9061E08BE00E94DA1323E931E041E062E072
S1132FA08BE00E94DA1323E931E041E063E08BE037
S1132FB00E94DA1323E931E041E064E08BE00E94EF
S1132FC0DA138E8D9F8D18161906C4F426E931E0A4
S1132FD041E061E08BE00E94DA136E8D7F8D072E55
S1132FE0000C880B990B0E9432228B019C01E12C6E
S1132FF0F12C41E061E08CE00E942114FE01E75BCA
S1133000FF4F8081918118161906DCF426E931E01E
S113301041E062E08BE00E94DA13FE01E75BFF4FC0
S113302060817181072E000C880B990B0E9432225B
S11330308B019C01E12CF12C41E062E08CE00E94C8
S11330402114FE01EC58FF4F808191811816190656
S1133050DCF426E931E041E063E08BE00E94DA131E
S1133060FE01EC58FF4F60817181072E000C880B24
S1133070990B0E9432228B019C01E12CF12C41E03E
S113308063E08CE00E942114FE01E156FF4F808131
S1133090918118161906D4F426E931E041E064E080
S11330A08BE00E94DA13C156DF4F68817981072EC5
S11330B0000C880B990B0E9432228B019C01E12C9D
S11330C0F12C41E064E08CE00E942114F601878138
S11330D08B31E1F028F4893149F08A3179F035C037
S11330E08D3121F1D8F08E3149F12FC061E080E0BB
S11330F00E949A128BE90E94B51227C062E080E018
S11331000E949A128BE90E94B5121FC063E080E00E
S11331100E949A128BE90E94B51217C064E080E005
S11331200E949A128BE90E94B5120FC065E080E0FC
S11331300E949A128BE90E94B51207C065E087E0ED
S11331400E949A128BE90E94B512DF91CF911F91D0
S11331500F91FF90EF90DF90CF900895CF92DF9280
S1133160EF92FF920F931F93CF93DF93CDB7DEB708
S1133170C9A4DAA4C114D10441F428E931E041E03E
S113318062E081E00E94DA1339C023EA31E041E0D1
S113319061E081E00E94DA13B6010D2C000C880B6B
S11331A0990B0E9432228B019C01E12CF12C41E00D
S11331B061E089E00E94211482E0C816D10479F00C
S11331C083E0C816D10499F0CA94CD28B9F42CEA46
S11331D031E041E062E080E00E94DA130FC020EEAB
S11331E031E041E062E080E00E94DA1307C029E0A8
S11331F032E041E062E080E00E94DA13DF91CF9197
S11332001F910F91FF90EF90DF90CF9008950F934F
S11332101F93CF93DF938C01EA01FB0187818A31ED
S113322079F118F4893141F09BC08B3109F44DC018
S11332308C3109F470C094C027E332E041E060E0CF
S113324083E00E94DA138DB79EB78B970FB6F8947C
S11332509EBF0FBE8DBFADB7BEB711968BE2FE0108
S113326001900D928A95E1F7C8010E94AE18EDB75E
S1133270FEB7BB960FB6F894FEBF0FBEEDBF70C08D
S113328020E432E041E060E083E00E94DA138DB78D
S11332909EB78B970FB6F8949EBF0FBE8DBFADB788
S11332A0BEB711968BE2FE01BB9601900D928A95F2
S11332B0E1F7C8010E94AE18EDB7FEB7BB960FB692
S11332C0F894FEBF0FBEEDBF4BC029E432E041E0ED
S11332D060E083E00E94DA13FE01EA5AFF4F8DB7E3
S11332E09EB78B970FB6F8949EBF0FBE8DBFADB738
S11332F0BEB711968BE201900D928A95E1F7C80151
S11333000E94AE18EDB7FEB7BB960FB6F894FEBF99
S11333100FBEEDBF25C022E532E041E060E083E06E
S11333200E94DA13FE01EF57FF4F8DB79EB78B97BC
S11333300FB6F8949EBF0FBE8DBFADB7BEB7119642
S11333408BE201900D928A95E1F7C8010E94AE18B4
S1133350EDB7FEB7BB960FB6F894FEBF0FBEEDBF38
S1133360DF91CF911F910F910895FB0187818430E4
S113337020F52BE532E041E060E085E00E94DA13BD
S11333802BE031E041E061E082E00E94DA1320E6C4
S113339032E041E062E082E00E94DA132BE632E0A0
S11333A041E063E082E00E94DA132DE831E041E07D
S11333B064E082E00E94DA130895883020F52BE05F
S11333C031E041E060E083E00E94DA1325E732E077
S11333D041E061E082E00E94DA132EE732E041E04E
S11333E062E082E00E94DA132AE832E041E063E01E
S11333F082E00E94DA132DE831E041E064E082E0EB
S11334000E94DA1308958C3020F520E632E041E082
S113341060E083E00E94DA1325E732E041E061E0F6
S113342082E00E94DA132EE732E041E062E082E0BB
S11334300E94DA132AE832E041E063E082E00E946D
S1133440DA132DE831E041E064E082E00E94DA130F
S113345008952BE632E041E060E083E00E94DA1355
S113346020E031E041E061E082E00E94DA1325E1EE
S113347031E041E062E082E00E94DA1329E231E0C7
S113348041E063E082E00E94DA132CE531E041E0A0
S113349064E082E00E94DA132DE831E041E065E067
S11334A082E00E94DA13089560E086E00E949A1296
S11334B08EE90E94B51260E087E00E949A128FE9BB
S11334C00E94B5120895FB018081823051F065E0BD
S11334D086E00E949A1283EA0E94B51284EA0E944E
S11334E0B5120895AF92BF92CF92DF92EF92FF92FE
S11334F00F931F93CF93DF93CDB7DEB72C970FB6FF
S1133500F894DEBF0FBECDBF898D9A8D82309105B0
S113351099F01CF4019739F031C083309105C1F062
S1133520049719F12BC0CC24C394A12C00E00F2ED6
S1133530F3E0DF2EF02D22C0CC24C3940F2EFBE049
S1133540AF2EF02D00E00F2EF9E0DF2EF02D16C087
S11335506894CC24C2F80F2EFBE0AF2EF02D03E0CC
S11335600F2EF9E0DF2EF02D09C06894CC24C2F8A8
S1133570A12C03E00F2EF3E0DF2EF02D8CA988237D
S1133580C9F08CE890E09A8389838DE890E09C836D
S11335908B838EE890E09E838D838FE890E09887FC
S11335A08F8380E990E09A87898781E990E09C87FE
S11335B08B8763C08BA98823C9F080E890E09A8345
S11335C0898381E890E09C838B8382E890E09E83EA
S11335D08D8383E890E098878F8384E890E09A87CE
S11335E0898785E890E09C878B8747C086E890E0D0
S11335F09A83898387E890E09C838B8388E890E0B2
S11336009E838D8389E890E098878F838AE890E091
S11336109A8789878BE890E09C878B872EC0612FDF
S11336208D2D0E949A12F70180810E94B512612F9C
S11336308B2D0E949A12F70182810E94B5121F5F9E
S1133640F4E0EF0EF11C1013EACFCE0149960E946C
S1133650571F8B019C016894EE24E1F8F12C41E0A2
S11336606C2D8A2D0E943E1461E06C0D8A2D0E94FF
S11336709A1280EA0E94B51209C0102FCE01019659
S11336807C010D5FBB24B394BD0CC9CF2C960FB63F
S1133690F894DEBF0FBECDBFDF91CF911F910F9184
S11336A0FF90EF90DF90CF90BF90AF9008950F936D
S11336B01F93CF93DF938C01EB018DB79EB78B974C
S11336C00FB6F8949EBF0FBE8DBFADB7BEB71196AF
S11336D08BE2FB0101900D928A95E1F7C8010E94EB
S11336E0721A8DB79EB78B960FB6F8949EBF0FBE15
S11336F08DBF8B970FB6F8949EBF0FBE8DBFADB72D
S1133700BEB711968BE2FE01BB9601900D928A958D
S1133710E1F7C8010E94721A8DB79EB78B960FB657
S1133720F8949EBF0FBE8DBFFE01EA5AFF4F8B97E0
S11337300FB6F8949EBF0FBE8DBFADB7BEB711963E
S11337408BE201900D928A95E1F7C8010E94721AEA
S11337508DB79EB78B960FB6F8949EBF0FBE8DBFE4
S1133760FE01EF57FF4F8B970FB6F8949EBF0FBE25
S11337708DBFADB7BEB711968BE201900D928A95BD
S1133780E1F7C8010E94721A8DB79EB78B960FB6E7
S1133790F8949EBF0FBE8DBFDF91CF911F910F9103
S11337A00895FB0180818230E9F462E086E00E94A2
S11337B09A1286E90E94B51262E087E00E949A128A
S11337C087E90E94B51263E086E00E949A1288E9B4
S11337D00E94B51263E087E00E949A1289E90E9470
S11337E0B512089562E086E00E949A1282E90E946E
S11337F0B51262E087E00E949A1283E90E94B51232
S113380063E086E00E949A1284E90E94B51263E0A4
S113381087E00E949A1285E90E94B5120895DB019F
S11338201796EC918E2F90E08131910508F08CC0B1
S1133830FC01E85BFF4F0C94682361E080E00E9488
S11338409A128BE90E94B512089562E080E00E940A
S11338509A128BE90E94B512089563E080E00E94F9
S11338609A128BE90E94B512089564E080E00E94E8
S11338709A128BE90E94B512089561E080E00E94DB
S11338809A128BE90E94B512089562E080E00E94CA
S11338909A128BE90E94B512089564E080E00E94B8
S11338A09A128BE90E94B512089563E080E00E94A9
S11338B09A128BE90E94B512089561E080E00E949B
S11338C09A128BE90E94B512089562E080E00E948A
S11338D09A128BE90E94B512089563E080E00E9479
S11338E09A128BE90E94B512089564E080E00E9468
S11338F09A128BE90E94B512089561E080E00E945B
S11339009A128BE90E94B512089562E080E00E9449
S11339109A128BE90E94B512089563E080E00E9438
S11339209A128BE90E94B512089564E080E00E9427
S11339309A128BE90E94B512089565E080E00E9416
S11339409A128BE90E94B51208950F931F93CF9397
S1133950DF93EC018B010E94B519B801CE010E94DE
S11339600F1CDF91CF911F910F910895EF92FF9259
S11339700F931F93CF93DF93FB018081823011F06B
S113398080E016C0EB01CB010E9489098B019C01E8
S11339906894EE24E1F8F12C41E061E085E00E94B6
S11339A0211464E085E00E949A1289810E94D41255
S11339B0DF91CF911F910F91FF90EF90089561E0F7
S11339C085E00E949A128AE90E94B51264E085E0BB
S11339D00E949A128AE90E94B51261E088E00E946E
S11339E09A128BE90E94B51264E088E00E949A1250
S11339F08BE90E94B51208959C01DB019C919230E1
S1133A0011F480E00895DB011796EC914E2F50E0FD
S1133A104830510508F049C0C901FA01E75AFF4F7F
S1133A200C94682361E086E00E949A128CE90E945B
S1133A30B5128DE90E94B51238C061E086E00E949B
S1133A409A1285EA0E94B51286EA0E94B5122DC028
S1133A5064E086E00E949A1285EA0E94B51286EA22
S1133A600E94B51222C061E085E00E949A128AE9A0
S1133A700E94B5121AC064E085E00E949A128AE995
S1133A800E94B51212C061E088E00E949A128BE98C
S1133A900E94B5120AC064E088E00E949A128BE981
S1133AA00E94B51202C00E94DF1C0895EF92FF929B
S1133AB00F931F93CF93DF93EC018B017A010E9444
S1133AC0541AB801CE010E94631AB701CE010E94B4
S1133AD0571BB801CE010E94D11BB801CE010E9430
S1133AE0FC1CB801CE010E94B61CDF91CF911F913E
S1133AF00F91FF90EF90089527E932E041E062E0F2
S1133B0082E00E94DA1364E084E00E949A128BE956
S1133B100E94B51224EA32E041E064E086E00E94AB
S1133B20DA130895EF92FF920F931F93CF93DF93CD
S1133B308C01EB017A010E941F12E8818E2F90E024
S1133B4089309105D0F5FC01EF59FF4F0C9468239F
S1133B50A701BE01C8010E94561D2FC0A701BE01C6
S1133B60C8010E94561D29C0A701BE01C8010E94B8
S1133B70A51C23C0A701BE01C8010E943D161DC09B
S1133B80A701BE01C8010E948A1617C0A701BE0181
S1133B90C8010E94011711C0A701BE01C8010E94FB
S1133BA08A170BC0A701BE01C8010E94071905C0EE
S1133BB0A701BE01C8010E947C1D0E943412DF913E
S1133BC0CF911F910F91FF90EF900895CF93DF93C2
S1133BD0EC010E94BA0ACE0107960E94BA0ACE01ED
S1133BE00E960E94BA0ACE0145960E94BA0ACE01E8
S1133BF04C960E94BA0ADF91CF910895CF93DF9338
S1133C00EC0142E050E064E40E94BB0A43E050E06F
S1133C1064E4CE0107960E94BB0A44E050E064E4E9
S1133C20CE010E960E94BB0A45E050E064E4CE014A
S1133C3045960E94BB0A46E050E064E4CE014C96EF
S1133C400E94BB0ADF91CF9108950F931F93CF93E6
S1133C50DF93EC018B010E94F90A81111FC0B801A6
S1133C60CE0107960E94F90A81111BC0B801CE014A
S1133C700E960E94F90A811117C0B801CE014C9624
S1133C800E94F90A811113C0B801CE0145960E9421
S1133C90F90A81110FC08FEF9FEF0EC080E090E012
S1133CA00BC081E090E008C082E090E005C084E0B1
S1133CB090E002C083E090E0DF91CF911F910F91DB
S1133CC008950895ECE7F0E0808181648083EAE759
S1133CD0F0E080818F6880830895FC01ACE7B0E058
S1133CE08C918E7F8C938C918D7F8C938C918B7F18
S1133CF08C938C91877F8C936330710551F0643081
S1133D00710569F06230710579F48C9181608C934E
S1133D100BC0ACE7B0E08C9182608C9305C0ACE73B
S1133D20B0E08C9183608C93AAE7B0E08C918064BE
S1133D308C93108281E040E09C91282F392F3071C0
S1133D4094FF242F20833323B9F36091780070917A
S1133D50790080E090E00E9430222BE43CE340EACA
S1133D605BE30E94E72208958093BB0084E880937C
S1133D70BC00ECEBF0E080818823ECF79091B90073
S1133D80987F983129F081E0983219F480E0089501
S1133D9080E00895CF9394EA9093BC00ECEBF0E0BC
S1133DA090819923ECF79091B900987F983011F0A5
S1133DB0903161F4C62F0E94B41E813039F08C2FEB
S1133DC00E94B41E94E99093BC0004C084E98093DB
S1133DD0BC0081E0CF910895089560E08EE40E94D4
S1133DE0CA1E0895EF92FF920F931F93CF93DF9310
S1133DF0F901161617060CF04FC031E04130510599
S1133E0009F030E04230510509F43260E130F10547
S1133E1011F4346003C0329709F43860013011059D
S1133E2011F4306104C00230110509F430628B01D1
S1133E30EC0181E0E816F10419F4632F606406C014
S1133E4092E0E916F10409F5632F60688EE40E949C
S1133E50CA1E1982188289EF90E00197F1F700C019
S1133E600000288139812F5F3F4F39832883201731
S1133E7031078CF360E08EE40E94CA1E83ED90E368
S1133E800197F1F700C0000007C0632F8EE40E9481
S1133E90CA1E19821882DFCFDF91CF911F910F9133
S1133EA0FF90EF90089584960E94611E0895CF9329
S1133EB0DF93EC016881798184960E946D1E6A8388
S1133EC07B838C839D83DF91CF9108950F931F9300
S1133ED0CF93DF93EC018B0184960E94621E1983B9
S1133EE0088380E090E0A0EAB0E48E839F83A887F3
S1133EF0B9878AE097EDA3E2BCE38A879B87AC8706
S1133F00BD87CE010E94571F6E877F87888B998B50
S1133F1019A218A21F8E1E8EDF91CF911F910F91AF
S1133F200895CF93DF93EC010E94571F8A819B81F0
S1133F30AC81BD818E8B9F8BA88FB98FDF91CF9180
S1133F4008958F929F92AF92BF92CF92DF92EF9299
S1133F50FF92CF93DF93FC01228D222309F458C0F2
S1133F60238D211158C0EC010E94571F6B017C0165
S1133F706A837B838C839D8320E030E0A9016E8972
S1133F807F89888D998D0E948321811108C08AE0E0
S1133F9097EDA3E2BCE38E8B9F8BA88FB98F20E0B3
S1133FA030E046E953E46E897F89888D998D0E94BB
S1133FB0E7224B015C0120E030E046E953E4C7010D
S1133FC0B6010E94E7229B01AC01C501B4010E9425
S1133FD016216DA37EA38FA398A70E94FA217BA329
S1133FE06AA37AA769A71C8E772344F47195619517
S1133FF071097BA36AA382E090E012C0161617062B
S11340006CF01BA21AA281E08C8F80E090E008C0C3
S113401080E090E005C080E090E002C081E090E0A4
S1134020DF91CF91FF90EF90DF90CF90BF90AF9052
S11340309F908F900895CF93DF93EC018A819B81A9
S1134040AC81BD818A8B9B8BAC8BBD8BCE010E94D6
S1134050571F6A837B838C839D832A893B894C8980
S11340605D890E948321811108C081E08B8F81E0EA
S113407090E09F8F8E8F80E002C01B8E81E0DF91E5
S1134080CF910895FC01858D81110FC080A191A16C
S1134090019691A380A3681779074CF481E0838F7C
S11340A083E090E0978F868F089511A210A208955F
S11340B0CF92DF92EF92FF92CF93DF93EC01CE8009
S11340C0DF80E884F984A70196016E897F89888D51
S11340D0998D0E94E222882324F0CE8ADF8AE88E1A
S11340E0F98ECA84DB84EC84FD84A70196016E8971
S11340F07F89888D998D0E948321181624F0CE8A99
S1134100DF8AE88EF98EDF91CF91FF90EF90DF90F8
S1134110CF900895CF92DF92EF92FF92CF93DF93E7
S1134120EC01CE84DF84E888F9880E94571F9B0144
S1134130AC01C701B6010E948321882359F08A810A
S11341409B81AC81BD818E879F87A88BB98B81E0D1
S11341508D8F02C01D8E80E0DF91CF91FF90EF9094
S1134160DF90CF900895FC01828D91E09827928F83
S11341700895CF92DF92EF92FF921F93CF93DF9334
S1134180EC011A8D1123D1F0CB01BA012E893F899C
S1134190488D598D0E9417216E8B7F8B888F998F44
S11341A0CE80DF80E884F984A70196010E94E22290
S11341B0181624F4CE8ADF8AE88EF98E812FDF91D7
S11341C0CF911F91FF90EF90DF90CF900895CF9201
S11341D0DF92EF92FF921F93CF93DF93FC01128D36
S11341E01123D9F09A01AB01EC0166897789808D9E
S11341F0918D0E9416216E8B7F8B888F998FCA8434
S1134200DB84EC84FD84A70196010E94832188232A
S113421024F4CE8ADF8AE88EF98E812FDF91CF9144
S11342201F91FF90EF90DF90CF9008955058BB27D7
S1134230AA270E942E210C94A8220E949A2238F0C8
S11342400E94A12220F039F49F3F19F426F40C9423
S113425097220EF4E095E7FB0C949122E92F0E943B
S1134260B92258F3BA17620773078407950720F039
S113427079F4A6F50C94DB220EF4E0950B2EBA2FFC
S1134280A02D0B01B90190010C01CA01A001112458
S1134290FF27591B99F0593F50F4503E68F11A1604
S11342A0F040A22F232F342F4427585FF3CF469595
S11342B037952795A795F0405395C9F77EF41F16B7
S11342C0BA0B620B730B840BBAF09150A1F0FF0F81
S11342D0BB1F661F771F881FC2F70EC0BA0F621F6D
S11342E0731F841F48F4879577956795B795F7955D
S11342F09E3F08F0B0CF9395880F08F09927EE0FF2
S11343009795879508950E946D2208F481E0089599
S11343100E949C210C94A8220E94A12258F00E9481
S11343209A2240F029F45F3F29F00C949122511114
S11343300C94DC220C9497220E94B92268F39923EE
S1134340B1F3552391F3951B550BBB27AA2762178D
S11343507307840738F09F5F5F4F220F331F441F9A
S1134360AA1FA9F335D00E2E3AF0E0E832D09150CE
S11343705040E695001CCAF72BD0FE2F29D0660FBB
S1134380771F881FBB1F261737074807AB07B0E8FE
S113439009F0BB0B802DBF01FF2793585F4F3AF004
S11343A09E3F510578F00C9491220C94DC225F3FDF
S11343B0E4F3983ED4F3869577956795B795F7958A
S11343C09F5FC9F7880F911D9695879597F9089572
S11343D0E1E0660F771F881FBB1F6217730784070E
S11343E0BA0720F0621B730B840BBA0BEE1F88F71D
S11343F0E09508950E9401226894B1110C94DC2286
S113440008950E94C12288F09F5798F0B92F9927E8
S1134410B751B0F0E1F0660F771F881F991F1AF0AB
S1134420BA95C9F714C0B13091F00E94DB22B1E013
S113443008950C94DB22672F782F8827B85F39F012
S1134440B93FCCF3869577956795B395D9F73EF444
S113445090958095709561957F4F8F4F9F4F0895EC
S1134460E89409C097FB3EF490958095709561950A
S11344707F4F8F4F9F4F9923A9F0F92F96E9BB27C0
S11344809395F695879577956795B795F111F8CF3C
S1134490FAF4BB0F11F460FF1BC06F5F7F4F8F4FA7
S11344A09F4F16C0882311F096E911C0772321F09D
S11344B09EE8872F762F05C0662371F096E8862F35
S11344C070E060E02AF09A95660F771F881FDAF78C
S11344D0880F9695879597F90895990F0008550FB9
S11344E0AA0BE0E8FEEF16161706E807F907C0F076
S11344F012161306E407F50798F0621B730B840B7E
S1134500950B39F40A2661F0232B242B252B21F457
S113451008950A2609F4A140A6958FEF811D811DF7
S1134520089597F99F6780E870E060E008959FEF31
S113453080EC089500240A94161617061806090636
S1134540089500240A941216130614060506089505
S1134550092E0394000C11F4882352F0BB0F40F48D
S1134560BF2B11F460FF04C06F5F7F4F8F4F9F4FCD
S1134570089557FD9058440F551F59F05F3F71F04F
S11345804795880F97FB991F61F09F3F79F08795B6
S11345900895121613061406551FF2CF4695F1DF3F
S11345A008C0161617061806991FF1CF86957105CF
S11345B0610508940895E894BB2766277727CB0103
S11345C097F908950E946D2208F48FEF08950E94D0
S11345D0FA220C94A8220E949A2238F00E94A12266
S11345E020F0952311F00C9491220C94972211241D
S11345F00C94DC220E94B92270F3959FC1F3950FAD
S113460050E0551F629FF001729FBB27F00DB11D52
S1134610639FAA27F00DB11DAA1F649F6627B00DE2
S1134620A11D661F829F2227B00DA11D621F739FCB
S1134630B00DA11D621F839FA00D611D221F749FD9
S11346403327A00D611D231F849F600D211D822F20
S1134650762F6A2F11249F5750409AF0F1F0882347
S11346604AF0EE0FFF1FBB1F661F771F881F915074
S11346705040A9F79E3F510580F00C9491220C9470
S1134680DC225F3FE4F3983ED4F3869577956795F3
S1134690B795F795E7959F5FC1F7FE2B880F911D9E
S11346A09695879597F9089597FB072E16F400942D
S11346B007D077FD09D00E946E2307FC05D03EF495
S11346C0909581959F4F0895709561957F4F0895BA
S11346D0EE0FFF1F0590F491E02D0994AA1BBB1B5C
S11346E051E107C0AA1FBB1FA617B70710F0A61BEE
S11346F0B70B881F991F5A95A9F780959095BC010F
S1134700CD010895F999FECF92BD81BDF89A9927FC
S113471080B50895A6E1B0E044E050E00C94AD23E8
S1134720262FF999FECF1FBA92BD81BD20BD0FB6C9
S1134730F894FA9AF99A0FBE01960895242F0E94CC
S11347409123252F0E9491230C94A6230E94902349
S1134750272F0C949123DC01CB01FC01F999FECFA6
S113476006C0F2BDE1BDF89A319600B40D924150F5
S10D47705040B8F70895F894FFCF05
S113477ACAE0EBE8E1F0EEE2EAE000D1EEF5F0E0BF
S113478AEDE8F2FC00CEE3F0E0EDE8F7E5EDE8FF52
S113479A006D696E006D617800C4E8E0E3EDEEF146
S11347AAF2E8EAE000C4EBE8F2E5EBFCEDEEF1F244
S11347BAFC00EFF0EEF6E5F1F1E000C2EAEBFEF7F9
S11347CAE8F2FC00EEF2EA00E2EAEB00CEF8E8E1F5
S11347DAEAE800312ED1F2EEE9EAE000322ED1F213
S11347EAEEE9EAE000332ED1F2EEE9EAE000342EF3
S11347FAD1F2EEE9EAE000D1E1F0EEF100C2FBF514
S113480AEEE4002D2D004500CEF8E8E1EEEA20EDB5
S113481AE5F200CEF8E8E1EAE020C500EDE5F22091
S113482AEEF2E2E5F2E020F1F2EEE9EAE820EFF056
S113483AE820EFEEEFFBF2EAE520E8E7ECE5EDE845
S113484AF2FC20E5E520EFEEEBEEE6E5EDE8E50027
S113485AEDE5E2EEE7E6ECEEE6EDEE20E2FBF1F260
S113486AE0E2E8F2FC20E7E0E4E0EDEDEEE520EF3B
S113487AEEEBEEE6E5EDE8E500E7E0E2E8F1E0ED8F
S113488AE8E520E4E0F2F7E8EAE020EFEEEBEEE612
S113489AE5EDE8FF20E2EE20E2F0E5ECFF20E4E2B9
S11348AAE8E6E5EDE8FF003120D1F2EEE9EAE000BE
S11348BA3220D1F2EEE9EAE0003320D1F2EEE9EA5D
S11348CAE0003420D1F2EEE9EAE000CCC5CDDE0006
S11348DAD3F1F2E0EDEEE2E8F2FC00CDE0F1F2F021
S11348EAEEE9EAE800CFE0F0EAEEE2EAE000CDE839
S11348FAE6EDE5E520EFEEE72E00C2E5F0F5EDFF83
S113490AFF20EFEEE72E00D1EEF5F0E0EDE5EDEE57
S10B491A2E2E2E00CEEA00004F
S9030000FC
