S0120000436172537570706F72742E73726563FF
S11300000C9451040C9479040C9479040C947904A0
S11300100C9479040C9479040C9479040C94790468
S11300200C9479040C9479040C9479040C94790458
S11300300C9479040C9479040C9479040C94790448
S11300400C9479040C9479040C9479040C94790438
S11300500C9479040C9479040C9479040C94790428
S11300600C9479040C947904FA09FE09030A080A29
S11300700D0A120A170A1C0A220A280A2E0A700BF1
S1130080730B760B790B7C0B7F0B820B850B880B28
S1130090FB1D031E0B1E131E1B1E231E331E2B1EB5
S11300A03B1E431E4B1E531E5B1E631E6B1E731EA4
S11300B07B1EF01E111F211F291F191FFB1E061F67
S11300C0311FAC1FB81FB21FBE1FC41FCA1FD01FD1
S11300D0D61FDC1F0AD7233C0AD7A33C8FC2F53CAA
S11300E00AD7233DCDCC4C3D8FC2753D295C8F3D55
S11300F00AD7A33DEC51B83DCDCCCC3D8FC2F53DE4
S11301009A99193ECDCC4C3E9A99993E0000003FF5
S11301100000403F0000803F0000C03F000000405E
S113012000004040C0C0E0A0A0A0909090908888BB
S11301308884848484828282828181FFC0C0E0E0DA
S1130140A0A09090909088888884848484828282FD
S1130150828181FFC0C0E0E0E0A090909090888808
S11301608884848484828282828181FFC0C0E0E0AA
S1130170E0E0F090909088888884848484828282ED
S1130180828181FFC0C0E0E0E0E0F0F090908888D8
S11301908884848484828282828181FFC0C0E0E07A
S11301A0E0E0F0F0F09088888884848484828282FD
S11301B0828181FFC0C0E0E0E0E0F0F0F0F08888E8
S11301C08884848484828282828181FFC0C0E0E04A
S11301D0E0E0F0F0F0F0F8888884848484828282FD
S11301E0828181FFC0C0E0E0E0E0F0F0F0F0F8F8D8
S11301F08884848484828282828181FFC0C0E0E01A
S1130200E0E0F0F0F0F0F8F8F884848484828282EC
S1130210828181FFC0C0E0E0E0E0F0F0F0F0F8F8A7
S1130220F8FC848484828282828181FFC0C0E0E001
S1130230E0E0F0F0F0F0F8F8F8FCFC8484828282CC
S1130240828181FFC0C0E0E0E0E0F0F0F0F0F8F877
S1130250F8FCFCFC84828282828181FFC0C0E0E0E1
S1130260E0E0F0F0F0F0F8F8F8FCFCFCFC828282AC
S1130270828181FFC0C0E0E0E0E0F0F0F0F0F8F847
S1130280F8FCFCFCFCFE8282828181FFC0C0E0E0BD
S1130290E0E0F0F0F0F0F8F8F8FCFCFCFCFEFE8284
S11302A0828181FFC0C0E0E0E0E0F0F0F0F0F8F817
S11302B0F8FCFCFCFCFEFEFE828181FFC0C0E0E095
S11302C0E0E0F0F0F0F0F8F8F8FCFCFCFCFEFEFED8
S11302D0FE8181FFC0C0E0E0E0E0F0F0F0F0F8F86B
S11302E0F8FCFCFCFCFEFEFEFEFF81FFC0C0E0E06B
S11302F0E0E0F0F0F0F0F8F8F8FCFCFCFCFEFEFEA8
S1130300FEFFFFFF0000000000000000005F00008F
S1130310000000070007000000147F147F14000091
S1130320242A7F2A1200004C2C10686400003649ED
S1130330552250000000050300000000001C22416B
S11303400000000041221C00000014083E081400B4
S11303500008083E080800000000503000000010AB
S11303601010101000000060600000000020100851
S1130370040200003E5149453E000000427F400017
S11303800000426151494600002141454B310000C3
S11303901814127F100000274545453900003C4AD7
S11303A049493000000171090503000036494949F3
S11303B0360000064949291E0000003636000000B8
S11303C0000056360000000008142241000000140A
S11303D014141414000000412214080000020151F6
S11303E009060000324979413E00007E1111117E58
S11303F000007F4949493600003E41414122000046
S11304007F4141221C00007F4949494100007F0986
S113041009090100003E4149497A00007F080808A3
S11304207F000000417F410000002040413F010067
S1130430007F0814224100007F4040404000007FBC
S1130440020C027F00007F0408107F00003E41413F
S1130450413E00007F0909090600003E4151215E2A
S113046000007F0919294600004649494931000026
S113047001017F010100003F4040403F00001F2078
S113048040201F00003F4038403F00006314081420
S113049063000007087008070000615149454300E4
S11304A000007F4141000000020408102000000009
S11304B041417F000000040201020400004040406A
S11304C0404000000001020400000020545454780D
S11304D000007F484444380000384444442000006D
S11304E0384444487F000038545454180000087EAF
S11304F009010200000C5252523E00007F0804041D
S113050078000000447D400000002040443D00008D
S1130510007F10284400000000417F400000007C60
S11305200418047800007C0804047800003844446B
S1130530443800007C141414080000081414187CB7
S113054000007C08040408000048545454200000AF
S1130550043F44402000003C4040207C00001C201C
S113056040201C00003C4030403C0000442810283F
S11305704400000C5050503C00004464544C44006F
S1130580000008364100000000007F000000000069
S113059041360800000008040810080000FFFFFFAF
S11305A0FFFF00000000E0F0F8F800F8F8F0E000C9
S11305B000000000FFFFFFFF00FFFFFFFF0000003F
S11305C00000070F1F1F001F1F0F0700000000007F
S11305D0E010080800080810E00000000000FF0018
S11305E0000000000000FF000000000007081010D9
S11305F000101008070000004080E0100808000800
S11306000810E08040000000FF4224180018244233
S1130610FF00000002010708101000101008070175
S1130620020000006050484400444850600000004C
S11306300000060A12220022120A0600000000002E
S11306406070787C007C7870600000000000060E0A
S11306501E3E003E1E0E06000000183C7EE7000011
S1130660000000E77E3C180000002030381C001C0D
S113067038302000000000002A2A2A2A002A2A2AC8
S11306802A2A00000000000000030000183C7EE756
S1130690000000E77E3C180000000000E7E742008D
S11306A042E7E700000000000008183870007038C6
S11306B018080000004080E0F0F8F800F8F8F0E0D6
S11306C080400000007EBDDBE700E7DBBD7E00006C
S11306D0000201070F1F1F001F1F0F070102007CEC
S11306E01211127C00007F4949493100007F4949B9
S11306F0493600007F010101010000603F213F6095
S113070000007F49494941000077087F08770000CD
S1130710224149493600007F1008047F00007E1002
S113072009047E00007F081422410000403E0101BC
S11307307F00007F020C027F00007F0808087F0012
S1130740003E4141413E00007F0101017F00007FE6
S11307500909090600003E41414122000001017FD0
S113076001010000074848483F00000E117F110EA8
S11307700000631408146300003F20203F60000061
S1130780070808087F00007F407E407F00003F206C
S11307903F207F0000017F48483000007F48300040
S11307A07F0000007F4848300000224149493E0054
S11307B0007F083E413E0000462919097F000020C1
S11307C05454547800003C4A4A4A3100007C545442
S11307D0280000007C04040C000000603C243C6001
S11307E00000385454541800006C107C106C000045
S11307F0004454542800007C2010087C00007C2114
S113080012097C00007C10284400000040380404D5
S11308107C00007C0810087C00007C1010107C0018
S113082000384444443800007C0404047C00007C08
S11308301414140800003844444400000004047CE8
S1130840040400000C5050503C000008147C1408B0
S11308500000442810284400003C20203C60000094
S11308600C1010107C00007C407C407C00003C207C
S11308703C207C0000047C50502000007C50200070
S11308807C0000007C505020000028445454380060
S1130890007C103844380000485434147C000000B4
S11308A0ED1711241FBECFEFD8E0DEBFCDBF13E09C
S11308B0A0E0B1E0EEEAFCE402C005900D92A8309D
S11308C0B107D9F726E0A8E0B3E001C01D92AF3B21
S11308D0B207E1F714E0C1E5D4E004C02197FE01BA
S11308E00E940226C035D107C9F70E94CA170C948A
S11308F055260C94000084569F4FFC0110820895E5
S1130900CF92DF92EF92FF920F931F93CF93DF93D7
S1130910EC01CB018A0164E670E00E943F209C0157
S1130920255031092230310508F4AAC08F3F2FEF3A
S1130930920729F41B821C821D821E82A1C02F8172
S1130940223159F4009709F0A0C081E088839CE02B
S11309509F83C856DF4F888393C08230910509F482
S113096053C024F4019709F452C053C08330910555
S113097019F0049731F14DC078018EEAE80EF11CAC
S11309802AE037ED43E25CE36B817C818D819E81BB
S11309900E94B1239B01AC01F701608171818281C6
S11309A093810E94B023F7016083718382839383D0
S11309B08CEE91E5A8EBBDE38B839C83AD83BE8372
S11309C028C07801FEEAEF0EF11C2AE037ED43E27D
S11309D05CE36B817C818D819E810E94B123F70150
S11309E020813181428153810E94B123F7016083C8
S11309F07183828393838CEE91E5A8EBBDE38B83B3
S1130A009C83AD83BE8305C02F5F2F8302C021501A
S1130A102F838F818231B0F581E18F83F801E25514
S1130A20FF4FC080D180E280F38020E030E0A90154
S1130A30C701B6010E941D24181664F0F801E2559E
S1130A40FF4F8AE097EDA3E2BCE380839183A28306
S1130A50B38315C020E030E040E450E4C701B601A0
S1130A600E947C2588235CF0F801E255FF4F80E06A
S1130A7090E0A0E4B0E480839183A283B38316C0A2
S1130A8080E014C082E18F83C9CF8230910509F4DC
S1130A90BBCF24F4019709F4BACFF4CF8330910586
S1130AA009F46ACF049709F48CCFECCFDF91CF918E
S1130AB01F910F91FF90EF90DF90CF900895CF9208
S1130AC0DF92EF92FF920F931F93CF93DF93EC018A
S1130AD0CB018A0164E670E00E943F209C0125500E
S1130AE031092230310508F424C18F3F2FEF9207DA
S1130AF029F41B821C821D821E821BC12F81253179
S1130B0059F4009709F017C181E088839DE09F8321
S1130B10C856DF4F88830DC18230910509F490C017
S1130B2024F4019709F48FC090C08330910521F01B
S1130B30049709F445C089C02331E9F4780182EBB4
S1130B40E80EF11C2AE037ED43E25CE36B817C8123
S1130B508D819E810E94B1239B01AC01F7016081CC
S1130B607181828193810E94B023F7016083718334
S1130B70828393831CC07801F6EBEF0EF11C2AE00C
S1130B8037ED43E25CE36B817C818D819E810E9421
S1130B90B1239B01AC01F701608171818281938152
S1130BA00E94B023F70160837183828393838CEE68
S1130BB091E5A8EBBDE38B839C83AD83BE8345C0E5
S1130BC02331D9F47801F2EBEF0EF11C2AE037ED72
S1130BD043E25CE36B817C818D819E810E94B12321
S1130BE0F70120813181428153810E94B123F701B1
S1130BF060837183828393831AC07801F6EBEF0ECE
S1130C00F11C2AE037ED43E25CE36B817C818D814A
S1130C109E810E94B123F701208131814281538159
S1130C200E94B123F70160837183828393838CEEE6
S1130C3091E5A8EBBDE38B839C83AD83BE8305C0A4
S1130C402F5F2F8302C021502F838F81843118F4AA
S1130C5083E18F8305C08F81853110F085E18F8317
S1130C6020E030E0A901F801EE54FF4F608171816A
S1130C70828193810E941D2418163CF0F801EE54E1
S1130C80FF4F108211821282138220E030E040EA8A
S1130C9050E4F801EA54FF4F6081718182819381AD
S1130CA00E947C2588235CF080E090E0A0EAB0E418
S1130CB0F801EA54FF4F80839183A283B3838F8129
S1130CC0833119F08431D9F033C0F801EA54FF4F6D
S1130CD0C080D180E280F380A701960134976081BF
S1130CE07181828193810E947C2588230CF1F80113
S1130CF0EE54FF4FC082D182E282F38219C0F80120
S1130D00EE54FF4FC080D180E280F380A7019601AA
S1130D10349660817181828193810E941D2418160A
S1130D203CF0F801EA54FF4FC082D182E282F382A0
S1130D3013C080E011C08230910509F481CF24F4FE
S1130D40019709F480CF87CF8330910509F4F4CE5D
S1130D50049709F435CF7FCFDF91CF911F910F9185
S1130D60FF90EF90DF90CF900895CF92DF92EF92B3
S1130D70FF920F931F93CF93DF93EC01CB018A0172
S1130D8064E670E00E943F209C0125503109223026
S1130D90310508F4CFC08F3F2FEF920729F41B824F
S1130DA01C821D821E82C6C08130910539F08230BA
S1130DB0910539F42F812F5F2F8303C02F81215098
S1130DC02F832F81273118F426E12F8312C0283175
S1130DD018F028E12F8363C02F81273151F4009745
S1130DE041F4C8010E94B5128F81883109F06FC0A7
S1130DF05EC02F81263109F052C08330910521F065
S1130E008430910531F14BC078018AEBE80EF11C76
S1130E1020E030E040E85FE36B817C818D819E813E
S1130E200E94B1239B01AC01F70160817181828131
S1130E3093810E94B023F70160837183828393833B
S1130E4080E090E0A0E1B1E48B839C83AD83BE831A
S1130E503EC07801FAEBEF0EF11C20E030E040E8F0
S1130E605FE36B817C818D819E810E94B123F701B8
S1130E7020813181428153810E94B123F701608333
S1130E8071838283938380E090E0A0E1B1E48B835B
S1130E909C83AD83BE838F818831C9F410C02F81B8
S1130EA02831A9F4009719F0049789F408C081E067
S1130EB088839EE09F83C856DF4F88833BC081E0D0
S1130EC088839EE09F83C856DF4F888333C0F80130
S1130ED0E654FF4FC080D180E280F38020E030E010
S1130EE040EA50E4C701B6010E941D24181664F0BC
S1130EF0F801E654FF4F80E090E0A0EAB0E480837C
S1130F009183A283B38315C020E030EC49E754E415
S1130F10C701B6010E947C2588235CF0F801E654E1
S1130F20FF4F80E090ECA9E7B4E480839183A2832F
S1130F30B38301C080E0DF91CF911F910F91FF90A7
S1130F40EF90DF90CF9008950F931F93CF93DF938B
S1130F50EC01CB018A0164E670E00E943F209C0111
S1130F60255031092230310508F468C08F3F2FEF36
S1130F70920709F463C0009739F48F818D31A1F48D
S1130F80C8010E94BD125AC08430910531F48F818A
S1130F908D3191F48EE18F8351C08230910581F4BB
S1130FA08F818D31C9F54AC08F818E3151F581E031
S1130FB088838FE08F8342C08F818E3151F53EC08C
S1130FC08330910531F48F818E31F1F48DE18F837B
S1130FD035C08130910531F48F818E3109F58CE172
S1130FE08F832CC082309105B9F02CF4009749F01E
S1130FF00197B1F018C08330910531F0049799F44A
S113100008C087E088830FC081E088838FE08F83E6
S113101015C087E0888307C08F818F5F8F8303C0EB
S11310208F8181508F838F818A3118F489E18F8376
S113103004C08E3110F08EE18F8301C080E0DF9117
S1131040CF911F910F910895CF93DF93EC01CB01C2
S113105064E670E00E943F209C0125503109223053
S1131060310528F0019619F086E0888301C080E0FC
S1131070DF91CF9108950F931F93CF93DF93EC01EA
S1131080CB01FE01EA56FF4F10823196108220E117
S113109030E03A83298308E00F8311E018830E942B
S11310A0F4121B8792E09C8786E6898765E06A874D
S11310B08887198B1A8A1F8724E0288B84E68E87F9
S11310C02BA346E04CA319A32AA388A319A79AA784
S11310D01FA248A735E63EA34D8F33E03E8F9B8F7A
S11310E03C8F8A8F1F8A988F9D8B3E8B8C8B2FA76A
S11310F038AB6DA782E78EA78CA787E68DAB0EABC6
S11311001BAA1CAB0AAB8AAF2BAF18AE99AF2FAB9F
S11311108FAFFE01E05CFF4F5CE050831DAF3EAF3C
S11311205CAF349680833196808333979083319675
S113113030833297808338961083319638E6308333
S113114033972083319660833297308338961083A7
S1131150319639E630833397208331964083329732
S113116030833896108331963AE630833397608320
S1131170319627E020833297308338961083319656
S113118080833397408331962083329780833896C7
S1131190108231963BE6308333970083319629E001
S11311A02083329730833896108231964CE6408300
S11311B03397008331963AE03083329740833896F0
S11311C0108231964DE640833397208331962BE08D
S11311D020833297408338961082319680833397E8
S11311E0308331962083329780833896908331966A
S11311F02EE620833397508331963DE03083329737
S113120020833896908331964FE6408333975083FA
S113121031962EE02083329740833896908331961E
S113122040E740833397308331963FE030833297F1
S1131230408338969083319641E7408333972083E7
S1131240319620E1208332974083389690833196FB
S113125080833397308331962083CE57DF4F888342
S1131260DF91CF911F910F9108950F931F93CF9307
S1131270DF93EC018B018F81823069F018F48130A7
S113128031F019C0833061F0843081F014C0CB0197
S11312900E94422310C0CB018B960E9442230BC0B4
S11312A0CB018A5A9F4F0E94422305C0CB018F571E
S11312B09F4F0E944223FE01E456FF4F808181111B
S11312C00DC0C8010E94250D882341F088E0888361
S11312D0C656DF4F81E090E099838883DF91CF91F8
S11312E01F910F910895FC01EA56FF4F21E02083DE
S11312F0FC012781253041F0263061F0243079F457
S1131300E756FF4F10820BC021E0FC01E756FF4F68
S1131310208305C022E0FC01E756FF4F208328E02C
S1131320FC012083E656FF4F118210820895DC01F0
S11313301196ED91FC911297EE0FFF1FEE0FFF1F18
S1131340EC52FF4F65917591859194910895FC013C
S1131350DC01A956BF4F81E08C938781893039F035
S11313608A3059F0883071F412961C920BC081E0D7
S1131370DF01A756BF4F8C9305C082E0DF01A7565B
S1131380BF4F8C9382E08083178208950F931F933D
S1131390CF93DF93EC018B01CA010E943A1264E6F9
S11313A070E0C8010E943F20AC010597029708F441
S11313B05EC04F3F8FEF580709F45BC09F81292F10
S11313C030E0C901880F991F880F991F280F391F12
S11313D02C0F3D1FF901E40FF51F22A9822F90E085
S11313E0FC01E756F109EB30F105F0F5EC5CFF4F39
S11313F00C94022618821F8281E03CC0CE010E9418
S1131400730981E037C0CE010E94730981E032C0C4
S1131410CE010E94730981E02DC0CE010E94A7096C
S113142081E028C0CE010E94A70981E023C0CE013B
S11314300E94A70981E01EC083E0888381E18F8335
S113144081E018C084E0888383E18F8381E012C047
S113145085E0888386E18F8381E00CC086E0888301
S11314608DE18F8381E006C02F8381E003C080E09B
S113147001C080E0DF91CF911F910F910895CF9328
S1131480DF93EC01CB0164E670E00E943F200196FB
S113149011F480E005C01882C456DF4F81E08883D0
S11314A0DF91CF910895FC01E656FF4F20813181F1
S11314B02130310599F02230310599F0232B99F42C
S11314C02FE33DE043E0215030404040E1F700C0CD
S11314D0000021E0FC012083278308950E943F0A35
S11314E008950E943F0A0895EF92FF920F931F936D
S11314F0CF93DF937C01EB018A01FC01E456FF4F9B
S1131500808181110EC0CB010E94250D882349F0F2
S113151088E0F7018083E656FF4F81E090E09183F5
S11315208083CE010E94A7120530110521F00630F8
S1131530110529F007C0CE010E94790C03C0CE0129
S11315400E94CF0CDF91CF911F910F91FF90EF90EC
S11315500895EF92FF920F931F93CF93DF93EC01C3
S11315607B018A01CA010E943A1264E670E0C70155
S11315700E943F20AC010597029730F4B801CE01D8
S11315800E94740A80E039C04F3F8FEF5807A1F1E1
S11315909F81292F30E0C901880F991F280F391F17
S11315A0220F331F2C0F3D1FF901E40FF51F808517
S11315B08536A1F018F4843631F01BC08636A9F0C4
S11315C0823739F016C0B801CE010E94350981E096
S11315D014C0C8010E94F41281E00FC082E0888325
S11315E0C8010E94630C81E008C081E088831F82E7
S11315F004C08F8381E001C080E0DF91CF911F910F
S11316000F91FF90EF9008950F931F93CF93DF9363
S1131610EC01CB018A0164E670E00E943F209C014A
S1131620255031092230310530F4AC01B801CE0126
S11316300E94740A41C08F3F2FEF9207E9F1823074
S11316409105B9F02CF4009749F0019749F025C0B1
S113165083309105B9F00497D9F01FC018821DC0DA
S1131660CE010E949709AB01BC01C8010E94E81198
S113167014C0CE010E949709AB01BC01C8010E94AD
S113168011120BC089819A8101979A83898305C0BD
S113169089819A8101969A83898389819A8118160E
S11316A019061CF01A82198206C0439724F083E1BC
S11316B090E09A83898301C080E0DF91CF911F91EC
S11316C00F9108950F931F93DC01EC910E2F10E0FE
S11316D009301105F8F4F801E15CFF4F0C9402267F
S11316E00E94A90A17C00E94C60914C00E94040BD4
S11316F011C00E9480040EC00E945F050BC00E94AE
S1131700B50608C00E94A40705C00E94240802C0B0
S11317100E94530A1F910F9108950895FC0160835C
S11317204183528384EF91E0968385836334A1F0EF
S1131730643411F1623479F524B181E090E002C09F
S1131740880F991F4A95E2F7982F9095922394B9A0
S113175095B1892B85B9089527B181E090E002C045
S1131760880F991F4A95E2F7982F9095922397B97D
S113177098B1892B88B908952AB181E090E002C01C
S1131780880F991F4A95E2F7982F909592239AB95A
S11317909BB1892B8BB90895FC01772374F1808167
S11317A0833479F08434B9F0823409F06AC083B1A7
S11317B090E0018002C0959587950A94E2F78170C4
S11317C013C086B190E0018002C0959587950A9474
S11317D0E2F7817009C089B190E0018002C095955B
S11317E087950A94E2F78170882309F44EC084EF48
S11317F091E09683858380E0089514821382858125
S113180096811816190634F036C025813681821760
S113181093078CF58081833471F08434B1F0823481
S113182091F523B130E0018002C0359527950A94E3
S1131830E2F7217013C026B130E0018002C0359573
S113184027950A94E2F7217009C029B130E001809C
S113185002C0359527950A94E2F7217089EF90E04C
S11318600197F1F700C0000083819481019694836D
S11318708383222351F284E690E09683858381E07A
S1131880089580E0089580E0089514821382B7CF0C
S1131890CF93DF93EC010E94E221CE018B960E944C
S11318A0E221CE018A5A9F4F0E94E221CE018F5736
S11318B09F4F0E94E221CE0184559F4F0E941A211E
S11318C0DF91CF910895CF93DF93EC010E94202202
S11318D0CE018B960E942022CE018A5A9F4F0E94ED
S11318E02022CE018F579F4F0E942022DF91CF915B
S11318F00895EF92FF920F931F93FC01228D2223F0
S113190029F021E0E853FF4F208304C0FC01E85391
S1131910FF4F1082FC01EB5BFF4F2081222329F053
S113192021E0EC57FF4F208304C0FC01E753FF4F35
S11319301082FC01E059FF4F2081222329F021E08D
S1131940E65AFF4F208304C0FC01E653FF4F108288
S1131950FC01E556FF4F2081222321F021E0F0967F
S1131960208304C0FC01E553FF4F1082FC01E553C2
S1131970FF4FE080F12C3197008110E031972081F6
S113198030E03197408150E06AE070E084559F4F29
S11319900E9481211F910F91FF90EF900895EF9283
S11319A0FF920F931F93FC01228D222329F022E042
S11319B0E853FF4F208304C0FC01E853FF4F10821B
S11319C0FC01EB5BFF4F2081222329F022E0EC573E
S11319D0FF4F208304C0FC01E753FF4F1082FC013A
S11319E0E059FF4F2081222329F022E0E65AFF4FDD
S11319F0208304C0FC01E653FF4F1082FC01E5562E
S1131A00FF4F2081222321F022E0F096208304C09E
S1131A10FC01E553FF4F1082FC01E553FF4FE080CA
S1131A20F12C3197008110E03197208130E031971B
S1131A30408150E06AE070E084559F4F0E9481210C
S1131A401F910F91FF90EF900895CF93DF93EC01D6
S1131A500E94A523811112C0CE018B960E94A5235A
S1131A6081110CC0CE018A5A9F4F0E94A523811177
S1131A7005C0CE018F579F4F0E94A523DF91CF91C0
S1131A800895CF93DF93FC01DC01AA54BF4F8D91DD
S1131A909D910D90BC91A02D86839783A087B187DB
S1131AA081AB92ABA3ABB4ABEF01C45ADF4F8883D5
S1131AB09983AA83BB83AB9688839983AA83BB83C8
S1131AC0DF01AE54BF4F8D919D910D90BC91A02D1F
S1131AD082879387A487B58785AB96ABA7ABB0AF56
S1131AE0A79788839983AA83BB83E557FF4F808395
S1131AF09183A283B383DF91CF910895CF93DF9332
S1131B00EC010E94E722CE018B960E94E722CE01CF
S1131B108A5A9F4F0E94E722CE018F579F4F0E94FF
S1131B20E722DF91CF9108954F925F926F927F9257
S1131B308F929F92AF92BF92CF92DF92EF92FF92D9
S1131B400F931F93CF93DF93EC010E94E6214E0184
S1131B508BE2880E911CC4010E94E6215E0196E589
S1131B60A90EB11CC5010E94E6216E01E1E8CE0E6A
S1131B70D11CC6010E94E6213E01FCEA6F0E711CD5
S1131B80EE24E394F12C01E010E021E030E041E0A8
S1131B9050E06AE070E0C3010E942021CE010E945F
S1131BA0AA222E019EEC490E511C90E0F201918371
S1131BB08083C4010E94AA22FE01E053FF4F90E0FB
S1131BC091838083C5010E94AA22FE01EE52FF4F39
S1131BD090E091838083C6010E94AA22FE01EC5208
S1131BE0FF4F90E0918380836894EE24E1F8F12C18
S1131BF002E010E022E030E042E050E06AE070E011
S1131C00C3010E942021F20180819181892B99F0E6
S1131C10329680819181892B81F0329680819181E5
S1131C20892B69F0CC52DF4F81E028813981232B45
S1131C3039F480E005C080E003C080E001C080E0AA
S1131C40DF91CF911F910F91FF90EF90DF90CF9094
S1131C50BF90AF909F908F907F906F905F904F90C8
S1131C600895CF93DF93EC0161E070E00E94F521C9
S1131C7062E070E0CE018B960E94F52163E070E093
S1131C80CE018A5A9F4F0E94F52164E070E0CE0194
S1131C908F579F4F0E94F521CE0184559F4F0E947C
S1131CA01B21FE01E852FF4F81E090E09183808385
S1131CB0CE010E94940DDF91CF910895CF93DF93CD
S1131CC0FC01E154FF4FDC0192962D913C919397D6
S1131CD031832083AF53BF4FEC01C35BDF4F2881B7
S1131CE0398111963C932E931296AB9628813981B3
S1131CF011963C932E931296AB96288139812D939D
S1131D003C93DF01AC0149535F4F61917191161609
S1131D10170624F0E417F507C1F727C0611571050C
S1131D2039F12D913D911216130624F42617370725
S1131D300CF4B901A417B507A1F76333710514F0C6
S1131D4062E370E0EC01072E000C880B990B0E94F3
S1131D50CC24C255DF4F288139814A815B810E949E
S1131D6081250E949424CB0105C080E090E002C04C
S1131D7080E090E0DF91CF910895CF92DF92EF92CF
S1131D80FF920F931F93CF93DF93CDB7DEB78B856D
S1131D909C858230910571F01CF4019739F01DC0C7
S1131DA08330910571F00497A1F017C0CC24C3943B
S1131DB0D12C13C0CC24C3940F2EFBE0DF2EF02DC6
S1131DC00CC06894CC24C2F80F2EFBE0DF2EF02D5B
S1131DD004C06894CC24C2F8D12CCE010B960E9486
S1131DE0E6218B019C016894EE24E1F8F12C41E09A
S1131DF06C2D8D2D0E94FA150E94F013DF91CF9166
S1131E001F910F91FF90EF90DF90CF9008954F9224
S1131E105F926F927F928F929F92AF92BF92CF9276
S1131E20DF92EF92FF920F931F93CF93DF93EC0116
S1131E300E9430226E0198ECC90ED11CF6018083F9
S1131E408DB79EB78B970FB6F8949EBF0FBE8DBF0C
S1131E50ADB7BEB711968BE2FE0101900D928A9543
S1131E60E1F7CE010E94BD0E5E019BE2A90EB11CFA
S1131E70EDB7FEB7BB960FB6F894FEBF0FBEEDBF2D
S1131E80C5010E9430224E01F9EC8F0E911CF40121
S1131E9080838DB79EB78B970FB6F8949EBF0FBE05
S1131EA08DBFADB7BEB711968BE2F50101900D92CF
S1131EB08A95E1F7CE010E94BD0E3E0196E5690EBA
S1131EC0711CEDB7FEB7BB960FB6F894FEBF0FBEFC
S1131ED0EDBFC3010E9430228E0106531F4FF8014B
S1131EE080838DB79EB78B970FB6F8949EBF0FBEB5
S1131EF08DBFADB7BEB711968BE2F30101900D9281
S1131F008A95E1F7CE010E94BD0E2E0191E8490E9B
S1131F10511CEDB7FEB7BB960FB6F894FEBF0FBECB
S1131F20EDBFC2010E9430227E01FBECEF0EF11CDA
S1131F30F70180838DB79EB78B970FB6F8949EBF39
S1131F400FBE8DBFADB7BEB711968BE2F201019003
S1131F500D928A95E1F7CE010E94BD0EEDB7FEB752
S1131F60BB960FB6F894FEBF0FBEEDBFF701E0803D
S1131F70F12CF801008110E0F401208130E0F60139
S1131F80408150E06AE070E0CE0184559F4F0E948A
S1131F902021F6018081882351F0CE010E94AA22DB
S1131FA0FE01E253FF4F90E09183808307C081E0FC
S1131FB090E0FE01E253FF4F91838083FE01E753DB
S1131FC0FF4F8081882351F0C5010E94AA22FE019F
S1131FD0E053FF4F90E09183808307C081E090E05D
S1131FE0FE01E053FF4F91838083FE01E653FF4FD0
S1131FF08081882351F0C3010E94AA22FE01EE527F
S1132000FF4F90E09183808307C081E090E0FE0160
S1132010EE52FF4F91838083FE01E553FF4F808191
S1132020882351F0C2010E94AA22FE01EC52FF4F04
S113203090E09183808307C081E090E0FE01EC5240
S1132040FF4F91838083FE01E253FF4F8081918192
S1132050892B99F0329680819181892B81F0329677
S113206080819181892B69F0CC52DF4F81E02881F6
S11320703981232B39F480E005C080E003C080E07F
S113208001C080E0DF91CF911F910F91FF90EF90FD
S1132090DF90CF90BF90AF909F908F907F906F9084
S11320A05F904F9008952F923F924F925F926F925C
S11320B07F928F929F92AF92BF92CF92DF92EF92D4
S11320C0FF920F931F93CF93DF93CDB7DEB72E9775
S11320D00FB6F894DEBF0FBECDBF9E878D870E94DA
S11320E07E0DED85FE85EA52FF4F81E090E09183FD
S11320F080838D859E850E94070F882309F44FC134
S1132100ED85FE85EA52FF4F8081918118161906EC
S11321100CF045C1812C912C6D847E8488EC680E72
S1132120711CED85FE85BB96FA83E9834D845E843C
S1132130F9EC4F0E511C8D859E858A5A9F4F9C83C6
S11321408B832D843E849AEC290E311CED85FE850B
S1132150EF57FF4FFE83ED838D859E8585539F4FFB
S113216098878F83ED85FE85EA52FF4FFA87E987CA
S11321708D859E8584559F4F9C878B8705C0F8EC81
S11321808F16910409F4B9C08D859E850E94302272
S1132190F30180838DB79EB78B970FB6F8949EBFDB
S11321A00FBE8DBFADB7BEB711968BE2ED85FE8530
S11321B001900D928A95E1F78D859E850E94BD0E52
S11321C00FB6F894DEBF0FBECDBF89819A810E94FD
S11321D03022F20180838DB79EB78B970FB6F894A7
S11321E09EBF0FBE8DBFADB7BEB711968BE2E9811E
S11321F0FA8101900D928A95E1F78D859E850E9462
S1132200BD0E0FB6F894DEBF0FBECDBF8B819C818F
S11322100E943022F10180838DB79EB78B970FB651
S1132220F8949EBF0FBE8DBFADB7BEB711968BE2BB
S1132230EB81FC8101900D928A95E1F78D859E8555
S11322400E94BD0E0FB6F894DEBF0FBECDBF8D81C8
S11322509E810E943022EF81F88580838DB79EB7DE
S11322608B970FB6F8949EBF0FBE8DBFADB7BEB7A8
S113227011968BE2ED81FE8101900D928A95E1F732
S11322808D859E850E94BD0EF301A080B12CF201C4
S1132290C080D12CF101008110E0EF81F885E0804D
S11322A0F12CC5018C0D9D1D800F911F8E0D9F1D5E
S11322B0E985FA85918380830FB6F894DEBF0FBE5B
S11322C0CDBF8D859E850E945E0E9601A501BC0141
S11322D08B859C850E9420219FEF891A990AE985A4
S11322E0FA8580819181181619060CF448CF94E67A
S11322F0891691040CF453C000C0ED85FE85E853A3
S1132300FF4F8081882341F081E0ED85FE85838F36
S113231082E090E0978F868FED85FE85E753FF4F2F
S11323208081882371F081E0ED85FE85EA5BFF4FB3
S1132330808382E090E0ED85FE85E75BFF4F91832B
S11323408083ED85FE85E653FF4F8081882371F0FD
S113235081E0ED85FE85EF58FF4F808382E090E0B9
S1132360ED85FE85EC58FF4F91838083ED85FE85D6
S1132370E553FF4F8081882391F0ED85FE85E45677
S1132380FF4F81E080838D859E8581569F4F9A8380
S1132390898382E090E0E981FA81918380832E969B
S11323A00FB6F894DEBF0FBECDBFDF91CF911F9162
S11323B00F91FF90EF90DF90CF90BF90AF909F90E0
S11323C08F907F906F905F904F903F902F900895E3
S11323D0CF92DF92EF92FF92CF93DF93EC016A01E9
S11323E07B010E944823B701A601CE018B960E946F
S11323F04823B701A601CE018A5A9F4F0E94482361
S1132400B701A601CE018F579F4F0E944823CE01EA
S11324100E945310DF91CF91FF90EF90DF90CF9007
S11324200895CF92DF92EF92FF92CF93DF93EC0166
S11324306A017B010E947623B701A601CE018B9627
S11324400E947623B701A601CE018A5A9F4F0E94AB
S11324507623B701A601CE018F579F4F0E947623A2
S1132460CE010E945310DF91CF91FF90EF90DF9047
S1132470CF900895AF92BF92CF92DF92EF92FF92E6
S11324800F931F93CF93DF93FC01E254FF4F2081FE
S1132490222309F451C0EC010E9419236E018BE23E
S11324A0C80ED11CC6010E9419237E01E6E5EE0E7A
S11324B0F11CC7010E9419238E010F571F4FC80139
S11324C00E941923FE01E85BFF4F9D8D8081892BBB
S11324D0BB969081892B21F4BB968081882361F17E
S11324E05E01FAEBAF0EB11CF5016081718182814E
S11324F093810E949424CE010E94D122F50160812F
S11325007181828193810E949424C6010E94D12208
S1132510F50160817181828193810E949424C701B5
S11325200E94D122F50160817181828193810E9490
S11325309424C8010E94D122DF91CF911F910F9161
S1132540FF90EF90DF90CF90BF90AF900895FC0183
S113255011A210A2E55BFF4F11821082BB9611827B
S11325601082BB96118210820895FC01E254FF4F41
S1132570808191E0982790830895FC01138E178E33
S1132580168EEA5BFF4F1082339611821082B89642
S11325901082339611821082B8961082339611827B
S11325A010820895FC01238D211102C021E0228FA5
S11325B0FC01EA5BFF4F2081211103C021E0319728
S11325C02083FC01EF58FF4F2081211103C021E03B
S11325D031972083FC01E456FF4F2081211103C071
S11325E0319721E020830895CF93DF93EC010E947B
S11325F0AA238823F9F0CE018B960E94AA2388236C
S1132600C9F0CE018A5A9F4F0E94AA23882391F0D1
S1132610CE018F579F4F0E94AA23882359F01A8E08
S1132620FE01EB5BFF4F1082BB961082C556DF4F55
S1132630188203C0CE010E94D212DF91CF91089577
S11326402A98613011F4299A01C029988EBD0DB4DD
S113265007FEFDCF2A9A0895CF92DF92EF92FF9260
S11326600F931F93CF93DF936B017C01EA01CA019F
S11326700197209781F061E070E09B01220F331FE6
S1132680660F771F660F771F660F771F620F731F22
S1132690019798F702C061E070E0072E000C880BE8
S11326A0990B0E94CC24A70196010E9481250E94C7
S11326B09424AB01BC01CA0199231CF021E030E051
S11326C002C02FEF3FEF249FC001259F900D349F40
S11326D0900D112407E113E00F2EFAE0EF2EF12CF8
S11326E0F02D0F2EFEE2DF2EF02D02C08F01EA0145
S11326F0F801B7010E94EE25805D8293862F972F03
S1132700AE014150510919F4F8013297D082009773
S113271069F714161506D4F4BE0162507109DF017D
S113272040E32197CE1BDF0B4E93CD018C0F9D1FF1
S113273018161906CCF3CB01992314F480E090E029
S113274080959095E80FF91F8EE2829380818E32F6
S113275011F480E38293332314F48DE28293CF0146
S1132760DF91CF911F910F91FF90EF90DF90CF9069
S113277008952C9A84B18E6384B92C982C9A80E5A0
S11327808CBD2A9A60E081E20E94201360E088EC0C
S11327900E94201360E086E00E94201360E083E141
S11327A00E94201360E080E20E94201360E08CE02D
S11327B00E942013089588EF91E0EEE1F3E0DF0139
S11327C09C011D9221503040E1F710921D0310929C
S11327D01C0387EF91E090931B0380931A030895E1
S11327E0EF92FF920F931F93CF93DF9380911C037B
S11327F090911D0399232CF410921D0310921C0335
S113280009C0883F914034F087EF91E090931D0315
S113281080931C0380911A0390911B0399232CF439
S113282010921B0310921A0309C0883F914034F0A0
S113283087EF91E090931B0380931A03C0911C03CC
S1132840D0911D03CE0164E570E00E94EE25162FA1
S113285060E080680E94201360E0812F80640E9401
S11328602013E0901A03F0901B03EC16FD066CF0A5
S11328708E01025E1C4F61E0F80181918F010E947C
S113288020132196EC16FD06B4F787EF91E09093A0
S11328901D0380931C0310921B0310921A03DF91F3
S11328A0CF911F910F91FF90EF9008958E30A8F46F
S11328B06630A8F490E09C01220F331F820F931F0F
S11328C0880F991F24E5629F800D911D1124909318
S11328D019038093180380E0089581E0089581E04E
S11328E008954091180350911903805297E0899FED
S11328F0F0011124EC5FFC4FDA01A25EBC4F9A0197
S11329002C5D3C4F84918D933196A217B307D1F778
S11329104A5F5F4F509319034093180380E0089572
S1132920409118035091190390E0FC01EE0FFF1F32
S1132930E80FF91FEE0FFF1FEE0FFF1FEE0FFF1F33
S1132940EC5DFE4FDA01A25EBC4F9A012A5C3C4F5B
S113295084918D933196A217B307D1F7485E5F4FE8
S1132960509319034093180380E008950F931F9325
S1132970CF93DF93409118035091190320911C03C6
S113298030911D034217530724F450931D034093C1
S11329901C03E0EEE60FE03A08F4A0C0603C08F443
S11329A09CC0EDECE60F9AC08491880F8D9331960C
S11329B0A217B307C9F74B5F5F4F509319034093B6
S11329C0180365C0823009F062C0CA0184559109B8
S11329D020911C0330911D03821793070CF08EC0C5
S11329E090931D0380931C0389C02491220F822F8E
S11329F08270982F990F890F982F990F822F8470C6
S1132A00382F330F830F880F880F892B022F0870FC
S1132A10019F002D1124082B30E03595279535951D
S1132A2027953595279535952795822F8270382FD0
S1132A30330F830F880F322F3170932F990F390F73
S1132A40832B922F9470392F330F930F990F990F73
S1132A50892B922F9870919F902D1124282F292B28
S1132A60088309832C9311962C93119731962296FF
S1132A701296A617B70709F0B8CFCA010B9668EFEC
S1132A8071E00E94EE2590931903809318038091BE
S1132A9018039091190320911A0330911B032817EE
S1132AA0390724F490931B0380931A03FC01E25E1C
S1132AB0FC4F1082873F21E0920731F410921903F2
S1132AC01092180382E02DC001969093190380930D
S1132AD0180380E026C081E024C0EFE5813009F0CE
S1132AE071CF87E0E89FF0011124EC5FFC4FDA011D
S1132AF0A25EBC4F9A012D5D3C4F56CF99235CF3E7
S1132B0027E0E29FF0011124EC5FFC4FEA01C65379
S1132B10DD4FDA01A25EBC4FBA01685D7C4F18E15B
S1132B2064CFDF91CF911F910F9108950F931F935D
S1132B30CF93DF93D42F89010E945614F80160814A
S1132B40662379F0C0E08D2F0E94B614813041F0E5
S1132B50CF5FF801EC0FF11D60816111F4CF01C06A
S1132B6061E0862FDF91CF911F910F910895FF921D
S1132B700F931F93CF93DF93F42E89010E94561471
S1132B80F8016081662391F0C0E06E3221F08F2D50
S1132B900E94B614D82FD13041F0CF5FF801EC0F6A
S1132BA0F11D60816111F1CF01C061E0862FDF91D9
S1132BB0CF911F910F91FF900895DF92EF92FF92B2
S1132BC00F931F93CF93DF93C82FD62FD42EA70133
S1132BD0C901B8010E942C139C014D2D6D2F8C2F1F
S1132BE00E949615DF91CF911F910F91FF90EF9066
S1132BF0DF900895DF92EF92FF920F931F93CF938C
S1132C00DF93C82FD62FD42EA701C901B8010E9483
S1132C102C139C014D2D6D2F8C2F0E94B715DF9125
S1132C20CF911F910F91FF90EF90DF900895CF9275
S1132C30DF92EF92FF920E94B91384EB95E00E9419
S1132C400A2085EE95E00E94310E65EE75E086E17E
S1132C5095E00E943B0889E490E00E9424266B01E1
S1132C607C0120E030E0A9010E947C25181694F034
S1132C7020E030E040E450E4C701B6010E941D2486
S1132C80882344F040E050E060E87FE389E490E08A
S1132C900E94382689E490E00E94242660939306DB
S1132CA070939406809395069093960685E490E03D
S1132CB00E9424266B017C0120E030E0A9010E94DF
S1132CC07C2588238CF420E030E040EA50E4C701FE
S1132CD0B6010E941D2418163CF440E050E0BA01ED
S1132CE085E490E00E94382685E490E00E94242642
S1132CF060939706709398068093990690939A062A
S1132D0081E490E00E9424266B017C0120E030E005
S1132D10A9010E947C25882394F420E030E040EA55
S1132D2050E4C701B6010E941D24181644F440E083
S1132D3050E060EA70E481E490E00E94382681E487
S1132D4090E00E94242660939B0670939C068093D7
S1132D509D0690939E0685EE95E00E94410D8CE3BE
S1132D6090E00E9424266B017C0120E030E0A90160
S1132D700E947C258823BCF420E030EC49E754E42D
S1132D80C701B6010E941D2418166CF440E050E0FF
S1132D9068E472E48CE390E00E94382661E080E409
S1132DA090E00E942A268CE390E00E9424266093FF
S1132DB09F067093A0068093A1069093A20680E4D8
S1132DC090E00E941C2691E0811101C090E0909354
S1132DD0A306FF90EF90DF90CF9008958823D1F160
S1132DE040919306509194066091950670919606D1
S1132DF089E490E00E943826409197065091980605
S1132E006091990670919A0685E490E00E943826B4
S1132E1040919B0650919C0660919D0670919E0680
S1132E2081E490E00E94382685EE95E00E94410DF1
S1132E3040919F065091A0066091A1067091A20650
S1132E408CE390E00E9438266091A30680E490E031
S1132E500E942A2608950F931F93CF93DF93209106
S1132E60AC05222399F1EC0185EE95E00E94E62160
S1132E70AB01BC0184E18C9F80018D9F100D112456
S1132E80C8018C5F9F4F0E94382680E196E00E9423
S1132E90E621AB01BC01C801885F9F4F0E94382620
S1132EA08BE396E00E94E621AB01BC01C801845F7C
S1132EB09F4F0E94382686E696E00E94E621AB01E9
S1132EC0BC01C801805F9F4F0E9438261092AC0558
S1132ED0DF91CF911F910F9108950F931F93CF937B
S1132EE0DF932091AD05222309F44DC0EC0185EE5A
S1132EF095E00E94D21245EE55E066E175E083EB61
S1132F0095E00E94961F84E18C9F80018D9F100D97
S1132F101124C8018C5F9F4F0E9424266093FB05F7
S1132F207093FC058093FD059093FE05C801885FAE
S1132F309F4F0E9424266093260670932706809351
S1132F40280690932906C801845F9F4F0E94242677
S1132F5060935106709352068093530690935406DF
S1132F60C801805F9F4F0E94242660937C06709363
S1132F707D0680937E0690937F0685EE95E00E9401
S1132F805310109216051092AD05DF91CF911F9149
S1132F900F9108950E941716CFEAD5E00EEA15E0C6
S1132FA045EE55E064EB75E086E195E00E94620B26
S1132FB045EE55E066E175E083EB95E00E94961FCF
S1132FC0888190E00E942B17888190E00E946D1701
S1132FD0F80180810E94EE16E3CF85EE95E00E9411
S1132FE0480C84EB95E00E94EA1F83EB95E00E9475
S1132FF0FE1786E195E00E947B0408950895CF9220
S1133000DF92EF92FF920F931F93CF93DF936B01A5
S1133010EA0120E031E041E060E082E00E949615A0
S1133020C255DF4F088119812A813B816894EE24BF
S1133030E1F8F12C41E062E085E00E94DD152BE02F
S113304031E041E064E083E00E949615F601878157
S1133050813119F0823181F016C062E084E00E946F
S113306056148AE90E94711462E089E00E945614A1
S11330708BE90E94711407C064E081E00E94561439
S11330808BE90E947114DF91CF911F910F91FF90F2
S1133090EF90DF90CF900895CF92DF92EF92FF925E
S11330A00F931F93CF93DF936B01EA0121E131E08A
S11330B041E060E082E00E9496152DE131E041E0BC
S11330C062E082E00E949615FE01EE54FF4F0081FB
S11330D01181228133816894EE24E1F8F12C41E0DE
S11330E062E088E00E94DD1521E231E041E063E026
S11330F082E00E949615CA54DF4F088119812A8103
S11331003B8141E063E088E00E94DD15F6018781A0
S1133110843199F0853101F1833129F562E087E04A
S11331200E9456148AE90E94711462E08CE00E94A5
S1133130561482EA0E94711416C063E087E00E946C
S113314056148AE90E94711463E08CE00E945614BC
S113315082EA0E94711407C065E081E00E9456145F
S11331608BE90E9471142BE031E041E065E083E0DB
S11331700E949615DF91CF911F910F91FF90EF90D0
S1133180DF90CF900895CF92DF92EF92FF920F934A
S11331901F93CF93DF936B01EA0125E231E041E015
S11331A060E082E00E94961521E331E041E061E0B5
S11331B080E00E9496152EE331E041E062E080E079
S11331C00E949615FE01E654FF4F20E030E048ECE3
S11331D052E460817181828193810E9422248B0157
S11331E09C016894EE24E1F8F12C41E062E08AE06D
S11331F00E94FA1527E431E041E063E080E00E9498
S11332009615C254DF4F8881813041F020E531E0CA
S113321041E063E08AE00E94961507C024E531E0AE
S113322041E063E08AE00E949615F60187818731C8
S113323029F08831D1F08631F9F408C063E089E0DF
S11332400E94561482EA0E94711416C062E089E05A
S11332500E9456148AE90E94711462E08DE00E9473
S113326056148BE90E94711407C065E081E00E9446
S113327056148BE90E9471142BE031E041E065E0C3
S113328083E00E949615DF91CF911F910F91FF90DB
S1133290EF90DF90CF900895CF92DF92EF92FF925C
S11332A00F931F93CF93DF936B01EA0128E531E07D
S11332B041E060E084E00E9496152FE531E041E0B2
S11332C061E082E00E94961528E631E041E062E088
S11332D082E00E94961521E731E041E063E082E05C
S11332E00E9496152AE731E041E064E082E00E9402
S11332F0961523E831E041E065E082E00E949615EE
S11333002BE031E041E065E089E00E94961529E870
S113331031E041E061E08BE00E94961529E831E05C
S113332041E062E08BE00E94961529E831E041E03B
S113333063E08BE00E94961529E831E041E064E007
S11333408BE00E9496158E8D9F8D18161906C4F475
S11333502CE831E041E061E08BE00E9496156E8D2F
S11333607F8D072E000C880B990B0E94CC248B01B7
S11333709C01E12CF12C41E061E08CE00E94DD1520
S1133380FE01E75BFF4F8081918118161906DCF47A
S11333902CE831E041E062E08BE00E949615FE01EA
S11333A0E75BFF4F60817181072E000C880B990B3E
S11333B00E94CC248B019C01E12CF12C41E062E0C1
S11333C08CE00E94DD15FE01EC58FF4F8081918155
S11333D018161906DCF42CE831E041E063E08BE0D8
S11333E00E949615FE01EC58FF4F60817181072EF3
S11333F0000C880B990B0E94CC248B019C01E12CBE
S1133400F12C41E063E08CE00E94DD15FE01E15601
S1133410FF4F8081918118161906D4F42CE831E00D
S113342041E064E08BE00E949615C156DF4F68814D
S11334307981072E000C880B990B0E94CC248B01F8
S11334409C01E12CF12C41E064E08CE00E94DD154C
S1133450F60187818B31E1F028F4893149F08A3112
S113346079F035C08D3121F1D8F08E3149F12FC07A
S113347061E080E00E9456148BE90E94711427C019
S113348062E080E00E9456148BE90E9471141FC010
S113349063E080E00E9456148BE90E94711417C007
S11334A064E080E00E9456148BE90E9471140FC0FE
S11334B065E080E00E9456148BE90E94711407C0F5
S11334C065E087E00E9456148BE90E947114DF9135
S11334D0CF911F910F91FF90EF90DF90CF900895BF
S11334E0CF92DF92EF92FF920F931F93CF93DF93CC
S11334F0CDB7DEB7C9A4DAA4C114D10441F42EE8CF
S113350031E041E062E081E00E94961539C029E98A
S113351031E041E061E081E00E949615B6010D2C96
S1133520000C880B990B0E94CC248B019C01E12C8C
S1133530F12C41E061E089E00E94DD1582E0C816CB
S1133540D10479F083E0C816D10499F0CA94CD2847
S1133550B9F422EA31E041E062E080E00E9496158D
S11335600FC026ED31E041E062E080E00E94961554
S113357007C02FEF31E041E062E080E00E94961541
S1133580DF91CF911F910F91FF90EF90DF90CF903B
S113359008950F931F93CF93DF938C01EA01FB01EE
S11335A087818A3179F118F4893141F09BC08B31DC
S11335B009F44DC08C3109F470C094C02DE232E09E
S11335C041E060E083E00E9496158DB79EB78B972B
S11335D00FB6F8949EBF0FBE8DBFADB7BEB71196A0
S11335E08BE2FE0101900D928A95E1F7C8010E94D9
S11335F0701AEDB7FEB7BB960FB6F894FEBF0FBEB8
S1133600EDBF70C026E332E041E060E083E00E9459
S113361096158DB79EB78B970FB6F8949EBF0FBEC5
S11336208DBFADB7BEB711968BE2FE01BB9601907C
S11336300D928A95E1F7C8010E94701AEDB7FEB7A2
S1133640BB960FB6F894FEBF0FBEEDBF4BC02FE381
S113365032E041E060E083E00E949615FE01EA5A00
S1133660FF4F8DB79EB78B970FB6F8949EBF0FBED2
S11336708DBFADB7BEB711968BE201900D928A95BE
S1133680E1F7C8010E94701AEDB7FEB7BB960FB6FA
S1133690F894FEBF0FBEEDBF25C028E432E041E040
S11336A060E083E00E949615FE01EF57FF4F8DB74F
S11336B09EB78B970FB6F8949EBF0FBE8DBFADB764
S11336C0BEB711968BE201900D928A95E1F7C8017D
S11336D00E94701AEDB7FEB7BB960FB6F894FEBF02
S11336E00FBEEDBFDF91CF911F910F910895FB01A4
S11336F08781843020F521E532E041E060E085E017
S11337000E94961526E532E041E061E082E00E94E5
S1133710961521E632E041E062E082E00E949615CF
S11337202BE632E041E063E082E00E9496152BE054
S113373031E041E064E082E00E949615089588300B
S113374020F521E632E041E060E083E00E94961536
S113375025E732E041E061E082E00E9496152EE721
S113376032E041E062E082E00E9496152AE832E00D
S113377041E063E082E00E9496152BE031E041E0F5
S113378064E082E00E94961508958C3020F526E5C9
S113379032E041E060E083E00E94961525E732E0E4
S11337A041E061E082E00E94961527E932E041E0C1
S11337B062E082E00E9496152AE832E041E063E08C
S11337C082E00E9496152BE031E041E064E082E063
S11337D00E94961508952BE632E041E060E083E014
S11337E00E94961520E031E041E061E082E00E9411
S11337F0961521E131E041E062E082E00E949615F5
S113380025E231E041E063E082E00E94961528E57C
S113381031E041E064E082E00E9496152BE031E063
S113382041E065E082E00E949615089560E086E03C
S11338300E9456148EE90E94711460E087E00E9491
S113384056148FE90E9471140895FB01808182301F
S113385051F065E086E00E94561483EA0E947114D8
S113386084EA0E9471140895AF92BF92CF92DF92BE
S1133870EF92FF920F931F93CF93DF93CDB7DEB7F1
S11338802C970FB6F894DEBF0FBECDBF898D9A8DED
S11338908230910599F01CF4019739F031C08330DE
S11338A09105C1F0049719F12BC0CC24C394A12C29
S11338B000E00F2EF3E0DF2EF02D22C0CC24C394C1
S11338C00F2EFBE0AF2EF02D00E00F2EF9E0DF2EDF
S11338D0F02D16C06894CC24C2F80F2EFBE0AF2E56
S11338E0F02D03E00F2EF9E0DF2EF02D09C06894CF
S11338F0CC24C2F8A12C03E00F2EF3E0DF2EF02D30
S11339008CA98823A9F18BA98823C9F087EA90E0C0
S11339109A83898388EA90E09C838B8389EA90E088
S11339209E838D838AEA90E098878F838BEA90E068
S11339309A8789878CEA90E09C878B877CC08CE887
S113394090E09A8389838DE890E09C838B838EE852
S113395090E09E838D838FE890E098878F8380E941
S113396090E09A87898781E990E09C878B8763C080
S11339708BA98823C9F080E890E09A83898381E841
S113398090E09C838B8382E890E09E838D8383E820
S113399090E098878F8384E890E09A87898785E808
S11339A090E09C878B8747C086E890E09A83898360
S11339B087E890E09C838B8388E890E09E838D83E6
S11339C089E890E098878F838AE890E09A878987CE
S11339D08BE890E09C878B872EC0612F8D2D0E94F1
S11339E05614F70180810E947114612F8B2D0E945F
S11339F05614F70182810E9471141F5FF4E0EF0EE8
S1133A00F11C1013EACFCE0149960E94E6218B01E6
S1133A109C016894EE24E1F8F12C41E06C2D8A2D90
S1133A200E94FA1561E06C0D8A2D0E94561480EAFA
S1133A300E94711409C0102FCE0101967C010D5F04
S1133A40BB24B394BD0CC9CF2C960FB6F894DEBF3B
S1133A500FBECDBFDF91CF911F910F91FF90EF90DB
S1133A60DF90CF90BF90AF9008950F931F93CF93A3
S1133A70DF938C01EB018DB79EB78B970FB6F8944B
S1133A809EBF0FBE8DBFADB7BEB711968BE2FB01D3
S1133A9001900D928A95E1F7C8010E94341C8DB7FC
S1133AA09EB78B960FB6F8949EBF0FBE8DBF8B97B3
S1133AB00FB6F8949EBF0FBE8DBFADB7BEB71196BB
S1133AC08BE2FE01BB9601900D928A95E1F7C80145
S1133AD00E94341C8DB79EB78B960FB6F8949EBF88
S1133AE00FBE8DBFFE01EA5AFF4F8B970FB6F894B5
S1133AF09EBF0FBE8DBFADB7BEB711968BE20190CE
S1133B000D928A95E1F7C8010E94341C8DB79EB7C7
S1133B108B960FB6F8949EBF0FBE8DBFFE01EF5774
S1133B20FF4F8B970FB6F8949EBF0FBE8DBFADB7F6
S1133B30BEB711968BE201900D928A95E1F7C80108
S1133B400E94341C8DB79EB78B960FB6F8949EBF17
S1133B500FBE8DBFDF91CF911F910F910895FB018F
S1133B6080818230E9F462E086E00E94561486E99E
S1133B700E94711462E087E00E94561487E90E9453
S1133B80711463E086E00E94561488E90E9471145F
S1133B9063E087E00E94561489E90E947114089535
S1133BA062E086E00E94561482E90E94711462E089
S1133BB087E00E94561483E90E94711463E086E052
S1133BC00E94561484E90E94711463E087E00E9405
S1133BD0561485E90E9471140895DB011796EC913F
S1133BE08E2F90E08131910508F08CC0FC01E85BD8
S1133BF0FF4F0C94022661E080E00E9456148BE98A
S1133C000E947114089562E080E00E9456148BE9CA
S1133C100E947114089563E080E00E9456148BE9B9
S1133C200E947114089564E080E00E9456148BE9A8
S1133C300E947114089561E080E00E9456148BE99B
S1133C400E947114089562E080E00E9456148BE98A
S1133C500E947114089564E080E00E9456148BE978
S1133C600E947114089563E080E00E9456148BE969
S1133C700E947114089561E080E00E9456148BE95B
S1133C800E947114089562E080E00E9456148BE94A
S1133C900E947114089563E080E00E9456148BE939
S1133CA00E947114089564E080E00E9456148BE928
S1133CB00E947114089561E080E00E9456148BE91B
S1133CC00E947114089562E080E00E9456148BE90A
S1133CD00E947114089563E080E00E9456148BE9F9
S1133CE00E947114089564E080E00E9456148BE9E8
S1133CF00E947114089565E080E00E9456148BE9D7
S1133D000E94711408950F931F93CF93DF93EC01D6
S1133D108B010E94771BB801CE010E94ED1DDF913B
S1133D20CF911F910F910895EF92FF920F931F93DC
S1133D30CF93DF93FB018081823011F080E016C0C5
S1133D40EB01CB010E9497098B019C016894EE243E
S1133D50E1F8F12C41E061E085E00E94DD1564E0CA
S1133D6085E00E94561489810E949014DF91CF91BE
S1133D701F910F91FF90EF90089561E085E00E94FC
S1133D8056148AE90E94711464E085E00E94561476
S1133D908AE90E94711461E088E00E9456148BE95C
S1133DA00E94711464E088E00E9456148BE90E941A
S1133DB0711408959C01DB019C91923011F480E010
S1133DC00895DB011796EC914E2F50E048305105D1
S1133DD008F049C0C901FA01E75AFF4F0C940226C2
S1133DE061E086E00E9456148CE90E9471148DE90A
S1133DF00E94711438C061E086E00E94561485EA7E
S1133E000E94711486EA0E9471142DC064E086E059
S1133E100E94561485EA0E94711486EA0E94711465
S1133E2022C061E085E00E9456148AE90E94711460
S1133E301AC064E085E00E9456148AE90E94711455
S1133E4012C061E088E00E9456148BE90E9471144C
S1133E500AC064E088E00E9456148BE90E94711441
S1133E6002C00E94BD1E0895EF92FF920F931F930C
S1133E70CF93DF93EC018B017A010E94161CB801E9
S1133E80CE010E94251CB701CE010E94351DB80148
S1133E90CE010E94AF1DB801CE010E94DA1EB80106
S1133EA0CE010E94941EDF91CF911F910F91FF903C
S1133EB0EF90089523EA32E041E062E082E00E945C
S1133EC09615089520EB32E041E060E083E00E9423
S1133ED0961529EB32E041E061E081E00E949615FD
S1133EE02EEE32E041E065E081E00E9496150895EF
S1133EF029EF32E041E061E081E00E9496150895E7
S1133F00FB01E656FF4F208131812130310541F01C
S1133F102230310541F0232B41F40E945A1F0895A9
S1133F200E94621F08950E94781F0895EF92FF92E5
S1133F300F931F93CF93DF938C01EB017A010E94BF
S1133F40DB13E8818E2F90E089309105D0F5FC01D8
S1133F50EF59FF4F0C940226A701BE01C8010E942D
S1133F60341F2FC0A701BE01C8010E94341F29C0FD
S1133F70A701BE01C8010E94831E23C0A701BE0180
S1133F80C8010E94FF171DC0A701BE01C8010E94FD
S1133F904C1817C0A701BE01C8010E94C31811C064
S1133FA0A701BE01C8010E944C190BC0A701BE01A4
S1133FB0C8010E94C91A05C0A701BE01C8010E9418
S1133FC0801F0E94F013DF91CF911F910F91FF90FA
S1133FD0EF900895CF93DF93EC010E948D0BCE01F7
S1133FE007960E948D0BCE010E960E948D0BCE017A
S1133FF045960E948D0BCE014C960E948D0BCE01EE
S113400083960E948D0BCE018A960E948D0BDF91C0
S1134010CF910895CF93DF93EC0140E050E064E446
S11340200E948E0B41E050E064E4CE0107960E94AA
S11340308E0B42E050E064E4CE010E960E948E0B9B
S113404043E050E064E4CE0145960E948E0B44E0C8
S113405050E064E4CE014C960E948E0B45E050E0A3
S113406064E4CE0183960E948E0B46E050E064E443
S1134070CE018A960E948E0BDF91CF9108950F9303
S11340801F93CF93DF93EC018B010E960E94CC0B10
S113409081112CC0B801CE0145960E94CC0B811130
S11340A028C0B801CE014C960E94CC0B811124C0CB
S11340B0B801CE018A960E94CC0B811120C0B801B0
S11340C0CE0183960E94CC0B81111CC0B801CE0195
S11340D00E94CC0B811119C0B801CE0107960E9431
S11340E0CC0B811115C08FEF9FEF14C080E090E0DE
S11340F011C081E090E00EC082E090E00BC084E04B
S113410090E008C083E090E005C085E090E002C044
S113411086E090E0DF91CF911F910F91089508956B
S1134120ECE7F0E0808181648083EAE7F0E080815D
S11341308F6880830895FC01ACE7B0E08C918E7F9A
S11341408C938C918D7F8C938C918B7F8C938C91A1
S1134150877F8C936330710551F06430710569F089
S11341606230710579F48C9181608C930BC0ACE75B
S1134170B0E08C9182608C9305C0ACE7B0E08C9188
S113418083608C93AAE7B0E08C9180648C93108256
S113419081E040E09C91282F392F307194FF242F27
S11341A020833323B9F3609178007091790080E023
S11341B090E00E94CA242BE43CE340EA5BE30E94C3
S11341C0812508958093BB0084E88093BC00ECEBC8
S11341D0F0E080818823ECF79091B900987F9831C2
S11341E029F081E0983219F480E0089580E0089580
S11341F0CF9394EA9093BC00ECEBF0E09081992388
S1134200ECF79091B900987F983011F0903161F4F7
S1134210C62F0E94E220813039F08C2F0E94E220C8
S113422094E99093BC0004C084E98093BC0081E0CD
S1134230CF910895089560E08EE40E94F8200895D7
S1134240EF92FF920F931F93CF93DF93F90116160A
S113425017060CF04FC031E04130510509F030E051
S11342604230510509F43260E130F10511F4346053
S113427003C0329709F438600130110511F430613C
S113428004C00230110509F430628B01EC0181E0B5
S1134290E816F10419F4632F606406C092E0E9168D
S11342A0F10409F5632F60688EE40E94F8201982F6
S11342B0188289EF90E00197F1F700C0000028818F
S11342C039812F5F3F4F39832883201731078CF3BF
S11342D060E08EE40E94F82083ED90E30197F1F70B
S11342E000C0000007C0632F8EE40E94F8201982EA
S11342F01882DFCFDF91CF911F910F91FF90EF9044
S11343000895EF92FF920F931F93CF93DF93F901D8
S1134310161617060CF04FC031E04130510509F074
S113432030E04230510509F43260E130F10511F416
S1134330346003C0329709F438600130110511F478
S1134340306104C00230110509F430628B01EC01C4
S113435081E0E816F10419F4632F606406C092E06A
S1134360E916F10409F5632F60688EE40E94F820D1
S11343701982188289EF90E00197F1F700C00000DC
S1134380288139812F5F3F4F3983288320173107D4
S11343908CF360E08EE40E94F82089EF90E00197AE
S11343A0F1F700C0000007C0632F8EE40E94F820DC
S11343B019821882DFCFDF91CF911F910F91FF9067
S11343C0EF90089584960E948F200895CF93DF93F1
S11343D0EC016881798184960E949B206A837B83A7
S11343E08C839D83DF91CF9108950F931F93CF9377
S11343F0DF93EC018B0184960E949020198308833B
S113440080E090E0A0EAB0E48E839F83A887B98718
S11344108AE097EDA3E2BCE38A879B87AC87BD87DC
S1134420CE010E94E6216E877F87888B998B19A223
S113443018A21F8E1E8EDF91CF911F910F910895A8
S1134440CF93DF93EC010E94E6218A819B81AC81AA
S1134450BD818E8B9F8BA88FB98FDF91CF910895EB
S11344608F929F92AF92BF92CF92DF92EF92FF9280
S1134470CF93DF93FC01228D222309F458C0238DAE
S1134480211158C0EC010E94E6216B017C016A8372
S11344907B838C839D8320E030E0A9016E897F8932
S11344A0888D998D0E941D24811108C08AE097EDA2
S11344B0A3E2BCE38E8B9F8BA88FB98F20E030E002
S11344C046E953E46E897F89888D998D0E94812500
S11344D04B015C0120E030E046E953E4C701B6013A
S11344E00E9481259B01AC01C501B4010E94B02347
S11344F06DA37EA38FA398A70E9494247BA36AA391
S11345007AA769A71C8E772344F471956195710984
S11345107BA36AA382E090E012C0161617066CF023
S11345201BA21AA281E08C8F80E090E008C080E09A
S113453090E005C080E090E002C081E090E0DF916F
S1134540CF91FF90EF90DF90CF90BF90AF909F906E
S11345508F900895CF93DF93EC018A819B81AC8186
S1134560BD818A8B9B8BAC8BBD8BCE010E94E621D7
S11345706A837B838C839D832A893B894C895D89EB
S11345800E941D24811108C081E08B8F81E090E09E
S11345909F8F8E8F80E002C01B8E81E0DF91CF91D0
S11345A00895FC01858D81110FC080A191A1019610
S11345B091A380A3681779074CF481E0838F83E08B
S11345C090E0978F868F089511A210A20895CF923C
S11345D0DF92EF92FF92CF93DF93EC01CE80DF80E6
S11345E0E884F984A70196016E897F89888D998D65
S11345F00E947C25882324F0CE8ADF8AE88EF98EF7
S1134600CA84DB84EC84FD84A70196016E897F89CA
S1134610888D998D0E941D24181624F0CE8ADF8A75
S1134620E88EF98EDF91CF91FF90EF90DF90CF90DD
S11346300895CF92DF92EF92FF92CF93DF93EC0134
S1134640CE84DF84E888F9880E94E6219B01AC01CE
S1134650C701B6010E941D24882359F08A819B81D9
S1134660AC81BD818E879F87A88BB98B81E08D8FAC
S113467002C01D8E80E0DF91CF91FF90EF90DF901C
S1134680CF900895FC01828D91E09827928F089530
S1134690CF92DF92EF92FF921F93CF93DF93EC01BF
S11346A01A8D1123D1F0CB01BA012E893F89488D8F
S11346B0598D0E94B1236E8B7F8B888F998FCE800A
S11346C0DF80E884F984A70196010E947C251816EE
S11346D024F4CE8ADF8AE88EF98E812FDF91CF9180
S11346E01F91FF90EF90DF90CF900895CF92DF92CB
S11346F0EF92FF921F93CF93DF93FC01128D11234E
S1134700D9F09A01AB01EC0166897789808D918D8E
S11347100E94B0236E8B7F8B888F998FCA84DB8431
S1134720EC84FD84A70196010E941D24882324F4AF
S1134730CE8ADF8AE88EF98E812FDF91CF911F9187
S1134740FF90EF90DF90CF900895FC01828D81114E
S1134750838D0895FC01838D811101C0828D08959C
S11347605058BB27AA270E94C8230C9442250E94B4
S1134770342538F00E943B2520F039F49F3F19F48A
S113478026F40C9431250EF4E095E7FB0C942B25CC
S1134790E92F0E94532558F3BA1762077307840759
S11347A0950720F079F4A6F50C9475250EF4E095A0
S11347B00B2EBA2FA02D0B01B90190010C01CA01D7
S11347C0A0011124FF27591B99F0593F50F4503E82
S11347D068F11A16F040A22F232F342F4427585F74
S11347E0F3CF469537952795A795F0405395C9F78C
S11347F07EF41F16BA0B620B730B840BBAF0915044
S1134800A1F0FF0FBB1F661F771F881FC2F70EC0E2
S1134810BA0F621F731F841F48F4879577956795B5
S1134820B795F7959E3F08F0B0CF9395880F08F0A1
S11348309927EE0F9795879508950E94072508F408
S113484081E008950E9436240C9442250E943B2561
S113485058F00E94342540F029F45F3F29F00C946D
S11348602B2551110C9476250C9431250E94532547
S113487068F39923B1F3552391F3951B550BBB278B
S1134880AA2762177307840738F09F5F5F4F220FD0
S1134890331F441FAA1FA9F335D00E2E3AF0E0E8C7
S11348A032D091505040E695001CCAF72BD0FE2F11
S11348B029D0660F771F881FBB1F261737074807A5
S11348C0AB07B0E809F0BB0B802DBF01FF2793585D
S11348D05F4F3AF09E3F510578F00C942B250C94D1
S11348E076255F3FE4F3983ED4F3869577956795F4
S11348F0B795F7959F5FC9F7880F911D9695879592
S113490097F90895E1E0660F771F881FBB1F6217B0
S113491073078407BA0720F0621B730B840BBA0B6E
S1134920EE1F88F7E09508950E949B246894B111C6
S11349300C94762508950E945B2588F09F5798F083
S1134940B92F9927B751B0F0E1F0660F771F881F90
S1134950991F1AF0BA95C9F714C0B13091F00E94AA
S11349607525B1E008950C947525672F782F882755
S1134970B85F39F0B93FCCF3869577956795B395D1
S1134980D9F73EF490958095709561957F4F8F4F40
S11349909F4F0895E89409C097FB3EF49095809545
S11349A0709561957F4F8F4F9F4F9923A9F0F92FF1
S11349B096E9BB279395F695879577956795B7956F
S11349C0F111F8CFFAF4BB0F11F460FF1BC06F5F55
S11349D07F4F8F4F9F4F16C0882311F096E911C067
S11349E0772321F09EE8872F762F05C0662371F088
S11349F096E8862F70E060E02AF09A95660F771F9C
S1134A00881FDAF7880F9695879597F90895990F77
S1134A100008550FAA0BE0E8FEEF16161706E80784
S1134A20F907C0F012161306E407F50798F0621BA5
S1134A30730B840B950B39F40A2661F0232B242B7A
S1134A40252B21F408950A2609F4A140A6958FEF99
S1134A50811D811D089597F99F6780E870E060E0EB
S1134A6008959FEF80EC089500240A941616170603
S1134A7018060906089500240A941216130614064B
S1134A8005060895092E0394000C11F4882352F0AE
S1134A90BB0F40F4BF2B11F460FF04C06F5F7F4F66
S1134AA08F4F9F4F089557FD9058440F551F59F04D
S1134AB05F3F71F04795880F97FB991F61F09F3F07
S1134AC079F087950895121613061406551FF2CF30
S1134AD04695F1DF08C0161617061806991FF1CF80
S1134AE086957105610508940895E894BB276627A7
S1134AF07727CB0197F908950E94072508F48FEFD3
S1134B0008950E9494250C9442250E94342538F07F
S1134B100E943B2520F0952311F00C942B250C9436
S1134B20312511240C9476250E94532570F3959F0A
S1134B30C1F3950F50E0551F629FF001729FBB2790
S1134B40F00DB11D639FAA27F00DB11DAA1F649F2C
S1134B506627B00DA11D661F829F2227B00DA11DDF
S1134B60621F739FB00DA11D621F839FA00D611D65
S1134B70221F749F3327A00D611D231F849F600D86
S1134B80211D822F762F6A2F11249F5750409AF0AF
S1134B90F1F088234AF0EE0FFF1FBB1F661F771F3B
S1134BA0881F91505040A9F79E3F510580F00C9406
S1134BB02B250C9476255F3FE4F3983ED4F3869539
S1134BC077956795B795F795E7959F5FC1F7FE2BA6
S1134BD0880F911D9695879597F9089597FB072E51
S1134BE016F4009407D077FD09D00E94082607FC2C
S1134BF005D03EF4909581959F4F089570956195E9
S1134C007F4F0895EE0FFF1F0590F491E02D099456
S1134C10AA1BBB1B51E107C0AA1FBB1FA617B707DE
S1134C2010F0A61BB70B881F991F5A95A9F78095FA
S1134C309095BC01CD010895F999FECF92BD81BD37
S1134C40F89A992780B50895A6E1B0E044E050E0D1
S1134C500C944726262FF999FECF1FBA92BD81BD29
S1134C6020BD0FB6F894FA9AF99A0FBE01960895EA
S1134C70242F0E942B26252F0E942B260C9440269D
S1134C800E942A26272F0C942B26DC01CB01FC0141
S1134C90F999FECF06C0F2BDE1BDF89A319600B491
S1114CA00D9241505040B8F70895F894FFCF9C
S1134CAECAE0EBE8E1F0EEE2EAE000C2FBF5EEE486
S1134CBE00CEE3F0E0EDE8F7E5EDE8FF006D696E98
S1134CCE006D617800C4E8E0E3EDEEF1F2E8EAE0AD
S1134CDE00C4EBE8F2E5EBFCEDEEF1F2FC00EFF0D4
S1134CEEEEF6E5F1F1E000C2EAEBFEF7E8F2FC00C5
S1134CFEEEF2EA00E2EAEB00CEF8E8E1EAE800318F
S1134D0E2ED1F2EEE9EAE000322ED1F2EEE9EAE03B
S1134D1E00332ED1F2EEE9EAE000342ED1F2EEE9C0
S1134D2EEAE000D1E1F0EEF1002D2D004500CEF8C1
S1134D3EE8E1EEEA20EDE5F200CEF8E8E1EAE02063
S1134D4EC500EDE5F220EEF2E2E5F2E020F1F2EE3E
S1134D5EE9EAE820EFF0E820EFEEEFFBF2EAE520D7
S1134D6EE8E7ECE5EDE8F2FC20E5E520EFEEEBEE0E
S1134D7EE6E5EDE8E500EDE5E2EEE7E6ECEEE6ED80
S1134D8EEE20E2FBF1F2E0E2E8F2FC20E7E0E4E000
S1134D9EEDEDEEE520EFEEEBEEE6E5EDE8E500E712
S1134DAEE0E2E8F1E0EDE8E520E4E0F2F7E8EAE03D
S1134DBE20EFEEEBEEE6E5EDE8FF20E2EE20E2F08A
S1134DCEE5ECFF20E4E2E8E6E5EDE8FF003120D172
S1134DDEF2EEE9EAE0003220D1F2EEE9EAE0003345
S1134DEE20D1F2EEE9EAE0003420D1F2EEE9EAE075
S1134DFE00CCC5CDDE00D3F1F2E0EDEEE2E8F2FC3C
S1134E0E00D1EEF5F0E0EDE8F2FC00CDE0F1F2F0C9
S1134E1EEEE9EAE800CFE0F0EAEEE2EAE000CDE8FF
S1134E2EE6EDFFFF20EFEEE72E00C2E5F0F5EDFF15
S1134E3EFF20EFEEE72E00CDE8E6EDE5E520EFEE00
S1134E4EE72E00D1EEF5F0E0EDE5EDEE2E2E2E0080
S1134E5EC2EDE8ECE0EDE8E500D1F2EEE9EAE02897
S1134E6EE82920EDE5F1EFF0E0E2EDFB2E20C2EEB5
S1134E7EE7ECEEE6EDE020EDE520E0E4E5EAE2E045
S1134E8EF2EDE0FF20F0E5E0EAF6E8FF2E00CDE0DB
S1134E9EE6ECE8F2E520CEEA00CDE5E8F1EFF0E04D
S10B4EAEE2EDEEF1F2FC00005C
S9030000FC
