:100000000C945F040C9487040C9487040C9487046C
:100010000C9487040C9487040C9487040C94870434
:100020000C9487040C9487040C9487040C94870424
:100030000C9487040C9487040C9487040C94870414
:100040000C9487040C9487040C9487040C94870404
:100050000C9487040C9487040C9487040C948704F4
:100060000C9487040C9487043C0C400C450C4A0CFF
:100070004F0C540C590C5E0C640C6A0C700C170E6F
:100080001A0E1D0E200E230E260E290E2C0E2F0EDC
:100090009C20A420AC20B420BC20C420CC20C823A9
:1000A000D023D823E023E823F0230024F8230824D6
:1000B00010241824202428243024382440244824C0
:1000C000BD24DE24EE24F624E624C824D324FE2412
:1000D000E325EF25E925F525FB25012607260D2635
:1000E00013260AD7233C0AD7A33C8FC2F53C0AD774
:1000F000233DCDCC4C3D8FC2753D295C8F3D0AD749
:10010000A33DEC51B83DCDCCCC3D8FC2F53D9A9985
:10011000193ECDCC4C3E9A99993E0000003F00001C
:10012000403F0000803F0000C03F00000040000052
:100130004040C0C0E0A0A0A09090909088888884A3
:10014000848484828282828181FFC0C0E0E0A0A09A
:10015000909090908888888484848482828282812E
:1001600081FFC0C0E0E0E0A09090909088888884F3
:10017000848484828282828181FFC0C0E0E0E0E0EA
:10018000F09090908888888484848482828282819E
:1001900081FFC0C0E0E0E0E0F0F0909088888884C3
:1001A000848484828282828181FFC0C0E0E0E0E0BA
:1001B000F0F0F090888888848484848282828281AE
:1001C00081FFC0C0E0E0E0E0F0F0F0F088888884D3
:1001D000848484828282828181FFC0C0E0E0E0E08A
:1001E000F0F0F0F0F88888848484848282828281AE
:1001F00081FFC0C0E0E0E0E0F0F0F0F0F8F88884C3
:10020000848484828282828181FFC0C0E0E0E0E059
:10021000F0F0F0F0F8F8F88484848482828282819D
:1002200081FFC0C0E0E0E0E0F0F0F0F0F8F8F8FCAA
:10023000848484828282828181FFC0C0E0E0E0E029
:10024000F0F0F0F0F8F8F8FCFC848482828282817D
:1002500081FFC0C0E0E0E0E0F0F0F0F0F8F8F8FC7A
:10026000FCFC84828282828181FFC0C0E0E0E0E009
:10027000F0F0F0F0F8F8F8FCFCFCFC82828282815D
:1002800081FFC0C0E0E0E0E0F0F0F0F0F8F8F8FC4A
:10029000FCFCFCFE8282828181FFC0C0E0E0E0E0E5
:1002A000F0F0F0F0F8F8F8FCFCFCFCFEFE82828135
:1002B00081FFC0C0E0E0E0E0F0F0F0F0F8F8F8FC1A
:1002C000FCFCFCFEFEFE828181FFC0C0E0E0E0E0BD
:1002D000F0F0F0F0F8F8F8FCFCFCFCFEFEFEFE810D
:1002E00081FFC0C0E0E0E0E0F0F0F0F0F8F8F8FCEA
:1002F000FCFCFCFEFEFEFEFF81FFC0C0E0E0E0E093
:10030000F0F0F0F0F8F8F8FCFCFCFCFEFEFEFEFF5E
:10031000FFFF0000000000000000005F0000000080
:1003200000070007000000147F147F140000242A37
:100330007F2A1200004C2C106864000036495522B8
:1003400050000000050300000000001C22410000D6
:10035000000041221C00000014083E0814000008A0
:10036000083E080800000000503000000010101087
:10037000101000000060600000000020100804025F
:1003800000003E5149453E000000427F4000000011
:10039000426151494600002141454B31000018148B
:1003A000127F100000274545453900003C4A494965
:1003B0003000000171090503000036494949360043
:1003C00000064949291E00000036360000000000E2
:1003D00056360000000008142241000000141414D6
:1003E0001414000000412214080000020151090603
:1003F0000000324979413E00007E1111117E00005B
:100400007F4949493600003E4141412200007F4179
:1004100041221C00007F4949494100007F09090928
:100420000100003E4149497A00007F0808087F002A
:100430000000417F410000002040413F0100007F5B
:100440000814224100007F4040404000007F020C21
:10045000027F00007F0408107F00003E4141413EC2
:1004600000007F0909090600003E4151215E00009D
:100470007F09192946000046494949310000010118
:100480007F010100003F4040403F00001F2040200E
:100490001F00003F4038403F000063140814630011
:1004A000000708700807000061514945430000003B
:1004B0007F4141000000020408102000000041417B
:1004C0007F00000004020102040000404040404060
:1004D0000000000102040000002054545478000081
:1004E0007F484444380000384444442000003844E5
:1004F00044487F000038545454180000087E090115
:100500000200000C5252523E00007F0804047800A2
:100510000000447D400000002040443D0000007F7A
:1005200010284400000000417F400000007C0418B7
:10053000047800007C0804047800003844444438FF
:1005400000007C141414080000081414187C000027
:100550007C08040408000048545454200000043F60
:1005600044402000003C4040207C00001C204020F3
:100570001C00003C4030403C00004428102844004F
:10058000000C5050503C00004464544C44000000A7
:1005900008364100000000007F00000000004136E6
:1005A0000800000008040810080000FFFFFFFFFF1C
:1005B00000000000E0F0F8F800F8F8F0E0000000BB
:1005C0000000FFFFFFFF00FFFFFFFF000000000033
:1005D000070F1F1F001F1F0F070000000000E01083
:1005E000080800080810E00000000000FF000000FC
:1005F00000000000FF0000000000070810100010BD
:100600001008070000004080E010080800080810EB
:10061000E08040000000FF42241800182442FF0040
:100620000000020107081010001010080701020066
:100630000000605048440044485060000000000042
:10064000060A12220022120A060000000000607052
:10065000787C007C7870600000000000060E1E3E72
:10066000003E1E0E06000000183C7EE70000000061
:1006700000E77E3C180000002030381C001C383099
:10068000200000000000AAAAAAAA00AAAAAAAAAA50
:1006900000000000000000030000183C7EE700009E
:1006A00000E77E3C180000000000E7E7420042E758
:1006B000E7000000000000081838700070381808C3
:1006C0000000004080E0F0F8F800F8F8F0E080402A
:1006D0000000007EBDDBE700E7DBBD7E000000021E
:1006E00001070F1F1F001F1F0F0701020000EEEE82
:1006F00000005A005A0000EEEE00007C1211127C3D
:1007000000007F4949493100007F494949360000CE
:100710007F010101010000603F213F6000007F492F
:10072000494941000077087F087700002241494984
:100730003600007F1008047F00007E1009047E0050
:10074000007F081422410000403E01017F00007F2D
:10075000020C027F00007F0808087F00003E414134
:10076000413E00007F0101017F00007F0909090669
:1007700000003E41414122000001017F01010000D3
:10078000074848483F00000E117F110E0000631417
:1007900008146300003F20203F600000070808089D
:1007A0007F00007F407E407F00003F203F207F0091
:1007B00000017F48483000007F4830007F00000083
:1007C0007F4848300000224149493E00007F083EF2
:1007D000413E0000462919097F00002054545478F6
:1007E00000003C4A4A4A3100007C54542800000072
:1007F0007C04040C000000603C243C600000385481
:1008000054541800006C107C106C000000445454C8
:100810002800007C2010087C00007C2112097C004C
:10082000007C102844000000403804047C00007C58
:100830000810087C00007C1010107C000038444434
:10084000443800007C0404047C00007C1414140868
:1008500000003844444400000004047C0404000008
:100860000C5050503C000008147C14080000442830
:1008700010284400003C20203C6000000C101010A8
:100880007C00007C407C407C00003C203C207C00C4
:1008900000047C50502000007C5020007C000000B0
:1008A0007C5050200000284454543800007C1038FC
:1008B00044380000485434147C000000DD1C11242E
:1008C0001FBECFEFD8E0DEBFCDBF13E0A0E0B1E0A8
:1008D000E2E9FBE502C005900D92AA38B107D9F70D
:1008E00027E0AAE8B3E001C01D92AB36B207E1F7FA
:1008F00014E0CFE5D4E004C02197FE010E94742DDE
:10090000CE35D107C9F70E94BA1C0C94C72D0C94A0
:10091000000084569F4FFC01108208950F931F938F
:10092000CF93DF93EC01CB01FE01EA56FF4F10821B
:100930003196108220E130E03A83298308E00F836A
:1009400011E018830E9493131B8792E09C8786E630
:10095000898765E06A878887198B1A8A1F8724E050
:10096000288B84E68E872BA346E04CA319A32AA3E9
:1009700088A319A79AA71FA248A735E63EA34D8FC3
:1009800033E03E8F9B8F3C8F8A8F1F8A988F9D8B81
:100990003E8B8C8B2FA738AB6DA782E78EA78CA7D9
:1009A00087E68DAB0EAB1BAA1CAB0AAB8AAF2BAF95
:1009B00018AE99AF2FAB8FAFFE01E05CFF4F5CE04C
:1009C00050831DAF3EAF5CAF3496808331968083F9
:1009D0003397908331963083329780833896108393
:1009E000319638E63083339720833196608332978F
:1009F000308338961083319639E6308333972083DD
:100A000031964083329730833896108331963AE698
:100A1000308333976083319627E020833297308389
:100A200038961083319680833397408331962083A4
:100A3000329780833896108231963BE63083339725
:100A40000083319629E020833297308338961082D4
:100A500031964CE640833397008331963AE03083F9
:100A6000329740833896108231964DE64083339713
:100A7000208331962BE02083329740833896108272
:100A800031968083339730833196208332978083E9
:100A90003896908331962EE6208333975083319693
:100AA0003DE03083329720833896908331964FE62D
:100AB00040833397508331962EE0208332974083D2
:100AC00038969083319640E7408333973083319650
:100AD0003FE030833297408338969083319641E7E8
:100AE000408333972083319620E1208332974083DF
:100AF0003896908331968083339730833196208364
:100B0000CE57DF4F8883DF91CF911F910F910895CA
:100B10008F929F92AF92BF92EF92FF920F931F938B
:100B2000CF93DF93EC01CB017A0164E670E00E9481
:100B300076268C018530910519F418821F8272C2C5
:100B4000069719F418821F826DC20F3F8FEF1807A6
:100B500029F41B821C821D821E8264C28F818C3C00
:100B600061F40115110509F068C281E088839CE0F9
:100B70009F83C856DF4F888355C28D3C59F40115B9
:100B8000110509F051C218821F82C856DF4F81E05B
:100B9000888348C20130110531F00230110531F46B
:100BA0008F5F8F835DC081508F835AC0883C09F06E
:100BB00057C00330110521F00430110551F150C028
:100BC0005701EAECAE0EB11C2AE037ED43E25CE3DC
:100BD0006B817C818D819E810E94232B9B01AC01C6
:100BE000F50160817181828193810E94222BF50140
:100BF00060837183828393838CEE91E5A8EBBDE3E0
:100C00008B839C83AD83BE838F81893C09F023C293
:100C100033C05701FAECAF0EB11C2AE037ED43E2C6
:100C20005CE36B817C818D819E810E94232BF50189
:100C300020813181428153810E94232BF501608301
:100C40007183828393838CEE91E5A8EBBDE38B8364
:100C50009C83AD83BE838F81893C09F0F7C135C089
:100C60008F81893C09F058C00330110529F0043008
:100C7000110509F051C029C05701FEECAF0EB11C9F
:100C800020E030E040E85FE36B817C818D819E81D4
:100C90000E94232B9B01AC01F5016081718182814F
:100CA00093810E94222BF501608371838283938359
:100CB00080E090E0A0E1B1E48B839C83AD83BE83B0
:100CC0008F818A3C09F084C033C05701FEECAF0E1F
:100CD000B11C20E030E040E85FE36B817C818D81D6
:100CE0009E810E94232BF501208131814281538115
:100CF0000E94232BF501608371838283938380E0BC
:100D000090E0A0E1B1E48B839C83AD83BE838F81AF
:100D10008A3C09F05DC035C08F818A3C09F058C01B
:100D20000330110529F00430110509F051C029C024
:100D30005701F2EDAF0EB11C20E030E040E85FE378
:100D40006B817C818D819E810E94232B9B01AC0154
:100D5000F50160817181828193810E94222BF501CE
:100D6000608371838283938380E090E0A0E1B1E4AB
:100D70008B839C83AD83BE838F818B3C09F080C0C5
:100D800033C05701F2EDAF0EB11C20E030E040E877
:100D90005FE36B817C818D819E810E94232BF50115
:100DA00020813181428153810E94232BF501608390
:100DB00071838283938380E090E0A0E1B1E48B8330
:100DC0009C83AD83BE838F818B3C09F059C033C0B7
:100DD0008F818B3C09F054C00330110529F0043099
:100DE000110509F04DC027C087010A521F4F2AE0A4
:100DF00037ED43E25CE36B817C818D819E810E94B3
:100E0000232B9B01AC01F801608171818281938168
:100E10000E94222BF80160837183828393838CEE7E
:100E200091E5A8EBBDE38B839C83AD83BE838F816B
:100E30008C3CA8F12FC087010A521F4F2AE037EDE2
:100E400043E25CE36B817C818D819E810E94232B38
:100E5000F80120813181428153810E94232BF801C6
:100E600060837183828393838CEE91E5A8EBBDE36D
:100E70008B839C83AD83BE838F818C3C80F00DC0BF
:100E80008F818C3C60F00330110521F00430110596
:100E900031F403C081508F8302C08F5F8F838F81B5
:100EA000893C18F488EC8F8304C08D3C10F08DECE5
:100EB0008F83F701E653FF4F80809180A280B3803B
:100EC00020E030E0A901C501B4010E948F2B181663
:100ED00064F08AE097EDA3E2BCE3F701E653FF4F2D
:100EE00080839183A283B38315C020E030E040E487
:100EF00050E4C501B4010E94EE2C88235CF080E030
:100F000090E0A0E4B0E4F701E653FF4F80839183C3
:100F1000A283B383F701E253FF4F80809180A280C8
:100F2000B38020E030E0A901C501B4010E948F2BFD
:100F3000181644F0F701E253FF4F1082118212821B
:100F4000138215C020E030EC49E754E4C501B40138
:100F50000E94EE2C88235CF080E090ECA9E7B4E4DA
:100F6000F701E253FF4F80839183A283B383F7019C
:100F7000EE52FF4F80809180A280B38020E030E06D
:100F8000A901C501B4010E948F2B181644F0F70186
:100F9000EE52FF4F108211821282138215C020E0A0
:100FA00030EC49E754E4C501B4010E94EE2C8823DB
:100FB0005CF080E090ECA9E7B4E4F701EE52FF4F5B
:100FC00080839183A283B383F701EA52FF4F80802D
:100FD0009180A280B38020E030E0A901C501B40176
:100FE0000E948F2B181644F0F701EA52FF4F10822F
:100FF00011821282138215C020E030E040E05FE3EE
:10100000C501B4010E94EE2C88235CF0F701EA527E
:10101000FF4F80E090E0A0E0BFE380839183A28354
:10102000B3831EC080E01CC00130110509F4BBCDA4
:101030000230110509F014CEB3CD0130110509F4C9
:10104000B2CD0230110509F4ABCD0ACE8F818A3CB6
:1010500009F0BECE96CE8F818A3C09F0B9CE68CE1B
:10106000DF91CF911F910F91FF90EF90BF90AF90C4
:101070009F908F900895CF92DF92EF92FF920F93FF
:101080001F93CF93DF93EC01CB018A0164E670E0FC
:101090000E9476268530910519F418821F8254C16A
:1010A0008630910519F418821F824EC18F3F2FEFB1
:1010B000920729F41B821C821D821E8245C12F814A
:1010C000243D59F4009709F04AC181E088839DE0EE
:1010D0009F83C856DF4F888337C1253D51F4009761
:1010E00009F034C118821F82C856DF4F81E088831F
:1010F0002BC18130910531F08230910531F42F5FA1
:101100002F839FC021502F839CC03EE2320F32308C
:1011100008F097C08330910529F08430910509F4D7
:101120004BC08FC0223DE9F478018AEDE80EF11C36
:101130002AE037ED43E25CE36B817C818D819E8107
:101140000E94232B9B01AC01F70160817181828198
:1011500093810E94222BF7016083718382839383A2
:101160001CC07801FEEDEF0EF11C2AE037ED43E2E2
:101170005CE36B817C818D819E810E94232B9B018E
:10118000AC01F70160817181828193810E94222BE1
:10119000F70160837183828393838CEE91E5A8EBE2
:1011A000BDE38B839C83AD83BE832F818CE2820F52
:1011B000823008F056C050C0223DD9F47801FAEDD3
:1011C000EF0EF11C2AE037ED43E25CE36B817C819A
:1011D0008D819E810E94232BF701208131814281E4
:1011E00053810E94232BF701608371838283938351
:1011F0001AC07801FEEDEF0EF11C2AE037ED43E254
:101200005CE36B817C818D819E810E94232BF701A1
:1012100020813181428153810E94232BF701608319
:101220007183828393838CEE91E5A8EBBDE38B837E
:101230009C83AD83BE832F818CE2820F823088F441
:101240000EC02F813CE2320F323058F483309105CA
:1012500019F0049731F403C021502F8302C02F5F8F
:101260002F838F81833D18F482ED8F8304C0853DE9
:1012700010F085ED8F8320E030E0A901F801E652FF
:10128000FF4F60817181828193810E948F2B18169C
:101290003CF0F801E652FF4F108211821282138255
:1012A00020E030E040EA50E4F801E252FF4F608174
:1012B0007181828193810E94EE2C88235CF080E012
:1012C00090E0A0EAB0E4F801E252FF4F80839183FE
:1012D000A283B3838F81823D19F0833DD9F033C05F
:1012E000F801E252FF4FC080D180E280F380A70175
:1012F0009601349760817181828193810E94EE2CE6
:1013000088230CF1F801E652FF4FC082D182E282BD
:10131000F38219C0F801E652FF4FC080D180E2800D
:10132000F380A70196013496608171818281938157
:101330000E948F2B18163CF0F801E252FF4FC0823A
:10134000D182E282F38214C080E012C08130910524
:1013500009F4D8CE8230910509F073CFD0CE813018
:10136000910509F4CFCE8230910509F4C8CE69CF3A
:10137000DF91CF911F910F91FF90EF90DF90CF9071
:101380000895CF92DF92EF92FF920F931F93CF9326
:10139000DF93EC01CB018A0164E670E00E947626BF
:1013A0008530910519F418821F82E1C086309105BD
:1013B00019F418821F82DBC08F3F2FEF920729F4A8
:1013C0001B821C821D821E82D2C02F812E3D59F4A9
:1013D000009709F0D7C081E088839EE09F83C856BC
:1013E000DF4F8883C4C02F3D51F4009709F0C1C07E
:1013F00018821F82C856DF4F81E08883B8C08130D1
:10140000910531F08230910531F42F5F2F830BC0AD
:1014100021502F8308C02D3D31F4009721F4C801DD
:101420000E944A1367C02F812C3D09F055C08330BC
:10143000910521F08430910549F14EC0780182EE8A
:10144000E80EF11C20E030E040E85FE36B817C8136
:101450008D819E810E94232B9B01AC01F70160814D
:101460007181828193810E94222BF70160837183B5
:101470008283938380E090E0A0E1B1E48B839C833E
:10148000AD83BE832F812E3DA8F12FC07801F2EEEF
:10149000EF0EF11C20E030E040E85FE36B817C81DF
:1014A0008D819E810E94232BF70120813181428111
:1014B00053810E94232BF70160837183828393837E
:1014C00080E090E0A0E1B1E48B839C83AD83BE8398
:1014D0002F812E3D78F00CC02F812E3D58F08330A7
:1014E000910519F0049731F403C021502F8302C0F5
:1014F0002F5F2F838F818D3D18F48CED8F8304C077
:101500008F3D10F08FED8F83F801EE51FF4FC080BB
:10151000D180E280F38020E030E040EA50E4C7016F
:10152000B6010E948F2B181664F0F801EE51FF4FA0
:1015300080E090E0A0EAB0E480839183A283B3834B
:1015400015C020E030EC49E754E4C701B6010E9421
:10155000EE2C88235CF0F801EE51FF4F80E090EC18
:10156000A9E7B4E480839183A283B38314C080E0AD
:1015700012C08130910509F44BCF8230910509F0FA
:1015800052CF43CF8130910509F442CF823091058B
:1015900009F43BCF48CFDF91CF911F910F91FF907E
:1015A000EF90DF90CF9008950F931F93CF93DF9329
:1015B000EC01CB018A0164E670E00E94762685305A
:1015C000910519F418821F8269C08630910519F4BB
:1015D00018821F8263C08F3F2FEF920709F45EC00D
:1015E000009779F42F81263E21F4C8010E945213FE
:1015F00055C02B3E09F054C081E088838FE08F8373
:101600004DC02F818130910571F08230910541F0FC
:101610000DC018821F82C856DF4F81E088833EC00C
:101620002F5F2F8330C021502F8315C08430910548
:1016300031F48F818B3E29F58CEE8F832FC0833060
:10164000910531F48F818C3EB9F48BEE8F8326C0E7
:101650008130910531F48F818C3EA9F48BEE8F831C
:101660001DC08330910541F08430910551F0892BE4
:1016700051F487E0888307C081E088838FE08F83FF
:101680000DC087E088838F81873E18F486EE8F83B4
:1016900004C08C3E10F08CEE8F8305C080E003C048
:1016A0002C3E21F6B6CFDF91CF911F910F91089577
:1016B000CF93DF93EC01CB0164E670E00E947626C5
:1016C0009C01255031092230310528F0019619F08E
:1016D00086E0888301C080E0DF91CF9108950F9369
:1016E0001F93CF93DF93EC018B018F81823069F0E0
:1016F00018F4813031F019C0833061F0843081F00A
:1017000014C0CB010E94402A10C0CB01C2960E9497
:10171000402A0BC0CB018C599F4F0E94402A05C024
:10172000CB018A569F4F0E94402AFE01E456FF4F8C
:10173000808181110DC0C8010E94200F882341F0D3
:1017400088E08883C656DF4F81E090E099838883E4
:10175000DF91CF911F910F910895FC01EA56FF4F41
:1017600021E02083FC012781253041F0263061F003
:10177000243079F4E756FF4F10820BC021E0FC01C2
:10178000E756FF4F208305C022E0FC01E756FF4FDC
:10179000208328E0FC012083E656FF4F118210824F
:1017A0000895DC011196ED91FC911297EE0FFF1F49
:1017B000EE0FFF1FEE51FF4F65917591859194914A
:1017C0000895FC01DC01A956BF4F81E08C9387810D
:1017D000893039F08A3059F0883071F412961C92B1
:1017E0000BC081E0DF01A756BF4F8C9305C082E09C
:1017F000DF01A756BF4F8C9382E080831782089544
:101800000F931F93CF93DF93EC018B01CA010E94CA
:10181000B31264E670E0C8010E9476268530910517
:1018200021F418821F8280E065C08630910521F482
:1018300018821F8280E05EC08F3F2FEF920709F46D
:1018400058C02F8130E0A901440F551F440F551F88
:10185000240F351F2C0F3D1FF901E80FF91F22A996
:10186000822F90E0FC01E756F109EB30F105F0F52D
:10187000EC5CFF4F0C94742D18821F8281E03AC0FB
:10188000CE010E94AD0B81E035C0CE010E94AD0BB0
:1018900081E030C0CE010E94AD0B81E02BC0CE01B3
:1018A0000E94E10B81E026C0CE010E94E10B81E0A5
:1018B00021C0CE010E94E10B81E01CC083E088833F
:1018C00088EC8F8381E016C084E0888382ED8F836B
:1018D00081E010C085E088838CED8F8381E00AC0B1
:1018E00086E0888386EE8F8381E004C02F8381E0C9
:1018F00001C080E0DF91CF911F910F910895CF93A8
:10190000DF93EC01CB0164E670E00E94762601963D
:1019100011F480E005C01882C456DF4F81E088834F
:10192000DF91CF9108950F931F93CF93DF938C0195
:10193000CB01EA0164E670E00E947626019611F47C
:1019400080E008C0C951DF4F188286E0F80180832B
:1019500086EE8783DF91CF911F910F910895FC014F
:10196000E656FF4F208131812230310501F13CF4F0
:101970002115310559F021303105B1F0089523309A
:101980003105C1F02039314011F10895EFEFFDE349
:1019900029E4E150F0402040E1F700C0000021E0E0
:1019A000FC012083278308950E947F0C08950E94E4
:1019B000930C0895FFEF2DE339E4F15020403040BF
:1019C000E1F700C00000FC01108217820895FFEFCC
:1019D0002DE339E4F15020403040E1F700C0000031
:1019E00024E0FC01208322ED27830895EF92FF92EB
:1019F0000F931F93CF93DF93EC018B017A01FC01CE
:101A0000E456FF4F808181110EC0CB010E94200F50
:101A1000882349F088E0888381E090E0FE01E65663
:101A2000FF4F91838083C8010E943C13C8010E942C
:101A3000BF13811108C088E08883C656DF4F83E05A
:101A400090E09983888385E0E816F10429F086E028
:101A5000E816F10429F007C0C8010E94AA1403C0C7
:101A6000C8010E940514DF91CF911F910F91FF9043
:101A7000EF900895EF92FF920F931F93CF93DF9310
:101A8000EC017B018A01CA010E94B31264E670E096
:101A9000C7010E947626AC010597029730F4B80181
:101AA000CE010E94F60C80E039C04F3F8FEF5807FF
:101AB000A1F19F81292F30E0C901880F991F280FBC
:101AC000391F220F331F2C0F3D1FF901E40FF51FA3
:101AD00080858536A1F018F4843631F01BC0863637
:101AE000A9F0823739F016C0B801CE010E946F0B01
:101AF00081E014C0C8010E94931381E00FC082E00E
:101B00008883C8010E940A0F81E008C081E08883B1
:101B10001F8204C08F8381E001C080E0DF91CF91FC
:101B20001F910F91FF90EF900895EF92FF920F9306
:101B30001F93CF93DF938C01CB017A0164E670E0B1
:101B40000E947626EC010597029730F4AE01B701AA
:101B5000C8010E94F60C55C0CF3F8FEFD80709F49B
:101B600050C0C7010E94BF13811109C088E0F8016D
:101B7000808383E090E0E656FF4F91838083C230FC
:101B8000D105C1F02CF4209749F0219751F028C0DD
:101B9000C330D105C1F02497E9F022C0F8011082CA
:101BA0001FC0C8010E94D10BAB01BC01C7010E943C
:101BB000831716C0C8010E94D10BAB01BC01C7013D
:101BC0000E94AF170DC0F801818192810197928325
:101BD000818306C0F801818192810196928381837D
:101BE000F80181819281181619061CF01282118267
:101BF00007C043972CF083E190E0F8019283818342
:101C000001C080E0DF91CF911F910F91FF90EF9085
:101C100008950F931F93DC01EC910E2F10E0093013
:101C20001105F8F4F801E15CFF4F0C94742D0E944B
:101C30003A0D17C00E94000C14C00E94950D11C0EF
:101C40000E9488050EC00E943B080BC00E94C1097B
:101C500008C00E94D40A05C00E94580B02C00E940E
:101C6000AF0C1F910F9108950895FC01608341838B
:101C7000528384EF91E0968385836334A1F06434CA
:101C800011F1623479F524B181E090E002C0880F4F
:101C9000991F4A95E2F7982F9095922394B995B1A0
:101CA000892B85B9089527B181E090E002C0880FA3
:101CB000991F4A95E2F7982F9095922397B998B17A
:101CC000892B88B908952AB181E090E002C0880F7D
:101CD000991F4A95E2F7982F909592239AB99BB154
:101CE000892B8BB90895FC01772374F180818334AB
:101CF00079F08434B9F0823409F06AC083B190E09D
:101D0000018002C0959587950A94E2F7817013C00F
:101D100086B190E0018002C0959587950A94E2F71C
:101D2000817009C089B190E0018002C095958795C6
:101D30000A94E2F78170882309F44EC080E293E0B0
:101D40009683858380E0089514821382858196812D
:101D50001816190634F036C025813681821793078C
:101D60008CF58081833471F08434B1F0823491F544
:101D700023B130E0018002C0359527950A94E2F73F
:101D8000217013C026B130E0018002C0359527953F
:101D90000A94E2F7217009C029B130E0018002C045
:101DA000359527950A94E2F721708FE99FE0019716
:101DB000F1F700C0000083819481019694838383AE
:101DC000222351F284E690E09683858381E0089592
:101DD00080E0089580E0089514821382B7CFCF93F6
:101DE000DF93EC010E944028CE01C2960E94402859
:101DF000CE018C599F4F0E944028CE018A569F4F9A
:101E00000E944028CE0188539F4F0E945127DF91A6
:101E1000CF910895CF93DF93EC010E947E28CE01ED
:101E2000C2960E947E28CE018C599F4F0E947E2828
:101E3000CE018A569F4F0E947E28DF91CF91089550
:101E4000CF93DF93EC010E94A72A811112C0CE012B
:101E5000C2960E94A72A81110CC0CE018C599F4FB7
:101E60000E94A72A811105C0CE018A569F4F0E9469
:101E7000A72ADF91CF910895CF93DF93FC01DC0176
:101E8000A252BF4F8D919D910D90BC91A02D868344
:101E90009783A087B18780AF91AFA2AFB3AFEF01B7
:101EA000C659DF4F88839983AA83BB83E2968883D0
:101EB0009983AA83BB83DF01A652BF4F8D919D9169
:101EC0000D90BC91A02D82879387A487B58784AF9E
:101ED00095AFA6AFB7AFAE9788839983AA83BB832C
:101EE000E056FF4F80839183A283B383DF91CF912C
:101EF0000895CF93DF93EC010E94E529CE01C296AD
:101F00000E94E529CE018C599F4F0E94E529CE0100
:101F10008A569F4F0E94E529DF91CF9108952F9215
:101F20003F924F925F926F927F928F929F92AF9269
:101F3000BF92CF92DF92EF92FF920F931F93CF93B6
:101F4000DF9300D000D000D0CDB7DEB79E838D8365
:101F50000E9444286D807E8082E3680E711CC3015C
:101F60000E944428ED81FE81EC59FF4FFA83E983FA
:101F7000CF010E9444284D805E80F6E94F0E511C2F
:101F8000C2010E9444288D819E8188539F4F9C836B
:101F90008B832D803E809EEC290E311CF101208127
:101FA000318142815381AA24A394B12CCC24C394BF
:101FB000D12CEE24E394F12C01E010E06AE070E013
:101FC0008B819C810E945A278D819E810E94A2292B
:101FD0008D809E80F8EF8F0E911C90E0F40191832C
:101FE0008083C3010E94A229ED81FE81E650FF4F4C
:101FF00090E09183808389819A810E94A229ED815A
:10200000FE81E450FF4F90E091838083C2010E94E3
:10201000A229ED81FE81E250FF4F90E09183808301
:10202000F10120813181428153816894AA24A1F871
:10203000B12C6894CC24C1F8D12C6894EE24E1F83A
:10204000F12C02E010E06AE070E08B819C810E943C
:102050005A27F40180819181892BC1F0ED81FE81A5
:10206000E650FF4F80819181892B81F0ED81FE81C7
:10207000E450FF4F80819181892B41F0ED81FE81F9
:10208000E250FF4F80819181892B61F48D819E8187
:1020900089519F4F9A83898381E0E981FA81808306
:1020A00080E001C081E026960FB6F894DEBF0FBE37
:1020B000CDBFDF91CF911F910F91FF90EF90DF90F7
:1020C000CF90BF90AF909F908F907F906F905F90D8
:1020D0004F903F902F900895CF93DF93EC0161E0F4
:1020E00070E00E94532862E070E0CE01C2960E9428
:1020F000532863E070E0CE018C599F4F0E94532813
:1021000064E070E0CE018A569F4F0E945328CE01B2
:1021100088539F4F0E945227FE01EE5FFE4F81E0E1
:1021200090E091838083CE010E948F0FDF91CF9149
:102130000895CF93DF93FC01E751FF4FDC019796A1
:102140002D913C91989731832083A551BF4FEC018D
:10215000C75ADF4F2881398111963C932E931296EE
:10216000E2962881398111963C932E931296E2963D
:10217000288139812D933C93DF01AC014F505F4F93
:10218000619171911616170624F0E417F507C1F74F
:1021900027C06115710539F12D913D911216130675
:1021A00024F4261737070CF4B901A417B507A1F7D3
:1021B0006333710514F062E370E0EC01072E000C4C
:1021C000880B990B0E943E2CC653DF4F2881398122
:1021D0004A815B810E94F32C0E94062CCB0105C032
:1021E00080E090E002C080E090E0DF91CF91089520
:1021F000CF92DF92EF92FF920F931F93CF93DF93D3
:10220000CDB7DEB78B859C858230910571F01CF4CB
:10221000019739F01DC08330910571F00497A1F04A
:1022200017C0CC24C394D12C13C0CC24C3940F2E3C
:10223000FBE0DF2EF02D0CC06894CC24C2F80F2EEA
:10224000FBE0DF2EF02D04C06894CC24C2F8D12C22
:10225000CE010B960E9444288B019C016894EE24C9
:10226000E1F8F12C41E06C2D8D2D0E94C01A0E94E6
:10227000AB18DF91CF911F910F91FF90EF90DF90FE
:10228000CF9008952F923F924F925F926F927F92DC
:102290008F929F92AF92BF92CF92DF92EF92FF9276
:1022A0000F931F93CF93DF93EC018C010A521F4FC2
:1022B000F80140815181628173810E94A228FE0150
:1022C000EE50FF4F80838DB79EB7C2970FB6F8943C
:1022D0009EBF0FBE8DBFADB7BEB7119682E3FE01A4
:1022E00001900D928A95E1F7CE010E94F8103E010F
:1022F00092E3690E711CEDB7FEB7F2960FB6F89433
:10230000FEBF0FBEEDBFF801408151816281738134
:10231000C3010E94A228FE01ED50FF4F80838DB7BC
:102320009EB7C2970FB6F8949EBF0FBE8DBFADB7D4
:10233000BEB7119682E3F30101900D928A95E1F701
:10234000CE010E94F8104E0194E6890E911CEDB763
:10235000FEB7F2960FB6F894FEBF0FBEEDBFF801C0
:102360004081518162817381C4010E94A228FE01D3
:10237000EC50FF4F80838DB79EB7C2970FB6F8948D
:102380009EBF0FBE8DBFADB7BEB7119682E3F401FD
:1023900001900D928A95E1F7CE010E94F8102E016E
:1023A00096E9490E511CEDB7FEB7F2960FB6F894B8
:1023B000FEBF0FBEEDBFF801408151816281738184
:1023C000C2010E94A228FE01EB50FF4F80838DB70F
:1023D0009EB7C2970FB6F8949EBF0FBE8DBFADB724
:1023E000BEB7119682E3F20101900D928A95E1F752
:1023F000CE010E94F810EDB7FEB7F2960FB6F89432
:10240000FEBF0FBEEDBFCE010E9499104F970CF496
:1024100094C0FE01EB50FF4FA080B12C3197C080DB
:10242000D12C3197E080F12C1E01F2EF2F0E311CE0
:10243000F101008110E0B497208131814281538104
:1024400064E170E0CE0188539F4F0E945A27F1014A
:102450008081882351F0CE010E94A229FE01E8501C
:10246000FF4F90E09183808307C081E090E0FE0100
:10247000E850FF4F91838083FE01ED50FF4F808134
:10248000882351F0C3010E94A229FE01E650FF4FAC
:1024900090E09183808307C081E090E0FE01E650E8
:1024A000FF4F91838083FE01EC50FF4F8081882392
:1024B00051F0C4010E94A229FE01E450FF4F90E0B8
:1024C0009183808307C081E090E0FE01E450FF4FDC
:1024D00091838083FE01EB50FF4F8081882351F070
:1024E000C2010E94A229FE01E250FF4F90E09183B9
:1024F000808307C081E090E0FE01E250FF4F9183AE
:102500008083FE01E850FF4F80819181892B79F013
:10251000329680819181892B51F032968081918110
:10252000892B29F0329680819181892B41F4C95100
:10253000DF4F81E0888380E003C081E001C081E05B
:10254000DF91CF911F910F91FF90EF90DF90CF908F
:10255000BF90AF909F908F907F906F905F904F90C3
:102560003F902F900895CF92DF92EF92FF920F93BA
:102570001F93CF93DF93FC01EA51FF4F2081222369
:1025800009F471C0EC010E94172A6E0182E3C80EA3
:10259000D11CC6010E94172A7E0184E6E80EF11CB8
:1025A000C7010E94172A8E010A561F4FC8010E94B8
:1025B000172AFE01EC5AFF4F9AA18081892BF296CF
:1025C0009081892B29F4F2968081882309F44BC0ED
:1025D000FE01EE51FF4F60817181828193810E94E3
:1025E000062CCE010E94C929882329F081E0FE0132
:1025F000E951FF4F8083FE01EE51FF4F60817181F1
:10260000828193810E94062CC6010E94C9298823D9
:1026100029F081E0FE01E951FF4F8083FE01EE5178
:10262000FF4F60817181828193810E94062CC701D6
:102630000E94C929882329F081E0FE01E951FF4F5A
:102640008083FE01EE51FF4F608171818281938111
:102650000E94062CC8010E94C929882321F0C95173
:10266000DF4F81E08883DF91CF911F910F91FF9021
:10267000EF90DF90CF900895FC0116A215A2E95AC1
:10268000FF4F11821082F29611821082F29611820F
:1026900010820895FC01EA51FF4F808191E0982754
:1026A00090830895FC0110A214A213A2EE5AFF4FCA
:1026B0001082339611821082BF9610823396118257
:1026C0001082BF9610823396118210820895FC0109
:1026D00020A1211102C021E0278FFC01EE5AFF4FFB
:1026E0002081211103C021E031972083FC01EC57A8
:1026F000FF4F2081211103C021E031972083FC018D
:10270000EA54FF4F2081211103C0319721E020833B
:102710000895FC01178EEF5AFF4F1082F296108237
:10272000F29610820895CF93DF93EC010E94AC2AB9
:102730008823F9F0CE01C2960E94AC2A8823C9F002
:10274000CE018C599F4F0E94AC2A882391F0CE0174
:102750008A569F4F0E94AC2A882359F01F8EFE0193
:10276000EF5AFF4F1082F2961082CB54DF4F18823F
:1027700003C0CE010E946713DF91CF910895FC0141
:10278000878D81110DC0DF01AF5ABF4F8C91811130
:1027900007C0D2968C91811103C0EB54FF4F80810A
:1027A0000895CF93DF93EC010E94B22ACE01C29626
:1027B0000E94B22ACE018C599F4F0E94B22ACE01AC
:1027C0008A569F4F0E94B22A8A8981110EC0FE014B
:1027D000EC5BFF4F8081811108C0F29680818111EE
:1027E00004C0F2968081882369F01A8AFE01EC5BAE
:1027F000FF4F1082F2961082F2961082C851DF4F7E
:1028000081E08883DF91CF910895AF92BF92CF92FC
:10281000DF92EF92FF920F931F93CF93DF93EC0120
:102820008F8D882331F082E0FE01EE50FF4F8083D0
:1028300004C0FE01EE50FF4F1082FE01EF5AFF4F21
:102840008081882329F082E0EE55FF4F808304C009
:10285000FE01ED50FF4F1082FE01ED57FF4F8081CA
:10286000882329F082E0EF58FF4F808304C0FE01E7
:10287000EC50FF4F1082FE01EB54FF4F8081882304
:1028800029F082E0E05CFF4F808304C0FE01EB5042
:10289000FF4F1082CE010E94D11381111CC0FE0196
:1028A000EB50FF4FE080F12C3197008110E0319721
:1028B000A080B12C3197C080D12CB09760817181FC
:1028C000828193810E94062C9501A601CE01885336
:1028D0009F4F0E94E527DF91CF911F910F91FF90AD
:1028E000EF90DF90CF90BF90AF900895CF93DF939C
:1028F000EC010E94EA2ACE01C2960E94EA2ACE0189
:102900008C599F4F0E94EA2ACE018A569F4F0E94FF
:10291000EA2A8A8981110EC0FE01EC5BFF4F80819B
:10292000811108C0F2968081811104C0F2968081E5
:10293000882369F01A8AFE01EC5BFF4F1082F29641
:102940001082F2961082C851DF4F81E08883DF91B8
:10295000CF910895AF92BF92CF92DF92EF92FF9204
:102960000F931F93CF93DF93EC018F8D882331F06A
:1029700081E0FE01EE50FF4F808304C0FE01EE5067
:10298000FF4F1082FE01EF5AFF4F8081882329F00C
:1029900081E0EE55FF4F808304C0FE01ED50FF4FF4
:1029A0001082FE01ED57FF4F8081882329F081E0DE
:1029B000EF58FF4F808304C0FE01EC50FF4F1082A0
:1029C000FE01EB54FF4F8081882329F081E0E05C19
:1029D000FF4F808304C0FE01EB50FF4F1082CE01F9
:1029E0000E94761481111CC0FE01EB50FF4FE08065
:1029F000F12C3197008110E03197A080B12C3197F4
:102A0000C080D12CB09760817181828193810E94B6
:102A1000062C9501A601CE0188539F4F0E94E52701
:102A2000DF91CF911F910F91FF90EF90DF90CF90AA
:102A3000BF90AF900895CB0164E170E00E94602DDB
:102A40000697ECF062E086E00E94111986E90E9488
:102A50002C1962E087E00E94111987E90E942C1965
:102A600063E086E00E94111988E90E942C1963E056
:102A700087E00E94111989E90E942C19089562E0EB
:102A800086E00E94111982E90E942C1962E087E019
:102A90000E94111983E90E942C1963E086E00E94CC
:102AA000111984E90E942C1963E087E00E94111932
:102AB00085E90E942C1908952F923F924F925F92C0
:102AC0006F927F928F929F92AF92BF92CF92DF923E
:102AD000EF92FF920F931F93CF93DF93CDB7DEB7A3
:102AE000A0970FB6F894DEBF0FBECDBF9A8B898B2F
:102AF0000E94790FE989FA89F39581E090E091834A
:102B0000808389899A890E944211882309F4E2C14D
:102B1000E989FA89F39580819181181619060CF0DC
:102B2000D9C1212C312C89898F8B9A89988FE98979
:102B3000FA89F296FA83E98389899A898C599F4F99
:102B40009C838B83E989FA89EA56FF4FFE83ED83E4
:102B500089889A88F6ED8F0E911C89899A898E5002
:102B60009F4F98878F83E989FA89ED50FF4FFA8745
:102B7000E98789899A898C509F4F9C878B87E9893F
:102B8000FA89EB50FF4FFE87ED8789899A899395E3
:102B9000988B8F87E989FA89E253FF4FFC8BEB8B87
:102BA00089899A8988539F4F9E8B8D8B9F899F8F90
:102BB000E88DE8A306C0F4EF2F16F1E03F0609F414
:102BC00023C18F8D8F8B98A1988F0E949028E981C7
:102BD000E98FFA81FA8F89819A810E9490288B81EE
:102BE0008B8F9C819C8F8B819C810E949028ED8192
:102BF000ED8FFE81FE8F8D819E810E949028B10114
:102C00008F8D98A10E941B15F40140815181628132
:102C100073818F8D98A10E94A228EF81F88580830F
:102C20008DB79EB7C2970FB6F8949EBF0FBE8DBFEB
:102C3000ADB7BEB7119682E3EF8DF8A101900D926A
:102C40008A95E1F78F8D98A10E94F8100FB6F8943D
:102C5000DEBF0FBECDBFF40140815181628173811F
:102C600089819A810E94A228E985FA8580838DB79F
:102C70009EB7C2970FB6F8949EBF0FBE8DBFADB77B
:102C8000BEB7119682E3E981FA8101900D928A958F
:102C9000E1F78F8D98A10E94F8100FB6F894DEBF6F
:102CA0000FBECDBFF40140815181628173818B8160
:102CB0009C810E94A228EB85FC8580838DB79EB7FE
:102CC000C2970FB6F8949EBF0FBE8DBFADB7BEB70B
:102CD000119682E3EB81FC8101900D928A95E1F7D8
:102CE0008F8D98A10E94F8100FB6F894DEBF0FBE2A
:102CF000CDBFF40140815181628173818D819E81BC
:102D00000E94A228ED85FE8580838DB79EB7C2976D
:102D10000FB6F8949EBF0FBE8DBFADB7BEB711966C
:102D200082E3ED81FE8101900D928A95E1F78F8D0E
:102D300098A10E94F810EF81F885008110E0E985E4
:102D4000FA85E080F12CEB85FC85C080D12CED85E7
:102D5000FE85A080B12CC8018E0D9F1D8C0D9D1D80
:102D60008A0D9B1DEF85F88991838083EB89FC890F
:102D700040805180628073800FB6F894DEBF0FBE32
:102D8000CDBF8F8D98A10E949910A3019201BC0123
:102D90008D899E890E945A278F8D98A10E946B2948
:102DA00089819A810E946B298B819C810E946B2969
:102DB0008D819E810E946B299FEF291A390AEF8528
:102DC000F88980819181181619060CF4F4CEF4E686
:102DD0002F16310449F088EC2816310429F09CE2C2
:102DE000291691E0390681F48F89988D0E949E29D9
:102DF000898D9A8D0E949E298B8D9C8D0E949E2983
:102E00008D8D9E8D0E949E29E4EF2E16E1E03E06F8
:102E10000CF460C0E989FA89EE50FF4F8081882365
:102E200059F081E0E989FA8980A322E030E034A3F7
:102E300023A3E951FF4F8083E989FA89ED50FF4FC1
:102E40008081882399F081E0E989FA89EE5AFF4F61
:102E5000808322E030E0E989FA89EB5AFF4F318321
:102E60002083E989FA89E951FF4F8083E989FA894A
:102E7000EC50FF4F8081882399F081E0E989FA893D
:102E8000EC57FF4F808322E030E0E989FA89E95767
:102E9000FF4F31832083E989FA89E951FF4F80830D
:102EA000E989FA89EB50FF4F8081882399F0E989FD
:102EB000FA89EA54FF4F81E08083E989FA89E7546F
:102EC000FF4F22E030E031832083E989FA89E9511C
:102ED000FF4F8083A0960FB6F894DEBF0FBECDBF24
:102EE000DF91CF911F910F91FF90EF90DF90CF90E6
:102EF000BF90AF909F908F907F906F905F904F901A
:102F00003F902F900895CF92DF92EF92FF92CF9350
:102F1000DF93EC016A017B010E94462AB701A601FA
:102F2000CE01C2960E94462AB701A601CE018C5955
:102F30009F4F0E94462AB701A601CE018A569F4F95
:102F40000E94462ACE010E945C15CE010E94761492
:102F5000DF91CF91FF90EF90DF90CF900895CF92C7
:102F6000DF92EF92FF92CF93DF93EC016A017B0136
:102F70000E94762AB701A601CE01C2960E94762A47
:102F8000B701A601CE018C599F4F0E94762AB70146
:102F9000A601CE018A569F4F0E94762ACE010E943A
:102FA0005C15CE010E94D113DF91CF91FF90EF907D
:102FB000DF90CF9008952A98613011F4299A01C0CA
:102FC00029988EBD0DB407FEFDCF2A9A0895CF92A1
:102FD000DF92EF92FF920F931F93CF93DF936B01DA
:102FE0007C01EA01CA010197209781F061E070E05D
:102FF0009B01220F331F660F771F660F771F660F27
:10300000771F620F731F019798F702C061E070E0AD
:10301000072E000C880B990B0E943E2CA7019601ED
:103020000E94F32C0E94062CAB01BC01CA0199231B
:103030001CF021E030E002C02FEF3FEF249FC001E1
:10304000259F900D349F900D112409E913E00F2E58
:10305000FAE0EF2EF12CF02D0F2EFEE2DF2EF02DF8
:1030600002C08F01EA01F801B7010E94602D805D66
:103070008293862F972FAE014150510919F4F80120
:103080003297D082009769F714161506D4F4BE0162
:1030900062507109DF0140E32197CE1BDF0B4E9395
:1030A000CD018C0F9D1F18161906CCF3CB01992367
:1030B00014F480E090E080959095E80FF91F8EE27F
:1030C000829380818E3211F480E38293332314F44F
:1030D0008DE28293CF01DF91CF911F910F91FF90ED
:1030E000EF90DF90CF9008952C9A84B18E6384B9CD
:1030F0002C982C9A80E58CBD2A9A60E081E20E948F
:10310000DB1760E08FEB0E94DB1760E086E00E9437
:10311000DB1760E083E10E94DB1760E080E20E9441
:10312000DB1760E08CE00E94DB17089588EF91E0E8
:10313000E0EAF3E0DF019C011D9221503040E1F70D
:1031400010929F0310929E0387EF91E090939D034E
:1031500080939C030895EF92FF920F931F93CF9358
:10316000DF9380919E0390919F0399232CF41092FA
:103170009F0310929E0309C0883F914034F087EF6F
:1031800091E090939F0380939E0380919C03909184
:103190009D0399232CF410929D0310929C0309C067
:1031A000883F914034F087EF91E090939D038093A6
:1031B0009C03C0919E03D0919F03CE0164E570E013
:1031C0000E94602D162F60E080680E94DB1760E08F
:1031D000812F80640E94DB17E0909C03F0909D0398
:1031E000EC16FD066CF08E0100561C4F61E0F801F4
:1031F00081918F010E94DB172196EC16FD06B4F732
:1032000087EF91E090939F0380939E0310929D031C
:1032100010929C03DF91CF911F910F91FF90EF903F
:1032200008958E30A8F46630A8F490E09C01220F37
:10323000331F820F931F880F991F24E5629F800D13
:10324000911D112490939B0380939A0380E008952D
:1032500081E0089581E0089520919A0330919B03C5
:10326000805297E0899FF0011124EE5EFC4FD90156
:10327000A056BC4FA9014A555C4F84918D9331965D
:10328000A417B507D1F72A5F3F4F30939B032093D4
:103290009A0380919C0390919D038217930724F4D5
:1032A00030939D0320939C0380E0089540919A03FE
:1032B00050919B0390E0FC01EE0FFF1FE80FF91FF8
:1032C000EE0FFF1FEE0FFF1FEE0FFF1FEE5CFE4F16
:1032D000DA01A056BC4F9A0128543C4F84918D933B
:1032E0003196A217B307D1F7485E5F4F50939B0307
:1032F00040939A0380E008950F931F93CF93DF9339
:1033000040919A0350919B0320919E0330919F031B
:103310004217530724F450939F0340939E03E0EE1B
:10332000E60FE03A08F4A0C0603C08F49CC0EFEC63
:10333000E60F9AC08491880F8D933196A217B30738
:10334000C9F74B5F5F4F50939B0340939A0365C04F
:10335000823009F062C0CA018455910920919E0310
:1033600030919F03821793070CF08EC090939F03B8
:1033700080939E0389C02491220F822F8270982F00
:10338000990F890F982F990F822F8470382F330F40
:10339000830F880F880F892B022F0870019F002D43
:1033A0001124082B30E035952795359527953595CF
:1033B000279535952795822F8270382F330F830FED
:1033C000880F322F3170932F990F390F832B922F43
:1033D0009470392F330F930F990F990F892B922FD8
:1033E0009870919F902D1124282F292B08830983F1
:1033F0002C9311962C931197319622961296A6171C
:10340000B70709F0B8CFCA010B9668EF71E00E94C8
:10341000602D90939B0380939A0380919A039091DF
:103420009B0320919C0330919D032817390724F4B6
:1034300090939D0380939C03FC01E056FC4F108207
:10344000873F21E0920731F410929B0310929A0378
:1034500082E02DC0019690939B0380939A0380E0B5
:1034600026C081E024C0EFE5813009F071CF87E00C
:10347000E89FF0011124EE5EFC4FDA01A056BC4F2C
:103480009A012B553C4F56CF99235CF327E0E29FDE
:10349000F0011124EE5EFC4FEA01C45BDC4FDA015F
:1034A000A056BC4FBA0166557C4F18E164CFDF913E
:1034B000CF911F910F9108950F931F93CF93DF9397
:1034C000D42F89010E941119F8016081662379F0D7
:1034D000C0E08D2F0E947C19813041F0CF5FF80150
:1034E000EC0FF11D60816111F4CF01C061E0862F06
:1034F000DF91CF911F910F910895FF920F931F932A
:10350000CF93DF93F42E89010E941119F801608195
:10351000662391F0C0E06E3221F08F2D0E947C195D
:10352000D82FD13041F0CF5FF801EC0FF11D608151
:103530006111F1CF01C061E0862FDF91CF911F9122
:103540000F91FF900895DF92EF92FF920F931F93D8
:10355000CF93DF93C82FD62FD42EA701C901B8016E
:103560000E94E7179C014D2D6D2F8C2F0E945C1A35
:10357000DF91CF911F910F91FF90EF90DF90089511
:10358000DF92EF92FF920F931F93CF93DF93C82F99
:10359000D62FD42EA701C901B8010E94E7179C01BC
:1035A0004D2D6D2F8C2F0E947D1ADF91CF911F9191
:1035B0000F91FF90EF90DF900895CF92DF92EF92FE
:1035C000FF920E94741886E396E00E94412687E6E7
:1035D00096E00E946C1067E676E088E995E00E942C
:1035E0008E0489E590E00E948E2D813099F140E0B3
:1035F00050E060E87FE385E590E00E94AA2D40E07E
:1036000050E068EC72E481E590E00E94AA2D40E071
:1036100050E060E271E48DE490E00E94AA2D40E069
:1036200050E0BA0189E490E00E94AA2D40E050E009
:10363000BA0185E490E00E94AA2D40E050E060EAE3
:1036400070E481E490E00E94AA2D61E089E590E0B9
:103650000E949C2D85E590E00E94962D6093310795
:1036600070933207809333079093340781E590E09D
:103670000E94962D60933507709336078093370725
:10368000909338078DE490E00E94962D609339075F
:1036900070933A0780933B0790933C0789E490E04E
:1036A0000E94962D60933D0770933E0780933F07DD
:1036B0009093400785E490E00E94962D6093410727
:1036C00070934207809343079093440781E490E00E
:1036D0000E94962D60934507709346078093470795
:1036E0009093480787E696E00E943C0F8CE390E0B9
:1036F0000E94962D6B017C0120E030E0A9010E9420
:10370000EE2C8823BCF420E030EC49E754E4C701F8
:10371000B6010E948F2B18166CF440E050E068E46C
:1037200072E48CE390E00E94AA2D61E080E490E0D6
:103730000E949C2D8CE390E00E94962D6093490797
:1037400070934A0780934B0790934C0780E490E076
:103750000E948E2D91E0811101C090E090934D0761
:10376000FF90EF90DF90CF900895882309F45EC01A
:1037700040913107509132076091330770913407BF
:1037800085E590E00E94AA2D4091350750913607BB
:10379000609137077091380781E590E00E94AA2D6B
:1037A0004091390750913A0760913B0770913C076F
:1037B0008DE490E00E94AA2D40913D0750913E0774
:1037C00060913F077091400789E490E00E94AA2D24
:1037D000409141075091420760914307709144071F
:1037E00085E490E00E94AA2D40914507509146073C
:1037F000609147077091480781E490E00E94AA2DEC
:1038000087E696E00E943C0F4091490750914A0795
:1038100060914B0770914C078CE390E00E94AA2DB9
:1038200060914D0780E490E00E949C2D08950F93D5
:103830001F93CF93DF9320912E06222399F1EC0161
:1038400087E696E00E944428AB01BC0184E18C9F8E
:1038500080018D9F100D1124C8018C5F9F4F0E9425
:10386000AA2D89E996E00E944428AB01BC01C80159
:10387000885F9F4F0E94AA2D8BEC96E00E944428FF
:10388000AB01BC01C801845F9F4F0E94AA2D8DEF40
:1038900096E00E944428AB01BC01C801805F9F4FA5
:1038A0000E94AA2D10922E06DF91CF911F910F91A9
:1038B00008950F931F93CF93DF9320912F06222318
:1038C00009F451C0EC0187E696E00E94671347E6D1
:1038D00056E068E975E085E396E00E94AD2584E155
:1038E0008C9F80018D9F100D1124C8018C5F9F4F0C
:1038F0000E94962D609382067093830680938406BF
:1039000090938506C801885F9F4F0E94962D609313
:10391000B4067093B5068093B6069093B706C801B7
:10392000845F9F4F0E94962D6093E6067093E70692
:103930008093E8069093E906C801805F9F4F0E943C
:10394000962D609318077093190780931A07909328
:103950001B0787E696E00E945C1587E696E00E94CA
:1039600089131092980510922F06DF91CF911F9125
:103970000F9108950E94DD1AC1E3D6E000E316E03E
:1039800047E656E066E376E088E995E00E94090E96
:1039900047E656E068E975E085E396E00E94AD25CC
:1039A000888190E00E94171C888190E00E94591C39
:1039B000F80180810E94B51BE3CF87E696E00E9464
:1039C000EF0E86E396E00E94212685E396E00E94B2
:1039D000EE1C88E995E00E94890408950895FB0192
:1039E0008781843020F520E031E041E060E085E02F
:1039F0000E945C1A25E031E041E061E082E00E9433
:103A00005C1A20E131E041E062E082E00E945C1A51
:103A10002AE131E041E063E082E00E945C1A24E2A6
:103A200031E041E064E082E00E945C1A0895883051
:103A300020F520E131E041E060E083E00E945C1A83
:103A400020E331E041E061E082E00E945C1A29E37A
:103A500031E041E062E082E00E945C1A25E431E05E
:103A600041E063E082E00E945C1A24E231E041E040
:103A700064E082E00E945C1A08958C3020F525E015
:103A800031E041E060E083E00E945C1A20E331E035
:103A900041E061E082E00E945C1A22E531E041E011
:103AA00062E082E00E945C1A25E431E041E063E0DC
:103AB00082E00E945C1A24E231E041E064E082E0AE
:103AC0000E945C1A08952AE131E041E060E083E061
:103AD0000E945C1A2EE531E041E061E082E00E9444
:103AE0005C1A29E631E041E062E082E00E945C1A63
:103AF00025E731E041E063E082E00E945C1A21E8C2
:103B000031E041E064E082E00E945C1A28E831E0A4
:103B100041E065E082E00E945C1A0895CF92DF9256
:103B2000EF92FF920F931F93CF93DF936B01EA0104
:103B30002EE531E041E060E082E00E945C1A20E97D
:103B400031E041E061E080E00E945C1A28E931E068
:103B500041E062E080E00E945C1A20EA31E041E04E
:103B600063E080E00E945C1A24EA31E041E064E016
:103B700080E00E945C1A65E083E00E9411198EE9E2
:103B80000E942C198FE90E942C1965E089E00E949F
:103B900011198DEA0E942C198EEA0E942C19FE013F
:103BA000E653FF4F00811181228133816894EE2416
:103BB000E1F8F12C41E061E089E00E94A31AFE01E6
:103BC000E253FF4F20E030E048EC52E46081718125
:103BD000828193810E94942B8B019C0141E062E0E1
:103BE0008AE00E94C01AFE01EE52FF4F20E030E052
:103BF00048EC52E460817181828193810E94942B10
:103C00008B019C0141E063E08AE00E94C01ACA5225
:103C1000DF4F088119812A813B8141E064E089E01E
:103C20000E94A31AF60187818A3C61F128F4883C3E
:103C300059F0893CC1F053C08C3C09F441C088F173
:103C40008D3C09F445C04BC061E088E00E94111929
:103C50008AE90E942C1961E08DE00E9411198BE91C
:103C60000E942C193CC062E088E00E9411198AE988
:103C70000E942C1962E08DE00E9411198BE90E94CC
:103C80002C192DC063E088E00E9411198AE90E9476
:103C90002C1963E08DE00E9411198BE90E942C1908
:103CA0001EC064E088E00E9411198AE90E942C1964
:103CB00064E08DE00E9411198BE90E942C190FC05D
:103CC00065E082E00E94111982EA0E942C1907C067
:103CD00065E088E00E94111982EA0E942C19DF91A8
:103CE000CF911F910F91FF90EF90DF90CF900895AB
:103CF000CF92DF92EF92FF920F931F93CF93DF93B8
:103D00006B01EA0129E631E041E060E082E00E94D7
:103D10005C1A2DEA31E041E062E082E00E945C1A28
:103D2000FE01E652FF4F00811181228133816894A8
:103D3000EE24E1F8F12C41E062E088E00E94A31A51
:103D400021EB31E041E063E082E00E945C1AC25264
:103D5000DF4F088119812A813B8141E063E088E0DF
:103D60000E94A31AF6018781833DC1F018F4823DB9
:103D700031F032C0843D09F1853D39F12DC062E05A
:103D800087E00E9411198AE90E942C1962E08CE0F8
:103D90000E94111982EA0E942C191EC063E087E07C
:103DA0000E9411198AE90E942C1963E08CE00E949C
:103DB000111982EA0E942C190FC065E082E00E946E
:103DC000111982EA0E942C1907C065E088E00E9460
:103DD000111982EA0E942C1965E083E00E941119F2
:103DE0008EE90E942C198FE90E942C1965E089E068
:103DF0000E9411198DEA0E942C198EEA0E942C193A
:103E0000DF91CF911F910F91FF90EF90DF90CF90B6
:103E10000895CF92DF92EF92FF920F931F93CF936B
:103E2000DF936B01EA0125E731E041E060E082E0E9
:103E30000E945C1A25EB31E041E061E080E00E94E5
:103E40005C1A22EC31E041E062E080E00E945C1A02
:103E5000FE01EE51FF4F20E030E048EC52E460817B
:103E60007181828193810E94942B8B019C016894C3
:103E7000EE24E1F8F12C41E062E08AE00E94C01AF1
:103E80002BEC31E041E063E080E00E945C1ACA5113
:103E9000DF4F8881813041F024ED31E041E063E083
:103EA0008AE00E945C1A07C028ED31E041E063E03F
:103EB0008AE00E945C1AF60187818D3D49F018F472
:103EC0008C3D71F02BC08E3DD1F08F3D01F126C0AD
:103ED00063E089E00E94111982EA0E942C191EC039
:103EE00062E089E00E9411198AE90E942C1962E0BF
:103EF0008DE00E9411198BE90E942C190FC065E01A
:103F000082E00E94111982EA0E942C1907C065E024
:103F100088E00E94111982EA0E942C1965E083E072
:103F20000E9411198EE90E942C198FE90E942C1908
:103F300065E089E00E9411198DEA0E942C198EEA31
:103F40000E942C19DF91CF911F910F91FF90EF905C
:103F5000DF90CF900895CF92DF92EF92FF920F9370
:103F60001F93CF93DF936B01EA012CED31E041E029
:103F700060E082E00E945C1A29EE31E041E061E0FD
:103F800082E00E945C1A22EF31E041E062E082E0D0
:103F90000E945C1A2BEF31E041E063E082E00E9476
:103FA0005C1A24E032E041E064E082E00E945C1AA6
:103FB00065E083E00E9411198EE90E942C198FE9B7
:103FC0000E942C1965E089E00E9411198DEA0E9477
:103FD0002C198EEA0E942C192DE032E041E061E0BC
:103FE0008BE00E945C1A2DE032E041E062E08BE061
:103FF0000E945C1A2DE032E041E063E08BE00E9419
:104000005C1A2DE032E041E064E08BE00E945C1A33
:104010008BA19CA118161906C4F420E132E041E0FE
:1040200061E08BE00E945C1A6BA17CA1072E000C62
:10403000880B990B0E943E2C8B019C01E12CF12CEA
:1040400041E061E08CE00E94A31AFE01EB5AFF4FB1
:104050008081918118161906DCF420E132E041E0FC
:1040600062E08BE00E945C1AFE01EB5AFF4F608118
:104070007181072E000C880B990B0E943E2C8B013E
:104080009C01E12CF12C41E062E08CE00E94A31A3B
:10409000FE01E957FF4F8081918118161906DCF463
:1040A00020E132E041E063E08BE00E945C1AFE0117
:1040B000E957FF4F60817181072E000C880B990B27
:1040C0000E943E2C8B019C01E12CF12C41E063E02D
:1040D0008CE00E94A31AFE01E754FF4F808191817A
:1040E00018161906D4F420E132E041E064E08BE0D8
:1040F0000E945C1AC754DF4F68817981072E000C3B
:10410000880B990B0E943E2C8B019C01E12CF12C19
:1041100041E064E08CE00E94A31AD6011796EC916E
:104120008E2F90E0FC01E65EF109E730F105D8F54D
:10413000E85BFF4F0C94742D60E080E00E94111941
:104140008BE90E942C192FC061E080E00E941119B8
:104150008BE90E942C1927C062E080E00E941119AF
:104160008BE90E942C191FC063E080E00E941119A6
:104170008BE90E942C1917C064E080E00E9411199D
:104180008BE90E942C190FC065E082E00E94111992
:1041900082EA0E942C1907C065E088E00E9411198C
:1041A00082EA0E942C19DF91CF911F910F91FF900D
:1041B000EF90DF90CF900895CF92DF92EF92FF9231
:1041C0000F931F93CF93DF93CDB7DEB7CEA4DFA4B9
:1041D000C114D10441F422E132E041E062E081E027
:1041E0000E945C1A39C02DE132E041E061E081E0DB
:1041F0000E945C1AB6010D2C000C880B990B0E94D2
:104200003E2C8B019C01E12CF12C41E061E089E026
:104210000E94A31A82E0C816D10479F083E0C81680
:10422000D10499F0CA94CD28B9F426E232E041E0F5
:1042300062E080E00E945C1A0FC02AE532E041E0B3
:1042400062E080E00E945C1A07C023E832E041E0AF
:1042500062E080E00E945C1ADF91CF911F910F9184
:10426000FF90EF90DF90CF9008950F931F93CF931F
:10427000DF938C01EA01FB018781883E79F118F414
:10428000873E41F09BC0893E09F44DC08A3E09F447
:1042900070C094C021EB32E041E060E083E00E9416
:1042A0005C1A8DB79EB7C2970FB6F8949EBF0FBE2B
:1042B0008DBFADB7BEB7119682E3FE0101900D929E
:1042C0008A95E1F7C8010E94DC20EDB7FEB7F296AF
:1042D0000FB6F894FEBF0FBEEDBF70C02AEB32E000
:1042E00041E060E083E00E945C1A8DB79EB7C29700
:1042F0000FB6F8949EBF0FBE8DBFADB7BEB7119677
:1043000082E3FE01F29601900D928A95E1F7C801D1
:104310000E94DC20EDB7FEB7F2960FB6F894FEBF10
:104320000FBEEDBF4BC023EC32E041E060E083E024
:104330000E945C1AFE01EC59FF4F8DB79EB7C297E1
:104340000FB6F8949EBF0FBE8DBFADB7BEB7119626
:1043500082E301900D928A95E1F7C8010E94DC206A
:10436000EDB7FEB7F2960FB6F894FEBF0FBEEDBFE5
:1043700025C02CEC32E041E060E083E00E945C1A52
:10438000FE01EA56FF4F8DB79EB7C2970FB6F8945D
:104390009EBF0FBE8DBFADB7BEB7119682E3019031
:1043A0000D928A95E1F7C8010E94DC20EDB7FEB7B7
:1043B000F2960FB6F894FEBF0FBEEDBFDF91CF911E
:1043C0001F910F91089560E086E00E9411198EE917
:1043D0000E942C1960E087E00E9411198FE90E9469
:1043E0002C190895FB018081823051F065E086E050
:1043F0000E94111983EA0E942C1984EA0E942C1948
:104400000895AF92BF92CF92DF92EF92FF920F93F7
:104410001F93CF93DF93CDB7DEB72C970FB6F894E9
:10442000DEBF0FBECDBF898D9A8D8230910599F088
:104430001CF4019739F031C083309105C1F0049725
:1044400019F12BC0CC24C394A12C00E00F2EF3E073
:10445000DF2EF02D22C0CC24C3940F2EFBE0AF2E14
:10446000F02D00E00F2EF9E0DF2EF02D16C068943D
:10447000CC24C2F80F2EFBE0AF2EF02D03E00F2E60
:10448000F9E0DF2EF02D09C06894CC24C2F8A12CED
:1044900003E00F2EF3E0DF2EF02D89AD8823A9F184
:1044A00088AD8823C9F087EA90E09A83898388EAF7
:1044B00090E09C838B8389EA90E09E838D838AEAD7
:1044C00090E098878F838BEA90E09A8789878CEABF
:1044D00090E09C878B877CC08CE890E09A838983EE
:1044E0008DE890E09C838B838EE890E09E838D83A3
:1044F0008FE890E098878F8380E990E09A8789879A
:1045000081E990E09C878B8763C088AD8823C9F0E0
:1045100080E890E09A83898381E890E09C838B8394
:1045200082E890E09E838D8383E890E098878F8374
:1045300084E890E09A87898785E890E09C878B875C
:1045400047C086E890E09A83898387E890E09C835F
:104550008B8388E890E09E838D8389E890E098873C
:104560008F838AE890E09A8789878BE890E09C8720
:104570008B872EC0612F8D2D0E941119F70180812C
:104580000E942C19612F8B2D0E941119F701828135
:104590000E942C191F5FF4E0EF0EF11C1013EACFFC
:1045A000CE0149960E9444288B019C016894EE2418
:1045B000E1F8F12C41E06C2D8A2D0E94C01A61E0D7
:1045C0006C0D8A2D0E94111980EA0E942C1909C0D5
:1045D000102FCE0101967C010D5FBB24B394BD0C5E
:1045E000C9CF2C960FB6F894DEBF0FBECDBFDF91BA
:1045F000CF911F910F91FF90EF90DF90CF90BF90E0
:10460000AF9008950F931F93CF93DF938C01EB012D
:104610008DB79EB7C2970FB6F8949EBF0FBE8DBFE1
:10462000ADB7BEB7119682E3FB0101900D928A955A
:10463000E1F7C8010E9401228DB79EB7C2960FB65E
:10464000F8949EBF0FBE8DBFC2970FB6F8949EBF61
:104650000FBE8DBFADB7BEB7119682E3FE01F296D5
:1046600001900D928A95E1F7C8010E9401228DB751
:104670009EB7C2960FB6F8949EBF0FBE8DBFFE01C7
:10468000EC59FF4FC2970FB6F8949EBF0FBE8DBF77
:10469000ADB7BEB7119682E301900D928A95E1F70E
:1046A000C8010E9401228DB79EB7C2960FB6F8943A
:1046B0009EBF0FBE8DBFFE01EA56FF4FC2970FB6D9
:1046C000F8949EBF0FBE8DBFADB7BEB7119682E303
:1046D00001900D928A95E1F7C8010E9401228DB7E1
:1046E0009EB7C2960FB6F8949EBF0FBE8DBFDF91E6
:1046F000CF911F910F910895FB0180818230E9F4E1
:1047000062E086E00E94111986E90E942C1962E09D
:1047100087E00E94111987E90E942C1963E086E066
:104720000E94111988E90E942C1963E087E00E9419
:10473000111989E90E942C19089562E086E00E940F
:10474000111982E90E942C1962E087E00E94111978
:1047500083E90E942C1963E086E00E94111984E924
:104760000E942C1963E087E00E94111985E90E94DC
:104770002C190895DB011796EC918E2F90E0813172
:10478000910508F08CC0FC01E15BFF4F0C94742D87
:1047900061E080E00E9411198BE90E942C190895B4
:1047A00062E080E00E9411198BE90E942C190895A3
:1047B00063E080E00E9411198BE90E942C19089592
:1047C00064E080E00E9411198BE90E942C19089581
:1047D00061E080E00E9411198BE90E942C19089574
:1047E00062E080E00E9411198BE90E942C19089563
:1047F00064E080E00E9411198BE90E942C19089551
:1048000063E080E00E9411198BE90E942C19089541
:1048100061E080E00E9411198BE90E942C19089533
:1048200062E080E00E9411198BE90E942C19089522
:1048300063E080E00E9411198BE90E942C19089511
:1048400064E080E00E9411198BE90E942C19089500
:1048500061E080E00E9411198BE90E942C190895F3
:1048600062E080E00E9411198BE90E942C190895E2
:1048700063E080E00E9411198BE90E942C190895D1
:1048800064E080E00E9411198BE90E942C190895C0
:1048900065E080E00E9411198BE90E942C190895AF
:1048A0000F931F93CF93DF93EC018B010E94EF1CBA
:1048B000B801CE010E94BA23DF91CF911F910F91D1
:1048C0000895EF92FF920F931F93CF93DF93FB0115
:1048D0008081823011F080E016C0EB01CB010E9494
:1048E000D10B8B019C016894EE24E1F8F12C41E09E
:1048F00061E085E00E94A31A64E085E00E9411193E
:1049000089810E945619DF91CF911F910F91FF90DD
:10491000EF90089561E085E00E9411198AE90E94F4
:104920002C1964E085E00E9411198AE90E942C1973
:1049300061E088E00E9411198BE90E942C1964E063
:1049400088E00E9411198BE90E942C1908959C019E
:10495000DB019C91923011F480E00895DB01179601
:10496000EC914E2F50E04830510508F049C0C90184
:10497000FA01E05AFF4F0C94742D61E086E00E942A
:1049800011198CE90E942C198DE90E942C1938C04C
:1049900061E086E00E94111985EA0E942C1986EADE
:1049A0000E942C192DC064E086E00E94111985EA4E
:1049B0000E942C1986EA0E942C1922C061E085E031
:1049C0000E9411198AE90E942C191AC064E085E03E
:1049D0000E9411198AE90E942C1912C061E088E036
:1049E0000E9411198BE90E942C190AC064E088E02A
:1049F0000E9411198BE90E942C1902C00E948A247E
:104A00000895EF92FF920F931F93CF93DF93EC01E2
:104A10008B017A010E94E321B801CE010E94F221AC
:104A2000B701CE010E940223B801CE010E947C236F
:104A3000B801CE010E94A724B801CE010E946124D2
:104A4000DF91CF911F910F91FF90EF90089525ED89
:104A500032E041E062E082E00E945C1A089522EEBA
:104A600032E041E060E083E00E945C1A2BEE32E02D
:104A700041E061E081E00E945C1A20E233E041E025
:104A800065E081E00E945C1A08952BE233E041E08A
:104A900060E084E00E945C1A22E333E041E061E0E0
:104AA00080E00E945C1A2FE333E041E062E080E0A6
:104AB0000E945C1A2EE433E041E063E080E00E9453
:104AC0005C1A25E533E041E065E082E00E945C1A73
:104AD000089520E633E041E062E083E00E945C1A42
:104AE00029E633E041E063E083E00E945C1A089528
:104AF00023E733E041E062E083E00E945C1A2EE7A6
:104B000033E041E063E082E00E945C1A0895FB011B
:104B1000E656FF4F2081318122303105A9F03CF467
:104B20002115310559F02130310559F00895233010
:104B3000310569F02039314069F008950E94272538
:104B400008950E942F2508950E94452508950E94EA
:104B5000692508950E9478250895EF92FF920F939A
:104B60001F93CF93DF937C01EB018A01FA01E95196
:104B7000FF4F8081882351F0108288E0888382E093
:104B800090E0FB01E656FF4F91838083F801E851E6
:104B9000FF4F8081882351F0108288E0888380E96C
:104BA00091E0FE01E656FF4F918380830E949618A4
:104BB000E8818E2F90E089309105D0F5FC01E8590D
:104BC000FF4F0C94742DA801BE01C7010E9401255E
:104BD0002FC0A801BE01C7010E94012529C0A8015C
:104BE000BE01C7010E94502423C0A801BE01C70115
:104BF0000E948E1D1DC0A801BE01C7010E94781E23
:104C000017C0A801BE01C7010E94091F11C0A80159
:104C1000BE01C7010E94AB1F0BC0A801BE01C701A6
:104C20000E94352105C0A801BE01C7010E94872549
:104C30000E94AB18DF91CF911F910F91FF90EF90E1
:104C40000895CF93DF93EC010E94340ECE010796B6
:104C50000E94340ECE010E960E94340ECE0145966F
:104C60000E94340ECE014C960E94340ECE018396E3
:104C70000E94340ECE018A960E94340EDF91CF91AD
:104C80000895CF93DF93EC0140E050E064E40E948C
:104C9000350E41E050E064E4CE0107960E94350EE7
:104CA00042E050E064E4CE010E960E94350E43E0EF
:104CB00050E064E4CE0145960E94350E44E050E099
:104CC00064E4CE014C960E94350E45E050E064E469
:104CD000CE0183960E94350E46E050E064E4CE019A
:104CE0008A960E94350EDF91CF9108950F931F93FE
:104CF000CF93DF93EC018B010E960E94730E81110E
:104D00002CC0B801CE0145960E94730E811128C0B7
:104D1000B801CE014C960E94730E811124C0B801D7
:104D2000CE018A960E94730E811120C0B801CE0177
:104D300083960E94730E81111CC0B801CE010E949F
:104D4000730E811119C0B801CE0107960E94730E2F
:104D5000811115C08FEF9FEF14C080E090E011C06B
:104D600081E090E00EC082E090E00BC084E090E033
:104D700008C083E090E005C085E090E002C086E0D6
:104D800090E0DF91CF911F910F9108950895ECE786
:104D9000F0E0808181648083EAE7F0E080818F68C1
:104DA00080830895FC01ACE7B0E08C918E7F8C93FA
:104DB0008C918D7F8C938C918B7F8C938C91877F42
:104DC0008C936330710551F06430710569F0623085
:104DD000710579F48C9181608C930BC0ACE7B0E0E5
:104DE0008C9182608C9305C0ACE7B0E08C918360BD
:104DF0008C93AAE7B0E08C9180648C93108281E060
:104E000040E09C91282F392F307194FF242F20836C
:104E10003323B9F3609178007091790080E090E0DD
:104E20000E943C2C2BE43CE340EA5BE30E94F32C21
:104E300008958093BB0084E88093BC00ECEBF0E025
:104E400080818823ECF79091B900987F983129F000
:104E500081E0983219F480E0089580E00895CF93BE
:104E600094EA9093BC00ECEBF0E090819923ECF78E
:104E70009091B900987F983011F0903161F4C62F6D
:104E80000E941927813039F08C2F0E94192794E94C
:104E90009093BC0004C084E98093BC0081E0CF9172
:104EA0000895089587E28093B80060E08EE70E943D
:104EB0002F270895AF92BF92CF92DF92EF92FF9289
:104EC0000F931F93CF93DF93EC01161617060CF088
:104ED00071C091E00130110509F090E00230110538
:104EE00009F4926081E0E816F10411F4946005C0C1
:104EF00082E0E816F10409F4986081E0C816D10454
:104F000011F4906105C082E0C816D10409F49062E2
:104F100069017A018B0181E0A816B10419F4692FA7
:104F2000606406C082E0A816B104E9F5692F6068E4
:104F30008EE70E942F27198218828FE99FE0019740
:104F4000F1F700C0000088819981019699838883D8
:104F50008017910794F360E08EE70E942F27198253
:104F6000188220E030E0A901C701B6010E94EE2CB2
:104F7000181604F58FE99FE00197F1F700C00000D3
:104F8000688179816F5F7F4F79836883072E000C7A
:104F9000880B990B0E943E2CA70196010E948F2B33
:104FA000882344F307C0692F8EE70E942F271982B8
:104FB0001882C3CFDF91CF911F910F91FF90EF9097
:104FC000DF90CF90BF90AF900895EF92FF920F9334
:104FD0001F93CF93DF93F901161617060CF049C003
:104FE00031E04130510509F030E04230510509F41B
:104FF0003260E130F10511F4346003C0329709F4F6
:1050000038600130110511F4306104C0023011051F
:1050100009F430628B01EC0181E0E816F10419F427
:10502000632F606406C092E0E916F104D9F4632F9F
:1050300060688EE70E942F27198218828FE99FE00F
:105040000197F1F700C00000288139812F5F3F4FA1
:1050500039832883201731078CF360E08EE70E94A4
:105060002F2707C0632F8EE70E942F2719821882EF
:10507000E5CFDF91CF911F910F91FF90EF900895B1
:105080008B960E94C6260895CF93DF93EC0168812A
:1050900079818B960E94D2266A837B838C839D8341
:1050A000DF91CF9108950F931F93CF93DF93EC017E
:1050B0008B018B960E94C7261983088380E090E0BD
:1050C000A0EAB0E48E839F83A887B9878AE097ED32
:1050D000A3E2BCE38A879B87AC87BD87CE010E9491
:1050E00044286B8B7C8B8D8B9E8B1EA21DA21CA2D9
:1050F0001BA2DF91CF911F910F910895CF93DF9362
:10510000EC010E9444288A819B81AC81BD818B8FF8
:105110009C8FAD8FBE8F1AA619A6DF91CF910895EF
:10512000FC01878D882361F080A1811109C08281F3
:105130009381A481B58186879787A08BB18B0895D1
:1051400080E008954F925F926F927F928F929F922C
:10515000AF92BF92CF92DF92EF92FF920F931F9385
:10516000CF93DF93FC01278D222309F498C020A15F
:10517000211198C06A017B01EC010E9444284B0177
:105180005C016A837B838C839D8320E030E0A901EE
:105190006B8D7C8D8D8D9E8D0E948F2B811108C013
:1051A0008AE097EDA3E2BCE38B8F9C8FAD8FBE8F1F
:1051B00020E030E046E953E46B8D7C8D8D8D9E8D33
:1051C0000E94F32C2B013C0120E030E046E953E43F
:1051D000C501B4010E94F32C9B01AC01C301B201D3
:1051E0000E94222B6CA77DA78EA79FA70E94062C4A
:1051F0004B015C0178A76FA379AB68AB19A2072EAE
:10520000000C880B990B0E943E2C2B013C0120E0E6
:1052100030E046E953E4C701B6010E94F32C6B016C
:105220007C019B01AC0160E070E0CB010E94222B6D
:105230009B01AC01C301B2010E948F2B88237CF437
:1052400091948194910898A68FA289A59AA5881611
:1052500099065CF598A78FA382E090E02BC020E030
:1052600030E0A901C701B6010E94232B9B01AC01CC
:10527000C301B2010E94EE2C181654F489A59AA518
:1052800088169906ACF498A78FA381E090E012C02D
:1052900018A61FA281E089A380E090E00BC080E007
:1052A00090E008C080E090E005C082E090E002C09D
:1052B00081E090E0DF91CF911F910F91FF90EF90EF
:1052C000DF90CF90BF90AF909F908F907F906F9026
:1052D0005F904F900895CF92DF92EF92FF920F93DD
:1052E0001F93CF93FC01C78DCC23F9F020A121118E
:1052F00019C031A1311118C08C01C684D784E0884F
:10530000F1880E9444289B01AC01C701B6010E94AC
:105310008F2B81110AC0F80181A592A5019692A751
:1053200081A703C0C0E001C0C22F8C2FCF911F9175
:105330000F91FF90EF90DF90CF900895FC0112A69F
:1053400011A60895CF93DF93EC018A819B81AC81F4
:10535000BD818F8B988FA98FBA8FCE010E94442870
:105360006A837B838C839D832F89388D498D5A8DE9
:105370000E948F2B811108C081E088A381E090E01A
:105380009CA38BA380E002C018A281E0DF91CF91A3
:105390000895FC0182A1811114C080A1811111C066
:1053A00025A136A12F5F3F4F36A325A362177307B0
:1053B0005CF481E080A383E090E094A383A381E088
:1053C000089516A215A280E00895CF92DF92EF9281
:1053D000FF92CF93DF93EC01CE80DF80E884F984E5
:1053E000A70196016B8D7C8D8D8D9E8D0E94EE2C7C
:1053F000882324F0CB8EDC8EED8EFE8ECA84DB8477
:10540000EC84FD84A70196016B8D7C8D8D8D9E8D26
:105410000E948F2B181624F0CB8EDC8EED8EFE8E24
:10542000DF91CF91FF90EF90DF90CF900895CF92D2
:10543000DF92EF92FF92CF93DF93EC01CB88DC8871
:10544000ED88FE880E9444289B01AC01C701B6018B
:105450000E948F2B882359F08A819B81AC81BD816A
:105460008B8B9C8BAD8BBE8B81E08AA302C01AA272
:1054700080E0DF91CF91FF90EF90DF90CF90089583
:10548000FC01878D91E09827978F0895CF92DF9246
:10549000EF92FF921F93CF93DF93EC011F8D1123A7
:1054A000E1F0CB01BA012B8D3C8D4D8D5E8D0E94BC
:1054B000232B6B8F7C8F8D8F9E8FCE80DF80E88437
:1054C000F984A70196010E94EE2C181634F4CB8EB5
:1054D000DC8EED8EFE8E81E08A8B812FDF91CF9165
:1054E0001F91FF90EF90DF90CF900895CF92DF92C1
:1054F000EF92FF921F93CF93DF93FC01178D11233F
:10550000E9F09A01AB01EC01638D748D858D968D68
:105510000E94222B6B8F7C8F8D8F9E8FCA84DB84A1
:10552000EC84FD84A70196010E948F2B882334F41C
:10553000CB8EDC8EED8EFE8E81E08A8B812FDF910B
:10554000CF911F91FF90EF90DF90CF900895FC01D5
:10555000878D811180A10895FC0180A1811101C076
:10556000878D0895EF92FF920F931F93CF93DF9350
:10557000FC0100A1011123C0178D112319F1EC01C9
:1055800020E030E048EC52E46281738184819581AF
:105590000E94F32C0E94062C7B0120E030E048ECB6
:1055A00052E46A857B858C859D850E94F32C0E9440
:1055B000062C6E157F052CF081E08A8B03C010E06D
:1055C00001C0102F812FDF91CF911F910F91FF907C
:1055D000EF900895EF92FF920F931F93CF93DF9375
:1055E000FC0100A1011123C0178D112319F1EC0159
:1055F00020E030E048EC52E462817381848195813F
:105600000E94F32C0E94062C7B0120E030E048EC45
:1056100052E46E817F81888599850E94F32C0E94D7
:10562000062CE616F7062CF081E08A8B03C010E00A
:1056300001C0102F812FDF91CF911F910F91FF900B
:10564000EF9008955058BB27AA270E943A2B0C943C
:10565000B42C0E94A62C38F00E94AD2C20F039F416
:105660009F3F19F426F40C94A32C0EF4E095E7FB6D
:105670000C949D2CE92F0E94C52C58F3BA17620791
:1056800073078407950720F079F4A6F50C94E72CAE
:105690000EF4E0950B2EBA2FA02D0B01B90190014D
:1056A0000C01CA01A0011124FF27591B99F0593F91
:1056B00050F4503E68F11A16F040A22F232F342FD9
:1056C0004427585FF3CF469537952795A795F04027
:1056D0005395C9F77EF41F16BA0B620B730B840B3C
:1056E000BAF09150A1F0FF0FBB1F661F771F881FF4
:1056F000C2F70EC0BA0F621F731F841F48F487954C
:1057000077956795B795F7959E3F08F0B0CF93953D
:10571000880F08F09927EE0F9795879508950E94B6
:10572000792C08F481E008950E94A82B0C94B42CE5
:105730000E94AD2C58F00E94A62C40F029F45F3F47
:1057400029F00C949D2C51110C94E82C0C94A32C52
:105750000E94C52C68F39923B1F3552391F3951B4F
:10576000550BBB27AA2762177307840738F09F5F82
:105770005F4F220F331F441FAA1FA9F335D00E2EEF
:105780003AF0E0E832D091505040E695001CCAF75C
:105790002BD0FE2F29D0660F771F881FBB1F26171F
:1057A00037074807AB07B0E809F0BB0B802DBF01F6
:1057B000FF2793585F4F3AF09E3F510578F00C94C5
:1057C0009D2C0C94E82C5F3FE4F3983ED4F386952F
:1057D00077956795B795F7959F5FC9F7880F911DE6
:1057E0009695879597F90895E1E0660F771F881FD2
:1057F000BB1F621773078407BA0720F0621B730B85
:10580000840BBA0BEE1F88F7E09508950E940D2CCB
:105810006894B1110C94E82C08950E94CD2C88F066
:105820009F5798F0B92F9927B751B0F0E1F0660F64
:10583000771F881F991F1AF0BA95C9F714C0B130A5
:1058400091F00E94E72CB1E008950C94E72C672FAB
:10585000782F8827B85F39F0B93FCCF386957795D4
:105860006795B395D9F73EF49095809570956195BD
:105870007F4F8F4F9F4F0895E89409C097FB3EF4E8
:1058800090958095709561957F4F8F4F9F4F99238D
:10589000A9F0F92F96E9BB279395F695879577950B
:1058A0006795B795F111F8CFFAF4BB0F11F460FFCB
:1058B0001BC06F5F7F4F8F4F9F4F16C0882311F023
:1058C00096E911C0772321F09EE8872F762F05C037
:1058D000662371F096E8862F70E060E02AF09A95D2
:1058E000660F771F881FDAF7880F9695879597F9C7
:1058F0000895990F0008550FAA0BE0E8FEEF161661
:105900001706E807F907C0F012161306E407F507B3
:1059100098F0621B730B840B950B39F40A2661F027
:10592000232B242B252B21F408950A2609F4A140CA
:10593000A6958FEF811D811D089597F99F6780E8D7
:1059400070E060E008959FEF80EC089500240A94D1
:105950001616170618060906089500240A9412164A
:105960001306140605060895092E0394000C11F47D
:10597000882352F0BB0F40F4BF2B11F460FF04C02A
:105980006F5F7F4F8F4F9F4F089557FD9058440F83
:10599000551F59F05F3F71F04795880F97FB991F8E
:1059A00061F09F3F79F0879508951216130614064B
:1059B000551FF2CF4695F1DF08C0161617061806D8
:1059C000991FF1CF86957105610508940895E894B3
:1059D000BB2766277727CB0197F908950E94792C7A
:1059E00008F48FEF08950E94062D0C94B42C0E94A9
:1059F000A62C38F00E94AD2C20F0952311F00C94C9
:105A00009D2C0C94A32C11240C94E82C0E94C52CE2
:105A100070F3959FC1F3950F50E0551F629FF00101
:105A2000729FBB27F00DB11D639FAA27F00DB11D1A
:105A3000AA1F649F6627B00DA11D661F829F2227A3
:105A4000B00DA11D621F739FB00DA11D621F839F2A
:105A5000A00D611D221F749F3327A00D611D231F00
:105A6000849F600D211D822F762F6A2F11249F574E
:105A700050409AF0F1F088234AF0EE0FFF1FBB1F51
:105A8000661F771F881F91505040A9F79E3F510510
:105A900080F00C949D2C0C94E82C5F3FE4F3983E2E
:105AA000D4F3869577956795B795F795E7959F5FBA
:105AB000C1F7FE2B880F911D9695879597F908954C
:105AC00097FB072E16F4009407D077FD09D00E94AB
:105AD0007A2D07FC05D03EF4909581959F4F08954F
