:100000000C94C9010C94F1010C94F1010C94F101D0
:100010000C94F1010C94F1010C94F1010C94F10198
:100020000C94F1010C94F1010C94F1010C94F10188
:100030000C94F1010C94F1010C94F1010C94F10178
:100040000C94F1010C94F1010C94F1010C94F10168
:100050000C94F1010C94F1010C94F1010C94F10158
:100060000C94F1010C94F101000000000000005F0D
:1000700000000007000700147F147F14242A7F2A41
:10008000124C2C10686436495522500005030000BC
:10009000001C2241000041221C0014083E081408E4
:1000A000083E0808000050300010101010100060CA
:1000B00060000020100804023E5149453E00427F86
:1000C000400042615149462141454B311814127F8D
:1000D0001027454545393C4A494930017109050316
:1000E0003649494936064949291E0036360000007E
:1000F0005636000008142241001414141414004150
:100100002214080201510906324979413E7E11113B
:10011000117E7F494949363E414141227F4141227A
:100120001C7F494949417F090909013E4149497AF2
:100130007F0808087F00417F41002040413F017F48
:10014000081422417F404040407F020C027F7F0420
:1001500008107F3E4141413E7F090909063E415159
:10016000215E7F09192946464949493101017F012C
:10017000013F4040403F1F2040201F3F4038403F4C
:100180006314081463070870080761514945430068
:100190007F41410002040810200041417F00040219
:1001A0000102044040404040000102040020545439
:1001B00054787F48444438384444442038444448C0
:1001C0007F3854545418087E0901020C5252523E92
:1001D0007F0804047800447D40002040443D007FB7
:1001E0001028440000417F40007C041804787C08FB
:1001F00004047838444444387C1414140808141453
:10020000187C7C080404084854545420043F44409B
:10021000203C4040207C1C2040201C3C4030403C86
:1002200044281028440C5050503C4464544C440022
:100230000836410000007F00000041360800080435
:10024000081008FFFFFFFFFF7C1211127C7F494955
:1002500049317F494949367F01010101603F213F12
:10026000607F4949494177087F08772241494936EB
:100270007F1008047F7E1009047E7F08142241400D
:100280003E01017F7F020C027F7F0808087F3E410C
:1002900041413E7F0101017F7F090909063E41413D
:1002A000412201017F0101074848483F0E117F119B
:1002B0000E63140814633F20203F60070808087F7E
:1002C0007F407E407F3F203F207F017F4848307F36
:1002D0004830007F007F484830224149493E7F082E
:1002E0003E413E462919097F20545454783C4A4ADD
:1002F0004A317C545428007C04040C00603C243CAB
:100300006038545454186C107C106C0044545428B9
:100310007C2010087C7C2112097C7C102844004041
:100320003804047C7C0810087C7C1010107C384455
:100330004444387C0404047C7C1414140838444479
:10034000440004047C04040C5050503C08147C14F9
:100350000844281028443C20203C600C1010107CDD
:100360007C407C407C3C203C207C047C5050207CA9
:100370005020007C007C50502028445454387C107D
:10038000384438485434147CCFCFE8E2E5F22100F9
:100390006F0511241FBECFEFD8E0DEBFCDBF11E047
:1003A000A0E0B1E0E6EBFEE002C005900D92A630C1
:1003B000B107D9F723E0A6E0B1E001C01D92A53353
:1003C000B207E1F711E0C9ECD1E004C02197FE01CA
:1003D0000E945307C83CD107C9F70E946A050C94D4
:1003E00059070C9400000895FC01608341835283F7
:1003F0006334A1F0643411F1623479F524B181E001
:1004000090E002C0880F991F4A95E2F7982F9095C7
:10041000922394B995B1892B85B9089527B181E0CC
:1004200090E002C0880F991F4A95E2F7982F9095A7
:10043000922397B998B1892B88B908952AB181E0A0
:1004400090E002C0880F991F4A95E2F7982F909587
:1004500092239AB99BB1892B8BB908952A98613060
:1004600011F4299A01C029988EBD0DB407FEFDCF65
:100470002A9A0895CF92DF92EF92FF920F931F93E3
:10048000CF93DF936B017C01EA01CA0101972097AA
:1004900081F061E070E09B01220F331F660F771F30
:1004A000660F771F660F771F620F731F019798F70C
:1004B00002C061E070E0072E000C880B990B0E94CF
:1004C0003206A70196010E9496060E94FA05AB012A
:1004D000BC01CA0199231CF021E030E002C02FEFDB
:1004E0003FEF249FC001259F900D349F900D112454
:1004F00005E111E00F2EFAE0EF2EF12CF02D0F2E7A
:10050000FEE2DF2EF02D02C08F01EA01F801B701F3
:100510000E942B07805D8293862F972FAE0141505A
:10052000510919F4F8013297D082009769F714162F
:100530001506D4F4BE0162507109DF0140E3219732
:10054000CE1BDF0B4E93CD018C0F9D1F1816190685
:10055000CCF3CB01992314F480E090E08095909542
:10056000E80FF91F8EE2829380818E3211F480E3CE
:100570008293332314F48DE28293CF01DF91CF91E4
:100580001F910F91FF90EF90DF90CF9008952C9ADC
:1005900084B18E6384B92C982C9A80E58CBD2A9AFC
:1005A00060E081E20E942E0260E088EC0E942E0250
:1005B00060E086E00E942E0260E083E10E942E024D
:1005C00060E080E20E942E0260E08CE00E942E0239
:1005D000089588EF91E0ECE1F1E0DF019C011D92CC
:1005E00021503040E1F710921B0110921A0187EF61
:1005F00091E090931901809318010895EF92FF9272
:100600000F931F93CF93DF9380911A0190911B0159
:1006100099232CF410921B0110921A0109C0883FF3
:10062000914034F087EF91E090931B0180931A0181
:10063000809118019091190199232CF410921901BD
:100640001092180109C0883F914034F087EF91E083
:100650009093190180931801C0911A01D0911B0148
:10066000CE0164E570E00E942B07162F60E08068E1
:100670000E942E0260E0812F80640E942E02E09092
:100680001801F0901901EC16FD066CF08E01045E65
:100690001E4F61E0F80181918F010E942E02219688
:1006A000EC16FD06B4F787EF91E090931B01809361
:1006B0001A011092190110921801DF91CF911F9128
:1006C0000F91FF90EF9008958E30A8F46630A8F453
:1006D00090E09C01220F331F820F931F880F991FF8
:1006E00024E5629F800D911D112490931701809342
:1006F000160180E0089581E0089581E008950F9348
:100700001F93CF93DF9340911601509117012091D1
:100710001A0130911B014217530724F450931B0117
:1007200040931A01E0EEE60FE03608F4A1C0603C09
:1007300008F49DC0E0EAE60F9BC08491880F8D937A
:100740003196A217B307C9F74B5F5F4F509317015C
:100750004093160166C0823009F063C0CA01845517
:10076000910920911A0130911B01821793070CF017
:1007700093C090931B0180931A018EC02491220F85
:10078000822F8270982F990F890F982F990F822F9F
:100790008470382F330F830F880F880F892B022F17
:1007A0000870019F002D1124082B30E03595279506
:1007B000359527953595279535952795922F9270E4
:1007C000892F880F980F892F880F922F9170392FBA
:1007D000330F930F982B822F8470382F330F830F92
:1007E000880F880F892B922F9870919F902D11243C
:1007F000282F292B088309832C9311962C9311976A
:10080000319622961296A617B70709F0B7CFCA01FC
:100810000B9668EF71E00E942B079093170180936D
:1008200016018091160190911701209118013091C5
:1008300019012817390724F490931901809318019E
:10084000FC01E45EFE4F1082873F21E0920731F405
:10085000109217011092160182E035C00196909314
:1008600017018093160180E02EC081E02CC0EFE5D7
:10087000813009F070CFF0E0CF01880F991F880F09
:10088000991FE80FF91FE859FF4FDA01A45EBE4F28
:100890009A012F5D3E4F51CF99233CF3F0E0CF01F9
:1008A000880F991F880F991FE80FF91FE859FF4F0C
:1008B000EA01C853DF4FDA01A45EBE4FBA016A5D98
:1008C0007E4F18E15BCFDF91CF911F910F9108957B
:1008D0000F931F93CF93DF93D42F89010E9464035A
:1008E000F8016081662379F0C0E08D2F0E947F03BC
:1008F000813041F0CF5FF801EC0FF11D6081611193
:10090000F4CF01C061E0862FDF91CF911F910F914D
:1009100008951F93CF93DF93142FE9010E9464037E
:10092000FE016491662361F0812F0E947F03813074
:1009300049F02196FE0164916111F6CF80E003C079
:1009400080E001C081E0DF91CF911F910895DF9297
:10095000EF92FF920F931F93CF93DF93C82FD62F61
:10096000D42EA701C901B8010E943A029C014D2D65
:100970006D2F8C2F0E946804DF91CF911F910F91F2
:10098000FF90EF90DF900895EF92FF920F931F93E7
:10099000CF93DF9300D000D000D0CDB7DEB786E094
:1009A000E0E0F1E0DE01119601900D928A95E1F709
:1009B0000E94E90228E833E041E060E080E00E9424
:1009C00089049E012F5F3F4F41E061E080E00E947B
:1009D00068046894EE24E1F8F12C08E411EE26E6B0
:1009E00031E441E062E080E00E94A7040E94FE0240
:1009F00026960FB6F894DEBF0FBECDBFDF91CF9124
:100A00001F910F91FF90EF9008958F929F92AF9258
:100A1000CF92DF92EF920F931F9342E050E064E495
:100A200082E393E00E94F40143E050E064E48FE24B
:100A300093E00E94F40144E050E064E48CE293E02F
:100A40000E94F40145E050E064E489E293E00E94F2
:100A5000F40146E050E064E486E293E00E94F40191
:100A60008090290390902A03A0902B03C0902C0320
:100A7000D0902D03E0902E0300912F0310913003AE
:100A8000209131034091320350913303609134033C
:100A9000809128038F93809127038F938091260361
:100AA0008F9387E193E00E94D00540E050E064E43A
:100AB00084E193E00E948D050E94C7020F900F9081
:100AC0000F901F910F91EF90DF90CF90AF909F907C
:100AD0008F9008950E9405050E94C404FFCF82E311
:100AE00093E00E94F3018FE293E00E94F3018CE215
:100AF00093E00E94F30189E293E00E94F30186E211
:100B000093E00E94F30187E193E00E94B80584E13D
:100B100093E00E948C0508950895FC016083418351
:100B20005283633479F06434C1F0623401F524B146
:100B300081E090E002C0880F991F4A95E2F7822B6E
:100B400084B9089527B181E090E002C0880F991F11
:100B50004A95E2F7822B87B908952AB181E090E0A7
:100B600002C0880F991F4A95E2F7822B8AB908952F
:100B7000CF93DF93EC010E94F301CE0103960E9414
:100B8000F301CE0106960E94F301CE0109960E9460
:100B9000F301CE010C960E94F301DF91CF910895ED
:100BA0008F929F92AF92CF92DF92EF920F931F930B
:100BB000CF93DF93CDB7DEB7FC01408351836283CF
:100BC000038314832583C682D782E0868D859E8524
:100BD000AF8584879587A68781869286A386DF91D5
:100BE000CF911F910F91EF90DF90CF90AF909F909A
:100BF0008F9008950E9401066894B1110C9490069C
:100C000008950E94750688F09F5798F0B92F99278C
:100C1000B751B0F0E1F0660F771F881F991F1AF0E7
:100C2000BA95C9F714C0B13091F00E948F06B1E0B7
:100C300008950C948F06672F782F8827B85F39F0B6
:100C4000B93FCCF3869577956795B395D9F73EF480
:100C500090958095709561957F4F8F4F9F4F089528
:100C6000E89409C097FB3EF4909580957095619546
:100C70007F4F8F4F9F4F9923A9F0F92F96E9BB27FC
:100C80009395F695879577956795B795F111F8CF78
:100C9000FAF4BB0F11F460FF1BC06F5F7F4F8F4FE3
:100CA0009F4F16C0882311F096E911C0772321F0D9
:100CB0009EE8872F762F05C0662371F096E8862F71
:100CC00070E060E02AF09A95660F771F881FDAF7C8
:100CD000880F9695879597F9089557FD9058440F7A
:100CE000551F59F05F3F71F04795880F97FB991F8B
:100CF00061F09F3F79F08795089512161306140648
:100D0000551FF2CF4695F1DF08C0161617061806D4
:100D1000991FF1CF86957105610508940895E894AF
:100D2000BB2766277727CB0197F908950E94A9066C
:100D30000C941A070E940C0738F00E94130720F049
:100D4000952311F00C9403070C94090711240C94BB
:100D500090060E946D0670F3959FC1F3950F50E0C9
:100D6000551F629FF001729FBB27F00DB11D639F5D
:100D7000AA27F00DB11DAA1F649F6627B00DA11D03
:100D8000661F829F2227B00DA11D621F739FB00DA9
:100D9000A11D621F839FA00D611D221F749F332719
:100DA000A00D611D231F849F600D211D822F762FB2
:100DB0006A2F11249F5750409AF0F1F088234AF08F
:100DC000EE0FFF1FBB1F661F771F881F91505040FB
:100DD000A9F79E3F510580F00C9403070C949006F0
:100DE0005F3FE4F3983ED4F3869577956795B79582
:100DF000F795E7959F5FC1F7FE2B880F911D96959C
:100E0000879597F9089597F99F6780E870E060E00B
:100E100008959FEF80EC089500240A941616170693
:100E200018060906089500240A94121613061406DB
:100E300005060895092E0394000C11F4882352F03E
:100E4000BB0F40F4BF2B11F460FF04C06F5F7F4FF6
:100E50008F4F9F4F089597FB072E16F4009407D0ED
:100E600077FD09D00E943F0707FC05D03EF490951E
:100E700081959F4F0895709561957F4F0895AA1BA6
:100E8000BB1B51E107C0AA1FBB1FA617B70710F075
:100E9000A61BB70B881F991F5A95A9F780959095A7
:100EA000BC01CD010895EE0FFF1F0590F491E02DD8
:060EB0000994F894FFCF45
:060EB60048656C6C6F0042
:00000001FF
