:100000000C9474030C949C030C949C030C949C031C
:100010000C949C030C949C030C949C030C949C03E4
:100020000C949C030C949C030C949C030C949C03D4
:100030000C949C030C949C030C949C030C949C03C4
:100040000C949C030C949C030C949C030C949C03B4
:100050000C949C030C949C030C949C030C949C03A4
:100060000C949C030C949C0313131B1323132B134A
:1000700033133B134B13431353135B1363136B1370
:10008000C0C0E0A0A0A090909090888888848484CC
:1000900084828282828181FFC0C0E0E0A0A0909033
:1000A000909088888884848484828282828181FF7F
:1000B000C0C0E0E0E0A0909090908888888484841C
:1000C00084828282828181FFC0C0E0E0E0E0F09023
:1000D000909088888884848484828282828181FF4F
:1000E000C0C0E0E0E0E0F0F09090888888848484EC
:1000F00084828282828181FFC0C0E0E0E0E0F0F093
:10010000F09088888884848484828282828181FFBE
:10011000C0C0E0E0E0E0F0F0F0F0888888848484FB
:1001200084828282828181FFC0C0E0E0E0E0F0F062
:10013000F0F0F8888884848484828282828181FFBE
:10014000C0C0E0E0E0E0F0F0F0F0F8F888848484EB
:1001500084828282828181FFC0C0E0E0E0E0F0F032
:10016000F0F0F8F8F884848484828282828181FFAE
:10017000C0C0E0E0E0E0F0F0F0F0F8F8F8FC8484D3
:1001800084828282828181FFC0C0E0E0E0E0F0F002
:10019000F0F0F8F8F8FCFC8484828282828181FF8E
:1001A000C0C0E0E0E0E0F0F0F0F0F8F8F8FCFCFCB3
:1001B00084828282828181FFC0C0E0E0E0E0F0F0D2
:1001C000F0F0F8F8F8FCFCFCFC828282828181FF6E
:1001D000C0C0E0E0E0E0F0F0F0F0F8F8F8FCFCFC83
:1001E000FCFE8282828181FFC0C0E0E0E0E0F0F0AE
:1001F000F0F0F8F8F8FCFCFCFCFEFE82828181FF46
:10020000C0C0E0E0E0E0F0F0F0F0F8F8F8FCFCFC52
:10021000FCFEFEFE828181FFC0C0E0E0E0E0F0F085
:10022000F0F0F8F8F8FCFCFCFCFEFEFEFE8181FF1D
:10023000C0C0E0E0E0E0F0F0F0F0F8F8F8FCFCFC22
:10024000FCFEFEFEFEFF81FFC0C0E0E0E0E0F0F05B
:10025000F0F0F8F8F8FCFCFCFCFEFEFEFEFFFFFFF1
:1002600000000000000000005F0000000007000721
:100270000000147F147F1400242A7F2A12004C2CC3
:100280001068640036495522500000050300000044
:10029000001C224100000041221C000014083E08FE
:1002A000140008083E08080000005030000010103C
:1002B0001010100000606000000020100804020010
:1002C0003E5149453E0000427F4000004261514995
:1002D00046002141454B31001814127F100027457C
:1002E000454539003C4A4949300001710905030080
:1002F000364949493600064949291E00003636006C
:1003000000000056360000000814224100001414BA
:1003100014141400004122140800020151090600BF
:10032000324979413E007E1111117E007F494949D1
:1003300036003E41414122007F4141221C007F495D
:10034000494941007F09090901003E4149497A00B4
:100350007F0808087F0000417F4100002040413FA6
:1003600001007F08142241007F40404040007F028E
:100370000C027F007F0408107F003E4141413E0097
:100380007F09090906003E4151215E007F091929B4
:10039000460046494949310001017F0101003F40C3
:1003A00040403F001F2040201F003F4038403F009A
:1003B0006314081463000708700807006151494579
:1003C0004300007F4141000002040810200000416A
:1003D000417F000004020102040040404040400010
:1003E0000001020400002054545478007F48444423
:1003F0003800384444442000384444487F0038548E
:1004000054541800087E090102000C5252523E005A
:100410007F080404780000447D4000002040443DF3
:1004200000007F102844000000417F4000007C0451
:10043000180478007C0804047800384444443800E8
:100440007C1414140800081414187C007C0804049C
:100450000800485454542000043F444020003C40CD
:1004600040207C001C2040201C003C4030403C00D0
:100470004428102844000C5050503C004464544C14
:10048000440000083641000000007F0000000041E9
:1004900036080000080408100800FFFFFFFFFF00F7
:1004A0000000E0F0F8F8F8F8F0E000000000FFFFCE
:1004B000FFFFFFFFFFFF00000000070F1F1F1F1FB0
:1004C0000F0700000000E0100808080810E0000016
:1004D0000000FF000000000000FF0000000007080F
:1004E00010101010080700004080E01008080808ED
:1004F00010E080400000FF422418182442FF000052
:1005000002010708101010100807010200006050D7
:1005100048444448506000000000060A122222129B
:100520000A06000000006070787C7C787060000033
:100530000000060E1E3E3E1E0E060000183C7EE722
:1005400000000000E77E3C1800002030381C1C38FA
:100550003020000000002A2A2A2A2A2A2A2A2A00D1
:100560000000000000037C1211127C007F49494901
:1005700031007F49494936007F0101010100603F98
:10058000213F60007F494949410077087F08770093
:100590002241494936007F1008047F007E1009047B
:1005A0007E007F0814224100403E01017F007F024F
:1005B0000C027F007F0808087F003E4141413E0059
:1005C0007F0101017F007F09090906003E41414189
:1005D000220001017F010100074848483F000E1139
:1005E0007F110E006314081463003F20203F600059
:1005F000070808087F007F407E407F003F203F20A3
:100600007F00017F484830007F4830007F00007F36
:1006100048483000224149493E007F083E413E00A3
:10062000462919097F002054545478003C4A4A4A0C
:1006300031007C54542800007C04040C0000603C11
:10064000243C60003854545418006C107C106C002A
:100650000044545428007C2010087C007C2112099E
:100660007C007C1028440000403804047C007C0896
:1006700010087C007C1010107C0038444444380082
:100680007C0404047C007C141414080038444444A2
:10069000000004047C0404000C5050503C0008147A
:1006A0007C1408004428102844003C20203C6000B2
:1006B0000C1010107C007C407C407C003C203C20D6
:1006C0007C00047C505020007C5020007C00007C8A
:1006D000505020002844545438007C1038443800CE
:1006E000485434147C004A1211241FBECFEFD8E0C6
:1006F000DEBFCDBF11E0A0E0B1E0EEE1F5E302C066
:1007000005900D92AC34B107D9F727E0ACE4B1E025
:1007100001C01D92AF35B207E1F713E0C4E7D3E0A3
:1007200004C02197FE010E94731AC337D107C9F78D
:100730000E94BA110C948D1A0C94000008956F92C7
:100740007F928F929F92AF92BF92CF92DF92EF9261
:10075000FF920F931F93CF93DF93FC01DC01AE5AFE
:10076000BF4F0F2EF9E0AF2EB12CF02DAD92BC9201
:100770008AE097EDA3E2BCE382839383A483B583ED
:100780008AE097EDA3EABCE386839783A087B187CD
:100790008FE892ECA5EFBCE382879387A487B587A7
:1007A0008AE097EDA3E2BDE386879787A08BB18BA4
:1007B0008DEC9CECACE4BDE3828B938BA48BB58B6E
:1007C0008FE892ECA5E7BDE3868B978BA08FB18F66
:1007D00089E29CE5AFE8BDE3828F938FA48FB58F4C
:1007E0008AE097EDA3EABDE3868F978FA0A3B1A31C
:1007F0008CEE91E5A8EBBDE382A393A3A4A3B5A3DC
:100800008DEC9CECACECBDE386A397A3A0A7B1A7AD
:100810008FE892ECA5EFBDE382A793A7A4A7B5A7A5
:100820008AE999E9A9E1BEE386A797A7A0ABB1AB96
:100830008DEC9CECACE4BEE382AB93ABA4ABB5AB6C
:100840008AE999E9A9E9BEE386AB97ABA0AFB1AF5E
:1008500080E090E0A0E0BFE382AF93AFA4AFB5AF7C
:10086000DF01DE9640E050E060E47FE34D935D936E
:100870006D937C931397149640E050E060E87FE31B
:100880004D935D936D937C931397149640E050E0E5
:1008900060EC7FE34D935D936D937C931397149677
:1008A00040E050E060E070E44D935D936D937C9385
:1008B0001397149640E050E060E470E44D935D932C
:1008C0006D937C931397169611961C921E9211822B
:1008D0001082189681E090E011969C938E93129668
:1008E0006894EE24E1F8F12C1196FC92EE921697A2
:1008F0002CE030E011963C932E931296C5E0D0E0A8
:100900001196DC93CE93149711963C932E935296A6
:1009100011969C938E93129611961C921E92169786
:1009200011969C938E93129644E050E011965C933E
:100930004E9314976AE070E011967C936E939A96AA
:1009400011965C934E9312961196DC93CE93169764
:1009500011969C938E93129611965C934E931497D6
:1009600011967C936E93529611965C934E931296C9
:1009700003E010E011961C930E93169711961C92AB
:100980001E9212961196DC93CE9314970F2EFBE0D5
:100990008F2E912CF02D11969C928E92529711963B
:1009A000DC93CE93129611961C930E931697119684
:1009B000FC92EE92129611961C930E931497119638
:1009C0007C936E93169711961C921E921296119616
:1009D000FC92EE9216971196FC92EE921296119658
:1009E0001C930E93149711967C936E93D6962DE0DC
:1009F00030E011963C932E93129611965C934E9391
:100A0000169711961C921E92129611969C938E9395
:100A1000149711965C934E9350962D933C936F01CF
:100A2000A0EBCA0ED11C6894662463F8712CD60121
:100A30006D927C926F01BAEACB0ED11CD6011D9249
:100A40001C926F01BCEACB0ED11CD601ED92FC9238
:100A50006F01B8EACB0ED11CD6016D927C926F016A
:100A6000B8EBCB0ED11CD6012D933C936F01BAEBA2
:100A7000CB0ED11CD6016D927C926F01B4EBCB0EE4
:100A8000D11CD6018D939C936F01B6EBCB0ED11C7C
:100A9000D6010D931C936F01B2EBCB0ED11CD60186
:100AA0006D927C926F01B2ECCB0ED11CD6012D93CE
:100AB0003C936F01B4ECCB0ED11CD6012D933C932B
:100AC0006F01BEEBCB0ED11CD601ED92FC927F01E3
:100AD000B0ECEB0EF11CD7010D931C938F01045465
:100AE0001F4FD8012D933C93005F1F4FD8011D92DB
:100AF0001C927F01BEECEB0EF11C0EE010E0D70162
:100B00000D931C937F01B8ECEB0EF11CD7014D93B4
:100B10005C937F01BAECEB0EF11CD701CD93DC9313
:100B20007F01B6ECEB0EF11CD7010D931C937F01F6
:100B3000B6EDEB0EF11CD7011D921C927F01B8EDB2
:100B4000EB0EF11CD7010D931C937F01B2EDEB0E60
:100B5000F11CD7014D935C93AF014C525F4F0F2EA8
:100B6000F6E0EF2EF12CF02DDA01ED92FC924450DC
:100B70005109DA010D931C93405F5F4FDA011D921A
:100B80001C928F010E511F4F4FE050E0D8014D9342
:100B90005C9306501109D8011196DC93CE93EF01B6
:100BA000C252DF4F07E010E019830883249759836E
:100BB0004883609619821882229639832883269763
:100BC000F982E8822296198308832497398328833F
:100BD000609699838883229640E150E05983488348
:100BE0002697798268822296B982A88224975983AF
:100BF0004883609699838883229641E150E0598327
:100C00004883269779826882909611967C936E939A
:100C1000149711965C934E93509611969C938E93D5
:100C2000129642E150E011965C934E9316971196FE
:100C3000BC92AE92129611969C928E921497119637
:100C40005C934E93509611969C938E9312961196A8
:100C50003C932E93169711967C936E9312968D92D9
:100C60009C92E45FFE4F31832083DF91CF911F91EF
:100C70000F91FF90EF90DF90CF90BF90AF909F903B
:100C80008F907F906F9008956F927F928F929F9236
:100C9000AF92BF92CF92DF92EF92FF920F931F938A
:100CA000CF93DF93CDB7DEB72F970FB6F894DEBFA3
:100CB0000FBECDBF3C0189829A82AB82BC82CD82BD
:100CC000DE82EF82F88609871A872B873C874D875B
:100CD0005E876F876AE070E0CE0101960E946B1616
:100CE0008F3F2FEF920751F1F301EC5AFF4F019024
:100CF000F081E02D9F01220F331F220F331FE20FDF
:100D0000F31FE80FF91FE15BFF4FEE0FFF1FE60D2A
:100D1000F71D808191818D30910549F4F301118295
:100D20001082EC5AFF4F1182108281E008C0F3015B
:100D3000EC5AFF4F9183808381E001C080E02F96C1
:100D40000FB6F894DEBF0FBECDBFDF91CF911F91DC
:100D50000F91FF90EF90DF90CF90BF90AF909F905A
:100D60008F907F906F9008958C5A9F4FFC018081E7
:100D700091818230910571F01CF4019739F008954A
:100D80008330910561F0049779F00895CB010E94BA
:100D90005E180895CB014A960E945E180895CB0113
:100DA000C4960E945E180895CB01825B9F4F0E94FB
:100DB0005E1808956F927F928F929F92AF92BF922A
:100DC000CF92DF92EF92FF920F931F93CF93DF9317
:100DD000CDB7DEB72F970FB6F894DEBF0FBECDBFED
:100DE0003C0189829A82AB82BC82CD82DE82EF8214
:100DF000F88609871A872B873C874D875E876F8720
:100E00006AE070E0CE0101960E946B168F3F2FEFD3
:100E1000920709F442C0F301EC5AFF4F0190F081B0
:100E2000E02D9F01220F331FE20FF31FEE0FFF1F74
:100E3000E80FF91FBB96EE0FFF1FE60DF71D80812F
:100E400091818B30910569F08C309105A9F08A3041
:100E50009105E1F468A179A1C3010E94B40681E083
:100E60001DC082E090E0F3019183808388A199A165
:100E70000E94510981E012C081E090E0F30191836A
:100E80008083EC5AFF4F1182108208C0F301EC5AA4
:100E9000FF4F9183808381E001C080E02F960FB6E1
:100EA000F894DEBF0FBECDBFDF91CF911F910F91A0
:100EB000FF90EF90DF90CF90BF90AF909F908F907A
:100EC0007F906F9008956F927F928F929F92AF92D2
:100ED000BF92CF92DF92EF92FF920F931F93CF9327
:100EE000DF93CDB7DEB72F970FB6F894DEBF0FBEF6
:100EF000CDBF3C0189829A82AB82BC82CD82DE82E8
:100F0000EF82F88609871A872B873C874D875E8793
:100F10006F876AE070E0CE0101960E946B168F3FEA
:100F20002FEF920711F480E062C08230910529F121
:100F30002CF4009749F0019759F045C08330910592
:100F400089F10497C1F13FC0F301118210823BC0C7
:100F5000F301EE5AFF4F0190F081E02DEE0FFF1FDD
:100F6000EE0FFF1FE60DF71D4281538164817581ED
:100F700088A199A10E94950D26C0F301EE5AFF4F5A
:100F80000190F081E02DEE0FFF1FEE0FFF1FE60D29
:100F9000F71D428153816481758188A199A10E94C6
:100FA000BD0D11C0F301EE5AFF4F80819181019771
:100FB0009183808308C0F301EE5AFF4F80819181B5
:100FC000019691838083F301EE5AFF4F80819181D6
:100FD000181619061CF01182108209C043973CF0C4
:100FE000F301EE5AFF4F83E190E0918380832F96C7
:100FF0000FB6F894DEBF0FBECDBFDF91CF911F912A
:101000000F91FF90EF90DF90CF90BF90AF909F90A7
:101010008F907F906F9008958F929F92AF92BF9222
:10102000CF92DF92EF92FF920F931F93CF93DF93B4
:10103000CDB7DEB72F970FB6F894DEBF0FBECDBF8A
:1010400089829A82AB82BC82CD82DE82EF82F88670
:1010500009871A872B873C874D875E876F874E8D60
:101060005F8DFC012081318121303105E1F022309A
:10107000310579F1232B09F041C05F934F938980AB
:101080009A80AB80BC80CD80DE80EF80F8840985BB
:101090001A852B853C854D855E856F850E94DA0615
:1010A0000F900F902BC05F934F9389809A80AB80F5
:1010B000BC80CD80DE80EF80F88409851A852B8581
:1010C0003C854D855E856F850E9444060F900F908C
:1010D00015C05F934F9389809A80AB80BC80CD8090
:1010E000DE80EF80F88409851A852B853C854D8547
:1010F0005E856F850E9463070F900F902F960FB645
:10110000F894DEBF0FBECDBFDF91CF911F910F913D
:10111000FF90EF90DF90CF90BF90AF909F908F9017
:101120000895FC01EE5AFF4F0190F081E02DEE0F83
:10113000FF1FEE0FFF1FE80FF91F6281738184818B
:10114000958108950895FC0160834183528363343F
:10115000A1F0643411F1623479F524B181E090E0BA
:1011600002C0880F991F4A95E2F7982F9095922315
:1011700094B995B1892B85B9089527B181E090E0A4
:1011800002C0880F991F4A95E2F7982F90959223F5
:1011900097B998B1892B88B908952AB181E090E078
:1011A00002C0880F991F4A95E2F7982F90959223D5
:1011B0009AB99BB1892B8BB90895FC0177233CF137
:1011C0008081833479F08434B9F0823409F047C0E7
:1011D00083B190E0018002C0959587950A94E2F76B
:1011E000817013C086B190E0018002C0959587950B
:1011F0000A94E2F7817009C089B190E0018002C0D1
:10120000959587950A94E2F7817081112AC08081B3
:1012100002C0211128C0833471F08434B1F08234CB
:1012200021F523B130E0018002C0359527950A945D
:10123000E2F72170EECF26B130E0018002C0359593
:1012400027950A94E2F72170E4CF29B130E00180BC
:1012500002C0359527950A94E2F72170DACF80E035
:10126000089580E0089581E0089580E00895CF9387
:10127000DF93EC010E949917CE014A960E949917BC
:10128000CE01C4960E949917CE01825B9F4F0E94A7
:101290009917CE0188599F4F0E943217DF91CF9145
:1012A0000895CF93DF93EC010E94C417CE014A96B4
:1012B0000E94C417CE01C4960E94C417CE01825B5F
:1012C0009F4F0E94C417DF91CF9108954F925F9274
:1012D0006F927F928F929F92AF92BF92CF92DF9246
:1012E000EF92FF920F931F93CF93DF93EC010E9435
:1012F000B5174E018AE1880E911CC4010E94B517F2
:101300005E0194E3A90EB11CC5010E94B5176E01E0
:10131000EEE4CE0ED11CC6010E94B5173E01F8E6E0
:101320006F0E711CEE24E394F12C01E010E021E03B
:1013300030E041E050E06AE070E0C3010E943817FD
:10134000CE010E943B182E019EE7490E511C90E0F1
:10135000F20191838083C4010E943B18FE01E05892
:10136000FF4F90E091838083C5010E943B18FE01EE
:10137000EE57FF4F90E091838083C6010E943B1897
:10138000FE01EC57FF4F90E0918380836894EE2438
:10139000E1F8F12C02E010E022E030E042E050E021
:1013A0006AE070E0C3010E943817F20180819181E8
:1013B000892B99F0329680819181892B81F0329628
:1013C00080819181892B69F0CC57DF4F81E02881A2
:1013D0003981232B39F480E005C080E003C080E030
:1013E00001C080E0DF91CF911F910F91FF90EF90AE
:1013F000DF90CF90BF90AF909F908F907F906F9035
:101400005F904F9008950F931F93CF93DF93CDB7C5
:10141000DEB78C018AE1FE013796D80101900D926A
:101420008A95E1F78AE1FE01B196D8015A960190BA
:101430000D928A95E1F78AE1FE01FB96D801D496D8
:1014400001900D928A95E1F7D801A25BBF4F8AE126
:10145000FE01EB5AFF4F01900D928A95E1F7C8010A
:1014600088599F4F0E943317F801E857FF4F81E0DA
:1014700090E091838083C8010E946609DF91CF913B
:101480001F910F910895CF93DF93FC01E659FF4F11
:10149000DC0151962D913C91529731832083A459C0
:1014A000BF4FEC012BA53CA511963C932E931296B1
:1014B000CB5BDF4F2881398111963C932E93129696
:1014C0006A96288139812D933C93DF018E589F4F76
:1014D000219131911216130624F0E817F907C1F78C
:1014E00016C021153105B1F04D915D911416150608
:1014F00024F4421753070CF49A01A817B907A1F76F
:10150000C9012333310544F082E390E005C080E057
:1015100090E002C080E090E0DF91CF910895CF92FB
:10152000DF92EF92FF920F931F93CF93DF93CDB78C
:10153000DEB78B859C858230910571F01CF4019794
:1015400039F01DC08330910571F00497A1F017C0E8
:10155000CC24C394D12C13C0CC24C3940F2EFBE015
:10156000DF2EF02D0CC06894CC24C2F80F2EFBE0C7
:10157000DF2EF02D04C06894CC24C2F8D12CCE010B
:101580000B960E94B5178B019C016894EE24E1F83C
:10159000F12C41E06C2D8D2D0E94CA100E94B50ED9
:1015A000DF91CF911F910F91FF90EF90DF90CF903F
:1015B00008954F925F926F927F928F929F92AF9217
:1015C000BF92CF92DF92EF92FF920F931F93CF9330
:1015D000DF93EC010E94D4176E0124E7C20ED11CE8
:1015E000F601918380838DB79EB74A970FB6F89422
:1015F0009EBF0FBE8DBFADB7BEB711968AE1FE018B
:1016000001900D928A95E1F7CE010E948F0A5E014A
:101610009AE1A90EB11CC5010E94D4174E01E6E75C
:101620008E0E911CF401918380838DB79EB74A97EB
:101630000FB6F8949EBF0FBE8DBFADB7BEB7119663
:101640008AE1F50101900D928A95E1F7CE010E94A1
:101650008F0A3E0194E3690E711CEDB7FEB7F49654
:101660000FB6F894FEBF0FBEEDBFC3010E94D417A2
:101670008E0108581F4FF801918380838DB79EB764
:101680004A970FB6F8949EBF0FBE8DBFADB7BEB7D9
:1016900011968AE1F30101900D928A95E1F7CE014E
:1016A0000E948F0A2E019EE4490E511CC2010E9425
:1016B000D4177E01EAE7EE0EF11CF70191838083D7
:1016C0008DB79EB74A970FB6F8949EBF0FBE8DBFD9
:1016D000ADB7BEB711968AE1F20101900D928A95DD
:1016E000E1F7CE010E948F0AEDB7FEB7F4960FB670
:1016F000F894FEBF0FBEEDBFF701E080F180F80166
:1017000000811181F40120813181F60140815181F4
:101710006AE070E0CE0188599F4F0E943817F601A9
:10172000808191811816190654F4CE010E943B184D
:10173000FE01E258FF4F90E09183808307C081E073
:1017400090E0FE01E258FF4F91838083FE01EA584A
:10175000FF4F808191811816190654F4C5010E942B
:101760003B18FE01E058FF4F90E09183808307C053
:1017700081E090E0FE01E058FF4F91838083FE01FD
:10178000E858FF4F808191811816190654F4C3015F
:101790000E943B18FE01EE57FF4F90E0918380833B
:1017A00007C081E090E0FE01EE57FF4F91838083F8
:1017B000FE01E658FF4F808191811816190654F4F6
:1017C000C2010E943B18FE01EC57FF4F90E091834D
:1017D000808307C081E090E0FE01EC57FF4F9183CA
:1017E0008083FE01E258FF4F80819181892B99F01F
:1017F000329680819181892B81F03296808191810E
:10180000892B69F0CC57DF4F81E028813981232B68
:1018100039F480E005C080E003C080E001C080E0D2
:10182000DF91CF911F910F91FF90EF90DF90CF90BC
:10183000BF90AF909F908F907F906F905F904F90F0
:1018400008952F923F924F925F926F927F928F9264
:101850009F92AF92BF92CF92DF92EF92FF920F933F
:101860001F93CF93DF93CDB7DEB72E970FB6F894C3
:10187000DEBF0FBECDBF9E878D87FC01EA57FF4FAD
:1018800081E090E0918380838D859E850E94D90AB6
:10189000882309F431C1ED85FE85EA57FF4F808129
:1018A0009181181619060CF027C1812C912C6D849A
:1018B0007E8484E7680E711CED85FE857A96FA8336
:1018C000E9834D845E84F6E74F0E511C8D859E851D
:1018D000C4969C838B832D843E8498E7290E311C0B
:1018E000ED85FE85E25BFF4FFE83ED838D859E8552
:1018F00086589F4F98878F83ED85FE85EA57FF4F67
:10190000FA87E9878D859E8588599F4F9C878B87AD
:1019100005C0F4E68F16910409F4B2C08D859E854A
:101920000E94D417F301918380838DB79EB74A97A5
:101930000FB6F8949EBF0FBE8DBFADB7BEB7119660
:101940008AE1ED85FE8501900D928A95E1F78D85FE
:101950009E850E948F0A89819A810E94D417F20184
:10196000918380838DB79EB74A970FB6F8949EBF38
:101970000FBE8DBFADB7BEB711968AE1E981FA817E
:1019800001900D928A95E1F78D859E850E948F0AC0
:101990000FB6F894DEBF0FBECDBF8B819C810E9435
:1019A000D417F101918380838DB79EB74A970FB604
:1019B000F8949EBF0FBE8DBFADB7BEB711968AE13A
:1019C000EB81FC8101900D928A95E1F78D859E85D2
:1019D0000E948F0A8D819E810E94D417EF81F88525
:1019E000918380838DB79EB74A970FB6F8949EBFB8
:1019F0000FBE8DBFADB7BEB711968AE1ED81FE81F6
:101A000001900D928A95E1F78D859E850E948F0A3F
:101A1000F301A080B180F201C080D180F10100818A
:101A20001181EF81F885E080F180C5018C0D9D1D4D
:101A3000800F911F8E0D9F1DE985FA85918380830C
:101A40000FB6F894DEBF0FBECDBF8D859E850E9478
:101A5000430A9601A501BC018B859C850E9438171D
:101A60009FEF891A990AE985FA8580819181181674
:101A700019060CF44ECF94E689169104ECF100C0DF
:101A8000ED85FE85EC58FF4F80819181181619066F
:101A900024F481E0ED85FE858787ED85FE85EA5893
:101AA000FF4F808191811816190624F481E0ED859D
:101AB000FE8581A7ED85FE85E858FF4F80819181E5
:101AC0001816190634F481E0ED85FE85ED5BFF4FB5
:101AD0008083ED85FE85E658FF4F80819181181641
:101AE000190654F48D859E85835A9F4F9A83898366
:101AF00081E0E981FA8180832E960FB6F894DEBFEB
:101B00000FBECDBFDF91CF911F910F91FF90EF904E
:101B1000DF90CF90BF90AF909F908F907F906F900D
:101B20005F904F903F902F900895CF92DF92EF9269
:101B3000FF92CF93DF93EC016A017B010E9464184E
:101B4000B701A601CE014A960E946418B701A6010A
:101B5000CE01C4960E946418B701A601CE01825B33
:101B60009F4F0E946418CE010E94210CDF91CF91FB
:101B7000FF90EF90DF90CF900895CF92DF92EF9299
:101B8000FF92CF93DF93EC016A017B010E947E18E4
:101B9000B701A601CE014A960E947E18B701A601A0
:101BA000CE01C4960E947E18B701A601CE01825BC9
:101BB0009F4F0E947E18CE010E94210CDF91CF9191
:101BC000FF90EF90DF90CF9008952A98613011F444
:101BD000299A01C029988EBD0DB407FEFDCF2A9A1F
:101BE0000895CF92DF92EF92FF920F931F93CF93BE
:101BF000DF936B017C01EA01CA010197209781F014
:101C000061E070E09B01220F331F660F771F660FA4
:101C1000771F660F771F620F731F019798F702C037
:101C200061E070E0072E000C880B990B0E944219AE
:101C3000A70196010E94F2190E940A19AB01BC018A
:101C4000CA0199231CF021E030E002C02FEF3FEFE2
:101C5000249FC001259F900D349F900D11240BE50A
:101C600011E00F2EFAE0EF2EF12CF02D0F2EFEE2F8
:101C7000DF2EF02D02C08F01EA01F801B7010E94AA
:101C80005F1A805D8293862F972FAE0141505109D4
:101C900019F4F8013297D082009769F714161506E7
:101CA000D4F4BE0162507109DF0140E32197CE1BDD
:101CB000DF0B4E93CD018C0F9D1F18161906CCF328
:101CC000CB01992314F480E090E080959095E80F83
:101CD000F91F8EE2829380818E3211F480E3829329
:101CE000332314F48DE28293CF01DF91CF911F91C2
:101CF0000F91FF90EF90DF90CF9008952C9A84B1D0
:101D00008E6384B92C982C9A80E58CBD2A9A60E069
:101D100081E20E94E50D60E088EC0E94E50D60E044
:101D200086E00E94E50D60E083E10E94E50D60E041
:101D300080E20E94E50D60E08CE00E94E50D0895D0
:101D400088EF91E0E2E6F1E0DF019C011D92215075
:101D50003040E1F7109261011092600187EF91E04D
:101D600090935F0180935E010895EF92FF920F932D
:101D70001F93CF93DF93809160019091610199232C
:101D80002CF4109261011092600109C0883F9140CB
:101D900034F087EF91E0909361018093600180912E
:101DA0005E0190915F0199232CF410925F011092D3
:101DB0005E0109C0883F914034F087EF91E0909335
:101DC0005F0180935E01C0916001D0916101CE01FD
:101DD00064E570E00E945F1A162F60E080680E9440
:101DE000E50D60E0812F80640E94E50DE0905E01CA
:101DF000F0905F01EC16FD066CF08E010E591E4F3F
:101E000061E0F80181918F010E94E50D2196EC16A9
:101E1000FD06B4F787EF91E0909361018093600134
:101E200010925F0110925E01DF91CF911F910F918F
:101E3000FF90EF9008958E30A8F46630A8F490E0FB
:101E40009C01220F331F820F931F880F991F24E5D7
:101E5000629F800D911D112490935D0180935C0120
:101E600080E0089581E0089581E0089540915C014B
:101E700050915D01805290E0FC01EE0FFF1FE80FD2
:101E8000F91FEE0FFF1FE05AFD4FDA01AE59BE4FAA
:101E90009A0128593E4F84918D933196A217B3072A
:101EA000D1F74A5F5F4F50935D0140935C0180E042
:101EB000089540915C0150915D0190E0FC01EE0FAE
:101EC000FF1FE80FF91FEE0FFF1FEE0FFF1FEE0FB2
:101ED000FF1FE058FF4FDA01AE59BE4F9A01265856
:101EE0003E4F84918D933196A217B307D1F7485E88
:101EF0005F4F50935D0140935C0180E008950F9324
:101F00001F93CF93DF9340915C0150915D0120912D
:101F10006001309161014217530724F4509361012D
:101F20004093600120EE260F203A08F49EC0603CEA
:101F300008F49AC021EC260F98C08491880F8D93E5
:101F40003196A217B307C9F74B5F5F4F50935D01FE
:101F500040935C0163C0823009F060C0CA018455BF
:101F600091096091600170916101861797070CF0EB
:101F700090C090936101809360018BC02491220FE7
:101F8000822F8270982F990F890F982F990F822F87
:101F90008470382F330F830F880F880F892B022FFF
:101FA0000870019F002D1124082B30E035952795EE
:101FB000359527953595279535952795822F8270EC
:101FC000382F330F830F880F322F3170932F990FD3
:101FD000390F832B922F9470392F330F930F990F52
:101FE000990F892B2870219F902D1124892B08830C
:101FF00009838C9311968C931197319622961296A1
:10200000A617B70709F0BACFCA010B9668EF71E0BF
:102010000E945F1A90935D0180935C0180915C0146
:1020200090915D0120915E0130915F012817390781
:1020300024F490935F0180935E01FC01EE59FE4F02
:102040001082873F21E0920731F410925D011092D7
:102050005C0182E036C0019690935D0180935C0143
:1020600080E02FC081E02DC02FE5813009F073CFD3
:1020700030E0F901EE0FFF1FE20FF31FEE0FFF1F1D
:10208000E05AFD4FDA01AE59BE4F9A0129593E4F31
:1020900054CF99233CF330E0F901EE0FFF1F2E0FD0
:1020A0003F1F220F331FF901E05AFD4FEA01C25FC3
:1020B000DE4FDA01AE59BE4FBA0164597E4F18E1C6
:1020C0005DCFDF91CF911F910F9108950F931F93D3
:1020D000CF93DF93D42F89010E941B0FF8016081F9
:1020E000662379F0C0E08D2F0E947F0F813041F090
:1020F000CF5FF801EC0FF11D60816111F4CF01C0D9
:1021000061E0862FDF91CF911F910F910895FF928B
:102110000F931F93CF93DF93F42E89010E941B0F1F
:10212000F8016081662391F0C0E06E3221F08F2DBE
:102130000E947F0FD82FD13041F0CF5FF801EC0F14
:10214000F11D60816111F1CF01C061E0862FDF9147
:10215000CF911F910F91FF900895DF92EF92FF9220
:102160000F931F93CF93DF93C82FD62FD42EA701A1
:10217000C901B8010E94F10D9C014D2D6D2F8C2FCE
:102180000E946610DF91CF911F910F91FF90EF9009
:10219000DF900895DF92EF92FF920F931F93CF93FA
:1021A000DF93C82FD62FD42EA701C901B8010E94F2
:1021B000F10D9C014D2D6D2F8C2F0E948710DF910A
:1021C000CF911F910F91FF90EF90DF9008958F9224
:1021D0009F92AF92CF92DF92EF920F931F9342E0C4
:1021E00050E064E48CE597E00E94A30843E050E0EF
:1021F00064E489E597E00E94A30844E050E064E4C9
:1022000086E597E00E94A30845E050E064E483E59A
:1022100097E00E94A30846E050E064E480E597E080
:102220000E94A3088090530790905407A0905507F0
:10223000C0905607D0905707E09058070091590773
:1022400010915A0720915B0740915C0750915D0700
:1022500060915E07809152078F93809151078F9311
:10226000809150078F938FE496E00E94411640E0E2
:1022700050E064E48CE496E00E94FE150E947E0E1D
:1022800061E070E086E397E00E949D1762E070E0F5
:102290008CE197E00E949D1763E070E082E097E098
:1022A0000E949D1764E070E088EE96E00E949D1702
:1022B0008DB79EB74A970FB6F8949EBF0FBE8DBFDD
:1022C000ADB7BEB711968AE1E8EEF6E001900D9247
:1022D0008A95E1F78DB79EB74A970FB6F8949EBFDF
:1022E0000FBE8DBFADB7BEB711968AE1E2E0F7E051
:1022F00001900D928A95E1F78DB79EB74A970FB678
:10230000F8949EBF0FBE8DBFADB7BEB711968AE1E0
:10231000ECE1F7E001900D928A95E1F78DB79EB759
:102320004A970FB6F8949EBF0FBE8DBFADB7BEB72C
:1023300011968AE1E6E3F7E001900D928A95E1F7C4
:102340008EE596E00E94030A8DB79EB785599F4F90
:102350000FB6F8949EBF0FBE8DBF8AE593E00E9432
:102360009F031F910F91EF90DF90CF90AF909F90C0
:102370008F9008950E94E7108DB79EB78A589109F3
:102380000FB6F8949EBF0FBE8DBFADB7BEB7119606
:102390008AE8EEE5F6E001900D928A95E1F78DB7B7
:1023A0009EB7845391400FB6F8949EBF0FBE8DBF69
:1023B000ADB7BEB7119684E391E0EAE5F3E0019092
:1023C0000D920197E1F78EE894E00E94C3158DB756
:1023D0009EB782549E4F0FB6F8949EBF0FBE8DBF1E
:1023E000CEE5D6E0DF93CF9380904F0690905006D5
:1023F000A0905106B0905206C0905306D09054065B
:10240000E0905506F0905606009157061091580638
:102410002091590630915A0640915B0650915C0616
:1024200060915D068AE593E00E940C088DB79EB727
:102430008A5891090FB6F8949EBF0FBE8DBFADB7F5
:10244000BEB711968AE8FE0101900D928A95E1F7D8
:102450008DB79EB7845391400FB6F8949EBF0FBEC0
:102460008DBFADB7BEB7119684E391E0EAE5F3E026
:1024700001900D920197E1F78EE894E00E94C31558
:102480008DB79EB780549E4F0FB6F8949EBF0FBE77
:102490008DBFA8CF8CE597E00E94A20889E597E060
:1024A0000E94A20886E597E00E94A20883E597E0D3
:1024B0000E94A20880E597E00E94A20886E397E0C8
:1024C0000E9499178CE197E00E94991782E097E0AB
:1024D0000E94991788EE96E00E9499178EE596E083
:1024E0000E9437098FE496E00E9429168CE496E05A
:1024F0000E94FD158EE894E00E9483128AE593E025
:102500000E949E030895CF93DF93EC010E949E03E7
:10251000CE018C5C9E4F0E943709DF91CF910895C8
:102520008C5A9F4FFC01808191818430910524F564
:1025300020E031E041E060E085E00E94661025E0A7
:1025400031E041E061E082E00E9466102FE031E07E
:1025500041E062E082E00E9466102AE131E041E061
:1025600063E082E00E94661024E231E041E064E032
:1025700082E00E9466100895089724F525E031E076
:1025800041E060E083E00E9466102AE231E041E031
:1025900061E082E00E94661023E331E041E062E006
:1025A00082E00E9466102FE331E041E063E082E0C8
:1025B0000E94661024E231E041E064E082E00E9483
:1025C000661008952FE031E041E060E083E00E9472
:1025D00066102AE231E041E061E082E00E9466108C
:1025E00023E331E041E062E082E00E9466102FE3E5
:1025F00031E041E063E082E00E94661024E231E0D5
:1026000041E064E082E00E94661008958C5A9F4F7A
:10261000DC01ED91FC91EC30F10508F063C0EC5C5D
:10262000FF4F0C94731A61E080E00E941B0F8BE94E
:102630000E94360F089562E080E00E941B0F8BE934
:102640000E94360F089563E080E00E941B0F8BE923
:102650000E94360F089564E080E00E941B0F8BE912
:102660000E94360F089561E080E00E941B0F8BE905
:102670000E94360F089562E080E00E941B0F8BE9F4
:102680000E94360F089564E080E00E941B0F8BE9E2
:102690000E94360F089563E080E00E941B0F8BE9D3
:1026A0000E94360F089561E080E00E941B0F8BE9C5
:1026B0000E94360F089562E080E00E941B0F8BE9B4
:1026C0000E94360F089563E080E00E941B0F8BE9A3
:1026D0000E94360F089564E080E00E941B0F8BE992
:1026E0000E94360F0895CF93DF93EC010E94901261
:1026F000CE010E940613DF91CF91089560E086E03D
:102700000E941B0F8EE90E94360F60E087E00E9456
:102710001B0F8FE90E94360F0895AF92BF92CF92A0
:10272000DF92EF92FF920F931F93CF93DF93CDB77A
:10273000DEB72C970FB6F894DEBF0FBECDBF898DE4
:102740009A8D8230910599F01CF4019739F031C0CF
:1027500083309105C1F0049719F12BC0CC24C394A8
:10276000A12C00E00F2EF3E0DF2EF02D22C0CC24B0
:10277000C3940F2EFBE0AF2EF02D00E00F2EF9E0FA
:10278000DF2EF02D16C06894CC24C2F80F2EFBE08B
:10279000AF2EF02D03E00F2EF9E0DF2EF02D09C053
:1027A0006894CC24C2F8A12C03E00F2EF3E0DF2EB6
:1027B000F02D88A58823C9F08CE890E09A8389835E
:1027C0008DE890E09C838B838EE890E09E838D83E0
:1027D0008FE890E098878F8380E990E09A878987D7
:1027E00081E990E09C878B8763C08FA18823C9F023
:1027F00080E890E09A83898381E890E09C838B83D2
:1028000082E890E09E838D8383E890E098878F83B1
:1028100084E890E09A87898785E890E09C878B8799
:1028200047C086E890E09A83898387E890E09C839C
:102830008B8388E890E09E838D8389E890E0988779
:102840008F838AE890E09A8789878BE890E09C875D
:102850008B872EC0612F8D2D0E941B0FF701808169
:102860000E94360F612F8B2D0E941B0FF701828172
:102870000E94360F1F5FF4E0EF0EF11C1013EACF39
:10288000CE0149960E94B5178B019C016894EE24F5
:10289000E1F8F12C41E06C2D8A2D0E94CA1061E014
:1028A0006C0D8A2D0E941B0F80EA0E94360F09C012
:1028B000102FCE0101967C010D5FBB24B394BD0C9B
:1028C000C9CF2C960FB6F894DEBF0FBECDBFDF91F7
:1028D000CF911F910F91FF90EF90DF90CF90BF901D
:1028E000AF900895CF93DF93EC01FC01EC5CFE4FB9
:1028F0008DB79EB74A970FB6F8949EBF0FBE8DBF97
:10290000ADB7BEB711968AE101900D928A95E1F7B5
:10291000CE010E948D13FE01E25BFE4F8DB79EB784
:102920004A970FB6F8949EBF0FBE8DBFADB7BEB726
:1029300011968AE101900D928A95E1F7CE010E94ED
:102940008D138DB79EB7C4960FB6F8949EBF0FBE79
:102950008DBFFE01E859FE4F4A970FB6F8949EBF0F
:102960000FBE8DBFADB7BEB711968AE101900D9233
:102970008A95E1F7CE010E948D13FE01EE57FE4FBE
:102980008DB79EB74A970FB6F8949EBF0FBE8DBF06
:10299000ADB7BEB711968AE101900D928A95E1F725
:1029A000CE010E948D138DB79EB7C4960FB6F894D2
:1029B0009EBF0FBE8DBFDF91CF910895FC01808136
:1029C00091810297E9F462E086E00E941B0F86E99C
:1029D0000E94360F62E087E00E941B0F87E90E9489
:1029E000360F63E086E00E941B0F88E90E94360FD5
:1029F00063E087E00E941B0F89E90E94360F08956B
:102A000062E086E00E941B0F82E90E94360F62E0BE
:102A100087E00E941B0F83E90E94360F63E086E087
:102A20000E941B0F84E90E94360F63E087E00E943A
:102A30001B0F85E90E94360F0895FC01208131812A
:102A40002230310511F480E00895FC01EC5AFF4F6B
:102A5000808191818230910509F445C034F400975A
:102A6000E1F08130910579F108C08430910599F148
:102A70000CF441C085309105D9F08230910599F16F
:102A80002CF4009751F00197E9F51DC084309105B1
:102A900011F18CF10597B1F50BC061E086E00E9461
:102AA0001B0F8CE90E94360F8DE90E94360F2AC059
:102AB00064E086E00E941B0F8CE90E94360F8DE9CE
:102AC0000E94360F1FC061E085E00E941B0F8AE95B
:102AD0000E94360F17C064E085E00E941B0F8AE950
:102AE0000E94360F0FC061E088E00E941B0F8BE947
:102AF0000E94360F07C064E088E00E941B0F8BE93C
:102B00000E94360F0895EF92FF920F931F93CF9379
:102B1000DF93FC01208131812230310511F080E00A
:102B200017C0EC010E9491088B019C016894EE246F
:102B3000E1F8F12C41E061E085E00E94AD1064E035
:102B400085E00E941B0FCE5ADF4F88810E94590FEB
:102B5000DF91CF911F910F91FF90EF900895CF9348
:102B6000DF93EC010E947E13CE010E947214CE010D
:102B70000E94DE14CE010E941D15CE010E94831515
:102B8000DF91CF9108950F931F93CF93DF93CDB72C
:102B9000DEB78C0184E391E0FE013796D801019005
:102BA0000D920197E1F7D801AC5CBE4F8AE8FE01B7
:102BB000E55CFE4F01900D928A95E1F70E94A00E10
:102BC000F801808191818130910569F08230910511
:102BD00031F0892B59F4C8010E94AF1507C0C80114
:102BE0000E94AF1503C0C8010E9473130E94B50E66
:102BF000DF91CF911F910F9108950895FC0160839B
:102C000041835283633479F06434C1F0623401F556
:102C100024B181E090E002C0880F991F4A95E2F745
:102C2000822B84B9089527B181E090E002C0880F1B
:102C3000991F4A95E2F7822B87B908952AB181E05E
:102C400090E002C0880F991F4A95E2F7822B8AB95B
:102C50000895CF93DF93EC010E94A208CE01039662
:102C60000E94A208CE0106960E94A208CE010996F3
:102C70000E94A208CE010C960E94A208DF91CF917B
:102C800008958F929F92AF92CF92DF92EF920F931F
:102C90001F93CF93DF93CDB7DEB7FC014083518301
:102CA0006283038314832583C682D782E0868D8561
:102CB0009E85AF8584879587A68781869286A38621
:102CC000DF91CF911F910F91EF90DF90CF90AF9058
:102CD0009F908F9008950F931F93CF93DF93EC01F4
:102CE0008B010E94DD0881111FC0B801CE0103963F
:102CF0000E94DD0881111BC0B801CE0106960E941A
:102D0000DD08811117C0B801CE010C960E94DD08C4
:102D1000811113C0B801CE0109960E94DD0881110E
:102D20000FC08FEF9FEF0EC080E090E00BC081E0FE
:102D300090E008C082E090E005C084E090E002C02E
:102D400083E090E0DF91CF911F910F910895089556
:102D5000ECE7F0E0808181648083EAE7F0E0808145
:102D60008F6880830895FC01ACE7B0E08C918E7F82
:102D70008C938C918D7F8C938C918B7F8C938C9189
:102D8000877F8C936330710551F06430710569F071
:102D90006230710579F48C9181608C930BC0ACE743
:102DA000B0E08C9182608C9305C0ACE7B0E08C9170
:102DB00083608C93AAE7B0E08C9180648C9310823E
:102DC00081E040E09C91282F392F307194FF242F0F
:102DD00020833323B9F3609178007091790080E00B
:102DE00090E00E9440192BE43CE340EA5BE30E9440
:102DF000F21908958093BB0084E88093BC00ECEB4B
:102E0000F0E080818823ECF79091B900987F9831A9
:102E100029F081E0983219F480E0089580E0089567
:102E2000CF9394EA9093BC00ECEBF0E0908199236F
:102E3000ECF79091B900987F983011F0903161F4DF
:102E4000C62F0E94FA16813039F08C2F0E94FA1694
:102E500094E99093BC0004C084E98093BC0081E0B5
:102E6000CF910895089560E08EE40E9410170895B0
:102E7000EF92FF920F931F93CF93DF93F9011616F2
:102E800017060CF04FC031E04130510509F030E039
:102E90004230510509F43260E130F10511F434603B
:102EA00003C0329709F438600130110511F4306124
:102EB00004C00230110509F430628B01EC0181E09D
:102EC000E816F10419F4632F606406C092E0E91675
:102ED000F10409F5632F60688EE40E9410171982CF
:102EE000188289EF90E00197F1F700C00000288177
:102EF00039812F5F3F4F39832883201731078CF3A7
:102F000060E08EE40E94101783ED90E30197F1F7E3
:102F100000C0000007C0632F8EE40E9410171982C2
:102F20001882DFCFDF91CF911F910F91FF90EF902B
:102F3000089543960E94A71608950F931F93CF9369
:102F4000DF93EC018B0143960E94A8161983088336
:102F500080E090E0A0E2B0E48A879B87AC87BD87E1
:102F6000DF91CF911F910F910895CF93DF93EC01E3
:102F70006881798143960E94B3166A837B838C8330
:102F80009D83DF91CF910895CF93DF93EC010E9451
:102F9000B5178A819B81AC81BD818A879B87AC876D
:102FA000BD87DF91CF9108958F929F92AF92BF928C
:102FB000CF92DF92EF92FF92CF93DF93FC012685B1
:102FC000222309F445C02785211145C0EC010E9448
:102FD000B5176B017C016A837B838C839D8320E022
:102FE00030E046E953E46A857B858C859D850E94A7
:102FF000F2194B015C0120E030E046E953E4C701DF
:10300000B6010E94F2199B01AC01C501B4010E94F6
:1030100098186C8B7D8B8E8B9F8B0E940A197A8BF4
:10302000698B798F688F188A772344F4719561953D
:1030300071097A8B698B82E090E012C01616170630
:103040006CF01A8A198A81E0888B80E090E008C0D1
:1030500080E090E005C080E090E002C081E090E078
:10306000DF91CF91FF90EF90DF90CF90BF90AF9026
:103070009F908F900895CF93DF93EC018A819B817D
:10308000AC81BD818E839F83A887B987CE010E94C2
:10309000B5176A837B838C839D832E813F8148850E
:1030A00059850E940519811104C081E08F8780E055
:1030B00002C01F8681E0DF91CF910895FC018685D3
:1030C00091E09827968708950F931F93CF93FC0163
:1030D000C685CC2371F09A01AB018C0162857385A2
:1030E000848595850E949918F80162877387848783
:1030F00095878C2FCF911F910F9108950F931F9358
:10310000CF93FC01C685CC2371F09A01AB018C01F1
:1031100062857385848595850E949818F801628779
:103120007387848795878C2FCF911F910F91089576
:103130005058BB27AA270E94B0180C94B8190E94B7
:10314000AA1938F00E94B11920F039F49F3F19F400
:1031500026F40C94A7190EF4E095E7FB0C94A11942
:10316000E92F0E94C91958F3BA1762077307840739
:10317000950720F079F4A6F50C94EB190EF4E09580
:103180000B2EBA2FA02D0B01B90190010C01CA0121
:10319000A0011124FF27591B99F0593F50F4503ECC
:1031A00068F11A16F040A22F232F342F4427585FBE
:1031B000F3CF469537952795A795F0405395C9F7D6
:1031C0007EF41F16BA0B620B730B840BBAF091508E
:1031D000A1F0FF0FBB1F661F771F881FC2F70EC02D
:1031E000BA0F621F731F841F48F487957795679500
:1031F000B795F7959E3F08F0B0CF9395880F08F0EC
:103200009927EE0F9795879508950E947D1908F4E8
:1032100081E008950E9411196894B1110C94EC1981
:1032200008950E94D11988F09F5798F0B92F9927D7
:10323000B751B0F0E1F0660F771F881F991F1AF0A1
:10324000BA95C9F714C0B13091F00E94EB19B1E002
:1032500008950C94EB19672F782F8827B85F39F001
:10326000B93FCCF3869577956795B395D9F73EF43A
:1032700090958095709561957F4F8F4F9F4F0895E2
:10328000E89409C097FB3EF4909580957095619500
:103290007F4F8F4F9F4F9923A9F0F92F96E9BB27B6
:1032A0009395F695879577956795B795F111F8CF32
:1032B000FAF4BB0F11F460FF1BC06F5F7F4F8F4F9D
:1032C0009F4F16C0882311F096E911C0772321F093
:1032D0009EE8872F762F05C0662371F096E8862F2B
:1032E00070E060E02AF09A95660F771F881FDAF782
:1032F000880F9695879597F90895990F0008550FAF
:10330000AA0BE0E8FEEF16161706E807F907C0F06B
:1033100012161306E407F50798F0621B730B840B73
:10332000950B39F40A2661F0232B242B252B21F44D
:1033300008950A2609F4A140A6958FEF811D811DED
:10334000089597F99F6780E870E060E008959FEF27
:1033500080EC089500240A9416161706180609062C
:10336000089500240A9412161306140605060895FB
:10337000092E0394000C11F4882352F0BB0F40F483
:10338000BF2B11F460FF04C06F5F7F4F8F4F9F4FC3
:10339000089557FD9058440F551F59F05F3F71F045
:1033A0004795880F97FB991F61F09F3F79F08795AC
:1033B0000895121613061406551FF2CF4695F1DF35
:1033C00008C0161617061806991FF1CF86957105C5
:1033D000610508940895E894BB2766277727CB01F9
:1033E00097F908950E94051A0C94B8190E94AA1919
:1033F00038F00E94B11920F0952311F00C94A11916
:103400000C94A71911240C94EC190E94C91970F39B
:10341000959FC1F3950F50E0551F629FF001729F79
:10342000BB27F00DB11D639FAA27F00DB11DAA1F88
:10343000649F6627B00DA11D661F829F2227B00DD5
:10344000A11D621F739FB00DA11D621F839FA00D60
:10345000611D221F749F3327A00D611D231F849FB0
:10346000600D211D822F762F6A2F11249F57504007
:103470009AF0F1F088234AF0EE0FFF1FBB1F661F82
:10348000771F881F91505040A9F79E3F510580F04B
:103490000C94A1190C94EC195F3FE4F3983ED4F31B
:1034A000869577956795B795F795E7959F5FC1F7EF
:1034B000FE2B880F911D9695879597F9089597FB98
:1034C000072E16F4009407D077FD09D00E94791AD0
:1034D00007FC05D03EF4909581959F4F0895709517
:1034E00061957F4F0895EE0FFF1F0590F491E02D39
:1034F0000994AA1BBB1B51E107C0AA1FBB1FA6173B
:10350000B70710F0A61BB70B881F991F5A95A9F78C
:0E35100080959095BC01CD010895F894FFCFF1
:10351E00CCC5CDDE00D1EEF5F0E0EDE8F2FC00D347
:10352E00F1F2E0EDEEE2E8F2FC00CDE0F1F2F0EEC9
:10353E00E9EAE800C2FBF5EEE400CFE0F0EAEEE2E5
:10354E00EAE000CDE8E6EDE5E520EFEEE72E00C27D
:0C355E00E5F0F5EDFFFF20EFEEE72E009A
:00000001FF
