:100000000C9458040C9480040C9480040C94800488
:100010000C9480040C9480040C9480040C94800450
:100020000C9480040C9480040C9480040C94800440
:100030000C9480040C9480040C9480040C94800430
:100040000C9480040C9480040C9480040C94800420
:100050000C9480040C9480040C9480040C94800410
:100060000C9480040C948004770A7B0A800A850A29
:100070008A0A8F0A940A990A9F0AA50AAB0A520CA7
:10008000550C580C5B0C5E0C610C640C670C6A0C14
:10009000B41CBC1CC41CCC1CD41CDC1CE41CE01F09
:1000A000E81FF01FF81F0020082018201020202033
:1000B0002820302038204020482050205820602020
:1000C000D520F62006210E21FE20E020EB2016216F
:1000D000FB21072201220D22132219221F22252291
:1000E0002B220AD7233C0AD7A33C8FC2F53C0AD760
:1000F000233DCDCC4C3D8FC2753D295C8F3D0AD749
:10010000A33DEC51B83DCDCCCC3D8FC2F53D9A9985
:10011000193ECDCC4C3E9A99993E0000003F00001C
:10012000403F0000803F0000C03F00000040000052
:100130004040C0C0E0A0A0A09090909088888884A3
:10014000848484828282828181FFC0C0E0E0A0A09A
:10015000909090908888888484848482828282812E
:1001600081FFC0C0E0E0E0A09090909088888884F3
:10017000848484828282828181FFC0C0E0E0E0E0EA
:10018000F09090908888888484848482828282819E
:1001900081FFC0C0E0E0E0E0F0F0909088888884C3
:1001A000848484828282828181FFC0C0E0E0E0E0BA
:1001B000F0F0F090888888848484848282828281AE
:1001C00081FFC0C0E0E0E0E0F0F0F0F088888884D3
:1001D000848484828282828181FFC0C0E0E0E0E08A
:1001E000F0F0F0F0F88888848484848282828281AE
:1001F00081FFC0C0E0E0E0E0F0F0F0F0F8F88884C3
:10020000848484828282828181FFC0C0E0E0E0E059
:10021000F0F0F0F0F8F8F88484848482828282819D
:1002200081FFC0C0E0E0E0E0F0F0F0F0F8F8F8FCAA
:10023000848484828282828181FFC0C0E0E0E0E029
:10024000F0F0F0F0F8F8F8FCFC848482828282817D
:1002500081FFC0C0E0E0E0E0F0F0F0F0F8F8F8FC7A
:10026000FCFC84828282828181FFC0C0E0E0E0E009
:10027000F0F0F0F0F8F8F8FCFCFCFC82828282815D
:1002800081FFC0C0E0E0E0E0F0F0F0F0F8F8F8FC4A
:10029000FCFCFCFE8282828181FFC0C0E0E0E0E0E5
:1002A000F0F0F0F0F8F8F8FCFCFCFCFEFE82828135
:1002B00081FFC0C0E0E0E0E0F0F0F0F0F8F8F8FC1A
:1002C000FCFCFCFEFEFE828181FFC0C0E0E0E0E0BD
:1002D000F0F0F0F0F8F8F8FCFCFCFCFEFEFEFE810D
:1002E00081FFC0C0E0E0E0E0F0F0F0F0F8F8F8FCEA
:1002F000FCFCFCFEFEFEFEFF81FFC0C0E0E0E0E093
:10030000F0F0F0F0F8F8F8FCFCFCFCFEFEFEFEFF5E
:10031000FFFF0000000000000000005F0000000080
:1003200000070007000000147F147F140000242A37
:100330007F2A1200004C2C106864000036495522B8
:1003400050000000050300000000001C22410000D6
:10035000000041221C00000014083E0814000008A0
:10036000083E080800000000503000000010101087
:10037000101000000060600000000020100804025F
:1003800000003E5149453E000000427F4000000011
:10039000426151494600002141454B31000018148B
:1003A000127F100000274545453900003C4A494965
:1003B0003000000171090503000036494949360043
:1003C00000064949291E00000036360000000000E2
:1003D00056360000000008142241000000141414D6
:1003E0001414000000412214080000020151090603
:1003F0000000324979413E00007E1111117E00005B
:100400007F4949493600003E4141412200007F4179
:1004100041221C00007F4949494100007F09090928
:100420000100003E4149497A00007F0808087F002A
:100430000000417F410000002040413F0100007F5B
:100440000814224100007F4040404000007F020C21
:10045000027F00007F0408107F00003E4141413EC2
:1004600000007F0909090600003E4151215E00009D
:100470007F09192946000046494949310000010118
:100480007F010100003F4040403F00001F2040200E
:100490001F00003F4038403F000063140814630011
:1004A000000708700807000061514945430000003B
:1004B0007F4141000000020408102000000041417B
:1004C0007F00000004020102040000404040404060
:1004D0000000000102040000002054545478000081
:1004E0007F484444380000384444442000003844E5
:1004F00044487F000038545454180000087E090115
:100500000200000C5252523E00007F0804047800A2
:100510000000447D400000002040443D0000007F7A
:1005200010284400000000417F400000007C0418B7
:10053000047800007C0804047800003844444438FF
:1005400000007C141414080000081414187C000027
:100550007C08040408000048545454200000043F60
:1005600044402000003C4040207C00001C204020F3
:100570001C00003C4030403C00004428102844004F
:10058000000C5050503C00004464544C44000000A7
:1005900008364100000000007F00000000004136E6
:1005A0000800000008040810080000FFFFFFFFFF1C
:1005B00000000000E0F0F8F800F8F8F0E0000000BB
:1005C0000000FFFFFFFF00FFFFFFFF000000000033
:1005D000070F1F1F001F1F0F070000000000E01083
:1005E000080800080810E00000000000FF000000FC
:1005F00000000000FF0000000000070810100010BD
:100600001008070000004080E010080800080810EB
:10061000E08040000000FF42241800182442FF0040
:100620000000020107081010001010080701020066
:100630000000605048440044485060000000000042
:10064000060A12220022120A060000000000607052
:10065000787C007C7870600000000000060E1E3E72
:10066000003E1E0E06000000183C7EE70000000061
:1006700000E77E3C180000002030381C001C383099
:100680002000000000002A2A2A2A002A2A2A2A2AD0
:1006900000000000000000030000183C7EE700009E
:1006A00000E77E3C180000000000E7E7420042E758
:1006B000E7000000000000081838700070381808C3
:1006C0000000004080E0F0F8F800F8F8F0E080402A
:1006D0000000007EBDDBE700E7DBBD7E000000021E
:1006E00001070F1F1F001F1F0F070102007C1211BF
:1006F000127C00007F4949493100007F4949493651
:1007000000007F010101010000603F213F60000007
:100710007F49494941000077087F0877000022415E
:1007200049493600007F1008047F00007E1009044C
:100730007E00007F081422410000403E01017F003E
:10074000007F020C027F00007F0808087F00003E47
:100750004141413E00007F0101017F00007F090906
:10076000090600003E41414122000001017F0101D4
:100770000000074848483F00000E117F110E00009E
:10078000631408146300003F20203F600000070846
:1007900008087F00007F407E407F00003F203F2010
:1007A0007F0000017F48483000007F4830007F0014
:1007B00000007F4848300000224149493E00007F48
:1007C000083E413E0000462919097F00002054548C
:1007D000547800003C4A4A4A3100007C54542800B6
:1007E00000007C04040C000000603C243C6000001D
:1007F000385454541800006C107C106C00000044F5
:1008000054542800007C2010087C00007C21120930
:100810007C00007C102844000000403804047C0068
:10082000007C0810087C00007C1010107C00003850
:100830004444443800007C0404047C00007C14140C
:10084000140800003844444400000004047C0404FC
:1008500000000C5050503C000008147C14080000AC
:10086000442810284400003C20203C6000000C106C
:1008700010107C00007C407C407C00003C203C2030
:100880007C0000047C50502000007C5020007C0044
:1008900000007C5050200000284454543800007C54
:1008A000103844380000485434147C000000941977
:1008B00011241FBECFEFD8E0DEBFCDBF13E0A0E014
:1008C000B1E0E0E3F2E502C005900D92A837B10770
:1008D000D9F727E0A8E7B3E001C01D92A533B2071E
:1008E000E1F714E0C8E5D4E004C02197FE010E94BE
:1008F000C328C735D107C9F70E9471190C9416296E
:100900000C94000084569F4FFC01108208950F93B1
:100910001F93CF93DF93EC01CB01FE01EA56FF4F0B
:1009200010823196108220E130E03A83298308E07A
:100930000F8311E018830E9409131B8792E09C87A4
:1009400086E6898765E06A878887198B1A8A1F87F8
:1009500024E0288B84E68E872BA346E04CA319A3C2
:100960002AA388A319A79AA71FA248A735E63EA3E2
:100970004D8F33E03E8F9B8F3C8F8A8F1F8A988FDD
:100980009D8B3E8B8C8B2FA738AB6DA782E78EA7F4
:100990008CA787E68DAB0EAB1BAA1CAB0AAB8AAF4C
:1009A0002BAF18AE99AF2FAB8FAFFE01E05CFF4FBE
:1009B0005CE050831DAF3EAF5CAF349680833196D0
:1009C0008083339790833196308332978083389633
:1009D0001083319638E630833397208331966083D5
:1009E0003297308338961083319639E630833397C7
:1009F0002083319640833297308338961083319626
:100A00003AE6308333976083319627E0208332972C
:100A100030833896108331968083339740833196A4
:100A20002083329780833896108231963BE630835C
:100A300033970083319629E02083329730833896AC
:100A4000108231964CE640833397008331963AE02A
:100A50003083329740833896108231964DE640833A
:100A60003397208331962BE020833297408338964A
:100A7000108231968083339730833196208332976A
:100A800080833896908331962EE620833397508367
:100A900031963DE0308332972083389690833196AB
:100AA0004FE640833397508331962EE02083329770
:100AB000408338969083319640E740833397308364
:100AC00031963FE030833297408338969083319659
:100AD00041E7408333972083319620E1208332978A
:100AE0004083389690833196808333973083319654
:100AF0002083CE57DF4F8883DF91CF911F910F91D5
:100B00000895CF92DF92EF92FF920F931F93CF93AE
:100B1000DF93EC01CB018A0164E670E00E948E2233
:100B20009C01255031092230310508F4D1C08F3F96
:100B30002FEF920729F41B821C821D821E82C8C0DF
:100B40002F81293C59F4009709F0CDC081E08883BA
:100B50009CE09F83C856DF4F8883BAC02A3C51F47B
:100B6000009709F0B7C018821F82C856DF4F81E096
:100B70008883AEC08130910531F08230910531F427
:100B80002F5F2F835BC021502F8358C0283C09F072
:100B900055C08330910521F08430910549F14EC054
:100BA000780182EBE80EF11C2AE037ED43E25CE3CA
:100BB0006B817C818D819E810E9472269B01AC019C
:100BC000F70160817181828193810E947126F70112
:100BD00060837183828393838CEE91E5A8EBBDE300
:100BE0008B839C83AD83BE832F81293CC0F12FC0B2
:100BF0007801F2EBEF0EF11C2AE037ED43E25CE303
:100C00006B817C818D819E810E947226F7012081FB
:100C10003181428153810E947226F7016083718382
:100C2000828393838CEE91E5A8EBBDE38B839C8359
:100C3000AD83BE832F81293C90F00CC02F81293CCD
:100C400070F08330910519F0049731F403C02150FE
:100C50002F8302C02F5F2F838F81893C18F488EC8B
:100C60008F8304C08A3C10F08AEC8F83F801EE5425
:100C7000FF4FC080D180E280F38020E030E0A90106
:100C8000C701B6010E94DE26181664F0F801EE5482
:100C9000FF4F8AE097EDA3E2BCE380839183A283B8
:100CA000B38315C020E030E040E450E4C701B60152
:100CB0000E943D2888235CF0F801EE54FF4F80E04D
:100CC00090E0A0E4B0E480839183A283B38314C056
:100CD00080E012C08130910509F455CF8230910532
:100CE00009F0ACCF4DCF8130910509F44CCF823063
:100CF000910509F445CFA2CFDF91CF911F910F91BC
:100D0000FF90EF90DF90CF900895CF92DF92EF9217
:100D1000FF920F931F93CF93DF93EC01CB018A01D6
:100D200064E670E00E948E229C0125503109223039
:100D3000310508F44EC18F3F2FEF920729F41B8233
:100D40001C821D821E8245C12F81243D59F40097CB
:100D500009F04AC181E088839DE09F83C856DF4F38
:100D6000888337C1253D51F4009709F034C11882BA
:100D70001F82C856DF4F81E088832BC181309105E7
:100D800031F08230910531F42F5F2F839FC02150C5
:100D90002F839CC03EE2320F323008F097C0833080
:100DA000910529F08430910509F44BC08FC0223D94
:100DB000E9F4780186EBE80EF11C2AE037ED43E216
:100DC0005CE36B817C818D819E810E9472269B01F8
:100DD000AC01F70160817181828193810E9471264B
:100DE000F70160837183828393831CC07801FAEBDF
:100DF000EF0EF11C2AE037ED43E25CE36B817C816E
:100E00008D819E810E9472269B01AC01F701608159
:100E10007181828193810E947126F70160837183C1
:100E2000828393838CEE91E5A8EBBDE38B839C8357
:100E3000AD83BE832F818CE2820F823008F056C0D2
:100E400050C0223DD9F47801F6EBEF0EF11C2AE0F8
:100E500037ED43E25CE36B817C818D819E810E9452
:100E60007226F70120813181428153810E947226CE
:100E7000F70160837183828393831AC07801FAEB50
:100E8000EF0EF11C2AE037ED43E25CE36B817C81DD
:100E90008D819E810E947226F701208131814281DD
:100EA00053810E947226F70160837183828393834A
:100EB0008CEE91E5A8EBBDE38B839C83AD83BE8371
:100EC0002F818CE2820F823088F40EC02F813CE2A9
:100ED000320F323058F48330910519F0049731F411
:100EE00003C021502F8302C02F5F2F838F81833D4A
:100EF00018F482ED8F8304C0853D10F085ED8F835B
:100F000020E030E0A901F801EA54FF4F60817181CF
:100F1000828193810E94DE2618163CF0F801EA5483
:100F2000FF4F108211821282138220E030E040EAEB
:100F300050E4F801E654FF4F608171818281938112
:100F40000E943D2888235CF080E090E0A0EAB0E4B5
:100F5000F801E654FF4F80839183A283B3838F818E
:100F6000823D19F0833DD9F033C0F801E654FF4FBC
:100F7000C080D180E280F380A70196013497608120
:100F80007181828193810E943D2888230CF1F801B0
:100F9000EA54FF4FC082D182E282F38219C0F80185
:100FA000EA54FF4FC080D180E280F380A701960110
:100FB000349660817181828193810E94DE261816A9
:100FC0003CF0F801E654FF4FC082D182E282F38206
:100FD00014C080E012C08130910509F4D8CE82306F
:100FE000910509F073CFD0CE8130910509F4CFCEB1
:100FF0008230910509F4C8CE69CFDF91CF911F915E
:101000000F91FF90EF90DF90CF900895CF92DF92F5
:10101000EF92FF920F931F93CF93DF93EC01CB01DD
:101020008A0164E670E00E948E229C0125503109FD
:101030002230310508F4DBC08F3F2FEF920729F4EF
:101040001B821C821D821E82D2C02F812E3D59F42C
:10105000009709F0D7C081E088839EE09F83C8563F
:10106000DF4F8883C4C02F3D51F4009709F0C1C001
:1010700018821F82C856DF4F81E08883B8C0813054
:10108000910531F08230910531F42F5F2F830BC031
:1010900021502F8308C02D3D31F4009721F4C80161
:1010A0000E94CA1267C02F812C3D09F055C08330C1
:1010B000910521F08430910549F14EC078018EEB05
:1010C000E80EF11C20E030E040E85FE36B817C81BA
:1010D0008D819E810E9472269B01AC01F701608187
:1010E0007181828193810E947126F70160837183EF
:1010F0008283938380E090E0A0E1B1E48B839C83C2
:10110000AD83BE832F812E3DA8F12FC07801FEEB69
:10111000EF0EF11C20E030E040E85FE36B817C8162
:101120008D819E810E947226F7012081318142814A
:1011300053810E947226F7016083718382839383B7
:1011400080E090E0A0E1B1E48B839C83AD83BE831B
:101150002F812E3D78F00CC02F812E3D58F083302A
:10116000910519F0049731F403C021502F8302C078
:101170002F5F2F838F818D3D18F48CED8F8304C0FA
:101180008F3D10F08FED8F83F801E254FF4FC08048
:10119000D180E280F38020E030E040EA50E4C701F3
:1011A000B6010E94DE26181664F0F801E254FF4FE3
:1011B00080E090E0A0EAB0E480839183A283B383CF
:1011C00015C020E030EC49E754E4C701B6010E94A5
:1011D0003D2888235CF0F801E254FF4F80E090EC5A
:1011E000A9E7B4E480839183A283B38314C080E031
:1011F00012C08130910509F44BCF8230910509F07E
:1012000052CF43CF8130910509F442CF823091050E
:1012100009F43BCF48CFDF91CF911F910F91FF9001
:10122000EF90DF90CF9008950F931F93CF93DF93AC
:10123000EC01CB018A0164E670E00E948E229C01E1
:10124000255031092230310508F463C08F3F2FEF5C
:10125000920709F45EC0009779F42F81263E21F4AD
:10126000C8010E94D21255C02B3E09F054C081E043
:1012700088838FE08F834DC02F818130910571F07D
:101280008230910541F00DC018821F82C856DF4F91
:1012900081E088833EC02F5F2F8330C021502F8391
:1012A00015C08430910531F48F818B3E29F58CEE89
:1012B0008F832FC08330910531F48F818C3EB9F438
:1012C0008BEE8F8326C08130910531F48F818C3E67
:1012D000A9F48BEE8F831DC08330910541F08430DB
:1012E000910551F0892B51F487E0888307C081E094
:1012F00088838FE08F830DC087E088838F81873E4E
:1013000018F486EE8F8304C08C3E10F08CEE8F8331
:1013100005C080E003C02C3E21F6B6CFDF91CF910F
:101320001F910F910895CF93DF93EC01CB0164E6F9
:1013300070E00E948E229C01255031092230310537
:1013400028F0019619F086E0888301C080E0DF91E3
:10135000CF9108950F931F93CF93DF93EC018B01EF
:101360008F81823069F018F4813031F019C08330F8
:1013700061F0843081F014C0CB010E94972510C029
:10138000CB018C960E9497250BC0CB01885A9F4FAA
:101390000E94972505C0CB018C579F4F0E9497252F
:1013A000FE01E456FF4F808181110DC0C8010E94EB
:1013B000610D882341F088E08883C656DF4F81E0C5
:1013C00090E099838883DF91CF911F910F910895C9
:1013D000FC01EA56FF4F21E02083FC0127812530E4
:1013E00041F0263061F0243079F4E756FF4F108247
:1013F0000BC021E0FC01E756FF4F208305C022E02F
:10140000FC01E756FF4F208328E0FC012083E656CD
:10141000FF4F118210820895DC011196ED91FC912D
:101420001297EE0FFF1FEE0FFF1FEE51FF4F65915A
:101430007591859194910895FC01DC01A956BF4FE7
:1014400081E08C938781893039F08A3059F0883077
:1014500071F412961C920BC081E0DF01A756BF4FBA
:101460008C9305C082E0DF01A756BF4F8C9382E0CA
:101470008083178208950F931F93CF93DF93EC011E
:101480008B01CA010E94331264E670E0C8010E9419
:101490008E228530910521F418821F8280E065C07C
:1014A0008630910521F418821F8280E05EC08F3F54
:1014B0002FEF920709F458C02F8130E0A901440FA3
:1014C000551F440F551F240F351F2C0F3D1FF901C9
:1014D000E80FF91F22A9822F90E0FC01E756F109DD
:1014E000EB30F105F0F5EC5CFF4F0C94C32818824B
:1014F0001F8281E03AC0CE010E94E80981E035C038
:10150000CE010E94E80981E030C0CE010E94E809C6
:1015100081E02BC0CE010E941C0A81E026C0CE01D2
:101520000E941C0A81E021C0CE010E941C0A81E0B9
:101530001CC083E0888388EC8F8381E016C084E040
:10154000888382ED8F8381E010C085E088838CEDF5
:101550008F8381E00AC086E0888386EE8F8381E0F6
:1015600004C02F8381E001C080E0DF91CF911F9103
:101570000F910895CF93DF93EC01CB0164E670E007
:101580000E948E22019611F480E005C01882C45694
:10159000DF4F81E08883DF91CF9108950F931F93F0
:1015A000CF93DF938C01CB01EA0164E670E00E94E7
:1015B0008E22019611F480E008C0CD53DF4F1882CF
:1015C00086E0F801808386EE8783DF91CF911F91BB
:1015D0000F910895FC01E656FF4F208131812230A2
:1015E000310501F13CF42115310559F02130310567
:1015F000B1F0089523303105C1F02039314011F1A7
:101600000895EFE3FDE023E0E150F0402040E1F7F2
:1016100000C0000021E0FC012083278308950E9480
:10162000BA0A08950E94CE0A0895FFE32DE033E040
:10163000F15020403040E1F700C00000FC01108272
:1016400017820895FFE32DE033E0F1502040304051
:10165000E1F700C0000024E0FC01208322ED278395
:101660000895EF92FF920F931F93CF93DF93EC01B6
:101670008B017A01FC01E456FF4F808181110EC07D
:10168000CB010E94610D882349F088E0888381E0C6
:1016900090E0FE01E656FF4F91838083C8010E94CF
:1016A000BC12C8010E943513811108C088E08883EC
:1016B000C656DF4F83E090E09983888385E0E81683
:1016C000F10429F086E0E816F10429F007C0C8010A
:1016D0000E94641403C0C8010E94A513DF91CF913A
:1016E0001F910F91FF90EF900895EF92FF920F934B
:1016F0001F93CF93DF93EC017B018A01CA010E9403
:10170000331264E670E0C7010E948E22AC01059797
:10171000029730F4B801CE010E94310B80E039C04D
:101720004F3F8FEF5807A1F19F81292F30E0C9016A
:10173000880F991F280F391F220F331F2C0F3D1FB1
:10174000F901E40FF51F80858536A1F018F4843681
:1017500031F01BC08636A9F0823739F016C0B801C7
:10176000CE010E94AA0981E014C0C8010E94091399
:1017700081E00FC082E08883C8010E944B0D81E0A8
:1017800008C081E088831F8204C08F8381E001C08C
:1017900080E0DF91CF911F910F91FF90EF9008951E
:1017A000EF92FF920F931F93CF93DF938C01CB01A6
:1017B0007A0164E670E00E948E22EC0105970297A0
:1017C00030F4AE01B701C8010E94310B55C0CF3FC4
:1017D0008FEFD80709F450C0C7010E94351381115B
:1017E00009C088E0F801808383E090E0E656FF4F6F
:1017F00091838083C230D105C1F02CF4209749F049
:10180000219751F028C0C330D105C1F02497E9F0E9
:1018100022C0F80110821FC0C8010E940C0AAB014F
:10182000BC01C7010E94381416C0C8010E940C0AEE
:10183000AB01BC01C7010E9479130DC0F801818181
:10184000928101979283818306C0F8018181928100
:10185000019692838183F80181819281181619067D
:101860001CF01282118207C043972CF083E190E0B4
:10187000F8019283818301C080E0DF91CF911F91B5
:101880000F91FF90EF9008950F931F93DC01EC915F
:101890000E2F10E009301105F8F4F801E15CFF4F5C
:1018A0000C94C3280E94750B17C00E943B0A14C0F9
:1018B0000E94D00B11C00E9481050EC00E948506B7
:1018C0000BC00E94060808C00E94140905C00E94AF
:1018D000930902C00E94EA0A1F910F91089521E026
:1018E000FC01208328E0278308950895FC0160838C
:1018F0004183528384EF91E0968385836334A1F022
:10190000643411F1623479F524B181E090E002C0D1
:10191000880F991F4A95E2F7982F9095922394B9D2
:1019200095B1892B85B9089527B181E090E002C077
:10193000880F991F4A95E2F7982F9095922397B9AF
:1019400098B1892B88B908952AB181E090E002C04E
:10195000880F991F4A95E2F7982F909592239AB98C
:101960009BB1892B8BB90895FC01772374F1808199
:10197000833479F08434B9F0823409F06AC083B1D9
:1019800090E0018002C0959587950A94E2F78170F6
:1019900013C086B190E0018002C0959587950A94A6
:1019A000E2F7817009C089B190E0018002C095958D
:1019B00087950A94E2F78170882309F44EC084EF7A
:1019C00091E09683858380E0089514821382858157
:1019D00096811816190634F036C025813681821793
:1019E00093078CF58081833471F08434B1F08234B4
:1019F00091F523B130E0018002C0359527950A9416
:101A0000E2F7217013C026B130E0018002C03595A5
:101A100027950A94E2F7217009C029B130E00180CE
:101A200002C0359527950A94E2F7217089EF90E07E
:101A30000197F1F700C0000083819481019694839F
:101A40008383222351F284E690E09683858381E0AC
:101A5000089580E0089580E0089514821382B7CF3E
:101A6000CF93DF93EC010E943124CE018C960E942B
:101A70003124CE01885A9F4F0E943124CE018C57C9
:101A80009F4F0E943124CE0180559F4F0E946923B1
:101A9000DF91CF910895CF93DF93EC010E946F24E3
:101AA000CE018C960E946F24CE01885A9F4F0E94CF
:101AB0006F24CE018C579F4F0E946F24DF91CF91EE
:101AC0000895CF93DF93EC010E94FE25811112C08F
:101AD000CE018C960E94FE2581110CC0CE01885A41
:101AE0009F4F0E94FE25811105C0CE018C579F4F4C
:101AF0000E94FE25DF91CF910895CF93DF93FC01E3
:101B0000DC01A654BF4F8D919D910D90BC91A02DED
:101B100086839783A087B18782AB93ABA4ABB5AB29
:101B2000EF01C25ADF4F88839983AA83BB83AC96A7
:101B300088839983AA83BB83DF01AA54BF4F8D9109
:101B40009D910D90BC91A02D82879387A487B58726
:101B500086AB97ABA0AFB1AFA89788839983AA83D0
:101B6000BB83E257FF4F80839183A283B383DF91CE
:101B7000CF910895CF93DF93EC010E943C25CE01D5
:101B80008C960E943C25CE01885A9F4F0E943C258E
:101B9000CE018C579F4F0E943C25DF91CF91089535
:101BA0004F925F926F927F928F929F92AF92BF926D
:101BB000CF92DF92EF92FF920F931F93CF93DF9319
:101BC000EC010E9435244E018CE2880E911CC40168
:101BD0000E9435245E0198E5A90EB11CC5010E9442
:101BE00035246E01E4E8CE0ED11CC6010E943524D6
:101BF0003E01F0EB6F0E711CEE24E394F12C01E03A
:101C000010E021E030E041E050E06AE070E0C30124
:101C10000E946F23CE010E94F9242E0194ED490EFB
:101C2000511C90E0F20191838083C4010E94F92449
:101C3000FE01EA52FF4F90E091838083C5010E942C
:101C4000F924FE01E852FF4F90E091838083C601A2
:101C50000E94F924FE01E652FF4F90E091838083B9
:101C60006894EE24E1F8F12C02E010E022E030E08C
:101C700042E050E06AE070E0C3010E946F23F2018D
:101C800080819181892B79F0329680819181892B95
:101C900051F0329680819181892B29F03296808192
:101CA0009181892B31F4CD53DF4F81E0888380E02F
:101CB00001C081E0DF91CF911F910F91FF90EF90D4
:101CC000DF90CF90BF90AF909F908F907F906F905C
:101CD0005F904F900895CF93DF93EC0161E070E047
:101CE0000E94442462E070E0CE018C960E9444245D
:101CF00063E070E0CE01885A9F4F0E94442464E064
:101D000070E0CE018C579F4F0E944424CE01805535
:101D10009F4F0E946A23FE01E252FF4F81E090E054
:101D200091838083CE010E94D00DDF91CF910895E1
:101D3000CF93DF93FC01EB53FF4FDC0193962D9182
:101D40003C91949731832083A953BF4FEC01C15B31
:101D5000DF4F2881398111963C932E931296AC96D1
:101D60002881398111963C932E931296AC96288146
:101D700039812D933C93DF01AC0143535F4F619157
:101D800071911616170624F0E417F507C1F727C05E
:101D90006115710539F12D913D911216130624F448
:101DA000261737070CF4B901A417B507A1F7633359
:101DB000710514F062E370E0EC01072E000C880B53
:101DC000990B0E948D27CE54DF4F288139814A819B
:101DD0005B810E9442280E945527CB0105C080E00C
:101DE00090E002C080E090E0DF91CF910895CF9223
:101DF000DF92EF92FF920F931F93CF93DF93CDB7B4
:101E0000DEB78B859C858230910571F01CF40197BB
:101E100039F01DC08330910571F00497A1F017C00F
:101E2000CC24C394D12C13C0CC24C3940F2EFBE03C
:101E3000DF2EF02D0CC06894CC24C2F80F2EFBE0EE
:101E4000DF2EF02D04C06894CC24C2F8D12CCE0132
:101E50000B960E9435248B019C016894EE24E1F8D6
:101E6000F12C41E06C2D8D2D0E949F170E9495153D
:101E7000DF91CF911F910F91FF90EF90DF90CF9066
:101E800008954F925F926F927F928F929F92AF923E
:101E9000BF92CF92DF92EF92FF920F931F93CF9357
:101EA000DF93EC010E947F246E019EECC90ED11CD1
:101EB000F60180838DB79EB78C970FB6F8949EBFBE
:101EC0000FBE8DBFADB7BEB711968CE2FE0101907B
:101ED0000D928A95E1F7CE010E94F70E5E019CE219
:101EE000A90EB11CEDB7FEB7BC960FB6F894FEBFB5
:101EF0000FBEEDBFC5010E947F244E01FFEC8F0E87
:101F0000911CF40180838DB79EB78C970FB6F8941F
:101F10009EBF0FBE8DBFADB7BEB711968CE2F50167
:101F200001900D928A95E1F7CE010E94F70E3E01D5
:101F300098E5690E711CEDB7FEB7BC960FB6F89424
:101F4000FEBF0FBEEDBFC3010E947F248E01005370
:101F50001F4FF80180838DB79EB78C970FB6F8940A
:101F60009EBF0FBE8DBFADB7BEB711968CE2F30119
:101F700001900D928A95E1F7CE010E94F70E2E0195
:101F800094E8490E511CEDB7FEB7BC960FB6F89415
:101F9000FEBF0FBEEDBFC2010E947F247E01F1EDA6
:101FA000EF0EF11CF70180838DB79EB78C970FB6AB
:101FB000F8949EBF0FBE8DBFADB7BEB711968CE231
:101FC000F20101900D928A95E1F7CE010E94F70E81
:101FD000EDB7FEB7BC960FB6F894FEBF0FBEEDBFCF
:101FE000F701E080F12CF801008110E0F40120817C
:101FF00030E0F601408150E06AE070E0CE018055AB
:102000009F4F0E946F23F6018081882351F0CE01FB
:102010000E94F924FE01EC52FF4F90E091838083EF
:1020200007C081E090E0FE01EC52FF4F9183808376
:10203000FE01E153FF4F8081882351F0C5010E94CA
:10204000F924FE01EA52FF4F90E09183808307C09C
:1020500081E090E0FE01EA52FF4F91838083FE0110
:10206000E053FF4F8081882351F0C3010E94F9247F
:10207000FE01E852FF4F90E09183808307C081E02A
:1020800090E0FE01E852FF4F91838083FE01EF5202
:10209000FF4F8081882351F0C2010E94F924FE0184
:1020A000E652FF4F90E09183808307C081E090E08B
:1020B000FE01E652FF4F91838083FE01EC52FF4FF9
:1020C00080819181892B79F0329680819181892B51
:1020D00051F0329680819181892B29F0329680814E
:1020E0009181892B31F4CD53DF4F81E0888380E0EB
:1020F00001C081E0DF91CF911F910F91FF90EF9090
:10210000DF90CF90BF90AF909F908F907F906F9017
:102110005F904F9008952F923F924F925F926F92EF
:102120007F928F929F92AF92BF92CF92DF92EF9267
:10213000FF920F931F93CF93DF93CDB7DEB72E9708
:102140000FB6F894DEBF0FBECDBF9E878D870E946D
:10215000BA0DED85FE85E452FF4F81E090E091835A
:1021600080838D859E850E94410F882309F462C17A
:10217000ED85FE85E452FF4F808191811816190686
:102180000CF058C1812C912C6D847E842EEC620E53
:10219000711C8D859E858C969A8389834D845E847F
:1021A0009FEC490E511CED85FE85E85AFF4FFC83DC
:1021B000EB832D843E84F0ED2F0E311C2D853E8562
:1021C0002C573F4F3E832D838D859E858F529F4F89
:1021D00098878F83ED85FE85E452FF4FFA87E98764
:1021E0002D853E8520553F4F3C872B8705C098ECB9
:1021F0008916910409F4BDC08D859E850E947F24B7
:10220000F30180832DB73EB72C5231090FB6F894F5
:102210003EBF0FBE2DBFADB7BEB711968CE2ED85A8
:10222000FE8501900D928A95E1F78D859E850E942D
:10223000F70E0FB6F894DEBF0FBECDBF89819A812D
:102240000E947F24F20180832DB73EB72C523109C2
:102250000FB6F8943EBF0FBE2DBFADB7BEB71196F7
:102260008CE2E981FA8101900D928A95E1F78D85E2
:102270009E850E94F70E0FB6F894DEBF0FBECDBF4D
:102280008B819C810E947F24F10180832DB73EB712
:102290002C5231090FB6F8943EBF0FBE2DBFADB71B
:1022A000BEB711968CE2EB81FC8101900D928A956C
:1022B000E1F78D859E850E94F70E0FB6F894DEBF7C
:1022C0000FBECDBF8D819E810E947F24EF81F88556
:1022D00080832DB73EB72C5231090FB6F8943EBF1C
:1022E0000FBE2DBFADB7BEB711968CE2ED81FE815A
:1022F00001900D928A95E1F78D859E850E94F70EDB
:10230000F301A080B12CF201C080D12CF101008139
:1023100010E0EF81F885E080F12CC5018C0D9D1D4A
:10232000800F911F8E0D9F1DE985FA859183808313
:102330000FB6F894DEBF0FBECDBF8D859E850E947F
:10234000980E9601A501BC018B859C850E946F2388
:102350003FEF831A930AE985FA85808191811816E7
:1023600019060CF444CF34E6831691040CF462C0D1
:1023700000C0ED85FE85E253FF4F8081882359F030
:1023800081E0ED85FE85848F22E030E030A3278F49
:10239000ED53FF4F8083ED85FE85E153FF4F808134
:1023A000882399F081E0ED85FE85E85BFF4F80830F
:1023B00022E030E0ED85FE85E55BFF4F3183208331
:1023C000ED85FE85ED53FF4F8083ED85FE85E0535F
:1023D000FF4F8081882399F081E0ED85FE85EC58E0
:1023E000FF4F808322E030E0ED85FE85E958FF4F06
:1023F00031832083ED85FE85ED53FF4F8083ED858E
:10240000FE85EF52FF4F80818823A1F0ED85FE8588
:10241000E056FF4F81E08083ED85FE85ED55FF4F4F
:1024200022E030E0318320832D853E852D533F4FC0
:10243000F90180832E960FB6F894DEBF0FBECDBF94
:10244000DF91CF911F910F91FF90EF90DF90CF9090
:10245000BF90AF909F908F907F906F905F904F90C4
:102460003F902F900895CF92DF92EF92FF920F93BB
:102470001F93CF93DF93FC01EE53FF4F2081222364
:1024800009F471C0EC010E946E256E018CE2C80E49
:10249000D11CC6010E946E257E0188E5E80EF11C64
:1024A000C7010E946E258E010C571F4FC8010E9464
:1024B0006E25FE01E65BFF4F9E8D8081892BBC96C9
:1024C0009081892B29F4BC968081882309F44BC024
:1024D000FE01E254FF4F60817181828193810E94ED
:1024E0005527CE010E942025882329F081E0FE0196
:1024F000ED53FF4F8083FE01E254FF4F60817181F5
:10250000828193810E945527C6010E94202588233D
:1025100029F081E0FE01ED53FF4F8083FE01E2547C
:10252000FF4F60817181828193810E945527C7018D
:102530000E942025882329F081E0FE01ED53FF4F02
:102540008083FE01E254FF4F60817181828193811B
:102550000E945527C8010E942025882321F0CD53D1
:10256000DF4F81E08883DF91CF911F910F91FF9022
:10257000EF90DF90CF900895FC0112A211A2E35BCF
:10258000FF4F11821082BC9611821082BC9611827C
:1025900010820895FC01EE53FF4F808191E098274F
:1025A00090830895FC01148E10A2178EE85BFF4FF4
:1025B0001082339611821082B9961082339611825E
:1025C0001082B99610823396118210820895FC0110
:1025D000248D211102C021E0238FFC01E85BFF4F15
:1025E0002081211103C021E031972083FC01EC58A8
:1025F000FF4F2081211103C021E031972083FC018E
:10260000E056FF4F2081211103C0319721E0208344
:102610000895CF93DF93EC010E9403268823F9F0FD
:10262000CE018C960E9403268823C9F0CE01885AD9
:102630009F4F0E940326882391F0CE018C579F4F15
:102640000E940326882359F01B8EFE01E95BFF4F91
:102650001082BC961082C156DF4F188203C0CE0193
:102660000E94E712DF91CF910895FC01838D8111C3
:102670000DC0DF01A95BBF4F8C91811107C09C96F3
:102680008C91811103C0E156FF4F80810895CF9353
:10269000DF93EC010E940926CE018C960E94092648
:1026A000CE01885A9F4F0E940926CE018C579F4F1A
:1026B0000E9409268E8581110DC08AAD81110AC044
:1026C000FE01EA59FF4F8081811104C0BC968081D0
:1026D000882361F01E861AAEFE01EA59FF4F108270
:1026E000BC961082CC53DF4F81E08883DF91CF917D
:1026F0000895CF92DF92EF92FF92CF93DF93EC0198
:102700006A017B010E94CD25B701A601CE018C96FE
:102710000E94CD25B701A601CE01885A9F4F0E9485
:10272000CD25B701A601CE018C579F4F0E94CD2524
:10273000CE010E948B10CE010E944713DF91CF91F2
:10274000FF90EF90DF90CF900895EF92FF920F935C
:102750001F93CF93DF93EC018B8D882331F082E0C0
:10276000FE01E253FF4F808304C0FE01E253FF4F9E
:102770001082FE01E95BFF4F8081882329F082E00F
:10278000E857FF4F808304C0FE01E153FF4F1082E2
:10279000FE01ED58FF4F8081882329F082E0E35A43
:1027A000FF4F808304C0FE01E053FF4F1082FE0103
:1027B000E156FF4F8081882321F082E0F2968083EA
:1027C00004C0FE01EF52FF4F1082CE010E9447135A
:1027D000811115C0FE01EF52FF4FE080F12C3197BF
:1027E000008110E03197208130E03197408150E046
:1027F0006AE070E0CE0180559F4F0E94D023DF91A8
:10280000CF911F910F91FF90EF900895CF93DF9399
:10281000EC010E943D26CE018C960E943D26CE0101
:10282000885A9F4F0E943D26CE018C579F4F0E9491
:102830003D268E8581110DC08AAD81110AC0FE0131
:10284000EA59FF4F8081811104C0BC9680818823A2
:1028500061F01E861AAEFE01EA59FF4F1082BC9647
:102860001082CC53DF4F81E08883DF91CF910895B0
:10287000CF92DF92EF92FF92CF93DF93EC016A0148
:102880007B010E949D25B701A601CE018C960E9476
:102890009D25B701A601CE01885A9F4F0E949D2514
:1028A000B701A601CE018C579F4F0E949D25CE01F6
:1028B0000E948B10CE010E940614DF91CF91FF90F1
:1028C000EF90DF90CF900895EF92FF920F931F93B8
:1028D000CF93DF93EC018B8D882331F081E0FE01F3
:1028E000E253FF4F808304C0FE01E253FF4F10828A
:1028F000FE01E95BFF4F8081882329F081E0E857E2
:10290000FF4F808304C0FE01E153FF4F1082FE01A0
:10291000ED58FF4F8081882329F081E0E35AFF4F73
:10292000808304C0FE01E053FF4F1082FE01E15698
:10293000FF4F8081882321F081E0F296808304C0DC
:10294000FE01EF52FF4F1082CE010E94061481114A
:1029500015C0FE01EF52FF4FE080F12C319700814E
:1029600010E03197208130E03197408150E06AE0FB
:1029700070E0CE0180559F4F0E94D023DF91CF9110
:102980001F910F91FF90EF9008952A98613011F4F4
:10299000299A01C029988EBD0DB407FEFDCF2A9A51
:1029A0000895CF92DF92EF92FF920F931F93CF93F0
:1029B000DF936B017C01EA01CA010197209781F046
:1029C00061E070E09B01220F331F660F771F660FD7
:1029D000771F660F771F620F731F019798F702C06A
:1029E00061E070E0072E000C880B990B0E948D2788
:1029F000A70196010E9442280E945527AB01BC0105
:102A0000CA0199231CF021E030E002C02FEF3FEF14
:102A1000249FC001259F900D349F900D112407E83D
:102A200013E00F2EFAE0EF2EF12CF02D0F2EFEE228
:102A3000DF2EF02D02C08F01EA01F801B7010E94DC
:102A4000AF28805D8293862F972FAE0141505109A8
:102A500019F4F8013297D082009769F71416150619
:102A6000D4F4BE0162507109DF0140E32197CE1B0F
:102A7000DF0B4E93CD018C0F9D1F18161906CCF35A
:102A8000CB01992314F480E090E080959095E80FB5
:102A9000F91F8EE2829380818E3211F480E382935B
:102AA000332314F48DE28293CF01DF91CF911F91F4
:102AB0000F91FF90EF90DF90CF9008952C9A84B102
:102AC0008E6384B92C982C9A80E58CBD2A9A60E09C
:102AD00081E20E94C51460E088EC0E94C51460E0A9
:102AE00086E00E94C51460E083E10E94C51460E0A6
:102AF00080E20E94C51460E08CE00E94C514089535
:102B000088EF91E0EEE8F3E0DF019C011D92215097
:102B10003040E1F710928D0310928C0387EF91E023
:102B200090938B0380938A030895EF92FF920F9303
:102B30001F93CF93DF9380918C0390918D03992302
:102B40002CF410928D0310928C0309C0883F9140A1
:102B500034F087EF91E090938D0380938C03809104
:102B60008A0390918B0399232CF410928B0310927B
:102B70008A0309C0883F914034F087EF91E0909339
:102B80008B0380938A03C0918C03D0918D03CE0177
:102B900064E570E00E94AF28162F60E080680E9414
:102BA000C51460E0812F80640E94C514E0908A0300
:102BB000F0908B03EC16FD066CF08E0102571C4F53
:102BC00061E0F80181918F010E94C5142196EC16F5
:102BD000FD06B4F787EF91E090938D0380938C030B
:102BE00010928B0310928A03DF91CF911F910F9166
:102BF000FF90EF9008958E30A8F46630A8F490E02E
:102C00009C01220F331F820F931F880F991F24E509
:102C1000629F800D911D11249093890380938803F6
:102C200080E0089581E0089581E00895409188034F
:102C300050918903805297E0899FF0011124EE5E44
:102C4000FC4FDA01A257BC4F9A012C563C4F84919D
:102C50008D933196A217B307D1F74A5F5F4F509318
:102C600089034093880380E0089540918803509140
:102C7000890390E0FC01EE0FFF1FE80FF91FEE0F34
:102C8000FF1FEE0FFF1FEE0FFF1FEE5CFE4FDA017E
:102C9000A257BC4F9A012A553C4F84918D9331968F
:102CA000A217B307D1F7485E5F4F50938903409353
:102CB000880380E008950F931F93CF93DF93409193
:102CC00088035091890320918C0330918D03421722
:102CD000530724F450938D0340938C03E0EEE60FEA
:102CE000E03A08F4A0C0603C08F49CC0EDECE60FAC
:102CF0009AC08491880F8D933196A217B307C9F7B4
:102D00004B5F5F4F509389034093880365C08230C7
:102D100009F062C0CA018455910920918C03309159
:102D20008D03821793070CF08EC090938D038093D0
:102D30008C0389C02491220F822F8270982F990FC3
:102D4000890F982F990F822F8470382F330F830F9C
:102D5000880F880F892B022F0870019F002D1124E6
:102D6000082B30E03595279535952795359527958E
:102D700035952795822F8270382F330F830F880F58
:102D8000322F3170932F990F390F832B922F94701C
:102D9000392F330F930F990F990F892B922F98701A
:102DA000919F902D1124282F292B088309832C9380
:102DB00011962C931197319622961296A617B70763
:102DC00009F0B8CFCA010B9668EF71E00E94AF28F6
:102DD000909389038093880380918803909189035D
:102DE00020918A0330918B032817390724F490939C
:102DF0008B0380938A03FC01E257FC4F1082873FCC
:102E000021E0920731F4109289031092880382E046
:102E10002DC00196909389038093880380E026C09B
:102E200081E024C0EFE5813009F071CF87E0E89FB1
:102E3000F0011124EE5EFC4FDA01A257BC4F9A015B
:102E40002D563C4F56CF99235CF327E0E29FF001CB
:102E50001124EE5EFC4FEA01C65CDC4FDA01A2579A
:102E6000BC4FBA0168567C4F18E164CFDF91CF9117
:102E70001F910F9108950F931F93CF93DF93D42F3A
:102E800089010E94FB15F8016081662379F0C0E09A
:102E90008D2F0E945B16813041F0CF5FF801EC0F5F
:102EA000F11D60816111F4CF01C061E0862FDF91D7
:102EB000CF911F910F910895FF920F931F93CF937E
:102EC000DF93F42E89010E94FB15F80160816623CF
:102ED00091F0C0E06E3221F08F2D0E945B16D82F4A
:102EE000D13041F0CF5FF801EC0FF11D608161112D
:102EF000F1CF01C061E0862FDF91CF911F910F913B
:102F0000FF900895DF92EF92FF920F931F93CF935C
:102F1000DF93C82FD62FD42EA701C901B8010E9474
:102F2000D1149C014D2D6D2F8C2F0E943B17DF91EA
:102F3000CF911F910F91FF90EF90DF900895DF9256
:102F4000EF92FF920F931F93CF93DF93C82FD62F4B
:102F5000D42EA701C901B8010E94D1149C014D2DA6
:102F60006D2F8C2F0E945C17DF91CF911F910F91D5
:102F7000FF90EF90DF900895CF92DF92EF92FF9253
:102F80000E945E1584E296E00E94592285E596E053
:102F90000E946B0E65E576E086E895E00E94870466
:102FA00089E490E00E94E5286B017C0120E030E09C
:102FB000A9010E943D28181694F020E030E040E47A
:102FC00050E4C701B6010E94DE26882344F040E0A9
:102FD00050E060E87FE389E490E00E94F92889E40A
:102FE00090E00E94E528609307077093080780939C
:102FF000090790930A0785E490E00E94E5286B0199
:103000007C0120E030E0A9010E943D2888238CF457
:1030100020E030E040EA50E4C701B6010E94DE261D
:1030200018163CF440E050E0BA0185E490E00E94BC
:10303000F92885E490E00E94E52860930B077093DF
:103040000C0780930D0790930E0781E490E00E9497
:10305000E5286B017C0120E030E0A9010E943D28B9
:10306000882394F420E030E040EA50E4C701B60140
:103070000E94DE26181644F440E050E060EA70E456
:1030800081E490E00E94F92881E490E00E94E52824
:1030900060930F07709310078093110790931207A6
:1030A00085E596E00E947D0D8CE390E00E94E52886
:1030B0006B017C0120E030E0A9010E943D288823BB
:1030C000BCF420E030EC49E754E4C701B6010E94AB
:1030D000DE2618166CF440E050E068E472E48CE3FD
:1030E00090E00E94F92861E080E490E00E94EB28E3
:1030F0008CE390E00E94E528609313077093140717
:10310000809315079093160780E490E00E94DD28D5
:1031100091E0811101C090E090931707FF90EF902C
:10312000DF90CF9008958823D1F140910707509107
:1031300008076091090770910A0789E490E00E94EE
:10314000F92840910B0750910C0760910D07709181
:103150000E0785E490E00E94F92840910F075091F6
:103160001007609111077091120781E490E00E94AE
:10317000F92885E596E00E947D0D40911307509156
:10318000140760911507709116078CE390E00E9478
:10319000F9286091170780E490E00E94EB280895D9
:1031A0000F931F93CF93DF9320911C06222399F155
:1031B000EC0185E596E00E943524AB01BC0184E179
:1031C0008C9F80018D9F100D1124C8018C5F9F4F33
:1031D0000E94F92881E896E00E943524AB01BC01E9
:1031E000C801885F9F4F0E94F9288DEA96E00E94EF
:1031F0003524AB01BC01C801845F9F4F0E94F928B0
:1032000089ED96E00E943524AB01BC01C801805FC6
:103210009F4F0E94F92810921C06DF91CF911F91B9
:103220000F9108950F931F93CF93DF9320911D0665
:10323000222309F44FC0EC0185E596E00E94E712D5
:1032400045E556E066E875E083E296E00E94C52118
:1032500084E18C9F80018D9F100D1124C8018C5F2B
:103260009F4F0E94E52860936C0670936D068093D3
:103270006E0690936F06C801885F9F4F0E94E528F5
:10328000609398067093990680939A0690939B0694
:10329000C801845F9F4F0E94E5286093C406709325
:1032A000C5068093C6069093C706C801805F9F4FEE
:1032B0000E94E5286093F0067093F1068093F20671
:1032C0009093F30685E596E00E948B1086E895E0E2
:1032D0000E946F0C10921D06DF91CF911F910F91EC
:1032E00008950E94BC17CFE1D6E00EE116E045E557
:1032F00056E064E276E086E895E00E94440C45E5FD
:1033000056E066E875E083E296E00E94C521888178
:1033100090E00E94D018888190E00E941219F80174
:1033200080810E949318E3CF85E596E00E94300DDE
:1033300084E296E00E94392283E296E00E94A51979
:1033400086E895E00E94820408950895FB01878134
:10335000843020F520E031E041E060E085E00E942B
:103360003B1725E031E041E061E082E00E943B173D
:1033700020E131E041E062E082E00E943B172AE177
:1033800031E041E063E082E00E943B1724E231E05B
:1033900041E064E082E00E943B170895883020F508
:1033A00020E131E041E060E083E00E943B172CE245
:1033B00031E041E061E082E00E943B1725E331E02B
:1033C00041E062E082E00E943B1721E431E041E00D
:1033D00063E082E00E943B1724E231E041E064E0D8
:1033E00082E00E943B1708958C3020F525E031E003
:1033F00041E060E083E00E943B172CE231E041E0D5
:1034000061E082E00E943B172EE431E041E062E09F
:1034100082E00E943B1721E431E041E063E082E07A
:103420000E943B1724E231E041E064E082E00E9428
:103430003B1708952AE131E041E060E083E00E941B
:103440003B172AE531E041E061E082E00E943B1752
:1034500025E631E041E062E082E00E943B1721E78F
:1034600031E041E063E082E00E943B172DE731E06C
:1034700041E064E082E00E943B1724E831E041E053
:1034800065E082E00E943B170895CF92DF92EF92B1
:10349000FF920F931F93CF93DF936B01EA012AE50D
:1034A00031E041E060E082E00E943B17CE54DF4F04
:1034B000088119812A813B816894EE24E1F8F12C7E
:1034C00041E062E085E00E94821721E931E041E0BD
:1034D00064E082E00E943B1726E931E041E064E0CD
:1034E00089E00E943B17F6018781893C99F08A3C6C
:1034F000C9F0883CF1F462E084E00E94FB158AE99F
:103500000E94161662E089E00E94FB158BE90E947A
:1035100016160FC064E081E00E94FB1582EA0E944B
:10352000161607C064E088E00E94FB1582EA0E943C
:103530001616DF91CF911F910F91FF90EF90DF90C2
:10354000CF900895CF92DF92EF92FF920F931F9347
:10355000CF93DF936B01EA0125E631E041E060E0C3
:1035600082E00E943B172BE931E041E062E082E01B
:103570000E943B17FE01EA54FF4F00811181228116
:1035800033816894EE24E1F8F12C41E062E088E0B8
:103590000E9482172FE931E041E063E082E00E945F
:1035A0003B17C654DF4F088119812A813B8141E0D6
:1035B00063E088E00E948217F6018781833DC1F0B5
:1035C00018F4823D31F032C0843D09F1853D39F176
:1035D0002DC062E087E00E94FB158AE90E94161662
:1035E00062E08CE00E94FB1582EA0E9416161EC063
:1035F00063E087E00E94FB158AE90E94161663E0EB
:103600008CE00E94FB1582EA0E9416160FC065E04E
:1036100081E00E94FB1582EA0E94161607C065E051
:1036200088E00E94FB1582EA0E94161621E931E02B
:1036300041E065E082E00E943B1726E931E041E08D
:1036400065E089E00E943B17DF91CF911F910F91B8
:10365000FF90EF90DF90CF900895CF92DF92EF929E
:10366000FF920F931F93CF93DF936B01EA0121E742
:1036700031E041E060E082E00E943B1723EA31E064
:1036800041E061E080E00E943B1720EB31E041E047
:1036900062E080E00E943B17FE01E254FF4F20E011
:1036A00030E048EC52E460817181828193810E9414
:1036B000E3268B019C016894EE24E1F8F12C41E0B3
:1036C00062E08AE00E949F1729EB31E041E063E06D
:1036D00080E00E943B17CE53DF4F8881813041F05C
:1036E00022EC31E041E063E08AE00E943B1707C032
:1036F00026EC31E041E063E08AE00E943B17F601EE
:1037000087818D3D49F018F48C3D71F02BC08E3DC2
:10371000D1F08F3D01F126C063E089E00E94FB15E6
:1037200082EA0E9416161EC062E089E00E94FB1524
:103730008AE90E94161662E08DE00E94FB158BE973
:103740000E9416160FC065E081E00E94FB1582EA18
:103750000E94161607C065E088E00E94FB1582EA09
:103760000E94161621E931E041E065E082E00E9406
:103770003B1726E931E041E065E089E00E943B1714
:10378000DF91CF911F910F91FF90EF90DF90CF903D
:103790000895CF92DF92EF92FF920F931F93CF93F2
:1037A000DF936B01EA012AEC31E041E060E082E066
:1037B0000E943B1727ED31E041E061E082E00E948A
:1037C0003B1720EE31E041E062E082E00E943B17CF
:1037D00029EE31E041E063E082E00E943B1722EFF6
:1037E00031E041E064E082E00E943B1721E931E0F2
:1037F00041E065E083E00E943B1726E931E041E0CB
:1038000065E088E00E943B172BEF31E041E061E08A
:103810008BE00E943B172BEF31E041E062E08BE050
:103820000E943B172BEF31E041E063E08BE00E9408
:103830003B172BEF31E041E064E08BE00E943B1747
:103840008F8D98A118161906C4F42EEF31E041E0CF
:1038500061E08BE00E943B176F8D78A1072E000C72
:10386000880B990B0E948D278B019C01E12CF12C78
:1038700041E061E08CE00E948217FE01E55BFF4FB2
:103880008081918118161906DCF42EEF31E041E0B9
:1038900062E08BE00E943B17FE01E55BFF4F608119
:1038A0007181072E000C880B990B0E948D278B01CC
:1038B0009C01E12CF12C41E062E08CE00E94821737
:1038C000FE01E958FF4F8081918118161906DCF43A
:1038D0002EEF31E041E063E08BE00E943B17FE01F8
:1038E000E958FF4F60817181072E000C880B990BFE
:1038F0000E948D278B019C01E12CF12C41E063E0BB
:103900008CE00E948217FE01ED55FF4F808191816E
:1039100018161906D4F42EEF31E041E064E08BE094
:103920000E943B17CD55DF4F68817981072E000C2F
:10393000880B990B0E948D278B019C01E12CF12CA7
:1039400041E064E08CE00E948217D6011796EC916A
:103950008E2F90E0FC01E65EF109E730F105D8F525
:10396000E85BFF4F0C94C32860E080E00E94FB15E9
:103970008BE90E9416162FC061E080E00E94FB15C3
:103980008BE90E94161627C062E080E00E94FB15BA
:103990008BE90E9416161FC063E080E00E94FB15B1
:1039A0008BE90E94161617C064E080E00E94FB15A8
:1039B0008BE90E9416160FC065E082E00E94FB159D
:1039C00082EA0E94161607C065E087E00E94FB1598
:1039D00082EA0E941616DF91CF911F910F91FF90FE
:1039E000EF90DF90CF900895CF92DF92EF92FF9209
:1039F0000F931F93CF93DF93CDB7DEB7CAA4DBA499
:103A0000C114D10441F420E032E041E062E081E001
:103A10000E943B1739C02BE032E041E061E081E0D9
:103A20000E943B17B6010D2C000C880B990B0E94CD
:103A30008D278B019C01E12CF12C41E061E089E0B4
:103A40000E94821782E0C816D10479F083E0C8167C
:103A5000D10499F0CA94CD28B9F424E132E041E0D0
:103A600062E080E00E943B170FC028E432E041E0B2
:103A700062E080E00E943B1707C021E732E041E0AE
:103A800062E080E00E943B17DF91CF911F910F9180
:103A9000FF90EF90DF90CF9008950F931F93CF93F7
:103AA000DF938C01EA01FB018781883E79F118F4EC
:103AB000873E41F09BC0893E09F44DC08A3E09F41F
:103AC00070C094C02FE932E041E060E083E00E94E2
:103AD0003B178DB79EB78C970FB6F8949EBF0FBE5D
:103AE0008DBFADB7BEB711968CE2FE0101900D926D
:103AF0008A95E1F7C8010E94F41CEDB7FEB7BC96A9
:103B00000FB6F894FEBF0FBEEDBF70C028EA32E0DA
:103B100041E060E083E00E943B178DB79EB78C9731
:103B20000FB6F8949EBF0FBE8DBFADB7BEB711964E
:103B30008CE2FE01BC9601900D928A95E1F7C801D6
:103B40000E94F41CEDB7FEB7BC960FB6F894FEBF0A
:103B50000FBEEDBF4BC021EB32E041E060E083E0FF
:103B60000E943B17FE01E85AFF4F8DB79EB78C9716
:103B70000FB6F8949EBF0FBE8DBFADB7BEB71196FE
:103B80008CE201900D928A95E1F7C8010E94F41C25
:103B9000EDB7FEB7BC960FB6F894FEBF0FBEEDBFF3
:103BA00025C02AEB32E041E060E083E00E943B1751
:103BB000FE01EC57FF4F8DB79EB78C970FB6F89468
:103BC0009EBF0FBE8DBFADB7BEB711968CE2019000
:103BD0000D928A95E1F7C8010E94F41CEDB7FEB77B
:103BE000BC960FB6F894FEBF0FBEEDBFDF91CF912C
:103BF0001F910F91089560E086E00E94FB158EE909
:103C00000E94161660E087E00E94FB158FE90E9473
:103C100016160895FB018081823051F065E086E040
:103C20000E94FB1583EA0E94161684EA0E9416166B
:103C30000895AF92BF92CF92DF92EF92FF920F93CF
:103C40001F93CF93DF93CDB7DEB72C970FB6F894C1
:103C5000DEBF0FBECDBF898D9A8D8230910599F060
:103C60001CF4019739F031C083309105C1F00497FD
:103C700019F12BC0CC24C394A12C00E00F2EF3E04B
:103C8000DF2EF02D22C0CC24C3940F2EFBE0AF2EEC
:103C9000F02D00E00F2EF9E0DF2EF02D16C0689415
:103CA000CC24C2F80F2EFBE0AF2EF02D03E00F2E38
:103CB000F9E0DF2EF02D09C06894CC24C2F8A12CC5
:103CC00003E00F2EF3E0DF2EF02D8DA98823A9F15C
:103CD0008CA98823C9F087EA90E09A83898388EACF
:103CE00090E09C838B8389EA90E09E838D838AEAAF
:103CF00090E098878F838BEA90E09A8789878CEA97
:103D000090E09C878B877CC08CE890E09A838983C5
:103D10008DE890E09C838B838EE890E09E838D837A
:103D20008FE890E098878F8380E990E09A87898771
:103D300081E990E09C878B8763C08CA98823C9F0B8
:103D400080E890E09A83898381E890E09C838B836C
:103D500082E890E09E838D8383E890E098878F834C
:103D600084E890E09A87898785E890E09C878B8734
:103D700047C086E890E09A83898387E890E09C8337
:103D80008B8388E890E09E838D8389E890E0988714
:103D90008F838AE890E09A8789878BE890E09C87F8
:103DA0008B872EC0612F8D2D0E94FB15F70180811E
:103DB0000E941616612F8B2D0E94FB15F701828140
:103DC0000E9416161F5FF4E0EF0EF11C1013EACFED
:103DD000CE0149960E9435248B019C016894EE2403
:103DE000E1F8F12C41E06C2D8A2D0E949F1761E0D3
:103DF0006C0D8A2D0E94FB1580EA0E94161609C0E0
:103E0000102FCE0101967C010D5FBB24B394BD0C35
:103E1000C9CF2C960FB6F894DEBF0FBECDBFDF9191
:103E2000CF911F910F91FF90EF90DF90CF90BF90B7
:103E3000AF9008950F931F93CF93DF938C01EB0105
:103E40008DB79EB78C970FB6F8949EBF0FBE8DBFEF
:103E5000ADB7BEB711968CE2FB0101900D928A9529
:103E6000E1F7C8010E94191E8DB79EB78C960FB658
:103E7000F8949EBF0FBE8DBF8C970FB6F8949EBF6F
:103E80000FBE8DBFADB7BEB711968CE2FE01BC96DA
:103E900001900D928A95E1F7C8010E94191E8DB715
:103EA0009EB78C960FB6F8949EBF0FBE8DBFFE01D5
:103EB000E85AFF4F8C970FB6F8949EBF0FBE8DBF88
:103EC000ADB7BEB711968CE201900D928A95E1F7DD
:103ED000C8010E94191E8DB79EB78C960FB6F89434
:103EE0009EBF0FBE8DBFFE01EC57FF4F8C970FB6E4
:103EF000F8949EBF0FBE8DBFADB7BEB711968CE2D2
:103F000001900D928A95E1F7C8010E94191E8DB7A4
:103F10009EB78C960FB6F8949EBF0FBE8DBFDF91F3
:103F2000CF911F910F910895FB0180818230E9F4B8
:103F300062E086E00E94FB1586E90E94161662E0A8
:103F400087E00E94FB1587E90E94161663E086E071
:103F50000E94FB1588E90E94161663E087E00E9424
:103F6000FB1589E90E941616089562E086E00E941A
:103F7000FB1582E90E94161662E087E00E94FB159D
:103F800083E90E94161663E086E00E94FB1584E92F
:103F90000E94161663E087E00E94FB1585E90E94E7
:103FA00016160895DB011796EC918E2F90E0813163
:103FB000910508F08CC0FC01E15BFF4F0C94C32815
:103FC00061E080E00E94FB158BE90E9416160895BF
:103FD00062E080E00E94FB158BE90E9416160895AE
:103FE00063E080E00E94FB158BE90E94161608959D
:103FF00064E080E00E94FB158BE90E94161608958C
:1040000061E080E00E94FB158BE90E94161608957E
:1040100062E080E00E94FB158BE90E94161608956D
:1040200064E080E00E94FB158BE90E94161608955B
:1040300063E080E00E94FB158BE90E94161608954C
:1040400061E080E00E94FB158BE90E94161608953E
:1040500062E080E00E94FB158BE90E94161608952D
:1040600063E080E00E94FB158BE90E94161608951C
:1040700064E080E00E94FB158BE90E94161608950B
:1040800061E080E00E94FB158BE90E9416160895FE
:1040900062E080E00E94FB158BE90E9416160895ED
:1040A00063E080E00E94FB158BE90E9416160895DC
:1040B00064E080E00E94FB158BE90E9416160895CB
:1040C00065E080E00E94FB158BE90E9416160895BA
:1040D0000F931F93CF93DF93EC018B010E94A619DE
:1040E000B801CE010E94D21FDF91CF911F910F9195
:1040F0000895EF92FF920F931F93CF93DF93FB01ED
:104100008081823011F080E016C0EB01CB010E946B
:104110000C0A8B019C016894EE24E1F8F12C41E03B
:1041200061E085E00E94821764E085E00E94FB1553
:1041300089810E943516DF91CF911F910F91FF90D9
:10414000EF90089561E085E00E94FB158AE90E94E6
:10415000161664E085E00E94FB158AE90E94161697
:1041600061E088E00E94FB158BE90E94161664E06E
:1041700088E00E94FB158BE90E94161608959C01A9
:10418000DB019C91923011F480E00895DB011796D9
:10419000EC914E2F50E04830510508F049C0C9015C
:1041A000FA01E05AFF4F0C94C32861E086E00E94B8
:1041B000FB158CE90E9416168DE90E94161638C070
:1041C00061E086E00E94FB1585EA0E94161686EAE9
:1041D0000E9416162DC064E086E00E94FB1585EA59
:1041E0000E94161686EA0E94161622C061E085E03B
:1041F0000E94FB158AE90E9416161AC064E085E049
:104200000E94FB158AE90E94161612C061E088E040
:104210000E94FB158BE90E9416160AC064E088E034
:104220000E94FB158BE90E94161602C00E94A22074
:104230000895EF92FF920F931F93CF93DF93EC01BA
:104240008B017A010E94FB1DB801CE010E940A1E5B
:10425000B701CE010E941A1FB801CE010E94941F1F
:10426000B801CE010E94BF20B801CE010E94792082
:10427000DF91CF911F910F91FF90EF90089523EC64
:1042800032E041E062E082E00E943B17089520EDB9
:1042900032E041E060E083E00E943B1729ED32E02C
:1042A00041E061E081E00E943B172EE033E041E015
:1042B00065E081E00E943B17089529E133E041E089
:1042C00060E084E00E943B1720E233E041E061E0DF
:1042D00080E00E943B172DE233E041E062E080E0A5
:1042E0000E943B172CE333E041E063E080E00E9452
:1042F0003B1723E433E041E065E082E00E943B1796
:1043000008952EE433E041E062E083E00E943B1731
:1043100027E533E041E063E083E00E943B17089526
:1043200021E633E041E062E083E00E943B172CE6A7
:1043300033E041E063E082E00E943B170895FB0117
:10434000E656FF4F2081318122303105A9F03CF43F
:104350002115310559F02130310559F008952330E8
:10436000310569F02039314069F008950E943F21FC
:1043700008950E94472108950E945D2108950E949A
:10438000812108950E9490210895EF92FF920F934A
:104390001F93CF93DF937C01EB018A01FA01ED5368
:1043A000FF4F8081882351F0108288E0888382E06B
:1043B00090E0FB01E656FF4F91838083F801EC53B8
:1043C000FF4F8081882351F0108288E0888380E944
:1043D00091E0FE01E656FF4F918380830E94801595
:1043E000E8818E2F90E089309105D0F5FC01E859E5
:1043F000FF4F0C94C328A801BE01C7010E941921D8
:104400002FC0A801BE01C7010E94192129C0A8011F
:10441000BE01C7010E94682023C0A801BE01C701D8
:104420000E94451A1DC0A801BE01C7010E94A21A20
:1044300017C0A801BE01C7010E942D1B11C0A80111
:10444000BE01C7010E94C91B0BC0A801BE01C70164
:104450000E944D1D05C0A801BE01C7010E949F21F9
:104460000E949515DF91CF911F910F91FF90EF90D2
:104470000895CF93DF93EC010E94750CCE0107964F
:104480000E94750CCE010E960E94750CCE014596C9
:104490000E94750CCE014C960E94750CCE0183963D
:1044A0000E94750CCE018A960E94750CDF91CF9107
:1044B0000895CF93DF93EC0140E050E064E40E9464
:1044C000760C41E050E064E4CE0107960E94760C41
:1044D00042E050E064E4CE010E960E94760C43E088
:1044E00050E064E4CE0145960E94760C44E050E032
:1044F00064E4CE014C960E94760C45E050E064E402
:10450000CE0183960E94760C46E050E064E4CE0132
:104510008A960E94760CDF91CF9108950F931F9396
:10452000CF93DF93EC018B010E960E94B40C8111A6
:104530002CC0B801CE0145960E94B40C811128C050
:10454000B801CE014C960E94B40C811124C0B80170
:10455000CE018A960E94B40C811120C0B801CE0110
:1045600083960E94B40C81111CC0B801CE010E9438
:10457000B40C811119C0B801CE0107960E94B40C89
:10458000811115C08FEF9FEF14C080E090E011C043
:1045900081E090E00EC082E090E00BC084E090E00B
:1045A00008C083E090E005C085E090E002C086E0AE
:1045B00090E0DF91CF911F910F9108950895ECE75E
:1045C000F0E0808181648083EAE7F0E080818F6899
:1045D00080830895FC01ACE7B0E08C918E7F8C93D2
:1045E0008C918D7F8C938C918B7F8C938C91877F1A
:1045F0008C936330710551F06430710569F062305D
:10460000710579F48C9181608C930BC0ACE7B0E0BC
:104610008C9182608C9305C0ACE7B0E08C91836094
:104620008C93AAE7B0E08C9180648C93108281E037
:1046300040E09C91282F392F307194FF242F208344
:104640003323B9F3609178007091790080E090E0B5
:104650000E948B272BE43CE340EA5BE30E94422864
:1046600008958093BB0084E88093BC00ECEBF0E0FD
:1046700080818823ECF79091B900987F983129F0D8
:1046800081E0983219F480E0089580E00895CF9396
:1046900094EA9093BC00ECEBF0E090819923ECF766
:1046A0009091B900987F983011F0903161F4C62F45
:1046B0000E943123813039F08C2F0E94312394E9FC
:1046C0009093BC0004C084E98093BC0081E0CF914A
:1046D0000895089560E08EE40E9447230895EF92C4
:1046E000FF920F931F93CF93DF93F90116161706CE
:1046F0000CF04FC031E04130510509F030E042305C
:10470000510509F43260E130F10511F4346003C061
:10471000329709F438600130110511F4306104C09A
:104720000230110509F430628B01EC0181E0E816DA
:10473000F10419F4632F606406C092E0E916F104F5
:1047400009F5632F60688EE40E944723198218825E
:1047500089EF90E00197F1F700C0000028813981CE
:104760002F5F3F4F39832883201731078CF360E098
:104770008EE40E94472383ED90E30197F1F700C098
:10478000000007C0632F8EE40E944723198218821D
:10479000DFCFDF91CF911F910F91FF90EF900895A0
:1047A000EF92FF920F931F93CF93DF93F9011616A9
:1047B00017060CF04FC031E04130510509F030E0F0
:1047C0004230510509F43260E130F10511F43460F2
:1047D00003C0329709F438600130110511F43061DB
:1047E00004C00230110509F430628B01EC0181E054
:1047F000E816F10419F4632F606406C092E0E9162C
:10480000F10409F5632F60688EE40E944723198242
:10481000188289EF90E00197F1F700C0000028812D
:1048200039812F5F3F4F39832883201731078CF35D
:1048300060E08EE40E94472389EF90E00197F1F752
:1048400000C0000007C0632F8EE40E944723198236
:104850001882DFCFDF91CF911F910F91FF90EF90E2
:10486000089585960E94DE220895CF93DF93EC0190
:104870006881798185960E94EA226A837B838C8392
:104880009D83DF91CF9108950F931F93CF93DF9373
:10489000EC018B0185960E94DF221983088380E05A
:1048A00090E0A0EAB0E48E839F83A887B9878AE06E
:1048B00097EDA3E2BCE38A879B87AC87BD87CE01D7
:1048C0000E9435246F87788B898B9A8B1AA219A244
:1048D00018A21F8EDF91CF911F910F910895CF9352
:1048E000DF93EC010E9435248A819B81AC81BD81DC
:1048F0008F8B988FA98FBA8FDF91CF9108958F9268
:104900009F92AF92BF92CF92DF92EF92FF92CF939E
:10491000DF93FC01238D222309F458C0248D21113B
:1049200058C0EC010E9435246B017C016A837B83B3
:104930008C839D8320E030E0A9016F89788D898D7B
:104940009A8D0E94DE26811108C08AE097EDA3E2CD
:10495000BCE38F8B988FA98FBA8F20E030E046E9B7
:1049600053E46F89788D898D9A8D0E9442284B017E
:104970005C0120E030E046E953E4C701B6010E9443
:1049800042289B01AC01C501B4010E9471266EA3AF
:104990007FA388A799A70E9455277CA36BA37BA719
:1049A0006AA71D8E772344F47195619571097CA3E4
:1049B0006BA382E090E012C0161617066CF01CA2E2
:1049C0001BA281E08D8F80E090E008C080E090E045
:1049D00005C080E090E002C081E090E0DF91CF91DF
:1049E000FF90EF90DF90CF90BF90AF909F908F900F
:1049F0000895CF93DF93EC018A819B81AC81BD81C7
:104A00008B8B9C8BAD8BBE8BCE010E9435246A8331
:104A10007B838C839D832B893C894D895E890E9491
:104A2000DE26811108C081E08C8F81E090E098A3A0
:104A30008F8F80E002C01C8E81E0DF91CF910895BE
:104A4000FC01868D811114C0848D811111C021A1BA
:104A500032A12F5F3F4F32A321A3621773075CF48B
:104A600081E0848F83E090E090A3878F81E00895B8
:104A700012A211A280E00895CF92DF92EF92FF92EE
:104A8000CF93DF93EC01CE80DF80E884F984A70127
:104A900096016F89788D898D9A8D0E943D28882393
:104AA00024F0CF8AD88EE98EFA8ECA84DB84EC8417
:104AB000FD84A70196016F89788D898D9A8D0E945A
:104AC000DE26181624F0CF8AD88EE98EFA8EDF9172
:104AD000CF91FF90EF90DF90CF900895CF92DF922B
:104AE000EF92FF92CF93DF93EC01CF84D888E988CF
:104AF000FA880E9435249B01AC01C701B6010E94CF
:104B0000DE26882359F08A819B81AC81BD818F8705
:104B1000988BA98BBA8B81E08E8F02C01E8E80E0AD
:104B2000DF91CF91FF90EF90DF90CF900895FC013F
:104B3000838D91E09827938F0895CF92DF92EF9223
:104B4000FF921F93CF93DF93EC011B8D1123E1F0B4
:104B5000CB01BA012F89388D498D5A8D0E9472265A
:104B60006F8B788F898F9A8FCE80DF80E884F9846D
:104B7000A70196010E943D28181634F4CF8AD88EDA
:104B8000E98EFA8E81E08E87812FDF91CF911F9180
:104B9000FF90EF90DF90CF900895CF92DF92EF9249
:104BA000FF921F93CF93DF93FC01138D1123E9F044
:104BB0009A01AB01EC016789708D818D928D0E9405
:104BC00071266F8B788F898F9A8FCA84DB84EC84EF
:104BD000FD84A70196010E94DE26882334F4CF8A43
:104BE000D88EE98EFA8E81E08E87812FDF91CF916A
:104BF0001F91FF90EF90DF90CF900895FC01838D7F
:104C00008111848D0895FC01848D811101C0838DF3
:104C10000895EF92FF920F931F93CF93FC01C48DE1
:104C2000C11123C08C0120E030E048EC52E46281E5
:104C30007381848195810E9442280E9455277B01BF
:104C400020E030E048EC52E4F80162857385848509
:104C500095850E9442280E9455276E157F0534F0E5
:104C600081E0F8018687C1E001C0C0E08C2FCF91C0
:104C70001F910F91FF90EF900895EF92FF920F9385
:104C80001F93CF93FC01C48DC11123C08C0120E080
:104C900030E048EC52E462817381848195810E9406
:104CA00042280E9455277B0120E030E048EC52E486
:104CB000F80166817781808591850E9442280E9453
:104CC0005527E616F70634F081E0F8018687C1E043
:104CD00001C0C0E08C2FCF911F910F91FF90EF90FA
:104CE00008955058BB27AA270E9489260C940328B0
:104CF0000E94F52738F00E94FC2720F039F49F3FEE
:104D000019F426F40C94F2270EF4E095E7FB0C94CA
:104D1000EC27E92F0E94142858F3BA17620773078B
:104D20008407950720F079F4A6F50C9436280EF444
:104D3000E0950B2EBA2FA02D0B01B90190010C01AB
:104D4000CA01A0011124FF27591B99F0593F50F4C3
:104D5000503E68F11A16F040A22F232F342F44271B
:104D6000585FF3CF469537952795A795F040539513
:104D7000C9F77EF41F16BA0B620B730B840BBAF0E3
:104D80009150A1F0FF0FBB1F661F771F881FC2F74E
:104D90000EC0BA0F621F731F841F48F48795779562
:104DA0006795B795F7959E3F08F0B0CF9395880F1C
:104DB00008F09927EE0F9795879508950E94C827C8
:104DC00008F481E008950E94F7260C9403280E94BD
:104DD000FC2758F00E94F52740F029F45F3F29F0A6
:104DE0000C94EC2751110C9437280C94F2270E9454
:104DF000142868F39923B1F3552391F3951B550BB0
:104E0000BB27AA2762177307840738F09F5F5F4F9D
:104E1000220F331F441FAA1FA9F335D00E2E3AF0DC
:104E2000E0E832D091505040E695001CCAF72BD0F4
:104E3000FE2F29D0660F771F881FBB1F2617370745
:104E40004807AB07B0E809F0BB0B802DBF01FF2777
:104E500093585F4F3AF09E3F510578F00C94EC2741
:104E60000C9437285F3FE4F3983ED4F3869577950A
:104E70006795B795F7959F5FC9F7880F911D969530
:104E8000879597F90895E1E0660F771F881FBB1F8C
:104E9000621773078407BA0720F0621B730B840B39
:104EA000BA0BEE1F88F7E09508950E945C2768947E
:104EB000B1110C94372808950E941C2888F09F5740
:104EC00098F0B92F9927B751B0F0E1F0660F771F2E
:104ED000881F991F1AF0BA95C9F714C0B13091F024
:104EE0000E943628B1E008950C943628672F782F59
:104EF0008827B85F39F0B93FCCF3869577956795E9
:104F0000B395D9F73EF490958095709561957F4F54
:104F10008F4F9F4F0895E89409C097FB3EF49095FA
:104F20008095709561957F4F8F4F9F4F9923A9F082
:104F3000F92F96E9BB279395F69587957795679511
:104F4000B795F111F8CFFAF4BB0F11F460FF1BC055
:104F50006F5F7F4F8F4F9F4F16C0882311F096E9E8
:104F600011C0772321F09EE8872F762F05C0662396
:104F700071F096E8862F70E060E02AF09A95660F4F
:104F8000771F881FDAF7880F9695879597F9089508
:104F9000990F0008550FAA0BE0E8FEEF161617064A
:104FA000E807F907C0F012161306E407F50798F0B2
:104FB000621B730B840B950B39F40A2661F0232BCB
:104FC000242B252B21F408950A2609F4A140A69547
:104FD0008FEF811D811D089597F99F6780E870E02C
:104FE00060E008959FEF80EC089500240A9416165F
:104FF000170618060906089500240A9412161306C7
:10500000140605060895092E0394000C11F4882354
:1050100052F0BB0F40F4BF2B11F460FF04C06F5F70
:105020007F4F8F4F9F4F089557FD9058440F551F46
:1050300059F05F3F71F04795880F97FB991F61F01A
:105040009F3F79F087950895121613061406551F91
:10505000F2CF4695F1DF08C0161617061806991FFD
:10506000F1CF86957105610508940895E894BB27F2
:1050700066277727CB0197F908950E94C82708F47F
:105080008FEF08950E9455280C9403280E94F5275D
:1050900038F00E94FC2720F0952311F00C94EC27A7
:1050A0000C94F22711240C9437280E94142870F3D2
:1050B000959FC1F3950F50E0551F629FF001729FBD
:1050C000BB27F00DB11D639FAA27F00DB11DAA1FCC
:1050D000649F6627B00DA11D661F829F2227B00D19
:1050E000A11D621F739FB00DA11D621F839FA00DA4
:1050F000611D221F749F3327A00D611D231F849FF4
:10510000600D211D822F762F6A2F11249F5750404A
:105110009AF0F1F088234AF0EE0FFF1FBB1F661FC5
:10512000771F881F91505040A9F79E3F510580F08E
:105130000C94EC270C9437285F3FE4F3983ED4F3AB
:10514000869577956795B795F795E7959F5FC1F732
:10515000FE2B880F911D9695879597F9089597FBDB
:10516000072E16F4009407D077FD09D00E94C928B5
:1051700007FC05D03EF4909581959F4F089570955A
:1051800061957F4F0895EE0FFF1F0590F491E02D7C
:105190000994AA1BBB1B51E107C0AA1FBB1FA6177E
:1051A000B70710F0A61BB70B881F991F5A95A9F7D0
:1051B00080959095BC01CD010895F999FECF92BDDF
:1051C00081BDF89A992780B50895A6E1B0E044E042
:1051D00050E00C940829262FF999FECF1FBA92BDF2
:1051E00081BD20BD0FB6F894FA9AF99A0FBE0196C8
:1051F0000895242F0E94EC28252F0E94EC280C945F
:1052000001290E94EB28272F0C94EC28DC01CB010C
:10521000FC01F999FECF06C0F2BDE1BDF89A3196C6
:1052200000B40D9241505040B8F70895F894FFCF64
:10523000CCC5CDDE00D3F1F2E0EDEEE2E8F2FC0009
:10524000D1EEF5F0E0EDE8F2FC00CDE0F1F2F0EEA9
:10525000E9EAE800C4E8F1EFEBE5E900CFE0F0EAC5
:10526000EEE2EAE000CDE8E6EDFFFF20EFEEE72E0C
:1052700000C2E5F0F5EDFFFF20EFEEE72E00CDE8F0
:10528000E6EDE5E520EFEEE72E00CAE0EBE8E1F021
:10529000EEE2EAE000CEE3F0E0EDE8F7E5EDE8FF6E
:1052A00000C4E8E0E3EDEEF1F2E8EAE000CEF8E871
:1052B000E1EAE800C2FBE9F2E820C4E8F1EFEB2EF6
:1052C00000CCE5EDFE00C4E8F1EF006D696E006D05
:1052D000617800C4EBE8F2E5EBFCEDEEF1F2FC00E6
:1052E000EFF0EEF6E5F1F1E000C2EAEBFEF7E8F2EE
:1052F000FC00EEF2EA00E2EAEB00D1E1F0EEF12090
:10530000EEF8E8E1EEEA00312ED1F2EEE9EAE00053
:10531000322ED1F2EEE9EAE000332ED1F2EEE9EAE4
:10532000E000342ED1F2EEE9EAE0002D2D00450038
:10533000CEF8E8E1EEEA20EDE5F200CEF8E8E1EAA9
:10534000E020C500EDE5F220EEF2E2E5F2E020F12A
:10535000F2EEE9EAE820EFF0E820EFEEEFFBF2EA08
:10536000E520E8E7ECE5EDE8F2FC20E5E520EFEEEE
:10537000EBEEE6E5EDE8E500EDE5E2EEE7E6ECEE86
:10538000E6EDEE20E2FBF1F2E0E2E8F2FC20E7E0FD
:10539000E4E0EDEDEEE520EFEEEBEEE6E5EDE8E541
:1053A00000E7E0E2E8F1E0EDE8E520E4E0F2F7E82C
:1053B000EAE020EFEEEBEEE6E5EDE8FF20E2EE209E
:1053C000E2F0E5ECFF20E4E2E8E6E5EDE8FF00319D
:1053D00020D1F2EEE9EAE0003220D1F2EEE9EAE093
:1053E000003320D1F2EEE9EAE0003420D1F2EEE918
:1053F000EAE000D1EEF5F0E0EDE5EDEE2E2E2E0028
:10540000C2EDE8ECE0EDE8E500D1F2EEE9EAE028F3
:10541000E82920EDE5F1EFF0E0E2EDFB2E20C2EE11
:10542000E7ECEEE6EDE020EDE520E0E4E5EAE2E0A1
:10543000F2EDE0FF20F0E5E0EAF6E8FF2E00CDE037
:10544000E6ECE8F2E520CEEA00CEF8E8E1EAE0009A
:10545000C8EDF4EEF0ECE0F6E8FF20E200ECE5ED5C
:10546000FE20EDE0F1F2F0EEE9EAE800EEF8E8E126
:10547000EAE800EDE0E6ECE8F2E520CECA00C2FB87
:10548000E1E5F0E8F2E500F1F2EEE9EAF328E829D7
:1054900000C4EEF1F2E8E3EDF3F2EE00EEE3F0E04B
:0854A000EDE8F7E5EDE8E50099
:00000001FF
