:100000000C9458040C9480040C9480040C94800488
:100010000C9480040C9480040C9480040C94800450
:100020000C9480040C9480040C9480040C94800440
:100030000C9480040C9480040C9480040C94800430
:100040000C9480040C9480040C9480040C94800420
:100050000C9480040C9480040C9480040C94800410
:100060000C9480040C948004350C390C3E0C430C29
:10007000480C4D0C520C570C5D0C630C690C100EA7
:10008000130E160E190E1C0E1F0E220E250E280E14
:100090007D2085208D2095209D20A520AD20A923A1
:1000A000B123B923C123C923D123E123D923E923D0
:1000B000F123F923012409241124192421242924BA
:1000C0009E24BF24CF24D724C724A924B424DF240A
:1000D000C425D025CA25D625DC25E225E825EE2530
:1000E000F4250AD7233C0AD7A33C8FC2F53C0AD794
:1000F000233DCDCC4C3D8FC2753D295C8F3D0AD749
:10010000A33DEC51B83DCDCCCC3D8FC2F53D9A9985
:10011000193ECDCC4C3E9A99993E0000003F00001C
:10012000403F0000803F0000C03F00000040000052
:100130004040C0C0E0A0A0A09090909088888884A3
:10014000848484828282828181FFC0C0E0E0A0A09A
:10015000909090908888888484848482828282812E
:1001600081FFC0C0E0E0E0A09090909088888884F3
:10017000848484828282828181FFC0C0E0E0E0E0EA
:10018000F09090908888888484848482828282819E
:1001900081FFC0C0E0E0E0E0F0F0909088888884C3
:1001A000848484828282828181FFC0C0E0E0E0E0BA
:1001B000F0F0F090888888848484848282828281AE
:1001C00081FFC0C0E0E0E0E0F0F0F0F088888884D3
:1001D000848484828282828181FFC0C0E0E0E0E08A
:1001E000F0F0F0F0F88888848484848282828281AE
:1001F00081FFC0C0E0E0E0E0F0F0F0F0F8F88884C3
:10020000848484828282828181FFC0C0E0E0E0E059
:10021000F0F0F0F0F8F8F88484848482828282819D
:1002200081FFC0C0E0E0E0E0F0F0F0F0F8F8F8FCAA
:10023000848484828282828181FFC0C0E0E0E0E029
:10024000F0F0F0F0F8F8F8FCFC848482828282817D
:1002500081FFC0C0E0E0E0E0F0F0F0F0F8F8F8FC7A
:10026000FCFC84828282828181FFC0C0E0E0E0E009
:10027000F0F0F0F0F8F8F8FCFCFCFC82828282815D
:1002800081FFC0C0E0E0E0E0F0F0F0F0F8F8F8FC4A
:10029000FCFCFCFE8282828181FFC0C0E0E0E0E0E5
:1002A000F0F0F0F0F8F8F8FCFCFCFCFEFE82828135
:1002B00081FFC0C0E0E0E0E0F0F0F0F0F8F8F8FC1A
:1002C000FCFCFCFEFEFE828181FFC0C0E0E0E0E0BD
:1002D000F0F0F0F0F8F8F8FCFCFCFCFEFEFEFE810D
:1002E00081FFC0C0E0E0E0E0F0F0F0F0F8F8F8FCEA
:1002F000FCFCFCFEFEFEFEFF81FFC0C0E0E0E0E093
:10030000F0F0F0F0F8F8F8FCFCFCFCFEFEFEFEFF5E
:10031000FFFF0000000000000000005F0000000080
:1003200000070007000000147F147F140000242A37
:100330007F2A1200004C2C106864000036495522B8
:1003400050000000050300000000001C22410000D6
:10035000000041221C00000014083E0814000008A0
:10036000083E080800000000503000000010101087
:10037000101000000060600000000020100804025F
:1003800000003E5149453E000000427F4000000011
:10039000426151494600002141454B31000018148B
:1003A000127F100000274545453900003C4A494965
:1003B0003000000171090503000036494949360043
:1003C00000064949291E00000036360000000000E2
:1003D00056360000000008142241000000141414D6
:1003E0001414000000412214080000020151090603
:1003F0000000324979413E00007E1111117E00005B
:100400007F4949493600003E4141412200007F4179
:1004100041221C00007F4949494100007F09090928
:100420000100003E4149497A00007F0808087F002A
:100430000000417F410000002040413F0100007F5B
:100440000814224100007F4040404000007F020C21
:10045000027F00007F0408107F00003E4141413EC2
:1004600000007F0909090600003E4151215E00009D
:100470007F09192946000046494949310000010118
:100480007F010100003F4040403F00001F2040200E
:100490001F00003F4038403F000063140814630011
:1004A000000708700807000061514945430000003B
:1004B0007F4141000000020408102000000041417B
:1004C0007F00000004020102040000404040404060
:1004D0000000000102040000002054545478000081
:1004E0007F484444380000384444442000003844E5
:1004F00044487F000038545454180000087E090115
:100500000200000C5252523E00007F0804047800A2
:100510000000447D400000002040443D0000007F7A
:1005200010284400000000417F400000007C0418B7
:10053000047800007C0804047800003844444438FF
:1005400000007C141414080000081414187C000027
:100550007C08040408000048545454200000043F60
:1005600044402000003C4040207C00001C204020F3
:100570001C00003C4030403C00004428102844004F
:10058000000C5050503C00004464544C44000000A7
:1005900008364100000000007F00000000004136E6
:1005A0000800000008040810080000FFFFFFFFFF1C
:1005B00000000000E0F0F8F800F8F8F0E0000000BB
:1005C0000000FFFFFFFF00FFFFFFFF000000000033
:1005D000070F1F1F001F1F0F070000000000E01083
:1005E000080800080810E00000000000FF000000FC
:1005F00000000000FF0000000000070810100010BD
:100600001008070000004080E010080800080810EB
:10061000E08040000000FF42241800182442FF0040
:100620000000020107081010001010080701020066
:100630000000605048440044485060000000000042
:10064000060A12220022120A060000000000607052
:10065000787C007C7870600000000000060E1E3E72
:10066000003E1E0E06000000183C7EE70000000061
:1006700000E77E3C180000002030381C001C383099
:100680002000000000002A2A2A2A002A2A2A2A2AD0
:1006900000000000000000030000183C7EE700009E
:1006A00000E77E3C180000000000E7E7420042E758
:1006B000E7000000000000081838700070381808C3
:1006C0000000004080E0F0F8F800F8F8F0E080402A
:1006D0000000007EBDDBE700E7DBBD7E000000021E
:1006E00001070F1F1F001F1F0F070102007C1211BF
:1006F000127C00007F4949493100007F4949493651
:1007000000007F010101010000603F213F60000007
:100710007F49494941000077087F0877000022415E
:1007200049493600007F1008047F00007E1009044C
:100730007E00007F081422410000403E01017F003E
:10074000007F020C027F00007F0808087F00003E47
:100750004141413E00007F0101017F00007F090906
:10076000090600003E41414122000001017F0101D4
:100770000000074848483F00000E117F110E00009E
:10078000631408146300003F20203F600000070846
:1007900008087F00007F407E407F00003F203F2010
:1007A0007F0000017F48483000007F4830007F0014
:1007B00000007F4848300000224149493E00007F48
:1007C000083E413E0000462919097F00002054548C
:1007D000547800003C4A4A4A3100007C54542800B6
:1007E00000007C04040C000000603C243C6000001D
:1007F000385454541800006C107C106C00000044F5
:1008000054542800007C2010087C00007C21120930
:100810007C00007C102844000000403804047C0068
:10082000007C0810087C00007C1010107C00003850
:100830004444443800007C0404047C00007C14140C
:10084000140800003844444400000004047C0404FC
:1008500000000C5050503C000008147C14080000AC
:10086000442810284400003C20203C6000000C106C
:1008700010107C00007C407C407C00003C203C2030
:100880007C0000047C50502000007C5020007C0044
:1008900000007C5050200000284454543800007C54
:1008A000103844380000485434147C000000D61C32
:1008B00011241FBECFEFD8E0DEBFCDBF13E0A0E014
:1008C000B1E0E4E5FBE502C005900D92A838B10760
:1008D000D9F727E0A8E8B3E001C01D92A936B20716
:1008E000E1F714E0C8E5D4E004C02197FE010E94BE
:1008F000552DC735D107C9F70E94B31C0C94A82DFC
:100900000C94000084569F4FFC01108208950F93B1
:100910001F93CF93DF93EC01CB01FE01EA56FF4F0B
:1009200010823196108220E130E03A83298308E07A
:100930000F8311E018830E948C131B8792E09C8721
:1009400086E6898765E06A878887198B1A8A1F87F8
:1009500024E0288B84E68E872BA346E04CA319A3C2
:100960002AA388A319A79AA71FA248A735E63EA3E2
:100970004D8F33E03E8F9B8F3C8F8A8F1F8A988FDD
:100980009D8B3E8B8C8B2FA738AB6DA782E78EA7F4
:100990008CA787E68DAB0EAB1BAA1CAB0AAB8AAF4C
:1009A0002BAF18AE99AF2FAB8FAFFE01E05CFF4FBE
:1009B0005CE050831DAF3EAF5CAF349680833196D0
:1009C0008083339790833196308332978083389633
:1009D0001083319638E630833397208331966083D5
:1009E0003297308338961083319639E630833397C7
:1009F0002083319640833297308338961083319626
:100A00003AE6308333976083319627E0208332972C
:100A100030833896108331968083339740833196A4
:100A20002083329780833896108231963BE630835C
:100A300033970083319629E02083329730833896AC
:100A4000108231964CE640833397008331963AE02A
:100A50003083329740833896108231964DE640833A
:100A60003397208331962BE020833297408338964A
:100A7000108231968083339730833196208332976A
:100A800080833896908331962EE620833397508367
:100A900031963DE0308332972083389690833196AB
:100AA0004FE640833397508331962EE02083329770
:100AB000408338969083319640E740833397308364
:100AC00031963FE030833297408338969083319659
:100AD00041E7408333972083319620E1208332978A
:100AE0004083389690833196808333973083319654
:100AF0002083CE57DF4F8883DF91CF911F910F91D5
:100B000008958F929F92AF92BF92EF92FF920F93B0
:100B10001F93CF93DF93EC01CB017A0164E670E081
:100B20000E9457268C018530910519F418821F8286
:100B300072C2069719F418821F826DC20F3F8FEFA1
:100B4000180729F41B821C821D821E8264C28F81B9
:100B50008C3C61F40115110509F068C281E08883BD
:100B60009CE09F83C856DF4F888355C28D3C59F463
:100B70000115110509F051C218821F82C856DF4FB6
:100B800081E0888348C20130110531F0023011053F
:100B900031F48F5F8F835DC081508F835AC0883C52
:100BA00009F057C00330110521F00430110551F14F
:100BB00050C05701EAECAE0EB11C2AE037ED43E21B
:100BC0005CE36B817C818D819E810E94042B9B0163
:100BD000AC01F50160817181828193810E94032BB8
:100BE000F50160837183828393838CEE91E5A8EB9A
:100BF000BDE38B839C83AD83BE838F81893C09F0E9
:100C000023C233C05701FAECAF0EB11C2AE037ED16
:100C100043E25CE36B817C818D819E810E94042B89
:100C2000F50120813181428153810E94042BF5011D
:100C300060837183828393838CEE91E5A8EBBDE39F
:100C40008B839C83AD83BE838F81893C09F0F7C180
:100C500035C08F81893C09F058C00330110529F057
:100C60000430110509F051C029C05701FEECAF0E48
:100C7000B11C20E030E040E85FE36B817C818D8136
:100C80009E810E94042B9B01AC01F5016081718162
:100C9000828193810E94032BF5016083718382839B
:100CA000938380E090E0A0E1B1E48B839C83AD83EB
:100CB000BE838F818A3C09F084C033C05701FEECAB
:100CC000AF0EB11C20E030E040E85FE36B817C8137
:100CD0008D819E810E94042BF5012081318142810A
:100CE00053810E94042BF501608371838283938377
:100CF00080E090E0A0E1B1E48B839C83AD83BE8370
:100D00008F818A3C09F05DC035C08F818A3C09F033
:100D100058C00330110529F00430110509F051C005
:100D200029C05701F2EDAF0EB11C20E030E040E8E1
:100D30005FE36B817C818D819E810E94042B9B01EE
:100D4000AC01F50160817181828193810E94032B46
:100D5000F501608371838283938380E090E0A0E15A
:100D6000B1E48B839C83AD83BE838F818B3C09F080
:100D700080C033C05701F2EDAF0EB11C20E030E06F
:100D800040E85FE36B817C818D819E810E94042B12
:100D9000F50120813181428153810E94042BF501AC
:100DA000608371838283938380E090E0A0E1B1E46B
:100DB0008B839C83AD83BE838F818B3C09F059C0AC
:100DC00033C08F818B3C09F054C00330110529F0EA
:100DD0000430110509F04DC027C087010A521F4F8A
:100DE0002AE037ED43E25CE36B817C818D819E815B
:100DF0000E94042B9B01AC01F8016081718182810A
:100E000093810E94032BF801608371838283938313
:100E10008CEE91E5A8EBBDE38B839C83AD83BE8311
:100E20008F818C3CA8F12FC087010A521F4F2AE006
:100E300037ED43E25CE36B817C818D819E810E9472
:100E4000042BF80120813181428153810E94042BBF
:100E5000F80160837183828393838CEE91E5A8EB24
:100E6000BDE38B839C83AD83BE838F818C3C80F0FC
:100E70000DC08F818C3C60F00330110521F00430EF
:100E8000110531F403C081508F8302C08F5F8F83BF
:100E90008F81893C18F488EC8F8304C08D3C10F05E
:100EA0008DEC8F83F701E653FF4F80809180A28005
:100EB000B38020E030E0A901C501B4010E94702B8D
:100EC000181664F08AE097EDA3E2BCE3F701E6535D
:100ED000FF4F80839183A283B38315C020E030E06D
:100EE00040E450E4C501B4010E94CF2C88235CF09B
:100EF00080E090E0A0E4B0E4F701E653FF4F808388
:100F00009183A283B383F701E253FF4F80809180E6
:100F1000A280B38020E030E0A901C501B4010E94A5
:100F2000702B181644F0F701E253FF4F1082118224
:100F30001282138215C020E030EC49E754E4C50169
:100F4000B4010E94CF2C88235CF080E090ECA9E7EC
:100F5000B4E4F701E253FF4F80839183A283B3830C
:100F6000F701EE52FF4F80809180A280B38020E095
:100F700030E0A901C501B4010E94702B181644F09D
:100F8000F701EE52FF4F108211821282138215C0B8
:100F900020E030EC49E754E4C501B4010E94CF2CB5
:100FA00088235CF080E090ECA9E7B4E4F701EE520E
:100FB000FF4F80839183A283B383F701EA52FF4FEF
:100FC00080809180A280B38020E030E0A901C5013B
:100FD000B4010E94702B181644F0F701EA52FF4F3B
:100FE000108211821282138215C020E030E040E0AE
:100FF0005FE3C501B4010E94CF2C88235CF0F701A8
:10100000EA52FF4F80E090E0A0E0BFE3808391834D
:10101000A283B3831EC080E01CC00130110509F417
:10102000BBCD0230110509F014CEB3CD013011054E
:1010300009F4B2CD0230110509F4ABCD0ACE8F818F
:101040008A3C09F0BECE96CE8F818A3C09F0B9CE9B
:1010500068CEDF91CF911F910F91FF90EF90BF90DD
:10106000AF909F908F900895CF92DF92EF92FF9272
:101070000F931F93CF93DF93EC01CB018A0164E6BA
:1010800070E00E9457268530910519F418821F825E
:1010900054C18630910519F418821F824EC18F3FCA
:1010A0002FEF920729F41B821C821D821E8245C1EC
:1010B0002F81243D59F4009709F04AC181E08883CB
:1010C0009DE09F83C856DF4F888337C1253D51F48B
:1010D000009709F034C118821F82C856DF4F81E0A3
:1010E00088832BC18130910531F08230910531F434
:1010F0002F5F2F839FC021502F839CC03EE2320F71
:10110000323008F097C08330910529F08430910582
:1011100009F44BC08FC0223DE9F478018AEDE80E56
:10112000F11C2AE037ED43E25CE36B817C818D8129
:101130009E810E94042B9B01AC01F70160817181AB
:10114000828193810E94032BF701608371838283E4
:1011500093831CC07801FEEDEF0EF11C2AE037ED01
:1011600043E25CE36B817C818D819E810E94042B34
:101170009B01AC01F70160817181828193810E94A2
:10118000032BF70160837183828393838CEE91E557
:10119000A8EBBDE38B839C83AD83BE832F818CE260
:1011A000820F823008F056C050C0223DD9F4780139
:1011B000FAEDEF0EF11C2AE037ED43E25CE36B81C0
:1011C0007C818D819E810E94042BF70120813181D9
:1011D000428153810E94042BF701608371838283D3
:1011E00093831AC07801FEEDEF0EF11C2AE037ED73
:1011F00043E25CE36B817C818D819E810E94042BA4
:10120000F70120813181428153810E94042BF70133
:1012100060837183828393838CEE91E5A8EBBDE3B9
:101220008B839C83AD83BE832F818CE2820F8230BF
:1012300088F40EC02F813CE2320F323058F48330F4
:10124000910519F0049731F403C021502F8302C097
:101250002F5F2F838F81833D18F482ED8F8304C02D
:10126000853D10F085ED8F8320E030E0A901F80185
:10127000E652FF4F60817181828193810E94702BC1
:1012800018163CF0F801E652FF4F108211821282CC
:10129000138220E030E040EA50E4F801E252FF4FD0
:1012A00060817181828193810E94CF2C88235CF0C0
:1012B00080E090E0A0EAB0E4F801E252FF4F8083C2
:1012C0009183A283B3838F81823D19F0833DD9F04E
:1012D00033C0F801E252FF4FC080D180E280F3803A
:1012E000A7019601349760817181828193810E9468
:1012F000CF2C88230CF1F801E652FF4FC082D18237
:10130000E282F38219C0F801E652FF4FC080D1801B
:10131000E280F380A7019601349660817181828119
:1013200093810E94702B18163CF0F801E252FF4F97
:10133000C082D182E282F38214C080E012C0813088
:10134000910509F4D8CE8230910509F073CFD0CE43
:101350008130910509F4CFCE8230910509F4C8CED1
:1013600069CFDF91CF911F910F91FF90EF90DF90A8
:10137000CF900895CF92DF92EF92FF920F931F9339
:10138000CF93DF93EC01CB018A0164E670E00E9409
:1013900057268530910519F418821F82E1C08630E6
:1013A000910519F418821F82DBC08F3F2FEF92073F
:1013B00029F41B821C821D821E82D2C02F812E3DE9
:1013C00059F4009709F0D7C081E088839EE09F839D
:1013D000C856DF4F8883C4C02F3D51F4009709F0F1
:1013E000C1C018821F82C856DF4F81E08883B8C011
:1013F0008130910531F08230910531F42F5F2F83D8
:101400000BC021502F8308C02D3D31F4009721F4EB
:10141000C8010E94431367C02F812C3D09F055C0BD
:101420008330910521F08430910549F14EC0780157
:1014300082EEE80EF11C20E030E040E85FE36B81D3
:101440007C818D819E810E94042B9B01AC01F70160
:1014500060817181828193810E94032BF7016083F7
:1014600071838283938380E090E0A0E1B1E48B8379
:101470009C83AD83BE832F812E3DA8F12FC07801C0
:10148000F2EEEF0EF11C20E030E040E85FE36B810C
:101490007C818D819E810E94042BF7012081318106
:1014A000428153810E94042BF70160837183828300
:1014B000938380E090E0A0E1B1E48B839C83AD83D3
:1014C000BE832F812E3D78F00CC02F812E3D58F029
:1014D0008330910519F0049731F403C021502F8314
:1014E00002C02F5F2F838F818D3D18F48CED8F8389
:1014F00004C08F3D10F08FED8F83F801EE51FF4F48
:10150000C080D180E280F38020E030E040EA50E407
:10151000C701B6010E94702B181664F0F801EE5155
:10152000FF4F80E090E0A0EAB0E480839183A28343
:10153000B38315C020E030EC49E754E4C701B6019D
:101540000E94CF2C88235CF0F801EE51FF4F80E021
:1015500090ECA9E7B4E480839183A283B38314C0A1
:1015600080E012C08130910509F44BCF82309105A3
:1015700009F052CF43CF8130910509F442CF823038
:10158000910509F43BCF48CFDF91CF911F910F9187
:10159000FF90EF90DF90CF9008950F931F93CF931C
:1015A000DF93EC01CB018A0164E670E00E945726CC
:1015B0008530910519F418821F8269C08630910523
:1015C00019F418821F8263C08F3F2FEF920709F42E
:1015D0005EC0009779F42F81263E21F4C8010E9455
:1015E0004B1355C02B3E09F054C081E088838FE037
:1015F0008F834DC02F818130910571F0823091052C
:1016000041F00DC018821F82C856DF4F81E08883E9
:101610003EC02F5F2F8330C021502F8315C08430F0
:10162000910531F48F818B3E29F58CEE8F832FC08D
:101630008330910531F48F818C3EB9F48BEE8F832A
:1016400026C08130910531F48F818C3EA9F48BEE58
:101650008F831DC08330910541F08430910551F096
:10166000892B51F487E0888307C081E088838FE06D
:101670008F830DC087E088838F81873E18F486EEC4
:101680008F8304C08C3E10F08CEE8F8305C080E009
:1016900003C02C3E21F6B6CFDF91CF911F910F9161
:1016A0000895CF93DF93EC01CB0164E670E00E94D4
:1016B00057269C01255031092230310528F001962A
:1016C00019F086E0888301C080E0DF91CF91089512
:1016D0000F931F93CF93DF93EC018B018F818230A7
:1016E00069F018F4813031F019C0833061F0843032
:1016F00081F014C0CB010E94212A10C0CB01C296F8
:101700000E94212A0BC0CB018C599F4F0E94212A95
:1017100005C0CB018A569F4F0E94212AFE01E45644
:10172000FF4F808181110DC0C8010E94190F8823CD
:1017300041F088E08883C656DF4F81E090E09983CE
:101740008883DF91CF911F910F910895FC01EA5694
:10175000FF4F21E02083FC012781253041F0263016
:1017600061F0243079F4E756FF4F10820BC021E07E
:10177000FC01E756FF4F208305C022E0FC01E7563D
:10178000FF4F208328E0FC012083E656FF4F1182A3
:1017900010820895DC011196ED91FC911297EE0FE5
:1017A000FF1FEE0FFF1FEE51FF4F65917591859161
:1017B00094910895FC01DC01A956BF4F81E08C9300
:1017C0008781893039F08A3059F0883071F4129667
:1017D0001C920BC081E0DF01A756BF4F8C9305C060
:1017E00082E0DF01A756BF4F8C9382E0808317828F
:1017F00008950F931F93CF93DF93EC018B01CA01E0
:101800000E94AC1264E670E0C8010E945726853041
:10181000910521F418821F8280E065C08630910511
:1018200021F418821F8280E05EC08F3F2FEF920765
:1018300009F458C02F8130E0A901440F551F440F0F
:10184000551F240F351F2C0F3D1FF901E80FF91FFD
:1018500022A9822F90E0FC01E756F109EB30F10557
:10186000F0F5EC5CFF4F0C94552D18821F8281E03F
:101870003AC0CE010E94A60B81E035C0CE010E9485
:10188000A60B81E030C0CE010E94A60B81E02BC0E8
:10189000CE010E94DA0B81E026C0CE010E94DA0B55
:1018A00081E021C0CE010E94DA0B81E01CC083E000
:1018B000888388EC8F8381E016C084E0888382ED82
:1018C0008F8381E010C085E088838CED8F8381E079
:1018D0000AC086E0888386EE8F8381E004C02F8370
:1018E00081E001C080E0DF91CF911F910F910895B9
:1018F000CF93DF93EC01CB0164E670E00E945726A2
:10190000019611F480E005C01882C456DF4F81E0D3
:101910008883DF91CF9108950F931F93CF93DF9327
:101920008C01CB01EA0164E670E00E945726019623
:1019300011F480E008C0C951DF4F188286E0F80139
:10194000808386EE8783DF91CF911F910F91089559
:10195000FC01E656FF4F208131812230310501F133
:101960003CF42115310559F021303105B1F00895CD
:1019700023303105C1F02039314011F10895EFEFE6
:10198000FDE329E4E150F0402040E1F700C0000011
:1019900021E0FC012083278308950E94780C08959C
:1019A0000E948C0C0895FFEF2DE339E4F1502040A4
:1019B0003040E1F700C00000FC011082178208955A
:1019C000FFEF2DE339E4F15020403040E1F700C053
:1019D000000024E0FC01208322ED27830895EF928C
:1019E000FF920F931F93CF93DF93EC018B017A014A
:1019F000FC01E456FF4F808181110EC0CB010E9493
:101A0000190F882349F088E0888381E090E0FE0187
:101A1000E656FF4F91838083C8010E943513C801A9
:101A20000E94B813811108C088E08883C656DF4F32
:101A300083E090E09983888385E0E816F10429F03B
:101A400086E0E816F10429F007C0C8010E94A3143B
:101A500003C0C8010E94FE13DF91CF911F910F9127
:101A6000FF90EF900895EF92FF920F931F93CF9303
:101A7000DF93EC017B018A01CA010E94AC1264E68B
:101A800070E0C7010E945726AC010597029730F419
:101A9000B801CE010E94EF0C80E039C04F3F8FEFBC
:101AA0005807A1F19F81292F30E0C901880F991FA4
:101AB000280F391F220F331F2C0F3D1FF901E40F90
:101AC000F51F80858536A1F018F4843631F01BC0EF
:101AD0008636A9F0823739F016C0B801CE010E94CF
:101AE000680B81E014C0C8010E948C1381E00FC014
:101AF00082E08883C8010E94030F81E008C081E072
:101B000088831F8204C08F8381E001C080E0DF9161
:101B1000CF911F910F91FF90EF900895EF92FF9258
:101B20000F931F93CF93DF938C01CB017A0164E66F
:101B300070E00E945726EC010597029730F4AE0141
:101B4000B701C8010E94EF0C55C0CF3F8FEFD807F7
:101B500009F450C0C7010E94B813811109C088E080
:101B6000F801808383E090E0E656FF4F9183808305
:101B7000C230D105C1F02CF4209749F0219751F0E3
:101B800028C0C330D105C1F02497E9F022C0F80184
:101B900010821FC0C8010E94CA0BAB01BC01C70163
:101BA0000E947C1716C0C8010E94CA0BAB01BC0181
:101BB000C7010E94A8170DC0F80181819281019789
:101BC0009283818306C0F80181819281019692837C
:101BD0008183F80181819281181619061CF0128206
:101BE000118207C043972CF083E190E0F8019283C3
:101BF000818301C080E0DF91CF911F910F91FF9011
:101C0000EF9008950F931F93DC01EC910E2F10E0DD
:101C100009301105F8F4F801E15CFF4F0C94552DE3
:101C20000E94330D17C00E94F90B14C00E948E0D44
:101C300011C00E9481050EC00E9434080BC00E9492
:101C4000BA0908C00E94CD0A05C00E94510B02C00B
:101C50000E94A80C1F910F9108950895FC016083C4
:101C60004183528384EF91E0968385836334A1F0AE
:101C7000643411F1623479F524B181E090E002C05E
:101C8000880F991F4A95E2F7982F9095922394B95F
:101C900095B1892B85B9089527B181E090E002C004
:101CA000880F991F4A95E2F7982F9095922397B93C
:101CB00098B1892B88B908952AB181E090E002C0DB
:101CC000880F991F4A95E2F7982F909592239AB919
:101CD0009BB1892B8BB90895FC01772374F1808126
:101CE000833479F08434B9F0823409F06AC083B166
:101CF00090E0018002C0959587950A94E2F7817083
:101D000013C086B190E0018002C0959587950A9432
:101D1000E2F7817009C089B190E0018002C0959519
:101D200087950A94E2F78170882309F44EC080E217
:101D300093E09683858380E00895148213828581E1
:101D400096811816190634F036C02581368182171F
:101D500093078CF58081833471F08434B1F0823440
:101D600091F523B130E0018002C0359527950A94A2
:101D7000E2F7217013C026B130E0018002C0359532
:101D800027950A94E2F7217009C029B130E001805B
:101D900002C0359527950A94E2F721708FE99FE0FC
:101DA0000197F1F700C0000083819481019694832C
:101DB0008383222351F284E690E09683858381E039
:101DC000089580E0089580E0089514821382B7CFCB
:101DD000CF93DF93EC010E942128CE01C2960E948E
:101DE0002128CE018C599F4F0E942128CE018A566E
:101DF0009F4F0E942128CE0188539F4F0E94322777
:101E0000DF91CF910895CF93DF93EC010E945F287B
:101E1000CE01C2960E945F28CE018C599F4F0E942E
:101E20005F28CE018A569F4F0E945F28DF91CF9195
:101E30000895CF93DF93EC010E94882A811112C08C
:101E4000CE01C2960E94882A81110CC0CE018C5905
:101E50009F4F0E94882A811105C0CE018A569F4F4C
:101E60000E94882ADF91CF910895CF93DF93FC01E0
:101E7000DC01A252BF4F8D919D910D90BC91A02D80
:101E800086839783A087B18780AF91AFA2AFB3AFAE
:101E9000EF01C659DF4F88839983AA83BB83E296FB
:101EA00088839983AA83BB83DF01A652BF4F8D919C
:101EB0009D910D90BC91A02D82879387A487B587B3
:101EC00084AF95AFA6AFB7AFAE9788839983AA8347
:101ED000BB83E056FF4F80839183A283B383DF915E
:101EE000CF910895CF93DF93EC010E94C629CE01D4
:101EF000C2960E94C629CE018C599F4F0E94C629C6
:101F0000CE018A569F4F0E94C629DF91CF91089536
:101F10002F923F924F925F926F927F928F929F92F9
:101F2000AF92BF92CF92DF92EF92FF920F931F93E7
:101F3000CF93DF9300D000D000D0CDB7DEB79E8323
:101F40008D830E9425286D807E8082E3680E711C3F
:101F5000C3010E942528ED81FE81EC59FF4FFA83D1
:101F6000E983CF010E9425284D805E80F6E94F0E5F
:101F7000511CC2010E9425288D819E8188539F4F4C
:101F80009C838B832D803E809EEC290E311CF101B9
:101F90002081318142815381AA24A394B12CCC2485
:101FA000C394D12CEE24E394F12C01E010E06AE01C
:101FB00070E08B819C810E943B278D819E810E94D5
:101FC00083298D809E80F8EF8F0E911C90E0F401A4
:101FD00091838083C3010E948329ED81FE81E650B5
:101FE000FF4F90E09183808389819A810E948329A9
:101FF000ED81FE81E450FF4F90E091838083C20128
:102000000E948329ED81FE81E250FF4F90E0918391
:102010008083F10120813181428153816894AA2417
:10202000A1F8B12C6894CC24C1F8D12C6894EE248A
:10203000E1F8F12C02E010E06AE070E08B819C8115
:102040000E943B27F40180819181892BC1F0ED81B1
:10205000FE81E650FF4F80819181892B81F0ED81D7
:10206000FE81E450FF4F80819181892B41F0ED8109
:10207000FE81E250FF4F80819181892B61F48D8137
:102080009E8189519F4F9A83898381E0E981FA81FA
:10209000808380E001C081E026960FB6F894DEBF11
:1020A0000FBECDBFDF91CF911F910F91FF90EF90A9
:1020B000DF90CF90BF90AF909F908F907F906F9068
:1020C0005F904F903F902F900895CF93DF93EC0156
:1020D00061E070E00E94342862E070E0CE01C296B8
:1020E0000E94342863E070E0CE018C599F4F0E941B
:1020F000342864E070E0CE018A569F4F0E94342855
:10210000CE0188539F4F0E943327FE01EE5FFE4FA2
:1021100081E090E091838083CE010E94880FDF915F
:10212000CF910895CF93DF93FC01E751FF4FDC017E
:1021300097962D913C91989731832083A551BF4F5D
:10214000EC01C75ADF4F2881398111963C932E93B9
:102150001296E2962881398111963C932E9312961D
:10216000E296288139812D933C93DF01AC014F50D9
:102170005F4F619171911616170624F0E417F50769
:10218000C1F727C06115710539F12D913D911216E6
:10219000130624F4261737070CF4B901A417B50762
:1021A000A1F76333710514F062E370E0EC01072ED0
:1021B000000C880B990B0E941F2CC653DF4F2881FF
:1021C00039814A815B810E94D42C0E94E72BCB018C
:1021D00005C080E090E002C080E090E0DF91CF9108
:1021E0000895CF92DF92EF92FF920F931F93CF93B8
:1021F000DF93CDB7DEB78B859C858230910571F07A
:102200001CF4019739F01DC08330910571F00497DB
:10221000A1F017C0CC24C394D12C13C0CC24C394F8
:102220000F2EFBE0DF2EF02D0CC06894CC24C2F8FA
:102230000F2EFBE0DF2EF02D04C06894CC24C2F8F2
:10224000D12CCE010B960E9425288B019C0168940D
:10225000EE24E1F8F12C41E06C2D8D2D0E94B91A8D
:102260000E94A418DF91CF911F910F91FF90EF90E2
:10227000DF90CF9008952F923F924F925F926F928E
:102280007F928F929F92AF92BF92CF92DF92EF9206
:10229000FF920F931F93CF93DF93EC018C010A52AF
:1022A0001F4FF80140815181628173810E94832810
:1022B000FE01EE50FF4F80838DB79EB7C2970FB6D9
:1022C000F8949EBF0FBE8DBFADB7BEB7119682E327
:1022D000FE0101900D928A95E1F7CE010E94F11066
:1022E0003E0192E3690E711CEDB7FEB7F2960FB690
:1022F000F894FEBF0FBEEDBFF801408151816281AD
:102300007381C3010E948328FE01ED50FF4F80833B
:102310008DB79EB7C2970FB6F8949EBF0FBE8DBF04
:10232000ADB7BEB7119682E3F30101900D928A9585
:10233000E1F7CE010E94F1104E0194E6890E911C46
:10234000EDB7FEB7F2960FB6F894FEBF0FBEEDBF25
:10235000F8014081518162817381C4010E94832808
:10236000FE01EC50FF4F80838DB79EB7C2970FB62A
:10237000F8949EBF0FBE8DBFADB7BEB7119682E376
:10238000F40101900D928A95E1F7CE010E94F110BF
:102390002E0196E9490E511CEDB7FEB7F2960FB625
:1023A000F894FEBF0FBEEDBFF801408151816281FC
:1023B0007381C2010E948328FE01EB50FF4F80838E
:1023C0008DB79EB7C2970FB6F8949EBF0FBE8DBF54
:1023D000ADB7BEB7119682E3F20101900D928A95D6
:1023E000E1F7CE010E94F110EDB7FEB7F2960FB6FD
:1023F000F894FEBF0FBEEDBFCE010E9492104F9722
:102400000CF494C0FE01EB50FF4FA080B12C31972B
:10241000C080D12C3197E080F12C1E01F2EF2F0EFD
:10242000311CF101008110E0B4972081318142819B
:10243000538164E170E0CE0188539F4F0E943B2797
:10244000F1018081882351F0CE010E948329FE0191
:10245000E850FF4F90E09183808307C081E090E0D7
:10246000FE01E850FF4F91838083FE01ED50FF4F46
:102470008081882351F0C3010E948329FE01E65028
:10248000FF4F90E09183808307C081E090E0FE01E0
:10249000E650FF4F91838083FE01EC50FF4F808117
:1024A000882351F0C4010E948329FE01E450FF4FAC
:1024B00090E09183808307C081E090E0FE01E450CA
:1024C000FF4F91838083FE01EB50FF4F8081882373
:1024D00051F0C2010E948329FE01E250FF4F90E0BB
:1024E0009183808307C081E090E0FE01E250FF4FBE
:1024F00091838083FE01E850FF4F80819181892B79
:1025000079F0329680819181892B51F032968081C9
:102510009181892B29F0329680819181892B41F418
:10252000C951DF4F81E0888380E003C081E001C0B2
:1025300081E0DF91CF911F910F91FF90EF90DF909D
:10254000CF90BF90AF909F908F907F906F905F9053
:102550004F903F902F900895CF92DF92EF92FF928D
:102560000F931F93CF93DF93FC01EA51FF4F20811C
:10257000222309F471C0EC010E94F8296E0182E364
:10258000C80ED11CC6010E94F8297E0184E6E80E1F
:10259000F11CC7010E94F8298E010A561F4FC8017D
:1025A0000E94F829FE01EC5AFF4F9AA18081892BE5
:1025B000F2969081892B29F4F2968081882309F480
:1025C0004BC0FE01EE51FF4F60817181828193818A
:1025D0000E94E72BCE010E94AA29882329F081E0DE
:1025E000FE01E951FF4F8083FE01EE51FF4F6081F4
:1025F0007181828193810E94E72BC6010E94AA29E2
:10260000882329F081E0FE01E951FF4F8083FE011C
:10261000EE51FF4F60817181828193810E94E72B8F
:10262000C7010E94AA29882329F081E0FE01E9510F
:10263000FF4F8083FE01EE51FF4F608171818281E7
:1026400093810E94E72BC8010E94AA29882321F0C8
:10265000C951DF4F81E08883DF91CF911F910F91A6
:10266000FF90EF90DF90CF900895FC0116A215A285
:10267000E95AFF4F11821082F29611821082F2966F
:10268000118210820895FC01EA51FF4F808191E090
:10269000982790830895FC0110A214A213A2EE5A69
:1026A000FF4F1082339611821082BF9610823396AC
:1026B00011821082BF961082339611821082089583
:1026C000FC0120A1211102C021E0278FFC01EE5A5C
:1026D000FF4F2081211103C021E031972083FC01AD
:1026E000EC57FF4F2081211103C021E03197208357
:1026F000FC01EA54FF4F2081211103C0319721E0F2
:1027000020830895FC01178EEF5AFF4F1082F29636
:102710001082F29610820895CF93DF93EC010E940D
:102720008D2A8823F9F0CE01C2960E948D2A882333
:10273000C9F0CE018C599F4F0E948D2A882391F0B9
:10274000CE018A569F4F0E948D2A882359F01F8EF2
:10275000FE01EF5AFF4F1082F2961082CB54DF4FEA
:10276000188203C0CE010E946013DF91CF910895BB
:10277000FC01878D81110DC0DF01AF5ABF4F8C91D5
:10278000811107C0D2968C91811103C0EB54FF4F89
:1027900080810895CF93DF93EC010E94932ACE01AC
:1027A000C2960E94932ACE018C599F4F0E94932A71
:1027B000CE018A569F4F0E94932A8A8981110EC0AA
:1027C000FE01EC5BFF4F8081811108C0F296808191
:1027D000811104C0F2968081882369F01A8AFE0173
:1027E000EC5BFF4F1082F2961082F2961082C85175
:1027F000DF4F81E08883DF91CF910895AF92BF9240
:10280000CF92DF92EF92FF920F931F93CF93DF93BC
:10281000EC018F8D882331F082E0FE01EE50FF4FF6
:10282000808304C0FE01EE50FF4F1082FE01EF5A7C
:10283000FF4F8081882329F082E0EE55FF4F80838F
:1028400004C0FE01ED50FF4F1082FE01ED57FF4F17
:102850008081882329F082E0EF58FF4F808304C0F5
:10286000FE01EC50FF4F1082FE01EB54FF4F8081C0
:10287000882329F082E0E05CFF4F808304C0FE01E2
:10288000EB50FF4F1082CE010E94CA1381111CC071
:10289000FE01EB50FF4FE080F12C3197008110E0FA
:1028A0003197A080B12C3197C080D12CB097608136
:1028B0007181828193810E94E72B9501A601CE014F
:1028C00088539F4F0E94C627DF91CF911F910F9190
:1028D000FF90EF90DF90CF90BF90AF900895CF938F
:1028E000DF93EC010E94CB2ACE01C2960E94CB2A34
:1028F000CE018C599F4F0E94CB2ACE018A569F4F02
:102900000E94CB2A8A8981110EC0FE01EC5BFF4F29
:102910008081811108C0F2968081811104C0F296F5
:102920008081882369F01A8AFE01EC5BFF4F1082D8
:10293000F2961082F2961082C851DF4F81E08883B0
:10294000DF91CF910895AF92BF92CF92DF92EF9235
:10295000FF920F931F93CF93DF93EC018F8D88230A
:1029600031F081E0FE01EE50FF4F808304C0FE0194
:10297000EE50FF4F1082FE01EF5AFF4F80818823F7
:1029800029F081E0EE55FF4F808304C0FE01ED5039
:10299000FF4F1082FE01ED57FF4F8081882329F001
:1029A00081E0EF58FF4F808304C0FE01EC50FF4FE1
:1029B0001082FE01EB54FF4F8081882329F081E0D3
:1029C000E05CFF4F808304C0FE01EB50FF4F10829C
:1029D000CE010E946F1481111CC0FE01EB50FF4F0D
:1029E000E080F12C3197008110E03197A080B12C6C
:1029F0003197C080D12CB0976081718182819381A1
:102A00000E94E72B9501A601CE0188539F4F0E949B
:102A1000C627DF91CF911F910F91FF90EF90DF902C
:102A2000CF90BF90AF900895CB0164E170E00E9419
:102A3000412D0697ECF062E086E00E940A1986E9D3
:102A40000E94251962E087E00E940A1987E90E9426
:102A5000251963E086E00E940A1988E90E94251979
:102A600063E087E00E940A1989E90E942519089508
:102A700062E086E00E940A1982E90E94251962E05C
:102A800087E00E940A1983E90E94251963E086E025
:102A90000E940A1984E90E94251963E087E00E94D8
:102AA0000A1985E90E94251908952F923F924F92A5
:102AB0005F926F927F928F929F92AF92BF92CF92CE
:102AC000DF92EF92FF920F931F93CF93DF93CDB7D7
:102AD000DEB7A0970FB6F894DEBF0FBECDBF9A8BBE
:102AE000898B0E94720FE989FA89F39581E090E061
:102AF0009183808389899A890E943B11882309F4F4
:102B0000E2C1E989FA89F395808191811816190645
:102B10000CF0D9C1212C312C89898F8B9A89988FFF
:102B2000E989FA89F296FA83E98389899A898C5925
:102B30009F4F9C838B83E989FA89EA56FF4FFE8376
:102B4000ED8389889A88F6ED8F0E911C89899A8980
:102B50008E509F4F98878F83E989FA89ED50FF4FF8
:102B6000FA87E98789899A898C509F4F9C878B8740
:102B7000E989FA89EB50FF4FFE87ED8789899A89A9
:102B80009395988B8F87E989FA89E253FF4FFC8BE5
:102B9000EB8B89899A8988539F4F9E8B8D8B9F8958
:102BA0009F8FE88DE8A306C0F4EF2F16F1E03F06F3
:102BB00009F423C18F8D8F8B98A1988F0E94712863
:102BC000E981E98FFA81FA8F89819A810E947128BF
:102BD0008B818B8F9C819C8F8B819C810E94712823
:102BE000ED81ED8FFE81FE8F8D819E810E94712887
:102BF000B1018F8D98A10E941415F401408151817B
:102C0000628173818F8D98A10E948328EF81F8855E
:102C100080838DB79EB7C2970FB6F8949EBF0FBE44
:102C20008DBFADB7BEB7119682E3EF8DF8A10190CD
:102C30000D928A95E1F78F8D98A10E94F1100FB641
:102C4000F894DEBF0FBECDBFF40140815181628197
:102C5000738189819A810E948328E985FA8580831E
:102C60008DB79EB7C2970FB6F8949EBF0FBE8DBFAB
:102C7000ADB7BEB7119682E3E981FA8101900D925A
:102C80008A95E1F78F8D98A10E94F1100FB6F89404
:102C9000DEBF0FBECDBFF4014081518162817381DF
:102CA0008B819C810E948328EB85FC8580838DB776
:102CB0009EB7C2970FB6F8949EBF0FBE8DBFADB73B
:102CC000BEB7119682E3EB81FC8101900D928A954B
:102CD000E1F78F8D98A10E94F1100FB6F894DEBF36
:102CE0000FBECDBFF40140815181628173818D811E
:102CF0009E810E948328ED85FE8580838DB79EB7D7
:102D0000C2970FB6F8949EBF0FBE8DBFADB7BEB7CA
:102D1000119682E3ED81FE8101900D928A95E1F793
:102D20008F8D98A10E94F110EF81F885008110E04D
:102D3000E985FA85E080F12CEB85FC85C080D12CFB
:102D4000ED85FE85A080B12CC8018E0D9F1D8C0DD8
:102D50009D1D8A0D9B1DEF85F88991838083EB89EA
:102D6000FC8940805180628073800FB6F894DEBF8A
:102D70000FBECDBF8F8D98A10E949210A30192012A
:102D8000BC018D899E890E943B278F8D98A10E944E
:102D90004C2989819A810E944C298B819C810E94B7
:102DA0004C298D819E810E944C299FEF291A390A56
:102DB000EF85F88980819181181619060CF4F4CEFC
:102DC000F4E62F16310449F088EC2816310429F076
:102DD0009CE2291691E0390681F48F89988D0E9432
:102DE0007F29898D9A8D0E947F298B8D9C8D0E94D1
:102DF0007F298D8D9E8D0E947F29E4EF2E16E1E0C4
:102E00003E060CF460C0E989FA89EE50FF4F8081DC
:102E1000882359F081E0E989FA8980A322E030E033
:102E200034A323A3E951FF4F8083E989FA89ED5048
:102E3000FF4F8081882399F081E0E989FA89EE5A71
:102E4000FF4F808322E030E0E989FA89EB5AFF4F97
:102E500031832083E989FA89E951FF4F8083E98929
:102E6000FA89EC50FF4F8081882399F081E0E9894D
:102E7000FA89EC57FF4F808322E030E0E989FA8934
:102E8000E957FF4F31832083E989FA89E951FF4FE0
:102E90008083E989FA89EB50FF4F8081882399F07C
:102EA000E989FA89EA54FF4F81E08083E989FA8948
:102EB000E754FF4F22E030E031832083E989FA892B
:102EC000E951FF4F8083A0960FB6F894DEBF0FBE86
:102ED000CDBFDF91CF911F910F91FF90EF90DF90C9
:102EE000CF90BF90AF909F908F907F906F905F90AA
:102EF0004F903F902F900895CF92DF92EF92FF92E4
:102F0000CF93DF93EC016A017B010E94272AB7016E
:102F1000A601CE01C2960E94272AB701A601CE01C2
:102F20008C599F4F0E94272AB701A601CE018A56CD
:102F30009F4F0E94272ACE010E945515CE010E9464
:102F40006F14DF91CF91FF90EF90DF90CF900895B5
:102F5000CF92DF92EF92FF92CF93DF93EC016A0161
:102F60007B010E94572AB701A601CE01C2960E949A
:102F7000572AB701A601CE018C599F4F0E94572AAC
:102F8000B701A601CE018A569F4F0E94572ACE0153
:102F90000E945515CE010E94CA13DF91CF91FF9078
:102FA000EF90DF90CF9008952A98613011F4299A1C
:102FB00001C029988EBD0DB407FEFDCF2A9A089551
:102FC000CF92DF92EF92FF920F931F93CF93DF93F5
:102FD0006B017C01EA01CA010197209781F061E051
:102FE00070E09B01220F331F660F771F660F771F5C
:102FF000660F771F620F731F019798F702C061E099
:1030000070E0072E000C880B990B0E941F2CA70163
:1030100096010E94D42C0E94E72BAB01BC01CA018F
:1030200099231CF021E030E002C02FEF3FEF249FF6
:10303000C001259F900D349F900D112407E913E0E6
:103040000F2EFAE0EF2EF12CF02D0F2EFEE2DF2EE8
:10305000F02D02C08F01EA01F801B7010E94412D55
:10306000805D8293862F972FAE014150510919F44C
:10307000F8013297D082009769F714161506D4F438
:10308000BE0162507109DF0140E32197CE1BDF0BC7
:103090004E93CD018C0F9D1F18161906CCF3CB0152
:1030A000992314F480E090E080959095E80FF91F43
:1030B0008EE2829380818E3211F480E382933323F7
:1030C00014F48DE28293CF01DF91CF911F910F9184
:1030D000FF90EF90DF90CF9008952C9A84B18E638B
:1030E00084B92C982C9A80E58CBD2A9A60E081E204
:1030F0000E94D41760E08FEB0E94D41760E086E056
:103100000E94D41760E083E10E94D41760E080E25F
:103110000E94D41760E08CE00E94D417089588EFD5
:1031200091E0EEE9F3E0DF019C011D922150304077
:10313000E1F710929D0310929C0387EF91E090932A
:103140009B0380939A030895EF92FF920F931F932E
:10315000CF93DF9380919C0390919D0399232CF44E
:1031600010929D0310929C0309C0883F914034F057
:1031700087EF91E090939D0380939C0380919A0345
:1031800090919B0399232CF410929B0310929A0325
:1031900009C0883F914034F087EF91E090939B0302
:1031A00080939A03C0919C03D0919D03CE0164E566
:1031B00070E00E94412D162F60E080680E94D417B5
:1031C00060E0812F80640E94D417E0909A03F09011
:1031D0009B03EC16FD066CF08E0102561C4F61E05D
:1031E000F80181918F010E94D4172196EC16FD06FB
:1031F000B4F787EF91E090939D0380939C03109226
:103200009B0310929A03DF91CF911F910F91FF9032
:10321000EF9008958E30A8F46630A8F490E09C01F9
:10322000220F331F820F931F880F991F24E5629F7F
:10323000800D911D1124909399038093980380E051
:10324000089581E0089581E00895209198033091D8
:103250009903805297E0899FF0011124EE5EFC4FA4
:10326000D901A256BC4FA9014C555C4F84918D9356
:103270003196A417B507D1F72A5F3F4F30939903D2
:103280002093980380919A0390919B038217930750
:1032900024F430939B0320939A0380E00895409197
:1032A00098035091990390E0FC01EE0FFF1FE80F87
:1032B000F91FEE0FFF1FEE0FFF1FEE0FFF1FEE5C5B
:1032C000FE4FDA01A256BC4F9A012A543C4F84911A
:1032D0008D933196A217B307D1F7485E5F4F509395
:1032E00099034093980380E008950F931F93CF9321
:1032F000DF93409198035091990320919C03309162
:103300009D034217530724F450939D0340939C035D
:10331000E0EEE60FE03A08F4A0C0603C08F49CC080
:10332000EDECE60F9AC08491880F8D933196A21729
:10333000B307C9F74B5F5F4F5093990340939803CE
:1033400065C0823009F062C0CA018455910920919C
:103350009C0330919D03821793070CF08EC09093CD
:103360009D0380939C0389C02491220F822F827039
:10337000982F990F890F982F990F822F8470382FCB
:10338000330F830F880F880F892B022F0870019F3E
:10339000002D1124082B30E035952795359527957C
:1033A0003595279535952795822F8270382F330FC5
:1033B000830F880F322F3170932F990F390F832B82
:1033C000922F9470392F330F930F990F990F892BE8
:1033D000922F9870919F902D1124282F292B0883CC
:1033E00009832C9311962C9311973196229612965D
:1033F000A617B70709F0B8CFCA010B9668EF71E0BE
:103400000E94412D90939903809398038091980393
:103410009091990320919A0330919B0328173907C3
:1034200024F490939B0380939A03FC01E256FC4F93
:103430001082873F21E0920731F410929903109295
:10344000980382E02DC0019690939903809398038E
:1034500080E026C081E024C0EFE5813009F071CF23
:1034600087E0E89FF0011124EE5EFC4FDA01A256DE
:10347000BC4F9A012D553C4F56CF99235CF327E062
:10348000E29FF0011124EE5EFC4FEA01C65BDC4FC7
:10349000DA01A256BC4FBA0168557C4F18E164CFDF
:1034A000DF91CF911F910F9108950F931F93CF93A9
:1034B000DF93D42F89010E940A19F80160816623E5
:1034C00079F0C0E08D2F0E947519813041F0CF5FF7
:1034D000F801EC0FF11D60816111F4CF01C061E0D2
:1034E000862FDF91CF911F910F910895FF920F9337
:1034F0001F93CF93DF93F42E89010E940A19F801DC
:103500006081662391F0C0E06E3221F08F2D0E9421
:103510007519D82FD13041F0CF5FF801EC0FF11DB4
:1035200060816111F1CF01C061E0862FDF91CF9101
:103530001F910F91FF900895DF92EF92FF920F93EA
:103540001F93CF93DF93C82FD62FD42EA701C90185
:10355000B8010E94E0179C014D2D6D2F8C2F0E9409
:10356000551ADF91CF911F910F91FF90EF90DF904F
:103570000895DF92EF92FF920F931F93CF93DF9303
:10358000C82FD62FD42EA701C901B8010E94E01779
:103590009C014D2D6D2F8C2F0E94761ADF91CF91BB
:1035A0001F910F91FF90EF90DF900895CF92DF92DF
:1035B000EF92FF920E946D1884E396E00E9422260B
:1035C00085E696E00E94651065E676E086E995E07E
:1035D0000E94870489E590E00E946F2D813099F167
:1035E00040E050E060E87FE385E590E00E948B2DAD
:1035F00040E050E068EC72E481E590E00E948B2DA1
:1036000040E050E060E271E48DE490E00E948B2D98
:1036100040E050E0BA0189E490E00E948B2D40E048
:1036200050E0BA0185E490E00E948B2D40E050E02C
:1036300060EA70E481E490E00E948B2D61E089E50E
:1036400090E00E947D2D85E590E00E94772D6093AB
:103650002F0770933007809331079093320781E5ED
:1036600090E00E94772D6093330770933407809326
:103670003507909336078DE490E00E94772D609394
:103680003707709338078093390790933A0789E496
:1036900090E00E94772D60933B0770933C078093E6
:1036A0003D0790933E0785E490E00E94772D60935C
:1036B0003F0770934007809341079093420781E44E
:1036C00090E00E94772D60934307709344078093A6
:1036D00045079093460785E696E00E94350F8CE3F8
:1036E00090E00E94772D6B017C0120E030E0A90181
:1036F0000E94CF2C8823BCF420E030EC49E754E44E
:10370000C701B6010E94702B18166CF440E050E01F
:1037100068E472E48CE390E00E948B2D61E080E429
:1037200090E00E947D2D8CE390E00E94772D6093C5
:103730004707709348078093490790934A0780E4AE
:1037400090E00E946F2D91E0811101C090E0909374
:103750004B07FF90EF90DF90CF900895882309F4F6
:103760005EC040912F0750913007609131077091F2
:10377000320785E590E00E948B2D409133075091F0
:103780003407609135077091360781E590E00E941B
:103790008B2D409137075091380760913907709110
:1037A0003A078DE490E00E948B2D40913B075091A9
:1037B0003C0760913D0770913E0789E490E00E94CC
:1037C0008B2D40913F0750914007609141077091C8
:1037D000420785E490E00E948B2D40914307509171
:1037E0004407609145077091460781E490E00E948C
:1037F0008B2D85E696E00E94350F4091470750914A
:1038000048076091490770914A078CE390E00E9455
:103810008B2D60914B0780E490E00E947D2D0895F0
:103820000F931F93CF93DF9320912C06222399F1BE
:10383000EC0185E696E00E942528AB01BC0184E1FD
:103840008C9F80018D9F100D1124C8018C5F9F4FAC
:103850000E948B2D87E996E00E942528AB01BC01D0
:10386000C801885F9F4F0E948B2D89EC96E00E94D3
:103870002528AB01BC01C801845F9F4F0E948B2D9E
:103880008BEF96E00E942528AB01BC01C801805F48
:103890009F4F0E948B2D10922C06DF91CF911F918C
:1038A0000F9108950F931F93CF93DF9320912D06CF
:1038B000222309F451C0EC0185E696E00E946013D2
:1038C00045E656E066E975E083E396E00E948E25C2
:1038D00084E18C9F80018D9F100D1124C8018C5FA5
:1038E0009F4F0E94772D609380067093810680938E
:1038F000820690938306C801885F9F4F0E94772DB0
:103900006093B2067093B3068093B4069093B506A5
:10391000C801845F9F4F0E94772D6093E4067093E7
:10392000E5068093E6069093E706C801805F9F4F07
:103930000E94772D609316077093170780931807DE
:103940009093190785E696E00E94551585E696E066
:103950000E9482131092960510922D06DF91CF914E
:103960001F910F9108950E94D61ACFE2D6E00EE281
:1039700016E045E656E064E376E086E995E00E94CD
:10398000020E45E656E066E975E083E396E00E94A4
:103990008E25888190E00E94101C888190E00E9412
:1039A000521CF80180810E94AE1BE3CF85E696E0B1
:1039B0000E94E80E84E396E00E94022683E396E0EC
:1039C0000E94E71C86E995E00E948204089508950C
:1039D000FB018781843020F520E031E041E060E0A8
:1039E00085E00E94551A25E031E041E061E082E087
:1039F0000E94551A20E131E041E062E082E00E943D
:103A0000551A2AE131E041E063E082E00E94551A54
:103A100024E231E041E064E082E00E94551A08951A
:103A2000883020F520E131E041E060E083E00E9451
:103A3000551A2CE231E041E061E082E00E94551A23
:103A400025E331E041E062E082E00E94551A21E482
:103A500031E041E063E082E00E94551A24E231E067
:103A600041E064E082E00E94551A08958C3020F510
:103A700025E031E041E060E083E00E94551A2CE24D
:103A800031E041E061E082E00E94551A2EE431E02D
:103A900041E062E082E00E94551A21E431E041E019
:103AA00063E082E00E94551A24E231E041E064E0E4
:103AB00082E00E94551A08952AE131E041E060E079
:103AC00083E00E94551A2AE531E041E061E082E09E
:103AD0000E94551A25E631E041E062E082E00E9452
:103AE000551A21E731E041E063E082E00E94551A77
:103AF0002DE731E041E064E082E00E94551A24E2C3
:103B000031E041E065E082E00E94551A0895CF92CD
:103B1000DF92EF92FF920F931F93CF93DF936B018E
:103B2000EA012AE531E041E060E082E00E94551AB6
:103B300024E831E041E061E080E00E94551A2CE881
:103B400031E041E062E080E00E94551A24E931E072
:103B500041E063E080E00E94551A28E931E041E04D
:103B600064E080E00E94551A21EA31E041E065E01E
:103B700082E00E94551A26EA31E041E065E089E0E2
:103B80000E94551AFE01E653FF4F008111812281E8
:103B900033816894EE24E1F8F12C41E061E089E0A2
:103BA0000E949C1AFE01E253FF4F20E030E048ECF7
:103BB00052E460817181828193810E94752B8B0117
:103BC0009C0141E062E08AE00E94B91AFE01EE52D7
:103BD000FF4F20E030E048EC52E460817181828147
:103BE00093810E94752B8B019C0141E063E08AE088
:103BF0000E94B91ACA52DF4F088119812A813B817C
:103C000041E064E089E00E949C1AF60187818A3CC9
:103C100061F128F4883C59F0893CC1F053C08C3CD8
:103C200009F441C088F18D3C09F445C04BC061E006
:103C300088E00E940A198AE90E94251961E08DE056
:103C40000E940A198BE90E9425193CC062E088E0B5
:103C50000E940A198AE90E94251962E08DE00E94FB
:103C60000A198BE90E9425192DC063E088E00E94A3
:103C70000A198AE90E94251963E08DE00E940A1959
:103C80008BE90E9425191EC064E088E00E940A1991
:103C90008AE90E94251964E08DE00E940A198BE9E7
:103CA0000E9425190FC065E081E00E940A1982EA8E
:103CB0000E94251907C065E088E00E940A1982EA7F
:103CC0000E942519DF91CF911F910F91FF90EF90E6
:103CD000DF90CF900895CF92DF92EF92FF920F93F3
:103CE0001F93CF93DF936B01EA0125E631E041E0BA
:103CF00060E082E00E94551A2BEA31E041E062E088
:103D000082E00E94551AFE01E652FF4F00811181A8
:103D1000228133816894EE24E1F8F12C41E062E0E5
:103D200088E00E949C1A2FEA31E041E063E082E0E3
:103D30000E94551AC252DF4F088119812A813B81A6
:103D400041E063E088E00E949C1AF6018781833D90
:103D5000C1F018F4823D31F032C0843D09F1853D57
:103D600039F12DC062E087E00E940A198AE90E94B9
:103D7000251962E08CE00E940A1982EA0E94251946
:103D80001EC063E087E00E940A198AE90E94251993
:103D900063E08CE00E940A1982EA0E9425190FC094
:103DA00065E081E00E940A1982EA0E94251907C095
:103DB00065E088E00E940A1982EA0E94251921EA3A
:103DC00031E041E065E082E00E94551A26EA31E0E8
:103DD00041E065E089E00E94551ADF91CF911F9183
:103DE0000F91FF90EF90DF90CF900895CF92DF92E8
:103DF000EF92FF920F931F93CF93DF936B01EA0132
:103E000021E731E041E060E082E00E94551A23EBB7
:103E100031E041E061E080E00E94551A20EC31E0A1
:103E200041E062E080E00E94551AFE01EE51FF4F32
:103E300020E030E048EC52E460817181828193811E
:103E40000E94752B8B019C016894EE24E1F8F12C03
:103E500041E062E08AE00E94B91A29EC31E041E0D9
:103E600063E080E00E94551ACA51DF4F888181309B
:103E700041F022ED31E041E063E08AE00E94551A12
:103E800007C026ED31E041E063E08AE00E94551A68
:103E9000F60187818D3D49F018F48C3D71F02BC0FF
:103EA0008E3DD1F08F3D01F126C063E089E00E9494
:103EB0000A1982EA0E9425191EC062E089E00E9468
:103EC0000A198AE90E94251962E08DE00E940A1908
:103ED0008BE90E9425190FC065E081E00E940A1954
:103EE00082EA0E94251907C065E088E00E940A194D
:103EF00082EA0E94251921EA31E041E065E082E092
:103F00000E94551A26EA31E041E065E089E00E940E
:103F1000551ADF91CF911F910F91FF90EF90DF9095
:103F2000CF900895CF92DF92EF92FF920F931F935D
:103F3000CF93DF936B01EA012AED31E041E060E0CD
:103F400082E00E94551A27EE31E041E061E082E014
:103F50000E94551A20EF31E041E062E082E00E94C9
:103F6000551A29EF31E041E063E082E00E94551AE2
:103F700022E032E041E064E082E00E94551A21EA4A
:103F800031E041E065E083E00E94551A26EA31E025
:103F900041E065E088E00E94551A2BE032E041E004
:103FA00061E08BE00E94551A2BE032E041E062E0D4
:103FB0008BE00E94551A2BE032E041E063E08BE099
:103FC0000E94551A2BE032E041E064E08BE00E9451
:103FD000551A8BA19CA118161906C4F42EE032E0E4
:103FE00041E061E08BE00E94551A6BA17CA1072E95
:103FF000000C880B990B0E941F2C8B019C01E12C5B
:10400000F12C41E061E08CE00E949C1AFE01EB5A29
:10401000FF4F8081918118161906DCF42EE032E002
:1040200041E062E08BE00E94551AFE01EB5AFF4F1F
:1040300060817181072E000C880B990B0E941F2C48
:104040008B019C01E12CF12C41E062E08CE00E94AC
:104050009C1AFE01E957FF4F8081918118161906BD
:10406000DCF42EE032E041E063E08BE00E94551A80
:10407000FE01E957FF4F60817181072E000C880B0C
:10408000990B0E941F2C8B019C01E12CF12C41E02B
:1040900063E08CE00E949C1AFE01E754FF4F808190
:1040A000918118161906D4F42EE032E041E064E064
:1040B0008BE00E94551AC754DF4F68817981072E23
:1040C000000C880B990B0E941F2C8B019C01E12C8A
:1040D000F12C41E064E08CE00E949C1AD601179616
:1040E000EC918E2F90E0FC01E65EF109E730F105DE
:1040F000D8F5E85BFF4F0C94552D60E080E00E94FE
:104100000A198BE90E9425192FC061E080E00E9406
:104110000A198BE90E94251927C062E080E00E94FD
:104120000A198BE90E9425191FC063E080E00E94F4
:104130000A198BE90E94251917C064E080E00E94EB
:104140000A198BE90E9425190FC065E082E00E94E0
:104150000A1982EA0E94251907C065E087E00E94DB
:104160000A1982EA0E942519DF91CF911F910F91C0
:10417000FF90EF90DF90CF900895CF92DF92EF9273
:10418000FF920F931F93CF93DF93CDB7DEB7CEA4EB
:10419000DFA4C114D10441F420E132E041E062E047
:1041A00081E00E94551A39C02BE132E041E061E024
:1041B00081E00E94551AB6010D2C000C880B990B5A
:1041C0000E941F2C8B019C01E12CF12C41E061E04D
:1041D00089E00E949C1A82E0C816D10479F083E03D
:1041E000C816D10499F0CA94CD28B9F424E232E07B
:1041F00041E062E080E00E94551A0FC028E532E0FD
:1042000041E062E080E00E94551A07C021E832E0F8
:1042100041E062E080E00E94551ADF91CF911F914A
:104220000F91FF90EF90DF90CF9008950F931F9321
:10423000CF93DF938C01EA01FB018781883E79F1FE
:1042400018F4873E41F09BC0893E09F44DC08A3E78
:1042500009F470C094C02FEA32E041E060E083E0EE
:104260000E94551A8DB79EB7C2970FB6F8949EBF9D
:104270000FBE8DBFADB7BEB7119682E3FE010190B0
:104280000D928A95E1F7C8010E94BD20EDB7FEB7F7
:10429000F2960FB6F894FEBF0FBEEDBF70C028EBCC
:1042A00032E041E060E083E00E94551A8DB79EB78E
:1042B000C2970FB6F8949EBF0FBE8DBFADB7BEB705
:1042C000119682E3FE01F29601900D928A95E1F734
:1042D000C8010E94BD20EDB7FEB7F2960FB6F89464
:1042E000FEBF0FBEEDBF4BC021EC32E041E060E00D
:1042F00083E00E94551AFE01EC59FF4F8DB79EB71F
:10430000C2970FB6F8949EBF0FBE8DBFADB7BEB7B4
:10431000119682E301900D928A95E1F7C8010E94FF
:10432000BD20EDB7FEB7F2960FB6F894FEBF0FBEF4
:10433000EDBF25C02AEC32E041E060E083E00E945E
:10434000551AFE01EA56FF4F8DB79EB7C2970FB6BA
:10435000F8949EBF0FBE8DBFADB7BEB7119682E376
:1043600001900D928A95E1F7C8010E94BD20EDB73A
:10437000FEB7F2960FB6F894FEBF0FBEEDBFDF9109
:10438000CF911F910F91089560E086E00E940A1975
:104390008EE90E94251960E087E00E940A198FE9E2
:1043A0000E9425190895FB018081823051F065E05B
:1043B00086E00E940A1983EA0E94251984EA0E9475
:1043C00025190895AF92BF92CF92DF92EF92FF929C
:1043D0000F931F93CF93DF93CDB7DEB72C970FB614
:1043E000F894DEBF0FBECDBF898D9A8D82309105C6
:1043F00099F01CF4019739F031C083309105C1F078
:10440000049719F12BC0CC24C394A12C00E00F2EEB
:10441000F3E0DF2EF02D22C0CC24C3940F2EFBE05E
:10442000AF2EF02D00E00F2EF9E0DF2EF02D16C09C
:104430006894CC24C2F80F2EFBE0AF2EF02D03E0E1
:104440000F2EF9E0DF2EF02D09C06894CC24C2F8BD
:10445000A12C03E00F2EF3E0DF2EF02D89AD882391
:10446000A9F188AD8823C9F087EA90E09A8389830F
:1044700088EA90E09C838B8389EA90E09E838D8319
:104480008AEA90E098878F838BEA90E09A87898701
:104490008CEA90E09C878B877CC08CE890E09A83C4
:1044A00089838DE890E09C838B838EE890E09E83E7
:1044B0008D838FE890E098878F8380E990E09A87DA
:1044C000898781E990E09C878B8763C088AD8823CA
:1044D000C9F080E890E09A83898381E890E09C832A
:1044E0008B8382E890E09E838D8383E890E09887B9
:1044F0008F8384E890E09A87898785E890E09C879D
:104500008B8747C086E890E09A83898387E890E0AC
:104510009C838B8388E890E09E838D8389E890E07C
:1045200098878F838AE890E09A8789878BE890E064
:104530009C878B872EC0612F8D2D0E940A19F70151
:1045400080810E942519612F8B2D0E940A19F70185
:1045500082810E9425191F5FF4E0EF0EF11C1013F9
:10456000EACFCE0149960E9425288B019C016894D0
:10457000EE24E1F8F12C41E06C2D8A2D0E94B91A4D
:1045800061E06C0D8A2D0E940A1980EA0E942519AB
:1045900009C0102FCE0101967C010D5FBB24B3949E
:1045A000BD0CC9CF2C960FB6F894DEBF0FBECDBFA1
:1045B000DF91CF911F910F91FF90EF90DF90CF90FF
:1045C000BF90AF9008950F931F93CF93DF938C010B
:1045D000EB018DB79EB7C2970FB6F8949EBF0FBE82
:1045E0008DBFADB7BEB7119682E3FB0101900D926E
:1045F0008A95E1F7C8010E94E2218DB79EB7C29665
:104600000FB6F8949EBF0FBE8DBFC2970FB6F89439
:104610009EBF0FBE8DBFADB7BEB7119682E3FE0140
:10462000F29601900D928A95E1F7C8010E94E2216D
:104630008DB79EB7C2960FB6F8949EBF0FBE8DBFC2
:10464000FE01EC59FF4FC2970FB6F8949EBF0FBE04
:104650008DBFADB7BEB7119682E301900D928A95DA
:10466000E1F7C8010E94E2218DB79EB7C2960FB64E
:10467000F8949EBF0FBE8DBFFE01EA56FF4FC29752
:104680000FB6F8949EBF0FBE8DBFADB7BEB71196E3
:1046900082E301900D928A95E1F7C8010E94E22120
:1046A0008DB79EB7C2960FB6F8949EBF0FBE8DBF52
:1046B000DF91CF911F910F910895FB01808182308E
:1046C000E9F462E086E00E940A1986E90E94251951
:1046D00062E087E00E940A1987E90E94251963E0D9
:1046E00086E00E940A1988E90E94251963E087E0A4
:1046F0000E940A1989E90E942519089562E086E05E
:104700000E940A1982E90E94251962E087E00E944E
:104710000A1983E90E94251963E086E00E940A19BC
:1047200084E90E94251963E087E00E940A1985E95F
:104730000E9425190895DB011796EC918E2F90E0C9
:104740008131910508F08CC0FC01E15BFF4F0C94B6
:10475000552D61E080E00E940A198BE90E9425191D
:10476000089562E080E00E940A198BE90E942519F1
:10477000089563E080E00E940A198BE90E942519E0
:10478000089564E080E00E940A198BE90E942519CF
:10479000089561E080E00E940A198BE90E942519C2
:1047A000089562E080E00E940A198BE90E942519B1
:1047B000089564E080E00E940A198BE90E9425199F
:1047C000089563E080E00E940A198BE90E94251990
:1047D000089561E080E00E940A198BE90E94251982
:1047E000089562E080E00E940A198BE90E94251971
:1047F000089563E080E00E940A198BE90E94251960
:10480000089564E080E00E940A198BE90E9425194E
:10481000089561E080E00E940A198BE90E94251941
:10482000089562E080E00E940A198BE90E94251930
:10483000089563E080E00E940A198BE90E9425191F
:10484000089564E080E00E940A198BE90E9425190E
:10485000089565E080E00E940A198BE90E942519FD
:1048600008950F931F93CF93DF93EC018B010E9468
:10487000E81CB801CE010E949B23DF91CF911F91CC
:104880000F910895EF92FF920F931F93CF93DF93B1
:10489000FB018081823011F080E016C0EB01CB017A
:1048A0000E94CA0B8B019C016894EE24E1F8F12C64
:1048B00041E061E085E00E949C1A64E085E00E948E
:1048C0000A1989810E944F19DF91CF911F910F9191
:1048D000FF90EF90089561E085E00E940A198AE94F
:1048E0000E94251964E085E00E940A198AE90E9465
:1048F000251961E088E00E940A198BE90E942519B8
:1049000064E088E00E940A198BE90E942519089545
:104910009C01DB019C91923011F480E00895DB0151
:104920001796EC914E2F50E04830510508F049C0E1
:10493000C901FA01E05AFF4F0C94552D61E086E061
:104940000E940A198CE90E9425198DE90E942519F7
:1049500038C061E086E00E940A1985EA0E942519A4
:1049600086EA0E9425192DC064E086E00E940A199B
:1049700085EA0E94251986EA0E94251922C061E075
:1049800085E00E940A198AE90E9425191AC064E08C
:1049900085E00E940A198AE90E94251912C061E087
:1049A00088E00E940A198BE90E9425190AC064E078
:1049B00088E00E940A198BE90E94251902C00E9412
:1049C0006B240895EF92FF920F931F93CF93DF9381
:1049D000EC018B017A010E94C421B801CE010E9432
:1049E000D321B701CE010E94E322B801CE010E947B
:1049F0005D23B801CE010E948824B801CE010E9437
:104A00004224DF91CF911F910F91FF90EF90089575
:104A100023ED32E041E062E082E00E94551A089501
:104A200020EE32E041E060E083E00E94551A29EE7A
:104A300032E041E061E081E00E94551A2EE133E06E
:104A400041E065E081E00E94551A089529E233E0D3
:104A500041E060E084E00E94551A20E333E041E049
:104A600061E080E00E94551A2DE333E041E062E00E
:104A700080E00E94551A2CE433E041E063E080E0DE
:104A80000E94551A23E533E041E065E082E00E9490
:104A9000551A08952EE533E041E062E083E00E947C
:104AA000551A27E633E041E063E083E00E94551A9F
:104AB000089521E733E041E062E083E00E94551A67
:104AC0002CE733E041E063E082E00E94551A08954C
:104AD000FB01E656FF4F2081318122303105A9F0DC
:104AE0003CF42115310559F02130310559F0089574
:104AF0002330310569F02039314069F008950E9472
:104B0000082508950E94102508950E9426250895DD
:104B10000E944A2508950E9459250895EF92FF9218
:104B20000F931F93CF93DF937C01EB018A01FA016E
:104B3000E951FF4F8081882351F0108288E08883FB
:104B400082E090E0FB01E656FF4F91838083F801FD
:104B5000E851FF4F8081882351F0108288E08883DC
:104B600080E991E0FE01E656FF4F918380830E9429
:104B70008F18E8818E2F90E089309105D0F5FC01E7
:104B8000E859FF4F0C94552DA801BE01C7010E94A2
:104B9000E2242FC0A801BE01C7010E94E22429C05F
:104BA000A801BE01C7010E94312423C0A801BE0193
:104BB000C7010E94871D1DC0A801BE01C7010E9438
:104BC0006B1E17C0A801BE01C7010E94F61E11C0CE
:104BD000A801BE01C7010E94921F0BC0A801BE011F
:104BE000C7010E94162105C0A801BE01C7010E948D
:104BF00068250E94A418DF91CF911F910F91FF901B
:104C0000EF900895CF93DF93EC010E942D0ECE011B
:104C100007960E942D0ECE010E960E942D0ECE01FB
:104C200045960E942D0ECE014C960E942D0ECE016F
:104C300083960E942D0ECE018A960E942D0EDF9142
:104C4000CF910895CF93DF93EC0140E050E064E40E
:104C50000E942E0E41E050E064E4CE0107960E94CF
:104C60002E0E42E050E064E4CE010E960E942E0E1D
:104C700043E050E064E4CE0145960E942E0E44E0ED
:104C800050E064E4CE014C960E942E0E45E050E0C8
:104C900064E4CE0183960E942E0E46E050E064E468
:104CA000CE018A960E942E0EDF91CF9108950F9328
:104CB0001F93CF93DF93EC018B010E960E946C0E35
:104CC00081112CC0B801CE0145960E946C0E811155
:104CD00028C0B801CE014C960E946C0E811124C0F0
:104CE000B801CE018A960E946C0E811120C0B801D5
:104CF000CE0183960E946C0E81111CC0B801CE01BA
:104D00000E946C0E811119C0B801CE0107960E9455
:104D10006C0E811115C08FEF9FEF14C080E090E002
:104D200011C081E090E00EC082E090E00BC084E012
:104D300090E008C083E090E005C085E090E002C00C
:104D400086E090E0DF91CF911F910F910895089533
:104D5000ECE7F0E0808181648083EAE7F0E0808125
:104D60008F6880830895FC01ACE7B0E08C918E7F62
:104D70008C938C918D7F8C938C918B7F8C938C9169
:104D8000877F8C936330710551F06430710569F051
:104D90006230710579F48C9181608C930BC0ACE723
:104DA000B0E08C9182608C9305C0ACE7B0E08C9150
:104DB00083608C93AAE7B0E08C9180648C9310821E
:104DC00081E040E09C91282F392F307194FF242FEF
:104DD00020833323B9F3609178007091790080E0EB
:104DE00090E00E941D2C2BE43CE340EA5BE30E9430
:104DF000D42C08958093BB0084E88093BC00ECEB36
:104E0000F0E080818823ECF79091B900987F983189
:104E100029F081E0983219F480E0089580E0089547
:104E2000CF9394EA9093BC00ECEBF0E0908199234F
:104E3000ECF79091B900987F983011F0903161F4BF
:104E4000C62F0E94FA26813039F08C2F0E94FA2654
:104E500094E99093BC0004C084E98093BC0081E095
:104E6000CF910895089587E28093B80060E08EE7BF
:104E70000E9410270895AF92BF92CF92DF92EF92D7
:104E8000FF920F931F93CF93DF93EC011616170633
:104E90000CF071C091E00130110509F090E0023092
:104EA000110509F4926081E0E816F10411F49460B0
:104EB00005C082E0E816F10409F4986081E0C816A4
:104EC000D10411F4906105C082E0C816D10409F440
:104ED000906269017A018B0181E0A816B10419F48E
:104EE000692F606406C082E0A816B104E9F5692F55
:104EF00060688EE70E941027198218828FE99FE070
:104F00000197F1F700C0000088819981019699838B
:104F100088838017910794F360E08EE70E94102742
:104F20001982188220E030E0A901C701B6010E9471
:104F3000CF2C181604F58FE99FE00197F1F700C018
:104F40000000688179816F5F7F4F79836883072EC6
:104F5000000C880B990B0E941F2CA70196010E9440
:104F6000702B882344F307C0692F8EE70E94102717
:104F700019821882C3CFDF91CF911F910F91FF90BB
:104F8000EF90DF90CF90BF90AF900895EF92FF9297
:104F90000F931F93CF93DF93F901161617060CF0AA
:104FA00049C031E04130510509F030E0423051054F
:104FB00009F43260E130F10511F4346003C0329736
:104FC00009F438600130110511F4306104C0023079
:104FD000110509F430628B01EC0181E0E816F1045F
:104FE00019F4632F606406C092E0E916F104D9F465
:104FF000632F60688EE70E941027198218828FE95C
:105000009FE00197F1F700C00000288139812F5FF0
:105010003F4F39832883201731078CF360E08EE7F8
:105020000E94102707C0632F8EE70E941027198265
:105030001882E5CFDF91CF911F910F91FF90EF90F4
:1050400008958B960E94A7260895CF93DF93EC01D5
:10505000688179818B960E94B3266A837B838C83D7
:105060009D83DF91CF9108950F931F93CF93DF938B
:10507000EC018B018B960E94A8261983088380E09F
:1050800090E0A0EAB0E48E839F83A887B9878AE086
:1050900097EDA3E2BCE38A879B87AC87BD87CE01EF
:1050A0000E9425286B8B7C8B8D8B9E8B1EA21DA254
:1050B0001CA21BA2DF91CF911F910F910895CF9356
:1050C000DF93EC010E9425288A819B81AC81BD8100
:1050D0008B8F9C8FAD8FBE8F1AA619A6DF91CF91B3
:1050E0000895FC01878D882361F080A1811109C09A
:1050F00082819381A481B58186879787A08BB18BAC
:10510000089580E008954F925F926F927F928F9200
:105110009F92AF92BF92CF92DF92EF92FF920F9346
:105120001F93CF93DF93FC01278D222309F498C0AE
:1051300020A1211198C06A017B01EC010E94252861
:105140004B015C016A837B838C839D8320E030E08C
:10515000A9016B8D7C8D8D8D9E8D0E94702B811190
:1051600008C08AE097EDA3E2BCE38B8F9C8FAD8FE4
:10517000BE8F20E030E046E953E46B8D7C8D8D8D51
:105180009E8D0E94D42C2B013C0120E030E046E9AA
:1051900053E4C501B4010E94D42C9B01AC01C301AE
:1051A000B2010E94032B6CA77DA78EA79FA70E9428
:1051B000E72B4B015C0178A76FA379AB68AB19A211
:1051C000072E000C880B990B0E941F2C2B013C0111
:1051D00020E030E046E953E4C701B6010E94D42C38
:1051E0006B017C019B01AC0160E070E0CB010E948F
:1051F000032B9B01AC01C301B2010E94702B8823D9
:105200007CF491948194910898A68FA289A59AA57F
:10521000881699065CF598A78FA382E090E02BC0D2
:1052200020E030E0A901C701B6010E94042B9B01D8
:10523000AC01C301B2010E94CF2C181654F489A509
:105240009AA588169906ACF498A78FA381E090E000
:1052500012C018A61FA281E089A380E090E00BC0D5
:1052600080E090E008C080E090E005C082E090E03F
:1052700002C081E090E0DF91CF911F910F91FF90EC
:10528000EF90DF90CF90BF90AF909F908F907F90E6
:105290006F905F904F900895CF92DF92EF92FF92C0
:1052A0000F931F93CF93FC01C78DCC23F9F020A15E
:1052B000211119C031A1311118C08C01C684D784C5
:1052C000E088F1880E9425289B01AC01C701B60146
:1052D0000E94702B81110AC0F80181A592A5019648
:1052E00092A781A703C0C0E001C0C22F8C2FCF912D
:1052F0001F910F91FF90EF90DF90CF900895FC01E8
:1053000012A611A60895CF93DF93EC018A819B81A9
:10531000AC81BD818F8B988FA98FBA8FCE010E94EF
:1053200025286A837B838C839D832F89388D498DC3
:105330005A8D0E94702B811108C081E088A381E002
:1053400090E09CA38BA380E002C018A281E0DF91D3
:10535000CF910895FC0182A1811114C080A1811117
:1053600011C025A136A12F5F3F4F36A325A3621799
:1053700073075CF481E080A383E090E094A383A3AF
:1053800081E0089516A215A280E00895CF92DF92E1
:10539000EF92FF92CF93DF93EC01CE80DF80E88421
:1053A000F984A70196016B8D7C8D8D8D9E8D0E9459
:1053B000CF2C882324F0CB8EDC8EED8EFE8ECA841B
:1053C000DB84EC84FD84A70196016B8D7C8D8D8D33
:1053D0009E8D0E94702B181624F0CB8EDC8EED8EE5
:1053E000FE8EDF91CF91FF90EF90DF90CF900895E8
:1053F000CF92DF92EF92FF92CF93DF93EC01CB88B5
:10540000DC88ED88FE880E9425289B01AC01C7013D
:10541000B6010E94702B882359F08A819B81AC8150
:10542000BD818B8B9C8BAD8BBE8B81E08AA302C030
:105430001AA280E0DF91CF91FF90EF90DF90CF90A4
:105440000895FC01878D91E09827978F0895CF925A
:10545000DF92EF92FF921F93CF93DF93EC011F8DAA
:105460001123E1F0CB01BA012B8D3C8D4D8D5E8D6A
:105470000E94042B6B8F7C8F8D8F9E8FCE80DF8060
:10548000E884F984A70196010E94CF2C181634F401
:10549000CB8EDC8EED8EFE8E81E08A8B812FDF91AC
:1054A000CF911F91FF90EF90DF90CF900895CF9212
:1054B000DF92EF92FF921F93CF93DF93FC01178D42
:1054C0001123E9F09A01AB01EC01638D748D858D98
:1054D000968D0E94032B6B8F7C8F8D8F9E8FCA843D
:1054E000DB84EC84FD84A70196010E94702B882345
:1054F00034F4CB8EDC8EED8EFE8E81E08A8B812F94
:10550000DF91CF911F91FF90EF90DF90CF900895A2
:10551000FC01878D811180A10895FC0180A181117A
:1055200001C0878D0895EF92FF920F931F93CF9341
:10553000DF93FC0100A1011123C0178D112319F184
:10554000EC0120E030E048EC52E462817381848118
:1055500095810E94D42C0E94E72B7B0120E030E053
:1055600048EC52E46A857B858C859D850E94D42C0D
:105570000E94E72B6E157F052CF081E08A8B03C01B
:1055800010E001C0102F812FDF91CF911F910F915B
:10559000FF90EF900895EF92FF920F931F93CF9398
:1055A000DF93FC0100A1011123C0178D112319F114
:1055B000EC0120E030E048EC52E4628173818481A8
:1055C00095810E94D42C0E94E72B7B0120E030E0E3
:1055D00048EC52E46E817F81888599850E94D42CA5
:1055E0000E94E72BE616F7062CF081E08A8B03C0B9
:1055F00010E001C0102F812FDF91CF911F910F91EB
:10560000FF90EF9008955058BB27AA270E941B2BAC
:105610000C94952C0E94872C38F00E948E2C20F040
:1056200039F49F3F19F426F40C94842C0EF4E09581
:10563000E7FB0C947E2CE92F0E94A62C58F3BA1796
:10564000620773078407950720F079F4A6F50C9498
:10565000C82C0EF4E0950B2EBA2FA02D0B01B9012A
:1056600090010C01CA01A0011124FF27591B99F0D8
:10567000593F50F4503E68F11A16F040A22F232FE4
:10568000342F4427585FF3CF469537952795A79534
:10569000F0405395C9F77EF41F16BA0B620B730BDB
:1056A000840BBAF09150A1F0FF0FBB1F661F771F4C
:1056B000881FC2F70EC0BA0F621F731F841F48F401
:1056C000879577956795B795F7959E3F08F0B0CF8A
:1056D0009395880F08F09927EE0F97958795089571
:1056E0000E945A2C08F481E008950E94892B0C94A2
:1056F000952C0E948E2C58F00E94872C40F029F4A3
:105700005F3F29F00C947E2C51110C94C92C0C9401
:10571000842C0E94A62C68F39923B1F3552391F3AE
:10572000951B550BBB27AA2762177307840738F010
:105730009F5F5F4F220F331F441FAA1FA9F335D06D
:105740000E2E3AF0E0E832D091505040E695001C21
:10575000CAF72BD0FE2F29D0660F771F881FBB1FDB
:10576000261737074807AB07B0E809F0BB0B802DB9
:10577000BF01FF2793585F4F3AF09E3F510578F0E5
:105780000C947E2C0C94C92C5F3FE4F3983ED4F328
:10579000869577956795B795F7959F5FC9F7880FB9
:1057A000911D9695879597F90895E1E0660F771F0B
:1057B000881FBB1F621773078407BA0720F0621B9C
:1057C000730B840BBA0BEE1F88F7E09508950E94C7
:1057D000EE2B6894B1110C94C92C08950E94AE2C44
:1057E00088F09F5798F0B92F9927B751B0F0E1F0A2
:1057F000660F771F881F991F1AF0BA95C9F714C052
:10580000B13091F00E94C82CB1E008950C94C82CDE
:10581000672F782F8827B85F39F0B93FCCF386958A
:1058200077956795B395D9F73EF4909580957095E7
:1058300061957F4F8F4F9F4F0895E89409C097FB64
:105840003EF490958095709561957F4F8F4F9F4F57
:105850009923A9F0F92F96E9BB279395F69587959B
:1058600077956795B795F111F8CFFAF4BB0F11F45E
:1058700060FF1BC06F5F7F4F8F4F9F4F16C0882305
:1058800011F096E911C0772321F09EE8872F762F3B
:1058900005C0662371F096E8862F70E060E02AF07C
:1058A0009A95660F771F881FDAF7880F9695879568
:1058B00097F90895990F0008550FAA0BE0E8FEEF3D
:1058C00016161706E807F907C0F012161306E407C4
:1058D000F50798F0621B730B840B950B39F40A26BD
:1058E00061F0232B242B252B21F408950A2609F49B
:1058F000A140A6958FEF811D811D089597F99F679F
:1059000080E870E060E008959FEF80EC0895002447
:105910000A941616170618060906089500240A9414
:1059200012161306140605060895092E0394000C9A
:1059300011F4882352F0BB0F40F4BF2B11F460FF29
:1059400004C06F5F7F4F8F4F9F4F089557FD905852
:10595000440F551F59F05F3F71F04795880F97FB33
:10596000991F61F09F3F79F08795089512161306ED
:105970001406551FF2CF4695F1DF08C0161617061C
:105980001806991FF1CF8695710561050894089551
:10599000E894BB2766277727CB0197F908950E94E3
:1059A0005A2C08F48FEF08950E94E72C0C94952C44
:1059B0000E94872C38F00E948E2C20F0952311F045
:1059C0000C947E2C0C94842C11240C94C92C0E94D1
:1059D000A62C70F3959FC1F3950F50E0551F629F61
:1059E000F001729FBB27F00DB11D639FAA27F00D38
:1059F000B11DAA1F649F6627B00DA11D661F829F5F
:105A00002227B00DA11D621F739FB00DA11D621F43
:105A1000839FA00D611D221F749F3327A00D611D60
:105A2000231F849F600D211D822F762F6A2F112442
:105A30009F5750409AF0F1F088234AF0EE0FFF1F75
:105A4000BB1F661F771F881F91505040A9F79E3FCC
:105A5000510580F00C947E2C0C94C92C5F3FE4F32C
:105A6000983ED4F3869577956795B795F795E79522
:105A70009F5FC1F7FE2B880F911D9695879597F92B
:105A8000089597FB072E16F4009407D077FD09D0F0
:105A90000E945B2D07FC05D03EF4909581959F4FA9
:105AA0000895709561957F4F0895EE0FFF1F059043
:105AB000F491E02D0994AA1BBB1B51E107C0AA1F5A
:105AC000BB1FA617B70710F0A61BB70B881F991F9F
:105AD0005A95A9F780959095BC01CD010895F99943
